:020000040000FA
:10000000F82F00209D030000C9010000A972000024
:1000100000000000000000000000000000000000E0
:10002000000000000000000000000000AD03000020
:100030000000000000000000AF030000B10300005A
:10004000B7030000B7030000B7030000B7030000C8
:10005000B7030000B7030000B70300009998000041
:10006000B7030000B7030000B7030000B7030000A8
:10007000B7030000979D0000BB9D0000B703000080
:10008000B7030000B7030000B7030000B703000088
:10009000B7030000B7030000B7030000B703000078
:1000A000B7030000B7030000B7030000B703000068
:1000B000D5720000B7030000B703000087480000B6
:1000C00000F002F800F054F80CA030C808382418EA
:1000D0002D18A246671EAB4654465D46AC4201D180
:1000E00000F046F87E460F3E0FCCB646012633425E
:1000F00000D0FB1AA246AB463343184770080100F4
:10010000900801000023002400250026103A01D3A6
:1001100078C1FBD8520700D330C100D50B607047BF
:1001200010B5662902D10FF0B1FE10BD642902D1CD
:1001300009F0F6FF10BD782902D10AF027F810BDAA
:10014000632902D10BF048FB10BD732902D10BF0DB
:100150004BFB10BD002010BD1FB50BF0A3FB04002E
:10016000002000210FF04CFDE0601FBD10B510BD58
:100170000BF0FAFE1146FFF7EFFF04F0F2FB0BF075
:1001800012FF03B4FFF7F2FF03BC09F053FF0000B6
:1001900070B505460C46164602E00FCC0FC5103E62
:1001A000102EFAD2082E02D303CC03C5083E042E2B
:1001B00007D301CC01C5361F03E021782970641CE8
:1001C0006D1C761EF9D270BD1349096802221140D8
:1001D00000290DD010490968490849000E4A1160EC
:1001E00000BF0D490968022211400029F9D10DE034
:1001F000002007E00949096910221140102900D1A7
:1002000003E0401C06498842F4DB00BF7047054804
:100210000549086170470000403000F000F00FF819
:10022000FFFF0100130700000090044010B54B4889
:10023000806B1F21490208434849886348488078F9
:1002400008210840002804D04548807808434449E4
:10025000887044480068444908604048406801216B
:10026000090408433D4948603F480468E10F091903
:1002700048107D21C9000AF0F8F83C490860374869
:1002800040680321890688430121890640183349C3
:1002900048607D21C900344800680AF0E6F8344916
:1002A00008602E4840304068000F411C304800680C
:1002B0000AF0D1F82F4908602848403040680722EA
:1002C00012041040000C411C2A4800680AF0C3F8D0
:1002D00029490860012040022849486088600320BD
:1002E000000227494860086026498860C860E1220A
:1002F00052021E480168244809F07BFDE1225202A7
:100300001D480168214809F0FFFC4B22D2011A4820
:1003100001681F4809F0F8FC10BDFF2001301749A3
:100320000861084600690921090408431349086166
:100330001E20002805DBC206D20E01219140154A7D
:10034000116000BF7047052000021349C8600348D0
:1003500040684021084301494860704700800440DC
:1003600000D0074050F2FF1F34F2FF1F48F2FF1F7A
:1003700038F2FF1F3CF2FF1F40F2FF1F00900440C5
:1003800000D0044000C0044000A0064000B0064079
:1003900000C0064000E100E000B00440094880478A
:1003A000094809480047FEE708488047FEE7FEE79E
:1003B000FEE707488047FEE706480749054A074B1E
:1003C0007047000029940000C1000000A9720000DD
:1003D000D572000028220020282B0020282200208F
:1003E00010B50446E1B2054809F0B7FDE0B210BD12
:1003F00010B5024809F0A8FD10BD000000A006409D
:10040000FFFFFFFFFFFFFFFFFFFFFFFFFEFFFFFFFD
:10041000FE48007908210840002803D0FB48C07935
:10042000FB490860F948007918210843F749087129
:10043000704770B50546002400BF05E0295DF3480C
:1004400009F0C5FC601CC4B2284608F0BDFBA04200
:10045000F4D870BDFFB581B0074614461D460A9E0C
:10046000FFF7D6FF0020EB490860EB49EB4809F0A5
:10047000EEFF0020EA490860FFF7CAFF3846FFF7A1
:10048000D8FF0A200CF04AF90D21E04809F09FFC42
:1004900000BFE248029909F069FFE249086021467D
:1004A000DE4809F063FFE04908602946DB4809F0AF
:1004B0005DFFDE490860DB48006800280BD1DA48A0
:1004C0000068002807D108460068002803D1D148F9
:1004D0000068B04201DD012000E00020D44908702E
:1004E000084600780028D4D0FFF792FFC94800687A
:1004F000B04217DD0D21C54809F069FC0A21C34847
:1005000009F065FC1A21C14809F061FC1A21BF48B5
:1005100009F05DFC0D21BD4809F059FC0A21BB48DA
:1005200009F055FC05B0F0BDFFB581B00746144693
:100530001D460A9EFFF76CFF0020B6490860B649C9
:10054000B64809F084FF0020B5490860FFF760FF56
:100550003846FFF76EFF0A21AC4809F038FC0A2143
:10056000AA4809F034FC0A200CF0D8F800BFAB48C8
:10057000029909F0FBFEAB4908602146A74809F043
:10058000F5FEA94908602946A44809F0EFFEA749ED
:100590000860A448006800280BD1A3480068002820
:1005A00007D108460068002803D19A480068B04285
:1005B00001DD012000E000209D4908700846007818
:1005C0000028D4D0FFF724FF92480068B04217DD1E
:1005D0000D218E4809F0FBFB0A218C4809F0F7FB3E
:1005E0001A218A4809F0F3FB1A21884809F0EFFB29
:1005F0000D21864809F0EBFB0A21844809F0E7FB4E
:1006000005B0F0BD70B504460D46204608F0DCFA92
:10061000884908600020884908600BE08648006827
:10062000205CA84201D1012070BD83480068401CB5
:1006300081490860804800687E4909688842EDDD8C
:100640000020F1E770B5044600207C4908607F2057
:10065000C0057B49086020782D2802D1641C7948A8
:1006600008600020784908602FE020782E2803D108
:1006700001207549086027E0207830387349086008
:100680000846006800281EDB0846006809281ADCB6
:100690006D480068002806D06D49694800680AF076
:1006A0000BFD67490860694800680AF0FFFD0546D0
:1006B0006749624800680FF029FB064629460FF09B
:1006C000B5FA5E49086000BF641C20780028CCD1D0
:1006D0005B480168594800680FF018FB70BD00B511
:1006E0005C480068012802D163205B4908705A48C1
:1006F000007803000BF0E6FF06040F1A25303B4696
:1007000001204007554988608000486020205349F7
:100710004039486044E0012040075049886080002B
:10072000886020204D494039486039E00120400769
:100730004A49486080008860202048494039486024
:100740002EE0012040074549486080004860202095
:1007500042494039886023E0012040073F498860D2
:100760008000486020203D494039886018E0012021
:1007700040073A4988608000886020203749403926
:1007800088600DE0012040073449486080004860DF
:10079000202032494039486000202F49087000BFAE
:1007A00000BF00BD2E480079182108432C4908716C
:1007B0007047F8B506460F4614461D46174808F020
:1007C00003FA2849086008460168144809F03FFE0A
:1007D000002013490860244824490860FFF718FEE8
:1007E0002348244908603046FFF723FE00BF1F4816
:1007F0000068401E1D4908601E480068401E1D49D3
:1008000008603946054809F0B1FD35E000B0064002
:1008100020F0FF1F14F0FF1F881300005CF2FF1F81
:100820000CF0FF1F2CF0FF1F30F0FF1F34F0FF1FF4
:1008300028F0FF1F24F2FF1F28F2FF1F88F0FF1F80
:100840008CF0FF1F000080BF94F0FF1F90F0FF1F8F
:100850000000204184F1FF1F78F0FF1F00F10F40DE
:1008600000C00640E4F0FF1F9F86010054F0FF1F08
:10087000D107000058F0FF1FFE4908602146FE48DE
:1008800009F074FDFD4908602946FB4809F06EFD3A
:10089000FB490860F748006800280BD1F74800685A
:1008A000002807D108460068002803D1F5480068F1
:1008B000012801DC012000E00020F349087008460F
:1008C0000078002893D0FFF7A3FDEB48F8BD38B5BA
:1008D00004466421ED4809F0BAFDED4AEDA1EB486C
:1008E00009F0BAFBEF480068EFA3F1A2F2A1009073
:1008F000E648FFF75EFFF0A1DF4809F037FD00286A
:1009000031D00020ED4908600CE0EC480068215C23
:10091000EB4809F05CFAFFF77BFDE8480068401CF3
:10092000E6490860204608F04FF9E4490968884222
:10093000EBD81A21E24809F04AFA0020E1490860A0
:10094000E148E249086004E0E0480068401EDF49F1
:100950000860DFA1C84809F009FD002803D1DB4881
:1009600000680128F0DA38BD01460020DA4A10603C
:10097000DA4A10600FE0D84800680A225043D74A8C
:1009800012688A5C80183038D34A1060D3480068F7
:10099000401CD24A1060D1480068085C0028EAD1A7
:1009A000CD4800687047F8B504460E4617461D4608
:1009B0000A200BF0B3FE0F21284609F048FD002065
:1009C000C7490860C74908601AE0C5480068205C4C
:1009D000222808D1C3480068401CC2490860C048AA
:1009E0000068C1490860BF480068B84203DBE120E5
:1009F0008000BB490860BA480068401CB8490860DC
:100A0000B74800686428E0DB0020B5490860B549B4
:100A100008601AE0B2480068205C222808D1B1487A
:100A20000068401CAF490860AD480068AF490860E5
:100A3000AC480068B04203DBE1208000A8490860B0
:100A4000A7480068401CA6490860A54800686428BB
:100A5000E0DB0020A24908600EE0A4480068A0493D
:100A600009684018401C205C9D49096868549C48EE
:100A70000068401C9A4908609B4800689B490968C7
:100A8000401A401E964909688842E6DCF8BDF8B570
:100A900005460E46002400270020009000BF07E016
:100AA000285D0A2803D1B74201DA7F1C0094641C38
:100AB000284608F089F8A042F2D80098F8BD70B531
:100AC00005460C4600208A4908608A4908600EE005
:100AD00088480068205CA84204D185480068401C12
:100AE0008349086083480068401C824908602046AA
:100AF00008F06AF87F4909688842E9D87C480068AC
:100B000070BD38B57C48006808F05EF804462146A0
:100B10007948006809F09BFC7848006808F054F8B0
:100B2000044621467548006809F091FC3E21524870
:100B3000FFF768FD724908700846007800287CD0ED
:100B4000FFF766FC6F494C4809F081FC6EA16F48C5
:100B500008F04AF86D4808F037F86D490860002041
:100B60006C49086057490860544908600BE06748C1
:100B7000524A1268815C524809F029F94F480068CE
:100B8000401C4E4908604D48006861490968884228
:100B9000EDDB0A214A4809F01AF91A21484809F000
:100BA00016F91A21464809F012F91A21444809F0A9
:100BB0000EF91A21424809F00AF91A21404809F0B1
:100BC00006F900BF54A12C4809F0D0FB4A4908603F
:100BD00053A1294809F0CAFB5349086053A126488C
:100BE00009F0C4FB5349086053A1234809F0BEFB38
:100BF000534908604C48006800280FD14D480068F0
:100C000000280BD108460068002807D13A48006840
:100C1000002803D13F4800680428D3DD1A21284862
:100C200009F0D5F81A21264809F0D1F81A212448EC
:100C300009F0CDF81A21224800E015E009F0C7F8C4
:100C400040480068012806D13F4800683F490860D5
:100C500000203C49086014200BF060FD2EA10648DE
:100C600009F084FB2449086023480068002870D0FC
:100C700000F0D6FF2CF0FF1F5CF2FF1F30F0FF1FCB
:100C800034F0FF1F54F0FF1F28F0FF1FC01A002090
:100C9000C00B00200A41542B434D47533D2225737E
:100CA000220D0A0088F1FF1F4552524F523A0000B0
:100CB0004552524F520D0A003E00000004F0FF1F43
:100CC00000B006400CF0FF1F9F860100F4F1FF1FEB
:100CD0002B434D47533A00002CF2FF1F14F1FF1F26
:100CE00060F0FF1F68F0FF1F64F0FF1F08F0FF1F98
:100CF000D8F0FF1FD4F0FF1F44F0FF1F40F0FF1F8C
:100D00003CF0FF1F881300000A0A0000E4050020E1
:100D100038F0FF1F14F0FF1F53454E44204F4B0087
:100D20004552524F5200000048F0FF1F4641494CC7
:100D3000000000004CF0FF1F4445414354000000F8
:100D400050F0FF1F24F0FF1F20F0FF1F8CF1FF1F4A
:100D5000FFE71A21FD4809F03AF8FFF759FB0A208E
:100D60000BF0DCFC1A21F94809F031F8FFF750FBD1
:100D70000A200BF0D3FC1A21F44809F028F8FFF7F9
:100D800047FB0A200BF0CAFC0A221146F0480CF07F
:100D90001BFDF0A1EE4807F027FF64200BF0BEFC1E
:100DA000FFF736FB6421EC4809F051FBE84807F0F7
:100DB0000BFF441C2346E94AE9A1E74809F04CF936
:100DC0000520F04B1A46703AEFA10090E248FFF779
:100DD00041FBFFF71DFB0020EC490860EC4908606F
:100DE000EC4908600BE0DA48EA4A1268815CD748AF
:100DF00008F0EDFFE7480068401CE6490860D44869
:100E000007F0E2FEE34909688842ECD80A21CF489E
:100E100008F0DDFF0A21CD4808F0D9FF0A21CB48B0
:100E200008F0D5FF0A21C94808F0D1FF0A21C748B8
:100E300008F0CDFF0A21C54808F0C9FF0A21C348C0
:100E400008F0C5FF0A21C14808F0C1FF0A21BF48C8
:100E500008F0BDFF0A21BD4808F0B9FF0A21BB48D0
:100E600008F0B5FF0A21B94808F0B1FF0A21B748D8
:100E700008F0ADFF0A21B54808F0A9FF0A21B348E0
:100E800008F0A5FF0A21B14808F0A1FF0A21AF48E8
:100E900008F09DFF0A21AD4808F099FF0A21AB48F0
:100EA00008F095FF0A21A94808F091FF0A21A748F8
:100EB00008F08DFF0A21A54808F089FF0A21A34800
:100EC00008F085FF0A21A14808F081FF0A219F4808
:100ED00008F07DFF0A219D4808F079FF0A219B4810
:100EE00008F075FF0A21994808F071FF0A21974818
:100EF00008F06DFF0A21954808F069FF0A21934820
:100F000008F065FF0A21914808F061FF0A218F4827
:100F100008F05DFF0A218D4808F059FF0A218B482F
:100F200008F055FF0A21894808F051FF0A21874837
:100F300008F04DFF0A21854808F049FF0A2183483F
:100F400008F045FF0A21814808F041FF0A217F4847
:100F500008F03DFF0A217D4808F039FF0A217B484F
:100F600008F035FF0A21794808F031FF0A21774857
:100F700008F02DFF0A21754808F029FF0A2173485F
:100F800008F025FF0A21714808F021FF0A216F4867
:100F900008F01DFF0A216D4808F019FF0A216B486F
:100FA00008F015FF0A21694808F011FF0A21674877
:100FB00008F00DFF0A21654808F009FF0A2163487F
:100FC00008F005FF0A21614808F001FF0A215F4887
:100FD00008F0FDFE00BF70A1714809F0C7F90028B4
:100FE00009D168496E4809F0C1F9002803D1684861
:100FF00000680528EFDDFFF70BFA554807F0E4FD20
:1010000004462146524809F022FAFFF701FA5048F7
:1010100007F0DAFD044621464D4809F018FA614808
:101020000068012809D06048006860490860042011
:101030005D49086001205B490860FFF7E9F90BF0A2
:1010400007F844A1424807F0CFFD0BF0D5FC05207E
:101050004C4B1A46703A56A1009056A0FFF764FA1E
:1010600064200BF05BFB0420464B56A250A100907D
:1010700059A0FFF759FA0BF063F936A1344807F08D
:10108000B3FD0BF05DF933A1314807F0ADFD0BF076
:1010900057F930A12E4807F0A7FD45A1404809F0B7
:1010A00065F95149086037493D4809F05FF94F49F2
:1010B00008604D480068002847D1084600680028AD
:1010C000FAD14B48006801283FD064200BF026FB82
:1010D000FFF79EF96421204809F0B9F91C4807F090
:1010E00073FD441C23461D4A1DA11B4808F0B4FF94
:1010F0000520244B1A46703A23A100901648FFF7AA
:10110000A9F9FFF785F90020204908602049086007
:10111000204908600BE00E481E4A1268815C0B48AB
:1011200008F055FE1B480068401C1A490860084832
:1011300007F04AFD174909688842ECD80A2103489C
:1011400008F045FE0A21014854E05AE100B006408B
:10115000E405002043480A00C01A002090F1FF1F58
:101160000D0A41542B465357524954453D25735C53
:101170004C4F472E5458542C312C25642C31300AB6
:101180000A000000200D00003E0000000CF0FF1FD0
:1011900014F0FF1F04F0FF1F4F4B0D0A000000006A
:1011A0005CF2FF1F24F0FF1F8CF1FF1F20F0FF1FD8
:1011B0004F4B00000D0A41542B4346554E3D300D18
:1011C0000D0A0A004E4F5420494E5345525445448F
:1011D0000D0A4F4B000000000D0A41542B434655A9
:1011E0004E3D310D0A00000098F0FF1F00F0FF1F78
:1011F00084F1FF1F08F0EBFD0A21FE4808F0E7FD2F
:101200000A21FC4808F0E3FD0A21FA4808F0DFFD56
:101210000A21F84808F0DBFD0A21F64808F0D7FD5E
:101220000A21F44808F0D3FD0A21F24808F0CFFD66
:101230000A21F04808F0CBFD0A21EE4808F0C7FD6E
:101240000A21EC4808F0C3FD0A21EA4808F0BFFD76
:101250000A21E84808F0BBFD0A21E64808F0B7FD7E
:101260000A21E44808F0B3FD0A21E24808F0AFFD86
:101270000A21E04808F0ABFD0A21DE4808F0A7FD8E
:101280000A21DC4808F0A3FD0A21DA4808F09FFD96
:101290000A21D84808F09BFD0A21D64808F097FD9E
:1012A0000A21D44808F093FD0A21D24808F08FFDA6
:1012B0000A21D04808F08BFD0A21CE4808F087FDAE
:1012C0000A21CC4808F083FD0A21CA4808F07FFDB6
:1012D0000A21C84808F07BFD0A21C64808F077FDBE
:1012E0000A21C44808F073FD0A21C24808F06FFDC6
:1012F0000A21C04808F06BFD0A21BE4808F067FDCE
:101300000A21BC4808F063FD0A21BA4808F05FFDD5
:101310000A21B84808F05BFD0A21B64808F057FDDD
:101320000A21B44808F053FD0A21B24808F04FFDE5
:101330000A21B04808F04BFD0A21AE4808F047FDED
:101340000A21AC4808F043FD0A21AA4808F03FFDF5
:101350000A21A84808F03BFD0A21A64808F037FDFD
:101360000A21A44808F033FD0A21A24808F02FFD05
:101370000A21A04808F02BFD0A219E4808F027FD0D
:101380000A219C4808F023FD0A219A4808F01FFD15
:101390000A21984808F01BFD0A21964808F017FD1D
:1013A0000A21944808F013FD0A21924808F00FFD25
:1013B00000BF9149914808F0D9FF002809D1904910
:1013C0008E4808F0D3FF002803D18E480068052816
:1013D000EFDDFFF71DF88C4807F0F6FB04462146C9
:1013E000894809F034F8FFF713F82020874988600E
:1013F00064200BF093F920208449486064200BF0AE
:101400008DF904207E4B783B1A46083280A100906B
:1014100080A0FFF789F80AF093FF774944397A48AA
:1014200007F0E2FB64217F4809F011F87E4A7FA1B2
:101430007C4808F011FE82480068714B783B1A46E0
:10144000083273A100907748FFF76EF80BF0D4FADA
:1014500004206B4B18331A46883A6DA1009079A08E
:10146000FFF762F80AF06CFF63494439664807F0F9
:10147000BBFB0AF065FF60494439634807F0B4FBE1
:101480000BF0BAFA0AF05CFF5B4944395E4807F09A
:10149000ABFBFEF7BDFF6FA0FEF7CBFFFEF7B8FF7B
:1014A00014200BF03BF90BF0A7FA6E4B6E4A6FA1BC
:1014B0005C4808F0D1FD62480068514B783B504AC7
:1014C00072A100905748FFF72FF8FEF7A1FF5C4884
:1014D000006870A34A4A73A1009073A0FFF724F834
:1014E000FEF796FF3E214548FFF78CF872490870D9
:1014F0000846007800287BD0FEF78AFF6F493F48F6
:1015000008F0A5FF52A1404807F06EFB3E4807F0E7
:101510005BFB6B49086000203A4908606949086034
:10152000694908600BE03848674A1268815C3148B5
:1015300008F04DFC64480068401C6349086062483C
:1015400000685F4909688842EDDB0A21294808F0F4
:101550003EFC1A21274808F03AFC1A21254808F0D9
:1015600036FC1A21234808F032FC00BF2449083910
:10157000224808F0FBFE5549086021491F4808F041
:10158000F5FE5349086045A11C4808F0EFFE51499B
:1015900008601B491831194808F0E8FE4E490860F8
:1015A0004B48006800280FD14A48006800280BD13A
:1015B00008460068002807D144480068002803D185
:1015C000104800680428D1DD1A210A4808F0FFFB02
:1015D0001A21084808F0FBFB1A21064808F0F7FB1F
:1015E0001A21044808F0F3FB14200BF097F875E07B
:1015F000C1E1000000B00640981100005CF2FF1F3E
:10160000200D000014F0FF1FE405002080F00F40C3
:101610004F4B00000D0A41542B4349505348555439
:101620000D0A0000C01A002095F1FF1F0D0A415459
:101630002B435354543D222573220D0A0000000011
:1016400088F1FF1F0D0A41542B43494943520D0DA8
:101650000A0000000A41542B43494653520D0D0A1B
:1016600000000000DEF1FF1FCEF1FF1F0D0A415404
:101670002B43495053544152543D22544350222C41
:10168000222573222C222573220D0A00434F4E4E31
:1016900045435400434F4E4E454354204641494C28
:1016A000000000003E0000000D0A41542B43495049
:1016B00053454E440D0A00003CF0FF1F8813000004
:1016C00038F0FF1F0CF0FF1F04F0FF1F44F0FF1F56
:1016D00048F0FF1F4CF0FF1F50F0FF1FFD49FE4870
:1016E00008F044FEFD4908600846006800287CD1E7
:1016F00064200BF013F8FEF78BFE6421F84808F025
:10170000A6FEF84807F060FA441C2346F64AF7495B
:10171000F34808F0A1FC0520EE4B08331A46703A56
:10172000F3A10090EE48FEF795FEFEF771FE002053
:10173000F0490860F0490860F04908600BE0E948AA
:10174000EE4A1268815CEE4808F041FBEB48006805
:10175000401CEA490860E34807F036FAE74909689F
:101760008842ECD80A21E64808F031FB0A21E44817
:1017700008F02DFB0A21E24808F029FB0A21E04885
:1017800008F025FB0A21DE4808F021FB0A21DC488D
:1017900008F01DFB0A21DA4808F019FB0A21D84895
:1017A00008F015FB0A21D64808F011FB0A21D4489D
:1017B00008F00DFB0A21D24808F009FB0A21D048A5
:1017C00008F005FB0A21CE4808F001FB0A21CC48AD
:1017D00008F0FDFA0A21CA4808F0F9FA0A21C848B7
:1017E00008F0F5FA0A21C64800E0C1E008F0EFFA77
:1017F0000A21C34808F0EBFA0A21C14808F0E7FAC9
:101800000A21BF4808F0E3FA0A21BD4808F0DFFAD0
:101810000A21BB4808F0DBFA0A21B94808F0D7FAD8
:101820000A21B74808F0D3FA0A21B54808F0CFFAE0
:101830000A21B34808F0CBFA0A21B14808F0C7FAE8
:101840000A21AF4808F0C3FA0A21AD4808F0BFFAF0
:101850000A21AB4808F0BBFA0A21A94808F0B7FAF8
:101860000A21A74808F0B3FA0A21A54808F0AFFA00
:101870000A21A34808F0ABFA0A21A14808F0A7FA08
:101880000A219F4808F0A3FA0A219D4808F09FFA10
:101890000A219B4808F09BFA0A21994808F097FA18
:1018A0000A21974808F093FA0A21954808F08FFA20
:1018B0000A21934808F08BFA0A21914808F087FA28
:1018C0000A218F4808F083FA0A218D4808F07FFA30
:1018D0000A218B4808F07BFA0A21894808F077FA38
:1018E0000A21874808F073FA0A21854808F06FFA40
:1018F0000A21834808F06BFA0A21814808F067FA48
:101900000A217F4808F063FA0A217D4808F05FFA4F
:101910000A217B4808F05BFA0A21794808F057FA57
:101920000A21774808F053FA0A21754808F04FFA5F
:1019300000BF6E493831684808F018FD00280AD108
:1019400064490831644808F011FD002803D16A4851
:1019500000680528EDDDFEF75BFD624807F034F90D
:10196000044621465F4808F072FDFEF751FD59E13B
:101970000CF018F956E164200AF0D0FEFEF748FD9D
:101980006421574808F063FD564807F01DF9441CD0
:101990002346554A5549524808F05EFB05204D4BF9
:1019A00008331A46703A52A100904D48FEF752FD96
:1019B000FEF72EFD00204F4908604F4908604F494F
:1019C00008600BE047484D4A1268815C4C4808F0BB
:1019D000FEF94A480068401C48490860414807F041
:1019E000F3F8464909688842ECD80A21444808F0CF
:1019F000EEF90A21424808F0EAF90A21404808F0C5
:101A0000E6F90A213E4808F0E2F90A213C4808F0CC
:101A1000DEF90A213A4808F0DAF90A21384808F0D4
:101A2000D6F90A21364808F0D2F90A21344808F0DC
:101A3000CEF90A21324808F0CAF90A21304808F0E4
:101A4000C6F90A212E4808F0C2F90A212C4808F0EC
:101A5000BEF90A212A4808F0BAF90A21284808F0F4
:101A6000B6F90A21264808F0B2F90A21244808F0FC
:101A7000AEF90A21224808F0AAF90A21204808F004
:101A8000A6F90A211E4808F0A2F90A211C4808F00C
:101A90009EF90A211A4808F09AF90A21184808F014
:101AA00096F90A21164808F092F90A21144808F01C
:101AB0008EF90A21124808F08AF90A21104808F024
:101AC00086F90A210E4808F082F90A210C4808F02C
:101AD0007EF917E0180D00005CF2FF1F40F0FF1FB9
:101AE000C01A0020E405002090F1FF1F60110000E3
:101AF0003E0000000CF0FF1F14F0FF1F04F0FF1F5A
:101B000000B006400A21FE4808F061F90A21FC48AD
:101B100008F05DF90A21FA4808F059F90A21F84855
:101B200008F055F90A21F64808F051F90A21F4485D
:101B300008F04DF90A21F24808F049F90A21F04865
:101B400008F045F90A21EE4808F041F90A21EC486D
:101B500008F03DF90A21EA4808F039F90A21E84875
:101B600008F035F90A21E64808F031F90A21E4487D
:101B700008F02DF90A21E24808F029F90A21E04885
:101B800008F025F90A21DE4808F021F90A21DC488D
:101B900008F01DF90A21DA4808F019F90A21D84895
:101BA00008F015F90A21D64808F011F90A21D4489D
:101BB00008F00DF90A21D24808F009F90A21D048A5
:101BC00008F005F90A21CE4808F001F90A21CC48AD
:101BD00008F0FDF80A21CA4808F0F9F80A21C848B7
:101BE00008F0F5F800BFC749C74808F0BFFB002858
:101BF00009D1C649C44808F0B9FB002803D1C4483C
:101C000000680528EFDDFEF703FCC24806F0DCFFA4
:101C100004462146BF4808F01AFCFEF7F9FB01E034
:101C20000BF0C0FFBB4806F0CFFF04462146B94881
:101C300008F00DFC1A21B24808F0C9F838BD38B5D3
:101C4000B548006806F0C0FF04462146B248006867
:101C500008F0FDFBB148006806F0B6FF04462146D7
:101C6000AE48006808F0F3FB3E21A748FEF7CAFC27
:101C7000AB4908700846007800287CD0FEF7C8FB06
:101C8000A849A14808F0E3FBA7A1A24806F0ACFFD1
:101C9000A04806F099FFA549086000209C4908600B
:101CA000A3490860A34908600BE09A48A14A12685A
:101CB000815C934808F08BF89E480068401C9D4961
:101CC00008609C480068994909688842EDDB1A2140
:101CD0008B4808F07CF81A21894808F078F800BF92
:101CE0008A490839884808F041FB8B4908608749D0
:101CF000854808F03BFB904908609049824808F00D
:101D000035FB8F490860814918317F4808F02EFB68
:101D10008C4908608848006800280FD1884800680E
:101D200000280BD108460068002807D17A480068CF
:101D3000002803D1764800680528D1DD1A217048B3
:101D400008F045F81A216E4808F041F81A216C484D
:101D500008F03DF81A216A4808F039F87A48006816
:101D6000012806D179480068794908600020764941
:101D70000860142000E008E00AF0D0FC634908394C
:101D8000614808F0F3FA6449086063480068002875
:101D900001D000F013FF1A21594808F018F8FEF797
:101DA00037FB0A200AF0BAFC1A21554808F00FF850
:101DB000FEF72EFB0A200AF0B1FC1A21504808F069
:101DC00006F8FEF725FB0A200AF0A8FC64200AF0BA
:101DD000A5FCFEF71DFB64215E4808F038FB4D486A
:101DE00006F0F2FE441C23465B4A464938395948FE
:101DF00008F032F90520454B1A46703A57A1009079
:101E00005448FEF727FBFEF703FB00204849086013
:101E10003F490860474908600BE03E48454A126860
:101E2000815C374807F0D3FF42480068401C4149B5
:101E30000860384806F0C8FE3E4909688842ECD878
:101E40000A212F4807F0C3FF0A212D4807F0BFFFE2
:101E50000A212B4807F0BBFF0A21294807F0B7FFEA
:101E60000A21274807F0B3FF0A21254807F0AFFFF2
:101E70000A21234807F0ABFF0A21214807F0A7FFFA
:101E80000A211F4807F0A3FF0A211D4807F09FFF02
:101E90000A211B4807F09BFF0A21194807F097FF0A
:101EA0000A21174807F093FF0A21154807F08FFF12
:101EB0000A21134807F08BFF0A21114807F087FF1A
:101EC0000A210F4807F083FF0A210D4807F07FFF22
:101ED0000A210B4807F07BFF0A21094807F077FF2A
:101EE0000A21074807F073FF0A21054807F06FFF32
:101EF0000A21034807F06BFF0A21014830E0000087
:101F000000B00640981100005CF2FF1F200D000099
:101F100014F0FF1FE405002044F0FF1F40F0FF1FF6
:101F20003CF0FF1F881300000A0A000038F0FF1F72
:101F30000CF0FF1F04F0FF1F48F0FF1F9C1600006D
:101F40004CF0FF1F50F0FF1F24F0FF1F20F0FF1F79
:101F50008CF1FF1FC01A002090F1FF1F3E0000000F
:101F600007F035FF0A21FE4807F031FF0A21FC483F
:101F700007F02DFF0A21FA4807F029FF0A21F84847
:101F800007F025FF0A21F64807F021FF0A21F4484F
:101F900007F01DFF0A21F24807F019FF0A21F04857
:101FA00007F015FF0A21EE4807F011FF0A21EC485F
:101FB00007F00DFF0A21EA4807F009FF0A21E84867
:101FC00007F005FF0A21E64807F001FF0A21E4486F
:101FD00007F0FDFE0A21E24807F0F9FE0A21E04879
:101FE00007F0F5FE0A21DE4807F0F1FE0A21DC4881
:101FF00007F0EDFE0A21DA4807F0E9FE0A21D84889
:1020000007F0E5FE0A21D64807F0E1FE0A21D44890
:1020100007F0DDFE0A21D24807F0D9FE0A21D04898
:1020200007F0D5FE0A21CE4807F0D1FE0A21CC48A0
:1020300007F0CDFE0A21CA4807F0C9FE0A21C848A8
:1020400007F0C5FE0A21C64807F0C1FE0A21C448B0
:1020500007F0BDFE0A21C24807F0B9FE0A21C048B8
:1020600007F0B5FE0A21BE4807F0B1FE00BFBD492A
:10207000BD4808F07BF9002809D1BC49BA4808F0EE
:1020800075F9002803D1BA4800680528EFDDFEF78E
:10209000BFF9B84806F098FD04462146B54808F057
:1020A000D6F9FEF7B5F9B34806F08EFD0446214691
:1020B000B04808F0CCF9B0480068012809D0AF4812
:1020C0000068AF4908600420AC4908600120AA49B3
:1020D0000860FEF79DF909F0BBFFA2494439A54805
:1020E00006F082FD0AF088FC0520A04B1A46703AE3
:1020F000A4A100909B481C30FEF716FA64200AF059
:102100000DFB0420994B974A2C329EA1009010465B
:102110001430FEF709FA0AF013F992494439954848
:1021200006F062FD0AF00CF98E494439914806F038
:102130005BFD0AF005F98B4944398E4806F054FDE1
:1021400090A1894808F012F98F49086087498648AC
:1021500008F00CF98D4908608B48006800287CD194
:10216000084600680028FAD189480068012874D020
:1021700064200AF0D3FAFEF74BF96421854808F091
:1021800066F97C4806F020FD441C2346824A7549C6
:102190003839804807F060FF0520744B1A46703AC2
:1021A0007EA100907B48FEF755F9FEF731F900203B
:1021B0007B4908606E4908607A4908600BE06D4809
:1021C000784A1268815C664807F001FE754800682D
:1021D000401C74490860674806F0F6FC71490968BC
:1021E0008842ECD80A215E4807F0F1FD0A215C48DC
:1021F00007F0EDFD0A215A4807F0E9FD0A21584889
:1022000007F0E5FD0A21564807F0E1FD0A21544890
:1022100007F0DDFD0A21524807F0D9FD0A21504898
:1022200007F0D5FD0A214E4807F0D1FD0A214C48A0
:1022300007F0CDFD0A214A4807F0C9FD0A214848A8
:1022400007F0C5FD0A21464807F0C1FD0A214448B0
:1022500007F0BDFD0A21424800E0F8E007F0B7FDB5
:102260000A213F4807F0B3FD0A213D4807F0AFFDC2
:102270000A213B4807F0ABFD0A21394807F0A7FDCA
:102280000A21374807F0A3FD0A21354807F09FFDD2
:102290000A21334807F09BFD0A21314807F097FDDA
:1022A0000A212F4807F093FD0A212D4807F08FFDE2
:1022B0000A212B4807F08BFD0A21294807F087FDEA
:1022C0000A21274807F083FD0A21254807F07FFDF2
:1022D0000A21234807F07BFD0A21214807F077FDFA
:1022E0000A211F4807F073FD0A211D4807F06FFD02
:1022F0000A211B4807F06BFD0A21194807F067FD0A
:102300000A21174807F063FD0A21154807F05FFD11
:102310000A21134807F05BFD0A21114807F057FD19
:102320000A210F4807F053FD0A210D4807F04FFD21
:102330000A210B4807F04BFD0A21094807F047FD29
:102340000A21074807F043FD0A21054807F03FFD31
:102350000A21034807F03BFD0A21014824E0000060
:1023600000B00640981100005CF2FF1F200D000035
:1023700014F0FF1FE405002024F0FF1F8CF1FF1F65
:1023800020F0FF1F4F4B000098F0FF1F00F0FF1FD1
:1023900084F1FF1FC01A002090F1FF1F3E000000D3
:1023A0000CF0FF1F04F0FF1F07F011FD0A21FE488B
:1023B00007F00DFD0A21FC4807F009FD0A21FA4843
:1023C00007F005FD0A21F84807F001FD0A21F6484B
:1023D00007F0FDFC0A21F44807F0F9FC0A21F24855
:1023E00007F0F5FC0A21F04807F0F1FC0A21EE485D
:1023F00007F0EDFC0A21EC4807F0E9FC00BFEB49CF
:10240000EB4807F0B3FF002809D1EA49E84807F094
:10241000ADFF002803D1E84800680528EFDDFDF78F
:10242000F7FFE64806F0D0FB04462146E34808F0F3
:102430000EF8FDF7EDFF2020E149886064200AF0E6
:102440006DF92020DE49486064200AF067F9042015
:10245000D84B783B1A460832DAA10090DA48FEF7EA
:1024600063F809F06DFFD1494439D44806F0BCFB4C
:102470006421D64807F0EBFFD54AD3491831D34839
:1024800007F0EAFDD3480068CA4B783B1A46083289
:10249000CCA10090CD48FEF747F80AF0ADFA042031
:1024A000C44B18331A46883AC6A10090C64830304B
:1024B000FEF73AF809F044FFBC494439BF4806F03A
:1024C00093FB09F03DFFB9494439BC4806F08CFB49
:1024D0000AF092FA09F034FFB4494439B74806F0DB
:1024E00083FBFDF795FFB8484030FDF7A2FFFDF7ED
:1024F0008FFF14200AF012F90AF07EFAB64BB74AA1
:10250000B1495831B14807F0A7FDB2480068A94B5E
:10251000783BA84AAC4978310090AC48FEF704F803
:10252000FDF776FFAB480068A74B8033A14AACA10A
:10253000009018461430FDF7F7FFFDF769FF3E21C4
:102540009B48FEF75FF8A749087008460078002806
:102550007ED0FDF75DFFA449954807F078FFA3A161
:10256000964806F041FB954806F02EFBA04908600E
:102570000020914908609F4908609F4908600BE06E
:102580008E489D4A1268815C874807F020FC9A4873
:102590000068401C98490860974800689449096899
:1025A0008842EDDB1A21804807F011FC1A217E4891
:1025B00007F00DFC00BF7F4908397D4807F0D6FEC3
:1025C0008E4908607B497A4807F0D0FE8C49086044
:1025D0007D498831764807F0C9FE8A490860754907
:1025E0001831734807F0C2FE8749086084480068C4
:1025F00000280FD18348006800280BD108460068E6
:10260000002807D17D480068002803D16A48006887
:102610000528D0DD1A21644807F0D9FB1A21624849
:1026200007F0D5FB1A21604807F0D1FB1A215E485C
:1026300007F0CDFB14200AF071F85E4908395C48B8
:1026400007F094FE7149086008460068002800E021
:1026500078E17CD164200AF061F8FDF7D9FE6421AD
:102660005A4807F0F4FE554806F0AEFA441C2346DB
:10267000674A4E493839554807F0EEFC05204D4B66
:102680001A46703A56A100905048FDF7E3FEFDF758
:10269000BFFE002057490860474908605649086056
:1026A0000BE04648544A1268815C3F4807F08FFBB4
:1026B00051480068401C50490860404806F084FAC0
:1026C0004D4909688842ECD80A21374807F07FFB5A
:1026D0000A21354807F07BFB0A21334807F077FBD6
:1026E0000A21314807F073FB0A212F4807F06FFBDE
:1026F0000A212D4807F06BFB0A212B4807F067FBE6
:102700000A21294807F063FB0A21274807F05FFBED
:102710000A21254807F05BFB0A21234807F057FBF5
:102720000A21214807F053FB0A211F4807F04FFBFD
:102730000A211D4807F04BFB0A211B4807F047FB05
:102740000A21194807F043FB0A21174800E0F6E088
:1027500007F03DFB0A21144807F039FB0A21124813
:1027600007F035FB0A21104807F031FB0A210E481B
:1027700007F02DFB0A210C4807F029FB0A210A4823
:1027800007F025FB0A21084807F021FB0A2106482B
:1027900007F01DFB0A21044807F019FB0A21024833
:1027A00007F015FB0A2135E000B006409811000043
:1027B0005CF2FF1F200D000014F0FF1FE405002055
:1027C00080F00F404F4B000014160000C01A00208C
:1027D00095F1FF1F88F1FF1FDEF1FF1FCEF1FF1FF4
:1027E0003E0000003CF0FF1F881300000A000000BC
:1027F00038F0FF1F0CF0FF1F04F0FF1F44F0FF1F15
:1028000048F0FF1F4CF0FF1F50F0FF1F40F0FF1F6C
:1028100090F1FF1FFE4807F0DAFA0A21FC4807F0A2
:10282000D6FA0A21FA4807F0D2FA0A21F84807F046
:10283000CEFA0A21F64807F0CAFA0A21F44807F04E
:10284000C6FA0A21F24807F0C2FA0A21F04807F056
:10285000BEFA0A21EE4807F0BAFA0A21EC4807F05E
:10286000B6FA0A21EA4807F0B2FA0A21E84807F066
:10287000AEFA0A21E64807F0AAFA0A21E44807F06E
:10288000A6FA0A21E24807F0A2FA0A21E04807F076
:102890009EFA0A21DE4807F09AFA0A21DC4807F07E
:1028A00096FA0A21DA4807F092FA0A21D84807F086
:1028B0008EFA0A21D64807F08AFA0A21D44807F08E
:1028C00086FA0A21D24807F082FA0A21D04807F096
:1028D0007EFA0A21CE4807F07AFA0A21CC4807F09E
:1028E00076FA0A21CA4807F072FA0A21C84807F0A6
:1028F0006EFA0A21C64807F06AFA0A21C44807F0AE
:1029000066FA00BFC349C44807F030FD002809D16A
:10291000C249C14807F02AFD002803D1C048006819
:102920000528EFDDFDF774FDBE4806F04DF90446BD
:102930002146BC4807F08BFDFDF76AFD40E10BF036
:1029400031F93DE1642009F0E9FEFDF761FD642104
:10295000B54807F07CFDB34806F036F9441C234621
:10296000B24AAC493839B04807F076FB0520AB4B8A
:102970001A46703AAEA10090AB48FDF76BFDFDF72B
:1029800047FD0020AB490860A5490860AA490860D6
:102990000BE0A448A84A1268815C9D4807F017FA2A
:1029A000A5480068401CA44908609E4806F00CF940
:1029B000A14909688842ECD80A21954807F007FA2E
:1029C0000A21934807F003FA0A21914807F0FFF91A
:1029D0000A218F4807F0FBF90A218D4807F0F7F923
:1029E0000A218B4807F0F3F90A21894807F0EFF92B
:1029F0000A21874807F0EBF90A21854807F0E7F933
:102A00000A21834807F0E3F90A21814807F0DFF93A
:102A10000A217F4807F0DBF90A217D4807F0D7F942
:102A20000A217B4807F0D3F90A21794807F0CFF94A
:102A30000A21774807F0CBF90A21754807F0C7F952
:102A40000A21734807F0C3F90A21714807F0BFF95A
:102A50000A216F4807F0BBF90A216D4807F0B7F962
:102A60000A216B4807F0B3F90A21694807F0AFF96A
:102A70000A21674807F0ABF90A21654807F0A7F972
:102A80000A21634807F0A3F90A21614807F09FF97A
:102A90000A215F4807F09BF90A215D4807F097F982
:102AA0000A215B4807F093F90A21594807F08FF98A
:102AB0000A21574807F08BF90A21554807F087F992
:102AC0000A21534807F083F90A21514807F07FF99A
:102AD0000A214F4807F07BF90A214D4807F077F9A2
:102AE0000A214B4807F073F90A21494807F06FF9AA
:102AF0000A21474807F06BF90A21454807F067F9B2
:102B00000A21434807F063F90A21414807F05FF9B9
:102B10000A213F4807F05BF90A213D4807F057F9C1
:102B20000A213B4807F053F90A21394807F04FF9C9
:102B30000A21374807F04BF90A21354807F047F9D1
:102B40000A21334807F043F90A21314807F03FF9D9
:102B50000A212F4807F03BF90A212D4807F037F9E1
:102B60000A212B4807F033F90A21294807F02FF9E9
:102B70000A21274807F02BF90A21254807F027F9F1
:102B800000BF2449244807F0F1FB002809D123495C
:102B9000214807F0EBFB002803D1214800680528F5
:102BA000EFDDFDF735FC1F4806F00EF80446214620
:102BB0001C4807F04CFCFDF72BFC01E00AF0F2FF8B
:102BC000184806F001F804462146164807F03FFC75
:102BD0001A210F4807F0FBF838BD38B517480068D0
:102BE00005F0F2FF044621461448006807F02FFC68
:102BF0001348006805F0E8FF0446214610480068C5
:102C000007F025FC3E210448FDF7FCFC0D491BE0C4
:102C100000B00640981100005CF2FF1F200D00007C
:102C200014F0FF1FE4050020C01A002090F1FF1FE0
:102C30003E0000000CF0FF1F04F0FF1F44F0FF1FD8
:102C400040F0FF1F3CF0FF1F087008460078002886
:102C50007ED0FDF7DDFBFE49FE4807F0F8FBFEA144
:102C6000FE4805F0C1FFFD4805F0AEFFFC490860D5
:102C70000020FC490860FC490860FC4908600BE042
:102C8000F648FA4A1268815CF94807F0A0F8F7485C
:102C90000068401CF5490860F4480068F04909687C
:102CA0008842EDDB1A21F24807F091F800BFF149A4
:102CB000E84807F05BFBF0490860EE490831E54859
:102CC00007F054FBED490860ED49E24807F04EFB80
:102CD000EC490860E7492031DE4807F047FBEA4944
:102CE0000860E648006800280FD1E6480068002820
:102CF0000BD108460068002807D1DF48006800288B
:102D000003D1D84800680428D1DD1A21D84807F03B
:102D10005EF81A21D64807F05AF81A21D44807F06D
:102D200056F81A21D24807F052F8D848006801280E
:102D300006D1D7480068D74908600020D349086009
:102D4000322009F0EBFCCB49C24807F00FFB00E052
:102D500001E0C9490860C8480068002801D000F0B7
:102D600028FF1A21C24807F032F8FDF751FB0A206C
:102D700009F0D4FC1A21BE4807F029F8FDF748FBFA
:102D80000A2009F0CBFC1A21B94807F020F8FDF71A
:102D90003FFB0A2009F0C2FC642009F0BFFCFDF7EC
:102DA00037FB6421BC4807F052FBAC4805F00CFF30
:102DB000441C2346B94ABA49B74807F04DF90520E3
:102DC000AC4B08331A46703AB6A10090B248FDF7F2
:102DD00041FBFDF71DFB0020A3490860A1490860E5
:102DE000A24908600BE09D48A04A1268815CA04897
:102DF00006F0EDFF9D480068401C9C49086097481C
:102E000005F0E2FE994909688842ECD80A21984801
:102E100006F0DDFF0A21964806F0D9FF0A21944802
:102E200006F0D5FF0A21924806F0D1FF0A2190480A
:102E300006F0CDFF0A218E4806F0C9FF0A218C4812
:102E400006F0C5FF0A218A4806F0C1FF0A2188481A
:102E500006F0BDFF0A21864806F0B9FF0A21844822
:102E600006F0B5FF0A21824806F0B1FF0A2180482A
:102E700006F0ADFF0A217E4806F0A9FF0A217C4832
:102E800006F0A5FF0A217A4806F0A1FF0A2178483A
:102E900006F09DFF0A21764806F099FF0A21744842
:102EA00006F095FF0A21724806F091FF0A2170484A
:102EB00006F08DFF0A216E4806F089FF0A216C4852
:102EC00006F085FF0A216A4806F081FF0A2168485A
:102ED00006F07DFF0A21664806F079FF0A21644862
:102EE00006F075FF0A21624806F071FF0A2160486A
:102EF00006F06DFF0A215E4806F069FF0A215C4872
:102F000006F065FF0A215A4806F061FF0A21584879
:102F100006F05DFF0A21564806F059FF0A21544881
:102F200006F055FF0A21524806F051FF0A21504889
:102F300006F04DFF0A214E4806F049FF0A214C4891
:102F400006F045FF0A214A4806F041FF0A21484899
:102F500006F03DFF0A21464806F039FF0A214448A1
:102F600006F035FF0A21424806F031FF0A214048A9
:102F700006F02DFF0A213E4806F029FF0A213C48B1
:102F800006F025FF0A213A4806F021FF0A213848B9
:102F900006F01DFF0A21364806F019FF0A213448C1
:102FA00006F015FF0A21324806F011FF0A213048C9
:102FB00006F00DFF0A212E4806F009FF0A212C48D1
:102FC00006F005FF0A212A4806F001FF0A212848D9
:102FD00006F0FDFE00BF324938311E4807F0C6F941
:102FE00000280AD1234908311A4807F0BFF9002800
:102FF00003D11C4800680528EDDDFDF709FA1748E4
:1030000005F0E2FD04462146144807F020FAFDF7DA
:10301000FFF9124805F0D8FD044621460F4807F095
:1030200016FA09F015F81E490C390C4805F0DCFDBC
:1030300016480068012809D016480068144908603D
:103040000420144908600120104908602CE00000A9
:10305000881300005CF2FF1F0A000000E405002056
:1030600038F0FF1F14F0FF1F0CF0FF1F04F0FF1FCC
:1030700000B00640180D000044F0FF1F48F0FF1F8D
:103080009C1600004CF0FF1F50F0FF1F24F0FF1FA4
:1030900020F0FF1F8CF1FF1FC01A002090F1FF1FCE
:1030A000601100003E000000FDF7B2F909F0A4FC39
:1030B0000520FE4B1A46703AFDA10090FD48FDF731
:1030C00033FA642009F02AFB0420F84BF94A103245
:1030D000F7A1009010461430FDF726FA09F030F9F8
:1030E000F4496039F44805F07FFD09F029F9F14908
:1030F0006039F14805F078FD09F022F9ED496039B1
:10310000ED4805F071FDEAA1EC4807F02FF9EC4914
:103110000860E649E94807F029F9EA490860E84803
:10312000006800287ED1084600680028FAD1E648E9
:103130000068012876D0642009F0F0FAFDF768F9FC
:103140006421E24807F083F9DB4805F03DFD441CAB
:103150002346DF4AD7495439DC4806F07DFF052075
:10316000D24B1A46703ADBA10090D848FDF772F9AD
:10317000FDF74EF90020D8490860D8490860D849C1
:1031800008600BE0CC48D64A1268815CD54806F04E
:103190001EFED3480068401CD1490860C64805F0AF
:1031A00013FDCF4909688842ECD80A21CD4806F0C2
:1031B0000EFE0A21CB4806F00AFE0A21C94806F095
:1031C00006FE0A21C74806F002FE0A21C54806F09D
:1031D000FEFD0A21C34806F0FAFD0A21C14806F0A7
:1031E000F6FD0A21BF4806F0F2FD0A21BD4806F0AF
:1031F000EEFD0A21BB4806F0EAFD0A21B94806F0B7
:10320000E6FD0A21B74806F0E2FD0A21B54806F0BE
:10321000DEFD0A21B34806F0DAFD0A21B14806F0C6
:10322000D6FD00E0D1E00A21AE4806F0D0FD0A212B
:10323000AC4806F0CCFD0A21AA4806F0C8FD0A21D8
:10324000A84806F0C4FD0A21A64806F0C0FD0A21E0
:10325000A44806F0BCFD0A21A24806F0B8FD0A21E8
:10326000A04806F0B4FD0A219E4806F0B0FD0A21F0
:103270009C4806F0ACFD0A219A4806F0A8FD0A21F8
:10328000984806F0A4FD0A21964806F0A0FD0A2100
:10329000944806F09CFD0A21924806F098FD0A2108
:1032A000904806F094FD0A218E4806F090FD0A2110
:1032B0008C4806F08CFD0A218A4806F088FD0A2118
:1032C000884806F084FD0A21864806F080FD0A2120
:1032D000844806F07CFD0A21824806F078FD0A2128
:1032E000804806F074FD0A217E4806F070FD0A2130
:1032F0007C4806F06CFD0A217A4806F068FD0A2138
:10330000784806F064FD0A21764806F060FD0A213F
:10331000744806F05CFD0A21724806F058FD0A2147
:10332000704806F054FD0A216E4806F050FD0A214F
:103330006C4806F04CFD0A216A4806F048FD0A2157
:10334000684806F044FD0A21664806F040FD0A215F
:10335000644806F03CFD0A21624806F038FD0A2167
:10336000604806F034FD0A215E4806F030FD0A216F
:103370005C4806F02CFD00BF4E491C394F4806F052
:10338000F5FF002809D149494C4806F0EFFF002815
:1033900003D1524800680528EEDDFDF739F84648AC
:1033A00005F012FC04462146434807F050F8FDF7AB
:1033B0002FF820204C498860642009F0AFF92020C4
:1033C00049494860642009F0A9F90420374B783B4B
:1033D0001A46083236A100904448FDF7A5F808F0D7
:1033E000AFFF34496039344805F0FEFB64213748AB
:1033F00007F02DF83E4A3D491831344806F02CFEBE
:103400003C480068294B783B1A46083228A10090B6
:103410002E48FDF789F809F0EFFA0420234B183302
:103420001A46883A22A1009030483030FDF77CF8E7
:1034300008F086FF1F4960391F4805F0D5FB08F0EA
:103440007FFF1C4960391C4805F0CEFB09F0D4FA17
:1034500008F076FF17496039174805F0C5FBFCF7FF
:10346000D7FF22484030FCF7E4FFFCF7D1FF1420DF
:1034700009F054F909F0C0FA1F4B204A1B49583192
:10348000124806F0E9FD1B480068084B783B074AE4
:103490001649783100900D48FDF746F8FCF7B8FF63
:1034A00014480068114B8033004A29E0200D0000C9
:1034B0004F4B0000B4110000E40500205CF2FF1F38
:1034C00098F0FF1F00F0FF1F84F1FF1FC01A0020BB
:1034D00090F1FF1F3E0000000CF0FF1F14F0FF1FD3
:1034E00004F0FF1F00B0064080F00F4014160000EB
:1034F00095F1FF1F88F1FF1FDEF1FF1FCEF1FF1FC7
:10350000F7A1009018461430FDF70EF8FCF780FF85
:103510003E21F448FDF776F8F34908700846007834
:1035200000287DD0FCF774FFF049EE4806F08FFFCD
:10353000EFA1F04805F058FBEE4805F045FBEE49D9
:1035400008600020ED490860ED490860ED49086019
:103550000BE0E848EB4A1268815CEB4806F037FC68
:10356000E8480068401CE7490860E6480068E2490E
:1035700009688842EDDB1A21E34806F028FC00BF09
:10358000E249D84806F0F2FEE1490860DF49083117
:10359000D44806F0EBFEDF490860DF49D14806F069
:1035A000E5FEDE490860D9492031CE4806F0DEFE4E
:1035B000DB490860D748006800280FD1D748006869
:1035C00000280BD108460068002807D1D0480068C1
:1035D000002803D1C94800680428D1DD0A2009F079
:1035E0009DF8FCF715FF1A21C74806F0F0FB0A20EA
:1035F00009F094F81A21C44806F0E9FB1A21C248E0
:1036000006F0E5FB1A21C04806F0E1FB1A21BE488E
:1036100006F0DDFBFCF7FCFE0A2009F07FF800E075
:103620008BE11A21B84806F0D2FBFCF7F1FE0A2024
:1036300009F074F81A21B44806F0C9FBFCF7E8FE5B
:103640000A2009F06BF8322009F068F8AF49A54864
:1036500006F08CFEB34908600846006800287CD15B
:10366000642009F05BF8FCF7D3FE6421AE4806F055
:10367000EEFEA04805F0A8FA441C2346AB4AAC492C
:10368000A94806F0E9FC0520A04B08331A46703A19
:1036900093A10090A448FCF7DDFEFCF7B9FE0020E2
:1036A0009749086095490860964908600BE0914881
:1036B000944A1268815C944806F089FB914800683E
:1036C000401C904908608B4805F07EFA8D490968D6
:1036D0008842ECD80A218C4806F079FB0A218A48F6
:1036E00006F075FB0A21884806F071FB0A2186481E
:1036F00006F06DFB0A21844806F069FB0A21824826
:1037000006F065FB0A21804806F061FB0A217E482D
:1037100006F05DFB0A217C4806F059FB0A217A4835
:1037200006F055FB0A21784806F051FB0A2176483D
:1037300006F04DFB0A21744806F049FB0A21724845
:1037400006F045FB0A21704806F041FB0A216E484D
:1037500006F03DFB0A216C4800E0EBE006F037FB89
:103760000A21694806F033FB0A21674806F02FFB5F
:103770000A21654806F02BFB0A21634806F027FB67
:103780000A21614806F023FB0A215F4806F01FFB6F
:103790000A215D4806F01BFB0A215B4806F017FB77
:1037A0000A21594806F013FB0A21574806F00FFB7F
:1037B0000A21554806F00BFB0A21534806F007FB87
:1037C0000A21514806F003FB0A214F4806F0FFFA90
:1037D0000A214D4806F0FBFA0A214B4806F0F7FA99
:1037E0000A21494806F0F3FA0A21474806F0EFFAA1
:1037F0000A21454806F0EBFA0A21434806F0E7FAA9
:103800000A21414806F0E3FA0A213F4806F0DFFAB0
:103810000A213D4806F0DBFA0A213B4806F0D7FAB8
:103820000A21394806F0D3FA0A21374806F0CFFAC0
:103830000A21354806F0CBFA0A21334806F0C7FAC8
:103840000A21314806F0C3FA0A212F4806F0BFFAD0
:103850000A212D4806F0BBFA0A212B4806F0B7FAD8
:103860000A21294806F0B3FA0A21274806F0AFFAE0
:103870000A21254806F0ABFA0A21234806F0A7FAE8
:103880000A21214806F0A3FA0A211F4806F09FFAF0
:103890000A211D4806F09BFA0A211B4806F097FAF8
:1038A00000BF234938310F4806F060FD00280AD1D7
:1038B000164908310B4806F059FD002803D10F487E
:1038C00000680528EDDDFCF7A3FD0A4805F07CF94A
:1038D00004462146074806F0BAFDFCF799FD6AE167
:1038E0003E0000005CF2FF1F3CF0FF1F8813000049
:1038F0000A000000E405002038F0FF1F14F0FF1F4D
:103900000CF0FF1F04F0FF1F00B00640180D000070
:1039100044F0FF1F48F0FF1F9C1600004CF0FF1FF3
:1039200050F0FF1F40F0FF1FC01A002090F1FF1F52
:10393000601100000AF036F93DE1642008F0EEFE67
:10394000FCF766FD6421FE4806F081FDFD4805F0A8
:103950003BF9441C2346FC4AFC49F94806F07CFB31
:103960000520FB4B1A46703AFAA10090F448FCF788
:1039700071FDFCF74DFD0020F7490860F74908602C
:10398000F74908600BE0EF48F54A1268815CF5489A
:1039900006F01DFAF2480068401CF1490860E94849
:1039A00005F012F9EE4909688842ECD80A21ED4881
:1039B00006F00DFA0A21EB4806F009FA0A21E94857
:1039C00006F005FA0A21E74806F001FA0A21E5485F
:1039D00006F0FDF90A21E34806F0F9F90A21E14869
:1039E00006F0F5F90A21DF4806F0F1F90A21DD4871
:1039F00006F0EDF90A21DB4806F0E9F90A21D94879
:103A000006F0E5F90A21D74806F0E1F90A21D54880
:103A100006F0DDF90A21D34806F0D9F90A21D14888
:103A200006F0D5F90A21CF4806F0D1F90A21CD4890
:103A300006F0CDF90A21CB4806F0C9F90A21C94898
:103A400006F0C5F90A21C74806F0C1F90A21C548A0
:103A500006F0BDF90A21C34806F0B9F90A21C148A8
:103A600006F0B5F90A21BF4806F0B1F90A21BD48B0
:103A700006F0ADF90A21BB4806F0A9F90A21B948B8
:103A800006F0A5F90A21B74806F0A1F90A21B548C0
:103A900006F09DF90A21B34806F099F90A21B148C8
:103AA00006F095F90A21AF4806F091F90A21AD48D0
:103AB00006F08DF90A21AB4806F089F90A21A948D8
:103AC00006F085F90A21A74806F081F90A21A548E0
:103AD00006F07DF90A21A34806F079F90A21A148E8
:103AE00006F075F90A219F4806F071F90A219D48F0
:103AF00006F06DF90A219B4806F069F90A219948F8
:103B000006F065F90A21974806F061F90A219548FF
:103B100006F05DF90A21934806F059F90A21914807
:103B200006F055F90A218F4806F051F90A218D480F
:103B300006F04DF90A218B4806F049F90A21894817
:103B400006F045F90A21874806F041F90A2185481F
:103B500006F03DF90A21834806F039F90A21814827
:103B600006F035F90A217F4806F031F90A217D482F
:103B700006F02DF900BF754938317B4806F0F6FB99
:103B8000002809D17249784806F0F0FB002803D1DB
:103B9000724800680528EEDDFCF73AFC694805F03C
:103BA00013F804462146674806F051FCFCF730FC48
:103BB00001E009F0F7FF634805F006F804462146E6
:103BC000604806F044FC1A21664806F000F938BD4A
:103BD00038B5642008F0A2FDFCF71AFC64215848AF
:103BE00006F035FC574804F0EFFF441C2346564AC4
:103BF0005649534806F030FA0520554B1A46703A9C
:103C000054A100904E48FCF725FCFCF701FC002075
:103C10005149086051490860514908600BE0494822
:103C20004F4A1268815C4F4806F0D1F84C48006852
:103C3000401C4B490860434804F0C6FF48490968E6
:103C40008842ECD80A21474806F0C1F80A214548C5
:103C500006F0BDF80A21434806F0B9F80A214148A8
:103C600006F0B5F80A213F4806F0B1F80A213D48B0
:103C700006F0ADF80A213B4806F0A9F80A213948B8
:103C800006F0A5F80A21374806F0A1F80A213548C0
:103C900006F09DF80A21334806F099F80A213148C8
:103CA00006F095F80A212F4806F091F80A212D48D0
:103CB00006F08DF80A212B4806F089F80A212948D8
:103CC00006F085F80A21274806F081F80A212548E0
:103CD00006F07DF80A21234806F079F80A212148E8
:103CE00006F075F80A211F4806F071F80A211D48F0
:103CF00006F06DF80A211B4806F069F80A211948F8
:103D000006F065F80A21174806F061F80A211548FF
:103D100006F05DF80A21134806F059F80A21114807
:103D200006F055F80A210F4806F051F80A210D480F
:103D300006F04DF80A210B4806F049F80A2115E073
:103D4000C01A0020E405002090F1FF1F6011000060
:103D5000200D00003E0000000CF0FF1F14F0FF1FBC
:103D600004F0FF1F00B006405CF2FF1FFE4806F0A3
:103D70002EF80A21FC4806F02AF80A21FA4806F033
:103D800026F80A21F84806F022F80A21F64806F03B
:103D90001EF80A21F44806F01AF80A21F24806F043
:103DA00016F80A21F04806F012F80A21EE4806F04B
:103DB0000EF80A21EC4806F00AF80A21EA4806F053
:103DC00006F80A21E84806F002F80A21E64805F05C
:103DD000FEFF0A21E44805F0FAFF0A21E24805F057
:103DE000F6FF0A21E04805F0F2FF0A21DE4805F05F
:103DF000EEFF0A21DC4805F0EAFF0A21DA4805F067
:103E0000E6FF0A21D84805F0E2FF0A21D64805F06E
:103E1000DEFF0A21D44805F0DAFF0A21D24805F076
:103E2000D6FF0A21D04805F0D2FF0A21CE4805F07E
:103E3000CEFF0A21CC4805F0CAFF00BFCB49CC48D1
:103E400006F094FA002809D1CA49C94806F08EFA4A
:103E5000002803D1C84800680528EFDDFCF7D8FA30
:103E6000C64804F0B1FE04462146C44806F0EFFA05
:103E7000FCF7CEFA38BD38B53E21BD48FCF7C2FB91
:103E8000BF4908700846007800287CD0FCF7C0FACB
:103E9000BC49B74806F0DBFABBA1B84804F0A4FE61
:103EA000B64804F091FEB94908600020B2490860A4
:103EB000B7490860B74908600BE0B048B54A1268D6
:103EC000815CA94805F083FFB2480068401CB149F5
:103ED0000860B0480068AD4909688842EDDB1A21E6
:103EE000A14805F074FF1A219F4805F070FF1A21C0
:103EF0009D4805F06CFF00BF9C499D4806F036FACE
:103F0000A54908609B499A4806F030FAA349086021
:103F1000A349974806F02AFAA24908609549183142
:103F2000934806F023FAA04908609C4800680028DE
:103F30000FD19C48006800280BD108460068002873
:103F400007D195480068002803D18B4800680A28EB
:103F5000D2DD0A2008F0E2FBFCF75AFA1A21824867
:103F600005F035FF0A2008F0D9FB1A217E4805F03C
:103F70002EFF1A217C4805F02AFF1A217A4805F005
:103F800026FF64E1FFE7642008F0C8FBFCF740FA75
:103F90006421864806F05BFA784804F015FE441C5C
:103FA0002346834A71493839804806F055F8052080
:103FB000704B1A46703A7FA100907C48FCF74AFA91
:103FC000FCF726FA0020724908606B4908607149C5
:103FD00008600BE069486F4A1268815C624805F02E
:103FE000F6FE6C480068401C6A490860634804F0AB
:103FF000EBFD684909688842ECD80A215A4805F067
:10400000E6FE0A21584805F0E2FE0A21564805F06E
:10401000DEFE0A21544805F0DAFE0A21524805F076
:10402000D6FE0A21504805F0D2FE0A214E4805F07E
:10403000CEFE0A214C4805F0CAFE0A214A4805F086
:10404000C6FE0A21484805F0C2FE0A21464805F08E
:10405000BEFE0A21444805F0BAFE0A21424805F096
:10406000B6FE0A21404805F0B2FE0A213E4805F09E
:10407000AEFE0A213C4805F0AAFE0A213A4805F0A6
:10408000A6FE0A21384805F0A2FE0A21364805F0AE
:104090009EFE0A21344805F09AFE0A21324805F0B6
:1040A00096FE0A21304805F092FE0A212E4805F0BE
:1040B0008EFE0A212C4805F08AFE0A212A4805F0C6
:1040C00086FE0A21284805F082FE0A21264805F0CE
:1040D0007EFE0A21244805F07AFE0A21224805F0D6
:1040E00076FE0A21204805F072FE0A211E4805F0DE
:1040F0006EFE0A211C4805F06AFE0A211A4805F0E6
:1041000066FE0A21184805F062FE0A21164805F0ED
:104110005EFE0A21144805F05AFE0A21124805F0F5
:1041200056FE0A21104805F052FE0A210E4805F0FD
:104130004EFE0A210C4805F04AFE0A210A4805F005
:1041400046FE0A21084805F042FE0A21064805F00D
:104150003EFE0A21044805F03AFE0A21024805F015
:1041600036FE0A21004827E000B006409811000002
:104170005CF2FF1F200D000014F0FF1FE40500207B
:104180003CF0FF1F881300000A00000038F0FF1FFA
:104190000CF0FF1F04F0FF1F44F0FF1F48F0FF1F4B
:1041A0009C1600004CF0FF1F50F0FF1FC01A0020AB
:1041B00090F1FF1F3E00000005F009FE0A21FE48B5
:1041C00005F005FE0A21FC4805F001FE0A21FA4827
:1041D00005F0FDFD0A21F84805F0F9FD0A21F64831
:1041E00005F0F5FD0A21F44805F0F1FD0A21F24839
:1041F00005F0EDFD0A21F04805F0E9FD0A21EE4841
:1042000005F0E5FD0A21EC4805F0E1FD0A21EA4848
:1042100005F0DDFD00BFE949E94806F0A7F80028F0
:1042200009D1E849E64806F0A1F8002803D1E6489C
:1042300000680528EFDDFCF7EBF8E44804F0C4FC67
:1042400004462146E14806F002F9FCF7E1F8E0A156
:10425000DB4806F08BF8DF49086008460068002854
:104260007ED1642008F05AFAFCF7D2F86421DA48CB
:1042700006F0EDF8D54804F0A7FC441C2346D74AC5
:10428000CE493839D44805F0E7FE0520CD4B1A4613
:10429000703AD3A10090D048FCF7DCF8FCF7B8F8EE
:1042A0000020D0490860C8490860CF4908600BE089
:1042B000C648CD4A1268815CBF4805F088FDCA48EF
:1042C0000068401CC8490860C04804F07DFCC6492D
:1042D00009688842ECD80A21B74805F078FD0A2120
:1042E000B54805F074FD0A21B34805F070FD0A21B8
:1042F000B14805F06CFD0A21AF4805F068FD0A21C0
:10430000AD4805F064FD0A21AB4805F060FD0A21C7
:10431000A94805F05CFD0A21A74805F058FD0A21CF
:10432000A54805F054FD0A21A34805F050FD0A21D7
:10433000A14805F04CFD0A219F4805F048FD0A21DF
:104340009D4805F044FD0A219B4805F040FD0A21E7
:10435000994805F03CFD0A21974805F038FD00E03A
:10436000BCE00A21944805F032FD0A21924805F08C
:104370002EFD0A21904805F02AFD0A218E4805F0FD
:1043800026FD0A218C4805F022FD0A218A4805F005
:104390001EFD0A21884805F01AFD0A21864805F00D
:1043A00016FD0A21844805F012FD0A21824805F015
:1043B0000EFD0A21804805F00AFD0A217E4805F01D
:1043C00006FD0A217C4805F002FD0A217A4805F025
:1043D000FEFC0A21784805F0FAFC0A21764805F02F
:1043E000F6FC0A21744805F0F2FC0A21724805F037
:1043F000EEFC0A21704805F0EAFC0A216E4805F03F
:10440000E6FC0A216C4805F0E2FC0A216A4805F046
:10441000DEFC0A21684805F0DAFC0A21664805F04E
:10442000D6FC0A21644805F0D2FC0A21624805F056
:10443000CEFC0A21604805F0CAFC0A215E4805F05E
:10444000C6FC0A215C4805F0C2FC0A215A4805F066
:10445000BEFC0A21584805F0BAFC0A21564805F06E
:10446000B6FC0A21544805F0B2FC0A21524805F076
:10447000AEFC0A21504805F0AAFC0A214E4805F07E
:10448000A6FC0A214C4805F0A2FC0A214A4805F086
:104490009EFC0A21484805F09AFC0A21464805F08E
:1044A00096FC00BF4549464805F060FF002809D149
:1044B0004449434805F05AFF002803D142480068A8
:1044C0000528EFDDFBF7A4FF404804F07DFB044620
:1044D00021463E4805F0BBFFFBF79AFF38BD70B59B
:1044E00004460D46164600203F4908603F480068D4
:1044F0003F49086000BF304805F076FC002818D01E
:104500002D48C0793B49384A1268885436480068BB
:10451000401C354908603548006835490860324814
:104520000068FF212B31884209DD00202E490860F8
:1045300005E02F480068401E2D49086000BF1F4954
:104540002C4805F013FF002811D11E497039294865
:1045500005F00CFF00280AD125480068002806DD78
:1045600018497839234805F001FF0028C3D070BDF1
:10457000F8B504460E4615461F4600201A49086045
:104580001A4800681A49086000BF1B4805F02CFC57
:1045900000283BD01848C0791649134A126888543D
:1045A00011480068401C1049086010480068104914
:1045B00008600D48006821E000B006409811000036
:1045C0005CF2FF1F200D000014F0FF1FE405002027
:1045D0004F4B000040F0FF1FC01A002090F1FF1F5A
:1045E0003E0000000CF0FF1F04F0FF1F1CF0FF1F37
:1045F00008F0FF1F140D002000C00640FF212B31E2
:10460000884208DD0020FE49086004E0FD4800689B
:10461000401EFC4908602146FB4805F0A7FE002823
:104620000FD13146F84805F0A1FE002809D1F54820
:104630000068002805DD2946F34805F097FE0028AC
:10464000A3D0F8BD70B50446002505E0615DEF48D4
:1046500005F0BDFB681CC5B2605D0028F6D170BDD9
:10466000F8B507460C4615461E46E74804F0ACFA76
:10467000E749086008460168E34805F0E8FEFCF7F2
:1046800091F83846FFF7DEFF324629462046069B62
:10469000FFF76EFFFCF786F8DB48F8BDF8B5044677
:1046A0000E4617461D460A2008F038F80F21284606
:1046B00005F0CDFE0020D7490860D74908601AE010
:1046C000D4480068205C2C2808D1D3480068401CDE
:1046D000D1490860CF480068D0490860CE480068DA
:1046E000B84203DBE1208000CA490860C94800687D
:1046F000401CC8490860C74800686428E0DB002007
:10470000C4490860C44908601AE0C2480068205CD7
:104710002C2808D1C0480068401CBF490860BD482B
:104720000068B8490860BC480068B04203DBE1207B
:104730008000B8490860B7480068401CB549086067
:10474000B44800686428E0DB0020B24908600EE04D
:10475000AC480068AF4909684018401C205CAD496E
:1047600009686854AB480068401CAA490860AB4817
:104770000068A4490968401A401EA6490968884291
:10478000E6DCF8BD08B5A64BA64AA749A74805F040
:1047900063FCA7480068A44B2033A64A1946009042
:1047A000A248FBF7C1FE09F0FDF908BDA248806BE5
:1047B0000121C9020843A0498863A048A049C860F4
:1047C0009D48806B0121090308439B4988639B48EE
:1047D0009C4988611F20002805DBC206D20E0121FA
:1047E0009140994A116000BF704700B59748006832
:1047F000012802D16320964908709548007803008B
:1048000007F060FF06040C141C242C34402091494E
:104810008860802048604000486032E040208D4938
:10482000886080208860400048602AE040208949F4
:104830004860802088604000486022E04020854930
:10484000486080204860400088601AE0402081492C
:104850008860802048604000886012E040207D49E8
:10486000886080208860400088600AE040207949A4
:10487000486080204860400048600020744908700B
:1048800000BF00BF00BD00B56D488030006A082140
:104890000840002811D06A488030006A08436849FF
:1048A000803108626C480068012108436A49086049
:1048B00067480078401C6649087062488030006A8A
:1048C00040210840002811D05E488030006A08432B
:1048D0005C498031086260480068012108435E49F4
:1048E000086001205D490870FBF792FDFFF77DFF2E
:1048F00000BD704700205A4988615A484861052028
:1049000008617047564800694008400054490861F2
:10491000704770B5524885698469281B5249086000
:10492000294652A005F08AFB214657A005F086FBD8
:104930004D4801685BA005F081FB70BD0CE0644947
:10494000644A116004E063490968491E614A1160C4
:10495000604909680029F6DC0146401E0029EED1B5
:1049600070471CB55C4804F02FF9014601905A4885
:1049700005F06DFD594804F027F9014601905748AC
:1049800005F065FD04F0FAF9FFF7B4FF052054497E
:10499000086007F0FDFD00BF2748806B0121490238
:1049A00008432549886388154E494860886029482E
:1049B0008038406806210843264980394860084607
:1049C00040690621084323498039486102208860F4
:1049D0000420886000BFFFF7E9FE00201B49086043
:1049E00080201C494031886001217D20C00005F0F5
:1049F0001AF900203A4908600A213B4876E0000095
:104A000004F0FF1F08F0FF1F140D002000C0064037
:104A10005CF0FF1F60F0FF1F68F0FF1F64F0FF1FD6
:104A2000DEF1FF1FCEF1FF1F6C160000C01A002040
:104A300088F1FF1F200D00000080044003010A00E0
:104A400000B0044000C0044000E100E084F1FF1F1A
:104A500078F0FF1F80F00F4074F0FF1F15F2FF1F6A
:104A600000E000E03F9C000084F0FF1F7379737446
:104A700069636B2073746172742076616C75653A3A
:104A800020307825780A0D007379737469636B2080
:104A9000656E642076616C75653A20307825780AF9
:104AA0000D0000007379737469636B206375727213
:104AB000656E742076616C75652072656164206F27
:104AC000766572686561643A20307825780A0D0051
:104AD0008813000008F2FF1FE4050020CC18002016
:104AE0008CF1FF1F0090044000B0064005F06FF904
:104AF0001A21FE4805F06BF90220FD4B1A460832D8
:104B0000FC490090FCA0FBF70FFD642007F006FEB7
:104B1000FBF77EFC642007F001FE07F099FAF8A18C
:104B2000F94804F061F80520F849086007F0C8FE6C
:104B300008F020FE0420EE4B78331A46703AF4A1B8
:104B40000090EC481C30FBF7EFFCFBF761FC072002
:104B5000E74B7833EFA2F3A10090E6484030FBF733
:104B6000E3FC07F075FAE3494439E74804F03CF800
:104B700007F06EFADF494439E34804F035F80320C2
:104B8000EA490870FFF731FEE9480068D84B1A4639
:104B90000832D8490090E7A0FBF7C6FCE44800685B
:104BA000D34B1A460832D3490090E5A0FBF7BCFC72
:104BB000DF480068CE4B1A460832CE490090E3A089
:104BC000FBF7B2FCDA480068C94B1A460832C949FB
:104BD0000090E1A0FBF7A8FCD5480068C44B1A463A
:104BE0000832C4490090DFA0FBF79EFCD048006863
:104BF000BF4B1A460832BF490090DEA0FBF794FC79
:104C0000CB480068BA4B1A460832BA490090DEA079
:104C1000FBF78AFCC6480068B54B1A460832B5490E
:104C20000090DEA0FBF780FCC1480068B04B1A463C
:104C30000832B0490090BFA0FBF776FC0A2007F0CD
:104C40006DFDBB480068AA4B1A460832A94900907E
:104C5000D6A0FBF769FCFBF7DBFB0A2007F05EFD43
:104C600007F0F6F9A3494439A74803F0BDFFB0485F
:104C700000689F4B1A4608329E490090D0A0FBF76F
:104C800053FC642007F04AFDD1A1D24805F06EFB29
:104C9000002821D0A6480068954B1A46083295494D
:104CA0000090CDA0FBF740FC6421D54805F0CFFB78
:104CB0000222D4A1D24805F0CFF90A208C4B1A4623
:104CC0000832DBA10090CE48FBF72EFCFBF7A0FBDF
:104CD000BFA0FBF7AEFB20E095480068844B1A4666
:104CE000083284490090BCA0FBF71EFC6421C44834
:104CF00005F0ADFB0222C3A1C14805F0ADF90A20C1
:104D00007B4B1A460832CAA10090BD48FBF70CFC49
:104D1000FBF77EFBC7A0FBF78CFB642007F0FEFCD3
:104D200083480068724B1A46083272490090C2A04C
:104D3000FBF7FAFB7E4800686D4B1A4608326D4956
:104D40000090C0A0FBF7F0FB79480068684B1A465A
:104D5000083268490090BFA0FBF7E6FB7448006882
:104D6000634B1A46083263490090C0A0FBF7DCFB96
:104D70006F4800685E4B1A4608325E490090C5A035
:104D8000FBF7D2FB07F09CFD08F0F4FC08F08AFC6E
:104D900067480068564B1A46083256490090C7A02B
:104DA000FBF7C2FB62480068514B1A460832514972
:104DB0000090C6A0FBF7B8FB6421914805F047FBC3
:104DC0000F21C64805F043FBC44822210B460222AE
:104DD0000091019001217F4808F0D4FBBF4AC0A197
:104DE000874805F039F952480068414B1A460832A5
:104DF000404900908248FBF797FB4D4800683C4BC8
:104E00001A46083242A10090BAA0FBF78DFB484831
:104E10000068374B1A4608323DA10090BDA0FBF751
:104E200083FB0D22C3A1C74805F0B4FAC648C7A149
:104E30000A88028049884180C648C7A10978017064
:104E400008F070FD08F0E2FC08F05EFC64216C489C
:104E500005F0FDFA0521C14805F0FBFAC0A168483C
:104E600005F0FAF80A20224B1A46083228A10090D1
:104E70006348FBF759FBB9480D210A23032200912F
:104E800001900121534808F07DFB07F0B5FD052096
:104E9000174B1A4608321EA10090BC48FBF744FB92
:104EA00007F0D6F813494439174803F09DFE07F080
:104EB000A3FD6421524805F0CAFAB54AB349183136
:104EC0004F4805F0C9F81A480068094B1A460832DD
:104ED0000FA100904A48FBF727FB07F08DFD052046
:104EE000034B90331A46883A09A153E100B00640BB
:104EF000A80C0000981100000A0A41540D0A000095
:104F000043482731270A0000E40500208CF1FF1FE9
:104F10004F4B00004E4F5420494E53455254454488
:104F200000000000526561647900000078F0FF1F06
:104F300088F1FF1F0A0A415426570D0A000000009D
:104F40000A0A415453303D320D0A00000A0A415406
:104F500026460D0A000000000A0A415426440D0AA4
:104F6000000000000A0A41542B4946433D302C30D2
:104F70000D0A00000A0A41542B4349505153454E33
:104F8000443F0D0A000000000A0A41542B434950D7
:104F90005153454E443D300D0A0000000A0A415469
:104FA0002B53443250434D3D300D0A000A0A415400
:104FB0002B465344524956453D310D0A000000002E
:104FC0000A0A41542B46534D454D0D0A000000007E
:104FD000443A00005CF2FF1F0A0A41542B46534337
:104FE00052454154453D433A5C4C4F4747494E4733
:104FF0005F44524956452E5458540D0A0000000093
:10500000C01A00200D0A41542B46535752495445AB
:105010003D433A5C4C4F4747494E475F44524956DF
:10502000452E5458542C302C25642C31300D0A0058
:105030003E000000433A00000A0A415453303D311B
:105040000D0A00000A0A41542B4353434C4B3D3197
:105050000D0A00000D0A0D0A41542B434D47443DF3
:10506000312C340D0A0A0A0A000000000A0A4154D1
:105070002B435042573D352C2239363433313033AF
:10508000393833222C3132392C224F574E45523584
:10509000220D0A000A0A41542B435042573D362C38
:1050A0002238323837333234303035222C313239ED
:1050B0002C224F574E455236220D0A000A0A4154FF
:1050C0002B434D47463D310A0A0000000A0A41546D
:1050D0002B435343413F0D0A000000005B1B00209F
:1050E0000D0A41542B435343413D222573220D0A9F
:1050F000000000000A41542B465343524541544599
:105100003D433A5C49505F504F52542E5458540D11
:105110000A0000000A41542B46534352454154456E
:105120003D433A5C494E54455256414C2E545854D6
:105130000D0A00003130342E3233362E3230332E09
:1051400034000000CEF1FF1FDEF1FF1F353535358D
:1051500000000000EDF1FF1F3500000090F1FF1F7F
:105160000A41542B4653524541443D433A5C4C4F0F
:105170004747494E475F44524956452E5458542C90
:10518000302C3130302C310D0A0000001416000094
:1051900095F1FF1F0090FE48FBF7C6F906F058FF97
:1051A000FC49FD4803F020FD06F052FFF949FA489A
:1051B00003F01AFD07F020FCFBF72AF9F448103041
:1051C000FBF737F9FBF724F9142007F0A7FA07F0EB
:1051D00013FCF24BF24AEE492831F24804F03CFF4E
:1051E000F1480068F14B1A46703AE949483100909D
:1051F000EC48FBF799F9FBF70BF906F029FFE549B5
:10520000E54803F0F1FCE8480068E14B5033E74A19
:10521000E7A1009018461430FBF786F9E5480068CE
:1052200003F0D2FC01460190E248006805F00FF956
:10523000E148006803F0C8FC01460190DE480068C0
:1052400005F005F93E21DD48FBF7DCF9DC49087083
:105250000846007800287DD0FBF7DAF8D949D7480E
:1052600005F0F5F8D8A1CC4803F0BEFCCA4803F01D
:10527000ABFCD64908600020D5490860D5490860D4
:10528000D54908600DE0C448D3490968405C01462F
:105290000190D24804F09BFDCF480068401CCE49E5
:1052A0000860CD480068C94909688842EBDB1A21CB
:1052B000CA4804F08CFD00BFBC490839BF4805F05E
:1052C00055F8BC490860B949BC4805F04FF8C449D5
:1052D0000860AF495831B94805F048F8C14908603D
:1052E000B2491831B54805F041F8BF490860BC48DB
:1052F000006800280FD1BB48006800280BD1084681
:105300000068002807D1AB480068002803D1B048E6
:1053100000680428D0DD1A21B04804F058FD1A2195
:10532000AE4804F054FD1A21AC4804F050FD1A2197
:10533000AA4804F04CFDAD480068012806D1AC48ED
:105340000068AC4908600020A8490860322007F0D6
:10535000E5F900E006E095490839984805F006F8B7
:105360009449086093480068002801D1012000E0BA
:10537000002001287ED11A21984804F028FDFBF76F
:1053800047F80A2007F0CAF91A21944804F01FFDD3
:10539000FBF73EF80A2007F0C1F91A218F4804F004
:1053A00016FDFBF735F80A2007F0B8F9642007F07E
:1053B000B5F9FBF72DF864217A4805F048F87648EE
:1053C00003F002FC401C03468B4A72490C310190E9
:1053D000744804F041FE0520744B1A46703A74A1DB
:1053E00000907048FBF736F8FBF712F80020794977
:1053F000086077490860784908600DE0664876499A
:105400000968405C01460190744804F0E0FC724871
:105410000068401C704908605F4803F0D5FB6E4986
:1054200009688842EAD80A216C4804F0D0FC0A21B5
:105430006A4804F0CCFC0A21684804F0C8FC0A2140
:10544000664804F0C4FC0A21644804F0C0FC0A2148
:10545000624804F0BCFC0A21604804F0B8FC0A2150
:105460005E4804F0B4FC0A215C4804F0B0FC0A2158
:105470005A4800E0FEE304F0AAFC0A21574804F071
:10548000A6FC0A21554804F0A2FC0A21534804F066
:105490009EFC0A21514804F09AFC0A214F4804F06E
:1054A00096FC0A214D4804F092FC0A214B4804F076
:1054B0008EFC0A21494804F08AFC0A21474804F07E
:1054C00086FC0A21454804F082FC0A21434804F086
:1054D0007EFC0A21414804F07AFC0A213F4804F08E
:1054E00076FC0A213D4804F072FC0A213B4804F096
:1054F0006EFC0A21394804F06AFC0A21374804F09E
:1055000066FC0A21354804F062FC0A21334804F0A5
:105510005EFC0A21314804F05AFC0A212F4804F0AD
:1055200056FC0A212D4804F052FC0A212B4804F0B5
:105530004EFC0A21294804F04AFC0A21274804F0BD
:1055400046FC0A21254804F042FC0A21234804F0C5
:105550003EFC0A21214804F03AFC0A211F4804F0CD
:1055600036FC0A211D4804F032FC0A211B4804F0D5
:105570002EFC0A21194804F02AFC0A21174804F0DD
:1055800026FC0A21154804F022FC0A21134835E0C4
:105590004416000054110000E4050020DEF1FF1F56
:1055A000CEF1FF1FC01A002088F1FF1F200D000060
:1055B0003E00000044F0FF1F40F0FF1F5CF2FF1FA1
:1055C0003CF0FF1F881300000A00000038F0FF1FA6
:1055D00014F0FF1F0CF0FF1F04F0FF1F00B0064087
:1055E00048F0FF1F4CF0FF1F50F0FF1F24F0FF1F7B
:1055F00020F0FF1F8CF1FF1F90F1FF1F04F0E7FB6D
:105600000A21FE4804F0E3FB0A21FC4804F0DFFB1A
:105610000A21FA4804F0DBFB0A21F84804F0D7FB22
:105620000A21F64804F0D3FB0A21F44804F0CFFB2A
:105630000A21F24804F0CBFB0A21F04804F0C7FB32
:105640000A21EE4804F0C3FB0A21EC4804F0BFFB3A
:105650000A21EA4804F0BBFB0A21E84804F0B7FB42
:1056600000BFE749E74804F081FE002809D1E64978
:10567000E44804F07BFE002803D1E44800680528D4
:10568000EFDDFAF7C5FEE24803F09EFA014601900D
:10569000DF4804F0DCFEDE4803F096FA0146019094
:1056A000DB4804F0D4FE06F0D3FCD5494439D84891
:1056B00003F09AFAD7480068012809D0D648006854
:1056C000D64908600420D44908600120D149086007
:1056D000FAF79EFE07F090F90520CB4B1A46703A78
:1056E000CFA10090C6481C30FAF71EFF642007F0D7
:1056F00015F80420C44BC24A2C32C9A100901046B0
:105700001430FAF711FF06F01BFEBD494439C048BA
:1057100003F06AFA06F014FEB9494439BC4803F0B4
:1057200063FA06F00DFEB6494439B94803F05CFA55
:105730000420B54B783B1A460832B9A10090B9480D
:10574000FAF7F2FE06F0FCFDAD494439B04803F02B
:105750004BFA6421B44804F07AFEB44AB1491831D6
:10576000B14804F079FCB2480068A74B783B1A4670
:105770000832ABA10090AC48FAF7D6FE07F03CF92E
:105780000420A14B18331A46883AA5A10090A548D9
:105790003030FAF7C9FE06F0D3FD994944399C48E8
:1057A00003F022FA06F0CCFD95494439984803F0FD
:1057B0001BFA07F021F906F0C3FD914944399448DA
:1057C00003F012FAFAF724FE96484030FAF731FE59
:1057D000FAF71EFE142006F0A1FF07F00DF9954B15
:1057E000954A90495831904804F036FC904800683A
:1057F000854B783B844A8B49783100908A48FAF788
:1058000093FEFAF705FE8A480068864B80337E4A8D
:105810008AA1009018461430FAF786FEFAF7F8FDD0
:105820003E217848FAF7EEFE854908700846007870
:1058300000287DD0FAF7ECFD8249724804F007FE9B
:1058400081A1734803F0D0F9714803F0BDF97F4995
:10585000086000206D4908607D4908607D49086046
:105860000DE06B487B490968405C01460190634844
:1058700004F0ADFA77480068401C76490860754826
:105880000068724909688842EBDB1A215B4804F022
:105890009EFA00BF5C4908395A4804F067FD6E491A
:1058A00008605949574804F061FD6C4908605D493A
:1058B0008831544804F05AFD69490860524918314A
:1058C000504804F053FD67490860644800680028A8
:1058D0000FD16348006800280BD1084600680028F3
:1058E00007D15D480068002803D1484800680728B0
:1058F000D0DD0A2006F012FFFAF78AFD1A213F4890
:1059000004F065FA0A2006F009FF1A213B4804F06A
:105910005EFA1A21394804F05AFA1A21374804F07D
:1059200056FA1A21354804F052FAFAF771FD00E0F0
:10593000ACE10A2006F0F2FE1A21304804F047FAE2
:10594000FAF766FD0A2006F0E9FE2E4803F03CF95E
:10595000454908601A21294804F039FAFAF758FD38
:105960000A2006F0DBFE322006F0D8FE2649083970
:10597000244804F0FBFC3D49086008460068002804
:1059800001D1012000E00020012873D1642006F03D
:10599000C5FEFAF73DFD6421234804F058FD1C487C
:1059A00003F012F9401C0346314A15493839019079
:1059B0001D4804F051FB0520134B1A46703A1FA1F5
:1059C00000901948FAF746FDFAF722FD0020204919
:1059D00008600E4908601F4908600DE00C481D4929
:1059E0000968405C01460190044804F0F0F9194848
:1059F0000068401C1749086005483CE000B00640BC
:105A0000981100005CF2FF1F200D000014F0FF1F32
:105A1000E405002024F0FF1F8CF1FF1F20F0FF1F82
:105A20004F4B000014160000C01A002095F1FF1F14
:105A300088F1FF1FDEF1FF1FCEF1FF1F3E000000C7
:105A40003CF0FF1F881300000A00000038F0FF1F21
:105A50000CF0FF1F04F0FF1F44F0FF1F48F0FF1F72
:105A60004CF0FF1F50F0FF1FE4F0FF1F40F0FF1F3E
:105A700090F1FF1F07E103F0A7F8FE49096888428B
:105A8000ACD80A21FC4804F0A2F90A21FA4804F033
:105A90009EF90A21F84804F09AF90A21F64804F020
:105AA00096F90A21F44804F092F90A21F24804F028
:105AB0008EF90A21F04804F08AF90A21EE4804F030
:105AC00086F90A21EC4804F082F90A21EA4804F038
:105AD0007EF90A21E84804F07AF90A21E64804F040
