S31500000000F82F0020250F00008D0400002F0F0000A0
S3150000001000000000000000000000000000000000DA
S31500000020000000000000000000000000310F00008A
S315000000300000000000000000330F0000350F000034
S31500000040370F0000370F0000370F0000370F000092
S31500000050370F0000370F0000370F0000A91100000E
S31500000060370F0000370F0000370F0000370F000072
S31500000070370F0000370F0000370F0000370F000062
S31500000080370F0000370F0000370F0000370F000052
S31500000090370F0000370F0000370F0000370F000042
S31500000400FFFFFFFFFFFFFFFFFFFFFFFFFEFFFFFFF7
S315000004100348854601F0A2FB00480047250400007A
S31500000420F82F002000F053F905A001F0CBFB05E002
S3150000043000F018F80446204600F019F8F8E7000026
S315000004400A0D52756E6E696E672074686520767443
S31500000450735F766572332070726F6A6563742E0AF5
S315000004600D00000010B5084801F0D7FA10BD10B510
S3150000047004462146044801F0D9FA10BD10B50248D9
S3150000048001F0DCFA10BD000000A00640134909681F
S315000004900222114000290DD0104909684908490077
S315000004A00E4A116000BF0D49096802221140002959
S315000004B0F9D10DE0002007E0094909691022114031
S315000004C0102900D103E0401C06498842F4DB00BF36
S315000004D0704705480549086170470000403000F044
S315000004E000F00FF8FFFF0100130700000090044022
S315000004F010B58748406A072109070840000F030026
S3150000050001F070FB0504080C1014180081A001F01E
S3150000051059FB13E081A001F055FB0FE081A001F02B
S3150000052051FB0BE081A001F04DFB07E081A001F03B
S3150000053049FB03E081A001F045FB00BF00BF744802
S31500000540406A072109060840000E042802D0052843
S3150000055008D103E078A001F035FB07E081A001F0A7
S3150000056031FB03E080A001F02DFB00BF00BF68480F
S31500000570406A0007000F030001F034FB09060A0E6B
S315000005802212161A221E220082A001F01BFB1BE07B
S3150000059084A001F017FB17E086A001F013FB13E01F
S315000005A087A001F00FFB0FE088A001F00BFB00BF56
S315000005B089A001F007FB00BF8AA001F003FB03E05E
S315000005C08CA001F0FFFA00BF00BF5148406A072126
S315000005D009050840000D012803D191A001F0F2FAA7
S315000005E003E099A001F0EEFA00BF00BF4848406A58
S315000005F0072109040840000C030001F0F3FA08057E
S31500000600090D1115191D21259AA001F0DBFA1FE02D
S315000006109DA001F0D7FA1BE0A0A001F0D3FA17E0E5
S31500000620A3A001F0CFFA13E0A6A001F0CBFA0FE0E9
S31500000630A9A001F0C7FA0BE0ACA001F0C3FA07E0ED
S31500000640AFA001F0BFFA03E0B2A001F0BBFA00BF11
S3150000065000BF0F242146B6A001F0B4FA2C48403062
S31500000660C06821060840000E05281AD006DC0028BE
S315000006700BD001280DD0032823D10EE0072814D073
S31500000680092816D00F281CD117E0AEA001F09AFA5F
S315000006901BE0BBA001F096FA17E0C8A001F092FAA1
S315000006A013E0D5A001F08EFA0FE0E2A001F08AFA7D
S315000006B00BE0EFA001F086FA07E0DEA001F082FA77
S315000006C003E0FAA001F07EFA00BF00BF10BD10B52E
S315000006D00020FE49086000F077FA59A001F072FA8E
S315000006E000F008FFFFF704FF10BD10B50320F8491E
S315000006F0C87100208871487108710120C873802074
S31500000700087000BFF2480078802108400028E1E127
S31500000710008004400A0D4B4C300000000A0D4B4C83
S31500000720310000000A0D4B4C320000000A0D4B4C04
S31500000730330000000A0D4B4C340000000A0D556EC4
S315000007407265636F676E697A6564204B696E65745E
S3150000075069732066616D696C792064657669636585
S315000007602E0A0D00350000000A0D556E7265636F86
S31500000770676E697A6564204B696E65746973207368
S3150000078075622D66616D696C79206465766963654D
S315000007902E0A0D00313670696E2020202020202080
S315000007A000000000323470696E20202020202020B6
S315000007B000000000333270696E20202020202000C7
S315000007C0343870696E20202020202000363470696D
S315000007D06E20202020202000383070696E202020D6
S315000007E02020200031303070696E2020202020200B
S315000007F0000000000A0D556E7265636F676E697AB8
S315000008006564204B696E65746973207061636B6102
S31500000810676520636F64652E20202020202000005D
S315000008200A0D4C6F7720506F776572204C696E65A4
S31500000830207769746820436F72746578204D302B79
S315000008400A0D0A0D000000000A0D556E7265636FF1
S31500000850676E697A6564204B696E65746973206694
S31500000860616D696C79206174747269627574652E44
S315000008700A0D00005352414D2053697A653A2030E3
S315000008802E35204B420A0D005352414D2053697AB2
S31500000890653A202031204B420A0D00005352414D4B
S315000008A02053697A653A202032204B420A0D000017
S315000008B05352414D2053697A653A202034204B42E9
S315000008C00A0D00005352414D2053697A653A2020A3
S315000008D038204B420A0D00005352414D2053697A8D
S315000008E0653A20203136204B420A0D005352414DC5
S315000008F02053697A653A20203332204B420A0D0094
S315000009005352414D2053697A653A20203634204BA4
S31500000910420A0D000A0D556E7265636F676E697A3D
S315000009206564205352414D2053697A652E0A0D00A5
S3150000093053696C69636F6E207265762025640A0DB3
S3150000094020000000466C6173682073697A653A205E
S315000009502038204B422070726F6772616D20666C82
S315000009606173682C20302E3235204B422070726F16
S3150000097074656374696F6E20726567696F6E0000D7
S31500000980466C6173682073697A653A202031362097
S315000009904B422070726F6772616D20666C6173687E
S315000009A02C20302E35204B422070726F7465637494
S315000009B0696F6E20726567696F6E0900466C6173B8
S315000009C0682073697A653A20203332204B422070C2
S315000009D0726F6772616D20666C6173682C203120BE
S315000009E04B422070726F74656374696F6E20726516
S315000009F067696F6E09000000466C61736820736951
S31500000A007A653A20203634204B422070726F677226
S31500000A10616D20666C6173682C2032204B42207019
S31500000A20726F74656374696F6E20726567696F6E45
S31500000A3009000000466C6173682073697A653A2084
S31500000A4020313238204B422070726F6772616D2000
S31500000A50666C6173682C2034204B422070726F7470
S31500000A60656374696F6E20726567696F6E09000051
S31500000A70466C6173682073697A653A202032353690
S31500000A80204B422070726F6772616D20666C6173D5
S31500000A90682C2034204B422070726F746563746931
S31500000AA06F6E20726567696F6E09000045525221AC
S31500000AB02120556E646566696E656420666C617397
S31500000AC0682073697A650A0D000000000081044001
S31500000AD00000024000D115E61D48C17A1DA001F0B4
S31500000AE071F81B48817A22A001F06CF81848417A07
S31500000AF01FA001F067F81648017A1FA001F062F8FE
S31500000B0003201349C87100208871487104200871B8
S31500000B100120C8738020087000BF0D48007880212E
S31500000B2008400028F9D00A48C17A15A001F04AF811
S31500000B300748817A18A001F045F80548417A0CA0CB
S31500000B4001F040F80248017A14A001F03BF810BD0C
S31500000B5000000240466C61736820706172616D65C9
S31500000B607465722076657273696F6E202564200045
S31500000B7020256420000000002025640A0D000000E6
S31500000B80466C6173682076657273696F6E2049449E
S31500000B9020256420000000002025640025640A0D3D
S31500000BA000000000FF20013048490861084600693E
S31500000BB0092109040843454908611E200121814095
S31500000BC0434A116000BF704710B54248806B1F2131
S31500000BD0490208433F4988633F4880780821084016
S31500000BE0002804D03C48807808433B49887001209F
S31500000BF00004384940314860384800683849086080
S31500000C0008460068FF2801DC00BFFEE7314840685F
S31500000C100121090408432F49486031480468E10F5F
S31500000C20091948107D21C90000F054FF2D490860BC
S31500000C307D21C9002A48006800F04CFF2A49086057
S31500000C40244840304068000F411C2748006800F0E7
S31500000C502BFF264908601F484030406807221204CF
S31500000C601040000C411C2148006800F01DFF20497F
S31500000C700860FFF797FF012040021449486088602A
S31500000C801448406801218906084312494860032038
S31500000C90000218490861C860E1225202144801683E
S31500000CA0154800F0C5FDE12252020E4801681348BE
S31500000CB000F008FE10BD052000020E49C860054878
S31500000CC0406840210843034948607047009004404B
S31500000CD000E100E00080044000D007401C00002036
S31500000CE0000000201400002004000020080000205E
S31500000CF00C00002000B0044000B0064000A00640F2
S31500000D0000207C4908607C48806B491508437A4975
S31500000D10886301200004784940314860774880683C
S31500000D2077490840754988600846C0687449084094
S31500000D307249C86089207349087024207249487036
S31500000D409A2008700846C078C006C00EC8700320F6
S31500000D5008710020487100BF6B4880791021084057
S31500000D600028F9D100BF684880790C21084008287E
S31500000D70F9D140206449487100BF634880790C214D
S31500000D8008400828F9D100BF5F4880794021084013
S31500000D900028F9D01A205C49087000BF5A488079AB
S31500000DA00C2108400C28F9D1584859490860704769
S31500000DB070B555480078C0210840002868D15248CF
S31500000DC040794021084000284ED14F480078042140
S31500000DD00840002815D14F4C4B4800783821084070
S31500000DE0C10801208840C5B22946204600F05CFEB5
S31500000DF004464548407830210840002803D064095D
S31500000E0001E00124E4034048C078E0210840C1061F
S31500000E10C90E002926D14011030000F0E3FE0805A3
S31500000E20090D1115191D20230520C00144431AE0A0
S31500000E3005200002444316E00F20C001444312E09F
S31500000E400520400244430EE0B720800044430AE0F8
S31500000E50B720C000444306E02F48444303E02F4830
S31500000E60444300E000BF38E027480079C006C00EC2
S31500000E70451C2946274800F017FE044622484079BB
S31500000E80C006C00E0546183520466843044624E0D1
S31500000E901D480078C0210840402815D11A484078DE
S31500000EA0C007C00F002802D10124E40315E016484C
S31500000EB0007A0E2210404208012090400146184850
S31500000EC000F0F2FD044608E00F480078C021084013
S31500000ED0802801D10F4C00E070BD074840304068C3
S31500000EE0000F411C204600F0DFFD0949086000BFE5
S31500000EF0F2E7000000810440008004404090044076
S31500000F00FFF8FFFE0050064000400640006CDC0281
S31500000F101C00002000127A0095080000710B0000EA
S31500000F2000093D000448804704480047FEE7FEE705
S31500000F30FEE7FEE7FEE7FEE7010D000011040000F4
S31500000F40F8B504460E461746CC480578E007C00FAC
S31500000F50002802D0CAA000F035FE0220204000285A
S31500000F6002D0D7A000F02EFE04202040002802D098
S31500000F70E1A000F027FE08202040002802D0ECA0C7
S31500000F8000F020FEBD48057045781020204000285E
S31500000F9002D0F5A000F016FE2020204000280CD03C
S31500000FA0B0000C2108400543FE4800F00BFEB34894
S31500000FB0407920210843B14948714020204000284B
S31500000FC00CD03001302108400543F74800F0FAFD07
S31500000FD0AA48407940210843A8494871802020400A
S31500000FE000280CD0B001C02108400543EF4800F0AE
S31500000FF0E9FDA248407980210843A04948719F48ED
S31500001000457085788015204000280BD0B007800FEA
S315000010100543E74800F0D6FD98488079012108434A
S315000010209649887101204002204000280CD0B0006B
S315000010300C2108400543DF4800F0C4FD8F48807945
S31500001040022108438D498871012080022040002832
S315000010500CD03001302108400543D74800F0B2FDDE
S315000010608648807904210843844988710120C0029A
S31500001070204000280CD0B001C02108400543CF48CD
S3150000108000F0A0FD7D488079082108437B498871DE
S315000010907A488570C57801200003204000280BD0CF
S315000010A0B007800F0543C64800F08CFD7348807971
S315000010B0102108437149887101204003204000280F
S315000010C00CD0B0000C2108400543BE4800F07AFD64
S315000010D06A48807920210843684988710120800385
S315000010E0204000280CD03001302108400543B64886
S315000010F000F068FD61488079402108435F498871A6
S315000011000120C003204000280CD0B001C0210840B7
S315000011100543AE4800F056FD5848807980210843C3
S31500001120564988715548C570002F03D10020534990
S31500001130087109E05148007938435049087108465A
S315000011400179A3A000F03EFDF8BDF8B504460F46B0
S3150000115015462B4622463946ACA000F033FD002644
S315000011608020464908724872012F0BD16801602120
S3150000117008402107090F08438021084306433F48DA
S31500001180067210E0022F0BD168016021084021078A
S31500001190090F08438021084306433848467202E097
S315000011A0A7A000F00FFDF8BD344840792021084083
S315000011B0002804D0314840790843304948712F4807
S315000011C0407940210840002804D02C484079084343
S315000011D02A4948712948407980210840002804D0CE
S315000011E02648407908432549487124488079C00734
S315000011F0C00F002805D021488079012108431F49E6
S3150000120088711E48807902210840002804D01B48B6
S315000012108079084319498871184880790421084063
S31500001220002804D01548807908431449887113486A
S31500001230807908210840002804D0104880790843A6
S315000012400E4988710D48807910210840002804D085
S315000012500A4880790843094988710848807920211D
S315000012600840002804D0054880790843034988715E
S3150000127002488079402108400028F1E000C007407C
S315000012800A20496E76616C6964204C4C5755206380
S315000012906F6E666967757265642070696E2050545A
S315000012A045312F534349315F52582F493243315FFD
S315000012B053434C202F535049315F53494E00000091
S315000012C00A20496E76616C6964204C4C5755206340
S315000012D06F6E666967757265642070696E2050541A
S315000012E045322F535049315F53434B2F53444843A4
S315000012F0305F44434C4B00000A20496E76616C69AE
S3150000130064204C4C575520636F6E6669677572652D
S31500001310642070696E20505445342F535049315F14
S31500001320504353302F53444843305F44330000004A
S315000013300A20496E76616C6964204C4C57552063CF
S315000013406F6E666967757265642070696E205054A9
S3150000135041342F46544D305F4348312F4E4D492F6F
S31500001360455A505F435300000A20496E76616C6906
S3150000137064204C4C575520636F6E666967757265BD
S31500001380642070696E2050544131332F46544D31DC
S315000013905F434831202F46544D315F51445F5048DA
S315000013A04200000018230000F42100008C220000F7
S315000013B0D0220000AC210000D820000094200000BC
S315000013C01C210000682100006C2300003C22000064
S315000013D00A204C4C575520636F6E666967757265B7
S315000013E064206D6F64756C6573206173204C4C5777
S315000013F0552077616B65757020736F7572636573C1
S31500001400203D203078253032582C00000A456E6188
S31500001410626C696E672046696C7465722025782057
S315000014206F6E2057552050696E20257820666F72A2
S315000014302057552073656E7365202578200A0000B5
S315000014400A4572726F72202D20696E76616C69642E
S315000014502066696C746572206E756D6265720A002D
S3150000146004D02048807908431E4988711D48807938
S3150000147080210840002804D01A4880790843194979
S3150000148088711848C079C007C00F00280DD01648CB
S31500001490806B012108431449886314480068802141
S315000014A0084312490860C12008600E48007A80216E
S315000014B00840002804D00B48007A084309490872FE
S315000014C00848407A80210840002804D00548407A20
S315000014D008430449487206480068802108430449C5
S315000014E00860704700C007400080044000000440C8
S315000014F080E200E010B55D484078202108400028D1
S3150000150002D05BA000F05EFB5848407808210840F6
S31500001510002802D05FA000F055FB54484078042113
S315000015200840002802D05FA000F04CFB4F484078EE
S3150000153002210840002802D05FA000F043FB4B4880
S31500001540007880210840002802D062A000F03AFB13
S315000015504648007840210840002802D062A000F0EA
S3150000156031FB4248007820210840002802D064A0C0
S3150000157000F028FB3D48007804210840002802D0EE
S3150000158065A000F01FFB39480078082108400028B4
S3150000159002D069A000F016FB34480078022108400A
S315000015A0002802D06BA000F00DFB30480078C00781
S315000015B0C00F002847D06EA000F004FB78484078A2
S315000015C04007400F032802D176A000F0FBFA7448CA
S315000015D040784007400F042808D1714880784007BA
S315000015E0400F002802D172A000F0ECFA6C48407857
S315000015F04007400F042808D1694880784007400F0B
S31500001600012802D16DA000F0DDFA65484078400758
S31500001610400F042808D1624880784007400F02280E
S3150000162002D169A000F0CEFA5D4840784007400F2D
S31500001630042808D15A4880784007400F032802D171
S3150000164064A000F0BFFA0948007800280DD10748C9
S315000016504078002809D10548017861A000F0B2FA67
S315000016600248417868A000F0ADFA10BD00F00740CE
S315000016700A0D53746F70204D6F64652041636B6E65
S315000016806F776C65646765204572726F722052656C
S31500001690736574000A0D4D444D2D415020526573FB
S315000016A0657400000A0D536F667477617265205287
S315000016B065736574000000000A0D436F7265204C67
S315000016C06F636B7570204576656E74205265736521
S315000016D0740000000A0D506F7765722D6F6E2052F0
S315000016E065736574000000000A0D45787465726EB6
S315000016F0616C2050696E20526573657400000000AD
S315000017000A0D5761746368646F6728434F50292038
S3150000171052657365740000000A0D4C6F7373206F79
S31500001720662045787465726E616C20436C6F636BDE
S3150000173020526573657400000A0D4C6F7373206F39
S3150000174066204C6F636B20696E20504C4C205265AE
S31500001750736574000A0D4C6F772D766F6C74616734
S315000017606520446574656374205265736574000072
S315000017700A0D5B6F75745352535D57616B657570D7
S3150000178020626974207365742066726F6D206C6FB9
S315000017907720706F776572206D6F6465200000009A
S315000017A000E007404C4C5320657869742000000027
S315000017B0564C4C533020657869742000564C4C5377
S315000017C03120657869742000564C4C533220657878
S315000017D069740000564C4C533320657869742000B8
S315000017E05B6F75745352535D52434D5F5352533082
S315000017F0206973205A45524F2020203D2025233052
S315000018003258200D0A0D00005B6F75745352535DFC
S3150000181052434D5F53525331206973205A45524FFC
S315000018202020203D202523303258200D0A0D0000AF
S31500001830F8B504460E4617468348844206D18348C7
S31500001840406BE11408438149486306E07F48406BDA
S315000018500121090308437D494863E0780C21884348
S31500001860E0700020A07039017D22D200724310463C
S3150000187000F030F985B220784109490100911F2016
S315000018800002284000120099084320706570E07835
S315000018900C210843E070F8BD014600BF08792022FC
S315000018A010400028FAD0C879704700BF027980231B
S315000018B01A40002AFAD0C1717047014608792022E1
S315000018C010407047F7B586B000BF00200590049021
S315000018D0002501905D48406B0121890208435B4960
S315000018E048635B48C0780C2188435949C8705949F8
S315000018F00798884202DC079820280CDA00BF534874
S3150000190045680321890628468843054600BF4F4897
S31500001910456000BFFEE7089C7D21C9000798484343
S3150000192002900426204670430146029800F0BCF857
S315000019300390039870430146029800F0B5F80746F5
S31500001940A74202D9381B059001E0E01B05900496DA
S3150000195005261DE0204670430146029800F0A4F8D3
S315000019600390039870430146029800F09DF80746DD
S31500001970A74202D9381B019001E0E01B01900599AE
S315000019800198884202D8019805900496701CC6B248
S31500001990202EDFDD6421204600F086F84100411844
S315000019A00598814235D90498032808D9049809284E
S315000019B005D22748C07A022108432549C87224481F
S315000019C0857A6D096D010498401EC006C00E054358
S315000019D01F488572E806C00E451C2046684301462E
S315000019E0029800F061F803901948007845096D01E6
S315000019F01F21090203980840000A28431449087069
S31500001A00039848700846C0780C2108431049C870EE
S31500001A1001E000BFFEE709B0F0BD014600BF08794E
S31500001A20202210400028FAD0C879704700BF0279FA
S31500001A3080231A40002AFAD0C171704701460879FE
S31500001A40202210407047000000B00640008004408D
S31500001A5000A0064050C3000010B50446E1B2054898
S31500001A60FFF7E4FFE0B210BD10B50248FFF7D5FF5F
S31500001A7010BD000000A0064070B504460D46204685
S31500001A80FFF7EAFF70BD10B50446FFF7EDFF10BD86
S31500001A9001460020C043704710B504462046FFF7B4
S31500001AA0DBFF10BD00BFFEE730B50B460146002048
S31500001AB02022012409E00D46D5409D4205D31D464E
S31500001AC09540491B2546954040191546521E002D46
S31500001AD0F1DC30BD70B500242546002801DA01246A
S31500001AE04042002901DA01254942FFF7DDFFAC42F9
S31500001AF000D04042002C00D0494270BDF0B51FB462
S31500001B000646002082B005464024019100901BE065
S31500001B10019922460F46304600F042F8049A059B8A
S31500001B20801A994110D310461946224600F028F82B
S31500001B30361A8F410197224601200021009F00F0AE
S31500001B401FF838184D4100902046641E0028DFDC3F
S31500001B50019B00982946324607B0F0BD064C012588
S31500001B60064E05E0E36807CC2B430C3C984710343F
S31500001B70B442F7D3FEF750FCB8230000C823000098
S31500001B8010B5202A04DB0146203A9140002010BD02
S31500001B90914020239C1A0346E3401943904010BD10
S31500001BA010B5202A04DB0846203AD040002110BD9B
S31500001BB00B46D340D0402024A21A91400843194630
S31500001BC010BD00000FB410B503A9044B044A0298D7
S31500001BD000F026F810BC08BC04B01847791A0000BB
S31500001BE02000002030B47446641E2578641CAB4285
S31500001BF004D3635D5B00E31830BC18471D46F8E765
S31500001C0002E008C8121F08C1002AFAD170477047BF
S31500001C10002001E001C1121F002AFBD1704700001D
S31500001C20FFB591B00F460546002606E025280AD0E6
S31500001C30149A139990476D1C761C28780028F5D1C4
S31500001C40304615B0F0BD002400940121F34A0294F9
S31500001C5000E004436D1C2B780846203B9840104258
S31500001C60F7D128782A280ED0022128780246303A61
S31500001C70092A15D8009A0A235A43303A80180C4389
S31500001C806D1C0090F1E701CF0090002805DA0120D5
S31500001C9040030443009840420090022004436D1C18
S31500001CA028782E2815D10420044368786D1C2A282C
S31500001CB00AD101CF6D1C02900BE002990A22514312
S31500001CC0303940186D1C02902878014630390929B0
S31500001CD0F3D928786C2810D006DC4C281AD068284E
S31500001CE00ED06A2817D104E0742813D07A2812D1AE
S31500001CF010E00120400504430CE00121090501E044
S31500001D00032109050C436978814203D101200005AE
S31500001D1024186D1C6D1C287803906E281ED00CDCD0
S31500001D20632831D004DC00288AD0582811D1B2E0CB
S31500001D3064287BD069280CD178E073282DD004DC88
S31500001D406F2870D0702804D1A7E075286CD0782849
S31500001D506BD0149A13999047761C62E06002400F8C
S31500001D60022807D003280AD0042838680AD006605B
S31500001D703F1D56E03868F11706604160F8E738689D
S31500001D800680F5E70670F3E73878694608740020A0
S31500001D90487404A80390012003E0386803900020EB
S31500001DA0C0433F1D61070FD5002101E00199491C81
S31500001DB0029A0191914213DA8142F7DB019A039963
S31500001DC0895C0029F2D10BE0002101E00199491C50
S31500001DD001918142FADB019A0399895C0029F5D1C8
S31500001DE001990098139A401A00902146149B00F01E
S31500001DF03BF901998019461807E003980399007882
S31500001E00491C0391149A139990470198401E01901A
S31500001E10401CF2D12146149B139A009800F014F945
S31500001E2086196D1C09E741E033E034E00A20002101
S31500001E30049005916002410F022905D001CFC21717
S31500001E409446032905D007E0FF1DFF08FF0003CFD6
S31500001E5006E000B2C2179446042902D140B2C11767
S31500001E608C4600226146944506DA0A460021404225
S31500001E7091418C462D2102E0210504D52B216A468D
S31500001E801176012103E0E10701D02021F7E7019156
S31500001E9054E00A200BE0102009E0102004900021F5
S31500001EA00420044308200591029003E00820002145
S31500001EB0059104906002410F022905D001CF00224E
S31500001EC09446032906D006E0FF1DFF08FF0003CF56
S31500001ED08C4603E080B2042900D1C0B200210191F2
S31500001EE021072BD50399702906D0049A1021059B4A
S31500001EF04A401A4305D00EE040216A461176012178
S31500001F0008E06146014306D030216A4611760399FE
S31500001F10517602210191049A0821059B4A401A43F1
S31500001F200CD16146014301D1610707D530216A46CC
S31500001F301176012101910299491E029103995829AE
S31500001F4004D037A103910FA90F910DE039A1F9E74C
S31500001F506146059B049AFFF7D1FD039B8C469B5C6B
S31500001F600F9A521E0F92137061460143F0D10F98DB
S31500001F7007A9081A20300390600704D50120000441
S31500001F808443029801E0012002900399884201DD12
S31500001F90401A00E0002041180290019809180098A4
S31500001FA0401A0090E00306D42146149B139A009829
S31500001FB000F05AF886190020049008E006A9085C8B
S31500001FC0149A139990470498401C761C0490019922
S31500001FD08842F3DBE0030CD52146149B139A009844
S31500001FE000F042F8861904E0149A302013999047BD
S31500001FF0761C0299481E02900029F5DC08E00F982D
S315000020000F990078491C0F91149A13999047761CE2
S315000020100399481E03900029F1DCFBE6092801001C
S315000020203031323334353637383961626364656648
S31500002030000000003031323334353637383941420A
S315000020404344454600000000F8B5044600251E46F8
S315000020501746880404D405E039462020B0476D1C95
S31500002060641EF9D52846F8BDFFB50446002581B0A3
S315000020701E46C80301D5302700E02027880404D572
S3150000208005E038460399B0476D1C641EF9D528460D
S3150000209005B0F0BD0A204C4C575520636F6E66693B
S315000020A067757265642070696E73205054433131D0
S315000020B02F493253305F5258443120746F20626585
S315000020C020616E204C4C57552077616B65757020EA
S315000020D0736F7572636520000A204C4C5755206358
S315000020E06F6E666967757265642070696E732050DD
S315000020F05443362F504442305F455854524720745B
S315000021006F20626520616E204C4C57552077616BBD
S3150000211065757020736F7572636520000A204C4CDC
S31500002120575520636F6E66696775726564207069BE
S315000021306E7320505444302F535049305F504353F0
S31500002140302F534349325F52545320746F206265D7
S3150000215020616E204C4C57552077616B6575702059
S31500002160736F7572636520000A204C4C57552063C7
S315000021706F6E666967757265642070696E7320504C
S315000021805444322F534349325F525820746F2062B1
S315000021906520616E204C4C57552077616B657570D4
S315000021A020736F7572636520000000000A204C4C96
S315000021B0575520636F6E666967757265642070692E
S315000021C06E7320505443352F535049305F53434B61
S315000021D02F493253305F52584430206973204C4C9B
S315000021E057552077616B65757020736F75726365DF
S315000021F0200000000A204C4C575520636F6E66691C
S3150000220067757265642070696E7320505443312F70
S31500002210534349315F5254532F46544D305F434820
S3150000222030206973204C4C57552077616B6575706B
S3150000223020736F7572636520000000000A204C4C05
S31500002240575520636F6E666967757265642070699D
S315000022506E7320505444362F534349305F52582FE3
S3150000226046544D305F4348362F46544D305F464CFA
S315000022705430206973204C4C57552077616B657537
S315000022807020736F75726365200000000A204C4C45
S31500002290575520636F6E666967757265642070694D
S315000022A06E7320505443332F534349315F52582F96
S315000022B046544D305F434832206973204C4C575585
S315000022C02077616B65757020736F7572636520008A
S315000022D00A204C4C575520636F6E666967757265A8
S315000022E0642070696E7320505443342F5350493024
S315000022F05F504353302F46544D305F434833206977
S3150000230073204C4C57552077616B65757020736F41
S3150000231075726365200000000A204C4C57552063F7
S315000023206F6E666967757265642070696E7320509A
S315000023305442302F493243305F53434C2F46544D5D
S31500002340315F4348302F46544D315F51445F50480A
S3150000235041206973204C4C57552077616B65757029
S3150000236020736F7572636520000000000A204C4CD4
S31500002370575520636F6E666967757265642070696C
S315000023806E7320505444342F534349305F52545394
S315000023902F46544D305F4348342F45574D5F494EC5
S315000023A0206973204C4C57552077616B65757020FA
S315000023B0736F757263652000C8230000000000205B
S315000023C028000000001C00000000000000000000C3
S315000023D000000000000000000000000000000000F7
S315000023E000000000006CDC0200000000000000009D
S70500000411E5
