:020000040000FA
:10000000F82F00205D03000091010000AF670000A1
:1000100000000000000000000000000000000000E0
:100020000000000000000000000000006D03000060
:1000300000000000000000006F03000071030000DA
:1000400077030000770300007703000077030000C8
:100050007703000077030000770300003578000085
:1000600077030000770300007703000077030000A8
:1000700077030000237D0000477D00007703000028
:100080007703000077030000770300007703000088
:100090007703000077030000770300007703000078
:1000A0007703000077030000770300007703000068
:1000B000F96700007703000077030000433D00006C
:1000C00000F002F800F054F80CA030C808382418EA
:1000D0002D18A246671EAB4654465D46AC4201D180
:1000E00000F046F87E460F3E0FCCB646012633425E
:1000F00000D0FB1AA246AB4633431847A0F50000D8
:10010000C0F500000023002400250026103A01D38A
:1001100078C1FBD8520700D330C100D50B607047BF
:1001200010B5662902D10EF01DFC10BD642902D164
:1001300007F0A2FF10BD782902D107F0D3FF10BD50
:10014000632902D109F0B0FA10BD732902D109F078
:10015000B3FA10BD002010BD1FB500F04DF904002A
:10016000002000210EF0B8FAE0601FBD10B510BDF0
:1001700009F05EFE1146FFF7EFFF03F068FE09F09D
:1001800076FE03B4FFF7F2FF03BC00F02FF9000086
:10019000134909680222114000290DD0104909684D
:1001A000490849000E4A116000BF0D490968022242
:1001B00011400029F9D10DE0002007E00949096943
:1001C00010221140102900D103E0401C064988424A
:1001D000F4DB00BF7047054805490861704700001F
:1001E000403000F000F00FF8FFFF0100130700009F
:1001F0000090044010B54948806B1F214902084314
:10020000464988634648807808210840002804D081
:100210004348807808434249887042480068424910
:1002200008603E4840680121090408433B49486092
:100230003D480468E10F091948107D21C90008F004
:100240007FF83A49086035484068032189068843A9
:10025000012189064018314948607D21C900324892
:10026000006808F06DF8324908602C48403040685A
:10027000000F411C2E48006808F058F82D4908600E
:10028000264840304068072212041040000C411CF0
:100290002848006808F04AF8274908600120400211
:1002A00026494860886003200002254948600860AC
:1002B00024498860C860E12252021C480168224833
:1002C00007F05DFDE12252021B4801681F4807F05C
:1002D000E5FC4B22D201184801681D4807F0DEFCFE
:1002E00010BDFF2001301549086108460069092149
:1002F00009040843114908611E2001218140154A63
:10030000116000BF7047052000021349C860034810
:10031000406840210843014948607047008004401C
:1003200000D0074060E2FF1F44E2FF1F58E2FF1FBA
:1003300048E2FF1F4CE2FF1F50E2FF1F0090044005
:1003400000D0044000C0044000A0064000B00640B9
:1003500000C0064000E100E000B0044009488047CA
:10036000094809480047FEE708488047FEE7FEE7DE
:10037000FEE707488047FEE706480749054A074B5E
:1003800070470000C5730000C1000000AF670000A7
:10039000F9670000E8110020E81A0020E8110020A9
:1003A00010B50446E1B2054807F09DFDE0B210BD6E
:1003B00010B5024807F08EFD10BD000000A00640F9
:1003C00070B504460D462046FFF7EAFF70BD10B534
:1003D0000446FFF7EDFF10BD01460020C043704703
:1003E00010B504462046FFF7DBFF10BD00BFFEE757
:1003F000704770477047704700487047A811002049
:10040000FFFFFFFFFFFFFFFFFFFFFFFFFEFBFFFF01
:10041000FFB581B0074614461D460A9E0AF070FAE1
:100420000020FD490860FD49FD4807F07BFF0020E2
:10043000FC4908600AF064FA38460EF0DFF80A203A
:100440000AF07EFA0D21F84807F087FC00BFF44857
:10045000029907F037FFF54908602146F04807F098
:1004600031FFF34908602946ED4807F02BFFF149B9
:100470000860EE48006800280BD1ED4800680028AD
:1004800007D108460068002803D1E3480068B0425D
:1004900001DD012000E00020E749087008460078EF
:1004A0000028D4D00AF02CFADB480068B04217DDEF
:1004B0000D21DD4807F051FC0A21DB4807F04DFC17
:1004C0001A21D94807F049FC1A21D74807F045FC02
:1004D0000D21D54807F041FC0A21D34807F03DFC27
:1004E00005B0F0BD70B504460D46204606F03AFB57
:1004F000D24908600020D24908600BE0D04800686B
:10050000205CA84201D1012070BDCD480068401C8C
:10051000CB490860CA480068C84909688842EDDDCF
:100520000020F1E700B5C7480068012802D1632028
:10053000C5490870C448007803000AF05FF9060452
:100540000F1A25303B4601204007C04988608000D3
:1005500048602020BD494039486044E00120400700
:10056000BA498860800088602020B84940394860D6
:1005700039E001204007B5494860800088602020AC
:10058000B249403948602EE001204007AF49486039
:10059000800048602020AD494039886023E0012078
:1005A0004007AA498860800048602020A749403958
:1005B000886018E001204007A449886080008860B6
:1005C0002020A249403988600DE0012040079F4962
:1005D00048608000486020209C49403948600020E5
:1005E0009949087000BF00BF00BDF8B504460E462B
:1005F00017461D460A200AF0A3F90F21284607F0E6
:1006000091FE002092490860924908601AE09048E3
:100610000068205C222808D18E480068401C8D4963
:1006200008608B4800688C4908608A480068B842B6
:1006300003DBE12080008649086085480068401C93
:1006400083490860824800686428E0DB0020804914
:100650000860804908601AE07D480068205C222814
:1006600008D17C480068401C7A49086078480068D6
:100670007A49086077480068B04203DBE1208000D7
:100680007349086072480068401C714908607048EE
:1006900000686428E0DB00206D4908600EE06F48C8
:1006A00000686B4909684018401C205C684909686B
:1006B000685467480068401C6549086066480068DF
:1006C00066490968401A401E614909688842E6DCAB
:1006D000F8BDF8B505460E4600240027002000901E
:1006E00000BF07E0285D0A2803D1B74201DA7F1C6A
:1006F0000094641C284606F035FAA042F2D800980F
:10070000F8BD70B505460C460020554908605549AE
:1007100008600EE053480068205CA84204D15048AD
:100720000068401C4E4908604E480068401C4D4916
:100730000860204606F016FA4A4909688842E9D856
:100740004748006870BD38B54748006806F00AFAA7
:10075000044621464448006807F0E4FD4348006829
:1007600006F000FA044621464048006807F0DAFD2A
:100770003E212B48FFF7B6FE3D4908700846007839
:10078000002848D00AF0BCF82449254807F0CAFDE3
:1007900038A1394806F0F6F9374806F0E3F9374949
:1007A000086000201C4908601E4908603449086040
:1007B0000BE03148324A1268815C1B4807F0CDFAE1
:1007C0002F480068401C2E4908602D4800682B49BE
:1007D00009688842EDDB0A21134807F0BEFA1A21A6
:1007E000114807F0BAFA1A210F4807F0B6FA1A2191
:1007F0000D4807F0B2FA1A210B4807F0AEFA1A2199
:10080000094807F0AAFA00BF1EA1054807F05AFDE3
:10081000154908603AE083E014E0FF1F88130000E8
:100820006CE2FF1F0CE0FF1F00B006402CE0FF1F32
:1008300030E0FF1F34E0FF1F28E0FF1F34E2FF1FFE
:1008400038E2FF1FB0E1FF1F7CE0FF1F00F10F4007
:1008500060E0FF1F68E0FF1F64E0FF1F08E0FF1F6C
:10086000FCE0FF1FF8E0FF1F44E0FF1F40E0FF1F18
:100870003CE0FF1F0A0A0000F4F5FF1F38E0FF1FED
:1008800004E0FF1F53454E44204F4B00FCA1FE489F
:1008900007F018FDFD490860FDA1FB4807F012FDB7
:1008A000FD490860FDA1F84807F00CFDFD4908600E
:1008B000F648006800280FD1F748006800280BD1DF
:1008C00008460068002807D1F7480068002803D1CF
:1008D000F6480068042897DD1A21F54807F03DFA2C
:1008E0001A21F34807F039FA1A21F14807F035FACE
:1008F0001A21EF4807F031FAEE480068012806D1C6
:10090000ED480068ED4908600020EA4908601420BD
:100910000AF016F8EA49DC4807F0D4FCE24908601E
:10092000E1480068002801D000F087FF1A21E04864
:1009300007F013FA09F0E4FF0A200AF001F81A217F
:10094000DB4807F00AFA09F0DBFF0A2009F0F8FF9C
:100950001A21D74807F001FA09F0D2FF0A2009F05E
:10096000EFFF0A221146D7480BF000FAD6A1D5486E
:1009700006F008F9642009F0E3FF09F0C1FF6421E3
:10098000D24807F0CFFCCF4806F0ECF8441C2346D1
:10099000CF4AD0A1CD4807F00BFB0520B8A3D6A2C3
:1009A000D7A10090C948FFF733FD09F0A9FF002047
:1009B000D4490860BD490860D34908600BE0C148CC
:1009C000D14A1268815CBA4807F0C7F9CE4800687E
:1009D000401CCD490860BB4806F0C4F8CA49096804
:1009E0008842ECD80A21B24807F0B7F90A21B0488A
:1009F00007F0B3F90A21AE4807F0AFF90A21AC4875
:100A000007F0ABF90A21AA4807F0A7F90A21A8487C
:100A100007F0A3F90A21A64807F09FF90A21A44884
:100A200007F09BF90A21A24807F097F90A21A0488C
:100A300007F093F90A219E4807F08FF90A219C4894
:100A400007F08BF90A219A4807F087F90A2198489C
:100A500007F083F90A21964807F07FF90A219448A4
:100A600007F07BF90A21924807F077F90A219048AC
:100A700007F073F90A218E4807F06FF90A218C48B4
:100A800007F06BF90A218A4807F067F90A218848BC
:100A900007F063F90A21864807F05FF90A218448C4
:100AA00007F05BF90A21824807F057F90A218048CC
:100AB00007F053F90A217E4807F04FF90A217C48D4
:100AC00007F04BF90A217A4807F047F90A217848DC
:100AD00007F043F90A21764807F03FF90A217448E4
:100AE00007F03BF90A21724807F037F90A217048EC
:100AF00007F033F90A216E4807F02FF90A216C48F4
:100B000007F02BF90A216A4807F027F90A216848FB
:100B100007F023F90A21664807F01FF90A21644803
:100B200007F01BF90A21624807F017F90A2160480B
:100B300007F013F90A215E4807F00FF90A215C4813
:100B400007F00BF90A215A4807F007F90A2158481B
:100B500007F003F90A21564807F0FFF80A21544824
:100B600007F0FBF80A21524807F0F7F80A2150482D
:100B700007F0F3F80A214E4807F0EFF80A214C4835
:100B800007F0EBF80A214A4807F0E7F80A2148483D
:100B900007F0E3F80A21464807F0DFF80A21444845
:100BA00007F0DBF80A21424807F0D7F800BF57A149
:100BB000354807F087FB002809D131A1324807F0FA
:100BC00081FB002803D1394800680528EFDD09F0D2
:100BD00097FE3C4805F0C6FF04462146394807F019
:100BE000A1FB09F08DFE374805F0BCFF0446214605
:100BF000344807F097FB2F480068012809D02F4898
:100C000000682D49086004202C490860012029490A
:100C1000086009F075FE09F07FF92BA1294805F05D
:100C2000B1FF09F0FBFF052015A333A239A1009005
:100C300039A00BF00BFB642009F082FE042010A306
:100C400039A234A100903DA00BF000FB09F07AFB23
:100C50001DA11C4805F096FF09F074FB1AA1194864
:100C600005F090FF09F06EFB17A1164805F08AFF0A
:100C700028A1054807F026FB3449086000A167E079
:100C80004552524F520000006CE2FF1F48E0FF1F28
:100C90004641494C000000004CE0FF1F44454143E1
:100CA0005400000050E0FF1F44E0FF1F14E0FF1F4E
:100CB00000B0064024E0FF1F20E0FF1FB8E1FF1F47
:100CC00084080000F4F5FF1F43480A00470B00208A
:100CD000BCE1FF1F0D0A41542B465357524954455E
:100CE0003D25735C4C4F472E5458542C312C2564B1
:100CF0002C31300A0A0000004552524F520D0A00B2
:100D00003E0000000CE0FF1F04E0FF1F4F4B0D0AE8
:100D1000000000004F4B00000D0A41542B43465584
:100D20004E3D300D0D0A0A004E4F5420494E53459A
:100D3000525445440D0A4F4B000000000D0A415427
:100D40002B4346554E3D310D0A000000B8E0FF1F11
:100D5000F64807F0B7FAF6490860F6480068002838
:100D60007ED1084600680028FAD1F34800680128BF
:100D700076D0642009F0E4FD09F0C2FD6421EF485B
:100D800007F0D0FAEE4805F0EDFE441C2346ED4A8C
:100D9000ED49EA4807F00CF90520EB4B543B1A46A5
:100DA0007832EAA10090E548FFF732FB09F0A8FD90
:100DB0000020E7490860E7490860E74908600BE060
:100DC000DF48E54A1268815CE44806F0C6FFE24865
:100DD0000068401CE0490860D94805F0C3FEDE49C0
:100DE00009688842ECD80A21DC4806F0B6FF0A21DF
:100DF000DA4806F0B2FF0A21D84806F0AEFF0A2111
:100E0000D64806F0AAFF0A21D44806F0A6FF0A2118
:100E1000D24806F0A2FF0A21D04806F09EFF0A2120
:100E2000CE4806F09AFF0A21CC4806F096FF0A2128
:100E3000CA4806F092FF0A21C84806F08EFF0A2130
:100E4000C64806F08AFF0A21C44806F086FF0A2138
:100E5000C24806F082FF0A21C04806F07EFF00E08B
:100E6000D2E00A21BD4806F078FF0A21BB4806F00F
:100E700074FF0A21B94806F070FF0A21B74806F04E
:100E80006CFF0A21B54806F068FF0A21B34806F056
:100E900064FF0A21B14806F060FF0A21AF4806F05E
:100EA0005CFF0A21AD4806F058FF0A21AB4806F066
:100EB00054FF0A21A94806F050FF0A21A74806F06E
:100EC0004CFF0A21A54806F048FF0A21A34806F076
:100ED00044FF0A21A14806F040FF0A219F4806F07E
:100EE0003CFF0A219D4806F038FF0A219B4806F086
:100EF00034FF0A21994806F030FF0A21974806F08E
:100F00002CFF0A21954806F028FF0A21934806F095
:100F100024FF0A21914806F020FF0A218F4806F09D
:100F20001CFF0A218D4806F018FF0A218B4806F0A5
:100F300014FF0A21894806F010FF0A21874806F0AD
:100F40000CFF0A21854806F008FF0A21834806F0B5
:100F500004FF0A21814806F000FF0A217F4806F0BD
:100F6000FCFE0A217D4806F0F8FE0A217B4806F0C7
:100F7000F4FE0A21794806F0F0FE0A21774806F0CF
:100F8000ECFE0A21754806F0E8FE0A21734806F0D7
:100F9000E4FE0A21714806F0E0FE0A216F4806F0DF
:100FA000DCFE0A216D4806F0D8FE0A216B4806F0E7
:100FB000D4FE00BF644938315C4807F083F900284B
:100FC0000AD161495439594807F07CF9002803D106
:100FD000604800680528EDDD09F092FC584805F0EE
:100FE000C1FD04462146564807F09CF909F088FCEB
:100FF00020205B498860642009F0A2FC2020584929
:101000004860642009F09CFC042056A34E4A243218
:1010100056A1009056A00BF019F909F093F94A492E
:101020000C39474805F0AEFD6421444807F07AF9D1
:10103000534A54A1414806F0BBFF5748006849A3F2
:10104000414A243249A100903C480BF0FFF809F0D6
:10105000E5FD04203C4B383B1A465C3243A100902E
:101060004EA00BF0F3F809F06DF937490C3934480C
:1010700005F088FD09F066F933490C39304805F070
:1010800081FD09F0CBFD09F05DF92F490C392C48A1
:1010900005F078FD09F034FC44A00DF0AFFA09F03A
:1010A0002FFC142009F04CFC09F0B8FD434B444AD6
:1010B00044A1224806F07CFF3748006829A3224A51
:1010C000543A48A100901D480BF0C0F809F018FCF4
:1010D0003148006845A31C4A543A1CA1009047A01F
:1010E0000BF0B4F809F00CFC3E211048FFF7FAF9B8
:1010F0004649087008460078002816D009F000FC20
:1011000043490A4807F00EF927A10D4805F03AFDBA
:101110000B4805F027FD3F49086000200D49086095
:101120000B4908600C49086082E024E26CE2FF1F72
:1011300000E0FF1FB8E0FF1FB0E1FF1F470B0020DA
:10114000F4F5FF1FBCE1FF1FD40C00003E000000BF
:101150000CE0FF1F14E0FF1F04E0FF1F00B006407B
:1011600080F00F404552524F523A00004F4B000062
:101170000D0A41542B434950534855540D0A000061
:10118000C1E1FF1F0D0A41542B435354543D222506
:1011900073220D0A00000000B4E1FF1F0D0A415444
:1011A0002B43494943520D0D0A0000000A41542BBC
:1011B00043494653520D0D0A000000003D0B00202C
:1011C000D90A00200D0A41542B434950535441522F
:1011D000543D22544350222C222573222C22257365
:1011E000220D0A00434F4E4E45435400434F4E4E8E
:1011F000454354204641494C000000000D0A41542B
:101200002B43495053454E440D0A00003CE0FF1F5C
:101210008813000038E0FF1FFD48FE4A1268815C19
:10122000FD4806F09AFDFB480068401CF94908603B
:10123000F8480068F94909688842EDDB0A21F64858
:1012400006F08BFD1A21F44806F087FD1A21F248BA
:1012500006F083FD1A21F04806F07FFD00BFF0493B
:10126000F04807F02FF8F0490860F049ED4807F022
:1012700029F8EF490860EF49EA4807F023F8EE49FA
:101280000860EA491C31E74807F01CF8EB490860A0
:10129000E748006800280FD1E748006800280BD114
:1012A00008460068002807D1DF480068002803D1FD
:1012B000E34800680428D2DD1A21D74806F04DFD26
:1012C0001A21D54806F049FD1A21D34806F045FDFC
:1012D0001A21D14806F041FD142009F031FBD04914
:1012E000D04806F0EFFFD74908600846006800289C
:1012F0007ED1642009F024FB09F002FB6421D2486E
:1013000007F010F8C24805F02DFC441C2346CF4AD4
:10131000C6495431CC4806F04BFE0520C34B1A4653
:101320007832CBA10090C848FFF772F809F0E8FACC
:101330000020C8490860C2490860B64908600BE04F
:10134000B348B44A1268815CB34806F006FDB14860
:101350000068401CAF490860AD4805F003FCAD498A
:1013600009688842ECD80A21AB4806F0F6FC0A214D
:10137000A94806F0F2FC0A21A74806F0EEFC0A2173
:10138000A54806F0EAFC0A21A34806F0E6FC0A217B
:10139000A14806F0E2FC0A219F4806F0DEFC0A2183
:1013A0009D4806F0DAFC0A219B4806F0D6FC0A218B
:1013B000994806F0D2FC0A21974806F0CEFC0A2193
:1013C000954806F0CAFC0A21934806F0C6FC0A219B
:1013D000914806F0C2FC0A218F4806F0BEFC0A21A3
:1013E0008D4806F0BAFC0A218B4806F0B6FC00E0F6
:1013F000BEE00A21884806F0B0FC0A21864806F0C3
:10140000ACFC0A21844806F0A8FC0A21824806F0B8
:10141000A4FC0A21804806F0A0FC0A217E4806F0C0
:101420009CFC0A217C4806F098FC0A217A4806F0C8
:1014300094FC0A21784806F090FC0A21764806F0D0
:101440008CFC0A21744806F088FC0A21724806F0D8
:1014500084FC0A21704806F080FC0A216E4806F0E0
:101460007CFC0A216C4806F078FC0A216A4806F0E8
:1014700074FC0A21684806F070FC0A21664806F0F0
:101480006CFC0A21644806F068FC0A21624806F0F8
:1014900064FC0A21604806F060FC0A215E4806F000
:1014A0005CFC0A215C4806F058FC0A215A4806F008
:1014B00054FC0A21584806F050FC0A21564806F010
:1014C0004CFC0A21544806F048FC0A21524806F018
:1014D00044FC0A21504806F040FC0A214E4806F020
:1014E0003CFC0A214C4806F038FC0A214A4806F028
:1014F00034FC0A21484806F030FC0A21464806F030
:101500002CFC0A21444806F028FC0A21424806F037
:1015100024FC0A21404806F020FC0A213E4806F03F
:101520001CFC0A213C4806F018FC0A213A4806F047
:1015300014FC00BF3D498C313A4806F0C3FE002838
:1015400009D13A49374806F0BDFE002803D13C488E
:1015500000680528EEDD09F0D3F92D4805F002FBFF
:10156000044621462A4806F0DDFE09F0C9F966E185
:101570000AF05AFF63E1642009F0E2F909F0C0F9CA
:101580006421314806F0CEFE214805F0EBFA441CF8
:1015900023462E4A254954312B4806F009FD0520E3
:1015A000224B1A4678322AA100902748FEF730FFD6
:1015B00009F0A6F90020274908602149086015496B
:1015C00008600BE01248134A1268815C124806F06A
:1015D000C4FB10480068401C0E4908600C4805F028
:1015E000C1FA0C4909688842ECD80A210A4806F079
:1015F000B4FB0A21084806F0B0FB0A21064806F0B1
:10160000ACFB0A21044806F0A8FB0A21024823E0AB
:10161000F4F5FF1F04E0FF1F00B0064038E0FF1F95
:10162000840800006CE2FF1F44E0FF1F800C0000F4
:1016300048E0FF1FF41100004CE0FF1F50E0FF1FC7
:1016400014E0FF1F40E0FF1F470B0020BCE1FF1F1D
:101650003E0000000CE0FF1F06F07FFB0A21FE4861
:1016600006F07BFB0A21FC4806F077FB0A21FA48CA
:1016700006F073FB0A21F84806F06FFB0A21F648D2
:1016800006F06BFB0A21F44806F067FB0A21F248DA
:1016900006F063FB0A21F04806F05FFB0A21EE48E2
:1016A00006F05BFB0A21EC4806F057FB0A21EA48EA
:1016B00006F053FB0A21E84806F04FFB0A21E648F2
:1016C00006F04BFB0A21E44806F047FB0A21E248FA
:1016D00006F043FB0A21E04806F03FFB0A21DE4802
:1016E00006F03BFB0A21DC4806F037FB0A21DA480A
:1016F00006F033FB0A21D84806F02FFB0A21D64812
:1017000006F02BFB0A21D44806F027FB0A21D24819
:1017100006F023FB0A21D04806F01FFB0A21CE4821
:1017200006F01BFB0A21CC4806F017FB0A21CA4829
:1017300006F013FB0A21C84806F00FFB0A21C64831
:1017400006F00BFB0A21C44806F007FB0A21C24839
:1017500006F003FB0A21C04806F0FFFA0A21BE4842
:1017600006F0FBFA0A21BC4806F0F7FA0A21BA484B
:1017700006F0F3FA0A21B84806F0EFFA0A21B64853
:1017800006F0EBFA0A21B44806F0E7FA0A21B2485B
:1017900006F0E3FA0A21B04806F0DFFA0A21AE4863
:1017A00006F0DBFA0A21AC4806F0D7FA0A21AA486B
:1017B00006F0D3FA0A21A84806F0CFFA0A21A64873
:1017C00006F0CBFA0A21A44806F0C7FA0A21A2487B
:1017D00006F0C3FA0A21A04806F0BFFA0A219E4883
:1017E00006F0BBFA0A219C4806F0B7FA0A219A488B
:1017F00006F0B3FA0A21984806F0AFFA00BF9749FD
:10180000974806F05FFD00280AD194498C39944826
:1018100006F058FD002803D1924800680528EEDD47
:1018200009F06EF8904805F09DF9044621468E486F
:1018300006F078FD09F064F801E00AF0F5FD8A4849
:1018400005F090F904462146874806F06BFD1A2101
:10185000814806F082FA38BD38B58448006805F042
:1018600081F9044621468148006806F05BFD804806
:10187000006805F077F9044621467D48006806F0C7
:1018800051FD3E217648FEF72DFE7A490870084644
:10189000007800287ED009F033F87749704806F0C8
:1018A00041FD76A1704805F06DF96F4805F05AF9D1
:1018B0007349086000206B490860724908607249EA
:1018C00008600BE06848704A1268815C624806F064
:1018D00044FA6D480068401C6B4908606A4800681B
:1018E000674909688842EDDB1A215B4806F035FA42
:1018F0001A21594806F031FA00BF6449584806F0E9
:10190000E1FC5A49086055498C39554806F0DAFC23
:101910005F4908605F49524806F0D4FC5E490860A0
:101920004E4970394E4806F0CDFC5C490860584875
:10193000006800280FD15848006800280BD10846DD
:101940000068002807D149480068002803D14548AD
:1019500000680528D1DD1A213F4806F0FEF91A215A
:101960003D4806F0FAF91A213B4806F0F6F91A212B
:10197000394806F0F2F94A480068012806D149487A
:10198000006849490860002045490860142008F0B3
:10199000D7FF00E005E03D49314806F093FC3349AC
:1019A000086032480068002801D000F02DFF1A219D
:1019B000294806F0D2F908F0A3FF0A2008F0C0FF7A
:1019C0001A21254806F0C9F908F09AFF0A2008F004
:1019D000B7FF1A21204806F0C0F908F091FF0A204D
:1019E00008F0AEFF642008F0ABFF08F089FF642127
:1019F0002E4806F097FC1C4805F0B4F8441C23461A
:101A00002B4A16493839294806F0D2FA0520134BDB
:101A10008C3B1A46783227A100902448FEF7F8FC48
:101A200008F06EFF0020174908600E49086016494B
:101A300008600BE00C48144A1268815C064806F006
:101A40008CF911480068401C0F490860064805F0F1
:101A500089F80D4909682FE000B006400C0D000020
:101A60006CE2FF1F14E0FF1FF4F5FF1F44E0FF1FAF
:101A700040E0FF1F3CE0FF1F881300000A0A00003F
:101A800038E0FF1F0CE0FF1F04E0FF1F8408000088
:101A900048E0FF1FF41100004CE0FF1F50E0FF1F63
:101AA00024E0FF1F20E0FF1FB8E1FF1F470B0020CD
:101AB000BCE1FF1F3E0000008842BBD80A21FE485F
:101AC00006F04BF90A21FC4806F047F90A21FA48CA
:101AD00006F043F90A21F84806F03FF90A21F648D2
:101AE00006F03BF90A21F44806F037F90A21F248DA
:101AF00006F033F90A21F04806F02FF90A21EE48E2
:101B000006F02BF90A21EC4806F027F90A21EA48E9
:101B100006F023F90A21E84806F01FF90A21E648F1
:101B200006F01BF90A21E44806F017F90A21E248F9
:101B300006F013F90A21E04806F00FF90A21DE4801
:101B400006F00BF90A21DC4806F007F90A21DA4809
:101B500006F003F90A21D84806F0FFF80A21D64812
:101B600006F0FBF80A21D44806F0F7F80A21D2481B
:101B700006F0F3F80A21D04806F0EFF80A21CE4823
:101B800006F0EBF80A21CC4806F0E7F80A21CA482B
:101B900006F0E3F80A21C84806F0DFF80A21C64833
:101BA00006F0DBF80A21C44806F0D7F80A21C2483B
:101BB00006F0D3F80A21C04806F0CFF80A21BE4843
:101BC00006F0CBF80A21BC4806F0C7F80A21BA484B
:101BD00006F0C3F80A21B84806F0BFF80A21B64853
:101BE00006F0BBF80A21B44806F0B7F80A21B2485B
:101BF00006F0B3F80A21B04806F0AFF80A21AE4863
:101C000006F0ABF80A21AC4806F0A7F80A21AA486A
:101C100006F0A3F80A21A84806F09FF80A21A64872
:101C200006F09BF80A21A44806F097F80A21A2487A
:101C300006F093F80A21A04806F08FF80A219E4882
:101C400006F08BF80A219C4806F087F80A219A488A
:101C500006F083F80A21984806F07FF80A21964892
:101C600006F07BF80A21944806F077F80A2192489A
:101C700006F073F80A21904806F06FF80A218E48A2
:101C800006F06BF800BF8D498D4806F01BFB00285D
:101C90000AD18A498C398A4806F014FB002803D1FE
:101CA000884800680528EEDD08F02AFE864804F022
:101CB00059FF04462146844806F034FB08F020FE14
:101CC000814804F04FFF044621467F4806F02AFB76
:101CD0007E480068012809D07D4800687D49086079
:101CE00004207B49086001207849086008F008FE5C
:101CF00008F012F971494439734804F043FF08F0C1
:101D00008DFF05206D4B8C3B1A46783272A10090F6
:101D1000104620300AF09AFA642008F011FE0420E0
:101D2000664B8C3B1A46A8326BA1009010461430CB
:101D30000AF08CFA08F006FB60494439624804F066
:101D400021FF08F0FFFA5D4944395F4804F01AFFAB
:101D500008F0F8FA594944395B4804F013FF5EA1D2
:101D6000574806F0AFFA5D49086054498C39544829
:101D700006F0A8FA5A4908605848006800287DD142
:101D8000084600680028FAD156480068012875D036
:101D9000642008F0D5FD08F0B3FD6421524806F038
:101DA000C1FA494804F0DEFE441C23464F4A434929
:101DB00038394D4806F0FCF80520404B8C3B1A465C
:101DC00078324BA100904848FEF722FB08F098FDBE
:101DD0000020484908603B490860474908600BE01B
:101DE0003948454A1268815C334805F0B6FF4248DD
:101DF0000068401C40490860334804F0B3FE3E4987
:101E000009688842ECD80A212B4805F0A6FF0A2170
:101E1000294805F0A2FF0A21274805F09EFF0A2164
:101E2000254805F09AFF0A21234805F096FF0A216C
:101E3000214805F092FF0A211F4805F08EFF0A2174
:101E40001D4805F08AFF0A211B4805F086FF0A217C
:101E5000194805F082FF0A21174805F07EFF0A2184
:101E6000154805F07AFF0A21134805F076FF0A218C
:101E7000114805F072FF0A210F4800E0F6E005F076
:101E80006CFF0A210C4805F068FF0A210A4805F09A
:101E900064FF0A21084805F060FF0A21064805F0A2
:101EA0005CFF0A21044805F058FF0A21024805F0AA
:101EB00054FF0A21004821E000B006400C0D00004C
:101EC0006CE2FF1F14E0FF1FF4F5FF1F24E0FF1F6B
:101ED000B8E1FF1F20E0FF1F4F4B0000B8E0FF1FDD
:101EE00000E0FF1FB0E1FF1F470B0020BCE1FF1F18
:101EF0003E0000000CE0FF1F04E0FF1F05F02DFF77
:101F00000A21FE4805F029FF0A21FC4805F025FFBB
:101F10000A21FA4805F021FF0A21F84805F01DFFC3
:101F20000A21F64805F019FF0A21F44805F015FFCB
:101F30000A21F24805F011FF0A21F04805F00DFFD3
:101F40000A21EE4805F009FF0A21EC4805F005FFDB
:101F50000A21EA4805F001FF0A21E84805F0FDFEE4
:101F60000A21E64805F0F9FE0A21E44805F0F5FEED
:101F70000A21E24805F0F1FE0A21E04805F0EDFEF5
:101F80000A21DE4805F0E9FE0A21DC4805F0E5FEFD
:101F90000A21DA4805F0E1FE0A21D84805F0DDFE05
:101FA0000A21D64805F0D9FE0A21D44805F0D5FE0D
:101FB0000A21D24805F0D1FE0A21D04805F0CDFE15
:101FC0000A21CE4805F0C9FE0A21CC4805F0C5FE1D
:101FD0000A21CA4805F0C1FE0A21C84805F0BDFE25
:101FE0000A21C64805F0B9FE0A21C44805F0B5FE2D
:101FF0000A21C24805F0B1FE0A21C04805F0ADFE35
:102000000A21BE4805F0A9FE0A21BC4805F0A5FE3C
:102010000A21BA4805F0A1FE00BFB949B94806F047
:1020200051F900280AD1B6498C39B64806F04AF968
:10203000002803D1B44800680528EEDD08F060FCF4
:10204000B24804F08FFD04462146B04806F06AF914
:1020500008F056FC2020AE498860642008F070FC2F
:102060002020AB494860642008F06AFC0420A94B9A
:10207000A34A143AA8A1009018460C300AF0E6F8DA
:1020800008F060F99E494439A04804F07BFD6421C2
:10209000A24806F047F9A24A9E4920319F4805F020
:1020A00087FFA04800689B4B954A143A9AA100907C
:1020B0009A480AF0CBF808F0B1FD0420904B703B31
:1020C0001A465C3294A10090924838300AF0BEF86B
:1020D00008F038F98A4944398C4804F053FD08F077
:1020E00031F987494439894804F04CFD08F096FDE0
:1020F00008F028F982494439844804F043FD08F087
:10210000FFFB844848300CF079FA08F0F9FB142002
:1021100008F016FC08F082FD834B844A7D4960314B
:102120007E4805F045FF7F4800687A4B744A8C3A38
:1021300019468031009079480AF088F808F0E0FBF1
:1021400078480068734B88336D4A8C3A78A10090C8
:10215000184610300AF07AF808F0D2FB3E216948A0
:10216000FEF7C0F9734908700846007800287DD052
:1021700008F0C6FB7049634806F0D4F86FA16348C5
:1021800004F000FD614804F0EDFC6D49086000209A
:102190005D4908606B4908606B4908600BE05B486B
:1021A000694A1268815C554805F0D7FD66480068A9
:1021B000401C6549086064480068614909688842B4
:1021C000EDDB1A214D4805F0C8FD1A214B4805F0FA
:1021D000C4FD00BF5D494B4806F074F85C490860D7
:1021E00047498C39474806F06DF85A490860494913
:1021F0009031444806F066F8574908604049703904
:10220000404806F05FF855490860524800680028C9
:102210000FD15148006800280BD1084600680028FB
:1022200007D14B480068002803D1374800680528CB
:10223000D0DD1A21314805F090FD1A212F4805F014
:102240008CFD1A212D4805F088FD1A212B4805F038
:1022500084FD142008F074FB3C492A4806F032F84B
:102260003F49086008460068002800E079E17BD11A
:10227000642008F065FB08F043FB6421274806F062
:1022800051F8224804F06EFC441C2346354A1C4990
:102290003839224805F08CFE0520194B8C3B1A4634
:1022A000783223A100901D48FEF7B2F808F028FB11
:1022B00000202449086014490860234908600BE0A5
:1022C0001248214A1268815C0C4805F046FD1E4800
:1022D0000068401C1C4908600C4804F043FC1A4983
:1022E00009688842ECD80A21044805F036FD0A2125
:1022F000024805F032FD0A21004836E000B00640F1
:102300000C0D00006CE2FF1F14E0FF1FF4F5FF1F2F
:1023100080F00F40641100004F4B0000470B00207D
:10232000C1E1FF1FB4E1FF1F3D0B0020D90A0020CF
:102330003E0000003CE0FF1F881300000A00000080
:1023400038E0FF1F0CE0FF1F04E0FF1F84080000BF
:1023500044E0FF1F48E0FF1F4CE0FF1F50E0FF1F5D
:1023600040E0FF1FBCE1FF1FF8E005F0F6FC0A218A
:10237000FE4805F0F2FC0A21FC4805F0EEFC0A21BB
:10238000FA4805F0EAFC0A21F84805F0E6FC0A21C3
:10239000F64805F0E2FC0A21F44805F0DEFC0A21CB
:1023A000F24805F0DAFC0A21F04805F0D6FC0A21D3
:1023B000EE4805F0D2FC0A21EC4805F0CEFC0A21DB
:1023C000EA4805F0CAFC0A21E84805F0C6FC0A21E3
:1023D000E64805F0C2FC0A21E44805F0BEFC0A21EB
:1023E000E24805F0BAFC0A21E04805F0B6FC0A21F3
:1023F000DE4805F0B2FC0A21DC4805F0AEFC0A21FB
:10240000DA4805F0AAFC0A21D84805F0A6FC0A2102
:10241000D64805F0A2FC0A21D44805F09EFC0A210A
:10242000D24805F09AFC0A21D04805F096FC0A2112
:10243000CE4805F092FC0A21CC4805F08EFC0A211A
:10244000CA4805F08AFC0A21C84805F086FC0A2122
:10245000C64805F082FC0A21C44805F07EFC0A212A
:10246000C24805F07AFC0A21C04805F076FC0A2132
:10247000BE4805F072FC0A21BC4805F06EFC0A213A
:10248000BA4805F06AFC0A21B84805F066FC0A2142
:10249000B64805F062FC0A21B44805F05EFC0A214A
:1024A000B24805F05AFC0A21B04805F056FC0A2152
:1024B000AE4805F052FC0A21AC4805F04EFC0A215A
:1024C000AA4805F04AFC0A21A84805F046FC0A2162
:1024D000A64805F042FC0A21A44805F03EFC0A216A
:1024E000A24805F03AFC0A21A04805F036FC0A2172
:1024F0009E4805F032FC0A219C4805F02EFC0A217A
:102500009A4805F02AFC0A21984805F026FC0A2181
:10251000964805F022FC0A21944805F01EFC00BFF5
:102520009349944805F0CEFE00280AD190498C3991
:10253000904805F0C7FE002803D18F4800680528A1
:10254000EEDD08F0DDF98D4804F00CFB0446214671
:102550008A4805F0E7FE08F0D3F957E109F064FF77
:1025600054E1642008F0ECF908F0CAF964218448C9
:1025700005F0D8FE814804F0F5FA441C2346814A50
:102580007B4938397E4805F013FD0520784B8C3B9C
:102590001A4678327CA100907948FDF739FF08F09F
:1025A000AFF90020794908607349086078490860EC
:1025B0000BE07248764A1268815C6C4805F0CDFBEE
:1025C00073480068401C724908606C4804F0CAFAFD
:1025D0006F4909688842ECD80A21644805F0BDFBC0
:1025E0000A21624805F0B9FB0A21604805F0B5FBF5
:1025F0000A215E4805F0B1FB0A215C4805F0ADFBFD
:102600000A215A4805F0A9FB0A21584805F0A5FB04
:102610000A21564805F0A1FB0A21544805F09DFB0C
:102620000A21524805F099FB0A21504805F095FB14
:102630000A214E4805F091FB0A214C4805F08DFB1C
:102640000A214A4805F089FB0A21484805F085FB24
:102650000A21464805F081FB0A21444805F07DFB2C
:102660000A21424805F079FB0A21404805F075FB34
:102670000A213E4805F071FB0A213C4805F06DFB3C
:102680000A213A4805F069FB0A21384805F065FB44
:102690000A21364805F061FB0A21344805F05DFB4C
:1026A0000A21324805F059FB0A21304805F055FB54
:1026B0000A212E4805F051FB0A212C4805F04DFB5C
:1026C0000A212A4805F049FB0A21284805F045FB64
:1026D0000A21264805F041FB0A21244805F03DFB6C
:1026E0000A21224805F039FB0A21204805F035FB74
:1026F0000A211E4805F031FB0A211C4805F02DFB7C
:102700000A211A4805F029FB0A21184805F025FB83
:102710000A21164805F021FB0A21144805F01DFB8B
:102720000A21124805F019FB0A21104805F015FB93
:102730000A210E4805F011FB0A210C4805F00DFB9B
:102740000A210A4805F009FB0A21084805F005FBA3
:102750000A21064805F001FB0A21044805F0FDFAAC
:102760000A21024805F0F9FA0A2113E000B00640F8
:102770000C0D00006CE2FF1F14E0FF1FF4F5FF1FBB
:10278000470B0020BCE1FF1F3E0000000CE0FF1FD4
:1027900004E0FF1FFE4805F0E0FA0A21FC4805F0BE
:1027A000DCFA0A21FA4805F0D8FA0A21F84805F0BF
:1027B000D4FA0A21F64805F0D0FA0A21F44805F0C7
:1027C000CCFA0A21F24805F0C8FA00BFF149F248F4
:1027D00005F078FD00280AD1EE498C39EE4805F065
:1027E00071FD002803D1ED4800680528EEDD08F0F2
:1027F00087F8EB4804F0B6F904462146E84805F0AE
:1028000091FD08F07DF801E009F00EFEE44804F0C7
:10281000A9F904462146E24805F084FD1A21DC4866
:1028200005F09BFA38BD38B5DE48006804F09AF927
:1028300004462146DB48006805F074FDDA4800686C
:1028400004F090F904462146D748006805F06AFD77
:102850003E21D148FDF746FED4490870084600786D
:1028600000287CD008F04CF8D149CB4805F05AFD3F
:10287000D0A1CB4804F086F9C94804F073F9CE49D9
:1028800008600020C5490860CC490860CC49086050
:102890000BE0C348CA4A1268815CBD4805F05DFA86
:1028A000C7480068401CC6490860C5480068C2495E
:1028B00009688842EDDB1A21B54805F04EFA00BFE1
:1028C000C049B54805F0FEFCB6490860B1498C39ED
:1028D000B14805F0F7FCBC490860BC49AE4805F0BA
:1028E000F1FCBB490860AB497039AB4805F0EAFC24
:1028F000B8490860B448006800280FD1B44800689F
:1029000000280BD108460068002807D1A5480068B8
:10291000002803D1A14800680428D1DD1A219C4871
:1029200005F01BFA1A219A4805F017FA1A2198485F
:1029300005F013FA1A21964805F00FFAA648006828
:10294000012806D1A5480068A54908600020A249D1
:102950000860322007F0F4FF9A498F4800E003E056
:1029600005F0B0FC8F4908608E480068002801D04F
:1029700000F035FF1A21864805F0EFF907F0C0FF97
:102980000A2007F0DDFF1A21814805F0E6F907F07B
:10299000B7FF0A2007F0D4FF1A217D4805F0DDF9C2
:1029A00007F0AEFF0A2007F0CBFF642007F0C8FF56
:1029B00007F0A6FF64218B4805F0B4FC784804F0CA
:1029C000D1F8441C2346884A72493839854805F0B5
:1029D000EFFA05206F4B8C3B1A46783283A10090AA
:1029E0008048FDF715FD07F08BFF00207349086054
:1029F0006A490860724908600BE06948704A1268C9
:102A0000815C634805F0A9F96D480068401C6C4979
:102A10000860634804F0A6F8694909688842ECD860
:102A20000A215B4805F099F90A21594805F095F902
:102A30000A21574805F091F90A21554805F08DF90A
:102A40000A21534805F089F90A21514805F085F912
:102A50000A214F4805F081F90A214D4805F07DF91A
:102A60000A214B4805F079F90A21494805F075F922
:102A70000A21474805F071F90A21454805F06DF92A
:102A80000A21434805F069F90A21414805F065F932
:102A90000A213F4805F061F90A213D4805F05DF93A
:102AA0000A213B4805F059F90A21394805F055F942
:102AB0000A21374805F051F90A21354805F04DF94A
:102AC0000A21334805F049F90A21314805F045F952
:102AD0000A212F4805F041F90A212D4805F03DF95A
:102AE0000A212B4805F039F90A21294805F035F962
:102AF0000A21274805F031F90A21254805F02DF96A
:102B00000A21234805F029F90A21214805F025F971
:102B10000A211F4805F021F90A211D4805F01DF979
:102B20000A211B4805F019F90A21194805F015F981
:102B30000A21174805F011F90A21154805F00DF989
:102B40000A21134805F009F90A21114805F005F991
:102B50000A210F4805F001F90A210D4805F0FDF89A
:102B60000A210B4805F0F9F80A21094805F0F5F8A3
:102B70000A21074805F0F1F80A21054805F0EDF8AB
:102B80000A21034805F0E9F80A21014830E0000075
:102B900000B006400C0D00006CE2FF1F14E0FF1FA8
:102BA000F4F5FF1F44E0FF1F40E0FF1F3CE0FF1F64
:102BB000881300000A00000038E0FF1F0CE0FF1F30
:102BC00004E0FF1F8408000048E0FF1FF41100002C
:102BD0004CE0FF1F50E0FF1F24E0FF1F20E0FF1F1D
:102BE000B8E1FF1F470B0020BCE1FF1F3E000000C3
:102BF00005F0B3F80A21FE4805F0AFF80A21FC48B9
:102C000005F0ABF80A21FA4805F0A7F80A21F848C0
:102C100005F0A3F80A21F64805F09FF80A21F448C8
:102C200005F09BF80A21F24805F097F80A21F048D0
:102C300005F093F80A21EE4805F08FF80A21EC48D8
:102C400005F08BF80A21EA4805F087F800BFE9494A
:102C5000E94805F037FB00280AD1E6498C39E648F7
:102C600005F030FB002803D1E44800680528EEDDBC
:102C700007F046FEE24803F075FF04462146E048AF
:102C800005F050FB07F03CFEDD4803F06BFF044607
:102C90002146DB4805F046FB07F03EF9D5494439AB
:102CA000D74803F06FFFD7480068012809D0D648FD
:102CB0000068D64908600420D34908600120D14942
:102CC000086007F01DFE07F0A9FF0520C94B8C3BEB
:102CD0001A467832CEA100901046203009F0B6FA9C
:102CE000642007F02DFE0420C24B8C3B1A46A8320C
:102CF000C7A100901046143009F0A8FA07F022FB93
:102D0000BC494439BE4803F03DFF07F01BFBB949FD
:102D10004439BB4803F036FF07F014FBB54944398A
:102D2000B74803F02FFFBAA1B34805F0CBFAB94971
:102D30000860B0498C39B04805F0C4FAB64908605B
:102D4000B448006800287DD1084600680028FAD100
:102D5000B2480068012875D0642007F0F1FD07F043
:102D6000CFFD6421AE4805F0DDFAA54803F0FAFE78
:102D7000441C2346AB4A9F493839A94805F018F945
:102D800005209C4B8C3B1A467832A7A10090A448A2
:102D9000FDF73EFB07F0B4FD0020A4490860974909
:102DA0000860A34908600BE09548A14A1268815C5D
:102DB0008F4804F0D2FF9E480068401C9C49086080
:102DC0008F4803F0CFFE9A4909688842ECD80A215F
:102DD000874804F0C2FF0A21854804F0BEFF0A219B
:102DE000834804F0BAFF0A21814804F0B6FF0A21A3
:102DF0007F4804F0B2FF0A217D4804F0AEFF0A21AB
:102E00007B4804F0AAFF0A21794804F0A6FF0A21B2
:102E1000774804F0A2FF0A21754804F09EFF0A21BA
:102E2000734804F09AFF0A21714804F096FF0A21C2
:102E30006F4804F092FF0A216D4804F08EFF0A21CA
:102E40006B4800E0D3E004F088FF0A21684804F0F2
:102E500084FF0A21664804F080FF0A21644804F0D8
:102E60007CFF0A21624804F078FF0A21604804F0E0
:102E700074FF0A215E4804F070FF0A215C4804F0E8
:102E80006CFF0A215A4804F068FF0A21584804F0F0
:102E900064FF0A21564804F060FF0A21544804F0F8
:102EA0005CFF0A21524804F058FF0A21504804F000
:102EB00054FF0A214E4804F050FF0A214C4804F008
:102EC0004CFF0A214A4804F048FF0A21484804F010
:102ED00044FF0A21464804F040FF0A21444804F018
:102EE0003CFF0A21424804F038FF0A21404804F020
:102EF00034FF0A213E4804F030FF0A213C4804F028
:102F00002CFF0A213A4804F028FF0A21384804F02F
:102F100024FF0A21364804F020FF0A21344804F037
:102F20001CFF0A21324804F018FF0A21304804F03F
:102F300014FF0A212E4804F010FF0A212C4804F047
:102F40000CFF0A212A4804F008FF0A21284804F04F
:102F500004FF0A21264804F000FF0A21244804F057
:102F6000FCFE0A21224804F0F8FE0A21204804F061
:102F7000F4FE0A211E4804F0F0FE0A211C4804F069
:102F8000ECFE0A211A4804F0E8FE0A21184804F071
:102F9000E4FE0A21164804F0E0FE00BF1549164879
:102FA00005F090F900280AD112498C39124805F031
:102FB00089F9002803D1114800680528EEDD07F0E3
:102FC0009FFC0F4803F0CEFD044621460C4805F057
:102FD000A9F907F095FC202016498860642007F0C5
:102FE000AFFC202013494860642007F0A9FC23E0CF
:102FF00000B006400C0D00006CE2FF1F14E0FF1F44
:10300000F4F5FF1F24E0FF1FB8E1FF1F20E0FF1FC2
:103010004F4B0000B8E0FF1F00E0FF1FB0E1FF1FB3
:10302000470B0020BCE1FF1F3E0000000CE0FF1F2B
:1030300004E0FF1F80F00F400420FD4BFD4AFEA17D
:10304000009018460C3009F001F907F07BF9F949B6
:103050003039FA4803F096FD6421F94805F062F929
:10306000F84AF3492031F64804F0A2FFF648006818
:10307000EF4BF04AF0A10090F14809F0E7F807F0B3
:10308000CDFD0420EB4B5C3BEA4AEBA10090E84805
:10309000383009F0DBF807F055F9E6493039E748F0
:1030A00003F070FD07F04EF9E2493039E34803F0D0
:1030B00069FD07F0B3FD07F045F9DE493039DF4817
:1030C00003F060FD07F01CFCD94848300BF096FA7D
:1030D00007F016FC142007F033FC07F09FFDDB4BD4
:1030E000DB4AD3496031D64804F062FFD648006815
:1030F000CF4BD04A783A194680310090D04809F039
:10310000A5F807F0FDFBD0480068C94B8833C94AD1
:10311000783AD0A100901846103009F097F807F0DF
:10312000EFFB3E21CC48FDF7DDF9CC49087008469D
:10313000007800287ED007F0E3FBC949C64805F0B7
:10314000F1F8C8A1BD4803F01DFDBC4803F00AFD1D
:10315000C54908600020C5490860C5490860C549DF
:1031600008600BE0B548C34A1268815CC24804F0AD
:10317000F4FDC0480068401CBE490860BD480068B6
:10318000B94909688842EDDB1A21BB4804F0E5FD26
:1031900000BFBA49B04805F095F8B9490860A5499B
:1031A0007839AD4805F08EF8B6490860A0499031ED
:1031B000A94805F087F8B44908609E495C39A648DB
:1031C00005F080F8B1490860AE48006800280FD1CA
:1031D000AD48006800280BD108460068002807D1D8
:1031E000A7480068002803D1A04800680428D0DD63
:1031F0000A2007F0A5FB07F083FB1A219E4804F084
:10320000ACFD0A2007F09CFB1A219B4804F0A5FDA9
:103210001A21994804F0A1FD1A21974804F09DFD58
:103220001A21954804F099FD07F06AFB0A2007F07F
:1032300087FB00E095E11A218F4804F08EFD07F02E
:103240005FFB0A2007F07CFB1A218B4804F085FD08
:1032500007F056FB0A2007F073FB322007F070FBE3
:1032600086497D4805F02EF88949086008460068BF
:1032700000287CD1642007F063FB07F041FB642148
:103280006F4805F04FF86D4803F06CFC441C234672
:10329000804A684924396A4804F08AFE0520654B53
:1032A000783B644A6BA100906548FDF7B1F807F0E0
:1032B00027FB00206E4908606C4908606D49086072
:1032C0000BE05E486B4A1268815C6B4804F045FD78
:1032D00068480068401C67490860584803F042FC91
:1032E000644909688842ECD80A21634804F035FD36
:1032F0000A21614804F031FD0A215F4804F02DFDE8
:103300000A215D4804F029FD0A215B4804F025FDEF
:103310000A21594804F021FD0A21574804F01DFDF7
:103320000A21554804F019FD0A21534804F015FDFF
:103330000A21514804F011FD0A214F4804F00DFD07
:103340000A214D4804F009FD0A214B4804F005FD0F
:103350000A21494804F001FD0A21474804F0FDFC18
:103360000A21454804F0F9FC0A21434800E0F5E051
:1033700004F0F3FC0A21404804F0EFFC0A213E4827
:1033800004F0EBFC0A213C4804F0E7FC0A213A482F
:1033900004F0E3FC0A21384804F0DFFC0A21364837
:1033A00004F0DBFC0A21344804F0D7FC0A2132483F
:1033B00004F0D3FC0A21304804F0CFFC0A212E4847
:1033C00004F0CBFC0A212C4804F0C7FC0A212A484F
:1033D00004F0C3FC0A21284804F0BFFC0A21264857
:1033E00004F0BBFC0A21244804F0B7FC0A2122485F
:1033F00004F0B3FC0A21204804F0AFFC0A211E4867
:1034000004F0ABFC0A211C4804F0A7FC0A211A486E
:1034100004F0A3FC0A21184804F09FFC0A21164876
:1034200004F09BFC0A21144804F097FC0A2133E0C5
:1034300064110000F80C00004F4B0000F4F5FF1F72
:10344000470B0020C1E1FF1FB4E1FF1F3D0B00202F
:10345000D90A00203E0000006CE2FF1F3CE0FF1F85
:10346000881300000A00000038E0FF1F14E0FF1F6F
:103470000CE0FF1F04E0FF1F00B0064084080000BE
:1034800044E0FF1F48E0FF1F4CE0FF1F50E0FF1F1C
:1034900040E0FF1FBCE1FF1FFE4804F05EFC0A2174
:1034A000FC4804F05AFC0A21FA4804F056FC0A21B0
:1034B000F84804F052FC0A21F64804F04EFC0A21B8
:1034C000F44804F04AFC0A21F24804F046FC0A21C0
:1034D000F04804F042FC0A21EE4804F03EFC0A21C8
:1034E000EC4804F03AFC0A21EA4804F036FC0A21D0
:1034F000E84804F032FC0A21E64804F02EFC0A21D8
:10350000E44804F02AFC0A21E24804F026FC0A21DF
:10351000E04804F022FC0A21DE4804F01EFC00BF53
:10352000DD49DE4804F0CEFE00280AD1DA498C39A4
:10353000DA4804F0C7FE002803D1D94800680528FE
:10354000EEDD07F0DDF9D74803F00CFB0446214619
:10355000D44804F0E7FE07F0D3F942E108F064FF35
:103560003FE1642007F0ECF907F0CAF96421CE4886
:1035700004F0D8FECB4803F0F5FA441C2346CB4AAE
:10358000C5493839C84804F013FD0520C24B8C3BAF
:103590001A467832C6A10090C348FCF739FF07F0FD
:1035A000AFF90020C3490860BD490860C2490860FE
:1035B0000BE0BC48C04A1268815CB64804F0CDFB01
:1035C000BD480068401CBC490860B64803F0CAFA10
:1035D000B94909688842ECD80A21AE4804F0BDFB1D
:1035E0000A21AC4804F0B9FB0A21AA4804F0B5FB53
:1035F0000A21A84804F0B1FB0A21A64804F0ADFB5B
:103600000A21A44804F0A9FB0A21A24804F0A5FB62
:103610000A21A04804F0A1FB0A219E4804F09DFB6A
:103620000A219C4804F099FB0A219A4804F095FB72
:103630000A21984804F091FB0A21964804F08DFB7A
:103640000A21944804F089FB0A21924804F085FB82
:103650000A21904804F081FB0A218E4804F07DFB8A
:103660000A218C4804F079FB0A218A4804F075FB92
:103670000A21884804F071FB0A21864804F06DFB9A
:103680000A21844804F069FB0A21824804F065FBA2
:103690000A21804804F061FB0A217E4804F05DFBAA
:1036A0000A217C4804F059FB0A217A4804F055FBB2
:1036B0000A21784804F051FB0A21764804F04DFBBA
:1036C0000A21744804F049FB0A21724804F045FBC2
:1036D0000A21704804F041FB0A216E4804F03DFBCA
:1036E0000A216C4804F039FB0A216A4804F035FBD2
:1036F0000A21684804F031FB0A21664804F02DFBDA
:103700000A21644804F029FB0A21624804F025FBE1
:103710000A21604804F021FB0A215E4804F01DFBE9
:103720000A215C4804F019FB0A215A4804F015FBF1
:103730000A21584804F011FB0A21564804F00DFBF9
:103740000A21544804F009FB0A21524804F005FB01
:103750000A21504804F001FB0A214E4804F0FDFA0A
:103760000A214C4804F0F9FA0A214A4804F0F5FA13
:103770000A21484804F0F1FA0A21464804F0EDFA1B
:103780000A21444804F0E9FA0A21424804F0E5FA23
:103790000A21404804F0E1FA0A213E4804F0DDFA2B
:1037A00000BF3D493D4804F08DFD00280AD13A494B
:1037B0008C393A4804F086FD002803D13848006867
:1037C0000528EEDD07F09CF8364803F0CBF90446F7
:1037D0002146344804F0A6FD07F092F801E008F015
:1037E00023FE304803F0BEF9044621462D4804F07C
:1037F00099FD1A21274804F0B0FA38BD38B5642085
:1038000007F09EF807F07CF86421274804F08AFD51
:10381000244803F0A7F9441C2346244A1E4938399A
:10382000214804F0C5FB05201B4B8C3B1A4678321F
:103830001FA100901C48FCF7EBFD07F061F8002089
:103840001C490860164908601B4908600BE01548D0
:10385000194A1268815C0F4804F07FFA1648006824
:10386000401C154908600F4803F07CF912490968AB
:103870008842ECD80A21074804F06FFA0A2105486B
:1038800004F06BFA0A21034804F067FA0A210148A0
:1038900014E0000000B006400C0D00006CE2FF1FB9
:1038A00014E0FF1FF4F5FF1F470B0020BCE1FF1FD2
:1038B0003E0000000CE0FF1F04E0FF1F04F04DFA83
:1038C0000A21FA4804F049FA0A21F84804F045FAB6
:1038D0000A21F64804F041FA0A21F44804F03DFABE
:1038E0000A21F24804F039FA0A21F04804F035FAC6
:1038F0000A21EE4804F031FA0A21EC4804F02DFACE
:103900000A21EA4804F029FA0A21E84804F025FAD5
:103910000A21E64804F021FA0A21E44804F01DFADD
:103920000A21E24804F019FA0A21E04804F015FAE5
:103930000A21DE4804F011FA0A21DC4804F00DFAED
:103940000A21DA4804F009FA0A21D84804F005FAF5
:103950000A21D64804F001FA0A21D44804F0FDF9FE
:103960000A21D24804F0F9F90A21D04804F0F5F907
:103970000A21CE4804F0F1F90A21CC4804F0EDF90F
:103980000A21CA4804F0E9F90A21C84804F0E5F917
:103990000A21C64804F0E1F90A21C44804F0DDF91F
:1039A0000A21C24804F0D9F90A21C04804F0D5F927
:1039B0000A21BE4804F0D1F90A21BC4804F0CDF92F
:1039C0000A21BA4804F0C9F90A21B84804F0C5F937
:1039D0000A21B64804F0C1F90A21B44804F0BDF93F
:1039E0000A21B24804F0B9F90A21B04804F0B5F947
:1039F0000A21AE4804F0B1F90A21AC4804F0ADF94F
:103A00000A21AA4804F0A9F90A21A84804F0A5F956
:103A10000A21A64804F0A1F90A21A44804F09DF95E
:103A20000A21A24804F099F90A21A04804F095F966
:103A30000A219E4804F091F90A219C4804F08DF96E
:103A40000A219A4804F089F90A21984804F085F976
:103A50000A21964804F081F90A21944804F07DF97E
:103A60000A21924804F079F900BF9149914804F085
:103A700029FC00280AD18E498C398E4804F022FC9A
:103A8000002803D18C4800680528EEDD06F038FFD9
:103A90008A4803F067F804462146884804F042FC4F
:103AA00006F02EFF38BD70B504460D4616460020C0
:103AB00083490860834800688349086000BF7B48E9
:103AC00004F058F9002818D07848C0797F497C4A1A
:103AD000126888547A480068401C7949086079481F
:103AE00000687949086076480068FF212B318842D8
:103AF00009DD00207249086005E073480068401E37
:103B00007149086000BF6A49704804F0DBFB002877
:103B100010D1674914396D4804F0D4FB002809D14D
:103B200069480068002805DD6949684804F0CAFB57
:103B30000028C4D070BDF8B504460E4615461F4691
:103B400000205F4908605F4800685F49086000BF67
:103B5000604804F00FF9002818D05E48C0795B492E
:103B6000574A1268885456480068401C54490860F7
:103B7000544800685449086051480068FF212B31BF
:103B8000884208DD00204E49086004E04E48006885
:103B9000401E4D49086021464C4804F093FB002824
:103BA0000FD13146494804F08DFB002809D1464821
:103BB0000068002805DD2946444804F083FB0028FE
:103BC000C6D0F8BD70B50446002505E0615D4148EA
:103BD00004F0C3F8681CC5B2605D0028F6D170BD62
:103BE00008B53D4B3D4A3A4960313D4804F0E0F9A3
:103BF0003C480068364B80332D4A8C3A1946009079
:103C0000374808F023FB08F00FFC08BD3648806BEE
:103C10000121C90208433449886334483449C860E3
:103C20003148806B0121090308432F4988632F48DD
:103C3000401C30498861401E08601F2001218140DE
:103C40002D4A116000BF704700B52C48006801285C
:103C500002D163202A49087029480078030006F041
:103C6000CDFD06040C141C535B634020254988607D
:103C7000802048604000486061E040202149886021
:103C8000802088604000486059E040201D4948601D
:103C9000802088604000486051E040201949486019
:103CA000802048604000886049E0000000B0064085
:103CB0000C0D00006CE2FF1F14E0FF1FF4F5FF1F66
:103CC00004E0FF1F1CE0FF1F08E0FF1F2DFDFF1F8A
:103CD0006411000000C006403D0B0020D90A0020FE
:103CE000470B0020B4E1FF1F0080044002010A00DE
:103CF00000B0044000C0044000E100E0B0E1FF1F5C
:103D00007CE0FF1F80F00F404020FC49886080204D
:103D100048604000886012E04020F84988608020B8
:103D20008860400088600AE04020F44948608020B4
:103D30004860400048600020F149087000BF00BFA3
:103D400000BD10B5EF48006A08210840002814D0D3
:103D5000EC48006A0843EB490862EB48006801211F
:103D60000843E94908600120E8490870E84908600B
:103D7000E3480078401CE2490870E648006AC00742
:103D8000C00F002812D0E348006A01210843E1492E
:103D90000862DD48006801210843DB490860012012
:103DA000DA490870DA49086006F0AAFDD948006AC5
:103DB0004021084000280FD0D648006A0843D54962
:103DC0000862D148006801210843CF4908600120FA
:103DD000CE49087006F094FDFFF736FF10BD70471E
:103DE0000020CD498861CD484861052008617047B1
:103DF000C948006940084000C7490861704770B56C
:103E0000C54885698469281BC54908602946C5A03D
:103E100004F0C0F82146CAA004F0BCF8C04801680C
:103E2000CEA004F0B7F870BD0CE0D749D74A1160B6
:103E300004E0D6490968491ED44A1160D34909688B
:103E40000029F6DC0146401E0029EED170471CB562
:103E5000CF4802F087FE01460190CD4804F062FA97
:103E6000CC4802F07FFE01460190CA4804F05AFA9D
:103E7000C94802F077FE01460190C74804F052FAA3
:103E8000C54802F06FFE01460190C44804F04AFAAA
:103E900002F042FFFFF7A4FF0520C149086006F0C9
:103EA00009FC00BFBF48806B012149020843BD499E
:103EB00088638815BC4948608860904880384068AD
:103EC000062108438D49803948600846406906212B
:103ED00008438A498039486102208860042088604C
:103EE00000BFFFF793FE002089490860AF490860D2
:103EF000802082494031886001217D20C00003F08C
:103F000060FE00BFA748C06B0121C9060843A54950
:103F1000C8632D20A64988600020C8600862084652
:103F2000406A08218843A249486200BF00209C499A
:103F300008600A219F4803F010FF1A219D4803F0F2
:103F40000CFF06F06BFE02209B4B9C4A114614317D
:103F500000909BA008F07AF9642006F0F1FC06F0CE
:103F6000CFFC642006F0ECFC06F058FE05F0D4FF10
:103F700095A1874802F006FE834806F0E1FC052083
:103F80008749086006F0AEFD06F048FE07F066FEC1
:103F900006F0B6FC06F042FE05F0BEFF8749303958
:103FA0007B4802F0EFFD05F0B7FF844930397848CF
:103FB00002F0E8FD06F032FE032051490870FFF7D9
:103FC00043FE834800687C4B7C4A114614310090C4
:103FD00080A008F03BF97E480068774B774A11468D
:103FE000143100907EA008F031F906F017FE7848F1
:103FF0000068714B714A1146143100907BA008F0A3
:1040000025F9734800686C4B6C4A114614310090D6
:1040100079A008F01BF96E480068674B674A1146A3
:104020001431009077A008F011F906F0F7FD684808
:104030000068614B614A11461431009075A008F088
:1040400005F9634800685C4B5C4A114614310090E6
:1040500075A008F0FBF85E480068574B574A1146B8
:104060001431009075A008F0F1F859480068524BDF
:10407000524A11461431009075A008F0E7F85448F0
:1040800000684D4B4D4A11461431009051A008F084
:10409000DDF80A2006F054FC4D480068464B474ABC
:1040A0001146143100906EA008F0D0F806F028FCFC
:1040B0000A2006F045FC05F02FFF4049303934480E
:1040C00002F060FD424800683B4B3C4A1146143107
:1040D000009068A008F0BAF8642006F031FC69A1ED
:1040E000694804F0EFF8002807D039480068324BDF
:1040F000324A114614310090C8E0E1E080F00F40F0
:104100007CE0FF1F80B0044078E0FF1F25E2FF1F26
:1041100074E0FF1F80C0044000E000E03F9C00000E
:1041200088E0FF1F7379737469636B207374617225
:10413000742076616C75653A20307825780A0D0018
:104140007379737469636B20656E642076616C7536
:10415000653A20307825780A0D0000007379737471
:1041600069636B2063757272656E742076616C751D
:10417000652072656164206F766572686561643A76
:1041800020307825780A0D008813000018E2FF1F00
:10419000F4F5FF1FE5080020D90A00203D0B0020A0
:1041A000B8E1FF1F0080044000900440B0E1FF1F11
:1041B00000B0034000B0064064110000F80C00009D
:1041C0000A0A41540D0A000043482731270A00001B
:1041D000B4E1FF1F0A0A415426570D0A00000000EF
:1041E0000A0A415453303D320D0A00000A0A415474
:1041F00026460D0A000000000A0A415426440D0A12
:10420000000000000A0A41542B4946433D302C303F
:104210000D0A00000A0A41542B4349505153454EA0
:10422000443F0D0A000000000A0A41542B43495044
:104230005153454E443D300D0A0000000A0A4154D6
:104240002B435042533D22534D220D0A00000000E3
:104250000A0A41542B53443250434D3D300D0A005D
:104260000A0A41542B465344524956453D310D0AE2
:10427000000000000A0A41542B46534D454D0D0ADB
:1042800000000000443A00006CE2FF1FEBA007F0C2
:10429000DDFF6421F34804F045F80222F2A1F14861
:1042A00003F086FE0A20FB4BFB4AFCA10090ED4880
:1042B00007F0CCFF06F024FBF9A00AF09FF91FE0FD
:1042C000F8480068F34BF44A114614310090DBA023
:1042D00007F0BCFF6421E34804F024F80222E2A1C5
:1042E000E04803F065FE0A20EA4BEB4AEBA10090A0
:1042F000DC4807F0ABFF06F003FBEBA00AF07EF909
:10430000642006F01DFBE7480068E24BE24A1146D4
:1043100014310090E5A007F099FFE2480068DD4BFA
:10432000DD4A114614310090E3A007F08FFFDD480D
:104330000068D84BD84A114614310090E2A007F02B
:1043400085FF06F0CFFB07F089FC07F0B1FC07F012
:104350001DFCD4480068CF4BCF4A11461431009061
:10436000DFA007F073FFCF480068CA4BCA4A114666
:1043700014310090DEA007F069FF6421B94803F012
:10438000D1FF0F21DE4803F0CDFFDD4822210B468F
:104390000222009101900121DA4807F067FBD84A18
:1043A000D9A1B04803F004FEBE480068B94BBA4A30
:1043B000114614310090AB4807F048FF07F018FC95
:1043C0006421A84803F0AEFF0521D44803F0ACFFF8
:1043D000D3A1A44803F0ECFD0A20AE4BAE4ADBA10A
:1043E0000090A04807F032FFCC480D210A23032299
:1043F000009101900121C34807F038FB06F00EFC44
:10440000D3480068D34908600420D14908600520DA
:10441000A04BA14ACDA1009018460C3007F016FF22
:1044200005F07AFD9C493039CB4802F0ABFB06F031
:10443000F5FB64218B4803F075FFC84A954920318C
:10444000884803F0B5FD97480068924B924ABFA197
:104450000090844807F0FAFE06F0E0FB05208E4B42
:104460005C3B8D4AB9A100908A48383007F0EEFED7
:1044700005F052FD88493039B74802F083FB05F05A
:104480004BFD85493039B44802F07CFB06F0C6FB91
:1044900006F036FA7F4848300AF0B0F806F030FAF5
:1044A000142006F04DFA06F0B9FBAD4BAD4A794940
:1044B00060316C4803F07CFD7A480068764B783BAD
:1044C000754A744980310090664807F0BFFE06F0D7
:1044D00017FA05F021FD704930399F4802F052FB70
:1044E0009C4800689A4908606E480068694B8833A8
:1044F000694A783A69A100901846103007F0A6FE84
:104500009948006802F02EFB014601909648006829
:1045100003F008FF9548006802F024FB0146019073
:104520009248006803F0FEFE3E217648FBF7DAFF72
:104530008F49087008460078002877D006F0E0F927
:104540008C49704803F0EEFE68A1834802F01AFB24
:10455000814802F007FB884908600020874908600D
:1045600087490860874908600DE07B4885490968EC
:10457000405C01460190844803F0EFFB81480068ED
:10458000401C804908607F4800687B490968884270
:10459000EBDB1A217C4803F0E0FB00BF7B49594864
:1045A00003F090FE704908603B497839554803F0A4
:1045B00089FE7749086037499031524803F082FEFE
:1045C0007449086034495C394E4803F07BFE7249F7
:1045D00008606F48006800280FD16E480068002806
:1045E0000BD108460068002807D15F480068002802
:1045F00003D1624800680828D0DD1A21624803F020
:10460000ACFB1A21604803F0A8FB1A215E4803F0B6
:10461000A4FB1A215C4803F0A0FB322006F090F9BD
:104620005A49384803F04EFE4F4908604E4800682A
:10463000002801D10120B2E0B0E000000A0A415494
:104640002B46534352454154453D433A5C4C4F47FA
:1046500047494E475F44524956452E5458540D0A17
:1046600000000000470B00200D0A41542B46535711
:10467000524954453D433A5C4C4F4747494E475F8A
:1046800044524956452E5458542C302C25642C3114
:10469000300D0A0064110000F80C00003E0000001C
:1046A000443A0000B4E1FF1F433A00000A0A4154B3
:1046B00053303D310D0A00000A0A41542B43534345
:1046C0004C4B3D310D0A00000D0A0D0A41542B439D
:1046D0004D47443D312C340D0A0A0A0A00000000FF
:1046E0000A0A41542B434D47463D310A0A00000057
:1046F0000A0A41542B435343413F0D0A0000000076
:10470000E20B00206CE2FF1F0D0A41542B43534380
:10471000413D222573220D0A00000000BCE1FF1F6D
:104720000A41542B4653524541443D433A5C4C4F59
:104730004747494E475F44524956452E5458542CDA
:10474000302C3130302C310D0A0000004F4B00006E
:10475000B8E1FF1F20E0FF1FF4F5FF1FC1E1FF1FBD
:104760003D0B0020D90A002044E0FF1F40E0FF1F5E
:104770003CE0FF1F8813000038E0FF1F14E0FF1F1C
:104780000CE0FF1F04E0FF1F00B00640840800009B
:1047900048E0FF1F4CE0FF1F50E0FF1F00200128F2
:1047A0007ED11A21FE4803F0D8FA06F0A9F80A20B3
:1047B00006F0C6F81A21FA4803F0CFFA06F0A0F87E
:1047C0000A2006F0BDF81A21F54803F0C6FA06F0F3
:1047D00097F80A2006F0B4F8642006F0B1F806F065
:1047E0008FF86421EF4803F09DFDEF4802F0BAF91D
:1047F000401C0346ED4AEE490190EA4803F0D8FB1D
:104800000520EB4B543B1A467832EAA10090E5486C
:10481000FBF7FEFDE6495439E74803F053FD002855
:1048200004D04320E14908703A20487006F068F847
:104830000020E2490860E2490860E24908600DE0B2
:10484000D948E0490968405C01460190D44803F02A
:1048500084FADC480068401CDA490860D24802F05B
:1048600081F9D84909688842EAD80A21CC4803F07E
:1048700074FA0A21CA4803F070FA0A21C84803F002
:104880006CFA0A21C64803F068FA0A21C44803F00A
:1048900064FA0A21C24803F060FA0A21C04800E025
:1048A000FCE203F05AFA0A21BD4803F056FA0A2145
:1048B000BB4803F052FA0A21B94803F04EFA0A2124
:1048C000B74803F04AFA0A21B54803F046FA0A212C
:1048D000B34803F042FA0A21B14803F03EFA0A2134
:1048E000AF4803F03AFA0A21AD4803F036FA0A213C
:1048F000AB4803F032FA0A21A94803F02EFA0A2144
:10490000A74803F02AFA0A21A54803F026FA0A214B
:10491000A34803F022FA0A21A14803F01EFA0A2153
:104920009F4803F01AFA0A219D4803F016FA0A215B
:104930009B4803F012FA0A21994803F00EFA0A2163
:10494000974803F00AFA0A21954803F006FA0A216B
:10495000934803F002FA0A21914803F0FEF90A2174
:104960008F4803F0FAF90A218D4803F0F6F90A217D
:104970008B4803F0F2F90A21894803F0EEF90A2185
:10498000874803F0EAF90A21854803F0E6F90A218D
:10499000834803F0E2F90A21814803F0DEF90A2195
:1049A0007F4803F0DAF90A217D4803F0D6F90A219D
:1049B0007B4803F0D2F90A21794803F0CEF90A21A5
:1049C000774803F0CAF90A21754803F0C6F90A21AD
:1049D000734803F0C2F90A21714803F0BEF90A21B5
:1049E0006F4803F0BAF90A216D4803F0B6F90A21BD
:1049F0006B4803F0B2F90A21694803F0AEF90A21C5
:104A0000674803F0AAF90A21654803F0A6F90A21CC
:104A1000634803F0A2F90A21614803F09EF90A21D4
:104A20005F4803F09AF90A215D4803F096F90A21DC
:104A30005B4803F092F900BF5D4938315E4803F0EE
:104A400041FC00280AD15A4954395B4803F03AFC2A
:104A5000002803D15A4800680528EDDD05F050FF15
:104A6000514802F07FF8014601904F4803F05AFC8C
:104A70004D4802F077F8014601904B4803F052FC94
:104A800005F04AFA4A490C39474802F07BF805F02C
:104A900037FF4D4800684D49086004204A490860C6
:104AA00006F0BCF80520424B543B1A46783248A128
:104AB00000901046203007F0C9FB642005F040FF4D
:104AC00004203B4B543B1A46A83241A100901046AB
:104AD000143007F0BBFB05F035FC35490C39324882
:104AE00002F050F805F02EFC31490C392E4802F046
:104AF00049F805F027FC2E490C392B4802F042F802
:104B00000420344B2A4A243231A1009018460C303C
:104B100007F09CFB05F016FC25490C39224802F0F1
:104B200031F864211F4803F0FDFB2B4A294920314D
:104B30001C4803F03DFA29480068264B1C4A2432E1
:104B400023A10090174807F081FB06F067F80420C6
:104B5000174B383B1A465C321DA100901D48383077
:104B600007F074FB05F0EEFB11490C390E4802F01A
:104B700009F805F0E7FB0E490C390B4802F002F882
:104B800006F04CF805F0DEFB09490C39064801F047
:104B9000F9FF05F0B5FE0F48483009F02FFD1FE082
:104BA00000B00640470B0020F4F5FF1FBCE1FF1FDB
:104BB000D40C00003E0000006CE2FF1F0CE0FF1F61
:104BC00014E0FF1F04E0FF1FB8E1FF1F20E0FF1FFC
:104BD0004F4B000064110000C1E1FF1FB4E1FF1F53
:104BE00005F08EFE142005F0ABFE06F017F8FD4828
:104BF0000068FD490860FD4BFD4AFE49FE4803F090
:104C0000D7F9FE480068FB4B603BFD4A19468031EE
:104C10000090F94807F01AFB05F072FEF7480068AB
:104C2000F44B2833F64AF7A100901846103007F0ED
:104C30000DFB05F065FE3E21F348FBF753FCF349FD
:104C400008700846007800287DD005F059FEF0492C
:104C5000ED4803F067FBEFA1EF4801F093FFEE484A
:104C600001F080FFED4908600020ED490860ED4942
:104C70000860ED4908600DE0E748EB490968405CD1
:104C800001460190E94803F068F8E7480068401CD5
:104C9000E5490860E4480068E04909688842EBDBC0
:104CA0001A21E24803F059F800BFE149D64803F061
:104CB00009FBE0490860D249D34803F003FBDE4911
:104CC0000860CC493031D04803F0FCFADB49086079
:104CD000CB491C31CC4803F0F5FAD9490860D648D5
:104CE000006800280FD1D548006800280BD108467D
:104CF0000068002807D1CF480068002803D1C848C1
:104D000000680828D1DD0A2005F01AFE05F0F8FD3C
:104D10001A21C64803F021F80A2005F011FE1A21D5
:104D2000C24803F01AF81A21C04803F016F81A21F5
:104D3000BE4803F012F81A21BC4803F00EF805F043
:104D4000DFFD0A2000E0ACE105F0FAFD1A21B748CA
:104D500003F003F805F0D4FD0A2005F0F1FDAA48A0
:104D600001F000FFB74908601A21B04802F0F5FFD2
:104D700005F0C6FD0A2005F0E3FD322005F0E0FD58
:104D8000AB49A14803F09EFAAF49086008460068A5
:104D9000002801D1012000E0002001287ED16420FC
:104DA00005F0CEFD05F0ACFD6421934803F0BAFA9E
:104DB000994801F0D7FE401C0346A44A904954315B
:104DC00001908D4803F0F4F805208D4B1A46783297
:104DD0008CA100908848FBF71BFB89498A4803F0A7
:104DE00071FA002804D04320984908703A2048708E
:104DF00005F086FD00208B490860894908608A49D2
:104E000008600DE0844888490968405C01460190CB
:104E1000864802F0A2FF84480068401C824908606E
:104E20007D4801F09FFE804909688842EAD80A213E
:104E30007E4802F092FF0A217C4802F08EFF0A2190
:104E40007A4802F08AFF0A21784802F086FF0A2198
:104E5000764802F082FF0A21744802F07EFF0A21A0
:104E6000724802F07AFF0A21704802F076FF0A21A8
:104E70006E4802F072FF0A216C4802F06EFF0A21B0
:104E80006A4802F06AFF0A21684802F066FF0A21B8
:104E9000664802F062FF0A21644800E04EE202F038
:104EA0005CFF0A21614802F058FF0A215F4802F0C6
:104EB00054FF0A215D4802F050FF0A215B4802F0CE
:104EC0004CFF0A21594802F048FF0A21574802F0D6
:104ED00044FF0A21554802F040FF0A21534802F0DE
:104EE0003CFF0A21514802F038FF0A214F4802F0E6
:104EF00034FF0A214D4802F030FF0A214B4802F0EE
:104F00002CFF0A21494802F028FF0A21474802F0F5
:104F100024FF0A21454802F020FF0A21434802F0FD
:104F20001CFF0A21414802F018FF0A213F4802F005
:104F300014FF0A213D4802F010FF0A213B4802F00D
:104F40000CFF0A21394802F008FF0A21374802F015
:104F500004FF0A21354802F000FF0A21334802F01D
:104F6000FCFE0A21314802F0F8FE0A212F4802F027
:104F7000F4FE0A212D4802F0F0FE0A212B4802F02F
:104F8000ECFE0A21294802F0E8FE0A21274802F037
:104F9000E4FE0A21254802F0E0FE0A21234802F03F
:104FA000DCFE0A21214802F0D8FE0A211F4802F047
:104FB000D4FE0A211D4802F0D0FE0A211B4802F04F
:104FC000CCFE0A21194802F0C8FE0A21174802F057
:104FD000C4FE0A21154802F0C0FE0A21134802F05F
:104FE000BCFE35E020E0FF1FB8E1FF1F3D0B0020B5
:104FF000D90A0020C4110000470B0020B4E1FF1FB4
:10500000800C00003E0000006CE2FF1F3CE0FF1F30
:10501000881300000A000000F4F5FF1F38E0FF1FAE
:1050200014E0FF1F0CE0FF1F04E0FF1F00B006406C
:105030008408000044E0FF1F48E0FF1F4CE0FF1F12
:1050400050E0FF1F0CE1FF1F40E0FF1FBCE1FF1F0E
:105050000A21F94802F081FE0A21F74802F07DFE9C
:105060000A21F54802F079FE00BFF449F44803F044
:1050700029F900280AD1F1498C39F14803F022F9C5
:10508000002803D1EF4800680528EEDDEE4801F066
:1050900069FD01460190EC4803F044F905F030FC4D
:1050A0004CE1642005F04CFC05F02AFC6421E74843
:1050B00003F038F9E44801F055FD401C0346E44A8A
:1050C000DE4938390190E14802F072FF0520DB4BE0
:1050D0008C3B1A467832DFA10090DC48FBF798F948
:1050E000D6498C39D64803F0EDF8002804D0432087
:1050F000D74908703A20487005F002FC0020D649D4
:105100000860D0490860D54908600DE0CE48D34911
:105110000968405C01460190C74802F01EFECF4876
:105120000068401CCD490860C74801F01BFDCB4911
:1051300009688842EAD80A21BF4802F00EFE0A2117
:10514000BD4802F00AFE0A21BB4802F006FE0A2111
:10515000B94802F002FE0A21B74802F0FEFD0A211A
:10516000B54802F0FAFD0A21B34802F0F6FD0A2123
:10517000B14802F0F2FD0A21AF4802F0EEFD0A212B
:10518000AD4802F0EAFD0A21AB4802F0E6FD0A2133
:10519000A94802F0E2FD0A21A74802F0DEFD0A213B
:1051A000A54802F0DAFD0A21A34802F0D6FD0A2143
:1051B000A14802F0D2FD0A219F4802F0CEFD0A214B
:1051C0009D4802F0CAFD0A219B4802F0C6FD0A2153
:1051D000994802F0C2FD0A21974802F0BEFD0A215B
:1051E000954802F0BAFD0A21934802F0B6FD0A2163
:1051F000914802F0B2FD0A218F4802F0AEFD0A216B
:105200008D4802F0AAFD0A218B4802F0A6FD0A2172
:10521000894802F0A2FD0A21874802F09EFD0A217A
:10522000854802F09AFD0A21834802F096FD0A2182
:10523000814802F092FD0A217F4802F08EFD0A218A
:105240007D4802F08AFD0A217B4802F086FD0A2192
:10525000794802F082FD0A21774802F07EFD0A219A
:10526000754802F07AFD0A21734802F076FD0A21A2
:10527000714802F072FD0A216F4802F06EFD0A21AA
:105280006D4802F06AFD0A216B4802F066FD0A21B2
:10529000694802F062FD0A21674802F05EFD0A21BA
:1052A000654802F05AFD0A21634802F056FD0A21C2
:1052B000614802F052FD0A215F4802F04EFD0A21CA
:1052C0005D4802F04AFD0A215B4802F046FD0A21D2
:1052D000594802F042FD0A21574802F03EFD0A21DA
:1052E000554802F03AFD0A21534802F036FD0A21E2
:1052F000514802F032FD0A214F4802F02EFD00BF56
:105300004E494F4802F0DEFF00280AD14B498C3944
:105310004B4802F0D7FF002803D14A48006805280F
:10532000EEDD494801F01EFC01460190464802F0BE
:10533000F9FF05F0E5FA012049490860424801F00B
:1053400011FC01460190404802F0ECFF1A213A4856
:1053500002F003FDFDE3FEF777FCFBF7E3F8202006
:105360004049486005F05AFC80203E494031886041
:10537000C82005F0E5FA00203B490860394800697B
:10538000C007C00F002806D1364840380069C00762
:10539000C00F002807D080203249403188600020AB
:1053A0003149086006E080202E49403148600120E4
:1053B0002D4908602D4800682D4988423BDB80203C
:1053C0002849403188602BA009F018F905F098FAB7
:1053D000642005F0B5FA06F0B7FE64211B4802F020
:1053E000A1FF194801F0BEFB401C0346184A1349AF
:1053F00038390190154802F0DBFD05200F4B8C3B3E
:105400001A46783213A100901048FBF701F80B49B7
:105410008C390B4802F056FF002804D043200C4979
:1054200008703A20487000200B4908600549086060
:105430000A4908604CE059E100B006400C0D00003C
:105440006CE2FF1F14E0FF1FF4F5FF1F470B002065
:10545000BCE1FF1F3E0000000CE0FF1F04E0FF1F47
:1054600098E1FF1F80F00F40B0E1FF1FF0E1FF1F48
:10547000DC0500000D0A0D0A0D0A0A0A0A0A0A4490
:1054800045564943452049532052455345545449B4
:105490004E472E2E2E2E2E2E2E0A0A0A0A0A0A0AEF
:1054A0000A0A0A0A0A0A0A0A0A0A0A0A0A0A0A0D59
:1054B0000A0A0A00FD48FE490968405C014601905D
:1054C000FC4802F04AFCFA480068401CF8490860B1
:1054D000F64801F047FBF64909688842EAD80A21F4
:1054E000F44802F03AFC0A21F24802F036FC0A21A4
:1054F000F04802F032FC0A21EE4802F02EFC0A21AC
:10550000EC4802F02AFC0A21EA4802F026FC0A21B3
:10551000E84802F022FC0A21E64802F01EFC0A21BB
:10552000E44802F01AFC0A21E24802F016FC0A21C3
:10553000E04802F012FC0A21DE4802F00EFC0A21CB
:10554000DC4802F00AFC0A21DA4802F006FC0A21D3
:10555000D84802F002FC0A21D64802F0FEFB0A21DC
:10556000D44802F0FAFB0A21D24802F0F6FB0A21E5
:10557000D04802F0F2FB0A21CE4802F0EEFB0A21ED
:10558000CC4802F0EAFB0A21CA4802F0E6FB0A21F5
:10559000C84802F0E2FB0A21C64802F0DEFB0A21FD
:1055A000C44802F0DAFB0A21C24802F0D6FB0A2105
:1055B000C04802F0D2FB0A21BE4802F0CEFB0A210D
:1055C000BC4802F0CAFB0A21BA4802F0C6FB0A2115
:1055D000B84802F0C2FB0A21B64802F0BEFB0A211D
:1055E000B44802F0BAFB0A21B24802F0B6FB0A2125
:1055F000B04802F0B2FB0A21AE4802F0AEFB0A212D
:10560000AC4802F0AAFB0A21AA4802F0A6FB0A2134
:10561000A84802F0A2FB0A21A64802F09EFB0A213C
:10562000A44802F09AFB0A21A24802F096FB0A2144
:10563000A04802F092FB0A219E4802F08EFB0A214C
:105640009C4802F08AFB0A219A4802F086FB0A2154
:10565000984802F082FB0A21964802F07EFB0A215C
:10566000944802F07AFB0A21924802F076FB0A2164
:10567000904802F072FB0A218E4802F06EFB0A216C
:105680008C4802F06AFB0A218A4802F066FB0A2174
:10569000884802F062FB0A21864802F05EFB0A217C
:1056A000844802F05AFB00BF8349844802F00AFE96
:1056B00000280AD180498C39804802F003FE002876
:1056C00003D17F4800680528EEDD20207D498860F1
:1056D0008860642005F034F920207A4948604860E9
:1056E000642005F02DF9002077490860642177488F
:1056F00002F018FE74480068009075480368754809
:1057000075A10268714802F053FC814800680128C5
:1057100004D170480068052800DC1BE68020694938
:105720004031886000207A4908607A4800687A4BE6
:10573000614A8C3A79A100907BA006F087FD642134
:10574000624802F0EFFD594801F00CFA0146019061
:10575000564802F0E7FD04F0DFFB5E4800680528CC
:105760006EDD75480021017041705648403800696F
:10577000C007C00F002807D0534801226FA103685B
:105780006D4802F015FC06E04F4800226BA103684B
:10579000694802F00DFC092005F05CF80521694814
:1057A00002F0C2FD684869A10268664802F000FC88
:1057B00067480021018043484038006904210840BF
:1057C000002805D0012263A1614802F0F1FB04E04A
:1057D000002260A15E4802F0EBFB00203D4908601A
:1057E000324801F0BFF901460190304802F09AFDBD
:1057F00059492E4801F0C6F958A12C4801F0C2F9C8
:1058000058492A4801F0BEF957A1284801F0BAF9D1
:105810004C49264801F0B6F954A1244801F0B2F9E8
:105820004B49224801F0AEF952A1204801F0AAF9F3
:1058300041491E4801F0A6F94FA11C4801F0A2F908
:1058400005F0ECF94E4B4F4A334960311F4802F0E6
:10585000AFFB30480068184B143B1A46783A2E4983
:1058600080310090194806F0F1FC2A4800682A4B64
:105870008833114A8C3A44A100901846103006F043
:10588000E5FC4248006801F06DF9014601903F488F
:10589000006802F047FD3E48006801F063F90146E8
:1058A00001903B48006802F03DFD73E0F4F5FF1FF6
:1058B00004E0FF1F00B006400C0D00006CE2FF1F6B
:1058C00014E0FF1F80F00F40F0E1FF1F470B0020A6
:1058D00010E1FF1FACE1FF1F0D0A0D0A2020202060
:1058E000202020202020202020203C25643E202035
:1058F000203C25643E2020203C3D25643E20202085
:105900002020202020200A200A0A0D0A0000000082
:10591000B0E1FF1FB4E1FF1F64110000434C4F537F
:1059200045204F4B000000000D0A41542B434950C5
:10593000434C4F53450D0A00F8FBFF1F25642C25EF
:105940006C640000A0E0FF1F9CE0FF1F25642C009A
:10595000A4E1FF1F25640000FB0B00202C414C49F3
:1059600056452C00D0FBFF1F2C463D002C41433DEB
:10597000000000002C493D002C0A0A0A000000002B
:105980003D0B0020D90A00203E00000044E0FF1F2C
:1059900048E0FF1FFE48006801F0E4F8014601906E
:1059A000FB48006802F0BEFCFA48006801F0DAF833
:1059B00001460190F748006802F0B4FCF648006820
:1059C00001F0D0F801460190F348006802F0AAFC0B
:1059D0000020F24908703E21F148FAF783FDEF49B3
:1059E00008700846007800287ED004F089FFED4951
:1059F000EB4802F097FCECA1EC4801F0C3F8EB484F
:105A000001F0B0F8EA4908600020EA490860EA4974
:105A10000860EA4908600DE0E448E8490968405C2C
:105A200001460190E64802F098F9E4480068401CFD
:105A3000E2490860E1480068DD4909688842EBDB1B
:105A40000A21DF4802F089F91A21DD4802F085F9C0
:105A50001A21DB4802F081F91A21D94802F07DF9B8
:105A60001A21D74802F079F91A21D54802F075F9C0
:105A700000BFD449CA4802F025FCD3490860D34985
:105A8000C74802F01FFCD2490860D249C44802F05E
:105A900019FCBF490860CD491C31C14802F012FC15
:105AA000BC490860CA48006800280FD1B84800689F
:105AB00000280BD108460068002807D1C2480068BA
:105AC000002803D1BB4800680828D2DD1A21BC4851
:105AD00002F043F91A21BA4802F03FF91A21B848F6
