:020000040000FA
:100000005032002095030000B5030000DD01000020
:1000100000000000000000000000000000000000E0
:100020000000000000000000000000006902000065
:100030000000000000000000FD0200004903000075
:10004000BF030000F55E0000BF030000BF03000017
:100050000D370000BF030000BF030000BF03000016
:10006000895D0000BF030000BF030000BF03000064
:10007000FD5D0000255E0000BF030000BF0300001F
:10008000BF030000BF030000BF030000BF03000068
:10009000BF030000BF030000BF030000BF03000058
:1000A000BF030000BF030000BF030000BF03000048
:1000B000BF030000F1320000BF030000BF030000D7
:1000C00000F002F800F068F80CA030C808382418D6
:1000D0002D18A246671EAB4654465D46AC4201D180
:1000E00000F05AF87E460F3E0FCCB646012633424A
:1000F00000D0FB1AA246AB463343184774CA00002F
:1001000094CA0000103A02D378C878C1FAD85207CE
:1001100001D330C830C101D504680C6070470000BD
:100120000023002400250026103A01D378C1FBD813
:10013000520700D330C100D50B60704710B5662957
:1001400002D10BF051FC10BD642902D100F0A4F9DA
:1001500010BD782902D100F0D5F910BD632902D174
:1001600001F03EFD10BD732902D101F041FD10BD2B
:10017000002010BD1FB501F077FE04000020002113
:100180000BF05AFA401C6060002000210BF03EFA90
:10019000E0601FBD10B510BD02F048FB1146FFF72F
:1001A000E9FF0FB400F00CF80FBC07F0AFF800F057
:1001B00069FA03B4FFF7EEFF03BC02F031FB000065
:1001C00004B008F0ABF80448002108F01BF908F06F
:1001D000B9F800F057FA000088BE0000042071460C
:1001E000084202D0EFF3098001E0EFF30880714686
:1001F000004A1047D937000080F309887047EFF3B1
:1002000009807047684680F3098806480078C0076F
:1002100003D1032080F314887047022080F31488F0
:100220007047000048BE0000064B9C46EFF3058374
:100230001B0605D1EFF31483DB0701D000DF704705
:10024000604700003F950000064B9C46EFF3058396
:100250001B0605D1EFF31483DB0701D000DF7047E5
:1002600060470000D9970000EFF309808169891E7B
:10027000097800292BD1A6461FC8A4467446E0473A
:10028000EFF3098307C31A4B06CB91421CD0083BFE
:1002900000290DD0EFF3098020388862F0C0444671
:1002A0004D4656465F46F0C00CB409F0BBFD0CBC91
:1002B0001A60906A1030F0C8A046A946B246BB4604
:1002C00080F309882038F0C80220C043004710B5E9
:1002D000084A1268914209D8074C89006458A6461A
:1002E0001FC8A446F047EFF309840FC410BD0000F7
:1002F000D4020020C8320000C832000009F072FCAD
:10030000104B06CB91421AD0083BEFF309802038FE
:100310008862F0C044464D4656465F46F0C00CB475
:1003200009F080FD0CBC1A60906A1030F0C8A0463D
:10033000A946B246BB4680F309882038F0C802209F
:10034000C0430047D402002009F01EFED8E7000099
:1003500008F0B2F809F018FED2E7000070B50546C3
:100360000C46164602E00FCC0FC5103E102EFAD2F6
:10037000082E02D303CC03C5083E042E07D301CCBC
:1003800001C5361F03E021782970641C6D1C761EA0
:10039000F9D270BD0D480E4901600E4901600E4949
:1003A00001600E4A0E491160002101600D4880472E
:1003B0000D480047FEE7FEE7FEE7FEE7FEE7FEE743
:1003C0000A480B49094A0B4B7047000000010050D6
:1003D00059000000160000008800000024000050B2
:1003E000A55A000081560000C1000000502E0020D8
:1003F00050320020502E002000487047F02D002081
:100400000FB4054910B503AA029801F0F5FB10BC22
:1004100008BC04B0184700009C0200200FB41CB5B3
:10042000074B06AA7B4469460090059801F0B5FB8E
:100430000020694601F0C4FB1CBC08BC04B018478E
:100440009917000070B50C460546012A05D028789A
:10045000800600D5EA69002302E0012305E05B1C69
:10046000934202D2E05C0028F9D1A869E618C01ACC
:10047000A861286AC01828622846C046C04604E021
:100480006A682078A968641C9047B442F8D328466B
:10049000C046C04670BD0000F7B50025752910683C
:1004A000009914A611D0C046C046002802DA404286
:1004B00011A608E0009909688A0701D50FA602E095
:1004C000490704D50EA6012501E0C046C046009F9D
:1004D0000024243704E001F031FC30313955641C2C
:1004E0000028F8D12B4632462146009801F0EBF85F
:1004F000FEBD0000000000002D0000002B000000E9
:100500002000000070B504460D4621461068C04624
:10051000C0462188090502D50F4A7A4402E00E4AF6
:100520007A440E3223460021243305E006070009F1
:10053000360F965D5E54491C0028F7D120780023C1
:10054000000705D5702D03D0002901D002231132F8
:10055000204601F0B8F870BD02BA0000F3B50446B9
:10056000002081B020622046E168884700287AD0C8
:10057000252802D06268A16871E0E1682046002564
:10058000884706460020E0610746A0612A2E0AD06F
:10059000304606F007F9002827D0B8000019303E91
:1005A0000090866119E00298BA00121902C89161A0
:1005B00002902046E1688847012F064617D1E0697E
:1005C00000281FDA202085431CE000980A2180695A
:1005D000484300998019303888612046E16888478F
:1005E000064606F0DFF80028EFD1012F0AD02E2EA4
:1005F00008D12046E16888470646202005437F1C35
:10060000022FC3DBA069002803DA4042A061012069
:100610000543E80701D010208543002E23D0304643
:100620004138192803D80120C0020543203620464E
:1006300025603146029A1546FFF780FD00280BD051
:10064000012806D0ED1DE808C000083002908AE7B6
:1006500009E02D1D029586E762683046A168904743
:10066000206A401C7EE7206AFEBD70B5064601F098
:100670001BF80468054630460A22002101F026FBDB
:100680002C6070BD10B50446C046C0462046FFF73A
:1006900090FD10BD30B505460B462A461C781078F3
:1006A000521C5B1C002801D0A042F7D0002C03D0C4
:1006B000002802D06D1CEFE7284630BD30B5441C41
:1006C00003E00178401C00290DD08107F9D10B4BC4
:1006D000DD0104C8D11A91432940FAD0001B0A0653
:1006E00003D0C01E30BD001B30BD0A0401D0801EE7
:1006F00030BD0902FCD0401E30BD000001010101E7
:10070000421E5378521C002BFBD10B78491C1370EE
:10071000521C002BF9D1704701E004C0091F0429C5
:10072000FBD28B0701D50280801CC90700D0027064
:10073000704700290BD0C30702D00270401C491E2D
:10074000022904D3830702D50280801C891EE3E7B7
:100750000022EEE70022DFE7F8B507460B463946F0
:100760001943890713D1164CE601042A0FD302CB93
:100770000D1B8D43354202D102C0121FF5E7CBB2EB
:100780000370401C521E002B13D0090AF7E7002A01
:1007900014D01978521E5B1C0170401C002908D02F
:1007A000002A0BD01978521E5B1C0170401C0029D6
:1007B000EDD1002A02D01146FFF7CAFF3846F8BD36
:1007C00001010101024670B50A4392072AD11E4D6C
:1007D000EE0104C808C9541B9443344017D0D0B26A
:1007E000D9B2401A2106014310D190B299B2401AF1
:1007F000210401430AD110021902000A090A401A11
:100800002102014302D1100E190E401A70BD9A4206
:10081000DFD010BA19BA884201D9012070BD00207A
:10082000C04370BD02780B78401C491C002A09D0D7
:100830009A4207D102780B78401C491C002A01D04B
:100840009A42EFD0D01A70BD0101010100220309C4
:100850008B422CD3030A8B4211D300239C464EE0DB
:1008600003460B433CD4002243088B4231D3030997
:100870008B421CD3030A8B4201D394463FE0C30949
:100880008B4201D3CB01C01A524183098B4201D361
:100890008B01C01A524143098B4201D34B01C01A4C
:1008A000524103098B4201D30B01C01A5241C308C4
:1008B0008B4201D3CB00C01A524183088B4201D333
:1008C0008B00C01A524143088B4201D34B00C01A1F
:1008D0005241411A00D201465241104670475DE034
:1008E000CA0F00D04942031000D3404253400022B7
:1008F0009C4603098B422DD3030A8B4212D3FC2260
:10090000890112BA030A8B420CD3890192118B42DE
:1009100008D3890192118B4204D389013AD09211F4
:1009200000E08909C3098B4201D3CB01C01A5241AF
:1009300083098B4201D38B01C01A524143098B4278
:1009400001D34B01C01A524103098B4201D30B0161
:10095000C01A5241C3088B4201D3CB00C01A524186
:1009600083088B4201D38B00C01A5241D9D243086D
:100970008B4201D34B00C01A5241411A00D20146AA
:10098000634652415B10104601D34042002B00D514
:100990004942704763465B1000D3404201B50020D6
:1009A000C046C04602BD7047704770470246C80F38
:1009B000C00781434B0030B54B405B009B0D20D0FE
:1009C0001923DB06C91801231B05994220DB0324E8
:1009D000A40704251346AB400BD3002B04D1EB0630
:1009E00013409B00E34204D401246407002312193E
:1009F0005941FF231B0599420BD2C9000143500FF7
:100A000009E0CB0204D501430803024305D00548A1
:100A100030BDFF21C905084330BD0846072109053F
:100A2000884330BD0000C07FF0B50C46871A9C415A
:100A30000D46861A9D4103D2C01BA141D2196341C4
:100A40000D0D1F0DC94EEC1BAE435CD07F057F0D15
:100A50000026002F51D02D05AC46A943DD0201230D
:100A6000ED0A1B051D4320231B1B24D41746E7401A
:100A7000381871412F46E740CC199D40281831465F
:100A800061410C0D27D161449A4013D50023401CCD
:100A9000594152000ED14008400001224B0052053E
:100AA000D34207D305204007C14201D5B04900E039
:100AB000B0493046F0BD6B00002A00D001229A18E0
:100AC0001F23203C1B1B01D5002302E0E540281812
:100AD00071410C0DD7D0012424050919C407CD0795
:100AE00040084908E40F28436144002CD5D0002475
:100AF000401C61419A40D0D1CDE76A05520DD9D151
:100B0000C90FC907D5E79C4D4E00002801D001242C
:100B100000E0002434195F00002A01D0012600E023
:100B20000026BE19954FAC420CD8AE420AD8B4424A
:100B300006D001256D05EC42BCD010461946F0BD2B
:100B40009942FCD000203946F0BDF0B51FB40C46E8
:100B50000F46811A9F412546861A9D4106D20125DE
:100B6000ED076F40401ABC4152187B41210D1E0D0C
:100B70008D1BAC467D4D8D437ED075056D0D7CD0B3
:100B80000D05AE46AC431B031B0B794D52429D41F4
:100B9000202366469B1B14D31746F74038180026BF
:100BA0000090744160462F460741E41900989D402B
:100BB0002818664116D4714671189A4025D501232C
:100BC00020E093182A466A415200002B00D0521CA4
:100BD0001E23203E9B1B002B61DD3541EE1728189C
:100BE0006641E8D5001876415B1C9A4000D3401C52
:100BF0004B05F3181524E34010D3002B52D0714657
:100C00007118D30FC01802D3491C05B0F0BD0123E1
:100C1000DB079A42F9D140084000F6E7012252056D
:100C2000B21801D1002853D00123CC0ADB0299432A
:100C3000891E002A08D1020C03D0020C00041039CE
:100C400002E00246002020390023550B05D1120294
:100C50000823550B01D152010D23550C01D112016E
:100C60001B1DD50C01D192009B1C150D01D152000A
:100C70005B1C2025EE1A01E02CE022E00546F54041
:100C800015439840CA1AE10769181305C918002AC4
:100C9000BBDA032040070818C10FC9070FE07146EF
:100CA0006118B2E7F10740080843711071444A0027
:100CB0000CD001235B059A42A7D2C90FC9070020B7
:100CC000A3E74905490D26D1002001E00028F4D111
:100CD00000219AE7284D6600002801D0012100E09C
:100CE000002171185F00002A01D0012600E00026D3
:100CF000BE19224FA94210D8AE420ED8B14208D038
:100D000001256D05E94206D01946A802414010466A
:100D10007BE79C4201D0214677E70020394674E703
:100D200010B50C465C4005D50124E4076340FFF78D
:100D30000CFF10BDFFF778FE10BD30B40C465C40D0
:100D400004D50124E407634030BC6DE630BCFCE60A
:100D500070B50124E40761400D465D4002D4FFF701
:100D600063FE70BD6340FFF7F0FE70BDFF0700003B
:100D70000000F0FF0000F07F0000E0FF0000F87FBF
:100D8000F0B5F94D0C091E092C402E402F468BB0B2
:100D9000A7437DD0B543FCD0002E7AD0002CFCD0E8
:100DA0000D465D40ED0F2543AC1BFF25AD046419D6
:100DB0000894C502440DC9022143500DDC020443CE
:100DC0000120C00701430443D2020191200C110C01
:100DD00000958C46010423468B430A916146090421
:100DE000E24D8A430991010A7D4449198039097805
:100DF00005464D4301266D18F605751B6943C90C60
:100E0000640B891C4C436418B5012C1B250C2E0463
:100E1000B4434C434D43210C691889090591009D49
:100E2000E90701D00121C90704912C4601996708FF
:100E3000CD072F434C08059DE10B4D432D0C294652
:100E40006646754302950D4645432E46029D7D1B21
:100E5000B44100950D465D4301942C0C2F040D46C2
:100E60005543AE462D0C3D43029503947546049CB4
:100E70002D04641B049406D2029C039D641C00266E
:100E800075410395029401AC70CC009F7D1B01E07D
:100E90003EE162E1B441090400950791019405998E
:100EA000A4086143090C0C464443650BE7040C4657
:100EB00066467443A646640B3C430395029474460D
:100EC000049DE4042C1B049406D2029C039D641C24
:100ED000002675410395029401AC70CC009F7D1BE8
:100EE000B44101940C465C430095650FE7000C4645
:100EF0005443A646640F3C43039502947446049DF4
:100F0000E4002C1B049406D2029C039D641C002662
:100F100075410395029401AC70CC009F7D1BB441D8
:100F2000AE09AF06049DC900AD092F43049DA40678
:100F3000AD060495079D344369180791059DE10BA3
:100F40004D432D0C29466646754302950D46454393
:100F50002E46029D7D1BB44100950D465D430194D4
:100F60002C0C2F040D465543AE462D0C3D430295E7
:100F700003947546049C2D04641B049406D2029CC1
:100F8000039D641C002675410395029401AC70CC4E
:100F9000009F7D1BB44101948C050694079C890A2F
:100FA000611800950791019C0599A4086143090CFB
:100FB0000D464543680BEF040D46644665436C0BD4
:100FC0003C43049FED047D1BAC4602D20025641C0B
:100FD0006841009E019D371B854108465843019595
:100FE0000C46460FC5005443600F28436546E40095
:100FF0002C1B02D20025401C6E41019D3F1AB541B9
:101000002846BD09800628438446A009BF064E0233
:101010000699A40676180743079D002068410A999F
:10102000079019430020099B00906046FF19134365
:101030004041E20F64003A43A4460446D71A8C416B
:10104000A04203D90120009020463A46C70F9418C9
:1010500040416246D20F2243644664000494009CDF
:10106000BE466400D71AA446044602978C417746D0
:10107000002F01D1A04204D96046401C8446029A48
:101080002046C40FA64694184041049A0546D20F44
:10109000224364466400D31A8D417146002901D170
:1010A000A84202D928461A46641C1043012200288F
:1010B00000D0164361020020079B891904465C4159
:1010C0000223002C02DB491813466441089DCE0A16
:1010D0002D145D194B056705E10A2C050D190899BA
:1010E0003E43C9076940002B08D0934006D3002235
:1010F000761C5141002B01D1760876001C4A002D48
:1011000043DB154241D0AA433FD030460BB0F0BD7F
:1011100006180D464D41174C7642AC411AD395182E
:101120001C465C41134A6D42A24113D30122520571
:101130004C00D4420AD15C00D4420BD04B4002D5C3
:1011400092021143E2E749004908DFE75940C90F1D
:10115000C90718E000200849D8E7054801420DD129
:101160000342F7D0F2E700000000FF075CB1000087
:101170000000F07F0000E0FF0000F87F11485940B8
:101180000143C01241400020C0E70123089A9B069A
:101190009A4205DC032252078918C90FC907B5E72F
:1011A000052252078918074A1143D2125140ADE770
:1011B00070B515461C4602460B4628462146FFF7E9
:1011C000DFFD70BDFFFFFF7F30B50346CA02400D53
:1011D0001043164D164C0A1502D02043002A06DB98
:1011E000AA1A002A12DDD040FF2A0BDC30BD5205BE
:1011F000520D01D140004008AA1A07D4D040404205
:10120000FF2A01DD002030BD0028FCDD4A00002B54
:1012100001D0012000E00020101801225205D04228
:10122000F0D8C817C043604030BD00001E04000065
:10123000000000801F22030C02D10F22000402D004
:10124000030E03D004E00020014670470002083A74
:10125000030F01D10001121F830F01D18000921EE4
:10126000002801DB4000521E120551184205C01231
:10127000411810467047C10FC90700D040420122F3
:1012800092071143D6E701218907D3E7F0B58B4CCC
:101290000F09254689B0BD437BD01D092646AE43C4
:1012A000FAD00E465E402740F60F3E43254071D0EF
:1012B00024012142FBD0FF24AD19A4042D1B03956A
:1012C00001252D05DB02DB0AC9022B43C90A29438C
:1012D0001E010901040F130F050121431701880B9B
:1012E000820391432D098C46A90B1E438A03954323
:1012F000B30B9A0396433F09BA0B9403A743029694
:101300002E467E430497B6464E19D7190C460196D1
:10131000544305977E43371B7646BF1B3601B646BE
:10132000BE0B361900967646BC043719009C01D3D3
:10133000641C00946400002F01D001263443029EF7
:10134000049F754366467E430496760034196E000A
:1013500034190094029C019E1C196643751BAE460D
:10136000069465464519059C05956C435943754699
:101370000891691A0191049E01465143A41B0491EE
:10138000611A009C0791E10605D061090122114311
:1013900002E072E06EE06109089D00272C0A2D062C
:1013A0006918049D7C412A0A2D066918019D624135
:1013B000AC0DAD026D185441079A910D920255196A
:1013C0006141029A644658435443069B059A5A4326
:1013D000121A131B9A0E9B015B187A41010B000530
:1013E000C3185141220A200644195A419A4200D298
:1013F000491C01204002814203D315230226F643F3
:1014000002E014230326F6432020C51AA9401746FC
:10141000AF40DA400A4320460399D84009147318B4
:1014200019055118039A3843D2075140AC4009D0EE
:101430000122944006D30022401C5141002C01D1CE
:10144000400840001E4A934212D30122039892069C
:10145000904207DB0520400709181A480143C012D3
:10146000414004E0032040070818C10FC9070020CD
:1014700009B0F0BD0020F107FAE705180C464C4111
:1014800011486D42A04115D394181A465A410E488E
:10149000644290410ED301204A004005824209D3A4
:1014A0005A00824206D35940C90F084AC907002092
:1014B0001143DDE700200649DAE700000000FF07DE
:1014C000FE070000FFFFFF7F0000E0FF0000F07F4D
:1014D0000000F87F70B505464800440D124B00200F
:1014E000002C0AD0634008D09A4206DA6642B24223
:1014F00003DD12054019514170BD002C08D0002BAE
:1015000009D0C90FC907002AF6DB084A114370BD8C
:10151000C90FC90770BD28460A03104302D0002036
:10152000034970BD284670BDFF0700000000F07F32
:101530000000F87F0121C9050123411842001B0664
:10154000D3185B0E0AD0C1100722D20689184007B3
:101550005242D14201D5520089187047090208D57C
:101560000146002A03D0C10FC9070020704710466A
:101570007047420202D00020024970470721090546
:101580000143F4E70000F87F10B501469E240002F5
:10159000CA15A307002A02D01843002A04DBA21AA6
:1015A000002A0CDDD04010BD1206120E01D1400001
:1015B0004008A21A03D4D04040420028F3DDFF22A5
:1015C00048001206904201D9002010BDC817C04340
:1015D000584010BD0102C21504D00123DB07194396
:1015E000002A0ADB9E239A1A02D40846D04070478C
:1015F000FF2241001206914201D900207047C01716
:10160000C04370471F22030C02D10F2200041CD0DC
:10161000030E01D10002083A030F01D10001121F8D
:10162000830F01D18000921E002801DB4000521E72
:10163000D2055118021251181922904004D3491CA6
:10164000002801D14908490008467047C10FC90761
:1016500000D04042012292071143D3E701218907BC
:10166000D0E7000010B5FF22C30D134009D05A4047
:1016700007D0914205DA5C42A14202DDC905081893
:1016800010BDC40FE407002B06D0002A06D00029A5
:1016900002DBFF20C0050443204610BD4102FCD000
:1016A000004810BD0000C07F10B505F03FF810BD28
:1016B00010B5FFF7F9FF006810BD10B50446FFF73D
:1016C000F3FF046010BDFFB504460D4681B0243021
:1016D00000902168880604D51022E06991432160BA
:1016E00000E00120A84201DD471B00E0002704982C
:1016F000A1697A191018081AA0612078C00602D4CE
:101700002046C046C046002608E003986268A168EB
:10171000805D9047206A401C761C206204988642B7
:10172000F3DB2078C0060AD52046C046C04606E056
:101730006268A16830209047206A401C20623846C9
:101740007F1E0028F4DC07E000986268A168405D15
:101750009047206A401C206228466D1E0028F3DC5A
:101760002046C046C0462078000602D5022005B0BB
:10177000F0BD0120FBE700007047FFB50C461E4698
:101780008FB003CA089009914F007D0D00D16D1EE6
:10179000002108460020C0460321099A8905084017
:1017A000002A03DA8200801840080840800D0128D2
:1017B0000A9002DD0020C0430A90089807430DD02C
:1017C000F048F149281848430714189800281DD0FC
:1017D0007542291E1DDD0A9842421BE01898012817
:1017E00002D00020302104E00020F24305E0215423
:1017F000401CB042FBDB30460022189B00212154E4
:101800000F998B600A60486013B0F0BDBD1B6D1C62
:10181000DFE70A9A002900DA69420BA800F02AFCE7
:101820000BAB07CB03AB07C30899099800F08EFCFC
:101830006B4607C30146D5480918002D00910BDD02
:10184000D24903980A9A49424018002303A90390F9
:10185000684600F0EBFE08E003990A9A0023081896
:1018600003A90390684600F08BFE6B4607C3000493
:10187000000C03D00020C043410800E01046189A35
:10188000002A03D00022009215461EE0751E05D4E2
:1018900000F0EFFA303262556D1EF9D5012208438F
:1018A000079602D000227F1C04E02078302801D166
:1018B00000227F1E002A069787D01EE0112D07DA2E
:1018C00000F0D7FA303262556D1C02460A43F5D15A
:1018D000084303D00098002819D00EE00021681EAC
:1018E00005E0235C625C63542254401E491C814223
:1018F000F7DBA81B401E07950690079A1899002051
:10190000A0540F98079B069A81600CC07CE71126B3
:101910000020189059E7D21DF0B50D460446D108B5
:1019200093B0C90003C90C900D9104F023FB02464B
:101930000D98C00F01D02D2007E02068810701D548
:101940002B2002E04007C00F4001032A0F9001D076
:10195000072A05DB03462946204600F0D1FA0EE1AE
:101960002078800601D5E76900E006272846652D26
:1019700004D0662814D0672D69D12DE00020112FE6
:10198000009001DB112300E07B1C0CAA03A910A826
:10199000FFF7F3FE1199002610987D1C0E9142E08E
:1019A00001203B460CAAC0070B900120009003A920
:1019B00010A8FFF7E2FE119D12981099002600284A
:1019C0000E9501D1781C0D18781B02D446427D1C5F
:1019D000761EE81B00903AE0012F00DA0127002074
:1019E000112F009001DD112300E03B460CAA03A952
:1019F00010A8FFF7C2FE11993D46109800260E91DF
:101A0000217809070BD40E99A94200DA0D4603A9E3
:101A1000012D04DD4A19203AD27F302A06D0B8427F
:101A200001DA011D04DA012100910FE06D1EEFE7DC
:101A3000002802DC86192D1A03E0411CA94200DDB2
:101A40000D46801B401C00900120C0070B902078A1
:101A5000000705D40098A84202DB0020C043009094
:101A600069460020C8720B98012102AF0337C907ED
:101A7000884225D0022010902B2011900B9800282E
:101A80000BDA40420B902D20119006E00B9800F0ED
:101A900055F930317F1E0B9039701099481E00297E
:101AA0001090F3DC0B980028F0D111987F1E38704D
:101AB0002088000501D5452000E065207F1E387094
:101AC00001A8C01BC01D0B900F98002800D001205A
:101AD00041190098C01709180B980818A169081A2D
:101AE000401EA0612078C00602D42046C046C046F1
:101AF0000F98002805D06268A1689047206A401CB2
:101B000020622078C00625D52046C046C04621E088
:101B1000002E07DB0E98B04204DD03A86268805DEA
:101B2000A16802E06268A16830209047206A761CB4
:101B3000401C20620098401E002800900AD100F04E
:101B400093F9C06862680168405CA1689047206AA8
:101B5000401C206228466D1E0028D9DC07E0626820
:101B60003878A1687F1C9047206A401C20620B993E
:101B7000481E00290B90F2DC2046C046C0460320D8
:101B800042E6000001FCFFFF104D0000E1DFFFFF17
:101B900001694A1C02610878704700B58FB0029154
:101BA0000021059105490193794403911146049060
:101BB0006846FEF7D3FC0FB000BD0000E5FFFFFF55
:101BC0000A681070521C0A60704710B54369002BF8
:101BD00002D0C046C04601E0FEF734FC012010BD33
:101BE0001278014624310A7000224A700122ECE783
:101BF00011680022D243E8E7084B70B50D467B44DC
:101C0000FFF7CBFF0446284605F08CFA002802D0E7
:101C10000020C04370BD204670BD00002955000063
:101C20000FB4002300B589B00CA900910B99CB60CB
:101C3000224B7B44224A7A44079204220693019263
:101C4000204A0292204A7A446B46089202460020BB
:101C500009F0D2FE09B008BC04B0184770B50646BA
:101C600015460C46324686B00020C0430190002045
:101C7000049004A8009102916946FFF7D1FF024643
:101C800004982118002D05D0002801D0084600E056
:101C900020462860049800280DD0002A02DD009814
:101CA000884208D03246081B6946019004A8009477
:101CB0000294FFF7B5FF06B070BD000053030000AB
:101CC0006F030000FFFFFF7FA3020000F7B50F4680
:101CD0000026009C2578641C002D05D000F0BCF87F
:101CE0000068405DC007F5D12B2D02D02D2D18D0F6
:101CF000641E3946029A204600F068F9002F04D08D
:101D00003968A14201D10099396071050224002986
:101D10000BDA4042002803DDFFF7C6FC0460A00791
:101D2000FEBD012080020643E3E70028F8DAFFF752
:101D3000BBFC04600048FEBDFFFFFF7F014680083A
:101D4000081A02091018020A1018020C1018C0080C
:101D5000820012185200891A01E0401C0A390A292F
:101D6000FBD27047F8B5224C4E00069DA6420AD819
:101D7000A64201D1002806D15E00A64203D8A642A1
:101D80000AD1002A08D00D24240425422CD029464B
:101D9000002000F09BFCF8BD0C461C430CD499427B
:101DA00002D0EFF30080F8BD904202D0EFF3008044
:101DB000F8BDEFF30080F8BD09242407E5008B424D
:101DC00006D0EFF30080A043591A06D2284304E05E
:101DD000101A05D3EFF30080A04380F30088F8BD0C
:101DE000EFF30080A043F1E7009500F087FCF8BD19
:101DF0000000E0FF10B5FF231B0644009C421DD8E5
:101E00004C009C421AD80346124A0B4307D4401A8E
:101E100002D3EFF3008010BDEFF3008010BD081A6D
:101E200006D2EFF3008001219043C907084302E086
:101E3000EFF30080904380F3008810BD0D231B0456
:101E40001A4204D01146002000F040FC10BD00F002
:101E5000DFFC10BD0000009010B500F005F8001D7B
:101E600010BD00BFD597000010B5FEF7C5FA2030B1
:101E700010BD0B4670B50246890780080843194615
:101E80009D08141AA94125090807054308092C19BA
:101E90004841250A01060D43010A2C194141200C35
:101EA0000D0428430D0C00194D41002140194D41EE
:101EB000C00869070843E908840F8D0025438400A2
:101EC00024184D4124196D41121BAB4107E009252F
:101ED000ED432C11521963410024401C61411C4602
:101EE0000A250026551BB441F1D270BD10B5044639
:101EF000FFF7B2FF0068005DC007C00F10BD000013
:101F0000F8B51F46044601230068DB02032601469C
:101F10001840072A05DB002801D017A506E017A501
:101F200004E0002801D016A500E016A5102081438A
:101F30002160A069C01E002FA06101D0401EA061D9
:101F40002046C046C046002F09D038466268A168C6
:101F50009047206A401C2062C01C206206E0206A74
:101F6000FAE762682878A1686D1C9047761EF8D25F
:101F70002046C046C046F8BD4E414E006E616E0020
:101F8000494E4600696E66004268002A08D0016822
:101F90000B78491C002B03D0521E06C01846704710
:101FA0000121C160881E70474268002A0BD0C368B7
:101FB0000168002B07D183688B4204D0491E521C54
:101FC00006C0002070470020C0437047F7B5154693
:101FD00082B00027029C2078641C0197302802D030
:101FE000002D15D015E020780127641C782804D036
:101FF000582802D0002D09D00BE0002D01D0102D63
:1020000007D1207800271025641C02E0082500E095
:102010000A250026009610E0009901276943081858
:1020200029467143020C80B200908E183804864213
:1020300001D3012001902078641C294600F015FC92
:102040000028E9DA0398002805D0002F01D0641E8B
:1020500000E0029C04600198002806D0FFF724FBF2
:1020600002210160C81E05B0F0BD0099300408438C
:10207000F9E70000F7B516468AB0334878446C4655
:1020800003467C33C06F5A689B680DC42E48784461
:10209000763003AC0DC80DC43720C00108183721B5
:1020A0001B30FEF7DDFB05460C46803D1B3C02D590
:1020B0006442012000E000200027099010E0E007C2
:1020C0000CD00C2020497843794432464C394118D1
:1020D0006846012300F054FA6B4607C364107F1C66
:1020E000002CECD1184F7F442E3F16E0E80712D0A9
:1020F0002001C0190EC80691089307920068F042AB
:1021000001D1981908903246012306A903A800F0CE
:1021100037FA03AB07C36D10641C002DE6D1099894
:10212000002806D032466946012303A800F07EFA53
:1021300005E001233246694603A800F021FA0A9B14
:1021400007C30DB0F0BD000048A1000003464000E9
:102150000A4610B5400D0BD00121C9070F24A40277
:1021600000191C0364082143540D2143D20207E0E7
:1021700000210120F2E7D40F490021435200401E04
:102180000029F8DADB0FDB07184310BDFFB50D4659
:10219000144685B04868516803F0C6FE009101906E
:1021A000A868A16803F0C0FE02910390A868616866
:1021B00003F0BAFE029A12188242029201D2012062
:1021C00000E00020019A0B18D2180028019202D0DA
:1021D0008A4202D903E08A4201D2012000E00020B5
:1021E0000099081800906868A16803F09DFE029AA3
:1021F00012188242029201D2012000E00020019ACE
:102200000B18D2180028019202D08A4202D903E0AA
:102210008A4201D2012000E00020009908180090B5
:102220002868216840004900400849084018FA49D8
:10223000471814E001994000C90F08430090019825
:1022400002994000C90F0843019002980399400089
:10225000C90F08430290039840007F1E0390009826
:102260000028E7DA0898002801D0EC4E00E00026AC
:10227000B74201DA012000E00020002804902AD0B3
:10228000F71BF806C00E15D0029B2021091A039AED
:102290008B401A430392029A019BC2408B401A431F
:1022A0000292019A009BC2408B4000991A4301920E
:1022B000C14000917B110DD06F460320C11A03D598
:1022C00000218200B95003E08A008100BA587A5098
:1022D000401EF3D5374603980299002800D001200C
:1022E000014308980291002808460CD0002800D02D
:1022F00001200199019A490508430121D20AC90226
:10230000D202019200E001210E9B0122D207012B93
:1023100002D0002B03D013E0002807D120E0904228
:1023200004D890420CD1019B0B4209D0019B591853
:10233000019105D10099491C009101D17F1C0092A7
:1023400000280DD0102108460020C046049800281F
:1023500006D00F98002803D0082108460020C04668
:1023600028682168019B009A4840C10F0598C90759
:1023700039430EC009B0F0BDFFB587B0099A08987F
:1023800008995368926840688968964600220393CA
:1023900017469446089A12685300099A5B08126817
:1023A000520052089A1A9E4BD4180A9A002A01D059
:1023B000352200E0402206920022012315460492B5
:1023C000DB07059324E0002D05D175460346039EE7
:1023D0004D1BB34109D375466646039B491B049DBB
:1023E0009841059B7519AC465F4163463B4308D055
:1023F000059B049EDD0776082E435B080496059333
:1024000001E0521E641EC50FED0749184041521CE1
:10241000069B9A42D7DB002D04D17546039A6B1AAE
:10242000824101D203200CE0039A0B466B404240EC
:10243000134303D0014303D0012002E0022000E057
:102440000020614601910021009702910A9900291C
:1024500005D0614640020143704B019102E08007C4
:10246000002302909C4201DA012000E000200700D6
:102470003AD01A1BD006C00E15D0029D2021019C17
:10248000091AC5408C402543029C8C4000D0012491
:102490002543019C0295009DC4408D4000992C432A
:1024A0000194C140009154111DD06D4602210022BB
:1024B00002290CD10320001B07E0002804DB860062
:1024C000AE59002E00D00122401C0328F5DB081B6A
:1024D00002D588002A5004E08000285810438A0062
:1024E000A850491EE3D51C460A98002802980CD033
:1024F000002800D001200199019A490508430121D3
:10250000D20AC902D202019200E00121109B0122ED
:10251000D207012B02D0002B03D013E0002807D1F3
:102520001FE0904204D890420CD1019B0B4209D08D
:10253000019B5918019105D10099491C009101D1C5
:10254000641C009200280CD0102108460020C046D0
:10255000002F06D01198002803D00821084600203B
:10256000C04608980999019A009B0068096848408C
:10257000C10F0798C907214382600AC00BB0F0BDA4
:1025800000B585B0019300920A460146002302A8D7
:10259000FFF7FCFD02A807C805B000BDFFB50A465D
:1025A0001F4685B00799019301230091014602A8B7
:1025B000FFF7ECFD02990398049ECA0F4900D20769
:1025C00000920F22490892028C1A0021002800DB99
:1025D0000C46450013486D08844214D3079A002A1C
:1025E00004DA441E0026104DF64302E004460D4670
:1025F0000E46102108460020C046002F03D00421BB
:1026000008460020C0462005E90A0843009908430F
:102610006905F20A1143ADE602C0FFFF013C00006C
:10262000FF3F0000FF070000FFFFFF7F00B585B000
:10263000019300920A460146002302A8FFF79CFE80
:1026400002A807C8A8E7FFB50A461F4685B0079944
:10265000019301230091014602A8FFF78DFE029924
:102660000398049ECA0F4900D20700920F2249081E
:1026700092028C1A0021002800DB0C46450011480C
:102680006D08844214D3079A002A04DA441E0026F7
:102690000D4DF64302E004460D460E461021084655
:1026A0000020C046002F03D0042108460020C04669
:1026B0002005E90A0843009908436905F20A114315
:1026C00058E60000FF070000FFFFFF7FC80212D599
:1026D0004803400F002804D0C803C04301218840AC
:1026E0007047EFF300800001000903210907084348
:1026F00080F30088704700207047000010B500206C
:102700000249029A00F050FB10BD00000000F87F63
:10271000F0B53D4B02460C461C400020002C63D017
:102720003A4D8B4366D000296BDB0B0D1D05A94389
:1027300001252D0529430124FD33E34001D39218DF
:102740004941FF3381339C468B02940D0121234381
:1027500089074C42920200271B198C105D1A04D481
:102760002D1B02D42B466500491992185B41640861
:10277000F4D15C1A08D40125ED07EE175519744100
:1027800002D42A462346491C94185B410122920731
:102790001D46E61B8D4106D4B61A854103D42B464F
:1027A000550034467F1924195B415208802AEFD125
:1027B000234300D0022338460A22D04001D301220D
:1027C00013438A0510436246890A12058918002BB3
:1027D00009D00122D34002D30022401C5141002BDA
:1027E00001D140084000F0BD0B03134307D0C90FCF
:1027F000C907F0BD0803104303D1002901DB1046CF
:10280000F0BD00202946F0BD0000F07F0000F87FF9
:1028100010B5024800F0C8FA10BD00000000C07FEB
:1028200001491820ABBEFEE7260002007546FDF701
:10283000E3FDAE46050069465346C008C000854624
:1028400018B020B5FDF7BCFD60BC00274908B646AE
:102850000026C0C5C0C5C0C5C0C5C0C5C0C5C0C5AF
:10286000C0C5403D49008D4670473A2800D23038F7
:10287000202302469A43412A01D310463738884222
:1028800001D30020C0437047FFB58BB00878FF2804
:1028900006D0491C2D2805D000230020009009E017
:1028A00000200EE00123F8E7009A0A246243801812
:1028B000491C00900878FF28F6D1002B02D0009820
:1028C00040420090002503952C460D9800782D2855
:1028D00001D02B2815D10D99491C2D280D9102D01E
:1028E000002003900DE00120FBE7401C214600275B
:1028F0000A223B460D90284600F086FA35183C46E1
:102900004C410D980678FF2EEFD10021084600209B
:10291000C0460399002902D08100401840080002F7
:10292000860F012E01DD0026F6430E990098471808
:10293000284620430BD0FF20F530C7421ADA03980F
:10294000C1070B98002E41600ADD012009E00398C1
:10295000C1070B9841600B99002008600FB0F0BDD3
:1029600000200B990860FEF79FFE022101601821EC
:1029700008461AE0FF20F530874219DD002E02DA02
:10298000FC48784401E0FC48784406C80B9806C02F
:102990000B9803994068C90708430B994860FEF7F4
:1029A00083FE02210160142108460020C046D5E7BD
:1029B000002108460020C04639000A9001D5724225
:1029C00000E03246002900DA794207A8FFF752FBFF
:1029D00007AB07CB04AB07C3E848009000200146D3
:1029E000214304D12C460546E44920390091210CAD
:1029F0000904014306D1290C24040C4300992D0439
:102A000010390091210E0906014306D1290E240236
:102A10000C4300992D0208390091210F0907014349
:102A200006D1290F24010C4300992D01091F0091A3
:102A3000A10F8907014306D1A90FA4000C430099F7
:102A4000AD00891E0091E10FC907084304D1009829
:102A50006D196441401E0090002F0295019406DD1F
:102A600032466846012304A9FFF798FD05E00123DB
:102A70003246684604A9FFF7E6FD044603980D4672
:102A8000002802D00120C007444000210846002051
:102A9000C0460A99BA4E48400007800F07D160002F
:102AA0004008284303D06000400DB04214D1FEF727
:102AB000FBFD022101606000400DB0420CD1B14825
:102AC000784406C80B9806C00B98E10FC907406808
:102AD00008430B99486041E70B9844600B980560E8
:102AE0003CE7FFB51F4695B0002000250C909E687E
:102AF0005C68ED431390FFF7B7F9C0680168405C6C
:102B00001490B96916986D1C88470A90396A8847ED
:102B10000028F6D10A98401C0AD00D20C001844339
:102B2000002E12DD0A982B2809D02D280DD103E0A4
:102B30000020C04319B0F0BD012080020443B969F0
:102B400016986D1C8847761E0A90600504A901D569
:102B50002D2000E02B206A46491C107410A8002E7E
:102B60000D910B903BDD0A98692805D0492803D0C8
:102B70006E2801D04E281DD13B46039002200296BC
:102B8000179A1699C0430095019408F045FFC11C9F
:102B9000D0D10FE0B96916986D1C88470A900120C2
:102BA000761E40020443179805601398401C002EBF
:102BB000139014DD0A983028ECD0782801D05828DA
:102BC0000DD1139801280AD13B460296179A1699FF
:102BD000001F0095019408F017FFC11CAAD1149999
:102BE0000A98884246D18020044308E00C9817993F
:102BF000401E0C90012040020443681C0860B96923
:102C00006D1C1698761E884730280A90EED031E069
:102C10001499884205D1200603D480200443761EEF
:102C20001EE00A9803F0BEFD002826D0012008A966
:102C3000400204430D980331761E88420BD20A9855
:102C40000D99303808700D98401C0D90200607D55E
:102C50000C98401E03E0200602D40C98401C0C90F7
:102C6000A00502D51799681C0860B96916986D1CF3
:102C700088470A90002ECBDC59E0002E57DD0A98D9
:102C8000652801D0452852D1A00550D50320B96947
:102C9000000284436D1C1698761E8847002E0A9009
:102CA0000CDD2B2804D02D2808D1FF20013004434F
:102CB000B96916986D1C8847761E0A90E00501D503
:102CC0002D2100E02B210B9801700B98401C0B90DC
:102CD000009025E0012012A9400204430B98013125
:102CE000761E88420ED20A980B9930380006000EE4
:102CF000087003D100990B9888420AD90B98401CA0
:102D00000B9006E0E00501D51F4801E01E48404257
:102D10000C90B96916986D1C88470A901798056041
:102D2000002E04DD0A9803F03DFD0028D2D1F96998
:102D3000169888470D99FF2004AA08700B9908700F
:102D400000200E900F900C9B10A90EA8FFF79CFD81
:102D5000A00502D40120C043ECE62420044215D093
:102D6000E0071FD138680F9A0E99031D3B60006879
:102D700006C017E012A2000004A200003E400000BE
:102D8000FF070000CCA00000F1D8FFFF0EA96846A5
:102D900003F056FCE00705D13868009A011D396040
:102DA000006802602846C5E610B50C461107090FF9
:102DB000092904D00A290AD008290CD104E01146B7
:102DC0000820FFF783FC06E0510606D501E0510616
:102DD00001D50120C007214610BDD10607D501014C
:102DE0000909CC084907000E0006044309E0410F19
:102DF00020024907000A0143200E00061D22D1418E
:102E000001430846E7E770474343514330B55C1838
:102E1000010C130C0D4692B25D4380B251432C1944
:102E2000054655430A0C09044D1962415843010CEB
:102E300000044019514130BDFFB51F4689B01398B9
:102E400012994005C00FC007059000200790054665
:102E50000446461E049002903C20491C12910690A4
:102E6000B9690A98884703901498401E14901498E2
:102E7000002841DD03982E2816D01021FFF7F5FC1D
:102E8000002834DB01210491079901431AD00699E7
:102E900000290CDB069AC11700F006FA05430698D4
:102EA0000C43001F069006E0012002900EE000286F
:102EB00001D001200543012007900298002805D188
:102EC000361D03E00298002800D0361F1298401CDF
:102ED0001290B9690A98884703901498401E14907C
:102EE00004980028C3D00B9912980860BFE7039894
:102EF000702808D0502806D0F9690A9888470498A5
:102F0000002815D051E00020039001200290049881
:102F100000280AD01298401C1290B9690A98884774
:102F20001499491E0029149106DCF9690A9888470A
:102F30000120C0430DB0F0BD2B2804D02D280DD1A9
:102F40000020C04302901298401C1290B9690A9860
:102F500088471499491E00291491E6DD411CE4D0EC
:102F60000A21FFF782FC0028DFDB03990A22514384
:102F7000081803901298401C1290B9690A98884763
:102F80000A21FFF772FC14990B9A491E14911299A9
:102F900011601499002901DD0028E6DAF9690A9820
:102FA00088470299039848438619139824210840BA
:102FB00004902846204304D0A10F8907090002D0BD
:102FC00006E005989BE0A90FA4000C43AD00B61ED7
:102FD000E10FC907080002D16D196441761E0498FB
:102FE000002803D00B2002905D4803E028200290C7
:102FF0007D20C0438642039007DA811B029808189F
:103000004128029001DD41200290029A0120002116
:10301000521E00F049F9024628400B462140084361
:1030200001D0012000E0002007900020521EC04384
:1030300043412A4023401A4301D0012000E00020F0
:1030400007990690014352D0002108460020C0464F
:103050000321059A89050840002A05D082008018BE
:10306000C20F1018401008408015012802DD002012
:10307000C04301E0012815D0401C38D00798002833
:1030800035D0069800280DD1029A0120002100F0C9
:103090000BF928402140084301D0012000E0002026
:1030A000002824D0029A0120002100F0FDF80346F8
:1030B00040198C4661412A1A8C410FD3029840284E
:1030C00007DD0498039E002801D0343E02E0173E3D
:1030D00000E0761C01240025E40708E05B1E624640
:1030E0000024E4436241DD43D44305400C4003988F
:1030F0000121081AB04206DA1A49059808430190DE
:10310000002000900EE060006205010BE80A104309
:10311000059A009068460A4313490A4331460192D2
:1031200003F0FAFA049800280AD01398C00714D1C3
:103130003868019A0099031D3B60006806C00CE0E6
:1031400002A8694603F07CFA1398C00705D13868D5
:10315000029A011D3960006802601298EAE60000D8
:1031600002FCFFFF0000F07F0000F03FFFB51D46AE
:1031700087B01198484A109C129E40051399C00FC1
:10318000761EC0070243019200220092FF22D20560
:103190001043202291434929059003D017464E2918
:1031A00028D04FE03DA002AA0BC801270BC2A96995
:1031B0000898641C8847761E014607D402A8C05DA3
:1031C000002803D02022914381420AD0E96908985F
:1031D0008847032F36D0082F34D00120C0430BB0CE
:1031E000F0BD7F1C032F01D0082FE0D10999601C8E
:1031F0000860DCE7A9690898641C8847761E2DD40E
:10320000B84341282AD1A9690898641C8847761ECA
:1032100024D4B8434E2821D1A9690898641C884752
:1032200001990122D204114301910599D200114361
:1032300005910999761E0C6001D4282806D0E96909
:10324000089888471198C00712D023E0A969089808
:10325000641C8847761E01D4002803DAE9690898BF
:103260008847BAE72928F1D10998641C0460E9E786
:1032700011982421084207D02868019A0099031D5B
:103280002B60006806C005E028680599021D2A60C9
:10329000006801602046A2E70000F07F494E4649E1
:1032A0004E4954590000000010B5202A04DB0146A5
:1032B000203A9140002010BD914020239C1A0346E3
:1032C000E3401943904010BD00000000CB070222EC
:1032D000002B02D0036A134303628B0702D5836A73
:1032E00013438362490702D5C16A1143C162704723
:1032F00002490120C86702490863704700000020A6
:1033000000000E4030B5046A054D2C400C431443B8
:103310000462416A090A09021943416230BD000092
:10332000F3FBFFFF1FB509491EC903946C460EC489
:10333000810F8A0069468A58054951184A68C306B0
:10334000DB0E0120984002434A601FBDB0BE000062
:1033500000020050F0B507000C46564885B05449AD
:103360000162554E016813D0042211430160102000
:1033700000F0B6F90120C0040290504804250390E3
:103380004F485049201888420DD8002004901CE076
:10339000012211430160104600F0A2F9002002252D
:1033A00003960290ECE7484848492018884203D821
:1033B00001206400049008E045484549201849422E
:1033C000884249D80320A40004900026F643002038
:1033D0000090019021E029460398FDF737FA3D4916
:1033E0003D4A4118914217D20222354B01465143C2
:1033F0005B1CCF185B429F420AD8A14201D90B1B2C
:1034000000E0631AB34203D21E000095019203D07C
:103410003249521C8A42E8D96D1C212DDBD904980F
:103420000299800308430099012249029202891AF5
:1034300008430199891E08431E490862042000F0D0
:103440004FF904990098491C41430398FDF7FEF990
:103450000199484305B0F0BD002F0FD02049154811
:103460000162042000F03CF91EA0006800901148A1
:10347000016A0013014203D00020EBE71A49EEE78E
:10348000080300D50D4E880301D53046E2E7080455
:10349000800F6A46105CCA058904C90E891CD20DCA
:1034A0004143B008921C5043FDF7D0F98000D1E7AA
:1034B0000000010000020050001BB7000080510115
:1034C000FF1E0AFAFFE0F5057F0F05FD7FF0FA0207
:1034D000C08782FEFF95E7FFBF77CC0001020000A6
:1034E0006FD60000010202042EC2000002490A68E1
:1034F00002430A60704700000002005008B511A0A6
:10350000006800901048016A0013014201D00020B9
:1035100008BD080301D50D4800E00D488A03F7D423
:103520000A04920F6B469B5CCA058904D20DC90E32
:10353000891C8008921C59435043FDF787F980008D
:1035400008BD000001020204000200500080510189
:10355000001BB700F8B51B4CE56810210D401A4957
:10356000884202D84910884200D2084621680426C1
:1035700031432160E168C906FCD521690722114366
:103580002161216A01221204114321622168C907C5
:10359000014604D00020FFF7DDFE074607E00120CA
:1035A000C004FFF7D7FEE56807461020054000215C
:1035B000022000F00BF8002D02D12068B0432060FB
:1035C0003846F8BD0002005080F0FA0270B5104C89
:1035D000E56810262268354004231A432260E26819
:1035E000D206FCD5226907231A432261A269120977
:1035F00012010A43A261216999430143216101F04B
:10360000F7FF002D02D12068B043206070BD00009C
:1036100000020050F0B52C4B86B01C460834F0CCAC
:10362000009401ACE0C418CB0493430E05945B07EF
:1036300034D083009B0F9B006C46E358234C1B192E
:103640000401650FC401E40EA5401C68AC430C43A3
:103650001C601E4B1E4C103BA04207D1DD69FF24AD
:103660000134A54321400D43DD6117E0194CA04210
:1036700003D1DC6901256D020CE0174CA04203D197
:10368000DC690125AD0205E0144CA04206D1DC69DD
:103690000125ED02AC4329400C43DC61830A190685
:1036A000090E0FD00103890F890004AC6158074C43
:1036B000800508340919DBB2C00E834008689843BE
:1036C0001043086006B0F0BD98BE00001002005024
:1036D0001400C0571500E0571600406617006066DA
:1036E00010B504460749084B05E00A46491E002A62
:1036F00001DC002010BDDA6820469043F5D101209E
:1037000010BD0000804F12000002005070B51B4A2F
:103710000020116A1A4C8E051A4901230546002E15
:1037200008DA5802106218480360606A002818D04E
:103730004D630120166A760509D514480360A46A12
:103740000120002C0FD00D63012189021162116A42
:1037500089040AD50120400310620D494F200870EA
:1037600070BD4B63E5E70B63EEE70028F8D1106A04
:10377000106202484038016A016270BD404000504A
:103780004042005000000020800100207C01002009
:103790005B01002010B58369140E8C4023438361C4
:1037A000C3691202120A8A401343C36110BDF0B507
:1037B000002301273C469C400C4208D005685C0071
:1037C0000326A640B5431646A640354305605B1C5C
:1037D000102BEFD3F0BD000004460BA0FCF710FE49
:1037E000204607F061FD592116230D48882202E08A
:1037F0000160036002600468012CF9D101200521F9
:1038000009078860FEE70000496E20486172642065
:103810004661756C742048616E646C65720A0000C4
:103820000001005030B531490B683C2293432033EE
:103830000B602F4C0025A570CB686365636D082B6A
:1038400001D02B00F8D0E3785B008B600B689343CA
:1038500008330B60A57001E0CB686365636D182BBE
:1038600001D02B00F8D088600868904308300860C9
:10387000A57001E0C8686065606D282801D0280047
:10388000F8D008689043283008602846A57001E009
:10389000CB686365636D102B01D00028F8D0E07809
:1038A0004000401C88600868904308300860A5709C
:1038B00001E0C8686065606D402801D02800F8D03C
:1038C0000868904308300860A57001E0C86860652A
:1038D000606D582801D0002DF8D0886820710868E4
:1038E000904318300860207930BD0000000002408D
:1038F0000000002010B50021054804F083FD0549B3
:103900000028086001D0002010BD0020C04310BD79
:1039100028BA00005401002005200007816B0F2207
:10392000520291438163816B5210114381630A48B3
:10393000816802011143816008480168084A11400A
:10394000091D016081688908890081604168090A50
:1039500009021431416070470002005000400340EA
:1039600001F3FBFFF8B50420FFF7C0FD1020FFF7BF
:10397000B7FE00210720FFF729FE0120FFF7B6FD63
:103980000120FFF7ADFE9948FFF7E4FD9848FFF7E7
:10399000C9FC03242406002221469548FFF73AFE7D
:1039A0009348401CFFF7BEFC914800222146401C72
:1039B000FFF730FE8E48801CFFF7B4FC8C480022D5
:1039C0002146801CFFF726FE8A48FFF7ABFC052442
:1039D0002407206B0321090288432063206B0843DE
:1039E000206367200006FFF79DFC0121672000226D
:1039F00049040006FFF70EFE7F4E032252040C21FD
:103A00003046FFF707FE7D48FFF78CFC0022114689
:103A10007A48FFF7FFFDE068FF2501352843E060A5
:103A2000E068A843E0607648006840210843744994
:103A30000860744874498200886574480A210068E7
:103A400048431146FCF702FF0A21401DFCF7FEFE29
:103A50006B49401E08614868FE2290432A30486046
:103A6000886990436A308861C8699043AA30C86108
:103A7000086A9043EA3008623046FFF753FC03229D
:103A800052040C213046FFF7C5FD606B80088000B2
:103A90006063606B032108436063616B3020814386
:103AA0006163616B01436163E16B80028143E163A8
:103AB000E16B0143E163206BC009C0012063206B0F
:103AC0007F210843206352490020886151492F20FB
:103AD0000860514C60695149084360614E4E403E58
:103AE00070690F210903084370610022A901304663
:103AF000FFF75DFE01220E213046FFF74BFE04204A
:103B000002F04EFAEF01002239463046FFF74FFE31
:103B100001220F213046FFF73DFE042002F040FA5B
:103B2000002229013046FFF742FE01220C213046D7
:103B3000FFF730FE042002F033FA0022690130461C
:103B4000FFF735FE01220D213046FFF723FE04204A
:103B500002F026FA002240212046FFF728FE00222C
:103B600069002046FFF723FE2D4A09212046FFF772
:103B700011FE042002F014FA0022A9002046FFF7EB
:103B800016FE274A0A212046FFF704FE042002F011
:103B900007FA002269012046FFF709FE01220D21E4
:103BA0002046FFF7F7FD042002F0FAF9012229462A
:103BB0002046FFF7FCFD012239462046FFF7F7FDBE
:103BC000012280213046FFF7F2FD134C01224034E0
:103BD00004212046FFF7EBFD012208212046FFF7D4
:103BE000E6FD0C490120C0310862F8BD80F0FA0200
:103BF000103D8057080000401CFE23560200805EE6
:103C000000000240A086010000000020A002002069
:103C100040000050804100504040005040A700004C
:103C2000010001000521020E090751188B680122CD
:103C3000824013438B60886890438860704700001F
:103C400010B5592116230548882202E0016003605F
:103C500002600468012CF9D110BD00000001005081
:103C6000F8B53A4D3A4E68694000000E07D1306809
:103C70004000000E03D101F0B3FC01F0A5FB35A11B
:103C80003548FCF707FD002803D0032233A1FCF7D9
:103C900063FD1A220D21304805F03EFC0A220D2159
:103CA0002D4805F039FC01F09BFC2B48FCF706FD84
:103CB0002B490860C117090E08180012401C002487
:103CC000A86539E0FF2102312648FCF741FD224B6F
:103CD000244900201A5D0A54401C641CFF28F9DDA9
:103CE000322004F0D1F901F07BFC3068FDF772FC62
:103CF000FF27014601373A461A4801F091FB791C2B
:103D00001948FCF725FD01F06BFC3068FDF762FCFB
:103D100001463A46144801F0D1FB13491148FCF71B
:103D200051FD002808D1A86D8721401EA865C9054E
:103D3000306807F0FDFC3060A86D0028C2DC0B493C
:103D40000548FCF705FD06F093FAF8BD5801002080
:103D5000480000202C4C2C00040300202C482C0090
:103D6000800200207814002079150020C40900008A
:103D7000FFB5384C0026204681B034300EC0364F97
:103D8000FE612546803DAE70AE6426626662A66224
:103D90006E647D21C9003148FCF7DAFC1A2130A09D
:103DA000FCF72EFB02F0D4FE0198FCF729FB2B490F
:103DB0000D2008702948616BFCF76CFC20622748D5
:103DC000A16BFCF767FC60622448E16BFCF762FCC6
:103DD000A062626A216A1143014303D1A96C0A9867
:103DE0008142E4DB1FA10198FCF754FC00280CD1B0
:103DF0001EA10198FCF74EFC002806D1616A206ADA
:103E00000843A16A084309D0EE650120F861014624
:103E10001848006804F0DAFA05B0F0BD0124AC706F
:103E2000E86D401CE8650328EFDDFE63012004F027
:103E30002BF9FC63642004F027F90A2000900EA3FC
:103E40000FA210A111A0FFF793FFC82004F01CF9E6
:103E5000DBE70000D801002040420050C80C0020E1
:103E60002563000051494C4F4349500051474E5380
:103E70005343000054010020343031300000000072
:103E80004F4B00004552524F520000000D0A415462
:103E90000D0A0000FFB5FFB0FFB0A9B0FFA8843045
:103EA0007D27FF00046C39462CA8FCF753FC002545
:103EB0002B95139514951595169517951895199595
:103EC0001A951B951C951D951E951F95209521955E
:103ED000229523952495259526952795289529950E
:103EE0002A95FE4E12954320F562F07075633946AF
:103EF0002CA8B563FCF72EFC0C21F948FCF728FC34
:103F0000F7480C210C30FCF723FC30460721E53044
:103F1000FCF71EFC30460721EC30FCF71BFC30465A
:103F20000621D930FCF714FC30460821FB30FCF7A1
:103F30000FFC304603210C30FCF70CFC3581304679
:103F400045810621DF30FCF703FC30460521C530F2
:103F5000FCF7FEFBE2481E213030FCF7F9FB30464F
:103F60000521CA30FCF7F4FB30460521CF30FCF7C1
:103F7000EFFB30460521D430FCF7ECFBD8480A2192
:103F80004E30FCF7E5FBD648C8215830FCF7E0FB83
:103F90004C20D44B30711D60D349086A0122D202F3
:103FA00010430862CF4800680028FBD0CE488069E3
:103FB00080B2FDF753FBC94D8035FDF7BBFACB4A04
:103FC000CB4BFDF763F90B22D243FDF783FAFCF7E5
:103FD000EDFCA8613063C749C748FCF7B9FB052071
:103FE0000090C6A3C6A2C5A1C8A0FFF7C1FE02F0FB
:103FF000AFFD04200090CAA3C0A2CBA1CCA0FFF7C4
:10400000B7FE294640312C20012201910090202347
:104010001146CB4804F052FA0020B064286268626E
:10402000A862706402F094FD7D21C900C448FCF7C9
:104030008FFBC4A0FCF7E4F9C14F0D25FFA83D702C
:104040008430016ABE48FCF725FBA44E80363062FE
:10405000FFA88430416ABA48FCF71CFB7062FFA8D5
:104060008430816AB648FCF715FBB062726A316A27
:104070001143014303D19948806CA042DDDB192133
:10408000B448FCF765FB954E0020306570650CE088
:10409000AB48425C104630380A2804D2AD4B306D34
:1040A0001A54401C3065491C7165A548FCF706FB95
:1040B000716D8842ECD81A220D21A64805F02CFA21
:1040C0000020B064854F803738627862B8627064CF
:1040D0007D21C9009A48FCF73BFB02F039FD9EA008
:1040E000FCF78EF9964F0D203870FFA88430016AD6
:1040F0003846FCF7CFFA794D80352862FFA8843026
:10410000416A3846FCF7C6FA6862FFA88430816AC3
:104110003846FCF7BFFAA8626A6A296A114301436C
:1041200002D1B06CA042DDDB02F012FD93A1844805
:10413000FCF7B0FA00287DD0864864216438FCF78B
:1041400007FB84492A20643901220191009024232D
:1041500011467B4804F0B2F960492E200090EC3102
:104160007C48012201912C231146643804F0A6F901
:104170005B4801902C2577482B46042203210095AB
:10418000643804F09BF955482C230830019071489D
:10419000052204210095643804F090F950482C233E
:1041A0000C3001906B48062205210095643804F01C
:1041B00085F94A482C230A300190664807220621D7
:1041C0000095643804F07AF944482C23F3300190C8
:1041D0006048092208210095643804F06FF93F48CF
:1041E0002C23E53001905B480A22092100956438B0
:1041F00004F064F93A4802F031FC624D0022E960B3
:10420000614BA860FCF7BCFD01910090FCF7DCFF5E
:104210002946803948600246019900986961286101
:10422000029003911046FDF726F801910090039B40
:10423000029A00E0FEE3FCF78BFD0022524BFDF7F3
:1042400025F8E9610022514BA861FCF799FD019B1B
:10425000009AFCF765FD69622862019100900C21CB
:104260001F48FCF775FA4AA11D48019B009AFCF70C
:10427000D5F81B480C3002F0F1FBE9600022424BFC
:10428000A860FCF77DFD01910090FCF79DFF294699
:10429000803948600246019900986961286102905E
:1042A00003911046FCF7E7FF01910090039B029AEF
:1042B000FCF74EFD0022344BFCF7E8FFE9610022D9
:1042C000324BA861FCF75CFD019B009AFCF728FDCE
:1042D00069622862019100900C215BE05801002086
:1042E000441300207C00002000000E403108AC1C6C
:1042F0005A640A40C4090000040300204F4B000028
:104300004552524F523A2037313033000D0A415452
:104310002B51474E5353433D310D0A0D0A00000007
:104320004552524F5200000052656164790000000E
:104330000D0A41542B4353510D0A0D0A0000000091
:10434000C80C00200D0A0D0A41542B47534E0D0A8C
:104350000D0A00001A1700200D0A0D0A41542B51B6
:10436000474E53535244203D224E4D45412F524D0E
:1043700043220D0A0D0A0D0A00000000474E524D5F
:1043800043000000580200200000594000004E4049
:1043900025660000FE48FCF7DBF9FEA1FC48019B06
:1043A000009AFCF73BF800221346696A286A07F076
:1043B00059F901D0012000E00020F0620020B06433
:1043C000F54D28626862A86270647D21C900F348D7
:1043D000FCF7BEF902F0BCFBF1A0FCF711F80D20D0
:1043E0003870FFAA8432ED48116AFCF753F9EA4DA0
:1043F000FFAA28628432E948516AFCF74BF9FFAA08
:1044000068628432E548916AFCF744F9A8626A6AF6
:10441000296A1143014302D1B06CA042DFDB02F0F4
:1044200097FB6421E648FCF793F9E5492A2001222D
:104430000191009024231146D84804F03FF8D64853
:104440002C25743801902B46082207210095DC4862
:1044500004F034F8D0482C235F3001900922082161
:104460000095D74804F02AF8CB482C237B300190E4
:104470000A2209210095D24804F020F80020B064F7
:10448000C54D28626862A86270647D21C900C34876
:10449000FCF75EF902F05CFBCAA0FBF7B1FF0D2749
:1044A000BE48FFAA07708432116AFCF7F3F8FFAA2E
:1044B00028628432B948516AFCF7ECF8FFAA6862B6
:1044C0008432B648916AFCF7E5F8A8626A6A296AFC
:1044D0001143014302D1B06CA042E1DB02F038FB92
:1044E0006421B748FCF734F9B5492A20012201912B
:1044F000009024231146A94803F0E0FFA6492C2090
:10450000593103460191009008220721AC4803F07D
:10451000D5FF0020B06428626862A86270647D21C3
:10452000C9009E48FCF714F902F012FBADA0FBF79E
:1045300067FF9A4F0D203870FFA88430016A384613
:10454000FCF7A8F82862FFA88430416A3846FCF7D7
:10455000A1F86862FFA88430816A3846FCF79AF8AF
:10456000A8626A6A296A1143014302D1B06CA04271
:10457000DFDB02F0EDFA64219148FCF7E9F890499D
:104580002A2001220191009024231146834803F040
:1045900095FF81492C20453103460191009010225E
:1045A0000F21874803F08AFF0520009095A3964AC3
:1045B00094A196A0FFF7DCFB0020B064286268623B
:1045C000A86270647D21C9007448FCF7C1F802F04C
:1045D000BFFA93A0FBF714FF0D203870FFAA8432B6
:1045E0006E48116AFCF756F8FFAA286284326B48BD
:1045F000516AFCF74FF8FFAA686284326748916AF3
:10460000FCF748F8A8626A6A296A1143014302D19B
:10461000B06CA042E0DB02F09BFA0020B06428629C
:104620006862A86270647D21C9005C48FCF790F85C
:1046300002F08EFA80A0FBF7E3FE0D275748FFAA91
:1046400007708432116AFCF725F8FFAA28628432C9
:104650005248516AFCF71EF8FFAA686284324F483C
:10466000916AFCF717F8A8626A6A296A1143014344
:1046700002D1B06CA042E1DB02F06AFA4449222088
:10468000243103460191009002220121434803F0A6
:1046900015FF0020B06428626862A86270647D2102
:1046A000C9003E48FCF754F802F052FA67A0FBF745
:1046B000A7FE3A480D21017068A1FBF7EBFF364DCC
:1046C00066A128623548FBF7E5FF686265A13348BB
:1046D000FBF7E0FFA8626A6A296A1143014302D12D
:1046E000B06C0228E5DB02F033FA2B484A30FBF7C6
:1046F000E5FF014628484A30FCF72AF826484F30A3
:10470000FBF7DCFF014624484F30FCF721F8224834
:104710005430FBF7D3FF01461F485430FCF71AF81A
:104720001B484230FBF7CAFF014619484230FCF7EC
:104730000FF81748C8214C30FCF70AF816482C2708
:104740004A3001903B46032202210097134803F0B0
:10475000B5FE11482C234F3001900422032100970D
:104760000E4803F0ABFE0C482C2354300190052278
:1047700004210097094803F0A1FE05482C2342308C
:104780000190062205210097044803F097FE6FE090
:104790005013002025660000D8010020C80C00201E
:1047A0000D0A0D0A41542B51474E535352443D229A
:1047B0004E4D45412F474741220D0A0D0A0D0A0073
:1047C000B61600200D0A0D0A41542B51474E535383
:1047D00052443D224E4D45412F565447220D0A0D5D
:1047E0000A0D0A000D0A0D0A41542B51474E53532E
:1047F00052443D224E4D45412F475341220D0A0D53
:104800000A0D0A004F4B0000004300000D0A4154FE
:104810002B51474E535352443F0D0A0D0A000000DE
:104820000D0A0D0A41542B434F50533D302C312C6F
:10483000300D0A0D0A0D0A000D0A0D0A41542B43D2
:104840004F50533F0D0A0D0A0D0A00000D0A415446
:104850002B51454E473D322C330D0A004E554C4CE2
:10486000000000002B51454E473A20322C0000003A
:10487000FE4801902C233C2214210097FC4803F0B1
:104880001DFEFCA1F948FBF73BFF0025159514958B
:104890001A951395169519951F95179518951B95AB
:1048A0001E9524951C951D9520952395299523A843
:1048B00021952295259528950190269527952C23BD
:1048C0000322022100972A95E84803F0F7FD25A866
:1048D00001902C230D220C210097E44803F0EEFDFB
:1048E00027A801902C23172216210097DF4803F0F8
:1048F000E5FD29A801902C23212220210097DB48E7
:1049000003F0DCFD13A801902C2309220821009755
:10491000D64803F0D3FD15A801902C2313221221B1
:104920000097D24803F0CAFD17A801902C231D223E
:104930001C210097CD4803F0C1FD19A801902C233C
:10494000272226210097C94803F0B8FD1BA8019033
:104950002C230A2209210097C44803F0AFFD1DA8AB
:1049600001902C23142213210097C04803F0A6FDC8
:104970001FA801902C231E221D210097BB4803F085
:104980009DFD21A801902C23282227210097B748BC
:1049900003F094FDC821B548FBF7DAFE29AB21AA44
:1049A00019A927A806AF0FC71FAB17AA25A91DA8CD
:1049B00002AF0FC715A923A8019100901BAB13AA42
:1049C000ADA1AA48FBF72AFDB564B44F38463D6255
:1049D0004562856275647D21C900A548FBF7B8FE74
:1049E00002F0B6F8AEA0FBF70BFDA1480D21017057
:1049F000B1A1FBF74FFE3862B0499D48FBF74AFE74
:104A00007862AFA19A48FBF745FEB8627A6A396AC4
:104A10001143014302D1B06CA042E6DB02F098F8EA
:104A20000A2003F031FB4C203071A7480560A74CE9
:104A3000216A00E0AFE00122D20211432162016845
:104A40000029FCD0206880B2FCF708FEFCF772FD5C
:104A50009F4AA04BFCF71AFC0B22D243FCF73AFD0D
:104A60009D4A9E4BFCF712FCFBF7A0FF7063606849
:104A700080B2FCF7F3FDFCF75DFD954A954BFCF722
:104A800005FC0B22D243FCF725FD0022944BFCF7DA
:104A9000FDFBFBF78BFFB063A06880B2FCF7DEFD87
:104AA000FCF748FD8A4A8B4BFCF7F0FB0B22D24304
:104AB000FCF710FD00228A4BFCF7E8FBFBF776FFC2
:104AC000B860E06880B2FCF7C9FDFCF733FD804AAE
:104AD000804BFCF7DBFB0B22D243FCF7FBFC0022F4
:104AE0007F4BFCF7D3FBFBF761FFF860206980B2D6
:104AF000FCF7B4FDFCF71EFD754A764BFCF7C6FBD0
:104B00000B22D243FCF7E6FC0022754BFCF7BEFB00
:104B1000FBF74CFF3861606980B2FCF79FFDFCF742
:104B200009FD6B4A6B4BFCF7B1FB0B22D243FCF740
:104B3000D1FC00226A4BFCF7A9FBFBF737FFB861F9
:104B400068497861886B00284DD00020664A107053
:104B5000C86B002849D00020644A1070086B0028F8
:104B600045D00020624A1070486B002841D00020D8
:104B70006049087032216048FBF7EAFD3B4847492D
:104B80004C38763902468B1E019100900C3A5BA19D
:104B90005948FBF743FC5D48FBF790FD5C498842B0
:104BA0000CD95C495948FBF7D3FD53495748963116
:104BB000FBF7A6FD58A15548FBF7A2FD00245AA11A
:104BC00012A81294FBF766FD3448593001F046FFF5
:104BD000FBF7ECFE554F7066396806F071FE3079D0
:104BE0004C2808D009E00120B0E70120B4E70120FB
:104BF000B8E70120BCE7012070704D49B06B8842D6
:104C000008DA0320707034624AA112A81294FBF7EC
:104C100041FD09E0306A002804D147A112A812948E
:104C2000FBF738FD012030621C4D706BE96906F01E
:104C3000C5FD01D2042070703968706E06F040FE28
:104C4000706A3E4F01280AD13868012807D1072031
:104C5000707074623AA112A81294FBF71BFD706A7F
:104C6000012878D13868002875D16CE09C130020A9
:104C7000C80C00202C00000025732C25732C2573F4
:104C80002C25732C25732C25732C25732C25732C24
:104C900025732C25732C25732C257300D801002037
:104CA0000D0A0D0A41542B51454E47203D20300D31
:104CB0000A0D0A0D0A0000004F4B000020430000BF
:104CC000CB52524F520000007C00002000000E40EA
:104CD0003108AC1C5A640A40C92E41DC1B7D0E40D1
:104CE00000002C40004200504D0100204E010020E9
:104CF0004F01002050010020841600202425732C31
:104D000025732C25732C257300000000040300205C
:104D1000540B0000C40900006572726F723A524170
:104D20004D66756C6C0A00004E5200001C0000209D
:104D30000000A04042440000425200003000002029
:104D4000494E000007E0082070707462FEA112A8AE
:104D50001294FBF79FFCB06AFC49012804D1086853
:104D6000002801D10B207070F9480268012A02D195
:104D70000C2272700460B36A0A20F64A012B04D137
:104D80000968012901D1707014601168326E914276
:104D900007D9F1A112A81294FBF77CFCB462346429
:104DA00003E0B16A012900D17070706A01287CD0DB
:104DB000286BF066E9480168F26E914276DB046088
:104DC0006421E748FBF7C4FCE54B32796433717822
:104DD00012A801AF0FC7E3A00090E4A3E6A2E7A1E9
:104DE000DF48FBF71BFBDE49EB48FBF789FC64213E
:104DF000DB48FBF7ADFCEA4AE84B1046991E0C383D
:104E000002AF0FC7E431C81F01910090E54AE6A147
:104E1000D348F36AFBF702FBD149DF48FBF770FC8C
:104E20006421CF48FBF794FCDC4ADD4BD5321146B8
:104E30001A3908462433363001AF0FC7EF3803461E
:104E40000090E733921FDFA1C548FBF7E7FAC4499A
:104E5000D148FBF755FC6421C148FBF779FC706B26
:104E6000FCF768FB07460091B06BFCF763FBF27838
:104E70000B46DA49496A00297DD000210592049148
:104E800000996A4689C2D5480391806A002873D088
:104E90000022D3A1B248336AFBF7C0FAB049BE483A
:104EA000FBF72EFC6421AE4801E0F7E06BE0FBF776
:104EB0004FFCBA49BA4ACA31481F42326F4607C747
:104EC0000246431F0F3ACCA1A548FBF7A7FAA44915
:104ED000B148FBF715FCB249AF484C31FBF710FC69
:104EE000BDA1AD48FBF70CFC64219D48FBF730FCED
:104EF000C54F3978C54800780090C54801910378BE
:104F0000C4480278C4A19648FBF788FA9449A2489D
:104F1000FBF7F6FB3C70BD480470BD480470BD480B
:104F2000047064218E48FBF713FCB26EBEA1501CC6
:104F3000B0668B48FBF772FA89499748FBF7E0FBAC
:104F40002CAF95493846FBF7DBFB2A222421384653
:104F500004F0E2FA3846FBF7B1FB0246394600207E
:104F600001F0A6FE074664217D48FBF7F1FB3A46B7
:104F7000B0A17B4801E093E094E0FBF74FFA784959
:104F80008548FBF7BDFB854E0A3E706BFCF7D2FAF5
:104F9000AA4AAB4BFBF7F4FE0022AA4BFCF776F9CA
:104FA000FBF704FD70670790A7481A21C943006802
:104FB000FCF758FBA54906F02BFCB0670090A4480D
:104FC00001683269914263DB0460FF212D31A14801
:104FD000FBF7BEFBE868FCF7ADFA06460691A86849
:104FE000FCF7A8FA029001910098FCF7A3FA03914C
:104FF0000090E869FCF79EFA049005910798FCF789
:1050000099FA0A4606991191029F10960E970199F6
:105010007D4F0F913F787D4E36787D4B1B787D49D3
:1050200009780A910BA9C8C12B6BE96A0891039F03
:10503000009907970691029049484AA16430099364
:1050400003920091019049A34BA283A18148FBF7F1
:10505000E5F980495048FBF753FB2A2224217D487B
:1050600004F05AFA7B48FBF729FB024679490020F5
:1050700001F01EFE054664213948FBF769FB2A460C
:105080006CA13748FBF7CAF935494348FBF738FBB1
:1050900042480A38806A012806D032E1E86A88E688
:1050A0000121EBE60122F4E6FF212D316948FBF7EF
:1050B0004FFB3B482B9401F0D1FC054638480E4687
:1050C0000C3801F0CBFC044635480091183001F053
:1050D000C5FC0690324805910C3001F0BFFC4B2214
:1050E0000492009A0094019203960295059B069AF9
:1050F00001F0B0FF04460D4664211948FBF728FB78
:1051000022462B4662A11648FBF788F923482BACB0
:105110000A38C06A012815D05EA12046FBF7F0FAD4
:10512000FF212D314B48FBF713FB1D4B0C481B3B5C
:105130001A460F3A1B4909AD0FC5184BCF331A4613
:105140002232A9E0FBE000004946000034000020C4
:10515000400000208400002045410000380000206D
:10516000B6160020322E312E360000004A454C4C37
:1051700059464953480000004A3031002425732C19
:1051800025732C25732C25732C252E32642C256336
:105190002C25732C00000000040300206201002075
:1051A000501300200C01002025732C25642C25733E
:1051B0002C25732C25732C25732C25732C25732CEF
:1051C0000000000025732C25732C25732C25732CCF
:1051D00025732C25732C25732C00000040420050B1
:1051E00025642C25642C252E32662C252E32662C27
:1051F00025642C25632C000025732C25732C257326
:105200002C25732C25732C00500100204F01002009
:105210004E0100204D01002025642C25642C2564BE
:105220002C25642C00000000312C312C252E3664F6
:105230002C00000025782A0A00000000CDCCCCCC40
:10524000CCCC104000005940480000200000C8426B
:105250003C000020FA1100202425732C25732C25F6
:10526000732C48502C25732C252E33662C25642C4A
:10527000252E33662C25642C25642C256425642575
:105280006425642C252E31662C252E316600000005
:1052900025662C00562C00002B482A4905AD0FC569
:1052A000881E294904900C3903910F3ADD306D4670
:1052B00015C5264B264A27A13448FBF7AFF83349DA
:1052C0003348FBF71DFA2A222421304804F024F940
:1052D0002E48FBF7F3F902462C49002001F0E8FCC8
:1052E00004461A4864216438FBF732FA174822460C
:1052F00028A16438FBF792F8144925486439FBF774
:10530000FFF90A220D21224804F006F90E480C216B
:105310000C30FBF71DFA0C480C211830FBF718FA7B
:1053200009490C3908461830FBF7EAF906490846DE
:105330001830FBF7E5F97FB07FB02DB0F0BD17A1B5
:10534000EBE6000062010020501300201A17002035
:10535000785100002425732C454D522C25732C4E7A
:105360004D2C257325732C25732C25732C25732C1C
:1053700025732C25732C25732C25732C25732C4712
:105380002C25732C25732C25732A0000FA1100207C
:105390000403002025782A0A0A0A0000412C000094
:1053A00000B500F001F800BD06498A691202FCD47C
:1053B00008600A2804D188690002FCD40D20086026
:1053C000704700000000154014480168F82291431E
:1053D00040310160816889088900491C816006218B
:1053E000016201680122114301600168C907FCD113
:1053F0008168890889008160816889088900491C61
:105400008160C72101620168114301600168C90719
:10541000FCD18168890889008160704700400340A1
:1054200070B5254B1D68F824A54340351D609D6867
:10543000AD08AD009D609D68AD08AD006D1C9D6020
:1054400006251D621D68012635431D601D68ED0798
:10545000FCD19D68AD08AD009D609D68AD08AD00B4
:105460006D1C9D6002251D621D6835431D601D6811
:10547000ED07FCD11D68A543C0351D601962196890
:10548000314319601968C907FCD11968A14340313B
:105490001960002108E0445C1C621C6834431C60F5
:1054A0001C68E407FCD1491C9142F4D39868800839
:1054B0008000986070BD00000040034070B51B4B39
:1054C0001D68F824A54340351D609D68AD08AD00FA
:1054D0006D1C9D6003251D621D68012635431D60FE
:1054E0001D68ED07FCD11D68A543C0351D6019621C
:1054F0001968314319601968C907FCD11968A143BB
:105500004031196000210AE000241C621C68344309
:105510001C601C68E407FCD11C694454491C91427E
:10552000F2D3986880088000986070BD0040034006
:105530001A4801224262826219480168F82399439D
:1055400040310160816889088900491C816090218F
:1055500001620168114301600168C907FCD101685B
:105560009943C0310160002101620168114301606B
:105570000168C907FCD101689943803101600021AD
:1055800001620168114301600168C907FCD18168AB
:10559000890889008160006980B2704740420050EC
:1055A000004003400D480168F822914380310160BA
:1055B000816889088900491C81600521090201620E
:1055C00001680122114301600168C907FCD18168AB
:1055D0008908890081600069C0B2704700400340BB
:1055E00000B5FFF7DFFFC007C00FFAD100BD000014
:1055F00038B51DA000681D4C0090216A201301429F
:1056000001D0002016E0080301D5194800E0194830
:105610008A030FD40A04920F6B469B5CCA05890467
:10562000D20DC90E891C8008921C59435043FBF7C8
:105630000DF98000104DA86021694907490F022922
:1056400003D0880029460C310858A1690907090FC1
:10565000491CFBF7FBF8094928604A108018FBF742
:10566000F5F8686038BD0000010202040002005035
:1056700000805101001BB700A002002040420F0033
:1056800070470000FFB5B64983B000248C64142233
:105690000D4680350D922C626C62AC624C641A210E
:1056A000B0A0FAF7ADFE0498FBF708F806460F28FD
:1056B0007EDD01F04DFAAA4F00207864B8647D21A8
:1056C000C900A948FBF744F8A8A0FAF799FEA64933
:1056D0000D200870A4480599FAF7DCFF2862A2485B
:1056E0000699FAF7D7FF68629F480C99FAF7D2FF3C
:1056F000A8626A6A296A1143014303D1B96C0D9803
:105700008142E4DB01F024FA954900208864286A8C
:1057100000283AD00020886414220D922862686222
:10572000A86248647D21C9008F48FBF711F801F099
:105730000FFA002705E00498005DFFF731FE641CB6
:105740007F1CB742F7DB1A2186A0FAF759FE864F75
:10575000834E0D243C7084480599FAF79BFF28621C
:1057600081480699FAF796FF68627F480C99FAF724
:1057700091FFA8626A6A296A1143014303D1B16C9F
:105780000D988142E6DB01F0E3F9A86A002842D0D7
:105790007B48002101600F460120714900240870F8
:1057A00001940E460094B46414210D912C6200E023
:1057B00032E06C62AC6274641A216AA0FAF720FECF
:1057C0000498FAF77BFF02900F287DDD01F0C0F905
:1057D00000207064B0647D21C9006348FAF7B8FF07
:1057E00068A0FAF70DFE60490D2008705E48059923
:1057F000FAF750FF28625C480699FAF74BFF686297
:1058000059480C99FAF746FFA8626A6A296A114357
:10581000014303D006E001270020BEE7B16C0D98DC
:105820008142E0DB01F094F90020B0644C48803004
:10583000006A002841D00020B06414210D9148492D
:10584000803108624862886270647D21C9004648E0
:10585000FAF77EFF01F07CF9002505E00498005D71
:10586000FFF79EFD641C6D1C02988542F6DB4AA082
:10587000FAF7C6FD1A213BA0FAF7C2FD384C803476
:105880000D25394938480D700599FAF703FF206254
:1058900035480699FAF7FEFE606233480C99FAF72C
:1058A000F9FEA062626A216A1143014303D1B16C1F
:1058B0000D988142E5DB01F04BF929488030806A80
:1058C000002818D0002000E027E02D4908600121C1
:1058D00031700146394201D00121717100280FD089
:1058E0000020384203D0002025497071086070798B
:1058F000002807D031E00120002131700146E9E79E
:105900000120EEE701990098884226DBB069012862
:1059100020D022492248FAF71BFF01203070FF21D6
:105920002D312048FAF714FF7069FBF753FE01464A
:10593000FF2201321B48FFF7C1FD1A480078FF28FB
:105940000BD0012030700A220D21154803F0E4FD30
:1059500007B0F0BD64211448DDE70020F2E7000045
:105960005801002025630000C80C00200D0A415496
:105970002B514953454E443D300D0A0D0A0D0A0086
:10598000440000200D0A41542B514953454E443DDB
:10599000310D0A0D0A0D0A000A000000C4090000BA
:1059A00004030020FA110020B6160020FFB5B44E03
:1059B000CDB00024B348F46484601A21B2A0FAF791
:1059C0001FFDB24D3467FF212D3101A8FAF7C2FE49
:1059D000FFF706FEAA4E7069FBF7FCFD0146FF22A9
:1059E000013201A8FFF76AFD7069FBF7CDFDF06396
:1059F00068460079FF2818D0002816D0012701F04A
:105A0000A7F80020B0640521344680345791206205
:105A10006062A0627064B0647D21C9009B48FAF79F
:105A200097FE9BA0FAF7ECFC08E0FFF7D9FDFFF723
:105A3000CBFC9C4900270F6077610CE10D262E708E
:105A400092484F99FAF726FE206290485099FAF74B
:105A500021FE60628D485699FAF71CFEA062626AC8
:105A6000216A1143014304D18548816C57988142D2
:105A7000E4DB01F06DF8824900208864084680303C
:105A8000006A00283FD000200A4690640521579103
:105A90001146803108624862886250647D21C900E5
:105AA0007A48FAF755FE01F053F801A8FAF706FE16
:105AB0000024009004E001A8005DFFF771FC641C65
:105AC00000988442F7DB1A216FA0FAF799FC6C4C1E
:105AD00080342E706D484F99FAF7DCFD20626B48D8
