:020000040000FA
:10000000082F00205D0300007D030000DD010000DB
:1000100000000000000000000000000000000000E0
:100020000000000000000000000000006902000065
:100030000000000000000000FD0200004903000075
:1000400087030000895B000087030000870300002E
:10005000D5360000870300008703000087030000F7
:100060002D5A00008703000087030000870300006B
:10007000915A0000B95A000087030000870300006E
:100080008703000087030000870300008703000048
:100090008703000087030000870300008703000038
:1000A0008703000087030000870300008703000028
:1000B00087030000B93200008703000087030000B7
:1000C00000F002F800F068F80CA030C808382418D6
:1000D0002D18A246671EAB4654465D46AC4201D180
:1000E00000F05AF87E460F3E0FCCB646012633424A
:1000F00000D0FB1AA246AB463343184768BA00004B
:1001000088BA0000103A02D378C878C1FAD85207EA
:1001100001D330C830C101D504680C6070470000BD
:100120000023002400250026103A01D378C1FBD813
:10013000520700D330C100D50B60704710B5662957
:1001400002D10AF0CBFC10BD642902D100F088F97D
:1001500010BD782902D100F0B9F910BD632902D190
:1001600001F022FD10BD732902D101F025FD10BD63
:10017000002010BD1FB501F05BFE0400002000212F
:100180000AF0D4FA401C6060002000210AF0B8FA9E
:10019000E0601FBD10B510BD02F02CFB1146FFF74B
:1001A000E9FF0FB400F00CF80FBC06F0A3FD00F05F
:1001B0004DFA03B4FFF7EEFF03BC02F015FB00009D
:1001C00004B007F09BFC0448002107F0E1FC07F0B5
:1001D000A9FC00F03BFA00006CAF0000042071465F
:1001E000084202D0EFF3098001E0EFF30880714686
:1001F000004A1047C937000080F309887047EFF3C1
:1002000009807047684680F3098806480078C0076F
:1002100003D1032080F314887047022080F31488F0
:10022000704700002CAF0000064B9C46EFF305839F
:100230001B0605D1EFF31483DB0701D000DF704705
:1002400060470000C38B0000064B9C46EFF305831C
:100250001B0605D1EFF31483DB0701D000DF7047E5
:1002600060470000A58D0000EFF309808169891EB9
:10027000097800292BD1A6461FC8A4467446E0473A
:10028000EFF3098307C31A4B06CB91421CD0083BFE
:1002900000290DD0EFF3098020388862F0C0444671
:1002A0004D4656465F46F0C00CB409F07FF80CBCD2
:1002B0001A60906A1030F0C8A046A946B246BB4604
:1002C00080F309882038F0C80220C043004710B5E9
:1002D000084A1268914209D8074C89006458A6461A
:1002E0001FC8A446F047EFF309840FC410BD0000F7
:1002F00088020020903200009032000008F036FFA3
:10030000104B06CB91421AD0083BEFF309802038FE
:100310008862F0C044464D4656465F46F0C00CB475
:1003200009F044F80CBC1A60906A1030F0C8A0467E
:10033000A946B246BB4680F309882038F0C802209F
:10034000C04300478802002009F0E2F8D8E7000027
:1003500007F06CFC09F0DCF8D2E700000D480E490C
:1003600001600E4901600E4901600E4A0E4911609C
:10037000002101600D4880470D480047FEE7FEE779
:10038000FEE7FEE7FEE7FEE70A480B49094A0B4B8A
:1003900070470000000100505900000016000000E6
:1003A0008800000024000050A55A0000D55300002A
:1003B000C1000000082B0020082F0020082B00207F
:1003C00000487047A82A00200FB4054910B503AAB9
:1003D000029801F0F5FB10BC08BC04B018470000FF
:1003E000500200200FB41CB5074B06AA7B44694697
:1003F0000090059801F0B5FB0020694601F0C4FBB0
:100400001CBC08BC04B018479917000070B50C4616
:100410000546012A05D02878800600D5EA69002320
:1004200002E0012305E05B1C934202D2E05C00285D
:10043000F9D1A869E618C01AA861286AC01828620C
:100440002846C046C04604E06A682078A968641C53
:100450009047B442F8D32846C046C04670BD00005D
:10046000F7B5002575291068009914A611D0C0466B
:10047000C046002802DA404211A608E00099096847
:100480008A0701D50FA602E0490704D50EA601256B
:1004900001E0C046C046009F0024243704E001F07C
:1004A00031FC30313955641C0028F8D12B463246D6
:1004B0002146009801F0EBF8FEBD000000000000AE
:1004C0002D0000002B0000002000000070B5044645
:1004D0000D4621461068C046C0462188090502D550
:1004E0000F4A7A4402E00E4A7A440E322346002133
:1004F000243305E006070009360F965D5E54491C5B
:100500000028F7D120780023000705D5702D03D0EF
:10051000002901D002231132204601F0B8F870BD45
:10052000FEAA0000F3B50446002081B020622046F8
:10053000E168884700287AD0252802D06268A1683F
:1005400071E0E16820460025884706460020E0610A
:100550000746A0612A2E0AD0304605F06DFF00281C
:1005600027D0B8000019303E0090866119E002984B
:10057000BA00121902C8916102902046E1688847CA
:10058000012F064617D1E06900281FDA2020854395
:100590001CE000980A21806948430099801930388E
:1005A00088612046E1688847064605F045FF002837
:1005B000EFD1012F0AD02E2E08D12046E1688847BE
:1005C0000646202005437F1C022FC3DBA0690028BC
:1005D00003DA4042A06101200543E80701D0102062
:1005E0008543002E23D030464138192803D80120F6
:1005F000C00205432036204625603146029A154642
:10060000FFF79CFD00280BD0012806D0ED1DE8085F
:10061000C000083002908AE709E02D1D029586E7A8
:1006200062683046A1689047206A401C7EE7206AD5
:10063000FEBD70B5064601F01BF80468054630465D
:100640000A22002101F026FB2C6070BD10B5044683
:10065000C046C0462046FFF7ACFD10BD30B505468C
:100660000B462A461C781078521C5B1C002801D0CF
:10067000A042F7D0002C03D0002802D06D1CEFE779
:10068000284630BD30B5441C03E00178401C0029E9
:100690000DD08107F9D10B4BDD0104C8D11A91436C
:1006A0002940FAD0001B0A0603D0C01E30BD001B33
:1006B00030BD0A0401D0801E30BD0902FCD0401EAE
:1006C00030BD000001010101421E5378521C002B75
:1006D000FBD10B78491C1370521C002BF9D17047C9
:1006E00001E004C0091F0429FBD28B0701D5028059
:1006F000801CC90700D00270704700290BD0C307C7
:1007000002D00270401C491E022904D3830702D57F
:100710000280801C891EE3E70022EEE70022DFE76B
:10072000F8B507460B4639461943890713D1164CCD
:10073000E601042A0FD302CB0D1B8D43354202D1B3
:1007400002C0121FF5E7CBB20370401C521E002BF3
:1007500013D0090AF7E7002A14D01978521E5B1C3F
:100760000170401C002908D0002A0BD01978521EB5
:100770005B1C0170401C0029EDD1002A02D01146FB
:10078000FFF7CAFF3846F8BD01010101024670B506
:100790000A4392072AD11E4DEE0104C808C9541B12
:1007A0009443344017D0D0B2D9B2401A2106014345
:1007B00010D190B299B2401A210401430AD110021B
:1007C0001902000A090A401A2102014302D1100E3F
:1007D000190E401A70BD9A42DFD010BA19BA884279
:1007E00001D9012070BD0020C04370BD02780B7894
:1007F000401C491C002A09D09A4207D102780B7884
:10080000401C491C002A01D09A42EFD0D01A70BD7A
:1008100001010101002203098B422CD3030A8B4200
:1008200011D300239C464EE003460B433CD40022E8
:1008300043088B4231D303098B421CD3030A8B42FA
:1008400001D394463FE0C3098B4201D3CB01C01AC8
:10085000524183098B4201D38B01C01A5241430993
:100860008B4201D34B01C01A524103098B4201D381
:100870000B01C01A5241C3088B4201D3CB00C01AEE
:10088000524183088B4201D38B00C01A5241430866
:100890008B4201D34B00C01A5241411A00D201468B
:1008A0005241104670475DE0CA0F00D04942031024
:1008B00000D34042534000229C4603098B422DD373
:1008C000030A8B4212D3FC22890112BA030A8B421B
:1008D0000CD3890192118B4208D3890192118B426A
:1008E00004D389013AD0921100E08909C3098B42EF
:1008F00001D3CB01C01A524183098B4201D38B0132
:10090000C01A524143098B4201D34B01C01A5241D4
:1009100003098B4201D30B01C01A5241C3088B4219
:1009200001D3CB00C01A524183088B4201D38B0004
:10093000C01A5241D9D243088B4201D34B00C01A8E
:100940005241411A00D20146634652415B101046A3
:1009500001D34042002B00D54942704763465B10EB
:1009600000D3404201B50020C046C04602BD7047DA
:10097000704770470246C80FC00781434B0030B52F
:100980004B405B009B0D20D01923DB06C9180123C7
:100990001B05994220DB0324A40704251346AB4022
:1009A0000BD3002B04D1EB0613409B00E34204D48D
:1009B00001246407002312195941FF231B059942A2
:1009C0000BD2C9000143500F09E0CB0204D501430B
:1009D0000803024305D0054830BDFF21C90508437F
:1009E00030BD084607210905884330BD0000C07F9F
:1009F000F0B50C46871A9C410D46861A9D4103D2DC
:100A0000C01BA141D21963410D0D1F0DC94EEC1B36
:100A1000AE435CD07F057F0D0026002F51D02D0501
:100A2000AC46A943DD020123ED0A1B051D4320232B
:100A30001B1B24D41746E740381871412F46E74066
:100A4000CC199D402818314661410C0D27D16144D5
:100A50009A4013D50023401C594152000ED1400842
:100A6000400001224B005205D34207D30520400726
:100A7000C14201D5B04900E0B0493046F0BD6B003D
:100A8000002A00D001229A181F23203C1B1B01D5ED
:100A9000002302E0E540281871410C0DD7D0012455
:100AA00024050919C407CD0740084908E40F284365
:100AB0006144002CD5D00024401C61419A40D0D123
:100AC000CDE76A05520DD9D1C90FC907D5E79C4DAD
:100AD0004E00002801D0012400E0002434195F00FA
:100AE000002A01D0012600E00026BE19954FAC4235
:100AF0000CD8AE420AD8B44206D001256D05EC42AE
:100B0000BCD010461946F0BD9942FCD000203946B1
:100B1000F0BDF0B51FB40C460F46811A9F41254623
:100B2000861A9D4106D20125ED076F40401ABC414F
:100B300052187B41210D1E0D8D1BAC467D4D8D4302
:100B40007ED075056D0D7CD00D05AE46AC431B0304
:100B50001B0B794D52429D41202366469B1B14D3AB
:100B60001746F740381800260090744160462F461B
:100B70000741E41900989D402818664116D4714633
:100B800071189A4025D5012320E093182A466A411E
:100B90005200002B00D0521C1E23203E9B1B002B1A
:100BA00061DD3541EE1728186641E8D50018764119
:100BB0005B1C9A4000D3401C4B05F3181524E340FE
:100BC00010D3002B52D071467118D30FC01802D326
:100BD000491C05B0F0BD0123DB079A42F9D140085A
:100BE0004000F6E701225205B21801D1002853D087
:100BF0000123CC0ADB029943891E002A08D1020C8A
:100C000003D0020C0004103902E002460020203913
:100C10000023550B05D112020823550B01D15201B7
:100C20000D23550C01D112011B1DD50C01D19200D1
:100C30009B1C150D01D152005B1C2025EE1A01E012
:100C40002CE022E00546F54015439840CA1AE1071A
:100C500069181305C918002ABBDA032040070818D1
:100C6000C10FC9070FE071466118B2E7F1074008EC
:100C70000843711071444A000CD001235B059A426D
:100C8000A7D2C90FC9070020A3E74905490D26D1FE
:100C9000002001E00028F4D100219AE7284D6600E9
:100CA000002801D0012100E0002171185F00002A16
:100CB00001D0012600E00026BE19224FA94210D81B
:100CC000AE420ED8B14208D001256D05E94206D0EA
:100CD0001946A802414010467BE79C4201D02146BC
:100CE00077E70020394674E710B50C465C4005D51F
:100CF0000124E4076340FFF70CFF10BDFFF778FE07
:100D000010BD30B40C465C4004D50124E4076340B8
:100D100030BC6DE630BCFCE670B50124E4076140F0
:100D20000D465D4002D4FFF763FE70BD6340FFF7E0
:100D3000F0FE70BDFF0700000000F0FF0000F07F34
:100D40000000E0FF0000F87FF0B5F94D0C091E0926
:100D50002C402E402F468BB0A7437DD0B543FCD00E
:100D6000002E7AD0002CFCD00D465D40ED0F2543BF
:100D7000AC1BFF25AD0464190894C502440DC902DB
:100D80002143500DDC0204430120C007014304430A
:100D9000D2020191200C110C00958C4601042346CF
:100DA0008B430A9161460904E24D8A430991010A85
:100DB0007D4449198039097805464D4301266D184F
:100DC000F605751B6943C90C640B891C4C436418F8
:100DD000B5012C1B250C2E04B4434C434D43210C70
:100DE000691889090591009DE90701D00121C9070A
:100DF00004912C4601996708CD072F434C08059DA7
:100E0000E10B4D432D0C29466646754302950D4670
:100E100045432E46029D7D1BB44100950D465D4322
:100E200001942C0C2F040D465543AE462D0C3D432A
:100E3000029503947546049C2D04641B049406D209
:100E4000029C039D641C002675410395029401AC2D
:100E500070CC009F7D1B01E03EE162E1B4410904DA
:100E60000095079101940599A4086143090C0C466B
:100E70004443650BE7040C4666467443A646640B80
:100E80003C43039502947446049DE4042C1B049493
:100E900006D2029C039D641C0026754103950294B2
:100EA00001AC70CC009F7D1BB44101940C465C43A7
:100EB0000095650FE7000C465443A646640F3C437B
:100EC000039502947446049DE4002C1B049406D2FE
:100ED000029C039D641C002675410395029401AC9D
:100EE00070CC009F7D1BB441AE09AF06049DC900C4
:100EF000AD092F43049DA406AD060495079D344318
:100F000069180791059DE10B4D432D0C2946664656
:100F1000754302950D4645432E46029D7D1BB44107
:100F200000950D465D4301942C0C2F040D4655434E
:100F3000AE462D0C3D43029503947546049C2D044A
:100F4000641B049406D2029C039D641C0026754118
:100F50000395029401AC70CC009F7D1BB4410194B9
:100F60008C050694079C890A611800950791019CDD
:100F70000599A4086143090C0D464543680BEF042D
:100F80000D46644665436C0B3C43049FED047D1B9A
:100F9000AC4602D20025641C6841009E019D371BAF
:100FA00085410846584301950C46460FC5005443F9
:100FB000600F28436546E4002C1B02D20025401C2C
:100FC0006E41019D3F1AB5412846BD098006284360
:100FD0008446A009BF064E020699A4067618074368
:100FE000079D002068410A99079019430020099B3A
:100FF00000906046FF1913434041E20F64003A43FA
:10100000A4460446D71A8C41A04203D9012000907F
:1010100020463A46C70F941840416246D20F2243F9
:10102000644664000494009CBE466400D71AA4463B
:10103000044602978C417746002F01D1A04204D983
:101040006046401C8446029A2046C40FA646941867
:101050004041049A0546D20F224364466400D31AE5
:101060008D417146002901D1A84202D928461A466D
:10107000641C10430122002800D0164361020020A6
:10108000079B891904465C410223002C02DB4918A6
:1010900013466441089DCE0A2D145D194B05670562
:1010A000E10A2C050D1908993E43C9076940002B38
:1010B00008D0934006D30022761C5141002B01D169
:1010C000760876001C4A002D43DB154241D0AA4326
:1010D0003FD030460BB0F0BD06180D464D41174CC1
:1010E0007642AC411AD395181C465C41134A6D42B6
:1010F000A24113D3012252054C00D4420AD15C0014
:10110000D4420BD04B4002D592021143E2E7490092
:101110004908DFE75940C90FC90718E0002008490E
:10112000D8E7054801420DD10342F7D0F2E70000AD
:101130000000FF0758A200000000F07F0000E0FF61
:101140000000F87F114859400143C012414000207F
:10115000C0E70123089A9B069A4205DC0322520746
:101160008918C90FC907B5E7052252078918074A28
:101170001143D2125140ADE770B515461C460246E8
:101180000B4628462146FFF7DFFD70BDFFFFFF7FBE
:1011900030B50346CA02400D1043164D164C0A15D1
:1011A00002D02043002A06DBAA1A002A12DDD04012
:1011B000FF2A0BDC30BD5205520D01D14000400822
:1011C000AA1A07D4D0404042FF2A01DD002030BDDA
:1011D0000028FCDD4A00002B01D0012000E00020A7
:1011E000101801225205D042F0D8C817C043604001
:1011F00030BD00001E040000000000801F22030C10
:1012000002D10F22000402D0030E03D004E000201C
:10121000014670470002083A030F01D10001121F76
:10122000830F01D18000921E002801DB4000521E76
:10123000120551184205C012411810467047C10FDF
:10124000C90700D04042012292071143D6E701218D
:101250008907D3E7F0B58B4C0F09254689B0BD430C
:101260007BD01D092646AE43FAD00E465E4027408D
:10127000F60F3E43254071D024012142FBD0FF24CC
:10128000AD19A4042D1B039501252D05DB02DB0AF6
:10129000C9022B43C90A29431E010901040F130F78
:1012A000050121431701880B820391432D098C46C8
:1012B000A90B1E438A039543B30B9A0396433F0938
:1012C000BA0B9403A74302962E467E430497B64674
:1012D0004E19D7190C460196544305977E43371B88
:1012E0007646BF1B3601B646BE0B361900967646CB
:1012F000BC043719009C01D3641C00946400002FC7
:1013000001D001263443029E049F754366467E4306
:101310000496760034196E0034190094029C019EE4
:101320001C196643751BAE46069465464519059C17
:1013300005956C43594375460891691A0191049EBD
:1013400001465143A41B0491611A009C0791E106D8
:1013500005D061090122114302E072E06EE06109EB
:10136000089D00272C0A2D066918049D7C412A0A35
:101370002D066918019D6241AC0DAD026D185441F6
:10138000079A910D920255196141029A6446584399
:101390005443069B059A5A43121A131B9A0E9B013B
:1013A0005B187A41010B0005C3185141220A20063F
:1013B00044195A419A4200D2491C012040028142FC
:1013C00003D315230226F64302E014230326F64333
:1013D0002020C51AA9401746AF40DA400A432046EC
:1013E0000399D8400914731819055118039A384302
:1013F000D2075140AC4009D00122944006D30022CC
:10140000401C5141002C01D1400840001E4A93422B
:1014100012D3012203989206904207DB0520400771
:1014200009181A480143C012414004E00320400754
:101430000818C10FC907002009B0F0BD0020F1074E
:10144000FAE705180C464C4111486D42A04115D3EE
:1014500094181A465A410E48644290410ED3012016
:101460004A004005824209D35A00824206D35940BD
:10147000C90F084AC90700201143DDE700200649CB
:10148000DAE700000000FF07FE070000FFFFFF7F14
:101490000000E0FF0000F07F0000F87F70B5054617
:1014A0004800440D124B0020002C0AD0634008D0A5
:1014B0009A4206DA6642B24203DD120540195141F2
:1014C00070BD002C08D0002B09D0C90FC907002A15
:1014D000F6DB084A114370BDC90FC90770BD284625
:1014E0000A03104302D00020034970BD284670BD96
:1014F000FF0700000000F07F0000F87F0121C90510
:101500000123411842001B06D3185B0E0AD0C110FC
:101510000722D206891840075242D14201D5520013
:1015200089187047090208D50146002A03D0C10F67
:10153000C9070020704710467047420202D00020C1
:1015400002497047072109050143F4E70000F87FCD
:1015500010B501469E240002CA15A307002A02D036
:101560001843002A04DBA21A002A0CDDD04010BD6B
:101570001206120E01D140004008A21A03D4D04036
:1015800040420028F3DDFF2248001206904201D9B4
:10159000002010BDC817C043584010BD0102C2153D
:1015A00004D00123DB071943002A0ADB9E239A1A81
:1015B00002D40846D0407047FF22410012069142F3
:1015C00001D900207047C017C04370471F22030C89
:1015D00002D10F2200041CD0030E01D10002083AF0
:1015E000030F01D10001121F830F01D18000921E51
:1015F000002801DB4000521ED2055118021251187A
:101600001922904004D3491C002801D149084900FF
:1016100008467047C10FC90700D040420122920717
:101620001143D3E701218907D0E7000010B5FF225D
:10163000C30D134009D05A4007D0914205DA5C42ED
:10164000A14202DDC905081810BDC40FE407002B34
:1016500006D0002A06D0002902DBFF20C005044383
:10166000204610BD4102FCD0004810BD0000C07FE4
:1016700010B504F0A5FE10BD10B5FFF7F9FF006826
:1016800010BD10B50446FFF7F3FF046010BDFFB5B1
:1016900004460D4681B0243000902168880604D5A8
:1016A0001022E0699143216000E00120A84201DDA1
:1016B000471B00E000270498A1697A191018081A3E
:1016C000A0612078C00602D42046C046C04600264D
:1016D00008E003986268A168805D9047206A401C1A
:1016E000761C206204988642F3DB2078C0060AD577
:1016F0002046C046C04606E06268A1683020904798
:10170000206A401C206238467F1E0028F4DC07E077
:1017100000986268A168405D9047206A401C206282
:1017200028466D1E0028F3DC2046C046C0462078BF
:10173000000602D5022005B0F0BD0120FBE7000045
:101740007047FFB50C461E468FB003CA089009913A
:101750004F007D0D00D16D1E002108460020C046BF
:101760000321099A89050840002A03DA82008018BB
:1017700040080840800D01280A9002DD0020C04387
:101780000A90089807430DD0F048F14928184843BB
:101790000714189800281DD07542291E1DDD0A98CF
:1017A00042421BE01898012802D00020302104E0BA
:1017B0000020F24305E02154401CB042FBDB3046E0
:1017C0000022189B002121540F998B600A60486009
:1017D00013B0F0BDBD1B6D1CDFE70A9A002900DACB
:1017E00069420BA800F02AFC0BAB07CB03AB07C385
:1017F0000899099800F08EFC6B4607C30146D5484E
:101800000918002D00910BDDD24903980A9A49422C
:101810004018002303A90390684600F0EBFE08E09F
:1018200003990A9A0023081803A90390684600F058
:101830008BFE6B4607C30004000C03D00020C0439E
:10184000410800E01046189A002A03D000220092B6
:1018500015461EE0751E05D400F0EFFA30326255D1
:101860006D1EF9D501220843079602D000227F1C85
:1018700004E02078302801D100227F1E002A06973C
:1018800087D01EE0112D07DA00F0D7FA303262550A
:101890006D1C02460A43F5D1084303D00098002886
:1018A00019D00EE00021681E05E0235C625C6354E1
:1018B0002254401E491C8142F7DBA81B401E07959D
:1018C0000690079A18990020A0540F98079B069A33
:1018D00081600CC07CE711260020189059E7D21DCA
:1018E000F0B50D460446D10893B0C90003C90C9069
:1018F0000D9104F089F902460D98C00F01D02D20FA
:1019000007E02068810701D52B2002E04007C00FC7
:101910004001032A0F9001D0072A05DB0346294620
:10192000204600F0D1FA0EE12078800601D5E76963
:1019300000E006272846652D04D0662814D0672DC0
:1019400069D12DE00020112F009001DB112300E070
:101950007B1C0CAA03A910A8FFF7F3FE119900261F
:1019600010987D1C0E9142E001203B460CAAC00756
:101970000B900120009003A910A8FFF7E2FE119D33
:1019800012981099002600280E9501D1781C0D1888
:10199000781B02D446427D1C761EE81B00903AE07C
:1019A000012F00DA01270020112F009001DD112303
:1019B00000E03B460CAA03A910A8FFF7C2FE11994C
:1019C0003D46109800260E91217809070BD40E99F8
:1019D000A94200DA0D4603A9012D04DD4A19203A77
:1019E000D27F302A06D0B84201DA011D04DA012183
:1019F00000910FE06D1EEFE7002802DC86192D1A1A
:101A000003E0411CA94200DD0D46801B401C0090F4
:101A10000120C0070B902078000705D40098A84249
:101A200002DB0020C043009069460020C8720B987A
:101A3000012102AF0337C907884225D00220109048
:101A40002B2011900B9800280BDA40420B902D2090
:101A5000119006E00B9800F055F930317F1E0B9085
:101A600039701099481E00291090F3DC0B9800285B
:101A7000F0D111987F1E38702088000501D54520CF
:101A800000E065207F1E387001A8C01BC01D0B90B0
:101A90000F98002800D0012041190098C01709189C
:101AA0000B980818A169081A401EA0612078C0068A
:101AB00002D42046C046C0460F98002805D0626870
:101AC000A1689047206A401C20622078C00625D576
:101AD0002046C046C04621E0002E07DB0E98B042EB
:101AE00004DD03A86268805DA16802E06268A16805
:101AF00030209047206A761C401C20620098401ECF
:101B0000002800900AD100F093F9C068626801686B
:101B1000405CA1689047206A401C206228466D1EE8
:101B20000028D9DC07E062683878A1687F1C9047FC
:101B3000206A401C20620B99481E00290B90F2DCA1
:101B40002046C046C046032042E6000001FCFFFFDD
:101B5000104D0000E1DFFFFF01694A1C02610878B7
:101B6000704700B58FB0029100210591054901939E
:101B700079440391114604906846FEF7D3FC0FB0F8
:101B800000BD0000E5FFFFFF0A681070521C0A60EC
:101B9000704710B54369002B02D0C046C04601E033
:101BA000FEF734FC012010BD1278014624310A7082
:101BB00000224A700122ECE711680022D243E8E7D4
:101BC000084B70B50D467B44FFF7CBFF0446284613
:101BD00004F0C2FF002802D00020C04370BD2046A0
:101BE00070BD0000954F00000FB4002300B589B010
:101BF0000CA900910B99CB60224B7B44224A7A447A
:101C00000792042206930192204A0292204A7A44C3
:101C10006B4608920246002008F068FF09B008BC35
:101C200004B0184770B5064615460C46324686B0D5
:101C30000020C04301900020049004A8009102916C
:101C40006946FFF7D1FF024604982118002D05D000
:101C5000002801D0084600E02046286004980028AB
:101C60000DD0002A02DD0098884208D03246081BB9
:101C70006946019004A800940294FFF7B5FF06B0EE
:101C800070BD0000530300006F030000FFFFFF7FE3
:101C9000A3020000F7B50F460026009C2578641CBF
:101CA000002D05D000F0BCF80068405DC007F5D1FC
:101CB0002B2D02D02D2D18D0641E3946029A2046B5
:101CC00000F068F9002F04D03968A14201D10099D1
:101CD00039607105022400290BDA4042002803DD37
:101CE000FFF7C6FC0460A007FEBD0120800206438A
:101CF000E3E70028F8DAFFF7BBFC04600048FEBD0C
:101D0000FFFFFF7F01468008081A02091018020A27
:101D10001018020C1018C008820012185200891AFC
:101D200001E0401C0A390A29FBD27047F8B5224C61
:101D30004E00069DA6420AD8A64201D1002806D12F
:101D40005E00A64203D8A6420AD1002A08D00D247C
:101D5000240425422CD02946002000F09BFCF8BD2D
:101D60000C461C430CD4994202D0EFF30080F8BD1E
:101D7000904202D0EFF30080F8BDEFF30080F8BD91
:101D800009242407E5008B4206D0EFF30080A0432E
:101D9000591A06D2284304E0101A05D3EFF3008045
:101DA000A04380F30088F8BDEFF30080A043F1E783
:101DB000009500F087FCF8BD0000E0FF10B5FF23A0
:101DC0001B0644009C421DD84C009C421AD8034676
:101DD000124A0B4307D4401A02D3EFF3008010BD20
:101DE000EFF3008010BD081A06D2EFF30080012146
:101DF0009043C907084302E0EFF30080904380F36B
:101E0000008810BD0D231B041A4204D01146002087
:101E100000F040FC10BD00F0DFFC10BD00000090A1
:101E200010B500F005F8001D10BD00BF01890000CD
:101E300010B5FEF7C5FA203010BD0B4670B502464E
:101E400089078008084319469D08141AA9412509E5
:101E50000807054308092C194841250A01060D43C6
:101E6000010A2C194141200C0D0428430D0C0019C6
:101E70004D41002140194D41C00869070843E90858
:101E8000840F8D002543840024184D4124196D4191
:101E9000121BAB4107E00925ED432C115219634198
:101EA0000024401C61411C460A250026551BB441F4
:101EB000F1D270BD10B50446FFF7B2FF0068005DB7
:101EC000C007C00F10BD0000F8B51F46044601232F
:101ED0000068DB02032601461840072A05DB0028BC
:101EE00001D017A506E017A504E0002801D016A52B
:101EF00000E016A5102081432160A069C01E002FBC
:101F0000A06101D0401EA0612046C046C046002FFF
:101F100009D038466268A1689047206A401C206258
:101F2000C01C206206E0206AFAE762682878A1688F
:101F30006D1C9047761EF8D22046C046C046F8BDBC
:101F40004E414E006E616E00494E4600696E66005D
:101F50004268002A08D001680B78491C002B03D086
:101F6000521E06C0184670470121C160881E704786
:101F70004268002A0BD0C3680168002B07D1836830
:101F80008B4204D0491E521C06C00020704700201E
:101F9000C0437047F7B5154682B00027029C2078F1
:101FA000641C0197302802D0002D15D015E0207850
:101FB0000127641C782804D0582802D0002D09D0AD
:101FC0000BE0002D01D0102D07D12078002710251F
:101FD000641C02E0082500E00A250026009610E0B7
:101FE000009901276943081829467143020C80B201
:101FF00000908E183804864201D301200190207889
:10200000641C294600F015FC0028E9DA0398002832
:1020100005D0002F01D0641E00E0029C04600198EE
:10202000002806D0FFF724FB02210160C81E05B07E
:10203000F0BD009930040843F9E70000F7B51646F3
:102040008AB0334878446C4603467C33C06F5A6884
:102050009B680DC42E487844763003AC0DC80DC47F
:102060003720C001081837211B30FEF7DDFB05467D
:102070000C46803D1B3C02D56442012000E000205C
:102080000027099010E0E0070CD00C20204978438D
:10209000794432464C3941186846012300F054FA1D
:1020A0006B4607C364107F1C002CECD1184F7F4493
:1020B0002E3F16E0E80712D02001C0190EC8069185
:1020C000089307920068F04201D1981908903246AF
:1020D000012306A903A800F037FA03AB07C36D106C
:1020E000641C002DE6D10998002806D032466946C6
:1020F000012303A800F07EFA05E001233246694679
:1021000003A800F021FA0A9B07C30DB0F0BD000040
:1021100048920000034640000A4610B5400D0BD01F
:102120000121C9070F24A40200191C0364082143DC
:10213000540D2143D20207E000210120F2E7D40F21
:10214000490021435200401E0029F8DADB0FDB076B
:10215000184310BDFFB50D46144685B04868516858
:1021600003F02CFD00910190A868A16803F026FD02
:1021700002910390A868616803F020FD029A12188A
:102180008242029201D2012000E00020019A0B1845
:10219000D2180028019202D08A4202D903E08A4272
:1021A00001D2012000E00020009908180090686822
:1021B000A16803F003FD029A12188242029201D232
:1021C000012000E00020019A0B18D218002801928B
:1021D00002D08A4202D903E08A4201D2012000E003
:1021E00000200099081800902868216840004900E4
:1021F000400849084018FA49471814E0019940007E
:10220000C90F08430090019802994000C90F084384
:102210000190029803994000C90F08430290039867
:1022200040007F1E039000980028E7DA08980028F5
:1022300001D0EC4E00E00026B74201DA012000E0B8
:102240000020002804902AD0F71BF806C00E15D0F5
:10225000029B2021091A039A8B401A430392029A87
:10226000019BC2408B401A430292019A009BC240DC
:102270008B4000991A430192C14000917B110DD00F
:102280006F460320C11A03D500218200B95003E034
:102290008A008100BA587A50401EF3D53746039819
:1022A0000299002800D001200143089802910028DB
:1022B00008460CD0002800D001200199019A490558
:1022C00008430121D20AC902D202019200E0012191
:1022D0000E9B0122D207012B02D0002B03D013E06A
:1022E000002807D120E0904204D890420CD1019BF5
:1022F0000B4209D0019B5918019105D10099491C45
:10230000009101D17F1C009200280DD010210846B9
:102310000020C0460498002806D00F98002803D05B
:10232000082108460020C04628682168019B009AC1
:102330004840C10F0598C90739430EC009B0F0BD28
:10234000FFB587B0099A0898089953689268406861
:10235000896896460022039317469446089A1268A5
:102360005300099A5B081268520052089A1A9E4B51
:10237000D4180A9A002A01D0352200E040220692A1
:102380000022012315460492DB07059324E0002D6B
:1023900005D175460346039E4D1BB34109D37546CF
:1023A0006646039B491B049D9841059B7519AC46E5
:1023B0005F4163463B4308D0059B049EDD077608DA
:1023C0002E435B080496059301E0521E641EC50F60
:1023D000ED0749184041521C069B9A42D7DB002D5D
:1023E00004D17546039A6B1A824101D203200CE096
:1023F000039A0B466B404240134303D0014303D082
:10240000012002E0022000E000206146019100214D
:10241000009702910A99002905D0614640020143C4
:10242000704B019102E08007002302909C4201DA88
:10243000012000E0002007003AD01A1BD006C00E91
:1024400015D0029D2021019C091AC5408C402543CE
:10245000029C8C4000D001242543019C0295009DE4
:10246000C4408D4000992C430194C1400091541107
:102470001DD06D460221002202290CD10320001B31
:1024800007E0002804DB8600AE59002E00D00122B0
:10249000401C0328F5DB081B02D588002A5004E005
:1024A0008000285810438A00A850491EE3D51C46D6
:1024B0000A98002802980CD0002800D00120019929
:1024C000019A490508430121D20AC902D2020192A8
:1024D00000E00121109B0122D207012B02D0002B2A
:1024E00003D013E0002807D11FE0904204D89042A7
:1024F0000CD1019B0B4209D0019B5918019105D1C8
:102500000099491C009101D1641C009200280CD054
:10251000102108460020C046002F06D01198002840
:1025200003D0082108460020C04608980999019A5E
:10253000009B006809684840C10F0798C9072143FC
:1025400082600AC00BB0F0BD00B585B00193009267
:102550000A460146002302A8FFF7FCFD02A807C8AF
:1025600005B000BDFFB50A461F4685B00799019327
:1025700001230091014602A8FFF7ECFD02990398A0
:10258000049ECA0F4900D20700920F224908920206
:102590008C1A0021002800DB0C46450013486D080A
:1025A000844214D3079A002A04DA441E0026104DF0
:1025B000F64302E004460D460E4610210846002070
:1025C000C046002F03D0042108460020C046200545
:1025D000E90A0843009908436905F20A1143ADE688
:1025E00002C0FFFF013C0000FF3F0000FF070000AA
:1025F000FFFFFF7F00B585B0019300920A460146B8
:10260000002302A8FFF79CFE02A807C8A8E7FFB5B1
:102610000A461F4685B007990193012300910146A0
:1026200002A8FFF78DFE02990398049ECA0F490085
:10263000D20700920F22490892028C1A002100282A
:1026400000DB0C46450011486D08844214D3079AFC
:10265000002A04DA441E00260D4DF64302E004462B
:102660000D460E46102108460020C046002F03D01C
:10267000042108460020C0462005E90A08430099C5
:1026800008436905F20A114358E60000FF070000FD
:10269000FFFFFF7FC80212D54803400F002804D077
:1026A000C803C043012188407047EFF30080000158
:1026B000000903210907084380F3008870470020C0
:1026C0007047000010B500200249029A00F050FB4C
:1026D00010BD00000000F87FF0B53D4B02460C46EF
:1026E0001C400020002C63D03A4D8B4366D000295B
:1026F0006BDB0B0D1D05A94301252D052943012485
:10270000FD33E34001D392184941FF3381339C46A6
:102710008B02940D0121234389074C42920200272A
:102720001B198C105D1A04D42D1B02D42B46650096
:10273000491992185B416408F4D15C1A08D4012548
:10274000ED07EE175519744102D42A462346491C59
:1027500094185B41012292071D46E61B8D4106D469
:10276000B61A854103D42B46550034467F192419E7
:102770005B415208802AEFD1234300D00223384620
:102780000A22D04001D3012213438A051043624636
:10279000890A12058918002B09D00122D34002D3DF
:1027A0000022401C5141002B01D140084000F0BDE7
:1027B0000B03134307D0C90FC907F0BD080310432B
:1027C00003D1002901DB1046F0BD00202946F0BDF1
:1027D0000000F07F0000F87F10B5024800F0C8FA52
:1027E00010BD00000000C07F01491820ABBEFEE70D
:1027F000260002007546FDF7E3FDAE46050069467A
:102800005346C008C000854618B020B5FDF7BCFD92
:1028100060BC00274908B6460026C0C5C0C5C0C573
:10282000C0C5C0C5C0C5C0C5C0C5403D49008D4676
:1028300070473A2800D23038202302469A43412A72
:1028400001D310463738884201D30020C043704777
:10285000FFB58BB00878FF2806D0491C2D2805D07D
:1028600000230020009009E000200EE00123F8E79B
:10287000009A0A2462438018491C00900878FF28B7
:10288000F6D1002B02D0009840420090002503951D
:102890002C460D9800782D2801D02B2815D10D99A4
:1028A000491C2D280D9102D0002003900DE001203D
:1028B000FBE7401C214600270A223B460D90284694
:1028C00000F086FA35183C464C410D980678FF2EEC
:1028D000EFD1002108460020C0460399002902D00C
:1028E0008100401840080002860F012E01DD0026FD
:1028F000F6430E9900984718284620430BD0FF2036
:10290000F530C7421ADA0398C1070B98002E4160D0
:102910000ADD012009E00398C1070B9841600B997B
:10292000002008600FB0F0BD00200B990860FEF792
:102930009FFE02210160182108461AE0FF20F530B1
:10294000874219DD002E02DAFC48784401E0FC4899
:10295000784406C80B9806C00B9803994068C907CD
:1029600008430B994860FEF783FE022101601421A1
:1029700008460020C046D5E7002108460020C04692
:1029800039000A9001D5724200E03246002900DA8F
:10299000794207A8FFF752FB07AB07CB04AB07C38D
:1029A000E848009000200146214304D12C4605460A
:1029B000E44920390091210C0904014306D1290C76
:1029C00024040C4300992D0410390091210E0906AE
:1029D000014306D1290E24020C4300992D02083927
:1029E0000091210F0907014306D1290F24010C434F
:1029F00000992D01091F0091A10F8907014306D1FC
:102A0000A90FA4000C430099AD00891E0091E10FAD
:102A1000C907084304D100986D196441401E009015
:102A2000002F0295019406DD32466846012304A971
:102A3000FFF798FD05E001233246684604A9FFF739
:102A4000E6FD044603980D46002802D00120C00789
:102A50004440002108460020C0460A99BA4E48402A
:102A60000007800F07D160004008284303D06000B2
:102A7000400DB04214D1FEF7FBFD02210160600061
:102A8000400DB0420CD1B148784406C80B9806C03E
:102A90000B98E10FC907406808430B99486041E76C
:102AA0000B9844600B9805603CE7FFB51F4695B056
:102AB000002000250C909E685C68ED431390FFF7A2
:102AC000B7F9C0680168405C1490B96916986D1C2C
:102AD00088470A90396A88470028F6D10A98401C2E
:102AE0000AD00D20C0018443002E12DD0A982B2845
:102AF00009D02D280DD103E00020C04319B0F0BD4E
:102B0000012080020443B96916986D1C8847761E1F
:102B10000A90600504A901D52D2000E02B206A460B
:102B2000491C107410A8002E0D910B903BDD0A98E3
:102B3000692805D0492803D06E2801D04E281DD120
:102B40003B46039002200296179A1699C0430095BF
:102B5000019407F0DBFFC11CD0D10FE0B9691698D2
:102B60006D1C88470A900120761E40020443179886
:102B700005601398401C002E139014DD0A9830282D
:102B8000ECD0782801D058280DD1139801280AD10B
:102B90003B460296179A1699001F0095019407F07C
:102BA000ADFFC11CAAD114990A98884246D1802051
:102BB000044308E00C981799401E0C900120400235
:102BC0000443681C0860B9696D1C1698761E884716
:102BD00030280A90EED031E01499884205D12006C1
:102BE00003D480200443761E1EE00A9803F024FCE0
:102BF000002826D0012008A9400204430D98033183
:102C0000761E88420BD20A980D99303808700D98BC
:102C1000401C0D90200607D50C98401E03E02006AE
:102C200002D40C98401C0C90A00502D51799681C82
:102C30000860B96916986D1C88470A90002ECBDC95
:102C400059E0002E57DD0A98652801D0452852D159
:102C5000A00550D50320B969000284436D1C169865
:102C6000761E8847002E0A900CDD2B2804D02D28D4
:102C700008D1FF2001300443B96916986D1C8847BC
:102C8000761E0A90E00501D52D2100E02B210B983E
:102C900001700B98401C0B90009025E0012012A9B8
:102CA000400204430B980131761E88420ED20A98E6
:102CB0000B9930380006000E087003D100990B986C
:102CC00088420AD90B98401C0B9006E0E00501D51C
:102CD0001F4801E01E4840420C90B96916986D1CCF
:102CE00088470A9017980560002E04DD0A9803F0C3
:102CF000A3FB0028D2D1F969169888470D99FF20C7
:102D000004AA08700B99087000200E900F900C9B7D
:102D100010A90EA8FFF79CFDA00502D40120C04316
:102D2000ECE62420044215D0E0071FD138680F9A42
:102D30000E99031D3B60006806C017E03E9200003C
:102D4000309200003E400000FF070000F8900000B5
:102D5000F1D8FFFF0EA9684603F0BCFAE00705D1E1
:102D60003868009A011D3960006802602846C5E68F
:102D700010B50C461107090F092904D00A290AD0F9
:102D800008290CD104E011460820FFF783FC06E077
:102D9000510606D501E0510601D50120C0072146A4
:102DA00010BDD10607D501010909CC084907000E5D
:102DB0000006044309E0410F20024907000A0143CD
:102DC000200E00061D22D14101430846E7E7704767
:102DD0004343514330B55C18010C130C0D4692B2BD
:102DE0005D4380B251432C19054655430A0C090432
:102DF0004D1962415843010C00044019514130BD46
:102E0000FFB51F4689B0139812994005C00FC0073F
:102E100005900020079005460446461E0490029047
:102E20003C20491C12910690B9690A988847039082
:102E30001498401E14901498002841DD03982E2801
:102E400016D01021FFF7F5FC002834DB0121049196
:102E5000079901431AD0069900290CDB069AC1177D
:102E600000F006FA054306980C43001F069006E0A2
:102E7000012002900EE0002801D00120054301202E
:102E800007900298002805D1361D03E0029800281B
:102E900000D0361F1298401C1290B9690A988847D2
:102EA00003901498401E149004980028C3D00B99E6
:102EB00012980860BFE70398702808D0502806D001
:102EC000F9690A9888470498002815D051E0002035
:102ED000039001200290049800280AD01298401C08
:102EE0001290B9690A9888471499491E00291491CB
:102EF00006DCF9690A9888470120C0430DB0F0BD8F
:102F00002B2804D02D280DD10020C0430290129808
:102F1000401C1290B9690A9888471499491E0029E3
:102F20001491E6DD411CE4D00A21FFF782FC002861
:102F3000DFDB03990A225143081803901298401CC2
:102F40001290B9690A9888470A21FFF772FC149910
:102F50000B9A491E1491129911601499002901DDF0
:102F60000028E6DAF9690A988847029903984843E5
:102F7000861913982421084004902846204304D041
:102F8000A10F8907090002D006E005989BE0A90F70
:102F9000A4000C43AD00B61EE10FC907080002D122
:102FA0006D196441761E0498002803D00B2002900E
:102FB0005D4803E0282002907D20C04386420390B4
:102FC00007DA811B029808184128029001DD412090
:102FD0000290029A01200021521E00F049F9024697
:102FE00028400B462140084301D0012000E000208A
:102FF00007900020521EC04343412A4023401A43F9
:1030000001D0012000E0002007990690014352D032
:10301000002108460020C0460321059A8905084082
:10302000002A05D082008018C20F101840100840F6
:103030008015012802DD0020C04301E0012815D0E1
:10304000401C38D00798002835D0069800280DD1AC
:10305000029A0120002100F00BF92840214008438A
:1030600001D0012000E00020002824D0029A012095
:10307000002100F0FDF8034640198C4661412A1AF0
:103080008C410FD30298402807DD0498039E002846
:1030900001D0343E02E0173E00E0761C01240025FA
:1030A000E40708E05B1E62460024E4436241DD431E
:1030B000D44305400C4003980121081AB04206DAB7
:1030C0001A49059808430190002000900EE0600026
:1030D0006205010BE80A1043059A009068460A430E
:1030E00013490A433146019203F060F9049800281D
:1030F0000AD01398C00714D13868019A0099031DAB
:103100003B60006806C00CE002A8694603F0E2F8E4
:103110001398C00705D13868029A011D396000680C
:1031200002601298EAE6000002FCFFFF0000F07F58
:103130000000F03FFFB51D4687B01198484A109C2B
:10314000129E40051399C00F761EC00702430192DC
:1031500000220092FF22D2051043202291434929E8
:10316000059003D017464E2928D04FE03DA002AA73
:103170000BC801270BC2A9690898641C8847761EF2
:10318000014607D402A8C05D002803D02022914345
:1031900081420AD0E96908988847032F36D0082F62
:1031A00034D00120C0430BB0F0BD7F1C032F01D0F1
:1031B000082FE0D10999601C0860DCE7A96908982C
:1031C000641C8847761E2DD4B84341282AD1A969AA
:1031D0000898641C8847761E24D4B8434E2821D111
:1031E000A9690898641C884701990122D2041143F7
:1031F00001910599D200114305910999761E0C6041
:1032000001D4282806D0E969089888471198C00792
:1032100012D023E0A9690898641C8847761E01D45F
:10322000002803DAE96908988847BAE72928F1D124
:103230000998641C0460E9E711982421084207D02A
:103240002868019A0099031D2B60006806C005E0FC
:1032500028680599021D2A60006801602046A2E7DF
:103260000000F07F494E46494E4954590000000085
:1032700010B5202A04DB0146203A9140002010BD01
:10328000914020239C1A0346E3401943904010BD0F
:1032900000000000CB070222002B02D0036A134378
:1032A00003628B0702D5836A13438362490702D501
:1032B000C16A1143C1627047024901200865024991
:1032C000086370470000002000000E4030B5046A1B
:1032D000054D2C400C4314430462416A090A09025B
:1032E0001943416230BD0000F3FBFFFF1FB50949E0
:1032F0001EC903946C460EC4810F8A0069468A5821
:10330000054951184A68C306DB0E01209840024364
:103310004A601FBD94AF000000020050F0B50700E6
:103320000C46564885B054490162554E016813D089
:10333000042211430160102000F0B6F90120C004FE
:1033400002905048042503904F4850492018884265
:103350000DD8002004901CE00122114301601046AA
:1033600000F0A2F90020022503960290ECE74848FD
:1033700048492018884203D801206400049008E0DE
:103380004548454920184942884249D80320A400AD
:1033900004900026F64300200090019021E0294689
:1033A0000398FDF737FA3D493D4A4118914217D23B
:1033B0000222354B014651435B1CCF185B429F42B2
:1033C0000AD8A14201D90B1B00E0631AB34203D211
:1033D0001E000095019203D03249521C8A42E8D95E
:1033E0006D1C212DDBD904980299800308430099B4
:1033F000012249029202891A08430199891E084351
:103400001E490862042000F04FF904990098491CF5
:1034100041430398FDF7FEF90199484305B0F0BD1B
:10342000002F0FD0204915480162042000F03CF91C
:103430001EA0006800901148016A0013014203D0E9
:103440000020EBE71A49EEE7080300D50D4E88038C
:1034500001D53046E2E70804800F6A46105CCA05D1
:103460008904C90E891CD20D4143B008921C5043F7
:10347000FDF7D0F98000D1E7000001000002005004
:10348000001BB70000805101FF1E0AFAFFE0F5059E
:103490007F0F05FD7FF0FA02C08782FEFF95E7FFF0
:1034A000BF77CC00010200006FD6000001020204C9
:1034B0002EC2000002490A6802430A6070470000F9
:1034C0000002005008B511A0006800901048016A81
:1034D0000013014201D0002008BD080301D50D48AA
:1034E00000E00D488A03F7D40A04920F6B469B5CF8
:1034F000CA058904D20DC90E891C8008921C594343
:103500005043FDF787F9800008BD00000102020466
:103510000002005000805101001BB700F8B51B4CA1
:10352000E56810210D401A49884202D849108842A6
:1035300000D208462168042631432160E168C906AB
:10354000FCD52169072211432161216A012212045D
:10355000114321622168C907014604D00020FFF70A
:10356000DDFE074607E00120C004FFF7D7FEE5684F
:103570000746102005400021022000F00BF8002D26
:1035800002D12068B04320603846F8BD00020050E8
:1035900080F0FA0270B5104CE568102622683540BC
:1035A00004231A432260E268D206FCD5226907236D
:1035B0001A432261A269120912010A43A261216918
:1035C00099430143216101F0BDFE002D02D1206825
:1035D000B043206070BD000000020050F0B52C4BDD
:1035E00086B01C460834F0CC009401ACE0C418CB83
:1035F0000493430E05945B0734D083009B0F9B001C
:103600006C46E358234C1B190401650FC401E40EFA
:10361000A5401C68AC430C431C601E4B1E4C103B69
:10362000A04207D1DD69FF240134A54321400D43A9
:10363000DD6117E0194CA04203D1DC6901256D0260
:103640000CE0174CA04203D1DC690125AD0205E076
:10365000144CA04206D1DC690125ED02AC4329409F
:103660000C43DC61830A1906090E0FD00103890F90
:10367000890004AC6158074C800508340919DBB295
:10368000C00E8340086898431043086006B0F0BD40
:103690007CAF0000100200501400C0571500E05726
:1036A000160040661700606610B504460749084BCF
:1036B00005E00A46491E002A01DC002010BDDA6838
:1036C00020469043F5D1012010BD0000804F12002C
:1036D0000002005070B5204B186A204942040120B6
:1036E000002A02DA82031A6208711A6A120403D5E8
:1036F0000122D2031A6248711A6AD20403D5012248
:1037000012031A6288711A6A154C920401D51C6260
:10371000C871114A4032156AAD0506D501256D0202
:103720001562104D286000250D70116A490504D5F9
:103730000121890211620C490860106A800403D5D6
:1037400014620A494F200870106A1062186A1862E1
:1037500007A0FCF739FE70BD0040005000000020BB
:10376000002000004401002040010020230100202F
:103770000D0A41542B696E746572727570740D0A6E
:103780000000000010B58369140E8C402343836150
:10379000C3691202120A8A401343C36110BDF0B517
:1037A000002301273C469C400C4208D005685C0081
:1037B0000326A640B5431646A640354305605B1C6C
:1037C000102BEFD3F0BD000004460BA0FCF7FCFD6E
:1037D000204606F037FE592116230D48882202E0C4
:1037E0000160036002600468012CF9D10120052109
:1037F00009078860FEE70000496E20486172642076
:103800004661756C742048616E646C65720A0000D4
:103810000001005030B531490B683C2293432033FE
:103820000B602F4C0025A570CB682364236C082BFC
:1038300001D02B00F8D0E3785B008B600B689343DA
:1038400008330B60A57001E0CB682364236C182B50
:1038500001D02B00F8D088600868904308300860D9
:10386000A57001E0C8682064206C282801D02800D9
:10387000F8D008689043283008602846A57001E019
:10388000CB682364236C102B01D00028F8D0E0789B
:103890004000401C88600868904308300860A570AC
:1038A00001E0C8682064206C402801D02800F8D0CE
:1038B0000868904308300860A57001E0C86820647B
:1038C000206C582801D0002DF8D088682072086834
:1038D000904318300860207A30BD0000000002409C
:1038E0000000002070B5224C00262664214D2B6874
:1038F0003C22934320332B60A67001E0EB682364E5
:10390000236C082B01D03300F8D0E3785B00AB6068
:103910002B68934308332B60A67001E0EB682364A7
:10392000236C182B01D03300F8D0A860286890438E
:1039300008302860A67001E0E8682064206C282820
:1039400001D03000F8D02664A96028689043083080
:103950002860A67001E0E8682064206C282801D067
:10396000002EF8D02868904318302860002070BDE1
:10397000000000200000024005200007816B0F229C
:10398000520291438163816B5210114381630A4853
:10399000816802011143816008480168084A1140AA
:1039A000091D016081688908890081604168090AF0
:1039B000090214314160704700020050004003408A
:1039C00001F3FBFFF8B50420FFF774FD1020FFF7AB
:1039D0006BFE00210720FFF7DDFD0120FFF76AFDE8
:1039E0000120FFF761FE9948FFF798FD9848FFF71F
:1039F0007DFC03242406002221469548FFF7EEFDB6
:103A00009348401CFFF772FC914800222146401C5D
:103A1000FFF7E4FD8E48801CFFF768FC8C4800220D
:103A20002146801CFFF7DAFD8A48FFF75FFC05247A
:103A30002407206B0321090288432063206B08437D
:103A4000206367200006FFF751FC01216720002258
:103A500049040006FFF7C2FD7F4E032252040C21E9
:103A60003046FFF7BBFD7D48FFF740FC00221146C2
:103A70007A48FFF7B3FDE068FF2101310843E060B9
:103A8000E0688843E060764D28684021084328605C
:103A9000754974484864810074480A22006850439C
:103AA000FCF7B8FE0A21401DFCF7B4FE401E286159
:103AB0006868FE2188432A306860A86988436A30B4
:103AC000A861E8698843AA30E861286A8843EA3037
:103AD00028623046FFF70AFC032252040C213046CC
:103AE000FFF77CFD606B800880006063606B0321E2
:103AF00008436063616B302081436163616B014304
:103B00006163E16B80028143E163E16B0143E16347
:103B1000206BC009C0012063206B7F210843206314
:103B20005348002585612A4640215248FFF737FE59
:103B30000121002289034F48FFF731FE4E4E0E212E
:103B400032464C48FFF71EFE042002F073F877124D
:103B5000002239464748FFF722FE32460F214548EA
:103B6000FFF710FE042002F065F8002231134148EF
:103B7000FFF715FE32460C213E48FFF703FE0420F6
:103B800002F058F80022F1123A48FFF708FE3246D8
:103B90000D213848FFF7F6FD042002F04BF8354CB4
:103BA00000224034F1132046FFF7F9FD3246092187
:103BB0002046FFF7E7FD042002F03CF80022B11395
:103BC0002046FFF7ECFD32460A212046FFF7DAFDDA
:103BD000042002F02FF80022F1122046FFF7DFFD4B
:103BE00032460D212046FFF7CDFD042002F022F8D9
:103BF000012211022046FFF7D2FD0122394620465C
:103C0000FFF7CDFD012280211A48FFF7C8FD194EAC
:103C10000122803604213046FFF7C1FD0122082130
:103C20003046FFF7BCFD15493F2008606169144824
:103C3000014361610F4840690F21090308430D49A1
:103C400048610E48C0300562F8BD0000001BB70097
:103C5000103D8057080000401CFE23560200805E85
:103C600000000240A0860100000000205402002055
:103C70004000005000400050010000018041005011
:103C800040A700000521020E090751188B68012288
:103C9000824013438B6088689043886070470000BF
:103CA00010B5592116230548882202E001600360FF
:103CB00002600468012CF9D110BD00000001005021
:103CC000F8B5404D404E68694000000E07D130689D
:103CD0004000000E03D101F02DFB01F01FFA3BA1C3
:103CE0003B48FCF7F1FC3BA13948FCF7B7FC002846
:103CF00003D0032238A1FCF713FD1A230A24344A07
:103D0000002003E0994200D11454401C115C0029AA
:103D1000F8D11A220D212E4804F040FF01F00AFBD1
:103D20002B48FCF7AFFC2D490860C117090E081895
:103D30000012401C0024286539E0FF210231284888
:103D4000FCF7EAFC224B264900201A5D0A54401C6D
:103D5000641CFF28F9DD322003F0B0FD01F0EAFA1F
:103D60003068FDF71BFCFF27014601373A461C4827
:103D700001F000FA791C1B48FCF7CEFC01F0DAFADE
:103D80003068FDF70BFC01463A46164801F040FA50
:103D900014491348FCF7FAFC002808D1286D872144
:103DA000401E2865C905306806F03CFD3060286D6E
:103DB0000028C2DC0C490648FCF7AEFC05F01CFDEF
:103DC000F8BD000020010020380000200A0000009B
:103DD000B80200202C4C2C002C482C00380200206B
:103DE0002C1400202D150020C4090000FFB5354C0F
:103DF00081B025460026803D204628300A9F0EC00F
:103E0000AE702E646661A661E661EE637D21C90035
:103E10002D48FCF781FC1A212CA0FCF7D5FA02F002
:103E2000DFFC0198FCF7D0FA27490D2008702648DE
:103E3000A16AFCF713FC60612348E16AFCF70EFC01
:103E4000A0612148216BFCF709FCE061A26961696E
:103E50001143014302D1286CB842E5DB1CA1019853
:103E6000FCF7FCFB00280CD11BA10198FCF7F6FB2A
:103E7000002806D1A16960690843E169084304D0BC
:103E80006E6504F02DFC05B0F0BD0124AC70686DCA
:103E9000401C68650328F4DD114DEE63012003F03A
:103EA0000DFDEC63642003F009FD0A2000900DA3D2
:103EB0000EA20FA110A0FFF799FFC82003F0FEFC8F
:103EC000DFE70000A00100207C0C0020256300003B
:103ED00051494C4F4349500051474E535343000002
:103EE0004042005034303130000000004F4B0000A1
:103EF0004552524F520000000D0A41540D0A000075
:103F0000FFB5FFB0FFB08FB0FFA87D2113AFC46D28
:103F1000C9003846FCF702FC0025F74E12954320F5
:103F2000B562F07035637D21C90038467563FCF7D2
:103F3000F5FB0C21F148FCF7EFFBF0480C210C30AD
:103F4000FCF7EAFB30460721D930FCF7E5FB3046A9
:103F50000721E030FCF7E2FB30460621CD30FCF7CC
:103F6000DBFB30460821EF30FCF7D6FB35813046CD
:103F70004581B5810621D330FCF7CEFB30460521C3
:103F8000B930FCF7C9FBDD481E213030FCF7C4FB1B
:103F900030460521BE30FCF7BFFB30460521C3305B
:103FA000FCF7BAFB30460521C830FCF7B7FBD34815
:103FB0000A214E30FCF7B0FBD048C8215830FCF73E
:103FC000ABFB4C203071CE49CE48FCF7A5FB052059
:103FD0000090CDA3CDA2CCA1CFA0FFF707FF02F0A8
:103FE000FFFB04200090D1A3C7A2D2A1D3A0FFF76A
:103FF000FDFE3146B4312C20012201910090202396
:104000001146D24803F014FE3564374680377D618F
:10401000BD61FD61F56302F0E3FB7D21C900CB4882
:10402000FCF77AFBCAA0FCF7CFF9C84F0D263E700B
:10403000FFA8C16B3846FCF711FBAF4D80356861B6
:10404000FFA8016C3846FCF709FBA861FFA8416C8A
:104050003846FCF703FBE861AA696969114301432B
:1040600003D1A548006CA042DFDB1921BC48FCF756
:1040700053FBA14D0020A864E8640CE0B348425C07
:10408000104630380A2804D2B54BA86C1A54401C8C
:10409000A864491CE964AD48FCF7F4FAE96C88426D
:1040A000ECD81A220D21AE4804F078FD00272F64C9
:1040B0009148803047618761C761EF637D21C90006
:1040C000A248FCF729FB02F08BFBA6A0FCF77CF9C9
:1040D0009E4E0D203070FFA8C16B3046FCF7BEFA33
:1040E000854D80356861FFA8016C3046FCF7B6FA53
:1040F000A861FFA8416C3046FCF7B0FAE861AA69F4
:1041000069691143014303D17B48006CA042DFDBA6
:1041100002F066FB9CA18D48FCF7A0FA00287DD038
:104120008F4864216438FCF7F7FA8D492A206439F6
:1041300001220191009024231146844803F078FD68
:104140006D492E200090E0318548012201912C23F9
:104150001146643803F06CFD684801902C258048B6
:104160002B46042203210095643803F061FD624868
:104170002C230A3001907A480522042100956438E6
:1041800003F056FD5D482C230C3001907448062244
:1041900005210095643803F04BFD57482C230C3063
:1041A00001906F48072206210095643803F040FD16
:1041B00051482C23E73001906948092208210095D5
:1041C000643803F035FD4C482C23D9300190644805
:1041D0000A2209210095643803F02AFD474802F0BD
:1041E00087FA454A6A4B8032D16790670022FCF714
:1041F000ABFD05460091FCF7CBFF3F4902468867BF
:104200002846644D009903C5029003911046083D6D
:10421000FDF715F801910090039B00E0E9E3029A95
:10422000FCF77AFD00225A4BFDF714F8E9600022F2
:10423000594BA860FCF788FD019B009AFCF754FDE0
:1042400069612861019100900C212C48FCF764FA07
:1042500052A12A48019B009AFCF7C4F827480C3069
:1042600002F046FA2A46803AD16790670022484B0E
:10427000FCF76AFD01910090FCF78AFF1E49024697
:1042800088670098019903C5029003911046083D84
:10429000FCF7D5FF01910090039B029AFCF73CFDCF
:1042A00000223B4BFCF7D6FFE96000223A4BA860A6
:1042B000FCF74AFD0B46024601990098FCF714FDF5
:1042C0006961286100900D4801910C210C30FCF7C8
:1042D00023FA0A4831A10C30019B009AFCF782F8BE
:1042E000002213466969286906F036FA58D0024957
:1042F0000120886256E0000020010020F812002012
:10430000C4090000B80200204F4B00004552524F34
:10431000523A2037313033000D0A41542B51474E69
:104320005353433D310D0A0D0A0000004552524FD0
:104330005200000052656164790000000D0A41548A
:104340002B4353510D0A0D0A000000007C0C002085
:104350000D0A0D0A41542B47534E0D0A0D0A000059
:10436000C41600200D0A0D0A41542B51474E5353D9
:104370005244203D224E4D45412F524D43220D0ABD
:104380000D0A0D0A00000000474E524D4300000088
:10439000000059402002002000004E402566000029
:1043A000FE488762FD480764054680356F61AF614E
:1043B000EF61C7637D21C900F948FCF7ADF902F050
:1043C0000FFAF8A0FCF700F80D26F5480670FFA8D4
:1043D000C16BF348FCF742F9F04D80356861FFA8E6
:1043E000016CEF48FCF73AF9A861FFA8416CEC4872
:1043F000FCF734F9E861AA6969691143014303D103
:10440000E648006CA042E0DB02F0EAF96421ED48E6
:10441000FCF782F9EB492A20012201910090242324
:104420001146DF4803F004FCDC482C2508300190DD
:104430002B46082207210095E24803F0F9FBD748F4
:104440002C23D3300190092208210095DD4803F088
:10445000EFFBD2482C23EF3001900A22092100956E
:10446000D84803F0E5FBCD480764054680356F6109
:10447000AF61EF61C7637D21C900C948FCF74CF902
:1044800002F0AEF9D0A0FBF79FFFC548FFAA067067
:10449000D16BFCF7E3F86861FFAAC148116CFCF727
:1044A000DDF8A861FFAABE48516CFCF7D7F8E861B7
:1044B000AA6969691143014303D1B848006CA0425D
:1044C000E3DB02F08DF96421BE48FCF725F9BD4914
:1044D0002A2001220191009024231146B04803F0C4
:1044E000A7FBAE492C20CD31034601910090082254
:1044F0000721B44803F09CFBA84807646F61AF61D3
:10450000EF61C7637D21C900A548FCF705F902F0FA
:1045100067F9B5A0FBF758FFA14E0D203070FFA83A
:10452000C16B3046FCF79AF86861FFA8016C304611
:10453000FCF794F8A861FFA8416C3046FCF78EF8B0
:10454000E861AA6969691143014303D19348006C8A
:10455000A042E1DB02F044F964219A48FCF7DCF860
:1045600098492A20012201910090242311468C4869
:1045700003F05EFB89492C20B9310346019100907C
:1045800010220F218F4803F053FB844807646F61AA
:10459000AF61EF61C7637D21C9008148FCF7BCF8BA
:1045A00002F01EF998A0FBF70FFF0D267C48FFAA2A
:1045B0000670D16BFCF752F86861FFAA7848116C5D
:1045C000FCF74CF8A861FFAA7548516CFCF746F857
:1045D000E861AA6969691143014303D16F48006C1E
:1045E000A042E3DB02F0FCF86C490F646F61AF613D
:1045F000EF61CF637D21C9006948FCF78DF802F0B7
:10460000EFF887A0FBF7E0FE6548FFAA0670D16BC4
:10461000FCF724F8614DFFAA803568616048116C91
:10462000FCF71CF8A861FFAA5D48516CFCF716F86E
:10463000E861AA6969691143014303D15748006CD5
:10464000A042E1DB02F0CCF822207A490346019136
:10465000009002220121524803F0EAFA052000905E
:1046600075A378A277A179A0FFF7C0FB4B48BE30B5
:10467000FCF708F801464948BE30FCF74DF84748BA
:10468000C330FBF7FFFF01464448C330FCF744F852
:104690004248C830FBF7F6FF01464048C830FCF7F7
:1046A0003DF864481E30FBF7EDFF014661481E30BF
:1046B000FCF732F85F48C8212830FCF72DF837485E
:1046C0002C25BE3001902B46032202210095344850
:1046D00003F0AEFA31482C23C330019004220321A9
:1046E00000952F4803F0A4FA2C482C23C8300190E1
:1046F0000522042100952A4803F09AFA4D482C23FC
:104700001E300190062205210095254803F090FAFD
:1047100048482C23283001903C2214210095204841
:1047200003F086FA1D490F640D4680356F61AF6155
:10473000EF61CF637D21C9001948FBF7EDFF02F05F
:104740004FF846A0FBF740FE15484AA10670FBF75C
:1047500085FF686148491248FBF780FFA86147A1BF
:104760000F48FBF77BFFE861AA69696911430143C0
:1047700003D10A48006CA042E6DB02F031F8414A5E
:104780000120D06105494C2008713F4807603F4C2B
:10479000216A0123DB021943216279E02001002014
:1047A0007C0C00200D0A0D0A41542B51474E5353E7
:1047B00052443D224E4D45412F474741220D0A0D9F
:1047C0000A0D0A00601600200D0A0D0A41542B51F3
:1047D000474E535352443D224E4D45412F56544768
:1047E000220D0A0D0A0D0A000D0A0D0A41542B5123
:1047F000474E535352443D224E4D45412F4753415E
:10480000220D0A0D0A0D0A000D0A0D0A41542B4310
:104810004F50533D302C312C300D0A0D0A0D0A003B
:104820000D0A0D0A41542B434F50533F0D0A0D0AF8
:104830000D0A0000281300202B51454E473A203224
:104840002C0000006E756C6C000000000D0A4154D5
:104850002B51454E473D322C330D0A000D0A0D0AEF
:1048600041542B51454E47203D20300D0A0D0A0D75
:104870000A0000004F4B00002C430000CB52524F67
:1048800052000000004200505000002000000E4086
:104890000168002981D0D761206880B2FCF7C2FE90
:1048A000FCF72CFEFD4AFE4BFCF7D4FC0B22D24356
:1048B000FCF7F4FDFB4AFC4BFCF7CCFCFCF75AF888
:1048C000FA4D2863606880B2FCF7ACFEFCF716FE78
:1048D000F24AF34BFCF7BEFC0B22D243FCF7DEFDA1
:1048E0000022F34BFCF7B6FCFCF744F86863A068C1
:1048F00080B2FCF797FEFCF701FEE84AE84BFCF7B4
:10490000A9FC0B22D243FCF7C9FD0022E84BFCF7BF
:10491000A1FCFCF72FF8E867E06880B2FCF782FEA4
:10492000FCF7ECFDDD4ADE4BFCF794FC0B22D24396
:10493000FCF7B4FD0022DE4BFCF78CFCFCF71AF808
:10494000294680310860206980B2FCF76BFEFCF7D5
:10495000D5FDD24AD24BFCF77DFC0B22D243FCF7AB
:104960009DFD0022D24BFCF775FCFCF703F82946AD
:1049700080314860606980B2FCF754FEFCF7BEFDF0
:10498000C64AC74BFCF766FC0B22D243FCF786FDF8
:104990000022C74BFCF75EFCFBF7ECFF2946803199
:1049A0008860606980B2FCF73DFEFCF7A7FDBB4A5A
:1049B000BB4BFCF74FFC0B22D243FCF76FFD0022F0
:1049C000BB4BFCF747FCFBF7D5FF29468031C8609D
:1049D000E8623221B748FBF79FFE2946B6480C3102
:1049E00002468B1E019100900C3AB4A1B148FBF72E
:1049F000F9FCB648FBF746FEB54988420CD9B549E3
:104A0000B248FBF789FEAB49B0489631FBF75CFE34
:104A1000B1A1AE48FBF758FEA448CD3001F068FEC6
:104A2000FBF7A8FFA14CB04EE065316805F0C2FF6E
:104A300020794C2802D101206070E761AB49606B9E
:104A4000884203DA03206070E76101E00120E06141
:104A5000964D206B8035296905F02AFF01D204208C
:104A600060703168E06D05F0A5FF206A012802D171
:104A7000072060702762606A012805D19C48406A5F
:104A8000002801D10B2060709A480168012902D1E9
:104A90000C2161700760606A012801D10A206070F2
:104AA00095480078A16D884200DD6762206A012880
:104AB0007ED0686A91490A6882427ADB0F607D483D
:104AC00064213230FBF728FE7A4B227996336178E5
:104AD0008BA06E460FC677488BA38EA28EA1323074
:104AE000FBF780FC734979483231FBF7EDFD7148E3
:104AF00064213230FBF710FE6C4B6F4A0C331046CA
:104B0000991E0C3802AE0FC6D631C81F0090019115
:104B10006848884A88A13230A36AFBF763FC65497C
:104B20006A483231FBF7D0FD624864213230FBF72E
:104B3000F3FD5E4A604BD33211461A3908462433DE
:104B4000363001AE0FC6E738034600905948DF33D0
:104B5000921F80A13230FBF745FC56495B48323149
:104B6000FBF7B2FD534864213230FBF7D5FD206BD3
:104B7000FCF7C4FC01910090606BFCF7BFFCE2788D
:104B80000B46616A059204910099019A0090584879
:104B9000019303920291826A464874A13230E3691C
:104BA000FBF720FC434949483231FBF78DFD01E01A
:104BB0009CE10AE13F4864213230FBF7ADFD3B49FF
:104BC0003D4AC831481F42326E4607C6431F02465F
:104BD00038480F3A6BA13230FBF704FC35493B48AB
:104BE0003231FBF771FD344938484C31FBF76CFD2D
:104BF0005DA13648FBF768FD2E4864213230FBF793
:104C00008BFD644E317864480078009063480191D0
:104C1000037863480278274862A13230FBF7E2FB51
:104C200024492A483231FBF74FFD37705A48077044
:104C30005A4807705A4807701E4864213230FBF703
:104C40006BFD226E5AA1501C20661A483230FBF7C9
:104C5000C9FB18491D483231FBF736FD13AE1B491D
:104C60003046FBF731FD2A222421304603F096FF1F
:104C70003046FBF707FD02463146002001F060FE9A
:104C800006460C4864213230FBF746FD094832469F
:104C90004AA13230FBF7A6FB064991E03108AC1C73
:104CA0005A640A409D865049378A094020010020F5
:104CB00000002C402E160020041300202425732C05
:104CC00025732C25732C257300000000B8020020EA
:104CD000540B0000C40900006572726F723A5241B1
:104CE0004D66756C6C0A0000140000200000A040A6
:104CF000404200503000002000000020280000202A
:104D0000322E312E360000004A454C4C594649534C
:104D1000480000004A3031002425732C25732C25CF
:104D2000732C4E522C252E32642C25632C25732C8B
:104D300000000000DC00002025732C25642C257366
:104D40002C25732C25732C25732C25732C25732C63
:104D50000000000025732C25732C25732C25732C43
:104D600025732C25732C25732C00000025642C251D
:104D7000642C252E32662C252E32662C25642C259B
:104D8000632C000025732C25732C25732C25732C84
:104D900025732C00070000200600002005000020DD
:104DA0000400002025642564256425642C0000008F
:104DB00031312C252E36642A0000000025780A00A7
:104DC00032319C48FBF780FC6770206BFCF796FB48
:104DD000994A9A4BFBF7B8FF0022994BFCF73AFA35
:104DE000FBF7C8FDA066079096481A21C9430068E2
:104DF000FCF71CFC944905F085FDE06600909348A3
:104E00000168226991426CDB0760FF212D319048D7
:104E1000FBF782FC2868FCF771FB06460691E06F01
:104E2000FCF76CFB059104900098FCF767FB03917D
:104E300002902869FCF762FB009001910798FCF74B
:104E40005DFB8446069A049811920E90059A81485B
:104E500010960F9206788048037880480278804840
:104E600000780AAC4DC46A6A286A089009920298D0
:104E7000039A06900792009804906046019A029067
:104E800079480592039177490346024601910090C3
:104E90000833143275A16E48FBF7A4FA6C496548D3
:104EA000FBF712FC2A222421694803F077FE6848A8
:104EB000FBF7E8FB02466649002001F041FD05468C
:104EC000684864216438FBF727FC674965482A462F
:104ED000BC316438FBF786FA624956486439FBF7FF
:104EE000F3FB7048406A012802D088E0286AE1E5B7
:104EF000FF212D315648FBF70FFC6B48129701F04C
:104F0000F7FB054668480E460C3801F0F1FB0446F5
:104F100065480091183001F0EBFB0690624805915E
:104F20000C3001F0E5FB4B220492009A00940192B0
:104F300003960295059B069A01F0A6FD0446494892
:104F40000D4664216438FBF7E7FB464822462B46B2
:104F500056A16438FBF746FA524812AC806A012821
:104F600066D053A12046FBF7AFFBFF212D31384817
:104F7000FBF7D2FB4C4B3B481B3B1A460F3A4D49C3
:104F8000643809AD0FC5474B4748CD331A46223226
:104F90001146E33905AD0FC5881E434904900C390D
:104FA00003910F3ACF306D4615C52F4A2D4B143261
:104FB00041A12748FBF716FA25491E48FBF784FB59
:104FC0002A222421224803F0E9FD2148FBF75AFB5D
:104FD00002461F49002001F0B3FC04462148642129
:104FE0006438FBF799FB20491E482246BC316438DF
:104FF000FBF7F8F91B490F486439FBF765FB2A48B2
:105000000C210C30FBF788FB27480C211830FBF7EC
:1050100083FB25490C3908461830FBF755FB22491C
:1050200008461830FBF750FB7FB07FB013B0F0BDDF
:105030002FA197E7B8020020CDCCCCCCCCCC10402F
:1050400000005940380000200000C8422C00002019
:10505000AE110020070000200600002005000020FF
:1050600004000020C4160020004D00002425732CED
:1050700025732C25732C48502C25732C252E336634
:105080002C25642C252E33662C25642C25642C2598
:10509000642564256425642C252E31662C252E314B
:1050A000662A0000200100200413002025662C0041
:1050B000562C0000DC0000202425732C454D522C7A
:1050C00025732C4E4D2C257325732C25732C25739D
:1050D0002C25732C25732C25732C25732C25732CD0
:1050E00025732C472C25732C25732C25732A00003F
:1050F000412C000000B500F001F800BD06498A69A6
:105100001202FCD408600A2804D188690002FCD489
:105110000D20086070470000000015401448016829
:10512000F822914340310160816889088900491C57
:10513000816006210162016801221143016001685A
:10514000C907FCD181688908890081608168890864
:105150008900491C8160C721016201681143016017
:105160000168C907FCD1816889088900816070479E
:105170000040034070B5254B1D68F824A543403519
:105180001D609D68AD08AD009D609D68AD08AD00D7
:105190006D1C9D6006251D621D68012635431D603E
:1051A0001D68ED07FCD19D68AD08AD009D609D6850
:1051B000AD08AD006D1C9D6002251D621D68354364
:1051C0001D601D68ED07FCD11D68A543C0351D603D
:1051D00019621968314319601968C907FCD1196847
:1051E000A14340311960002108E0445C1C621C6846
:1051F00034431C601C68E407FCD1491C9142F4D381
:10520000986880088000986070BD000000400340EE
:1052100070B51B4B1D68F824A54340351D609D6883
:10522000AD08AD006D1C9D6003251D621D68012643
:1052300035431D601D68ED07FCD11D68A543C035D1
:105240001D6019621968314319601968C907FCD1DA
:105250001968A1434031196000210AE000241C6252
:105260001C6834431C601C68E407FCD11C6944546E
:10527000491C9142F2D3986880088000986070BD04
:10528000004003401A4801224262826219480168C4
:10529000F823994340310160816889088900491CDD
:1052A0008160902101620168114301600168C907B2
:1052B000FCD101689943C03101600021016201689D
:1052C000114301600168C907FCD10168994380312D
:1052D0000160002101620168114301600168C90792
:1052E000FCD18168890889008160006980B27047BB
:1052F00040420050004003400D480168F8229143AD
:1053000080310160816889088900491C816005211C
:105310000902016201680122114301600168C907A5
:10532000FCD181688908890081600069C0B270473A
:105330000040034000B5FFF7DFFFC007C00FFAD100
:1053400000BD000038B51DA000681D4C0090216A0A
:105350002013014201D0002016E0080301D51948AE
:1053600000E019488A030FD40A04920F6B469B5C35
:10537000CA058904D20DC90E891C8008921C5943A4
:105380005043FBF747FA8000104DA8602169490798
:10539000490F022903D0880029460C310858A16919
:1053A0000907090F491CFBF735FA094928604A101B
:1053B0008018FBF72FFA686038BD00000102020474
:1053C0000002005000805101001BB7005402002071
:1053D00040420F0070470000FFB5BD4A83B0002473
:1053E000146405210D91114680314C618C61CC61B2
:1053F000D4631A21B7A0FAF7E7FF0498FBF742F944
:10540000012607460F287DDD01F0EAF9B0480021AA
:10541000C16301647D21C900AF48FBF77DF9AFA0EE
:10542000FAF7D2FFAA4D8035AB490D200870AA4883
:105430000599FBF713F96861A7480699FBF70EF980
:10544000A861A5480C99FBF709F9E861AA6969699F
:105450001143014304D19E48016C0D988142E3DB66
:1054600001F0BEF99A49002008640846803040697E
:1054700000283FD000200A46106405210D911146F6
:10548000803148618861C861D0637D21C90092483C
:10549000FBF742F901F0A4F9002505E00498005D4E
:1054A000FFF728FE641C6D1CBD42F7DB1A2189A0A2
:1054B000FAF78AFF864C864D80340D278649864848
:1054C0000F700599FBF7CAF8606183480699FBF7EE
:1054D000C5F8A06180480C99FBF7C0F8E061A269AB
:1054E00061691143014303D1296C0D988142E5DBC9
:1054F00001F076F976488030C069002808D0002194
:105500007B4800E009E0016071484171067007E0E6
:105510006F4800214671017002E06D49002008705B
:1055200000246B48019400944079002819D0684801
:105530000078012813D1FF212D316E48FBF7ECF8DC
:10554000634C6069FCF72AF80146FF220132694882
:10555000FFF75EFE67480078FF287DD0267007B011
:10556000F0BD5B490020086405220D4680350D9290
:105570006861A861E861C8631A2156A0FAF724FFA0
:105580000498FBF77FF807460F2866DD01F028F93D
:105590004F490020C86308647D21C9004E48FBF7CD
:1055A000BBF855A0FAF710FF4B490D2008704A4888
:1055B0000599FBF753F8686147480699FBF74EF8E1
:1055C000A86145480C99FBF749F8E861AA6969693F
:1055D0001143014304D13E48016C0D988142E3DB45
:1055E00001F0FEF83A48002101648030406900284B
:1055F00042D0374A0020106405210D9111468031B8
:1056000048618861C861D0637D21C9003248FBF7D9
:1056100083F801F0E5F8002505E00498005DFFF748
:1056200069FD641C6D1CBD42F7DB1A2129A0FAF745
:10563000CBFE274C264D80340D27274926480F7076
:105640000599FBF70BF8606123480699FBF706F80C
:10565000A06121480C9901E036E032E0FAF7FEFF44
:10566000E061A26961691143014303D1296C0D987E
:105670008142E2DB01F0B4F815488030C0690028AF
:105680000AD01B4900200860114948710E70104C67
:105690006079002805D017E00D480021467101709F
:1056A000F5E70199009888420EDBA069012805D032
:1056B00016491748FBF730F826703CE76421154877
:1056C000F8E70348067036E70020207047E700003F
:1056D00020010020256300007C0C00200D0A4154AD
:1056E0002B514953454E443D300D0A0D0A0D0A0019
:1056F00034000020AE1100200D0A41542B514953B3
:10570000454E443D310D0A0D0A0D0A00C409000042
:10571000B802002060160020FFB5B44ECDB00024C2
:10572000B348746484601A21B2A0FAF74DFEB24DFA
:105730007466FF212D3101A8FAF7F0FFFFF7FAFD9B
:10574000AA4E7069FBF72AFF0146FF22013201A829
:10575000FFF75EFD7069FBF7FBFEB06368460079FA
:10576000FF2818D0002816D0012701F039F80020B2
:10577000306405213446803457916061A061E06156
:10578000F06330647D21C9009B48FAF7C5FF9BA0F8
:10579000FAF71AFE08E0FFF7CDFDFFF7BFFC9C49C2
:1057A00000270F6077610CE10D262E7092484F990B
:1057B000FAF754FF606190485099FAF74FFFA061E3
:1057C0008D485699FAF74AFFE061A2696169114371
:1057D000014304D18548016C57988142E4DB00F015
:1057E000FFFF824900200864084680304069002895
:1057F0003FD000200A4610640521579111468031A0
:1058000048618861C861D0637D21C9007A48FAF790
:1058100083FF00F0E5FF01A8FAF734FF00240090B1
:1058200004E001A8005DFFF765FC641C0098844259
:10583000F7DB1A216FA0FAF7C7FD6C4C80342E708D
:105840006D484F99FAF70AFF60616B485099FAF773
:1058500005FFA06168485699FAF700FFE061A26968
:1058600061691143014304D16048016C579881423A
:10587000E5DB5E4C8034E06900282DD05B4B0022D4
:105880005A645A7100F0ACFF5849002008640522A0
:1058900057926061A061E061C86308647D21C9001E
:1058A0005548FAF739FF5BA0FAF78EFD2E70524883
:1058B0004F99FAF7D3FE60614F485099FAF7CEFE40
:1058C000A0614D485699FAF7C9FEE061A269616985
:1058D0001143014305D009E044490120487148645F
:1058E00079E04248016C57988142DFDB00F078FF95
:1058F0003E490020086408468030406900283FD0B7
:1059000000200A46106405215791114680314861F4
:105910008861C861D0637D21C9003748FAF7FCFE71
:1059200000F05EFF01A8FAF7ADFE0024009004E04D
:1059300001A8005DFFF7DEFB641C00988442F7DBE2
:105940001A212CA0FAF740FD284C80342E702A48EA
:105950004F99FAF783FE606127485099FAF77EFE67
:10596000A06125485699FAF779FEE061A26961695C
:105970001143014304D11D48016C57988142E5DB76
:105980001A488030C069002816D0184C002687219C
:105990006664C905606904F045FF60616671606E08
:1059A00004280DDD20A101A8FAF758FE002807D031
:1059B0000121204641640EE00C4801214171F9E7C4
:1059C0006664052001F07AFF002F00D0B1E6074899
:1059D000406C012806D1054C11218906606905F04B
:1059E00015F8606103F008FF51B0F0BD2001002000
:1059F00040420050256300007C0C00200D0A4154F9
:105A00002B514953454E443D300D0A0D0A0D0A00F5
:105A1000380000200D0A41542B514953454E443D56
:105A2000310D0A0D0A0D0A002A0000001248816893
:105A3000C907C90F1ED0012181601048816A491C25
:105A40008162C16A491CC1620D490A68521C0A6020
:105A50000C490A68521C0A600B490A68521C0A6009
:105A60008178491C817009490968012902D10178AE
:105A7000491C017070470000000001400000002038
:105A800060010020840100203C020020440100202D
:105A900010B50649064B074A04E00C6850781C54C0
:105AA000401C507088694004F7D510BD0040154077
:105AB0006410002000000020F0B50C4800240C4DBC
:105AC0000C4A0D4F0D4E0DE029680906090E09D04C
:105AD0000368D1540168491C01600168B94200DDC6
