S31500000000F82F0020A9030000DD010000B303000063
S3150000001000000000000000000000000000000000DA
S31500000020000000000000000000000000B503000012
S315000000300000000000000000B7030000B903000044
S31500000040BF030000BF030000BF030000BF030000A2
S31500000050BF030000BF030000BF030000BD4900004E
S31500000060BF030000BF030000BF030000BF03000082
S31500000070BF0300006D510000A9510000BF0300003E
S31500000080BF030000BF030000BF030000BF03000062
S31500000090BF030000BF030000BF030000BF03000052
S315000000A0BF030000BF030000BF030000BF03000042
S315000000B0A93A0000BF030000BF030000592F00004B
S315000000C00348854605F0DEFD00480047D1360000AE
S315000000D0F82F0020F0B588B003460A4615786D1C47
S315000000E0157015786D076D0F15701578AD00161D16
S315000000F07351002106E08E00151DAD598E006F4626
S31500000100BD51491C0829F6DB00BF0024002116E07A
S315000001108D006E4676594D1CAD006F467D59AE4238
S315000001200CDD8D006E4670594D1CAD0075598E0064
S31500000130BD514D1CAD006E4670510124491C072966
S31500000140E6DB002CE1D1039808B0F0BDF8B5064611
S3150000015000277D24E400254600BF2546214630467B
S3150000016005F01EF9001944083846791CCFB2072855
S3150000017001DAA542F1D12046F8BD000010B51448B9
S3150000018005F0CFF810BD10B5124805F00EF810BDF9
S3150000019010B5114805F009F810BD10B50446214602
S315000001A00B4805F0C7F810BD10B5044621460948AE
S315000001B005F004F810BD10B504462146064804F0C3
S315000001C0FDFF10BD10B5024805F0BCF810BD0000DB
S315000001D000A0064000B0064000C00640134909686A
S315000001E00222114000290DD010490968490849002A
S315000001F00E4A116000BF0D4909680222114000290C
S31500000200F9D10DE0002007E00949096910221140E3
S31500000210102900D103E0401C06498842F4DB00BFE8
S31500000220704705480549086170470000403000F0F6
S3150000023000F00FF8FFFF01001307000000900440D4
S3150000024010B54948806B1F21490208434649886317
S315000002504648807808210840002804D04348807822
S3150000026008434249887042480068424908603E484F
S3150000027040680121090408433B4948603D48046839
S31500000280E10F091948107D21C90005F09FF83A4988
S31500000290086035484068032189068843012189069C
S315000002A04018314948607D21C9003248006805F090
S315000002B08DF8324908602C4840304068000F411CD8
S315000002C02E48006805F06CF82D4908602648403035
S315000002D04068072212041040000C411C28480068A0
S315000002E005F05EF82749086001204002264948606B
S315000002F08860032000022549486008602449886018
S31500000300C860E12252021C480168224804F05EFFE0
S31500000310E12252021B4801681F4804F0E3FE4B220B
S31500000320D201184801681D4804F0DCFE10BDFF200C
S315000003300130154908610846006909210904084386
S31500000340114908611E2001218140154A116000BF34
S315000003507047052000021349C860034840684021E1
S3150000036008430149486070470080044000D00740B8
S3150000037054F1FF1F38F1FF1F4CF1FF1F3CF1FF1F27
S3150000038040F1FF1F44F1FF1F0090044000D00440DD
S3150000039000C0044000A0064000B0064000C0064071
S315000003A000E100E000B004400548804705480047EA
S315000003B0FEE7FEE7FEE7FEE7FEE703488047FEE7C7
S315000003C031450000C1000000A93A000010B50446FE
S315000003D0E1B2054804F0AEFFE0B210BD10B5024828
S315000003E004F09FFF10BD000000A006400122D207C6
S315000003F0002800DB101A002900DB511A81427047E1
S31500000400FFFFFFFFFFFFFFFFFFFFFFFFFEFFFFFFF7
S31500000410F949097908221140002901D0F649C8791D
S31500000420F549097918221143F34A1171704770B5DD
S315000004300546002400BF05E0295DEF4804F0BEFE36
S31500000440601CC4B2284603F03DFCA042F4D870BD3F
S31500000450FFB583B014461D460C9F01200190002075
S315000004600090E64803F02EFC0290E5480368E54854
S315000004700268E5A0029905F035FCE048029904F00F
S31500000480D2FF0020EE4908603E46FFF7C1FF039801
S31500000490FFF7CDFF00E0761ED848049904F0CEFFA2
S315000004A000280DD12146D54804F0C8FF002807D101
S315000004B02946D24804F0C2FF002801D1002EEADC0A
S315000004C0FFF7A6FFCD4807B0F0BD38B56421DD487B
S315000004D004F0A9FFDC4803F0F5FB04462246DBA145
S315000004E0D84805F00FFCE248E2A3E4A2E5A100909B
S315000004F0D448FFF7ADFF04462146E3A005F0F2FB22
S31500000500FFF786FF0020E249086014E0CE48E04A83
S315000005101268815CB84804F051FECB48DC4A126888
S31500000520815CDC4804F006FFFFF772FFD8480068DC
S31500000530401CD7490860C44803F0C4FBD449096885
S315000005408842E3D20020BE490860D348D3490860F8
S3150000055014E0D2480068401ED04908607D21090198
S31500000560CE48006804F032FF002907D13121C9487E
S3150000057004F0E0FE0A21A04804F020FEC8A19F482E
S3150000058004F05CFF002803D1C44800680128E0DAC3
S31500000590C5A19A4804F052FF0028DAD1AA4803F010
S315000005A091FB04462146A84804F03DFF38BD38B506
S315000005B0AF48B0A3B1A2BEA10090BEA0FFF748FF0E
S315000005C004462146B0A005F08DFB64219D4804F049
S315000005D02AFFC04803F076FB05460C35BE4803F0FB
S315000005E071FB2C182246BDA1964805F08BFBA0484E
S315000005F0A0A3A2A2A3A100909248FFF729FF044658
S315000006002146A1A005F06EFBFFF702FFBDA0FFF794
S315000006100EFF00209E49086012E0AE489C4A126810
S31500000620815C754804F0CAFDAA48994A1268815C43
S31500000630984804F07FFE96480068401C944908607C
S31500000640A44803F03FFB924909688842E5D8AFA069
S31500000650FFF7EDFE00208E49086012E09E488C4AA6
S315000006601268815C644804F0A9FD9B48884A1268B8
S31500000670815C884804F05EFE85480068401C844919
S315000006800860954803F01EFB814909688842E5D851
S31500000690A0A0FFF7CCFE0020694908607E487F498C
S315000006A0086014E07D480068401E7C4908607D2192
S315000006B009017A48006804F089FE002907D1312132
S315000006C0744804F037FE0A214B4804F077FD74A104
S315000006D04A4804F0B3FE002803D170480068012898
S315000006E0E0DA71A1454804F0A9FE0028DAD138BD48
S315000006F00DE06949491C884A116004E08649096889
S31500000700491E854A1160844909680029F6DC0146BC
S31500000710401E0029EDD17047FFB583B005460F4650
S3150000072000240020029000260A20FFF7E1FF0D9822
S3150000073003F0C8FA014601900D9804F074FE00BF5C
S3150000074000BF0AE0295D0C98814201D1761C029413
S315000007500598864200DB714C641C284603F0B2FA09
S31500000760A042EFD8002400260AE0295D06988142BF
S3150000077002D1761C6A480460BE4200DB674C641CEA
S31500000780284603F09FFAA042EFD8002407E0644809
S3150000079000680019401C295C0D980155641C6049CD
S315000007A002980968401A401EA042F0DC07B0F0BD6E
S315000007B038B504466421234804F035FE594A5AA147
S315000007C0204805F09FFA5C4800682AA32BA22DA1B9
S315000007D000901C48FFF73CFE054629462AA005F076
S315000007E081FA28A1054804F029FE002803D000203C
S315000007F027490860B5E0E5E000B0064000000020AB
S315000008002CF1FF1FD4F0FF1F0A73697A656F6662C9
S3150000081075666665722D3E2025642C206D6F7469A1
S315000008206F6E2D3E2025642C206D6F74696F6E5F90
S3150000083073616D706C65732D3E2025640A0000009F
S315000008400CF0FF1FD81D0020881300200D0A41540C
S315000008502B465357524954453D433A5C4C4F472E1D
S315000008605458542C312C25642C31300D0A000000CC
S315000008703F420F004552524F523A00004552524FE6
S31500000880520D0A003E0000000A25730A000000000F
S3150000089004F0FF1F00A006401F4E000014F0FF1FCB
S315000008A04F4B0D0A000000004552524F5200000007
S315000008B04F4B00000A41542B465343524541544581
S315000008C03D433A5C49505F504F52542E5458540D94
S315000008D00A000000F0F0FF1F00F1FF1F0D0A41544F
S315000008E02B465357524954453D433A5C49505F5055
S315000008F04F52542E5458542C302C25642C31300D24
S315000009000A0000007C49507C000000007C504F52D9
S31500000910547C00007C00000028F1FF1FAC2600007C
S3150000092008F0FF1F641900200A41542B434D47531A
S315000009303D222573220D0A00E8F0FF1FF9480068E2
S31500000940215CF94804F03AFCF6480068215CF74857
S3150000095004F0F0FCFFF75CFDF2480068401CF1492A
S315000009600860204603F0AEF9EE4909688842E5D8EA
S315000009701A21ED4804F022FC0020ED490860ED48FC
S31500000980ED49086014E0EC480068401EEA4908603A
S315000009907D214901E848006804F018FD002907D1C7
S315000009A03121E24804F0C6FC1A21DF4804F006FCB7
S315000009B0E2A1E44804F042FD002803D1DE480068C5
S315000009C00128E0DA38BD38B5DF48E04B1A46083270
S315000009D0DFA10090DFA0FFF73BFD04462146DB4880
S315000009E0143005F07FF96421E24804F01CFDE2486A
S315000009F003F068F904460B342246E0A1DD4805F011
S31500000A0081F9D148D14B1A460832E6A10090D9485F
S31500000A10FFF71EFD04462146CC48143005F062F966
S31500000A20FFF7F6FCE0A0FFF702FD0020BD490860D5
S31500000A3012E0D148BB4A1268815CBB4804F0BEFB99
S31500000A40CD48B84A1268815CB84804F073FCB548D2
S31500000A500068401CB3490860C74803F033F9B14940
S31500000A6009688842E5D8D3A0FFF7E1FC0020B04929
S31500000A700860B048D049086014E0CF480068401EBE
S31500000A80CD4908607D210901CB48006804F09EFC31
S31500000A90002907D13121A54804F04CFC0A21A248BF
S31500000AA004F08CFBA9492C31A64804F0C7FC0028A9
S31500000AB003D1C14800680128DFDAA4493431A148CE
S31500000AC004F0BCFC0028D8D138BD10B50146002082
S31500000AD0002206E00A2343438C5C1B191846303873
S31500000AE0521C8B5C002BF5D110BDFFB581B00546BD
S31500000AF01F4600240020009000260A20FFF7F8FD7C
S31500000B000F21384604F08FFC00BF00BF0AE0285DC5
S31500000B10222801D1761C00940398864201DBE12449
S31500000B20A400641C642CF2DB002400260BE0285D84
S31500000B30222802D1761CA14804600298864201DB75
S31500000B40E124A400641C642CF1DB002406E09B482D
S31500000B5000680019401C285C3855641C97490098A9
S31500000B600968401A401EA042F1DC05B0F0BD1FB571
S31500000B7093480078012801D000F06EFE9148924912
S31500000B80924A0346009201910290252290A005F018
S31500000B90A9F89F4800686D4B2C331A46083219464F
S31500000BA000909CA0FFF754FC014603906748143060
S31500000BB005F098F8FFF72CFC9A4B042203216148B4
S31500000BC0FFF793FF98A15F4804F038FC00287AD01D
S31500000BD097A15C4804F032FC002828D0974803F01F
S31500000BE071F801460390954804F01DFC75482521CF
S31500000BF0754A764B00930192029103900346904901
S31500000C008E4805F07FF88D48FFF7D2FD80480068D2
S31500000C104E4B1A46083211462431009089A0FFF740
S31500000C2017FC014603908CA005F05CF82EE08BA122
S31500000C30444804F003FC002828D064214D4804F001
S31500000C40F2FB05214C4804F0EEFB4B480D21202316
S31500000C5005220091019003213A48FFF75DFD4648C1
S31500000C60FFF733FF80490860FFF7ADFE684800686C
S31500000C70364B1A46083211462431009071A0FFF710
S31500000C80E7FB0146039074A005F02CF877A12D48E8
S31500000C9004F0D4FB002844D02B482C4B1A460832CB
S31500000CA02BA1009010463830FFF7D2FB0146039087
S31500000CB02648143005F016F82348244B1A46083205
S31500000CC023A1009000E0D9E26AA0FFF7C1FB01462C
S31500000CD003901E48143005F005F81B481B4B1A46B6
S31500000CE008321BA100901BA0FFF7B2FB0146039040
S31500000CF01648143004F0F6FF0D2265A1684804F08A
S31500000D0079FB684868A1096801601B4868A10978F1
S31500000D100170FFF74CFCFFF756FE174B614A60491E
S31500000D20C8E0DCE004F0FF1F00B0064000A006406B
S31500000D300CF0FF1F1F4E000014F1FF1F2B434D4701
S31500000D40533A0000000000203F420F0074080000E4
S31500000D504F4B00000A41542B4653435245415445DC
S31500000D603D433A5C494E54455256414C2E545854D4
S31500000D700D0A0000D81D00200FF1FF1F0D0A415477
S31500000D802B465357524954453D433A5C494E5445C8
S31500000D905256414C2E5458542C302C25642C31304C
S31500000DA00D0A00003E0000007C494E544552564153
S31500000DB04C7C00007C00000014F0FF1F08F0FF1FB1
S31500000DC035F1FF1F641E0020501E00200AF1FF1F90
S31500000DD00A0A0968747470733A2F2F7777772E672B
S31500000DE06F6F676C652E636F6D2F736561726368D5
S31500000DF03F713D25732563324325732669653D752D
S31500000E0074662D38266F653D7574662D380A0000A8
S31500000E10E8F0FF1F0D0A41542B434D47523D310D5B
S31500000E200A000000641900204F574E45520000008A
S31500000E304C4F434154494F4E00000000101D002006
S31500000E40EC6800000A0A2041542B434D47443D31CB
S31500000E502C340D0A0000000025730A00494E544543
S31500000E605256414C00000000ECF0FF1F5354415213
S31500000E70540000000A41542B465343524541544501
S31500000E803D433A5C4C4F472E5458540D0A0000001F
S31500000E903130342E3233362E3230332E34000000C9
S31500000EA0F0F0FF1F00F1FF1F35353535000000005B
S31500000EB031000000FBA004F015FFFE480068FE4B61
S31500000EC01A460832114624310090FC48FFF7C0FA52
S31500000ED001460390F948143004F004FFA9E2F8A192
S31500000EE0F94804F0ABFA002839D06421F74804F039
S31500000EF09AFA0F21F64804F096FAF5480D212023B8
S31500000F000522009101900321EF48FFF705FCF04A06
S31500000F10F0A1EE4804F0F6FEE6480068E64B1A46F5
S31500000F200832114624310090E848FFF791FA01464D
S31500000F300390E248143004F0D5FEDE480068DE4B2C
S31500000F401A460832114624310090DC48FFF780FA31
S31500000F5001460390D948143004F0C4FEBEE7E5A16B
S31500000F60D94804F06BFA002839D06421D74804F038
S31500000F705AFA0F21D64804F056FAD5480D212023F7
S31500000F800522009101900321CF48FFF7C5FBD04A07
S31500000F90DAA1CE4804F0B6FEC6480068C64B1A462B
S31500000FA00832114624310090C848FFF751FA01462D
S31500000FB00390C248143004F095FEBE480068BE4B4C
S31500000FC01A460832114624310090BC48FFF740FA11
S31500000FD001460390B948143004F084FE7EE7CFA1A1
S31500000FE0B94804F02BFA002839D06421B74804F038
S31500000FF01AFA0F21B64804F016FAB5480D21202337
S315000010000522009101900321AF48FFF785FBB04A06
S31500001010C4A1AE4804F076FEA6480068A64B1A4660
S315000010200832114624310090A848FFF711FA01460C
S315000010300390A248143004F055FE9E4800689E4B6B
S315000010401A4608321146243100909C48FFF700FAF0
S31500001050014603909948143004F044FEF9E3B9A11F
S31500001060994804F0EBF900287ED06421974804F0F3
S31500001070DAF90020B54908604EE0B4480068401E21
S315000010809149085C202842D1B0480068801E085C5F
S3150000109047283CD1AD480068C01E085C552836D1AB
S315000010A0AA480068001F085C422830D1A74800689B
S315000010B0401F085C45282AD1A4480068801F085CA8
S315000010C0442824D10020A249086011E07E489F49A7
S315000010D00968405C7D499E4A126888549B480068AE
S315000010E0401C9A4908609A480068401C9849086064
S315000010F0974800686428E9DB0D21744A9448006823
S31500001100401C11540A2192480068801C11548F48D3
S315000011100068401C8D4908608C480068FF21C33177
S315000011208842AADB63480068634B1A4608321146B8
S31500001130243100906548FFF78BF9014603905F481C
S31500001140143004F0CFFD834802F0BCFD0146039045
S31500001150804804F068F95C4A7FA17E4804F0D2FD1D
S315000011607C48FFF725FB00E011E052480068524B2F
S315000011701A4608321146243100905048FFF768F9A4
S31500001180014603904D48143004F0ACFD61E373A1B1
S315000011904D4804F053F9002822D046480068464BD3
S315000011A01A4608321146243100904448FFF750F998
S315000011B0014603904148143004F094FD3D48006810
S315000011C03D4B1A46083211462431009065A0FFF7C0
S315000011D03FF9014603903948143004F083FD38E3A3
S315000011E065A1394804F02AF9002835D0364963A0AC
S315000011F004F078FD63480021016041608160C160B0
S3150000120020210B4604220091019003212E48FFF76E
S3150000121083FA5D480D2120230522009101900621C5
S315000012202948FFF779FA58492348143004F05AFD43
S31500001230FFF7BDF91F4800681F4B1A4608321146D2
S31500001240243100901D48FFF703F9014603901B481F
S31500001250143004F047FDFCE216480068164B1A46A7
S3150000126008321146243100901448FFF7F1F8014680
S3150000127003901248143004F035FDEAE20F49283194
S31500001280114804F0DBF800280AD040480A4B1A46F9
S3150000129008323FA1009010463830FFF7D9F879E0C0
S315000012A0C8E000000A0A092C25732C25732C257327
S315000012B02C0A0000E8F0FF1F74080000440E00002E
S315000012C04F574E455231000000000020D81D002027
S315000012D0871E00200D0A41542B435042573D312CA6
S315000012E0222573222C3132392C224F574E4552314A
S315000012F0220D0A004F574E45523200000D0A415446
S315000013002B435042573D322C222573222C31323941
S315000013102C224F574E455232220D0A004F574E454A
S31500001320523300000D0A41542B435042573D332C93
S31500001330222573222C3132392C224F574E455233F7
S31500001340220D0A00444542554700000004F0FF1FE5
S3150000135028F1FF1F101D002025730000524553453C
S31500001360540000000A0A2041542B4346554E3D3195
S315000013702C310D0A00000000495000000A0A0A0933
S3150000138025730000F0F0FF1F00F1FF1F3F420F0022
S315000013904F4B000001460390FE4804F0A3FCFE48B4
S315000013A0FC4B143B1A460832FCA10090FC48FFF7A0
S315000013B04FF801460390F74804F094FCF648F54BC5
S315000013C0143B1A460832F5A10090F648FFF740F89C
S315000013D001460390EF4804F085FC0D22F0491C31CC
S315000013E0F14804F007F8F148ED4934310968016025
S315000013F0EF48F0A109780170FFF7D9F8FFF7E3FA93
S31500001400EB4BEA4AE849EC4804F06CFCEB48006810
S31500001410E04B143B1A460832114624310090E0484E
S315000014203038FFF715F801460390DD481C3804F004
S3150000143059FC0EE2E0491C31E14803F0FFFF0028A9
S315000014403DD06421DF4803F0EEFF0F21DE4803F0B4
S31500001450EAFFDD480D21202305220091019003219A
S31500001460D748FFF759F9D84AD3493031D54804F05F
S3150000147049FCD2480068C74B143B1A46083211464D
S3150000148024310090CF48FEF7E3FF01460390C4489D
S315000014901C3804F027FCC9480068BE4B143B1A46AA
S315000014A00832114624310090BD483038FEF7D0FF8F
S315000014B001460390BA481C3804F014FCC9E1BE4941
S315000014C05031BF4803F0BAFF00283DD06421BD4823
S315000014D003F0A9FF0F21BC4803F0A5FFBA480D2170
S315000014E020230522009101900321B548FFF714F946
S315000014F0B54AB1495831B34804F004FCAF48006816
S31500001500A44B143B1A460832114624310090AD48CC
S31500001510FEF79EFF01460390A1481C3804F0E2FB4B
S31500001520A64800689B4B143B1A46083211462431E4
S3150000153000909B483038FEF78BFF01460390984891
S315000015401C3804F0CFFB84E19B4978319C4803F0BA
S3150000155075FF00283DD064219A4803F064FF0F21EF
S31500001560994803F060FF98480D2120230522009139
S31500001570019003219248FFF7CFF8934A8E498031B4
S31500001580904804F0BFFB8D480068824B143B1A4616
S3150000159008321146243100908A48FEF759FF014669
S315000015A003907F481C3804F09DFB84480068794B03
S315000015B0143B1A46083211462431009078483038D8
S315000015C0FEF746FF0146039075481C3804F08AFB77
S315000015D03FE17949A0317A4803F030FF00287DD0F9
S315000015E06421784803F01FFF0020784908604EE028
S315000015F076480068401E7249085C202842D173482C
S315000016000068801E085C47283CD170480068C01EF0
S31500001610085C552836D16D480068001F085C4228D2
S3150000162030D16A480068401F085C45282AD16748BF
S315000016300068801F085C442824D1002064490860A3
S3150000164011E05F4861490968415C5E48604A12687A
S3150000165081545E480068401C5C4908605C4800682C
S31500001660401C5B4908605A4800686428E9DB0D2184
S31500001670544A57480068401C11540A2154480068CF
S31500001680801C115451480068401C504908604F485E
S315000016900068FF21C3318842AADB484800683D4BF9
S315000016A0143B1A4608321146243100904548FEF78D
S315000016B0CFFE014603903A481C3804F013FB454818
S315000016C002F000FB01460390424803F0ACFE3C4AA0
S315000016D041A1404804F016FB3E4800E015E0FFF744
S315000016E067F8364800682B4B143B1A4608321146F9
S315000016F0243100902A483038FEF7AAFE01460390AE
S3150000170027481C3804F0EEFAA3E02B49B8312C48E0
S3150000171003F094FE002826D0284800681D4B143B91
S315000017201A4608321146243100901D483038FEF71B
S315000017308FFE014603901A481C3804F0D3FA1F485E
S315000017400068144B143B1A460832114624310090A7
S315000017501948C030FEF77CFE0146039010481C383D
S3150000176004F0C0FA75E01DA1154803F067FE0028D5
S315000017705DD013491048D83004F0B4FA0A48002165
S31500001780016041608160C16020210B460422009106
S31500001790019025E0880800003F420F004F4B0000F3
S315000017A0740E0000540D0000F0F0FF1F00F1FF1F43
S315000017B00FF1FF1F31000000A4120000E8F0FF1F28
S315000017C000000020D81D0020871E002004F0FF1F07
S315000017D028F1FF1F101D002025730000495000004E
S315000017E00321FE48FEF798FFFD480D212023052220
S315000017F0009101900621F948FEF78EFFF849F94855
S3150000180004F070FAFEF7D3FEF7480068F54B143B78
S315000018101A460832114624310090F448FEF718FEA5
S3150000182001460390F148143004F05CFA11E0EE48EA
S315000018300068EC4B143B1A460832114624310090DE
S31500001840EA48FEF705FE01460390E848143004F026
S3150000185049FA0020E64908701FBDFEB5044600207F
S3150000186002907F26F60520782D2801D1641CE14ED2
S31500001870002721E020782E2801D101271BE02078BF
S315000018800546303D002D15DB092D13DC002F04D055
S31500001890D949304603F07CFE0646284604F048F84F
S315000018A0D5490190029803F036FE0090019903F0A5
S315000018B0D9FD029000BF641C20780028DAD1314699
S315000018C0029803F028FEFEBDFFB581B005461F460F
S315000018D000240020009000260A20FEF709FF0F21B1
S315000018E0384603F0A0FD00BF00BF0AE0285D2C28A3
S315000018F001D1761C00940398864201DBE124A40002
S31500001900641C642CF2DB002400260BE0285D2C28E6
S3150000191002D1761CB94804600298864201DBE124B4
S31500001920A400641C642CF1DB002406E0B3480068C4
S315000019300019401C285C3855641CB0490098096899
S31500001940401A401EA042F1DC05B0F0BDAC490020B3
S31500001950085EAC4909684118AB480068801C8142A2
S3150000196036DCA7490020085EA64909684118A64842
S315000019700068801E81422BDBA4490020085EA44932
S3150000198009684118A3480068801C814220DC9F49F1
S315000019900020085E9E49096841189E480068801E1E
S315000019A0814215DB9C490020085E9C490968411864
S315000019B09B480068801C81420ADC97490020085E2B
S315000019C096490968411896480068801E814203DAE4
S315000019D001209449086002E0002092490860884985
S315000019E00020085E874909684018874908608749CA
S315000019F00020085E864909684018864908608649BD
S31500001A000020085E854909684018854908608548B0
S31500001A100068002805D184480068401C8249086097
S31500001A2002E00020804908607047002000E0401C6A
S31500001A302828FCDB70470146087970478178102218
S31500001A40914381707047817820229143817070475D
S31500001A5000B503461846FFF7F6FF1846FFF7EEFFF8
S31500001A6000BD724900E0491EC27802231A40002ACE
S31500001A70F9D00129F7DBC2781A43C2707047817822
S31500001A8008221143817070470146C878C007C00F0D
S31500001A90002801D1012070470020FCE70171704742
S31500001AA08178042211438170704781781022114396
S31500001AB0817070478178202211438170704700B58C
S31500001AC003461846FFF7F6FF1846FFF7EEFF00BD80
S31500001AD070B504465648FFF7F2FF3A215448FFF71F
S31500001AE0DDFF5348FFF7BDFF5148FFF7CDFF214605
S31500001AF04F48FFF7D3FF4E48FFF7B3FF4C48FFF7B9
S31500001B00C3FF4B48FFF7CCFF3B214948FFF7C6FF11
S31500001B104748FFF7A6FF4648FFF7B6FF4448FFF7DA
S31500001B208DFF4348FFF7ABFF4148FFF784FF0546AB
S31500001B303F48FFF796FF3E48FFF78AFF3C48FFF70E
S31500001B407AFF0546FFF771FF284670BD39480068E1
S31500001B502D280FD2384800682D280BD23748006848
S31500001B602D2807D236480088002803D101203549A0
S31500001B70087005E00020334908700A2030490880C3
S31500001B807047F8B51E48007847B22F493846FEF729
S31500001B90A1FA2E4908601D48007847B22A49243127
S31500001BA03846FEF797FA2A4908601B48007847B27C
S31500001BB0254948313846FEF78DFA264908602348FC
S31500001BC00068404305462248006840430646A81977
S31500001BD0FEF7BCFA174908601D483DE000000020EA
S31500001BE000F1FF1F88080000E8F0FF1F440E000008
S31500001BF035F1FF1F000080BF0000204108F0FF1FE5
S31500001C0068F0FF1F98F0FF1FB0F0FF1F6AF0FF1F7C
S31500001C109CF0FF1FB4F0FF1F6CF0FF1FA0F0FF1F2A
S31500001C20B8F0FF1FD4F0FF1F2CF1FF1F9F860100A5
S31500001C300060064040F0FF1F44F0FF1F48F0FF1F02
S31500001C401EF0FF1F60F0FF1F8419002034F0FF1FF5
S31500001C5038F0FF1F3CF0FF1F0068002805DAFE4839
S31500001C6000684042FD49086003E0FB480068FB4904
S31500001C700860FA490968C801F949096803F090FB48
S31500001C80F8490860084600687F2801D97F20086067
S31500001C90F44800688000F4490858F4490860EE48A2
S31500001CA00068002803DD0846006840420860F048E6
S31500001CB00068044644432819FEF748FAED490860CF
S31500001CC0ED480068002805DAEB4800684042E34921
S31500001CD0086003E0E8480068E0490860DF490968F1
S31500001CE0C801E449096803F05BFBDE490860084661
S31500001CF000687F2801D97F200860DA4800688000E4
S31500001D00D9490858DD490860DB480068002803DD2A
S31500001D1008460068404208603019FEF717FAD849AD
S31500001D200860CD480068002805DACB4800684042C4
S31500001D30CA49086003E0C8480068C8490860C7493E
S31500001D400968C801CE49096803F02AFBC54908603D
S31500001D50084600687F2801D97F200860C1480068CE
S31500001D608000C1490858C7490860BB480068002878
S31500001D7003DD0846006840420860F8BD70B586B0CD
S31500001D800020FFF7A5FE0007000F00287ED00120E7
S31500001D90FFF79EFE04020220FFF79AFE044320B2DC
S31500001DA08010B94908800320FFF792FE0402042040
S31500001DB0FFF78EFE044320B28010B4490880052048
S31500001DC0FFF786FE04020620FFF782FE044320B2D8
S31500001DD08010AF4908800720FFF77AFE040208202A
S31500001DE0FFF776FE0443AB4804600920FFF770FE58
S31500001DF004020A20FFF76CFE0443A74804600B2088
S31500001E00FFF766FE04020C20FFF762FE0443A348B8
S31500001E1004605120FFF75CFEA14908600120FFF72E
S31500001E2057FE000200B29F4908800220FFF750FECD
S31500001E309C490988084300B29A490880084600214F
S31500001E40415E0812974908800320FFF741FE000211
S31500001E5000B2954908800420FFF73AFE92490988A6
S31500001E60084300B29049088008460021415E0812E6
S31500001E708D4908800520FFF72BFE000200B28B4932
S31500001E8008800620FFF724FE884900E03FE0098825
S31500001E90084300B28549088008460021415E0812C1
S31500001EA082490880FFF76DFEFFF750FE1620FFF708
S31500001EB00FFE04461520FFF70BFE05467B49002062
S31500001EC0085E7B4909684018774A0021515E794AC5
S31500001ED012688918039504940191029071490020B3
S31500001EE0085E754909684018009066480068734E98
S31500001EF03668831961480068714E366882195B48F6
S31500001F000068704E366881196F4803F0EBFE06B024
S31500001F1070BD6E49097908221140002901D06B492C
S31500001F20C8796A49097918221143684A11717047BC
S31500001F3010B5FFF7EEFFFF21F531654803F073FAA0
S31500001F406421644803F06FFA6421634803F06BFA76
S31500001F5000206249086000BFFEF71AF95C495F4A33
S31500001F60126888545D480068401C5C490860084651
S31500001F700068FF21EB31884202DD002057490860E6
S31500001F8056480068001F5249085C5228E4D153485D
S31500001F900068C01E085C4D28DED150480068801ECF
S31500001FA0085C4328D8D14D480068401E085C2C28A0
S31500001FB0D2D14A48046800204849086000BFFEF7AD
S31500001FC0E7F84549454A1268885444480068401C69
S31500001FD04249086008460068401E3F49085C2A28B6
S31500001FE0EDD13E48046000BFFEF7D2F838493B4ABF
S31500001FF01268885439480068401C38490860084609
S315000020000068FF21EB31884202DD00203349086079
S3150000201032480068001F2E49085C4728E4D12F4843
S315000020200068C01E085C4728DED12C480068801E68
S31500002030085C4128D8D129480068401E085C2C2835
S31500002040D2D100202549086000BFFEF7A1F821493A
S31500002050224A1268885443E038F0FF1F58F0FF1FE9
S3150000206040F0FF1F5CF0FF1F306600004CF0FF1FC2
S315000020703CF0FF1F44F0FF1F34F0FF1F50F0FF1F1E
S3150000208048F0FF1F54F0FF1F62F0FF1F64F0FF1FB0
S3150000209066F0FF1F7CF0FF1F80F0FF1F84F0FF1F1C
S315000020A088F0FF1F68F0FF1F6AF0FF1F6CF0FF1F2C
S315000020B0A0F0FF1F9CF0FF1F98F0FF1F94F0FF1F7A
S315000020C090F0FF1F8CF0FF1F3068000000C0064034
S315000020D01C1B0020541A0020B81A002028F1FF1FEC
S315000020E0FE480068401CFD49086008460068401E1E
S315000020F0FB49085C2A28A8D1FA4AFBA003F0F2FDA6
S3150000210010BDF0B591B0FB480068052802DA002042
S31500002110F849086000BFFFF70BFFFFF72FFEFFF738
S3150000212015FCF54B03220221EE48FFF7CDFBF34BDE
S3150000213005220421EB48FFF7C7FBF14B07220621D6
S31500002140E848FFF7C1FB00200E9007E0E4490E982F
S31500002150095C0FAA11540E98401C0E900E98062882
S31500002160F4DB0FA8FFF779FBE6490860E64800684C
S3150000217003F03CFC07910690E248006803F036FC49
S31500002180059104900799069801910090DFA0059BA0
S31500002190049A03F0A7FDD748006803F0C9FB07902F
S315000021A0D9480168D748006803F0ADF90690079949
S315000021B0FEF71CF9AFD3D3480068D3490860CE4870
S315000021C0FFF74BFB079003F011FC0D910C900022DA
S315000021D0D24B0D990C9803F033FB0791069003F050
S315000021E0E1FB0B900022CD4B0D990C9803F028FBD8
S315000021F0099108900B9803F0A7FB07910690099B9D
S31500002200089A03F0ADFA04460D460022C34B204659
S31500002210294603F0ADFA04460D460022C04B20467F
S31500002220294603F00DFB079106900B9803F08CFBF3
S3150000223005910490079B069A03F0E8F906460F46B7
S31500002240B048006803F0D2FB069007910591049010
S315000022500FA822462B46019700960290B1A00B9933
S3150000226003F040FD0F21A44803F0DDF832463B465B
S31500002270B2A1A14803F046FDA048FFF7EEFA079089
S3150000228003F0B4FB0D910C900022A44B0D990C9811
S3150000229003F0D6FA0791069003F084FB0B90002218
S315000022A09E4B0D990C9803F0CBFA099108900B9868
S315000022B003F04AFB07910690099B089A03F050FA2F
S315000022C004460D460022954B2046294603F050FA57
S315000022D004460D460022924B2046294603F0B0FAEA
S315000022E0079106900B9803F02FFB05910490079B2E
S315000022F0069A03F08BF906460F4622462B460197AF
S3150000230000968FA00B9903F0EDFC0F217B4803F09C
S315000023108AF832463B4689A1784803F0F3FC86A149
S315000023208B4801F0DFFC8B49894801F0DBFC8AA170
S31500002330874801F0D7FC89A1854801F0D3FC68499C
S31500002340834801F0CFFC87A1814801F0CBFC6549A9
S315000023507F4801F0C7FC11B0F0BD38B5FEF707FCA9
S3150000236083480068834B1A46083211462431009090
S3150000237081A0FEF76DF8044621467E48143003F02E
S31500002380B1FCFF20F530FEF7B3F979480068794BC8
S315000023901A4608321146243100907BA0FEF758F801
S315000023A0044621467348143003F09CFC7D2000014E
S315000023B0FEF79EF9FEF7DBFBFFF7A3FE6C4800680D
S315000023C06C4B1A46083274A1009076A0FEF740F8CE
S315000023D0044621466748143003F084FCFEF7C7FB29
S315000023E0FFF78FFE62480068624B1A4608321146B4
S315000023F0243100906FA0FEF72BF8044621465D4875
S31500002400143003F06FFCFEF7B2FBFFF77AFE584874
S315000024100068584B1A4608321146243100906AA0CB
S31500002420FEF716F8044621465248143003F05AFCCB
S31500002430FEF79DFBFDF7ECFF67A0FDF7F8FFFDF744
S31500002440E7FF1420FEF754F9FEF791FB664B674A47
S3150000245067A16F4803F056FC45480068454B1A468D
S3150000246034326CA100906A48FDF7F2FF044621461B
S315000024704048143003F036FCFDF7CAFF38BD70B58E
S3150000248066A1674802F0DAFF002825D0FDF7C0FFF5
S31500002490634801F017FC0546294662A003F022FCBA
S315000024A029465F4802F0BFFF0020634908600DE03F
S315000024B02748614A1268815C604802F07FFEFDF79A
S315000024C0A7FF5D480068401C5B490860204801F092
S315000024D0F9FB59490968B3E0FDE0000028F1FF1F48
S315000024E0541A0020B81A00200A0925730A09257310
S315000024F00A090A00ECF0FF1F501E0020641E00208F
S315000025000AF1FF1F1CF1FF1F18F1FF1F0A0A090934
S315000025102C25662C092C25662C000000000059404D
S3150000252000004E400A0A09092C25642C25662C2534
S3150000253066092C25732C25640A0000002566000018
S315000025400A0A09092C25642C25662C25660A000032
S31500002550881300203C1E00202C20000024477847CA
S3150000256047412C002C20244778524D432C00000074
S31500002570E8F0FF1F740800000D0A41542B4346552E
S315000025804E3D300D0A0000000D0A41542B434655BE
S315000025904E3D310D0A00000053485554204F4B0D57
S315000025A00A0000000D0A41542B4349505348555424
S315000025B00D0A00000D0A41542B435354543D227713
S315000025C07777220D0A0000000D0A41542B43494932
S315000025D043520D0D0A0000000A41542B434946534D
S315000025E0520D0D0A0000000000F1FF1FF0F0FF1F62
S315000025F00D0A41542B43495053544152543D2254E1
S315000026004350222C222573222C222573220D0A00E8
S31500002610D81D0020434F4E4E454354003E00000057
S31500002620000000200A73697A656F666275666665E2
S31500002630722D3E2025640A0004F0FF1F00B00640FC
S31500002640884200D934E70A21FE4802F0B7FD1A2174
S31500002650FC4802F0B3FD0020FB490860FB4C0FE08C
S31500002660641E7D210901204602F0B0FE002907D133
S315000026703121F74802F05EFE1A21F24802F09EFD73
S31500002680F4A1F74802F0DAFE002801D1012CE7DABE
S31500002690F34801F017FB05462946F24803F022FBF2
S315000026A0ECA1EF4802F0CAFE002801D1FDF70DFFAC
S315000026B0EB49ED4803F016FB1A21E24802F07EFDD5
S315000026C0FDF7A6FEE94801F0FDFA06463146E74861
S315000026D002F0A9FE0AE01A21DA4802F06FFDE4A032
S315000026E003F000FBFFF739FEFDF7EFFE1A21D54890
S315000026F002F064FD70BD1CB56421E54802F093FE4E
S31500002700E4A1E34803F0FEFAEB48EC4B1A46083224
S31500002710EBA10090DE48FDF79BFEEA487C210B46C4
S315000027200322009101900221CD48FDF7F5FFE6480E
S315000027307C210B460522009101900421C848FDF733
S31500002740EBFFE14BDF4AC649E04803F0CBFA1CBD7C
S315000027501CB56421CE4802F066FEDDA1CC4803F02C
S31500002760D1FAD548D54B1A460832D5A10090C848AB
S31500002770FDF76EFEE0487C210B4603220091019096
S315000027800221B748FDF7C8FFDB48FEF79EF9DB4993
S315000027900860D949DA4803F0A5FA1CBD70B50446AD
S315000027A00D4616460020D7490860D7480068D74925
S315000027B0086000BFA34802F0D4FC002818D0A14846
S315000027C0C079D349CF4A12688854CE480068401C65
S315000027D0CC490860CC480068CC490860C948006804
S315000027E0FF212B31884209DD0020C649086005E03B
S315000027F0C6480068401EC549086000BFAF492C3175
S31500002800C34802F01BFE002810D1AC490831C0486D
S3150000281002F014FE002809D1BC480068002805DD36
S31500002820A649BB4802F00AFE0028C3D070BDF8B521
S3150000283004460E4615461F460020B2490860B248B7
S315000028400068B249086000BFB24802F08AFC00285E
S3150000285018D0B048C079AE49AA4A12688854A94827
S315000028600068401CA7490860A7480068A749086097
S31500002870A4480068FF212B31884208DD0020A149C9
S31500002880086004E0A1480068401EA049086021468F
S315000028909F4802F0D3FD00280FD131469C4802F034
S315000028A0CDFD002809D199480068002805DD294694
S315000028B0974802F0C3FD0028C6D0F8BD70B504469F
S315000028C0002505E0615D934802F078FC681CC5B2FE
S315000028D0605D0028F6D170BDF8B507460C46154672
S315000028E01E468B4801F0EEF900908948009902F0E7
S315000028F09AFDFFF70EFB3846FFF7E0FF3246294602
S315000029002046069BFFF793FFFFF703FB8048F8BDC1
S31500002910F0B585B08048694B1A46083268A1009028
S315000029207EA0FDF795FD074639466448143003F04E
S31500002930D9F981480A212023022200910190012120
S315000029404748FDF7E9FE7C48FEF787FF03907B4981
S31500002950039802F01DFE7F21C905019002F082FD59
S31500002960074603F005F8064600249EE1AF21C9009C
S31500002970734802F058FD6421454802F054FDAF202B
S31500002980C000604302466FA1414803F0BBF96248AC
S315000029904A4B1A4608324AA100903D48FDF758FDB9
S315000029A007463A46214670A003F09CF964480A217E
S315000029B00B4609220091019002212948FDF7ACFE41
S315000029C05F494F4803F08EF9FDF722FD684800681D
S315000029D0244B103B394A083266A1009066A0FDF7E9
S315000029E037FD074639463548143003F07BF961A1B7
S315000029F01B4802F023FD002822D0FDF709FD1848E8
S31500002A0001F060F902901748029903F06BF9144837
S31500002A10029902F008FD00203A490860B7E04848EC
S31500002A20384A1268815C074802F0C8FB4448354AB8
S31500002A301268815C064802F07DFC32480068A3E01B
S31500002A40FBE0000000B006400CF0FF1F411F000035
S31500002A5000A0064053454E44204F4B0D0A0000008F
S31500002A60000000202426000084680000881300204F
S31500002A707265696E697469616C697A6174696F6E91
S31500002A80204F4E204C4F4F502E2E2E0A0000000095
S31500002A90D81D00200A41542B4653524541443D431C
S31500002AA03A5C49505F504F52542E5458542C302C97
S31500002AB03130302C310D0A009F8601007408000069
S31500002AC04F4B0000F0F0FF1F00F1FF1FA069000050
S31500002AD00A41542B4653524541443D433A5C494EC4
S31500002AE054455256414C2E5458542C302C313030CB
S31500002AF02C310D0A000000000FF1FF1FECF0FF1F44
S31500002B005469000004F0FF1F14F0FF1F08F0FF1FB8
S31500002B101C1B002000C006403F420F000A41542BF8
S31500002B204653464C53495A453D433A5C4C4F472E13
S31500002B305458540D0A000000781E00200000AF44CF
S31500002B40961E00200A41542B4653524541443D43AC
S31500002B503A5C4C4F472E5458542C312C313430307B
S31500002B602C25640D0A0000000A25642C25730A0032
S31500002B70E8F0FF1F3E0000000D0A41542B43495068
S31500002B8053454E440D0A0000401CFE490860FE48AD
S31500002B9001F098F8FB490968884200D93FE70A2105
S31500002BA0FA4802F00BFB1A21F84802F007FB002056
S31500002BB0F7490860F74D0FE06D1E7D210901284693
S31500002BC002F004FC002907D13121F34802F0B2FBE0
S31500002BD01A21EE4802F0F2FAF049F14802F02EFC12
S31500002BE0002801D1012DE7DAEE49ED4802F026FC76
S31500002BF00028E1D1EA4801F065F80290EA48029916
S31500002C0003F070F81A21E14802F0D8FAFDF700FC4B
S31500002C10641C701EA04248DCE448E24B343B1A4672
S31500002C200832E3A10090E348FDF712FC0746394657
S31500002C30DC48203803F056F837E0FDF746FCDE485E
S31500002C4001F040F807463946DB4802F0ECFBDBA012
S31500002C5003F048F8FFF781FBFDF737FCD348D14B6B
S31500002C60343B1A460832D2A10090CC48C830FDF752
S31500002C70EFFB07463946CB48203803F033F8D548F2
S31500002C800A2120230222009101900121C448FDF768
S31500002C9043FDD048FEF7E1FD0390CF49039802F0CB
S31500002CA077FC074602F064FE0646B44200DA5DE6AB
S31500002CB005B0F0BD38B5C94BC94ABB493439C94816
S31500002CC003F020F8C8480068B74B103BB54A2C3AC9
S31500002CD019460090C348FDF7BBFB04462146B148A0
S31500002CE0203802F0FFFFFFF713FE38BDBF49496BDE
S31500002CF040221143BD4A516305210902BC4A1162B3
S31500002D0051621421417080218170704700B5B94825
S31500002D10FFF7ECFF00BD70B504460D46B548FEF75B
S31500002D20CEFE3A21B348FEF7B9FEB248FEF799FE49
S31500002D30B048FEF7A9FE2146AE48FEF7AFFEAD4805
S31500002D40FEF78FFEAB48FEF79FFE2946A948FEF721
S31500002D50A5FEA848FEF785FEA648FEF795FEA548FF
S31500002D60FEF776FEFEF761FE70BD8178082291437C
S31500002D7081707047002181709C49496B8022914384
S31500002D809A4A5163704710B5FFF7C0FF2A20FEF735
S31500002D909FFEC4B2FE20204001462A20FFF7BBFF5B
S31500002DA0FE212046884304460220204301462A206D
S31500002DB0FFF7B1FF022004430120204301462A20E9
S31500002DC0FFF7A9FF10BD8948806B0721C902084398
S31500002DD086498863881586494863C8638649486179
S31500002DE0864948618861C86108628548406805214E
S31500002DF04907084382494860814840384068202195
S31500002E0008437F49403948607D4880384068FF2143
S31500002E10C13108437A498039486008464068202114
S31500002E200843774980394860754840690521490754
S31500002E300843734948617248403840692021084375
S31500002E406F49403948616E4880384069FF21E13159
S31500002E5008436B49803948618805694948608000A4
S31500002E6048602020664940394860402064498039DE
S31500002E704860802048604000486020208860704795
S31500002E805A48806B0121C9020843584988635D4846
S31500002E905A49C8605548806B0121090308435349C4
S31500002EA088635848544988611F2001218140564A49
S31500002EB0116000BF704700B554480078030002F067
S31500002EC04CFF063B040F1A25303B012040074C49B6
S31500002ED0886080008860202049494039486039E090
S31500002EE00120400746494860800088602020444908
S31500002EF0403948602EE00120400741494860800083
S31500002F00486020203E494039886023E00120400780
S31500002F103B498860800048602020394940398860F4
S31500002F2018E001204007364988608000886020202C
S31500002F303349403988600DE00120400730498860F8
S31500002F408000486020202E494039486000202F49E3
S31500002F50087000BF00BF00BD00B528488030006A79
S31500002F600821084000285AD024488030006A0843C7
S31500002F702249803108622648006801210843244915
S31500002F80086047E004F0FF1F961E002000B00640D0
S31500002F900CF0FF1F411F000000A00640542A00004D
S31500002FA000000020A8080000242600003F420F0071
S31500002FB04F4B0000740E0000881300207265696E86
S31500002FC0697469616C697A6174696F6E2E2E2E0A56
S31500002FD000000000781E00200000AF4400F1FF1F33
S31500002FE0F0F0FF1FD81D0020E8F0FF1F008004400E
S31500002FF040D004400060064000C0044000B00440D9
S3150000300000F10F4003010A0000E100E000F0FF1F9D
S31500003010D8F0FF1FFE480078401CFD490870FD48A7
S31500003020006A4021084000280DD0FA48006A08438B
S31500003030F8490862F848006801210843F649086023
S315000030400120F6490870FFF736FF00BD70470020E3
S31500003050F3498861F3484861052008617047F048E4
S31500003060006940084000EE490861704770B5EC48B9
S3150000307085698469281BEC4908602946EBA002F0A3
S3150000308031FE2146F0A002F02DFEE7480168F5A0CA
S3150000309002F028FE70BD30B503460C4619461846A8
S315000030A015E00D780570491C0578A5420DD0057808
S315000030B095420AD00578202D07D005782F2D04D00B
S315000030C005783A2D01D0012500E0002528180D7855
S315000030D0002DE6D1057030BD0CE0ED49ED4A1160DA
S315000030E004E0EC490968491EEA4A1160E9490968A1
S315000030F00029F6DC0146401E0029EED1704770B566
S3150000310000251421E44802F08EF9FDF781F9002428
S3150000311035E0E248005D0A2830D0E048005D0D2821
S315000031202CD0DE48005D412828D0DC48005D5428BC
S3150000313024D0DA48005D2B2820D0D848005D4728E7
S315000031401CD0D648005D532818D0D448005D4E28C0
S3150000315014D0D248005D4F2810D0D048005D4B28CF
S315000031600CD0CE48005D452808D0CC48005D5228DA
S3150000317004D0CA48005DC84948556D1C641CC74840
S3150000318000F0A0FDA042C4D870BD3EB5C448C54BF2
S315000031901A460832C4A10090C4A0FDF759F90546A5
S315000031A02946C048143002F09DFD02A82C210B468A
S315000031B00222009101900121B848FDF7ADFA684658
S315000031C0007A0446303C234622462146BBA00094A2
S315000031D002F088FD230002F0C0FD064B04122230E7
S315000031E03F4B01204007BA494860800048602020D4
S315000031F0B749403948600006B549886043E0012078
S315000032004007B3494860800048602020B0494039F3
S3150000321048600006AE4988608000886033E001207F
S315000032204007AB494860800048602020A8494039E3
S3150000323048608006A649886025E001204007A44929
S315000032404860800048602020A14940394860886075
S3150000325080069F49886016E0012040079C49486027
S315000032608000486020209A494039486088600AE01A
S315000032700120400796494860800048602020944914
S315000032804039486000BF00BF3EBD1CB5FDF76FFC6E
S31500003290FFF77BFFFDF76BFCFEF733FFFDF767FCDF
S315000032A08C4800687F4B1A4608328BA100908DA08F
S315000032B0FDF7CEF8044621467A48143002F012FD96
S315000032C0FDF755FCFEF71DFFFDF751FC8148006830
S315000032D0744B1A46083211462431009085A0FDF73A
S315000032E0B7F804462146864802F0FCFCFDF73FFC91
S315000032F0FFF705FFFDF78CF8674800F0E3FC04468E
S31500003300224665497FA002F0EDFC6421804802F068
S315000033108AF8804B804A81497D4802F0F3FCFEF72B
S31500003320F0FE6C4800685F4B1A4634327B49243104
S3150000333000907748FDF78CF804462146594814302A
S3150000334002F0D0FCFEF7DDFE754800F0BBFC04463B
S31500003350214674A002F0C6FC5E48006873A3514A79
S31500003360083276A1009066480C30FDF771F80446E5
S3150000337021464C48143002F0B5FCFEF7C2FEFDF7BC
S3150000338047F8FFF77CF8FDF7F2FBFEF7BAFEFDF70C
S31500003390EEFB50480068434B1A460832114624316A
S315000033A0009067A0FDF754F804462146544802F001
S315000033B099FCFDF7DCFB474800683A4B1A46083291
S315000033C011462431009062A0FDF742F804462146DA
S315000033D04B4802F087FC64214D4802F024F80F2187
S315000033E05F4802F020F85E4822210B460222009137
S315000033F0019001212948FDF78FF9594A59A14448FE
S3150000340002F080FC33480068264B1A460832B3E0C7
S3150000341000F0FF1F80C00440D8F0FF1F35F1FF1FEA
S3150000342000E000E03F9C0000E4F0FF1F7379737436
S3150000343069636B2073746172742076616C75653A8A
S3150000344020307825780A0D007379737469636B20D0
S31500003450656E642076616C75653A20307825780A49
S315000034600D0000007379737469636B206375727263
S31500003470656E742076616C75652072656164206F77
S31500003480766572686561643A20307825780A0D00A1
S315000034908813000028F1FF1F3C1E002000000020BA
S315000034A03F420F00740800004F4B00000D0A4154C4
S315000034B02B43494E443F0D0A000000000A092564CB
S315000034C00A0925640A0925640A0925640A00000018
S315000034D000F10F40E8F0FF1F434C4F5345204F4B80
S315000034E00D0A00000D0A41542B434950434C4F53DB
S315000034F0450D0A000A0A41542B47534E0D0A000097
S315000035006C2B00000A2573092D3E0925640A00006C
S31500003510D81D002000F1FF1FF0F0FF1FF02500006E
S31500003520881300200A25640A00000000434F4E4E0F
S31500003530454354204641494C000000003E0000002F
S315000035400A0A41542B434D47463D310A0A00000002
S315000035500A0A41542B435343413F0D0A0000000021
S31500003560871E00200D0A41542B435343413D22251B
S3150000357073220D0A00000000114624310090FE4817
S31500003580FCF766FF04462146FC4802F0ABFBFC480C
S315000035900068142804DBFFF78DFB0020F84908605B
S315000035A0FDF7E5FAFEF7ADFDFDF7E1FA1CBD10B536
S315000035B0FEF7E4FBF34800684042F3490860F3482D
S315000035C000684042F2490860F24800684042F24909
S315000035D00860F2480021415E4842F1490860F1481E
S315000035E00021415E4842F0490860F0480021415EF2
S315000035F04842EF49086010BD38B5FDF7B8FAED4806
S315000036000068ED4B1A460832EC49009008460C302B
S31500003610FCF71EFF04462146E748143002F062FB21
S31500003620FEF76FFDFDF7A3FAE2480068E24B1A4683
S315000036300832114624310090E0481C30FCF708FFA0
S3150000364004462146DC48143002F04CFBFEF759FDD7
S31500003650FDF78DFAD7480068D74B1A46083211464F
S3150000366024310090D5483030FCF7F2FE044621465E
S31500003670D148143002F036FBFEF743FDFDF777FA2A
S31500003680FCF7C6FECD484030FCF7D1FEFCF7C0FE85
S315000036901420FDF72DF8FDF76AFAC94BC94AC74948
S315000036A05831B54802F02EFBC2480068C24B1A4694
S315000036B00832C2497C310090AF48FCF7C9FE044687
S315000036C02146BD48143002F00DFBFCF7A1FE38BDC3
S315000036D01CB500F0C7FCFFF7BAFCFFF774FBFFF759
S315000036E0CFFBFFF750FB0121FF20F53001F02DFB4A
S315000036F01A21B54801F062FD1A21B34801F05EFDBA
S3150000370000BF1A21B04801F059FD0A21AE4801F068
S3150000371055FD1A21AC4801F051FD0A21AA4801F0D5
S315000037204DFD1A21A84801F049FDA2480068A24BA8
S315000037301A460832114624310090A4A0FCF788FEF0
S31500003740044621468D4802F0CDFA9B492C31A1480A
S3150000375001F074FE0028D4D096480068964B1A46AD
S3150000376008321146243100909BA0FCF771FE0446F6
S315000037702146824802F0B6FA8E4800688E4B1A46F9
S31500003780083211462431009096A0FCF761FE0446EB
S3150000379021467A4802F0A6FA86480068864B1A4601
S315000037A0083211462431009091A0FCF751FE0446E0
S315000037B02146724802F096FA7E4800687E4B1A4609
S315000037C008321146243100908CA0FCF741FE0446D5
S315000037D021466A4802F086FA76480068764B1A4611
S315000037E0083211462431009087A0FCF731FE0446CA
S315000037F02146624802F076FA6E4800686E4B1A4619
S3150000380008321146243100908348FCF721FE044615
S3150000381021465A4802F066FAFFF771FC65480068CF
S31500003820654B1A4608321146243100907BA0FCF7FE
S315000038300FFE04462146514802F054FA5D480068DE
S315000038405D4B1A46083211462431009062A0FCF7FF
S31500003850FFFD04462146494802F044FA55480068EF
S31500003860554B1A46083211462431009066A0FCF7E3
S31500003870EFFD04462146414802F034FA4D480068FF
S315000038804D4B1A46083211462431009067A0FCF7CA
S31500003890DFFD04462146394802F024FA454800680F
S315000038A0454B1A46083211462431009062A0FCF7B7
S315000038B0CFFD04462146314802F014FA3D4800681F
S315000038C03D4B1A46083211462431009064A0FCF79D
S315000038D0BFFD04462146294802F004FAFEF738FFE8
S315000038E034480068344B1A46083211462431009099
S315000038F049484C30FCF7ACFD044621461F4802F00F
S31500003900F1F92C4800682C4B1A460832114624312E
S31500003910009041485C30FCF79BFD04462146174861
S3150000392002F0E0F96421144801F07DFD0F215648AC
S3150000393001F079FD544822210B46022200910190A4
S3150000394001212448FCF7E8FE4F4A334970310A4802
S3150000395002F0D8F917480068174B1A460832114684
S31500003960243100900448FCF773FD044621460348C1
S3150000397002F0B8F90A2089E0D81D00206C2B00005F
S315000039802CF1FF1F4CF0FF1F8CF0FF1F50F0FF1FA4
S3150000399090F0FF1F54F0FF1F94F0FF1F68F0FF1F09
S315000039A098F0FF1F6AF0FF1F9CF0FF1F6CF0FF1FCF
S315000039B0A0F0FF1FE8F0FF1F740800009825000024
S315000039C000F1FF1FF0F0FF1F00B006400A0A415445
S315000039D00D0A0000000000200A0A415426570D0A6D
S315000039E0000000000A0A415453303D320D0A00001F
S315000039F00A0A415426460D0A000000000A0A4154EC
S31500003A0026440D0A000000000A0A41542B49464389
S31500003A103D302C300D0A0000F43400000A0A4154EF
S31500003A202B53443250434D3D300D0A000A0A41548F
S31500003A3053303D310D0A00000A0A41542B435042CF
S31500003A40573D352C22393837333939393130382218
S31500003A502C3132392C224F574E455235220D0A0051
S31500003A600A0A41542B435042573D362C22383238ED
S31500003A7037333234303035222C3132392C224F57FD
S31500003A804E455236220D0A00871E0020FCF730FEF6
S31500003A90FEF731FEFFF7B0FDFFF789FD03E0FEF705
S31500003AA06DF9FFF7F2FBFAE710B50D480078401CF8
S31500003AB00B49087008460078052801DD00200870CB
S31500003AC0FFF7F9F9FEF75AF9FDF740FF05480068D8
S31500003AD08021084303490860C120086010BD00002A
S31500003AE000F0FF1F000004400146202901D00929EB
S31500003AF001D1012070470020FCE70146302901DB97
S31500003B00392907DD412901DB5A2903DD612903DB58
S31500003B107A2901DC012070470020FCE701463029A4
S31500003B2003DB392901DC012070470020FCE7014650
S31500003B30412903DB5A2901DC012070470020FCE7FC
S31500003B4030B503460C4600201AE019785B1C227833
S31500003B50641C612904DB7A2902DC0D46203DE9B2AA
S31500003B60612A04DB7A2A02DC1546203DEAB28D1A68
S31500003B70280000D006E0002901D0002A00D101E08B
S31500003B800028E2D000BF30BDF8B503460C46154606
S31500003B900026002000901BE019785B1C2278641C2C
S31500003BA0612904DB7A2902DC08462038C1B2612A81
S31500003BB004DB7A2A02DC10462038C2B2881A00904A
S31500003BC0002800D008E0002901D0002A00D103E037
S31500003BD03046761CA842DFDB00BF0098F8BDFEB574
S31500003BE006460C460020029001900090002E05D05B
S31500003BF0002A03DB012A01D0242A04DD002C00D090
S31500003C0026600020FEBD334600E05B1C1878FFF7F7
S31500003C106BFF0028F9D118782D280ED0302810D146
S31500003C205878782802D05878582805D1002A01D02B
S31500003C30102A01D110229B1C04E0012000905B1C7D
S31500003C4000E000BF00BF002A00D10A221F4628E07C
S31500003C502846FFF752FF002802D10120019023E0F9
S31500003C602846FFF75BFF002801D0303D07E02846D5
S31500003C70FFF75DFF002801D0373D00E0573D954234
S31500003C8002DB012001900FE00098002804D0029882
S31500003C905043401B029003E00298504340190290A3
S31500003CA07F1C38780500D3D100BF002C00D02760D8
S31500003CB00198002804D0002C00D026600020A1E73F
S31500003CC002989FE710B501460A460023002A01D153
S31500003CD0002010BD00E05B1C1478521C002CFAD1A9
S31500003CE01846F6E7F0B505460E463746002D0ED0C7
S31500003CF0002E0CD02846FFF7E5FF441903E038787C
S31500003D0020707F1C641C38780028F8D12070284663
S31500003D10F0BDF7B505460E463746002D17D0002EE6
S31500003D2015D00298002812DD2846FFF7CBFF44196C
S31500003D3003E0387820707F1C641C3878002804D093
S31500003D400298411E02910028F3DC002020702846CC
S31500003D50FEBD10B50A460146134600280AD0002AC1
S31500003D6008D003E01C780C705B1C491C1C78002CE6
S31500003D70F8D10C7010BD70B50B4601461C460028E4
S31500003D8011D0002B0FD0002A0DDD03E025780D7031
S31500003D90641C491C2578002D03D01546521E002DA3
S31500003DA0F4DC00250D7070BD30B503460C461A468E
S31500003DB0214606E010780D78A84200D004E0521C97
S31500003DC0491C08780028F5D100BF10780D78401BF3
S31500003DD030BD70B504460D4623462946002A01DC4F
S31500003DE0002070BD0AE018780E78B04200D008E0D6
S31500003DF0501E020000D104E05B1C491C0878002814
S31500003E00F1D100BF18780E78801BEAE7F7B581B0CC
S31500003E100199029C019900291CD00298002819D00A
S31500003E20002A17D093079B0FD01A8008009001E054
S31500003E3001CC01C10098471E00970028F8D10D4615
S31500003E40264603E030782870761C6D1C18465B1EEB
S31500003E500028F7D1019804B0F0BD30B50B460146F5
S31500003E60002808D0002A06D001E00B70491C144631
S31500003E70521E002CF9D130BD10B58C48406A07217E
S31500003E8009070840000F030001F067FF0504080C4E
S31500003E901014180086A001F025FF13E086A001F09B
S31500003EA021FF0FE086A001F01DFF0BE086A001F0C8
S31500003EB019FF07E086A001F015FF03E086A001F0D8
S31500003EC011FF00BF00BF7948406A07210906084074
S31500003ED0000E042804D0052806D006280CD107E0D9
S31500003EE087A001F0FFFE0BE086A001F0FBFE07E0D5
S31500003EF085A001F0F7FE03E084A001F0F3FE00BF09
S31500003F0000BF6A48406A0007000F030001F025FF62
S31500003F1009060A0E2212161A221E220086A001F097
S31500003F20E1FE1BE086A001F0DDFE17E086A001F0B1
S31500003F30D9FE13E086A001F0D5FE0FE086A001F0C1
S31500003F40D1FE0BE086A001F0CDFE07E086A001F0D1
S31500003F50C9FE03E087A001F0C5FE00BF00BF5348BD
S31500003F60406A072109050840000D012803D18CA0ED
S31500003F7001F0B8FE03E094A001F0B4FE00BF00BF5C
S31500003F804A48406A072109040840000C030001F072
S31500003F90E4FE0805090D1115191D212595A001F04E
S31500003FA0A1FE1FE099A001F09DFE1BE09CA001F080
S31500003FB099FE17E09FA001F095FE13E0A2A001F084
S31500003FC091FE0FE0A5A001F08DFE0BE0A9A001F087
S31500003FD089FE07E0ADA001F085FE03E0B1A001F087
S31500003FE081FE00BF00BF31484030C0680F2109067E
S31500003FF00840000E05281AD006DC00280BD0012840
S315000040000DD0032823D10EE0072814D0092816D096
S315000040100F281CD117E0AAA001F064FE1BE0B8A08F
S3150000402001F060FE17E0C6A001F05CFE13E0D3A02D
S3150000403001F058FE0FE0E0A001F054FE0BE0EDA009
S3150000404001F050FE07E0DCA001F04CFE03E0F8A012
S3150000405001F048FE00BF00BF0F242146FCA001F07E
S3150000406041FE10BD10B50020FE490860FCF7E8F8D7
S3150000407053A001F037FE00F097FEFFF7FDFE10BDDE
S3150000408010B50320F849C87100208871487108717D
S315000040900120C8738020087000BFF3480078802193
S315000040A008400028F9D0F048C17ADFE100800440DA
S315000040B00A0D4B4C300000000A0D4B4C310000003D
S315000040C00A0D4B4C320000000A0D4B4C3300000029
S315000040D00A0D4B4C340000000A0D556E7265636F75
S315000040E0676E697A6564204B696E657469732066CC
S315000040F0616D696C79206465766963652E0A0D00C9
S31500004100340A0D00350A0D00360A0D000A0D556EEB
S315000041107265636F676E697A6564204B696E657454
S315000041206973207375622D66616D696C79206465AB
S31500004130766963652E0A0D00313670696E0A0D00C8
S31500004140323470696E0A0D00333270696E0A0D00E2
S31500004150343870696E0A0D00363470696E0A0D00C7
S31500004160383070696E0A0D0031303070696E0A0D94
S31500004170000000000A0D556E7265636F676E697AFE
S315000041806564204B696E65746973207061636B6149
S31500004190676520636F64652E2020202020200000A4
S315000041A00A0D4C6F7720506F776572204C696E65EB
S315000041B0207769746820436F72746578204D302BC0
S315000041C00A0D0A0D000000000A0D556E7265636F38
S315000041D0676E697A6564204B696E657469732066DB
S315000041E0616D696C79206174747269627574652E8B
S315000041F00A0D00005352414D202073697A653A201A
S31500004200302E35204B420A0D000000005352414D1E
S31500004210202073697A653A202031204B420A0D002E
S315000042205352414D202073697A653A202032204B43
S31500004230420A0D005352414D202073697A653A2097
S315000042402034204B420A0D005352414D2020736901
S315000042507A653A202038204B420A0D005352414DD0
S31500004260202073697A653A20203136204B420A0DA8
S31500004270000000005352414D202073697A653A20B0
S31500004280203332204B420A0D000000005352414DAC
S31500004290202073697A653A20203634204B420A0D75
S315000042A0000000000A0D556E7265636F676E697ACD
S315000042B06564205352414D2053697A652E0A0D00DC
S315000042C0466C6173682073697A653A202038204B02
S315000042D0422070726F6772616D20666C6173682C24
S315000042E020302E3235204B422070726F7465637415
S315000042F0696F6E20726567696F6E0A0D00000000B7
S31500004300466C6173682073697A653A2020313620DD
S315000043104B422070726F6772616D20666C617368C4
S315000043202C20302E35204B422070726F74656374DA
S31500004330696F6E20726567696F6E0A0D0000000076
S31500004340466C6173682073697A653A20203332209F
S315000043504B422070726F6772616D20666C61736884
S315000043602C2031204B422070726F74656374696F24
S315000043706E20726567696F6E0A0D0000466C617388
S31500004380682073697A653A20203634204B422070C3
S31500004390726F6772616D20666C6173682C203220C3
S315000043A04B422070726F74656374696F6E2072651C
S315000043B067696F6E0A0D0000466C61736820736949
S315000043C07A653A2020313238204B422070726F676E
S315000043D072616D20666C6173682C2034204B42201C
S315000043E070726F74656374696F6E20726567696F4A
S315000043F06E0A0D00466C6173682073697A653A200F
S3150000440020323536204B422070726F6772616D2004
S31500004410666C6173682C2034204B422070726F7476
S31500004420656374696F6E20726567696F6E0A0D0049
S31500004430455252212120556E646566696E65642079
S31500004440666C6173682073697A650A0D0000000066
S3150000445053696C69636F6E207265762025640A0D58
S315000044600000000000810440000002401CA001F092
S3150000447039FC2248817A22A001F034FC1F48417A97
S315000044801FA001F02FFC1D48017A1FA001F02AFC95
S3150000449003201A49C87100208871487104200871E8
S315000044A00120C8738020087000BF1448007880215E
S315000044B008400028F9D01148C17A15A001F012FC75
S315000044C00E48817A18A001F00DFC0C48417A0CA028
S315000044D001F008FC0948017A144801F003FC10BDFC
S315000044E0466C61736820706172616D6574657220D7
S315000044F076657273696F6E202564200000000240A5
S3150000450020256420000000002025640A0D0000001C
S31500004510466C6173682076657273696F6E204944D4
S315000045202025642000000000202564005C44000073
S3150000453000207D4908607D48806B491508437B490A
S3150000454088630120000779494031486078488068CF
S3150000455078490840764988600846C0687549084029
S315000045607349C86074484078642108402421084390
S31500004570714948708020714908709A206E49087008
S315000045800846C078C006C00EC87003200871002017
S31500004590487100BF68488079102108400028F9D189
S315000045A000BF654880790C2108400828F9D14020D1
S315000045B06149487100BF604880790C21084008288D
S315000045C0F9D100BF5C488079402108400028F9D025
S315000045D01A205949087000BF574880790C210840B5
S315000045E00C28F9D1704770B553480078C0210840AF
S315000045F0002868D1504840794021084000284ED113
S315000046004D48007804210840002815D14C4C4A48F2
S31500004610007838210840C10801208840C5B22946E3
S31500004620204600F0BDFE044643484078302108404D
S31500004630002803D0640901E00124E4033E48C07861
S31500004640E0210840C106C90E002926D14011030009
S3150000465001F083FB0805090D1115191D20230520FE
S31500004660C00144431AE005200002444316E00F202F
S31500004670C001444312E00520400244430EE0B72047
S31500004680800044430AE0B720C000444306E02D48BA
S31500004690444303E02C48444300E000BF38E026488A
S315000046A00079C006C00E451C2946254800F078FE54
S315000046B0044621484079C006C00E054618352046F6
S315000046C06843044624E01C480078C021084040287E
S315000046D015D119484078C007C00F002802D101241F
S315000046E0E40315E01448007A0E2210404208012027
S315000046F090400146154800F053FE044608E00E4877
S315000047000078C0210840802801D10D4C00E070BD22
S31500004710064840304068000F411C204600F040FE2D
S315000047200B49086000BFF2E70081044000800440A6
S3150000473040900440FFF8FFFE00400640005006404F
S3150000474000127A0095080000710B000000093D0078
S3150000475054F1FF1FF8B504460E461746CC480578B7
S31500004760E007C00F002802D0CAA001F0BBFA022061
S315000047702040002802D0D7A001F0B4FA042020403F
S31500004780002802D0E1A001F0ADFA08202040002860
S3150000479002D0ECA001F0A6FABD48057045781020BD
S315000047A02040002802D0F5A001F09CFA20202040ED
S315000047B000280CD0B0000C2108400543FE4801F04B
S315000047C091FAB348407920210843B1494871402005
S315000047D0204000280CD03001302108400543F7481E
S315000047E001F080FAAA48407940210843A849487157
S315000047F08020204000280CD0B001C021084005438D
S31500004800EF4801F06FFAA248407980210843A04999
S3150000481048719F48457085788015204000280BD048
S31500004820B007800F0543E74801F05CFA98488079A5
S315000048300121084396498871012040022040002842
S315000048400CD0B0000C2108400543DF4801F04AFABD
S315000048508F488079022108438D49887101208002A2
S31500004860204000280CD03001302108400543D748AD
S3150000487001F038FA86488079042108438449887112
S315000048800120C002204000280CD0B001C021084001
S315000048900543CF4801F026FA7D4880790821084370
S315000048A07B4988717A488570C578012000032040CD
S315000048B000280BD0B007800F0543C64801F012FA56
S315000048C0734880791021084371498871012040039B
S315000048D0204000280CD0B0000C2108400543BE48FB
S315000048E001F000FA6A4880792021084368498871F6
S315000048F001208003204000280CD0300130210840E0
S315000049000543B64801F0EEF9614880794021084335
S315000049105F4988710120C003204000280CD0B001F7
S31500004920C02108400543AE4801F0DCF958488079BB
S3150000493080210843564988715548C570002F03D118
S3150000494000205349087109E051480079384350491D
S31500004950087108460179A3A001F0C4F9F8BDF8B5BD
S3150000496004460F4615462B4622463946ACA001F0B2
S31500004970B9F900268020464908724872012F0BD1EA
S315000049806801602108402107090F08438021084378
S3150000499006433F48067210E0022F0BD168016021E2
S315000049A008402107090F0843802108430643384879
S315000049B0467202E0A7A001F095F9F8BD34484079A7
S315000049C020210840002804D0314840790843304966
S315000049D048712F48407940210840002804D02C48CF
S315000049E0407908432A49487129484079802108407E
S315000049F0002804D0264840790843254948712448B0
S31500004A008079C007C00F002805D021488079012190
S31500004A1008431F4988711E488079022108400028F2
S31500004A2004D01B4880790843194988711848807951
S31500004A3004210840002804D0154880790843144909
S31500004A4088711348807908210840002804D010484E
S31500004A50807908430E4988710D48807910210840F5
S31500004A60002804D00A488079084309498871084813
S31500004A70807920210840002804D005488079084321
S31500004A800349887102488079402108400028F1E0F6
S31500004A9000C007400A20496E76616C6964204C4C60
S31500004AA0575520636F6E6669677572656420706915
S31500004AB06E20505445312F534349315F52582F4988
S31500004AC03243315F53434C202F535049315F534992
S31500004AD04E0000000A20496E76616C6964204C4CD9
S31500004AE0575520636F6E66696775726564207069D5
S31500004AF06E20505445322F535049315F53434B2F4C
S31500004B0053444843305F44434C4B00000A20496EEF
S31500004B1076616C6964204C4C575520636F6E6669EC
S31500004B2067757265642070696E20505445342F5342
S31500004B305049315F504353302F53444843305F440C
S31500004B40330000000A20496E76616C6964204C4C83
S31500004B50575520636F6E6669677572656420706964
S31500004B606E20505441342F46544D305F4348312F08
S31500004B704E4D492F455A505F435300000A20496E57
S31500004B8076616C6964204C4C575520636F6E66697C
S31500004B9067757265642070696E2050544131332FF9
S31500004BA046544D315F434831202F46544D315F51B5
S31500004BB0445F504842000000746C0000506B0000D7
S31500004BC0E86B00002C6C0000086B0000346A0000E3
S31500004BD0F0690000786A0000C46A0000C86C000032
S31500004BE0986B00000A204C4C575520636F6E66691F
S31500004BF06775726564206D6F64756C65732061738B
S31500004C00204C4C57552077616B65757020736F7516
S31500004C1072636573203D203078253032582C0000B1
S31500004C200A456E61626C696E672046696C746572CE
S31500004C30202578206F6E2057552050696E202578E4
S31500004C4020666F722057552073656E736520257830
S31500004C50200A00000A4572726F72202D20696E7656
S31500004C60616C69642066696C746572206E756D622C
S31500004C7065720A0004D02048807908431E4988716D
S31500004C801D48807980210840002804D01A48807980
S31500004C900843194988711848C079C007C00F002811
S31500004CA00DD01648806B01210843144988631448C7
S31500004CB000688021084312490860C12008600E4838
S31500004CC0007A80210840002804D00B48007A084367
S31500004CD0094908720848407A80210840002804D013
S31500004CE00548407A0843044948720648006880210E
S31500004CF0084304490860704700C00740008004402C
S31500004D000000044080E200E02449896B012211433F
S31500004D10224A91630021224A1160114688600521CA
S31500004D20516011460968012211431D4A116000BFF6
S31500004D301B490968802211400029F9D018490968E1
S31500004D4049084900164A1160704710B5024601210C
S31500004D501248806B01231843104B98631048006873
S31500004D6088430F4B186004200843586090B298603F
S31500004D701846006880231843094B1860C020186045
S31500004D801846006801231843054B18601C200123B0
S31500004D908340044C236000BF10BD00000080044027
S31500004DA00000044000E100E010B55D484078202195
S31500004DB00840002802D05BA000F094FF58484078D5
S31500004DC008210840002802D05FA000F08BFF54485D
S31500004DD0407804210840002802D05FA000F082FF3E
S31500004DE04F48407802210840002802D05FA000F01A
S31500004DF079FF4B48007880210840002802D062A045
S31500004E0000F070FF4648007840210840002802D094
S31500004E1062A000F067FF4248007820210840002881
S31500004E2002D064A000F05EFF3D48007804210840EF
S31500004E30002802D065A000F055FF39480078082107
S31500004E400840002802D069A000F04CFF34480078E2
S31500004E5002210840002802D06BA000F043FF304832
S31500004E600078C007C00F002847D06EA000F03AFFB8
S31500004E70784840784007400F032802D176A000F01A
S31500004E8031FF744840784007400F042808D1714824
S31500004E9080784007400F002802D172A000F022FF60
S31500004EA06C4840784007400F042808D1694880784C
S31500004EB04007400F012802D16DA000F013FF65489E
S31500004EC040784007400F042808D1624880784007A0
S31500004ED0400F022802D169A000F004FF5D48407827
S31500004EE04007400F042808D15A4880784007400FF1
S31500004EF0032802D164A000F0F5FE094800780028D6
S31500004F000DD107484078002809D10548017861A0ED
S31500004F1000F0E8FE0248417868A000F0E3FE10BD0C
S31500004F2000F007400A0D53746F70204D6F646520C2
S31500004F3041636B6E6F776C65646765204572726F4F
S31500004F4072205265736574000A0D4D444D2D415013
S31500004F5020526573657400000A0D536F667477619D
S31500004F607265205265736574000000000A0D436F78
S31500004F707265204C6F636B7570204576656E742084
S31500004F8052657365740000000A0D506F7765722DC7
S31500004F906F6E205265736574000000000A0D457837
S31500004FA07465726E616C2050696E2052657365740B
S31500004FB0000000000A0D5761746368646F67284338
S31500004FC04F50292052657365740000000A0D4C6F1E
S31500004FD07373206F662045787465726E616C20432A
S31500004FE06C6F636B20526573657400000A0D4C6F1D
S31500004FF07373206F66204C6F636B20696E20504C74
S315000050004C205265736574000A0D4C6F772D766FD0
S315000050106C746167652044657465637420526573BA
S31500005020657400000A0D5B6F75745352535D5761CA
S315000050306B65757020626974207365742066726F83
S315000050406D206C6F7720706F776572206D6F646569
S315000050502000000000E007404C4C5320657869743E
S3150000506020000000564C4C533020657869742000AF
S31500005070564C4C533120657869742000564C4C537D
S315000050803220657869740000564C4C53332065789D
S31500005090697420005B6F75745352535D52434D5FC4
S315000050A053525330206973205A45524F2020203DD9
S315000050B0202523303258200D0A0D00005B6F7574D1
S315000050C05352535D52434D5F5352533120697320FF
S315000050D05A45524F2020203D202523303258200D9E
S315000050E00A0D0000F8B504460E4617469848844255
S315000050F006D19848406BE11408439649486306E098
S315000051009448406B01210903084392494863E078BB
S315000051100C218843E0700020A07039017D22D20066
S315000051207243104600F052F985B2207841094901D0
S3150000513000911F20000228400012009908432070A9
S315000051406570E07820210843E0700D200121814040
S31500005150814A116000BF62B6E0780C210843E07016
S31500005160F8BD0146087920221040704700B57B4BF8
S3150000517000BF7748FFF7F5FF00280CD07448C079C8
S315000051807749784A1268885476480068401C754901
S315000051900860724B00E05B1E6D48FFF7E2FF0028D7
S315000051A0E7D1012BE5DC00BD7047014600BF087959
S315000051B0202210400028FAD0C879704700BF027933
S315000051C080231A40002AFAD0C1717047F7B586B01D
S315000051D000BF002005900490002501905D48406BBB
S315000051E00121890208435B4948635F48C0780C2166
S315000051F088435D49C8705D490798884202DC079874
S3150000520020280CDA00BF5348456803218906284642
S315000052108843054600BF4F48456000BFFEE7089C2F
S315000052207D21C90007984843029004262046704312
S315000052300146029800F0B4F80390039870430146C3
S31500005240029800F0ADF80746A74202D9381B059030
S3150000525001E0E01B0590049605261DE020467043FC
S315000052600146029800F09CF80390039870430146AB
S31500005270029800F095F80746A74202D9381B01901C
S3150000528001E0E01B019005990198884202D8019837
S3150000529005900496701CC6B2202EDFDD64212046E0
S315000052A000F07EF8410041180598814235D90498EE
S315000052B0032808D90498092805D22B48C07A022168
S315000052C008432949C8722848857A6D096D010498F2
S315000052D0401EC006C00E054323488572E806C00E70
S315000052E0451C204668430146029800F059F8039091
S315000052F01D48007845096D011F21090203980840E1
S31500005300000A284318490870039848700846C07870
S315000053100C2108431449C87001E000BFFEE709B03C
S31500005320F0BD014600BF0879202210400028FAD0BF
S31500005330C879704700BF027980231A40002AFAD044
S31500005340C17170470146087920221040704700005D
S3150000535000B006400080044000E100E01F4E00005F
S31500005360000000200CF0FF1F00A0064050C3000004
S3150000537070B504460D462046FBF728F870BD10B5FB
S315000053800446FBF72BF810BD01460020C0437047CA
S3150000539010B504462046FBF719F810BD00BFFEE71E
S315000053A030B50B46014600202022012409E00D46B7
S315000053B0D5409D4205D31D469540491B254695403F
S315000053C040191546521E002DF1DC30BD70B5002483
S315000053D02546002801DA01244042002901DA012588
S315000053E04942FFF7DDFFAC4200D04042002C00D01E
S315000053F0494270BD03460B439B0703D009E008C929
S31500005400121F08C0042AFAD203E00B780370401C6E
S31500005410491C521EF9D27047D2B201E00270401CFC
S31500005420491EFBD270470022F6E710B513460A461E
S3150000543004461946FFF7F0FF204610BD30B5054675
S315000054402A460B4610781C78521C5B1C002801D09B
S31500005450A042F7D0002C03D0002802D06D1CEFE745
S31500005460284630BDF8B502464A40D40F42004B00EC
S3150000547052085B089A4202D20246084611464A0082
S3150000548023D0C30D4A00DDB2120EAD1A202D35DA37
S3150000549049020126490AF6058A19002C00D0524213
S315000054A020214F1B1146B9402A411018C20D9A42BD
S315000054B021D0002C17D0012D08DCDA05801AD20F76
S315000054C08019D207DBB200F011FBF8BDDA05801AAD
S315000054D0012340001B06C01880185A428018CA0FC4
S315000054E01043490007E04908C2071143DA05801A4C
S315000054F080194008801800F0F1FAF8BD6100012219
S31500005500511A001BF7E70122D2075140AAE70122F0
