S31500000000F82F0020A9030000DD010000B303000063
S3150000001000000000000000000000000000000000DA
S31500000020000000000000000000000000BB0300000C
S315000000300000000000000000BD030000BF03000038
S31500000040C5030000C5030000C5030000C50300008A
S31500000050C5030000C5030000C50300009546000067
S31500000060C5030000C5030000C5030000C50300006A
S31500000070C5030000A54D0000E14D0000C5030000CA
S31500000080C5030000C5030000C5030000C50300004A
S31500000090C5030000C5030000C5030000C50300003A
S315000000A0C5030000C5030000C5030000C50300002A
S315000000B02B370000C5030000C5030000ED2F00002C
S315000000C00348854605F00AFC00480047B53600009F
S315000000D0F82F0020F0B588B003460A4615786D1C47
S315000000E0157015786D076D0F15701578AD00161D16
S315000000F07351002106E08E00151DAD598E006F4626
S31500000100BD51491C0829F6DB00BF0024002116E07A
S315000001108D006E4676594D1CAD006F467D59AE4238
S315000001200CDD8D006E4670594D1CAD0075598E0064
S31500000130BD514D1CAD006E4670510124491C072966
S31500000140E6DB002CE1D1039808B0F0BDF8B5064611
S3150000015000277D24E400254600BF2546214630467B
S3150000016004F040FF001944083846791CCFB207282E
S3150000017001DAA542F1D12046F8BD000010B51448B9
S3150000018004F0F1FE10BD10B5124804F02AFE10BDB1
S3150000019010B5114804F025FE10BD10B504462146E1
S315000001A00B4804F0E9FE10BD10B504462146094887
S315000001B004F021FE10BD10B504462146064804F0A1
S315000001C01AFE10BD10B5024804F0DEFE10BD000098
S315000001D000A0064000B0064000C00640134909686A
S315000001E00222114000290DD010490968490849002A
S315000001F00E4A116000BF0D4909680222114000290C
S31500000200F9D10DE0002007E00949096910221140E3
S31500000210102900D103E0401C06498842F4DB00BFE8
S31500000220704705480549086170470000403000F0F6
S3150000023000F00FF8FFFF01001307000000900440D4
S3150000024010B54948806B1F21490208434649886317
S315000002504648807808210840002804D04348807822
S3150000026008434249887042480068424908603E484F
S3150000027040680121090408433B4948603D48046839
S31500000280E10F091948107D21C90004F0C1FE3A4961
S31500000290086035484068032189068843012189069C
S315000002A04018314948607D21C9003248006804F091
S315000002B0AFFE324908602C4840304068000F411CB0
S315000002C02E48006804F08EFE2D490860264840300E
S315000002D04068072212041040000C411C28480068A0
S315000002E004F080FE27490860012040022649486044
S315000002F08860032000022549486008602449886018
S31500000300C860E12252021C480168224804F080FDC0
S31500000310E12252021B4801681F4804F0FFFC4B22F1
S31500000320D201184801681D4804F0F8FC10BDFF20F2
S315000003300130154908610846006909210904084386
S31500000340114908611E2001218140154A116000BF34
S315000003507047052000021349C860034840684021E1
S3150000036008430149486070470080044000D00740B8
S3150000037058F1FF1F3CF1FF1F50F1FF1F40F1FF1F17
S3150000038044F1FF1F48F1FF1F0090044000D00440D5
S3150000039000C0044000A0064000B0064000C0064071
S315000003A000E100E000B004400748804707480047E6
S315000003B0FEE70548804705480047FEE7FEE7FEE7FB
S315000003C003488047FEE7000025420000C100000008
S315000003D02B37000010B50446E1B2054804F0CCFD09
S315000003E0E0B210BD10B5024804F0BDFD10BD00001E
S315000003F000A0064070470A68531C0B6010707047D7
S31500000400FFFFFFFFFFFFFFFFFFFFFFFFFEFFFFFFF7
S3150000041010B50020FE490860FE49FD48006805F059
S315000004201BF903D20020FC49086002E00120FA49CA
S315000004300860F9480068002805D1F8480068401CA3
S31500000440F649086002E00020F449086010BD00206B
S3150000045000E0401C2828FCDB7047014608797047FD
S3150000046081781022914381707047817820229143D0
S315000004708170704700B503461846FFF7F6FF184629
S31500000480FFF7EEFF00BDE64900E0491EC2780223F1
S315000004901A40002A01D10129F7DCC27802231A4347
S315000004A0C2707047817808221143817070470146F7
S315000004B0C878C007C00F002801D10120704700206E
S315000004C0FCE70171704781780422114381707047FF
S315000004D08178102211438170704781782022114360
S315000004E08170704700B503461846FFF7F6FF1846B9
S315000004F0FFF7EEFF00BD70B50446CA48FFF7F2FFEE
S315000005003A21C848FFF7DDFFC648FFF7BCFFC548DC
S31500000510FFF7CDFF2146C348FFF7D3FFC148FFF7DA
S31500000520B2FFC048FFF7C3FFBE48FFF7CCFF3B2131
S31500000530BC48FFF7C6FFBB48FFF7A5FFB948FFF762
S31500000540B6FFB848FFF78CFFB648FFF7ABFFB548D4
S31500000550FFF783FF0546B348FFF795FFB148FFF75E
S3150000056089FFB048FFF779FF0546FFF770FF284679
S3150000057070BDAD4800682D280FD2AC4800682D2804
S315000005800BD2AB4800682D2807D2AA48008800285D
S3150000059003D10120A849087005E00020A64908708B
S315000005A00A20A44908807047F8B5A448007847B2E5
S315000005B0A3493846FFF78EFDA2490860A248007895
S315000005C047B29F4924313846FFF784FD9F490860AA
S315000005D09F48007847B29A4948313846FFF77AFD76
S315000005E09C4908609748006840430546974800685C
S315000005F040430646A819FFF7A9FD8B4908609348B2
S315000006000068002805DA914800684042924908606F
S3150000061003E08E480068904908608F490968C80160
S315000006208149096804F0DEFC8C49086008460068C8
S315000006307F2801D97F2008608848006880008849A3
S3150000064008588849086081480068002803DD084684
S315000006500068404208607F48006804464443281901
S31500000660FFF774FD7149086076480068002805DACE
S315000006707448006840427849086003E071480068A1
S315000006807549086074490968C8016849096804F031
S31500000690A9FC72490860084600687F2801D97F20B6
S315000006A008606E48006880006D4908586E49086009
S315000006B064480068002803DD084600684042086078
S315000006C03019FFF743FD5A49086060480068002862
S315000006D005DA5E48006840425F49086003E05B480F
S315000006E000685D4908605C490968C80150490968A5
S315000006F004F078FC59490860084600687F2801D94B
S315000007007F200860554800688000554908585749B9
S3150000071008604E480068002803DD0846006840422D
S315000007200860F8BD70B586B00020FFF7E4FE00074C
S31500000730000F00286AD00120FFF7DDFE0402022028
S31500000740FFF7D9FE044320B28010494908800320F0
S31500000750FFF7D1FE04020420FFF7CDFE044320B2CA
S315000007608010444908800520FFF7C5FE04020620D4
S31500000770FFF7C1FE044320B280103F4908800720DE
S31500000780FFF7B9FE04020820FFF7B5FE04433B4815
S3150000079004600920FFF7AFFE04020A20FFF7ABFE54
S315000007A00443374804600B20FFF7A5FE04020C2023
S315000007B0FFF7A1FE0443334804605120FFF79BFE78
S315000007C0314908600120FFF796FE000200B21B497E
S315000007D008800220FFF78FFE18490988084300B2F7
S315000007E01649088008460021415E08121349088010
S315000007F00320FFF780FE000200B2134908800420A0
S31500000800FFF779FE1049098808433FE092E00000AF
S31500000810F0F0FF1F0000A040D4F0FF1F30F1FF1FD3
S315000008200F2700000060064040F0FF1F44F0FF1F46
S3150000083048F0FF1F1EF0FF1F60F0FF1F68F0FF1F4C
S315000008408419002034F0FF1F6AF0FF1F38F0FF1FE5
S315000008506CF0FF1F3CF0FF1F58F0FF1F5CF0FF1FFE
S315000008607C6200004CF0FF1F50F0FF1F54F0FF1F8A
S3150000087062F0FF1F64F0FF1F66F0FF1F7CF0FF1F92
S3150000088080F0FF1F84F0FF1F88F0FF1F00B2F749BA
S31500000890088008460021415E0812F44908800520B8
S315000008A0FFF729FE000200B2F14908800620FFF793
S315000008B022FEEF490988084300B2ED490880084640
S315000008C00021415E0812EA490880FFF76DFEFFF736
S315000008D050FE1620FFF70FFE04461520FFF70BFE0D
S315000008E00546E3490020085EE24909684018DF4AE8
S315000008F00021515EE04A126889180395049401911B
S315000009000290DE490020085EDD4909684018009023
S31500000910DC480068DC4E36688319DC480068DC4E2B
S3150000092036688219DB480068DB4E36688119DB4879
S3150000093005F004F806B070BDD949097908221140BE
S31500000940002901D0D649C879D54909791822114319
S31500000950D34A1171704770B50546002400BF05E003
S31500000960295DCF4804F047FA601CC4B2284603F05C
S3150000097023F8A042F4D870BDFFB583B014461D46D7
S315000009800120019000200090C64803F015F802905F
S31500000990C5480368C5480268C5A0029904F0CEFFA1
S315000009A0C048029904F061FB0020CF4908600C9E04
S315000009B0FFF7C2FFCD4F0398FFF7CDFF1BE0761E72
S315000009C07F1ECB480078012806D1FFF7ABFEFFF764
S315000009D01FFD0020C6490870FF219131384604F0FA
S315000009E017FB002907D13121C24804F0C5FA1A21A4
S315000009F0AB4804F000FAAB48049904F041FB002828
S31500000A000DD12146A74804F03BFB002807D1294613
S31500000A10A44804F035FB002801D1012ECFDCFFF7F6
S31500000A208BFFA04807B0F0BD38B56421B24804F08A
S31500000A301CFBB24802F0C0FF04462246B0A1AE48F5
S31500000A4004F08CFFB748B8A3B9A2BBA10090AA488E
S31500000A50FFF792FF04462146B8A004F06FFFFFF7A8
S31500000A606BFF0020B749086014E0A448B54A126835
S31500000A70815C8B4804F0BFF9A048B24A1268815CD9
S31500000A809C4804F079FAFFF757FFAE480068401C0F
S31500000A90AC490860994802F08FFFAA490968884264
S31500000AA0E3D20020904908609048A74908601FE0FB
S31500000AB0A5480068401EA44908608D4800780128B2
S31500000AC006D1FFF72FFEFFF7A3FC00208849087028
S31500000AD0FF2191319C48006804F09AFA002907D159
S31500000AE03121844804F048FA0A216D4804F083F95C
S31500000AF096A16C4804F0C4FA002809D1924800680F
S31500000B00012805DB93A1674804F0BAFA0028CFD084
S31500000B107A4802F051FF04462146784804F0A5FAC7
S31500000B2038BD38B58D4880A381A28DA100908DA0D7
S31500000B30FFF722FF0446214680A004F0FFFE642151
S31500000B406D4804F092FA8F4802F036FF05460C35E0
S31500000B508D4802F031FF2C1822468CA1664804F01D
S31500000B60FDFE7E4870A372A273A100906248FFF753
S31500000B7003FF0446214671A004F0E0FEFFF7DCFE09
S31500000B808CA0FFF7E8FE00206E49086012E07D4861
S31500000B906C4A1268815C424804F02DF97948694A2A
S31500000BA01268815C534804F0E7F966480068401C07
S31500000BB064490860734802F0FFFE6249096888428A
S31500000BC0E5D87EA0FFF7C7FE00205E49086012E068
S31500000BD06D485C4A1268815C314804F00CF96A4839
S31500000BE0584A1268815C434804F0C6F955480068C3
S31500000BF0401C54490860644802F0DEFE5149096809
S31500000C008842E5D86FA0FFF7A6FE002036490860A7
S31500000C1044484D49086014E04B480068401E4A4964
S31500000C2008607D2109014848006804F0F1F90029AF
S31500000C3007D131212F4804F09FF90A21184804F002
S31500000C40DAF842A1174804F01BFA002809D13E48F9
S31500000C500068012805DB3FA1124804F011FA0028BC
S31500000C60DAD038BD10B50446C6E000006AF0FF1FB2
S31500000C706CF0FF1FA0F0FF1F9CF0FF1F68F0FF1F26
S31500000C8098F0FF1F54F0FF1F94F0FF1F50F0FF1F56
S31500000C9090F0FF1F4CF0FF1F8CF0FF1F7C640000DC
S31500000CA000B006400000002030F1FF1FD4F0FF1F07
S31500000CB00A73697A656F666275666665722D3E208F
S31500000CC025642C206D6F74696F6E2D3E2025642C73
S31500000CD0206D6F74696F6E5F73616D706C65732DD7
S31500000CE03E2025640A0000000CF0FF1FD10700001B
S31500000CF03AF1FF1F00A00640D81D002088130020EF
S31500000D000D0A41542B465357524954453D433A5CCC
S31500000D104C4F472E5458542C312C25642C31300D11
S31500000D200A0000001F4E00004552524F523A000082
S31500000D304552524F520D0A003E0000000A25730A22
S31500000D400000000004F0FF1F14F0FF1F4F4B0D0AB8
S31500000D50000000004552524F520000003F420F0073
S31500000D604F4B00000A41542B4653435245415445CC
S31500000D703D433A5C49505F504F52542E5458540DDF
S31500000D800A000000F4F0FF1F04F1FF1F0D0A415492
S31500000D902B465357524954453D433A5C49505F50A0
S31500000DA04F52542E5458542C302C25642C31300D6F
S31500000DB00A0000007C49507C000000007C504F5225
S31500000DC0547C00007C000000C820FE4908600FE04B
S31500000DD0FD480078012806D1FFF7A4FCFFF718FBB1
S31500000DE00020F9490870F7480068401EF549086078
S31500000DF0F44800680028EBDC2046641E0028E3D196
S31500000E0010BDFFB583B005460F46002400200290B2
S31500000E1000260A20FFF726FF0D9802F0CDFD0146B9
S31500000E2001900D9804F021F900BF00BF0AE0295D8A
S31500000E300C98814201D1761C02940598864200DB0B
S31500000E40E24C641C284602F0B7FDA042EFD800240D
S31500000E5000260AE0295D0698814202D1761CDC480C
S31500000E600460BE4200DBD94C641C284602F0A4FD97
S31500000E70A042EFD8002407E0D54800680019401CBE
S31500000E80295C0D980155641CD14902980968401ADD
S31500000E90401EA042F0DC07B0F0BD38B50446642120
S31500000EA0CC4804F0E2F8CC4ACCA1CA4804F056FD7E
S31500000EB0CE480068CE4B1A460832CEA10090C548EF
S31500000EC0FFF75AFD05462946C948143004F036FD99
S31500000ED0C8A1C94804F0D4F8002847D00020C74963
S31500000EE0086012E0C5480068215CC54803F083FF2E
S31500000EF0C2480068215CC34804F03EF8FFF71CFDB9
S31500000F00BE480068401CBD490860204602F054FDFA
S31500000F10BA4909688842E5D81A21B94803F06BFF37
S31500000F200020B9490860B948B949086014E0B848D2
S31500000F300068401EB64908607D214901B448006832
S31500000F4004F066F8002907D13121AE4804F014F800
S31500000F501A21AB4803F04FFFAEA1A74804F090F862
S31500000F60002803D1AA4800680128E0DA38BD38B560
S31500000F70AA489F4B1A460832A9A10090A9A0FFF7DC
S31500000F80FBFC044621469A48143004F0D7FC642141
S31500000F90904804F06AF8AB4802F00EFD04460B34A4
S31500000FA02246A9A18B4804F0D9FC9C48904B1A46CE
S31500000FB0083290A100908748FFF7DEFC04462146E0
S31500000FC08B48143004F0BAFCFFF7B6FCA8A0FFF774
S31500000FD0C2FC00208949086012E09A48874A1268D4
S31500000FE0815C874803F007FF9648844A1268815C53
S31500000FF0844803F0C1FF81480068401C7F490860AF
S31500001000904802F0D9FC7D4909688842E5D89BA042
S31500001010FFF7A1FC00207C4908607C4898490860DD
S3150000102014E097480068401E954908607D21090133
S315000010309348006803F0ECFF002907D1312171487D
S3150000104003F09AFF0A216E4803F0D5FE6849243161
S31500001050694804F015F800280AD189480068012873
S3150000106006DB63492C31644804F00AF80028D8D01E
S3150000107038BD10B501460020002206E00A2343438E
S315000010808C5C1B1918463038521C8B5C002BF5D132
S3150000109010BDFFB581B005461F4600240020009014
S315000010A000260A20FFF7DEFD0F21384603F0DDFF9C
S315000010B000BF00BF0AE0285D222801D1761C0094FB
S315000010C00398864201DBE124A400641C642CF2DB55
S315000010D0002400260BE0285D222802D1761C3C481D
S315000010E004600298864201DBE124A400641C642C9F
S315000010F0F1DB002406E0364800680019401C285C35
S315000011003855641C324900980968401A401EA042AE
S31500001110F1DC05B0F0BD1FB55A480078012801D0B2
S3150000112000F056FE58485949594A03460092019123
S315000011300290252257A004F001FC2C4800682C4B95
S3150000114024331A4608321946009062A0FFF714FCB1
S31500001150014603902648143004F0F0FBFFF7ECFB41
S315000011601D4B042203212448FFF793FF5DA122486B
S3150000117003F086FF002823D05CA11F4803F080FF00
S3150000118000281ED05C4802F017FC014603905A481E
S3150000119003F06BFF3C4825213C4A3D4B00930192EE
S315000011A00291039003465549534804F0D7FB524831
S315000011B0FFF773FE0D4800680D4B1A4608329FE094
S315000011C09DE3A9E02CF1FF1F3AF1FF1FAC260000BA
S315000011D008F0FF1FD81D0020641900200A41542B77
S315000011E0434D47533D222573220D0A00E8F0FF1FA9
S315000011F0280D00003E0000000000002004F0FF1F44
S3150000120000B0064000A006400CF0FF1F1F4E000075
S3150000121018F1FF1F2B434D47533A00003F420F0082
S315000012204F4B00000A41542B465343524541544507
S315000012303D433A5C494E54455256414C2E545854FF
S315000012400D0A000013F1FF1F0D0A41542B46535798
S31500001250524954453D433A5C494E54455256414CD9
S315000012602E5458542C302C25642C31300D0A000095
S315000012707C494E54455256414C7C00007C0000008F
S3150000128014F0FF1F39F1FF1F641E0020501E0020BE
S315000012900EF1FF1F0A0A0968747470733A2F2F77CC
S315000012A077772E676F6F676C652E636F6D2F73652B
S315000012B0617263683F713D2573256332432573264A
S315000012C069653D7574662D38266F653D7574662DA6
S315000012D0380A00000D0A41542B434D47523D310D4B
S315000012E00A0000004F574E45520000004C4F434144
S315000012F054494F4E00000000101D002038650000C4
S3150000130011461C310090FAA0FFF736FB0146039008
S31500001310FCA004F013FB2EE0FBA1FE4803F0B0FE98
S31500001320002828D06421FC4803F09FFE0521FB48D5
S3150000133003F09BFEF9480D21202305220091019020
S315000013400321F448FFF75DFDF448FFF792FEF449E8
S315000013500860FFF70CFEF3480068F34B1A460832A4
S3150000136011461C310090E2A0FFF706FB01460390F0
S31500001370E4A004F0E3FAEDA1E64803F081FE0028BC
S3150000138055D0EC48E84B1A460832EBA100901046BF
S315000013903430FFF7F1FA01460390E348143004F0C5
S315000013A0CDFAE448E04B1A460832E3A10090E3A0E8
S315000013B0FFF7E2FA01460390DB48143004F0BEFA68
S315000013C0DC48D94B1A460832DBA10090E248FFF709
S315000013D0D3FA01460390D448143004F0AFFA0D2234
S315000013E0DEA1E24803F028FEE148E2A109680160B7
S315000013F0CA48E2A109780170FFF793FBFFF7B7FD32
S31500001400C64BDB4AD949DEA004F098FAC548006805
S31500001410C54B1A46083211461C310090B4A0FFF79E
S31500001420ABFA01460390B7A004F088FAC8E2D8A147
S31500001430B84803F025FE002837D06421B64803F0EB
S3150000144014FE0F21D44803F010FED3480D212023AB
S315000014500522009101900321AE48FFF7D2FCCE4A47
S31500001460CEA1AD4804F07AFAAE480068AE4B1A46F3
S31500001470083211461C310090A748FFF77DFA014655
S315000014800390A0A004F05AFAA6480068A64B1A4694
S31500001490083211461C31009095A0FFF76DFA0146FF
S315000014A0039098A004F04AFAC0E7C4A1994803F053
S315000014B0E7FD002837D06421974803F0D6FD0F21B9
S315000014C0B54803F0D2FDB4480D2120230522009132
S315000014D0019003218F48FFF794FCAF4AB9A18E48CB
S315000014E004F03CFA8F4800688F4B1A4608321146C2
S315000014F01C3100908848FFF73FFA0146039081A00F
S3150000150004F01CFA87480068874B1A4608321146D1
S315000015101C31009076A0FFF72FFA0146039079A0C0
S3150000152004F00CFA82E7AFA17A4803F0A9FD00287F
S3150000153037D06421784803F098FD0F21964803F0D0
S3150000154094FD95480D212023052200910190032149
S315000015507048FFF756FC904AA4A16F4804F0FEF9C4
S3150000156070480068704B1A46083211461C310090CC
S315000015706948FFF701FA0146039062A004F0DEF91C
S3150000158068480068684B1A46083211461C310090BC
S3150000159057A0FFF7F1F9014603905AA004F0CEF9DF
S315000015A044E79AA15B4803F06BFD00287ED06421D6
S315000015B0594803F05AFD0020964908604EE09548C8
S315000015C00068401E5349085C202842D191480068B3
S315000015D0801E085C47283CD18E480068C01E085C07
S315000015E0552836D18B480068001F085C422830D148
S315000015F088480068401F085C45282AD1854800684D
S31500001600801F085C442824D100208349086011E02B
S31500001610404880490968405C3F497F4A12688854BF
S315000016207C480068401C7B4908607B480068401C79
S3150000163079490860784800686428E9DB0D21364A54
S3150000164075480068401C11540A2173480068801CC4
S31500001650115470480068401C6E4908606D48006867
S31500001660FF21C3318842AADB2E4800682E4B1A465A
S31500001670083211461C3100902748FFF77DF90146D4
S31500001680039020A004F05AF9644802F095F9014647
S315000016900390624803F0E9FC1E4A61A15F4804F02A
S315000016A05DF95E48FFF7F9FB1E4800E00FE00068B1
S315000016B01D4B1A46083211461C3100900CA0FFF74C
S315000016C05BF9014603900FA004F038F97DE355A1BC
S315000016D0104803F0D5FC002808D012480068124BC9
S315000016E01A46083211461C3100909FE0B9E000000E
S315000016F00A0A2041542B434D47443D312C340D0AF0
S315000017000000000025730A00494E54455256414CCC
S315000017100000000000000020D81D002013F1FF1F6C
S31500001720ECF0FF1FE8F0FF1F280D00005354415254
S31500001730540000003F420F004F4B00000A41542B5B
S3150000174046534352454154453D433A5C4C4F472E20
S315000017505458540D0A000000241200003130342E73
S315000017603233362E3230332E34000000F4F0FF1FB1
S3150000177004F1FF1F3535353500000000310000004B
S315000017800A0A092C25732C25732C25732C0A0000B4
S315000017904F574E4552310000871E00200D0A415416
S315000017A02B435042573D312C222573222C3132399E
S315000017B02C224F574E455231220D0A004F574E45A7
S315000017C0523200000D0A41542B435042573D322CF1
S315000017D0222573222C3132392C224F574E45523254
S315000017E0220D0A004F574E45523300000D0A415450
S315000017F02B435042573D332C222573222C3132394C
S315000018002C224F574E455233220D0A00444542556D
S315000018104700000004F0FF1F2CF1FF1F101D0020E1
S31500001820257300005245534554000000FE48FFF75B
S31500001830A3F801460390FC48143004F07FF8FB48F7
S315000018400068FB4B1A46083211461C310090F9A07D
S31500001850FFF792F801460390F348143004F06EF84F
S31500001860B3E2F9A1F94803F00BFC002835D0F7499B
S31500001870F7A004F063F8F848002101604160816038
S31500001880C16020210B460422009101900321EF48FC
S31500001890FFF7B7FAF1480D212023052200910190A8
S315000018A00621EA48FFF7ADFAEC49E148143004F0A6
S315000018B045F8FFF736F9DD480068DD4B1A46083271
S315000018C011461C310090D848FFF756F801460390A0
S315000018D0D548143004F032F877E2D4480068D44B87
S315000018E01A46083211461C310090CF48FFF744F8DB
S315000018F001460390CC48143004F020F865E2CA494A
S315000019003C31D24803F0BCFB00285AD0D448C84B1F
S315000019101A460832D3A1009010463430FFF72CF84F
S3150000192001460390C248143004F008F8CC48C04B76
S315000019301A460832CBA10090BB484C30FFF71CF882
S3150000194001460390BA48143003F0F8FFC448B84B78
S315000019501A460832C3A10090C348FFF70DF80146A6
S315000019600390B348143003F0E9FF0D22AE496C3101
S31500001970B94803F061FBB948AB4984310968016095
S31500001980BA48BBA109780170FFF7CBF8FFF7EFFA69
S31500001990B64BB24AB049A448903003F0CFFFA348F3
S315000019A00068A34B1A46083211461C3100909E4827
S315000019B0FEF7E2FF014603909B48143003F0BEFF9A
S315000019C003E29949A031A14803F05AFB00283AD016
S315000019D06421A84803F049FB0F21A74803F045FB03
S315000019E0A5480D2120230522009101900321974847
S315000019F0FFF707FAA04A8C49AC319E4803F0AEFFC8
S31500001A008A4800688A4B1A46083211461C310090F3
S31500001A109848FEF7B1FF014603908348143003F05F
S31500001A208DFF82480068824B1A46083211461C31E7
S31500001A3000907D48FEF7A0FF014603907A481430D7
S31500001A4003F07CFFC1E17849CC31804803F018FBF4
S31500001A5000283AD06421874803F007FB0F21864807
S31500001A6003F003FB84480D212023052200910190F9
S31500001A7003217648FFF7C5F97F4A6B49D4317D4883
S31500001A8003F06CFF69480068694B1A460832114634
S31500001A901C3100907748FEF76FFF014603906248BD
S31500001AA0143003F04BFF61480068614B1A46083258
S31500001AB011461C3100905C48FEF75EFF014603901C
S31500001AC05948143003F03AFF7FE15749F4315F4833
S31500001AD003F0D6FA00283AD06421664803F0C5FA26
S31500001AE00F21654803F0C1FA63480D212023052222
S31500001AF00091019003215548FFF783F95E4A4A4950
S31500001B00FC315C4803F02AFF48480068484B1A46F7
S31500001B10083211461C3100905648FEF72DFF01464B
S31500001B2003904148143003F009FF40480068404BD9
S31500001B301A46083211461C3100903B48FEF71CFF3E
S31500001B40014603903848143003F0F8FE3DE14B4956
S31500001B503E4803F095FA002864D06421454803F016
S31500001B6084FA0020464908604EE045480068401E59
S31500001B703649085C202842D141480068801E085C2E
S31500001B8047283CD13E480068C01E085C552836D11F
S31500001B903B480068001F085C422830D1384800687E
S31500001BA0401F085C45282AD135480068801F085C1C
S31500001BB0442824D100203349086011E023483049E5
S31500001BC00968415C2B482F4A126881542C480068EA
S31500001BD0401C2B4908602B480068401C29490860B6
S31500001BE0284800686428E9DB0D21224A2548006858
S31500001BF0401C11540A2123480068801C11542048B7
S31500001C000068401C1E4908601D480068FF21C3315A
S31500001C108842AADB05480068054B1A460832114679
S31500001C201C3131E05BE00000F0160000E8F0FF1F19
S31500001C30280D00000A0A2041542B4346554E3D31DB
S31500001C402C310D0A00000000495000000000002061
S31500001C500A0A0A0925730000F4F0FF1F04F1FF1FAA
S31500001C603F420F004F4B00002412000013F1FF1FEC
S31500001C7031000000D81D0020871E00200C1800002F
S31500001C8004F0FF1F2CF1FF1F0090FA48FEF774FEC8
S31500001C9001460390F84803F051FEF84801F08CFE27
S31500001CA001460390F54803F0E0F9F54AF5A1F3483B
S31500001CB003F054FEF148FFF7F0F8F3480068F34BE1
S31500001CC01A46083211461C310090EB481438FEF7CC
S31500001CD053FE01460390E84803F030FE75E0EC49F8
S31500001CE0E74803F0CDF9002821D0E7480068E74B24
S31500001CF01A46083211461C310090DF481438FEF7A8
S31500001D003BFE01460390DC4803F018FEDE480068FF
S31500001D10DE4B1A46083211461C310090DD48FEF7AC
S31500001D202BFE01460390D44803F008FE4DE0DAA1ED
S31500001D30D34803F0A5F9002836D0D149D5481C3040
S31500001D4003F0FCFDD5480021016041608160C1605F
S31500001D5020210B460422009101900321C848FFF779
S31500001D6050F8CF480D21202305220091019006212D
S31500001D70C348FFF746F8CA49C448143003F0DEFDED
S31500001D80FEF7CFFEC0480068C04B1A46083211461F
S31500001D901C310090B8481438FEF7EEFD014603905A
S31500001DA0B54803F0CBFD10E0B7480068B74B1A46BC
S31500001DB0083211461C310090AF481438FEF7DCFD9E
S31500001DC001460390AC4803F0B9FD0020B549087000
S31500001DD01FBDFEB50446002002907F26F60520783A
S31500001DE02D2801D1641CB04E002721E020782E2832
S31500001DF001D101271BE020780546303D002D15DB7B
S31500001E00092D13DC002F04D0A849304603F0E2F96F
S31500001E100646284603F0AEFBA4490190029803F05B
S31500001E209CF90090019903F03FF9029000BF641CF1
S31500001E3020780028DAD13146029803F08EF9FEBDEB
S31500001E40FFB581B005461F460024002000900026FD
S31500001E500A20FEF707FF0F21384603F006F900BFF8
S31500001E6000BF0AE0285D2C2801D1761C0094039857
S31500001E70864201DBE124A400641C642CF2DB00240E
S31500001E8000260BE0285D2C2802D1761C88480460C9
S31500001E900298864201DBE124A400641C642CF1DB79
S31500001EA0002406E0824800680019401C285C38556A
S31500001EB0641C7F4900980968401A401EA042F1DC64
S31500001EC005B0F0BD7B49097908221140002901D0EF
S31500001ED07849C8797749097918221143754A1171E9
S31500001EE0704710B5FFF7EEFFFF21F531724803F09A
S31500001EF0BCF86421714803F0B8F86421704803F017
S31500001F00B4F800206F49086000BFFEF741F96A493E
S31500001F106C4A126888546B480068401C694908601E
S31500001F2008460068FF21EB31884202DD0020654942
S31500001F30086064480068001F5F49085C5228E4D1C5
S31500001F4060480068C01E085C4D28DED15D48006808
S31500001F50801E085C4328D8D15A480068401E085C99
S31500001F602C28D2D15748046800205649086000BF83
S31500001F70FEF70EF95249534A1268885451480068D0
S31500001F80401C5049086008460068401E4C49085CE1
S31500001F902A28EDD14B48046000BFFEF7F9F8464900
S31500001FA0484A1268885447480068401C45490860FA
S31500001FB008460068FF21EB31884202DD00204149D6
S31500001FC0086040480068001F3B49085C4728E4D188
S31500001FD03C480068C01E085C4728DED139480068C6
S31500001FE0801E085C4128D8D136480068401E085C2F
S31500001FF02C28D2D100203349086000BFFEF7C8F86C
S315000020002E49304A126888542E480068401C2D49D3
S31500002010086008460068401E2849085C2A28EDD159
S31500002020274A29A003F08AFC10BDF0B591B02948D3
S315000020300068052802DA00202649086000BFFFF77D
S3150000204050FFFEF76FFBFEF7E3F9234B0322022155
S315000020501B48FFF7F5FE214B052204211848FFF720
S31500002060EFFE1F4B072206211548FFF7E9FE002069
S315000020700E903FE0D81D002004170000101D002020
S315000020800000002025730000E8F0FF1F280D000067
S3150000209024180000341C000049500000F4F0FF1F13
S315000020A004F1FF1F39F1FF1F000080BF000020412F
S315000020B008F0FF1F00C006401C1B0020541A002019
S315000020C0B81A00202CF1FF1F0A0925730A09257387
S315000020D00A090A00ECF0FF1F501E0020641E0020B3
S315000020E00EF1FF1FFE490E98095C0FAA11540E98B7
S315000020F0401C0E900E980628F4DB0FA8FFF769FE29
S31500002100F8490860F848006803F092FA07910690CB
S31500002110F448006803F08CFA059104900799069834
S3150000212001910090F1A0059B049A03F007FCF34887
S31500002130006803F01FFA0790EB480168E948006859
S3150000214003F003F80690079903F086FA00D276E7C3
S31500002150E4480068E4490860E948FFF73AFEE949BF
S315000021600860E948FFF735FE079003F061FA0D9124
S315000021700C900022E54B0D990C9803F083F907911A
S31500002180069003F031FA0B900022E04B0D990C9863
S3150000219003F078F9099108900B9803F0F7F9079185
S315000021A00690099B089A03F0FDF804460D460022A6
S315000021B0D64B2046294603F0FDF804460D4600227C
S315000021C0D34B2046294603F05DF9079106900B98FC
S315000021D003F0DCF905910490079B069A03F038F8A2
S315000021E006460F46BF48006803F022FA069007919C
S315000021F0059104900FA822462B460197009602905F
S31500002200C4A00B9903F09AFB0F21BF4802F02DFFE3
S3150000221032463B46C5A1BC4803F0A0FBC448FFF7C5
S31500002220D8FD079003F004FA0D910C900022B74BED
S315000022300D990C9803F026F90791069003F0D4F94E
S315000022400B900022B14B0D990C9803F01BF90991E4
S3150000225008900B9803F09AF907910690099B089A43
S3150000226003F0A0F804460D460022A84B2046294656
S3150000227003F0A0F804460D460022A54B2046294649
S3150000228003F000F9079106900B9803F07FF905918A
S315000022900490079B069A02F0DBFF06460F4622468D
S315000022A02B4601970096A3A00B9903F047FB0F213D
S315000022B09F4802F0DAFE32463B469CA19C4803F05A
S315000022C04DFB99A19F4801F087FB9F499D4801F06E
S315000022D083FB9EA19B4801F07FFB9DA1994801F0DD
S315000022E07BFB7F49974801F077FB9BA1954801F05E
S315000022F073FB9C49934801F06FFB11B0F0BD38B5F4
S31500002300FEF709FF98480068984B1A4608321146AE
S315000023101C31009096A0FEF72FFB044621469348F9
S31500002320143003F00BFBFF20F530FEF79BFC8E48C4
S3150000233000688E4B1A46083211461C31009090A058
S31500002340FEF71AFB044621468848143003F0F6FAD5
S315000023507D200001FEF786FCFEF7DDFEFFF765FE39
S3150000236081480068814B1A46083289A100908BA0EB
S31500002370FEF702FB044621467C48143003F0DEFAE1
S31500002380FEF7C9FEFFF751FE77480068774B1A46FD
S31500002390083211461C31009084A0FEF7EDFA04467F
S315000023A021467248143003F0C9FAFEF7B4FEFFF76F
S315000023B03CFE6D4800686D4B1A46083211461C31CA
S315000023C000907FA0FEF7D8FA0446214667481430ED
S315000023D003F0B4FAFEF79FFEFEF7AEFA7CA0FEF716
S315000023E0BAFAFEF7A9FA1420FEF73CFCFEF793FEB4
S315000023F07B4B7C4A7CA1844803F0B0FA5A480068BB
S315000024005A4B1A462C3281A100907F48FEF7B4FA47
S31500002410044621465548143003F090FAFEF78CFA2C
S3150000242038BD70B57BA17C4802F02AFE002855D045
S31500002430FEF782FA784801F0BFFA0546294677A0EA
S3150000244003F07CFA2946744802F00FFE0020784912
S3150000245008600DE03B48764A1268815C754802F0D8
S31500002460CAFCFEF769FA72480068401C70490860A9
S31500002470344801F0A1FA6E4909688842EAD80A216F
S315000024806C4802F0B8FC1A216A4802F0B4FC00203D
S3150000249069490860694C1AE0641E69480078012899
S315000024A006D1FEF73FF9FDF7B3FF00206449087037
S315000024B0FF219131204602F0ABFD002907D13121E1
S315000024C0604802F059FD1A215A4802F094FC5EA1B8
S315000024D0514802F0D5FD002801D1BBE0E1E0BCE0A7
S315000024E0541A002020F1FF1F1CF1FF1F0A0A0909D8
S315000024F02C25662C092C25662C000000ECF0FF1F0D
S315000025000EF1FF1FF0F0FF1F501E00200000594083
S3150000251000004E400A0A09092C25642C25662C2544
S3150000252066092C25732C25640A0000002566000028
S31500002530641E00200A0A09092C25642C25662C2510
S31500002540660A0000881300203C1E00202C20000094
S315000025502447784747412C002C20244778524D4386
S315000025602C000000B81A0020E8F0FF1F280D00001C
S315000025700D0A41542B4346554E3D300D0A000000CE
S315000025800D0A41542B4346554E3D310D0A000000BD
S3150000259053485554204F4B0D0A0000000D0A415474
S315000025A02B434950534855540D0A00000D0A415417
S315000025B02B435354543D22777777220D0A000000AF
S315000025C00D0A41542B43494943520D0D0A000000A0
S315000025D00A41542B43494653520D0D0A0000000090
S315000025E004F1FF1FF4F0FF1F0D0A41542B4349501D
S315000025F053544152543D22544350222C22257322D7
S315000026002C222573220D0A00D81D0020434F4E4E62
S31500002610454354003E000000000000200A73697A1A
S31500002620656F666275666665722D3E2025640A00D2
S3150000263004F0FF1F00B006400CF0FF1FB90B0000AE
S315000026403AF1FF1F00A0064053454E44204F4B0D64
S315000026500A000000012C00DB1EE7F84801F0ACF987
S3150000266005462946F64803F069F9F5492C31F34841
S3150000267002F006FD002801D1FEF7D6F9EF49F14830
S3150000268003F05CF91A21F04802F0B5FBFEF754F9A5
S31500002690EE4801F091F906463146EC4802F0E5FCB9
S315000026A00AE01A21E84802F0A6FBE9A003F046F981
S315000026B0FFF725FEFEF7B8F91A21E34802F09BFB67
S315000026C070BD1CB56421EA4802F0CFFCE9A1E848D8
S315000026D003F044F9F048F14B1A460832F0A1009095
S315000026E0E348FEF749F9EF487C210B4603220091A7
S315000026F001900221D148FEF784FBEB487C210B4672
S315000027000522009101900421CC48FEF77AFBE64BA6
S31500002710E44ACA49E54803F011F91CBD1CB5642119
S31500002720D34802F0A2FCE2A1D14803F017F9EA4827
S31500002730DA4B1A460832DAA10090CD48FEF71CF9AA
S31500002740E6487C210B460322009101900221BB48FA
S31500002750FEF757FBE148FEF78CFCE1490860DF49CC
S31500002760E04803F0EBF81CBD70B504460D4616466E
S315000027700020DD490860DD480068DD49086000BFCB
S31500002780B14802F00AFB002818D0AF48C079D949F1
S31500002790D54A12688854D4480068401CD24908605B
S315000027A0D2480068D2490860CF480068FF212B3123
S315000027B0884209DD0020CC49086005E0CC48006865
S315000027C0401ECB49086000BFB4492431C94802F015
S315000027D057FC002810D1B1490831C64802F050FC18
S315000027E0002809D1C2480068002805DDAB49C14868
S315000027F002F046FC0028C3D070BDF8B504460E466C
S3150000280015461F460020B8490860B8480068B84910
S31500002810086000BFB84802F0C0FA002818D0B648D1
S31500002820C079B449B04A12688854AF480068401C61
S31500002830AD490860AD480068AD490860AA4800681F
S31500002840FF212B31884208DD0020A749086004E0FB
S31500002850A7480068401EA64908602146A54802F020
S315000028600FFC00280FD13146A24802F009FC0028CF
S3150000287009D19F480068002805DD29469D4802F0D9
S31500002880FFFB0028C6D0F8BD70B50446002505E05C
S31500002890615D994802F0AFFA681CC5B2605D002818
S315000028A0F6D170BDF8B507460C4615461E4691484A
S315000028B001F082F800908F48009902F0D6FBFFF7EE
S315000028C001FB3846FFF7E0FF324629462046069BC5
S315000028D0FFF793FFFFF7F6FA8648F8BDF0B585B027
S315000028E06D486E4B1A4608326DA1009083A0FEF724
S315000028F043F8074639466948143003F01FF88648FE
S315000029000A21202302220091019001214B48FEF763
S3150000291078FA8148FFF75DFA03908049039802F040
S3150000292059FC7F21C905019002F0BEFB074602F063
S3150000293041FE06460024A1E1AF21C900784802F015
S3150000294094FB64214A4802F090FBAF20C00060432C
S31500002950024674A1464803F001F84F484F4B1A4609
S31500002960083211461C3100904148FEF705F807462B
S315000029703A46214674A002F0E1FF69480A210B4657
S3150000298009220091019002212C48FEF73AFA644987
S31500002990544802F0D3FFFDF7CFFF6D480068284B7F
S315000029A0103B3E4A08326BA100906BA0FDF7E4FF96
S315000029B0074639463948143002F0C0FF65A11F4862
S315000029C002F05EFB002838D0FDF7B6FF1B4800F08A
S315000029D0F3FF02901A48029902F0B0FF17480299D5
S315000029E002F043FB00204049086012E04C483E4A92
S315000029F01268815C144802F0FEF949483A4A1268A6
S31500002A00815C594802F0B8FA37480068401C3649DC
S31500002A100860434800F0D0FF334909688842E5D88A
S31500002A200A21094802F0E7F91A21074802F0E3F9FA
S31500002A3000204E4908604E4DB7E0E8E00000002057
S31500002A401C260000D064000000B006408813002059
S31500002A507265696E697469616C697A6174696F6EB1
S31500002A60204F4E204C4F4F502E2E2E0A00000000B5
S31500002A70D81D00200A41542B4653524541443D433C
S31500002A803A5C49505F504F52542E5458542C302CB7
S31500002A903130302C310D0A001F4E0000280D000089
S31500002AA04F4B0000F4F0FF1F04F1FF1FEC65000020
S31500002AB00A41542B4653524541443D433A5C494EE4
S31500002AC054455256414C2E5458542C302C313030EB
S31500002AD02C310D0A000000009F86010013F1FF1F34
S31500002AE0ECF0FF1FA065000004F0FF1F14F0FF1FAD
S31500002AF008F0FF1F1C1B002000C006400A41542B93
S31500002B004653464C53495A453D433A5C4C4F472E33
S31500002B105458540D0A000000781E00200000AF44EF
S31500002B20961E00200A41542B4653524541443D43CC
S31500002B303A5C4C4F472E5458542C312C313430309B
S31500002B402C25640D0A0000000A25642C25730A0052
S31500002B50E8F0FF1F3E0000000D0A41542B43495088
S31500002B6053454E440D0A000000A006400CF0FF1F1E
S31500002B70D10700006D1EFB480078012806D1FDF73D
S31500002B80D1FDFDF745FC0020F6490870FF21913183
S31500002B90284602F03DFA002907D13121F24802F019
S31500002BA0EBF91A21F14802F026F9F149F14802F051
S31500002BB067FA002801D1012DDCDAEF49ED4802F071
S31500002BC05FFA0028D6D1EB4800F0F6FE0290E848FE
S31500002BD02C38029902F0B2FE1A21E44802F00BF9F1
S31500002BE0FDF7AAFE641C701EA04247DCE348E24BD8
S31500002BF02C3B1A460832E2A10090E248FDF7BCFEE3
S31500002C0007463946DC48183802F098FE36E0FDF7EC
S31500002C100BFFDD4800F0D0FE07463946DA4802F0E1
S31500002C2024FADAA002F08AFEFFF769FBFDF7FCFE44
S31500002C30D248D14B2C3B1A460832D1A10090D94834
S31500002C40FDF79AFE07463946CB48183802F076FE5D
S31500002C50D5480A2120230222009101900121C5486E
S31500002C60FEF7CFF8D048FFF7B4F80390CF490398A2
S31500002C7002F0B0FA074602F09DFC0646B44200DABE
S31500002C805AE605B0F0BD38B5C94BCA4AB8496039ED
S31500002C90C94802F063FEC9480068B54B3C3BB64ADA
S31500002CA0243A19460090C448FDF766FE04462146BC
S31500002CB0B148183802F042FEFFF710FE38BDC04991
S31500002CC0496B40221143BE4A516305210902BD4AA0
S31500002CD0116251621421417080218170704700B5E4
S31500002CE0B948FFF7ECFF00BD70B504460D46B6487F
S31500002CF0FDF7F8FB3A21B448FDF7E3FBB248FDF7D0
S31500002D00C2FBB148FDF7D3FB2146AF48FDF7D9FB1F
S31500002D10AD48FDF7B8FBAC48FDF7C9FB2946AA4804
S31500002D20FDF7CFFBA848FDF7AEFBA748FDF7BFFBB5
S31500002D30A548FDF79FFBFDF78AFB70BD8178082249
S31500002D40914381707047002181709D49496B8022B3
S31500002D5091439B4A5163704710B5FFF7C0FF2A2085
S31500002D60FDF7C9FBC4B2FE20204001462A20FFF72A
S31500002D70BBFFFE212046884304460220204301462D
S31500002D802A20FFF7B1FF0220044301202043014619
S31500002D902A20FFF7A9FF10BD8948806B012149024F
S31500002DA00843874988638815884948608860884849
S31500002DB0406806210843864948600846406906215E
S31500002DC00843834948610220886004208860704770
S31500002DD07B48806B0721C9020843794988638815B7
S31500002DE078494863C8637B4948617B494861886183
S31500002DF0C861086279484068052149070843774950
S31500002E004860764840384068202108437349403975
S31500002E1048606F4880304068FF21C13108436C49E3
S31500002E20803148600846406820210843684980315F
S31500002E3048606A484069052149070843674948616F
S31500002E406648403840692021084364494039486152
S31500002E505F4880304069FF21E13108435C49803199
S31500002E60486188055D4948608000486020205B49CC
S31500002E70403948604020564980314860802048608B
S31500002E80400048602020886070474D48806B0121D3
S31500002E90C90208434A49886351484F49C8604848AF
S31500002EA0806B012109030843454988634C48494919
S31500002EB088611F20012181404A4A116000BF704786
S31500002EC000B549480078030002F073FD063B040F85
S31500002ED01A25303B01204007404988608000886001
S31500002EE020203E494039486039E0012040073B49EF
S31500002EF048608000886020203849403948602EE0CC
S31500002F000120400735494860800048602020334949
S31500002F104039886023E001204007304988608000FE
S31500002F20486020202D494039886018E0012040077C
S31500002F302A498860800088602020284940398860B6
S31500002F400DE0012040072549886080004860202068
S31500002F5022494039486000202349087000BF00BF5D
S31500002F6000BD00003AF1FF1F00A0064000B0064079
S31500002F704826000000000020540D0000D107000084
S31500002F804F4B00003C170000881300207265696EE5
S31500002F90697469616C697A6174696F6E2E2E2E0A86
S31500002FA000000000FC2A0000781E00200000AF444C
S31500002FB004F1FF1FF4F0FF1FD81D0020E8F0FF1FEB
S31500002FC00080044040D00440006006400090044069
S31500002FD000F00F4000C0044000B0044000F10F4074
S31500002FE003010A0000E100E000F0FF1F00B5FE4803
S31500002FF0006A0821084000280FD0FB48006A0843F1
S31500003000F9490862F948006801210843F749086050
S31500003010F7480078401CF6490870F648006A4021D7
S31500003020084000280DD0F348006A0843F1490862B9
S31500003030EE48006801210843EC4908600120EE498A
S315000030400870FFF73DFF00BD70470020EB4988611F
S31500003050EB484861052008617047E8480069400868
S315000030604000E6490861704770B5E448856984699F
S31500003070281BE44908602946E3A002F05FFC2146CC
S31500003080E8A002F05BFCDF480168EDA002F056FC08
S3150000309070BD30B503460C461946184615E00D7846
S315000030A00570491C0578A5420DD0057895420AD0D1
S315000030B00578202D07D005782F2D04D005783A2DD8
S315000030C001D0012500E0002528180D78002DE6D155
S315000030D0057030BD0CE0E549E54A116004E0E449BD
S315000030E00968491EE24A1160E14909680029F6DCCF
S315000030F00146401E0029EED1704770B50025142107
S31500003100DC4801F0B2FFFDF717FC002435E0DA4891
S31500003110005D0A2830D0D848005D0D282CD0D6484E
S31500003120005D412828D0D448005D542824D0D248D8
S31500003130005D2B2820D0D048005D47281CD0CE4803
S31500003140005D532818D0CC48005D4E2814D0CA48DC
S31500003150005D4F2810D0C848005D4B280CD0C648EB
S31500003160005D452808D0C448005D522804D0C248F6
S31500003170005DC04948556D1C641CBF4800F01CFC2E
S31500003180A042C4D870BD3EB5BC48BD4B1A460832F5
S31500003190BCA10090BCA0FDF7EFFB05462946B84848
S315000031A0143002F0CBFB02A82C210B460222009120
S315000031B001900121B048FDF724FE6846007A0446D6
S315000031C0303C234622462146B3A0009402F0B6FBCB
S315000031D0230002F0EEFB064B041222303F4B012087
S315000031E04007B2494860800048602020AF49403916
S315000031F048600006AD49886043E001204007AB49BE
S315000032004860800048602020A84940394860000690
S31500003210A64988608000886033E001204007A34902
S315000032204860800048602020A049403948608006F8
S315000032309E49886025E0012040079C49486080003F
S31500003240486020209949403948608860800697493F
S31500003250886016E001204007944948608000486075
S31500003260202092494039486088600AE001204007E2
S315000032708E4948608000486020208C49403948606B
S3150000328000BF00BF3EBD1CB5FDF745FFFFF77BFF46
S31500003290FDF741FFFEF7C9FEFDF73DFF84480068D4
S315000032A0774B1A46083283A1009085A0FDF764FB90
S315000032B0044621467248143002F040FBFDF72BFF0E
S315000032C0FEF7B3FEFDF727FF794800686C4B1A46F8
S315000032D0083211461C3100907DA0FDF74DFB0446D7
S315000032E021467E4802F02AFBFFF707FFFDF724FB85
S315000032F0604800F061FB044622465E4978A002F071
S315000033001DFB6421794801F0B0FE794B794A7A4970
S31500003310764802F023FBFEF788FE65480068584BA6
S315000033201A462C327449243100907048FDF724FB6C
S31500003330044621465248143002F000FBFEF775FEA3
S315000033406E4800F039FB044621466DA002F0F6FAFD
S31500003350574800686CA34A4A08326FA100905F483C
S315000033600C30FDF709FB044621464548143002F0AF
S31500003370E5FAFEF75AFEFDF7DFFAFFF752F8FDF71A
S31500003380CAFEFEF752FEFDF7C6FE494800683C4BF2
S315000033901A46083211461C31009060A0FDF7ECFA7F
S315000033A0044621464D4802F0C9FAFDF7B4FE4048EE
S315000033B00068334B1A46083211461C3100905BA058
S315000033C0FDF7DAFA04462146444802F0B7FA6421CA
S315000033D0464801F04AFE0F21584801F046FE57487C
S315000033E022210B460222ABE080B00440D8F0FF1F3A
S315000033F000F0FF1F80C0044039F1FF1F00E000E02D
S315000034003F9C0000E4F0FF1F7379737469636B20BF
S3150000341073746172742076616C75653A2030782514
S31500003420780A0D007379737469636B20656E642086
S3150000343076616C75653A20307825780A0D000000B3
S315000034407379737469636B2063757272656E742029
S3150000345076616C75652072656164206F7665726849
S315000034606561643A20307825780A0D0088130000DB
S315000034702CF1FF1F3C1E0020000000203F420F00E1
S31500003480280D00004F4B00000D0A41542B43494EB6
S31500003490443F0D0A000000000A0925640A09256454
S315000034A00A0925640A0925640A00000000F10F4094
S315000034B0E8F0FF1F434C4F5345204F4B0D0A0000C9
S315000034C00D0A41542B434950434C4F53450D0A00B6
S315000034D00A0A41542B47534E0D0A00004C2B00009C
S315000034E00A2573092D3E0925640A0000D81D00200F
S315000034F004F1FF1FF4F0FF1FE825000088130020E9
S315000035000A25640A00000000434F4E4E45435420EE
S315000035104641494C000000003E0000000A0A4154A2
S315000035202B434D47463D310A0A0000000A0A415422
S315000035302B435343413F0D0A00000000871E002025
S315000035400091019001217F48FDF75BFC7E4A7FA137
S31500003550834802F003FA83480068834B1A46083210
S3150000356011461C3100907E48FDF706FA04462146B6
S315000035707E4802F0E3F97E480068C82802DB002096
S315000035807B490860FDF7C7FDFEF74FFDFDF7C3FD5C
S315000035901CBD10B5FDF7C6F876480068404276496E
S315000035A008607648006840427549086075480068BA
S315000035B040427549086075480021415E4842744999
S315000035C0086074480021415E4842734908607348A8
S315000035D00021415E48427249086010BD38B5FDF7CA
S315000035E09AFD60480068604B1A4608326D490090A3
S315000035F008460C30FDF7C0F9044621465A481430F7
S3150000360002F09CF9FEF711FDFDF785FD55480068AF
S31500003610554B1A46083211461C31009061481C3041
S31500003620FDF7AAF9044621464F48143002F086F900
S31500003630FEF7FBFCFDF76FFD4A4800684A4B1A4649
S31500003640083211461C31009056483030FDF794F987
S31500003650044621464448143002F070F9FEF7E5FCB2
S31500003660FDF759FDFDF768F94E484030FDF773F94F
S31500003670FDF762F91420FDF7F5FAFDF74CFD4A4B0C
S315000036804A4A48495831364802F068F935480068D0
S31500003690354B1A46083243497C3100903048FDF7D5
S315000036A06BF9044621463048143002F047F9FDF71D
S315000036B043F938BD3E48FDF7D5FA00F04DFBFFF75C
S315000036C0C4FCFFF785FBFFF767FBFFF7DEFBFFF7A1
S315000036D043FB38480068401C3649086008460168C4
S315000036E035A002F02BF90020384908701BE00220B3
S315000036F0374988607D200001FDF7B4FA042034497B
S3150000370088607D200001FDF7ADFA0220304948604F
S315000037107D200001FDF7A6FA04202D4948607D2092
S315000037200001FDF79FFAE2E770470120294908707A
S31500003730294800688021084327490860C12008609D
S315000037407047000000000020871E00200D0A41542B
S315000037502B435343413D222573220D0A00000000EE
S31500003760D81D0020E8F0FF1F280D00004C2B00009C
S3150000377030F1FF1F4CF0FF1F8CF0FF1F50F0FF1FB2
S3150000378090F0FF1F54F0FF1F94F0FF1F68F0FF1F1B
S3150000379098F0FF1F6AF0FF1F9CF0FF1F6CF0FF1FE1
S315000037A0A0F0FF1F9025000004F1FF1FF4F0FF1F9B
S315000037B0B80B00002CF1FF1F0A2048656C6C6F20C7
S315000037C0576F726C642025640000000000F0FF1F34
S315000037D000F00F403AF1FF1F000004400146202987
S315000037E001D0092901D1012070470020FCE70146DC
S315000037F0302901DB392907DD412901DB5A2903DD9F
S31500003800612903DB7A2901DC012070470020FCE7EF
S315000038100146302903DB392901DC012070470020ED
S31500003820FCE70146412903DB5A2901DC01207047E8
S315000038300020FCE730B503460C4600201AE0197854
S315000038405B1C2278641C612904DB7A2902DC0D46A4
S31500003850203DE9B2612A04DB7A2A02DC1546203DC6
S31500003860EAB28D1A280000D006E0002901D0002A0D
S3150000387000D101E00028E2D000BF30BDF8B5034614
S315000038800C4615460026002000901BE019785B1CAC
S315000038902278641C612904DB7A2902DC0846203878
S315000038A0C1B2612A04DB7A2A02DC10462038C2B291
S315000038B0881A0090002800D008E0002901D0002ACC
S315000038C000D103E03046761CA842DFDB00BF00983B
S315000038D0F8BDFEB506460C46002002900190009009
S315000038E0002E05D0002A03DB012A01D0242A04DD9C
S315000038F0002C00D026600020FEBD334600E05B1C95
S315000039001878FFF76BFF0028F9D118782D280ED00C
S31500003910302810D15878782802D05878582805D100
S31500003920002A01D0102A01D110229B1C04E001209C
S3150000393000905B1C00E000BF00BF002A00D10A22F5
S315000039401F4628E02846FFF752FF002802D1012033
S31500003950019023E02846FFF75BFF002801D0303DA9
S3150000396007E02846FFF75DFF002801D0373D00E05D
S31500003970573D954202DB012001900FE00098002898
S3150000398004D002985043401B029003E00298504333
S31500003990401902907F1C38780500D3D100BF002C57
S315000039A000D027600198002804D0002C00D02660A3
S315000039B00020A1E702989FE710B501460A460023BA
S315000039C0002A01D1002010BD00E05B1C1478521CB7
S315000039D0002CFAD11846F6E7F0B505460E463746EE
S315000039E0002D0ED0002E0CD02846FFF7E5FF441917
S315000039F003E0387820707F1C641C38780028F8D1E2
S31500003A0020702846F0BDF7B505460E463746002D10
S31500003A1017D0002E15D00298002812DD2846FFF791
S31500003A20CBFF441903E0387820707F1C641C38787B
S31500003A30002804D00298411E02910028F3DC0020E1
S31500003A4020702846FEBD10B50A46014613460028DA
S31500003A500AD0002A08D003E01C780C705B1C491CB5
S31500003A601C78002CF8D10C7010BD70B50B460146C1
S31500003A701C46002811D0002B0FD0002A0DDD03E0D4
S31500003A8025780D70641C491C2578002D03D0154639
S31500003A90521E002DF4DC00250D7070BD30B50346B6
S31500003AA00C461A46214606E010780D78A84200D04A
S31500003AB004E0521C491C08780028F5D100BF107894
S31500003AC00D78401B30BD70B504460D462346294689
S31500003AD0002A01DC002070BD0AE018780E78B0429A
S31500003AE000D008E0501E020000D104E05B1C491C17
S31500003AF008780028F1D100BF18780E78801BEAE715
S31500003B00F7B581B00199029C019900291CD0029851
S31500003B10002819D0002A17D093079B0FD01A8008C7
S31500003B20009001E001CC01C10098471E00970028D3
S31500003B30F8D10D46264603E030782870761C6D1CB9
S31500003B4018465B1E0028F7D1019804B0F0BD30B5C9
S31500003B500B460146002808D0002A06D001E00B706B
S31500003B60491C1446521E002CF9D130BD10B58C48A4
S31500003B70406A072109070840000F030001F019FFFA
S31500003B800504080C1014180086A001F0D7FE13E0F7
S31500003B9086A001F0D3FE0FE086A001F0CFFE0BE079
S31500003BA086A001F0CBFE07E086A001F0C7FE03E089
S31500003BB086A001F0C3FE00BF00BF7948406A072116
S31500003BC009060840000E042804D0052806D0062859
S31500003BD00CD107E087A001F0B1FE0BE086A001F052
S31500003BE0ADFE07E085A001F0A9FE03E084A001F088
S31500003BF0A5FE00BF00BF6A48406A0007000F030029
S31500003C0001F0D7FE09060A0E2212161A221E2200FB
S31500003C1086A001F093FE1BE086A001F08FFE17E060
S31500003C2086A001F08BFE13E086A001F087FE0FE070
S31500003C3086A001F083FE0BE086A001F07FFE07E080
S31500003C4086A001F07BFE03E087A001F077FE00BFAF
S31500003C5000BF5348406A072109050840000D0128A6
S31500003C6003D18CA001F06AFE03E094A001F066FE89
S31500003C7000BF00BF4A48406A072109040840000CFB
S31500003C80030001F096FE0805090D1115191D2125E1
S31500003C9095A001F053FE1FE099A001F04FFE1BE036
S31500003CA09CA001F04BFE17E09FA001F047FE13E039
S31500003CB0A2A001F043FE0FE0A5A001F03FFE0BE03D
S31500003CC0A9A001F03BFE07E0ADA001F037FE03E03E
S31500003CD0B1A001F033FE00BF00BF31484030C068DC
S31500003CE00F2109060840000E05281AD006DC002818
S31500003CF00BD001280DD0032823D10EE0072814D0BD
S31500003D00092816D00F281CD117E0AAA001F016FE2C
S31500003D101BE0B8A001F012FE17E0C6A001F00EFEEF
S31500003D2013E0D3A001F00AFE0FE0E0A001F006FECA
S31500003D300BE0EDA001F002FE07E0DCA001F0FEFDC5
S31500003D4003E0F8A001F0FAFD00BF00BF0F242146F2
S31500003D50FCA001F0F3FD10BD10B50020FE4908607F
S31500003D60FCF76EFA53A001F0E9FD00F039FEFFF70B
S31500003D70FDFE10BD10B50320F849C87100208871FA
S31500003D80487108710120C8738020087000BFF3488D
S31500003D900078802108400028F9D0F048C17ADFE198
S31500003DA0008004400A0D4B4C300000000A0D4B4CBD
S31500003DB0310000000A0D4B4C320000000A0D4B4C3E
S31500003DC0330000000A0D4B4C340000000A0D556EFE
S31500003DD07265636F676E697A6564204B696E657498
S31500003DE069732066616D696C7920646576696365BF
S31500003DF02E0A0D00340A0D00350A0D00360A0D0094
S31500003E000A0D556E7265636F676E697A6564204B3D
S31500003E10696E65746973207375622D66616D696C70
S31500003E2079206465766963652E0A0D0031367069FE
S31500003E306E0A0D00323470696E0A0D0033327069F5
S31500003E406E0A0D00343870696E0A0D0036347069DA
S31500003E506E0A0D00383070696E0A0D003130307010
S31500003E60696E0A0D000000000A0D556E7265636FDB
S31500003E70676E697A6564204B696E65746973207034
S31500003E8061636B61676520636F64652E2020202067
S31500003E90202000000A0D4C6F7720506F7765722046
S31500003EA04C696E65207769746820436F7274657813
S31500003EB0204D302B0A0D0A0D000000000A0D556E2C
S31500003EC07265636F676E697A6564204B696E6574A7
S31500003ED069732066616D696C7920617474726962B8
S31500003EE07574652E0A0D00005352414D20207369EA
S31500003EF07A653A20302E35204B420A0D000000002C
S31500003F005352414D202073697A653A202031204B67
S31500003F10420A0D005352414D202073697A653A20BA
S31500003F202032204B420A0D005352414D2020736926
S31500003F307A653A202034204B420A0D005352414DF7
S31500003F40202073697A653A202038204B420A0D00FA
S31500003F505352414D202073697A653A20203136202C
S31500003F604B420A0D000000005352414D2020736958
S31500003F707A653A20203332204B420A0D00000000B9
S31500003F805352414D202073697A653A2020363420F9
S31500003F904B420A0D000000000A0D556E7265636FF4
S31500003FA0676E697A6564205352414D2053697A657C
S31500003FB02E0A0D00466C6173682073697A653A2093
S31500003FC02038204B422070726F6772616D20666CDC
S31500003FD06173682C20302E3235204B422070726F70
S31500003FE074656374696F6E20726567696F6E0A0D1A
S31500003FF000000000466C6173682073697A653A2098
S31500004000203136204B422070726F6772616D2066D8
S315000040106C6173682C20302E35204B422070726FF5
S3150000402074656374696F6E20726567696F6E0A0DD9
S3150000403000000000466C6173682073697A653A2057
S31500004040203332204B422070726F6772616D20669A
S315000040506C6173682C2031204B422070726F74653E
S315000040606374696F6E20726567696F6E0A0D000072
S31500004070466C6173682073697A653A20203634206D
S315000040804B422070726F6772616D20666C61736857
S315000040902C2032204B422070726F74656374696FF6
S315000040A06E20726567696F6E0A0D0000466C61735B
S315000040B0682073697A653A2020313238204B4220D5
S315000040C070726F6772616D20666C6173682C203444
S315000040D0204B422070726F74656374696F6E207234
S315000040E06567696F6E0A0D00466C617368207369B7
S315000040F07A653A2020323536204B422070726F673F
S3150000410072616D20666C6173682C2034204B4220EE
S3150000411070726F74656374696F6E20726567696F1C
S315000041206E0A0D00455252212120556E646566695E
S315000041306E656420666C6173682073697A650A0D22
S315000041400000000053696C69636F6E20726576200B
S3150000415025640A0D000000000081044000000240B2
S315000041601CA001F0EBFB2248817A22A001F0E6FBBD
S315000041701F48417A1FA001F0E1FB1D48017A1FA0EC
S3150000418001F0DCFB03201A49C871002088714871D0
S31500004190042008710120C8738020087000BF1448ED
S315000041A00078802108400028F9D01148C17A15A06E
S315000041B001F0C4FB0E48817A18A001F0BFFB0C4841
S315000041C0417A0CA001F0BAFB0948017A144801F0C3
S315000041D0B5FB10BD466C61736820706172616D65D8
S315000041E07465722076657273696F6E20256420008F
S315000041F00000024020256420000000002025640AFB
S315000042000D000000466C6173682076657273696FF5
S315000042106E2049442025642000000000202564000B
S31500004220504100000020764908607648806B4915A9
S315000042300843744988630120000772494031486089
S3150000424071488068714908406F4988600846C068AF
S315000042506E4908406C49C8606D4840786421084042
S31500004260242108436A49487080206A4908709A20C8
S31500004270674908700846C078C006C00EC87003209B
S315000042800871002048714020487100BF604880795D
S315000042900C2108400828F9D100BF5D4880794021EB
S315000042A008400028F9D01A205949087000BF58481C
S315000042B080790C2108400C28F9D1704770B5544814
S315000042C00078C0210840002868D151484079402133
S315000042D0084000284ED14E480078042108400028A6
S315000042E015D14D4C4A48007838210840C1080120B4
S315000042F08840C5B22946204600F074FE044644486C
S31500004300407830210840002803D0640901E00124E8
S31500004310E4033F48C078E0210840C106C90E0029E1
S3150000432026D14011030001F044FB0805090D1115C3
S31500004330191D20230520C00144431AE00520000270
S31500004340444316E00F20C001444312E0052040021A
S3150000435044430EE0B720800044430AE0B720C00083
S31500004360444306E02D48444303E02D48444300E01F
S3150000437000BF38E026480079C006C00E451C294615
S31500004380254800F02FFE044621484079C006C00E9D
S315000043900546183520466843044624E01C48007844
S315000043A0C0210840402815D119484078C007C00FE1
S315000043B0002802D10124E40315E01548007A0E22F4
S315000043C010404208012090400146164800F00AFEBF
S315000043D0044608E00E480078C0210840802801D134
S315000043E00D4C00E070BD074840304068000F411C8E
S315000043F0204600F0F7FD0C49086000BFF2E7000018
S31500004400008104400080044040900440FFF8FFFE15
S31500004410004006400050064000127A009508000051
S31500004420710B000000093D0058F1FF1FF8B5044666
S315000044300E461746CC480578E007C00F002802D084
S31500004440CAA001F07BFA02202040002802D0D7A0A3
S3150000445001F074FA04202040002802D0E1A001F007
S315000044606DFA08202040002802D0ECA001F066FA80
S31500004470BD480570457810202040002802D0F5A0E0
S3150000448001F05CFA2020204000280CD0B0000C215E
S3150000449008400543FE4801F051FAB348407920210F
S315000044A00843B14948714020204000280CD0300113
S315000044B0302108400543F74801F040FAAA48407900
S315000044C040210843A84948718020204000280CD08C
S315000044D0B001C02108400543EF4801F02FFAA24879
S315000044E0407980210843A04948719F4845708578E6
S315000044F08015204000280BD0B007800F0543E74801
S3150000450001F01CFA98488079012108439649887180
S3150000451001204002204000280CD0B0000C210840A9
S315000045200543DF4801F00AFA8F48807902210843E3
S315000045308D49887101208002204000280CD030016E
S31500004540302108400543D74801F0F8F986488079BC
S3150000455004210843844988710120C00220400028B4
S315000045600CD0B001C02108400543CF4801F0E6F960
S315000045707D488079082108437B4988717A4885708F
S31500004580C57801200003204000280BD0B007800F1B
S315000045900543C64801F0D2F97348807910210843D3
S315000045A07149887101204003204000280CD0B000DA
S315000045B00C2108400543BE4801F0C0F96A488079DD
S315000045C02021084368498871012080032040002883
S315000045D00CD03001302108400543B64801F0AEF951
S315000045E061488079402108435F4988710120C003F2
S315000045F0204000280CD0B001C02108400543AE4839
S3150000460001F09CF958488079802108435649887101
S315000046105548C570002F03D100205349087109E0A1
S315000046205148007938435049087108460179A3A0DA
S3150000463001F084F9F8BDF8B504460F4615462B4639
S3150000464022463946ACA001F079F900268020464979
S3150000465008724872012F0BD16801602108402107BA
S31500004660090F08438021084306433F48067210E0BD
S31500004670022F0BD16801602108402107090F08436A
S315000046808021084306433848467202E0A7A001F09D
S3150000469055F9F8BD3448407920210840002804D057
S315000046A0314840790843304948712F4840794021C4
S315000046B00840002804D02C48407908432A4948710C
S315000046C02948407980210840002804D026484079AE
S315000046D008432549487124488079C007C00F00283F
S315000046E005D021488079012108431F4988711E4859
S315000046F0807902210840002804D01B4880790843AD
S31500004700194988711848807904210840002804D086
S31500004710154880790843144988711348807908211F
S315000047200840002804D01048807908430E49887153
S315000047300D48807910210840002804D00A48807965
S3150000474008430949887108488079202108400028D3
S3150000475004D0054880790843034988710248807966
S31500004760402108400028F1E000C007400A20496EB9
S3150000477076616C6964204C4C575520636F6E666990
S3150000478067757265642070696E20505445312F53E9
S315000047904349315F52582F493243315F53434C20CE
S315000047A02F535049315F53494E0000000A20496E8D
S315000047B076616C6964204C4C575520636F6E666950
S315000047C067757265642070696E20505445322F53A8
S315000047D05049315F53434B2F53444843305F444362
S315000047E04C4B00000A20496E76616C6964204C4C83
S315000047F0575520636F6E66696775726564207069C8
S315000048006E20505445342F535049315F5043533036
S315000048102F53444843305F44330000000A20496E5A
S3150000482076616C6964204C4C575520636F6E6669DF
S3150000483067757265642070696E20505441342F4646
S31500004840544D305F4348312F4E4D492F455A505FE6
S31500004850435300000A20496E76616C6964204C4C13
S31500004860575520636F6E6669677572656420706957
S315000048706E2050544131332F46544D315F434831F9
S31500004880202F46544D315F51445F5048420000008E
S31500004890C06800009C67000034680000786800006B
S315000048A054670000806600003C660000C466000095
S315000048B01067000014690000E46700000A204C4CF1
S315000048C0575520636F6E66696775726564206D6FF4
S315000048D064756C6573206173204C4C575520776165
S315000048E06B65757020736F7572636573203D20303C
S315000048F078253032582C00000A456E61626C696E6C
S31500004900672046696C746572202578206F6E205783
S31500004910552050696E20257820666F7220575520E5
S3150000492073656E7365202578200A00000A45727249
S315000049306F72202D20696E76616C69642066696CE1
S31500004940746572206E756D6265720A0004D0204827
S31500004950807908431E4988711D4880798021084066
S31500004960002804D01A4880790843194988711848E4
S31500004970C079C007C00F00280DD01648806B0121F2
S315000049800843144988631448006880210843124983
S315000049900860C12008600E48007A8021084000287F
S315000049A004D00B48007A0843094908720848407A3F
S315000049B080210840002804D00548407A084304496D
S315000049C04872064800688021084304490860704719
S315000049D000C00740008004400000044080E200E080
S315000049E010B55D48407820210840002802D05BA021
S315000049F000F0A4FF5848407808210840002802D05B
S31500004A005FA000F09BFF544840780421084000282E
S31500004A1002D05FA000F092FF4F4840780221084084
S31500004A20002802D05FA000F089FF4B480078802163
S31500004A300840002802D062A000F080FF46480078B7
S31500004A4040210840002802D062A000F077FF4248CB
S31500004A50007820210840002802D064A000F06EFFF4
S31500004A603D48007804210840002802D065A000F0E7
S31500004A7065FF3948007808210840002802D069A05F
S31500004A8000F05CFF3448007802210840002802D07C
S31500004A906BA000F053FF30480078C007C00F002815
S31500004AA047D06EA000F04AFF784840784007400F94
S31500004AB0032802D176A000F041FF744840784007F1
S31500004AC0400F042808D1714880784007400F00281D
S31500004AD002D172A000F032FF6C4840784007400FC8
S31500004AE0042808D1694880784007400F012802D180
S31500004AF06DA000F023FF654840784007400F04286A
S31500004B0008D1624880784007400F022802D169A088
S31500004B1000F014FF5D4840784007400F042808D194
S31500004B205A4880784007400F032802D164A000F05D
S31500004B3005FF0948007800280DD10748407800286D
S31500004B4009D10548017861A000F0F8FE02484178D5
S31500004B5068A000F0F3FE10BD00F007400A0D537484
S31500004B606F70204D6F64652041636B6E6F776C6567
S31500004B70646765204572726F7220526573657400B2
S31500004B800A0D4D444D2D4150205265736574000049
S31500004B900A0D536F6674776172652052657365748A
S31500004BA0000000000A0D436F7265204C6F636B7541
S31500004BB070204576656E742052657365740000003A
S31500004BC00A0D506F7765722D6F6E2052657365748E
S31500004BD0000000000A0D45787465726E616C205005
S31500004BE0696E205265736574000000000A0D5761F6
S31500004BF0746368646F6728434F5029205265736554
S31500004C00740000000A0D4C6F7373206F66204578A0
S31500004C107465726E616C20436C6F636B20526573B2
S31500004C20657400000A0D4C6F7373206F66204C6F1D
S31500004C30636B20696E20504C4C205265736574007E
S31500004C400A0D4C6F772D766F6C746167652044652D
S31500004C507465637420526573657400000A0D5B6F9A
S31500004C6075745352535D57616B6575702062697434
S31500004C70207365742066726F6D206C6F7720706F7D
S31500004C80776572206D6F64652000000000E00740C4
S31500004C904C4C53206578697420000000564C4C53E8
S31500004CA03020657869742000564C4C533120657865
S31500004CB069742000564C4C533220657869740000A4
S31500004CC0564C4C5333206578697420005B6F7574BD
S31500004CD05352535D52434D5F5352533020697320F4
S31500004CE05A45524F2020203D202523303258200D92
S31500004CF00A0D00005B6F75745352535D52434D5F4E
S31500004D0053525331206973205A45524F2020203D7B
S31500004D10202523303258200D0A0D0000F8B5044630
S31500004D200E4617469B48844206D19B48406BE114C9
S31500004D3008439949486306E09748406B01210903F7
S31500004D40084395494863E0780C218843E0700020C9
S31500004D50A07039017D22D2007243104600F058F946
S31500004D6085B220784109490100911F2000022840A0
S31500004D7000120099084320706570E07820210843EE
S31500004D80E0700D2001218140844A116000BF62B6A7
S31500004D90E0780C210843E070F8BD0146087920222E
S31500004DA01040704700B57E4B00BF7A48FFF7F5FF0D
S31500004DB000280CD07748C0797A497B4A1268885413
S31500004DC079480068401C78490860754B00E05B1E16
S31500004DD07048FFF7E2FF0028E7D1012BE5DC00BDB4
S31500004DE070470146C72200BF0879202318400028D3
S31500004DF0FAD0C879704710B5694A00E0521E0379A7
S31500004E0080242340002B01D1012AF7DCC17110BD9B
S31500004E10F7B586B000BF00200590049000250190EC
S31500004E205D48406B0121890208435B4948635F483E
S31500004E30C0780C2188435D49C8705D49079888424F
S31500004E4002DC079820280CDA00BF53484568032186
S31500004E50890628468843054600BF4F48456000BF7F
S31500004E60FEE7089C7D21C900079848430290042666
S31500004E70204670430146029800F0B4F80390039868
S31500004E8070430146029800F0ADF80746A74202D9E2
S31500004E90381B059001E0E01B0590049605261DE0F1
S31500004EA0204670430146029800F09CF80390039850
S31500004EB070430146029800F095F80746A74202D9CA
S31500004EC0381B019001E0E01B01900599019888428A
S31500004ED002D8019805900496701CC6B2202EDFDD1C
S31500004EE06421204600F07EF8410041180598814271
S31500004EF035D90498032808D90498092805D22B48DF
S31500004F00C07A022108432949C8722848857A6D0962
S31500004F106D010498401EC006C00E054323488572E5
S31500004F20E806C00E451C204668430146029800F07C
S31500004F3059F803901D48007845096D011F210902A3
S31500004F4003980840000A28431849087003984870D7
S31500004F500846C0780C2108431449C87001E000BF18
S31500004F60FEE709B0F0BD014600BF087920221040D7
S31500004F700028FAD0C879704700BF027980231A400A
S31500004F80002AFAD0C17170470146087920221040E4
S31500004F907047000000B006400080044000E100E0D9
S31500004FA01F4E0000000000200CF0FF1F00A006406E
S31500004FB050C3000070B504460D462046FBF70AFABA
S31500004FC070BD10B50446FBF70DFA10BD0146002072
S31500004FD0C043704710B504462046FBF7FBF910BDE9
S31500004FE000BFFEE730B50B46014600202022012413
S31500004FF009E00D46D5409D4205D31D469540491B07
S315000050002546954040191546521E002DF1DC30BD4F
S3150000501070B500242546002801DA01244042002903
S3150000502001DA01254942FFF7DDFFAC4200D04042DC
S31500005030002C00D0494270BD03460B439B0703D0AA
S3150000504009E008C9121F08C0042AFAD203E00B7847
S315000050500370401C491C521EF9D27047D2B201E0BF
S315000050600270401C491EFBD270470022F6E710B5BD
S3150000507013460A4604461946FFF7F0FF204610BDC0
S3150000508030B505462A460B4610781C78521C5B1C28
S31500005090002801D0A042F7D0002C03D0002802D06F
S315000050A06D1CEFE7284630BDF8B502464A40D40FDE
S315000050B042004B0052085B089A4202D2024608465A
S315000050C011464A0023D0C30D4A00DDB2120EAD1AB6
S315000050D0202D35DA49020126490AF6058A19002CDF
S315000050E000D0524220214F1B1146B9402A411018C8
S315000050F0C20D9A4221D0002C17D0012D08DCDA050A
S31500005100801AD20F8019D207DBB200F01BFBF8BD64
S31500005110DA05801A012340001B06C01880185A427F
S315000051208018CA0F1043490007E04908C207114317
S31500005130DA05801A80194008801800F0FBFAF8BDDD
S3150000514061000122511A001BF7E70122D2075140E4
S31500005150AAE70122D2075040A6E7024670B54A40A8
S31500005160D30FDB0740002DD04A002AD0010E140EC3
S31500005170000212020919400A520A8418E50104467F
S315000051805443000A120A2E045043A4194219200C53
S31500005190C543AA18120C0125AD03521C521912045C
S315000051A07F39240400D0521C104301D44000491E0C
S315000051B0C2B20C06C0092018401C4008802A02D042
S315000051C003E0002070BD40084000002900DA0020FE
S315000051D0184370BD70B502464A40D50F40004A00DC
S315000051E0ED0740085208002814D0002A12D0C40D3A
S315000051F0D30D41020120C0055202490A520AE41A9F
S31500005200091812187D34914201D3641C00E049004C
S31500005210002C01DA002070BD0023914201D3891AC7
S315000052200343400849000028F7D100290AD09142DB
S3150000523002D10121C90705E0914201D2012101E015
S315000052400121C943E005C018401900F073FA70BD8A
S31500005250F0B507460846584087B0C00F049048008E
S315000052600E46590040084908BC1A884105D23846FE
S3150000527031461E4617460B46024658004008104364
S315000052804CD0300D039040055900400D490D059056
S31500005290401A0290402872DA18030121000B090512
S315000052A00843019004980092002805D001995242C3
S315000052B00020884100920190029840210A1A019923
S315000052C0009800F003FA05460C466B4607CB00F043
S315000052D01EFAC0197141039A0E0D0023D7175640C6
S315000052E01A467A40164344D0049A002A2DD0029AD0
S315000052F0012A039A15DC1205C01A914101263605CA
S31500005300001C7141D20F059ED207009301920296AE
S315000053102A46234600F05CFA07B0F0BD384631460F
S31500005320FAE71605224A0F46B218C01AB7410121FC
S315000053300905001C4F4100187F4111461818794194
S31500005340E20F10436D19644113E0E2076D0815433F
S315000053506408C2071443039A01261205C01A914134
S315000053603605001C7141CE07400830434908C01875
S3150000537051412A46234600F01EFACDE7FFE704987E
S3150000538001224000C117121A00238B4104983146AE
S31500005390C417381AA141EEE730B40124E40763408C
S315000053A030BC55E730B40124E407614030BC4FE718
S315000053B00000E0FFF0B51FB488B00B9909980024EF
S315000053C048400999C00F490049080991C0070B993F
S315000053D00090490049080B9109990898A646084388
S315000053E01CD00B990A98084318D00998012440004C
S315000053F0420D4800410D099824050003000B204387
S3150000540009900B980003000B20430B9050181C4981
S315000054104018002201901446104605E0002001467F
S315000054200DB0F0BD032801DA034600E003239C46D5
S31500005430C11A0AAE0AE05F0008ADED5B4F00F75BEC
S315000054407D430027AA187C41491C5B1E6145F2DD9D
S31500005450410004AB5A522104120C0A43240C401C8E
S315000054600828DFDB019802900099704601910090B0
S31500005470059B049A0799069800F0AAF9D0E7000060
S315000054800DFCFFFFF0B50C465C4085B0E40FE40769
S3150000549003944C00002664085900944649080246C5
S315000054A00296224321D062460A431ED06200570D5F
S315000054B04A000E032303550D012402462C492405F8
S315000054C0781B1B0B360B401823432643614600907E
S315000054D01C46501AB44103D30098401C009002E0C9
S315000054E0921800985B41002803DA0020014605B0B7
S315000054F0F0BD0020012109050746864611E06446F5
S315000055001D46141BB54106D36546521BB34174466E
