S31500000000F82F00206903000091010000E767000057
S3150000001000000000000000000000000000000000DA
S31500000020000000000000000000000000790300004E
S3150000003000000000000000007B030000976800003D
S315000000408303000083030000830300008303000092
S3150000005083030000830300008303000091780000FF
S315000000608303000083030000830300008303000072
S31500000070157E0000EF7D0000137E00008303000064
S315000000808303000083030000830300008303000052
S315000000908303000083030000830300008303000042
S315000000A08303000083030000830300008303000032
S315000000B01B68000083030000830300004B3D000023
S315000000C000F002F800F054F80CA030C808382418E4
S315000000D02D18A246671EAB4654465D46AC4201D17A
S315000000E000F046F87E460F3E0FCCB6460126334258
S315000000F000D0FB1AA246AB4633431847F0F6000081
S3150000010010F700000023002400250026103A01D332
S3150000011078C1FBD8520700D330C100D50B607047B9
S3150000012010B5662902D10EF0B7FC10BD642902D1C4
S3150000013008F00CF810BD782902D108F03DF810BD82
S31500000140632902D109F01CFB10BD732902D109F005
S315000001501FFB10BD002010BD1FB509F077FB040082
S31500000160002000210EF052FBE0601FBD10B510BD4F
S3150000017009F0CEFE1146FFF7EFFF03F06CFE09F023
S31500000180E6FE03B4FFF7F2FF03BC00F035F900000A
S31500000190134909680222114000290DD01049096847
S315000001A0490849000E4A116000BF0D49096802223C
S315000001B011400029F9D10DE0002007E0094909693D
S315000001C010221140102900D103E0401C0649884244
S315000001D0F4DB00BF70470548054908617047000019
S315000001E0403000F000F00FF8FFFF01001307000099
S315000001F00090044010B54C48806B1F21490208430B
S31500000200494988634948807808210840002804D075
S3150000021046488078084345498870454800684549FE
S315000002200860414840680121090408433E49486086
S3150000023040480468E10F091948107D21C90008F0FB
S31500000240E9F83D4908603848406803218906884333
S31500000250012189064018344948607D21C900354886
S31500000260006808F0D7F8354908602F4840304068E4
S31500000270000F411C3148006808F0C2F83049086098
S31500000280294840304068072212041040000C411CE7
S315000002902B48006808F0B4F82A490860012080025B
S315000002A0294948610861032000022749403948600E
S315000002B0086026498860C8604B22D2011E48016842
S315000002C0234807F0DAFDE12252021E480168214860
S315000002D007F04DFD4B22D2011A4801681E4807F06F
S315000002E046FD10BDFF2001301C4908610846006923
S315000002F0092109040843194908611E20002805DB65
S31500000300C206D20E01219140154A116000BF704706
S31500000310052000021349C86003484068402108438D
S3150000032001494860704700000080044000D0074043
S3150000033068F2FF1F4CF2FF1F60F2FF1F50F2FF1F13
S3150000034054F2FF1F58F2FF1F40D0044000C0044083
S3150000035000A0064000B0064000C0064000900440E1
S3150000036000E100E000B00440094880470948094818
S315000003700047FEE708488047FEE7FEE7FEE7074836
S315000003808047FEE706480749054A074B70470000C5
S3150000039021740000C1000000E76700001B68000030
S315000003A020220020202B00202022002010B5044609
S315000003B0E1B2054807F029FEE0B210BD10B50248CB
S315000003C007F01AFE10BD000000A0064070B50446F6
S315000003D00D462046FFF7EAFF70BD10B50446FFF74D
S315000003E0EDFF10BD01460020C043704710B504461E
S315000003F02046FFF7DBFF10BD00BFFEE77047000099
S31500000400FFFFFFFFFFFFFFFFFFFFFFFFFEFBFFFFFB
S31500000410FFB581B0074614461D460A9E0AF0F4FA57
S315000004200020FD490860FD49FD4807F0E5FF002072
S31500000430FC4908600AF0E8FA38460EF079F90A2015
S315000004400AF002FB0D21F84807F005FD00BFF4484D
S31500000450029907F0A1FFF54908602146F04807F028
S315000004609BFFF34908602946ED4807F095FFF149DF
S315000004700860EE48006800280BD1ED4800680028A7
S3150000048007D108460068002803D1E3480068B04257
S3150000049001DD012000E00020E749087008460078E9
S315000004A00028D4D00AF0B0FADB480068B04217DD65
S315000004B00D21DD4807F0CFFC0A21DB4807F0CBFC15
S315000004C01A21D94807F0C7FC1A21D74807F0C3FC00
S315000004D00D21D54807F0BFFC0A21D34807F0BBFC25
S315000004E005B0F0BD70B504460D46204606F068FB23
S315000004F0D24908600020D24908600BE0D048006865
S31500000500205CA84201D1012070BDCD480068401C86
S31500000510CB490860CA480068C84909688842EDDDC9
S315000005200020F1E700B5C7480068012802D1632022
S31500000530C5490870C448007803000AF0E3F90604C8
S315000005400F1A25303B4601204007C04988608000CD
S3150000055048602020BD494039486044E001204007FA
S31500000560BA498860800088602020B84940394860D0
S3150000057039E001204007B5494860800088602020A6
S31500000580B249403948602EE001204007AF49486033
S31500000590800048602020AD494039886023E0012072
S315000005A04007AA498860800048602020A749403952
S315000005B0886018E001204007A449886080008860B0
S315000005C02020A249403988600DE0012040079F495C
S315000005D048608000486020209C49403948600020DF
S315000005E09949087000BF00BF00BDF8B504460E4625
S315000005F017461D460A200AF027FA0F21284607F05B
S31500000600FBFE002092490860924908601AE0904873
S315000006100068205C222808D18E480068401C8D495D
S3150000062008608B4800688C4908608A480068B842B0
S3150000063003DBE12080008649086085480068401C8D
S3150000064083490860824800686428E0DB002080490E
S315000006500860804908601AE07D480068205C22280E
S3150000066008D17C480068401C7A49086078480068D0
S315000006707A49086077480068B04203DBE1208000D1
S315000006807349086072480068401C714908607048E8
S3150000069000686428E0DB00206D4908600EE06F48C2
S315000006A000686B4909684018401C205C6849096865
S315000006B0685467480068401C6549086066480068D9
S315000006C066490968401A401E614909688842E6DCA5
S315000006D0F8BDF8B505460E46002400270020009018
S315000006E000BF07E0285D0A2803D1B74201DA7F1C64
S315000006F00094641C284606F063FAA042F2D80098DB
S31500000700F8BD70B505460C460020554908605549A8
S3150000071008600EE053480068205CA84204D15048A7
S315000007200068401C4E4908604E480068401C4D4910
S315000007300860204606F044FA4A4909688842E9D822
S315000007404748006870BD38B54748006806F038FA73
S31500000750044621464448006807F04EFE43480068B8
S3150000076006F02EFA044621464048006807F044FE8B
S315000007703E212B48FFF7B6FE3D4908700846007833
S31500000780002848D00AF040F92449254807F034FEED
S3150000079038A1394806F024FA374806F011FA3749E5
S315000007A0086000201C4908601E490860344908603A
S315000007B00BE03148324A1268815C1B4807F04BFB5C
S315000007C02F480068401C2E4908602D4800682B49B8
S315000007D009688842EDDB0A21134807F03CFB1A2121
S315000007E0114807F038FB1A210F4807F034FB1A218D
S315000007F00D4807F030FB1A210B4807F02CFB1A2195
S31500000800094807F028FB00BF1EA1054807F0C4FDF4
S31500000810154908603AE083E014F0FF1F88130000D2
S3150000082080F2FF1F0CF0FF1F00B006402CF0FF1FE8
S3150000083030F0FF1F34F0FF1F28F0FF1F3CF2FF1FB0
S3150000084040F2FF1FB0F1FF1F7CF0FF1F00F10F40C9
S3150000085060F0FF1F68F0FF1F64F0FF1F08F0FF1F26
S31500000860FCF0FF1FF8F0FF1F44F0FF1F40F0FF1FD2
S315000008703CF0FF1F0A0A00000806002038F0FF1FA0
S3150000088004F0FF1F53454E44204F4B00FCA1FE4889
S3150000089007F082FDFD490860FDA1FB4807F07CFDDD
S315000008A0FD490860FDA1F84807F076FDFD4908609E
S315000008B0F648006800280FD1F748006800280BD1D9
S315000008C008460068002807D1F7480068002803D1C9
S315000008D0F6480068042897DD1A21F54807F0BBFAA8
S315000008E01A21F34807F0B7FA1A21F14807F0B3FACC
S315000008F01A21EF4807F0AFFAEE480068012806D142
S31500000900ED480068ED4908600020EA4908601420B7
S315000009100AF09AF8EA49DC4807F03EFDE249086029
S31500000920E1480068002801D000F087FF1A21E0485E
S3150000093007F091FA0AF068F80A200AF085F81A21F9
S31500000940DB4807F088FA0AF05FF80A200AF07CF81C
S315000009501A21D74807F07FFA0AF056F80A200AF05B
S3150000096073F80A221146D7480BF096FAD6A1D54855
S3150000097006F036F964200AF067F80AF045F86421B3
S31500000980D24807F039FDCF4806F01AF9441C234631
S31500000990CF4AD0A1CD4807F075FB0520B8A3D6A253
S315000009A0D7A10090C948FFF733FD0AF02DF80020C3
S315000009B0D4490860BD490860D34908600BE0C148C6
S315000009C0D14A1268815CBA4807F045FACE480068F9
S315000009D0401CCD490860BB4806F0F2F8CA490968D0
S315000009E08842ECD80A21B24807F035FA0A21B04805
S315000009F007F031FA0A21AE4807F02DFA0A21AC4871
S31500000A0007F029FA0A21AA4807F025FA0A21A84878
S31500000A1007F021FA0A21A64807F01DFA0A21A44880
S31500000A2007F019FA0A21A24807F015FA0A21A04888
S31500000A3007F011FA0A219E4807F00DFA0A219C4890
S31500000A4007F009FA0A219A4807F005FA0A21984898
S31500000A5007F001FA0A21964807F0FDF90A219448A1
S31500000A6007F0F9F90A21924807F0F5F90A219048AA
S31500000A7007F0F1F90A218E4807F0EDF90A218C48B2
S31500000A8007F0E9F90A218A4807F0E5F90A218848BA
S31500000A9007F0E1F90A21864807F0DDF90A218448C2
S31500000AA007F0D9F90A21824807F0D5F90A218048CA
S31500000AB007F0D1F90A217E4807F0CDF90A217C48D2
S31500000AC007F0C9F90A217A4807F0C5F90A217848DA
S31500000AD007F0C1F90A21764807F0BDF90A217448E2
S31500000AE007F0B9F90A21724807F0B5F90A217048EA
S31500000AF007F0B1F90A216E4807F0ADF90A216C48F2
S31500000B0007F0A9F90A216A4807F0A5F90A216848F9
S31500000B1007F0A1F90A21664807F09DF90A21644801
S31500000B2007F099F90A21624807F095F90A21604809
S31500000B3007F091F90A215E4807F08DF90A215C4811
S31500000B4007F089F90A215A4807F085F90A21584819
S31500000B5007F081F90A21564807F07DF90A21544821
S31500000B6007F079F90A21524807F075F90A21504829
S31500000B7007F071F90A214E4807F06DF90A214C4831
S31500000B8007F069F90A214A4807F065F90A21484839
S31500000B9007F061F90A21464807F05DF90A21444841
S31500000BA007F059F90A21424807F055F900BF57A145
S31500000BB0354807F0F1FB002809D131A1324807F08A
S31500000BC0EBFB002803D1394800680528EFDD09F062
S31500000BD01BFF3C4805F0F4FF04462146394807F060
S31500000BE00BFC09F011FF374805F0EAFF04462146E1
S31500000BF0344807F001FC2F480068012809D02F4827
S31500000C0000682D49086004202C4908600120294904
S31500000C10086009F0F9FE09F0EFF92BA1294805F063
S31500000C20DFFF0AF07FF8052015A333A239A1009053
S31500000C3039A00BF0A1FB642009F006FF042010A3E5
S31500000C4039A234A100903DA00BF096FB09F0EAFB17
S31500000C501DA11C4805F0C4FF09F0E4FB1AA11948C0
S31500000C6005F0BEFF09F0DEFB17A1164805F0B8FF38
S31500000C7028A1054807F090FB3449086000A167E009
S31500000C804552524F5200000080F2FF1F48F0FF1FEE
S31500000C904641494C000000004CF0FF1F44454143CB
S31500000CA05400000050F0FF1F44F0FF1F14F0FF1F18
S31500000CB000B0064024F0FF1F20F0FF1FB8F1FF1F11
S31500000CC0840800000806002043480A005B1B002039
S31500000CD0BCF1FF1F0D0A41542B4653575249544548
S31500000CE03D25735C4C4F472E5458542C312C2564AB
S31500000CF02C31300A0A0000004552524F520D0A00AC
S31500000D003E0000000CF0FF1F04F0FF1F4F4B0D0AC2
S31500000D10000000004F4B00000D0A41542B4346557E
S31500000D204E3D300D0D0A0A004E4F5420494E534594
S31500000D30525445440D0A4F4B000000000D0A415421
S31500000D402B4346554E3D310D0A000000B8F0FF1FFB
S31500000D50F64807F021FBF6490860F64800680028C7
S31500000D607ED1084600680028FAD1F34800680128B9
S31500000D7076D0642009F068FE09F046FE6421EF484B
S31500000D8007F03AFBEE4805F01BFF441C2346ED4AEC
S31500000D90ED49EA4807F076F90520EB4B543B1A4635
S31500000DA07832EAA10090E548FFF732FB09F02CFE05
S31500000DB00020E7490860E7490860E74908600BE05A
S31500000DC0DF48E54A1268815CE44807F044F8E248E7
S31500000DD00068401CE0490860D94805F0F1FEDE498C
S31500000DE009688842ECD80A21DC4807F034F80A2161
S31500000DF0DA4807F030F80A21D84807F02CF80A211B
S31500000E00D64807F028F80A21D44807F024F80A2122
S31500000E10D24807F020F80A21D04807F01CF80A212A
S31500000E20CE4807F018F80A21CC4807F014F80A2132
S31500000E30CA4807F010F80A21C84807F00CF80A213A
S31500000E40C64807F008F80A21C44807F004F80A2142
S31500000E50C24807F000F80A21C04806F0FCFF00E08F
S31500000E60D2E00A21BD4806F0F6FF0A21BB4806F08B
S31500000E70F2FF0A21B94806F0EEFF0A21B74806F04C
S31500000E80EAFF0A21B54806F0E6FF0A21B34806F054
S31500000E90E2FF0A21B14806F0DEFF0A21AF4806F05C
S31500000EA0DAFF0A21AD4806F0D6FF0A21AB4806F064
S31500000EB0D2FF0A21A94806F0CEFF0A21A74806F06C
S31500000EC0CAFF0A21A54806F0C6FF0A21A34806F074
S31500000ED0C2FF0A21A14806F0BEFF0A219F4806F07C
S31500000EE0BAFF0A219D4806F0B6FF0A219B4806F084
S31500000EF0B2FF0A21994806F0AEFF0A21974806F08C
S31500000F00AAFF0A21954806F0A6FF0A21934806F093
S31500000F10A2FF0A21914806F09EFF0A218F4806F09B
S31500000F209AFF0A218D4806F096FF0A218B4806F0A3
S31500000F3092FF0A21894806F08EFF0A21874806F0AB
S31500000F408AFF0A21854806F086FF0A21834806F0B3
S31500000F5082FF0A21814806F07EFF0A217F4806F0BB
S31500000F607AFF0A217D4806F076FF0A217B4806F0C3
S31500000F7072FF0A21794806F06EFF0A21774806F0CB
S31500000F806AFF0A21754806F066FF0A21734806F0D3
S31500000F9062FF0A21714806F05EFF0A216F4806F0DB
S31500000FA05AFF0A216D4806F056FF0A216B4806F0E3
S31500000FB052FF00BF644938315C4807F0EDF900285C
S31500000FC00AD161495439594807F0E6F9002803D196
S31500000FD0604800680528EDDD09F016FD584805F063
S31500000FE0EFFD04462146564807F006FA09F00CFDC7
S31500000FF020205B498860642009F026FD202058499E
S315000010004860642009F020FD042056A34E4A24328D
S3150000101056A1009056A00BF0AFF909F003FA4A4921
S315000010200C39474805F0DCFD6421444807F0E4F933
S31500001030534A54A1414807F025F85748006849A388
S31500001040414A243249A100903C480BF095F909F039
S3150000105069FE04203C4B383B1A465C3243A10090A3
S315000010604EA00BF089F909F0DDF937490C393448FF
S3150000107005F0B6FD09F0D6F933490C39304805F0CC
S31500001080AFFD09F04FFE09F0CDF92F490C392C4878
S3150000109005F0A6FD09F0B8FC44A00DF049FB09F0E7
S315000010A0B3FC142009F0D0FC09F03CFE434B444A43
S315000010B044A1224806F0E6FF3748006829A3224AE1
S315000010C0543A48A100901D480BF056F909F09CFCD3
S315000010D03148006845A31C4A543A1CA1009047A019
S315000010E00BF04AF909F090FC3E211048FFF7FAF997
S315000010F04649087008460078002816D009F084FC96
S3150000110043490A4807F078F927A10D4805F068FD1C
S315000011100B4805F055FD3F49086000200D49086061
S315000011200B4908600C49086082E024E280F2FF1F48
S3150000113000F0FF1FB8F0FF1FB0F1FF1F5B1B002080
S3150000114008060020BCF1FF1FD40C00003E00000082
S315000011500CF0FF1F14F0FF1F04F0FF1F00B0064045
S3150000116080F00F404552524F523A00004F4B00005C
S315000011700D0A41542B434950534855540D0A00005B
S31500001180C1F1FF1F0D0A41542B435354543D2225F0
S3150000119073220D0A00000000B4F1FF1F0D0A41542E
S315000011A02B43494943520D0D0A0000000A41542BB6
S315000011B043494653520D0D0A00000000511B002002
S315000011C0ED1A00200D0A41542B4349505354415205
S315000011D0543D22544350222C222573222C2225735F
S315000011E0220D0A00434F4E4E45435400434F4E4E88
S315000011F0454354204641494C000000000D0A415425
S315000012002B43495053454E440D0A00003CF0FF1F46
S315000012108813000038F0FF1FFD48FE4A1268815C03
S31500001220FD4806F018FEFB480068401CF9490860B6
S31500001230F8480068F94909688842EDDB0A21F64852
S3150000124006F009FE1A21F44806F005FE1A21F248B6
S3150000125006F001FE1A21F04806F0FDFD00BFF04938
S31500001260F04807F099F8F0490860F049ED4807F0B2
S3150000127093F8EF490860EF49EA4807F08DF8EE4920
S315000012800860EA491C31E74807F086F8EB49086030
S31500001290E748006800280FD1E748006800280BD10E
S315000012A008460068002807D1DF480068002803D1F7
S315000012B0E34800680428D2DD1A21D74806F0CBFDA2
S315000012C01A21D54806F0C7FD1A21D34806F0C3FDFA
S315000012D01A21D14806F0BFFD142009F0B5FBD0490C
S315000012E0D04807F059F8D749086008460068002832
S315000012F07ED1642009F0A8FB09F086FB6421D24860
S3150000130007F07AF8C24805F05BFC441C2346CF4A36
S31500001310C6495431CC4806F0B5FE0520C34B1A46E3
S315000013207832CBA10090C848FFF772F809F06CFB41
S315000013300020C8490860C2490860B64908600BE049
S31500001340B348B44A1268815CB34806F084FDB148DC
S315000013500068401CAF490860AD4805F031FCAD4956
S3150000136009688842ECD80A21AB4806F074FD0A21C8
S31500001370A94806F070FD0A21A74806F06CFD0A216F
S31500001380A54806F068FD0A21A34806F064FD0A2177
S31500001390A14806F060FD0A219F4806F05CFD0A217F
S315000013A09D4806F058FD0A219B4806F054FD0A2187
S315000013B0994806F050FD0A21974806F04CFD0A218F
S315000013C0954806F048FD0A21934806F044FD0A2197
S315000013D0914806F040FD0A218F4806F03CFD0A219F
S315000013E08D4806F038FD0A218B4806F034FD00E0F2
S315000013F0BEE00A21884806F02EFD0A21864806F03E
S315000014002AFD0A21844806F026FD0A21824806F0B4
S3150000141022FD0A21804806F01EFD0A217E4806F0BC
S315000014201AFD0A217C4806F016FD0A217A4806F0C4
S3150000143012FD0A21784806F00EFD0A21764806F0CC
S315000014400AFD0A21744806F006FD0A21724806F0D4
S3150000145002FD0A21704806F0FEFC0A216E4806F0DD
S31500001460FAFC0A216C4806F0F6FC0A216A4806F0E6
S31500001470F2FC0A21684806F0EEFC0A21664806F0EE
S31500001480EAFC0A21644806F0E6FC0A21624806F0F6
S31500001490E2FC0A21604806F0DEFC0A215E4806F0FE
S315000014A0DAFC0A215C4806F0D6FC0A215A4806F006
S315000014B0D2FC0A21584806F0CEFC0A21564806F00E
S315000014C0CAFC0A21544806F0C6FC0A21524806F016
S315000014D0C2FC0A21504806F0BEFC0A214E4806F01E
S315000014E0BAFC0A214C4806F0B6FC0A214A4806F026
S315000014F0B2FC0A21484806F0AEFC0A21464806F02E
S31500001500AAFC0A21444806F0A6FC0A21424806F035
S31500001510A2FC0A21404806F09EFC0A213E4806F03D
S315000015209AFC0A213C4806F096FC0A213A4806F045
S3150000153092FC00BF3D498C313A4806F02DFF002849
S3150000154009D13A49374806F027FF002803D13C481D
S3150000155000680528EEDD09F057FA2D4805F030FB46
S31500001560044621462A4806F047FF09F04DFA66E18F
S315000015700AF0F0FF63E1642009F066FA09F044FA24
S315000015806421314806F038FF214805F019FB441C58
S3150000159023462E4A254954312B4806F073FD052073
S315000015A0224B1A4678322AA100902748FEF730FFD0
S315000015B009F02AFA002027490860214908601549E0
S315000015C008600BE01248134A1268815C124806F064
S315000015D042FC10480068401C0E4908600C4805F0A3
S315000015E0EFFA0C4909688842ECD80A210A4806F045
S315000015F032FC0A21084806F02EFC0A21064806F0AD
S315000016002AFC0A21044806F026FC0A21024823E0A7
S315000016100806002004F0FF1F00B0064038F0FF1F48
S315000016208408000080F2FF1F44F0FF1F800C0000BA
S3150000163048F0FF1FF41100004CF0FF1F50F0FF1F91
S3150000164014F0FF1F40F0FF1F5B1B0020BCF1FF1FC3
S315000016503E0000000CF0FF1F06F0FDFB0A21FE48CD
S3150000166006F0F9FB0A21FC4806F0F5FB0A21FA48C8
S3150000167006F0F1FB0A21F84806F0EDFB0A21F648D0
S3150000168006F0E9FB0A21F44806F0E5FB0A21F248D8
S3150000169006F0E1FB0A21F04806F0DDFB0A21EE48E0
S315000016A006F0D9FB0A21EC4806F0D5FB0A21EA48E8
S315000016B006F0D1FB0A21E84806F0CDFB0A21E648F0
S315000016C006F0C9FB0A21E44806F0C5FB0A21E248F8
S315000016D006F0C1FB0A21E04806F0BDFB0A21DE4800
S315000016E006F0B9FB0A21DC4806F0B5FB0A21DA4808
S315000016F006F0B1FB0A21D84806F0ADFB0A21D64810
S3150000170006F0A9FB0A21D44806F0A5FB0A21D24817
S3150000171006F0A1FB0A21D04806F09DFB0A21CE481F
S3150000172006F099FB0A21CC4806F095FB0A21CA4827
S3150000173006F091FB0A21C84806F08DFB0A21C6482F
S3150000174006F089FB0A21C44806F085FB0A21C24837
S3150000175006F081FB0A21C04806F07DFB0A21BE483F
S3150000176006F079FB0A21BC4806F075FB0A21BA4847
S3150000177006F071FB0A21B84806F06DFB0A21B6484F
S3150000178006F069FB0A21B44806F065FB0A21B24857
S3150000179006F061FB0A21B04806F05DFB0A21AE485F
S315000017A006F059FB0A21AC4806F055FB0A21AA4867
S315000017B006F051FB0A21A84806F04DFB0A21A6486F
S315000017C006F049FB0A21A44806F045FB0A21A24877
S315000017D006F041FB0A21A04806F03DFB0A219E487F
S315000017E006F039FB0A219C4806F035FB0A219A4887
S315000017F006F031FB0A21984806F02DFB00BF9749F9
S31500001800974806F0C9FD00280AD194498C399448B6
S3150000181006F0C2FD002803D1924800680528EEDDD7
S3150000182009F0F2F8904805F0CBF9044621468E48B7
S3150000183006F0E2FD09F0E8F801E00AF08BFE8A48BE
S3150000184005F0BEF904462146874806F0D5FD1A2163
S31500001850814806F000FB38BD38B58448006805F0BD
S31500001860AFF9044621468148006806F0C5FD804868
S31500001870006805F0A5F9044621467D48006806F093
S31500001880BBFD3E217648FEF72DFE7A4908700846D4
S31500001890007800287ED009F0B7F87749704806F03E
S315000018A0ABFD76A1704805F09BF96F4805F088F905
S315000018B07349086000206B490860724908607249E4
S315000018C008600BE06848704A1268815C624806F05E
S315000018D0C2FA6D480068401C6B4908606A48006897
S315000018E0674909688842EDDB1A215B4806F0B3FABE
S315000018F01A21594806F0AFFA00BF6449584806F065
S315000019004BFD5A49086055498C39554806F044FD47
S315000019105F4908605F49524806F03EFD5E4908602F
S315000019204E4970394E4806F037FD5C490860584804
S31500001930006800280FD15848006800280BD10846D7
S315000019400068002807D149480068002803D14548A7
S3150000195000680528D1DD1A213F4806F07CFA1A21D5
S315000019603D4806F078FA1A213B4806F074FA1A2127
S31500001970394806F070FA4A480068012806D14948F5
S31500001980006849490860002045490860142009F0AC
S315000019905BF800E005E03D49314806F0FDFC3349BF
S315000019A0086032480068002801D000F02DFF1A2197
S315000019B0294806F050FA09F027F80A2009F044F8F9
S315000019C01A21254806F047FA09F01EF80A2009F000
S315000019D03BF81A21204806F03EFA09F015F80A20CD
S315000019E009F032F8642009F02FF809F00DF86421A7
S315000019F02E4806F001FD1C4805F0E2F8441C23467B
S31500001A002B4A16493839294806F03CFB0520134B6A
S31500001A108C3B1A46783227A100902448FEF7F8FC42
S31500001A2008F0F2FF0020174908600E4908601649C1
S31500001A3008600BE00C48144A1268815C064806F000
S31500001A400AFA11480068401C0F490860064805F06C
S31500001A50B7F80D4909682FE000B006400C0D0000EC
S31500001A6080F2FF1F14F0FF1F0806002044F0FF1F3E
S31500001A7040F0FF1F3CF0FF1F881300000A0A000019
S31500001A8038F0FF1F0CF0FF1F04F0FF1F8408000052
S31500001A9048F0FF1FF41100004CF0FF1F50F0FF1F2D
S31500001AA024F0FF1F20F0FF1FB8F1FF1F5B1B002073
S31500001AB0BCF1FF1F3E0000008842BBD80A21FE4849
S31500001AC006F0C9F90A21FC4806F0C5F90A21FA48C8
S31500001AD006F0C1F90A21F84806F0BDF90A21F648D0
S31500001AE006F0B9F90A21F44806F0B5F90A21F248D8
S31500001AF006F0B1F90A21F04806F0ADF90A21EE48E0
S31500001B0006F0A9F90A21EC4806F0A5F90A21EA48E7
S31500001B1006F0A1F90A21E84806F09DF90A21E648EF
S31500001B2006F099F90A21E44806F095F90A21E248F7
S31500001B3006F091F90A21E04806F08DF90A21DE48FF
S31500001B4006F089F90A21DC4806F085F90A21DA4807
S31500001B5006F081F90A21D84806F07DF90A21D6480F
S31500001B6006F079F90A21D44806F075F90A21D24817
S31500001B7006F071F90A21D04806F06DF90A21CE481F
S31500001B8006F069F90A21CC4806F065F90A21CA4827
S31500001B9006F061F90A21C84806F05DF90A21C6482F
S31500001BA006F059F90A21C44806F055F90A21C24837
S31500001BB006F051F90A21C04806F04DF90A21BE483F
S31500001BC006F049F90A21BC4806F045F90A21BA4847
S31500001BD006F041F90A21B84806F03DF90A21B6484F
S31500001BE006F039F90A21B44806F035F90A21B24857
S31500001BF006F031F90A21B04806F02DF90A21AE485F
S31500001C0006F029F90A21AC4806F025F90A21AA4866
S31500001C1006F021F90A21A84806F01DF90A21A6486E
S31500001C2006F019F90A21A44806F015F90A21A24876
S31500001C3006F011F90A21A04806F00DF90A219E487E
S31500001C4006F009F90A219C4806F005F90A219A4886
S31500001C5006F001F90A21984806F0FDF80A2196488F
S31500001C6006F0F9F80A21944806F0F5F80A21924898
S31500001C7006F0F1F80A21904806F0EDF80A218E48A0
S31500001C8006F0E9F800BF8D498D4806F085FB00286F
S31500001C900AD18A498C398A4806F07EFB002803D18E
S31500001CA0884800680528EEDD08F0AEFE864804F098
S31500001CB087FF04462146844806F09EFB08F0A4FEF2
S31500001CC0814804F07DFF044621467F4806F094FBD8
S31500001CD07E480068012809D07D4800687D49086073
S31500001CE004207B49086001207849086008F08CFED2
S31500001CF008F082F971494439734804F071FF09F01C
S31500001D0011F805206D4B8C3B1A46783272A1009073
S31500001D10104620300AF030FB642008F095FE0420BF
S31500001D20664B8C3B1A46A8326BA1009010461430C5
S31500001D300AF022FB08F076FB60494439624804F059
S31500001D404FFF08F06FFB5D4944395F4804F048FFD8
S31500001D5008F068FB594944395B4804F041FF5EA12D
S31500001D60574806F019FB5D49086054498C395448B8
S31500001D7006F012FB5A4908605848006800287DD1D1
S31500001D80084600680028FAD156480068012875D030
S31500001D90642008F059FE08F037FE6421524806F028
S31500001DA02BFB494804F00CFF441C23464F4A434989
S31500001DB038394D4806F066F90520404B8C3B1A46EB
S31500001DC078324BA100904848FEF722FB08F01CFE33
S31500001DD00020484908603B490860474908600BE015
S31500001DE03948454A1268815C334806F034F842485F
S31500001DF00068401C40490860334804F0E1FE3E4953
S31500001E0009688842ECD80A212B4806F024F80A21F2
S31500001E10294806F020F80A21274806F01CF80A216E
S31500001E20254806F018F80A21234806F014F80A2176
S31500001E30214806F010F80A211F4806F00CF80A217E
S31500001E401D4806F008F80A211B4806F004F80A2186
S31500001E50194806F000F80A21174805F0FCFF0A2188
S31500001E60154805F0F8FF0A21134805F0F4FF0A218A
S31500001E70114805F0F0FF0A210F4800E0F6E005F0F2
S31500001E80EAFF0A210C4805F0E6FF0A210A4805F098
S31500001E90E2FF0A21084805F0DEFF0A21064805F0A0
S31500001EA0DAFF0A21044805F0D6FF0A21024805F0A8
S31500001EB0D2FF0A21004821E000B006400C0D0000C8
S31500001EC080F2FF1F14F0FF1F0806002024F0FF1FFA
S31500001ED0B8F1FF1F20F0FF1F4F4B0000B8F0FF1FA7
S31500001EE000F0FF1FB0F1FF1F5B1B0020BCF1FF1FBE
S31500001EF03E0000000CF0FF1F04F0FF1F05F0ABFFD3
S31500001F000A21FE4805F0A7FF0A21FC4805F0A3FFB9
S31500001F100A21FA4805F09FFF0A21F84805F09BFFC1
S31500001F200A21F64805F097FF0A21F44805F093FFC9
S31500001F300A21F24805F08FFF0A21F04805F08BFFD1
S31500001F400A21EE4805F087FF0A21EC4805F083FFD9
S31500001F500A21EA4805F07FFF0A21E84805F07BFFE1
S31500001F600A21E64805F077FF0A21E44805F073FFE9
S31500001F700A21E24805F06FFF0A21E04805F06BFFF1
S31500001F800A21DE4805F067FF0A21DC4805F063FFF9
S31500001F900A21DA4805F05FFF0A21D84805F05BFF01
S31500001FA00A21D64805F057FF0A21D44805F053FF09
S31500001FB00A21D24805F04FFF0A21D04805F04BFF11
S31500001FC00A21CE4805F047FF0A21CC4805F043FF19
S31500001FD00A21CA4805F03FFF0A21C84805F03BFF21
S31500001FE00A21C64805F037FF0A21C44805F033FF29
S31500001FF00A21C24805F02FFF0A21C04805F02BFF31
S315000020000A21BE4805F027FF0A21BC4805F023FF38
S315000020100A21BA4805F01FFF00BFB949B94806F0C2
S31500002020BBF900280AD1B6498C39B64806F0B4F98E
S31500002030002803D1B44800680528EEDD08F0E4FC6A
S31500002040B24804F0BDFD04462146B04806F0D4F976
S3150000205008F0DAFC2020AE498860642008F0F4FC21
S315000020602020AB494860642008F0EEFC0420A94B10
S31500002070A34A143AA8A1009018460C300AF07CF93D
S3150000208008F0D0F99E494439A04804F0A9FD64211E
S31500002090A24806F0B1F9A24A9E4920319F4805F0B0
S315000020A0F1FFA04800689B4B954A143A9AA100900C
S315000020B09A480AF061F908F035FE0420904B703B0F
S315000020C01A465C3294A10090924838300AF054F9CE
S315000020D008F0A8F98A4944398C4804F081FD08F0D3
S315000020E0A1F987494439894804F07AFD08F01AFEB7
S315000020F008F098F982494439844804F071FD08F0E3
S3150000210083FC844848300CF013FB08F07DFC142057
S3150000211008F09AFC08F006FE834B844A7D4960313C
S315000021207E4805F0AFFF7F4800687A4B744A8C3AC8
S3150000213019468031009079480AF01EF908F064FCCF
S3150000214078480068734B88336D4A8C3A78A10090C2
S31500002150184610300AF010F908F056FC3E2169487E
S31500002160FEF7C0F9734908700846007800287DD04C
S3150000217008F04AFC7049634806F03EF96FA16348CF
S3150000218004F02EFD614804F01BFD6D490860002037
S315000021905D4908606B4908606B4908600BE05B4865
S315000021A0694A1268815C554805F055FE6648006824
S315000021B0401C6549086064480068614909688842AE
S315000021C0EDDB1A214D4805F046FE1A214B4805F075
S315000021D042FE00BF5D494B4806F0DEF85C490860E8
S315000021E047498C39474806F0D7F85A4908604949A3
S315000021F09031444806F0D0F8574908604049703994
S31500002200404806F0C9F85549086052480068002859
S315000022100FD15148006800280BD1084600680028F5
S3150000222007D14B480068002803D1374800680528C5
S31500002230D0DD1A21314805F00EFE1A212F4805F08F
S315000022400AFE1A212D4805F006FE1A212B4805F034
S3150000225002FE142008F0F8FB3C492A4806F09CF8D8
S315000022603F49086008460068002800E079E17BD114
S31500002270642008F0E9FB08F0C7FB6421274806F054
S31500002280BBF8224804F09CFC441C2346354A1C49F2
S315000022903839224805F0F6FE0520194B8C3B1A46C4
S315000022A0783223A100901D48FEF7B2F808F0ACFB87
S315000022B000202449086014490860234908600BE09F
S315000022C01248214A1268815C0C4805F0C4FD1E487C
S315000022D00068401C1C4908600C4804F071FC1A494F
S315000022E009688842ECD80A21044805F0B4FD0A21A1
S315000022F0024805F0B0FD0A21004836E000B006406D
S315000023000C0D000080F2FF1F14F0FF1F08060020CE
S3150000231080F00F40641100004F4B00005B1B002053
S31500002320C1F1FF1FB4F1FF1F511B0020ED1A002061
S315000023303E0000003CF0FF1F881300000A0000006A
S3150000234038F0FF1F0CF0FF1F04F0FF1F8408000089
S3150000235044F0FF1F48F0FF1F4CF0FF1F50F0FF1F17
S3150000236040F0FF1FBCF1FF1FF8E005F074FD0A21E5
S31500002370FE4805F070FD0A21FC4805F06CFD0A21B7
S31500002380FA4805F068FD0A21F84805F064FD0A21BF
S31500002390F64805F060FD0A21F44805F05CFD0A21C7
S315000023A0F24805F058FD0A21F04805F054FD0A21CF
S315000023B0EE4805F050FD0A21EC4805F04CFD0A21D7
S315000023C0EA4805F048FD0A21E84805F044FD0A21DF
S315000023D0E64805F040FD0A21E44805F03CFD0A21E7
S315000023E0E24805F038FD0A21E04805F034FD0A21EF
S315000023F0DE4805F030FD0A21DC4805F02CFD0A21F7
S31500002400DA4805F028FD0A21D84805F024FD0A21FE
S31500002410D64805F020FD0A21D44805F01CFD0A2106
S31500002420D24805F018FD0A21D04805F014FD0A210E
S31500002430CE4805F010FD0A21CC4805F00CFD0A2116
S31500002440CA4805F008FD0A21C84805F004FD0A211E
S31500002450C64805F000FD0A21C44805F0FCFC0A2127
S31500002460C24805F0F8FC0A21C04805F0F4FC0A2130
S31500002470BE4805F0F0FC0A21BC4805F0ECFC0A2138
S31500002480BA4805F0E8FC0A21B84805F0E4FC0A2140
S31500002490B64805F0E0FC0A21B44805F0DCFC0A2148
S315000024A0B24805F0D8FC0A21B04805F0D4FC0A2150
S315000024B0AE4805F0D0FC0A21AC4805F0CCFC0A2158
S315000024C0AA4805F0C8FC0A21A84805F0C4FC0A2160
S315000024D0A64805F0C0FC0A21A44805F0BCFC0A2168
S315000024E0A24805F0B8FC0A21A04805F0B4FC0A2170
S315000024F09E4805F0B0FC0A219C4805F0ACFC0A2178
S315000025009A4805F0A8FC0A21984805F0A4FC0A217F
S31500002510964805F0A0FC0A21944805F09CFC00BFF3
S315000025209349944805F038FF00280AD190498C3920
S31500002530904805F031FF002803D18F480068052830
S31500002540EEDD08F061FA8D4804F03AFB04462146B8
S315000025508A4805F051FF08F057FA57E109F0FAFFEB
S3150000256054E1642008F070FA08F04EFA64218448B9
S3150000257005F042FF814804F023FB441C2346814AB0
S315000025807B4938397E4805F07DFD0520784B8C3B2C
S315000025901A4678327CA100907948FDF739FF08F099
S315000025A033FA002079490860734908607849086061
S315000025B00BE07248764A1268815C6C4805F04BFC69
S315000025C073480068401C724908606C4804F0F8FAC9
S315000025D06F4909688842ECD80A21644805F03BFC3B
S315000025E00A21624805F037FC0A21604805F033FCF1
S315000025F00A215E4805F02FFC0A215C4805F02BFCF9
S315000026000A215A4805F027FC0A21584805F023FC00
S315000026100A21564805F01FFC0A21544805F01BFC08
S315000026200A21524805F017FC0A21504805F013FC10
S315000026300A214E4805F00FFC0A214C4805F00BFC18
S315000026400A214A4805F007FC0A21484805F003FC20
S315000026500A21464805F0FFFB0A21444805F0FBFB2A
S315000026600A21424805F0F7FB0A21404805F0F3FB32
S315000026700A213E4805F0EFFB0A213C4805F0EBFB3A
S315000026800A213A4805F0E7FB0A21384805F0E3FB42
S315000026900A21364805F0DFFB0A21344805F0DBFB4A
S315000026A00A21324805F0D7FB0A21304805F0D3FB52
S315000026B00A212E4805F0CFFB0A212C4805F0CBFB5A
S315000026C00A212A4805F0C7FB0A21284805F0C3FB62
S315000026D00A21264805F0BFFB0A21244805F0BBFB6A
S315000026E00A21224805F0B7FB0A21204805F0B3FB72
S315000026F00A211E4805F0AFFB0A211C4805F0ABFB7A
S315000027000A211A4805F0A7FB0A21184805F0A3FB81
S315000027100A21164805F09FFB0A21144805F09BFB89
S315000027200A21124805F097FB0A21104805F093FB91
S315000027300A210E4805F08FFB0A210C4805F08BFB99
S315000027400A210A4805F087FB0A21084805F083FBA1
S315000027500A21064805F07FFB0A21044805F07BFBA9
S315000027600A21024805F077FB0A2113E000B0064073
S315000027700C0D000080F2FF1F14F0FF1F080600205A
S315000027805B1B0020BCF1FF1F3E0000000CF0FF1F8A
S3150000279004F0FF1FFE4805F05EFB0A21FC4805F029
S315000027A05AFB0A21FA4805F056FB0A21F84805F0BB
S315000027B052FB0A21F64805F04EFB0A21F44805F0C3
S315000027C04AFB0A21F24805F046FB00BFF149F248F0
S315000027D005F0E2FD00280AD1EE498C39EE4805F0F5
S315000027E0DBFD002803D1ED4800680528EEDD08F082
S315000027F00BF9EB4804F0E4F904462146E84805F0F5
S31500002800FBFD08F001F901E009F0A4FEE44804F03C
S31500002810D7F904462146E24805F0EEFD1A21DC48C8
S3150000282005F019FB38BD38B5DE48006804F0C8F974
S3150000283004462146DB48006805F0DEFDDA480068FC
S3150000284004F0BEF904462146D748006805F0D4FDD9
S315000028503E21D148FDF746FED44908700846007867
S3150000286000287CD008F0D0F8D149CB4805F0C4FD4B
S31500002870D0A1CB4804F0B4F9C94804F0A1F9CE4977
S3150000288008600020C5490860CC490860CC4908604A
S315000028900BE0C348CA4A1268815CBD4805F0DBFA02
S315000028A0C7480068401CC6490860C5480068C24958
S315000028B009688842EDDB1A21B54805F0CCFA00BF5D
S315000028C0C049B54805F068FDB6490860B1498C397C
S315000028D0B14805F061FDBC490860BC49AE4805F049
S315000028E05BFDBB490860AB497039AB4805F054FD48
S315000028F0B8490860B448006800280FD1B448006899
S3150000290000280BD108460068002807D1A5480068B2
S31500002910002803D1A14800680428D1DD1A219C486B
S3150000292005F099FA1A219A4805F095FA1A2198485D
S3150000293005F091FA1A21964805F08DFAA648006826
S31500002940012806D1A5480068A54908600020A249CB
S315000029500860322008F078F89A498F4800E003E0D2
S3150000296005F01AFD8F4908608E480068002801D0DE
S3150000297000F035FF1A21864805F06DFA08F044F894
S315000029800A2008F061F81A21814805F064FA08F077
S315000029903BF80A2008F058F81A217D4805F05BFA42
S315000029A008F032F80A2008F04FF8642008F04CF8D6
S315000029B008F02AF864218B4805F01EFD784804F0DB
S315000029C0FFF8441C2346884A72493839854805F081
S315000029D059FB05206F4B8C3B1A46783283A1009039
S315000029E08048FDF715FD08F00FF8002073490860D0
S315000029F06A490860724908600BE06948704A1268C3
S31500002A00815C634805F027FA6D480068401C6C49F4
S31500002A100860634804F0D4F8694909688842ECD82C
S31500002A200A215B4805F017FA0A21594805F013FAFE
S31500002A300A21574805F00FFA0A21554805F00BFA06
S31500002A400A21534805F007FA0A21514805F003FA0E
S31500002A500A214F4805F0FFF90A214D4805F0FBF918
S31500002A600A214B4805F0F7F90A21494805F0F3F920
S31500002A700A21474805F0EFF90A21454805F0EBF928
S31500002A800A21434805F0E7F90A21414805F0E3F930
S31500002A900A213F4805F0DFF90A213D4805F0DBF938
S31500002AA00A213B4805F0D7F90A21394805F0D3F940
S31500002AB00A21374805F0CFF90A21354805F0CBF948
S31500002AC00A21334805F0C7F90A21314805F0C3F950
S31500002AD00A212F4805F0BFF90A212D4805F0BBF958
S31500002AE00A212B4805F0B7F90A21294805F0B3F960
S31500002AF00A21274805F0AFF90A21254805F0ABF968
S31500002B000A21234805F0A7F90A21214805F0A3F96F
S31500002B100A211F4805F09FF90A211D4805F09BF977
S31500002B200A211B4805F097F90A21194805F093F97F
S31500002B300A21174805F08FF90A21154805F08BF987
S31500002B400A21134805F087F90A21114805F083F98F
S31500002B500A210F4805F07FF90A210D4805F07BF997
S31500002B600A210B4805F077F90A21094805F073F99F
S31500002B700A21074805F06FF90A21054805F06BF9A7
S31500002B800A21034805F067F90A21014830E00000F0
S31500002B9000B006400C0D000080F2FF1F14F0FF1F6E
S31500002BA00806002044F0FF1F40F0FF1F3CF0FF1F07
S31500002BB0881300000A00000038F0FF1F0CF0FF1F0A
S31500002BC004F0FF1F8408000048F0FF1FF411000006
S31500002BD04CF0FF1F50F0FF1F24F0FF1F20F0FF1FD7
S31500002BE0B8F1FF1F5B1B0020BCF1FF1F3E00000079
S31500002BF005F031F90A21FE4805F02DF90A21FC48B5
S31500002C0005F029F90A21FA4805F025F90A21F848BC
S31500002C1005F021F90A21F64805F01DF90A21F448C4
S31500002C2005F019F90A21F24805F015F90A21F048CC
S31500002C3005F011F90A21EE4805F00DF90A21EC48D4
S31500002C4005F009F90A21EA4805F005F900BFE94946
S31500002C50E94805F0A1FB00280AD1E6498C39E64887
S31500002C6005F09AFB002803D1E44800680528EEDD4C
S31500002C7007F0CAFEE24803F0A3FF04462146E048F7
S31500002C8005F0BAFB07F0C0FEDD4803F099FF0446E5
S31500002C902146DB4805F0B0FB07F0AEF9D5494439CB
S31500002CA0D74803F09DFFD7480068012809D0D648C9
S31500002CB00068D64908600420D34908600120D1493C
S31500002CC0086007F0A1FE08F02DF80520C94B8C3BE3
S31500002CD01A467832CEA100901046203009F04CFBFF
S31500002CE0642007F0B1FE0420C24B8C3B1A46A83282
S31500002CF0C7A100901046143009F03EFB07F092FB86
S31500002D00BC494439BE4803F06BFF07F08BFBB94959
S31500002D104439BB4803F064FF07F084FBB5494439E6
S31500002D20B74803F05DFFBAA1B34805F035FBB949D2
S31500002D300860B0498C39B04805F02EFBB6490860EA
S31500002D40B448006800287DD1084600680028FAD1FA
S31500002D50B2480068012875D0642007F075FE07F0B8
S31500002D6053FE6421AE4805F047FBA54803F028FF53
S31500002D70441C2346AB4A9F493839A94805F082F9D5
S31500002D8005209C4B8C3B1A467832A7A10090A4489C
S31500002D90FDF73EFB07F038FE0020A449086097497E
S31500002DA00860A34908600BE09548A14A1268815C57
S31500002DB08F4805F050F89E480068401C9C49086002
S31500002DC08F4803F0FDFE9A4909688842ECD80A212B
S31500002DD0874805F040F80A21854805F03CF80A21A5
S31500002DE0834805F038F80A21814805F034F80A21AD
S31500002DF07F4805F030F80A217D4805F02CF80A21B5
S31500002E007B4805F028F80A21794805F024F80A21BC
S31500002E10774805F020F80A21754805F01CF80A21C4
S31500002E20734805F018F80A21714805F014F80A21CC
S31500002E306F4805F010F80A216D4805F00CF80A21D4
S31500002E406B4800E0D3E005F006F80A21684805F073
S31500002E5002F80A21664804F0FEFF0A21644804F0DD
S31500002E60FAFF0A21624804F0F6FF0A21604804F0DE
S31500002E70F2FF0A215E4804F0EEFF0A215C4804F0E6
S31500002E80EAFF0A215A4804F0E6FF0A21584804F0EE
S31500002E90E2FF0A21564804F0DEFF0A21544804F0F6
S31500002EA0DAFF0A21524804F0D6FF0A21504804F0FE
S31500002EB0D2FF0A214E4804F0CEFF0A214C4804F006
S31500002EC0CAFF0A214A4804F0C6FF0A21484804F00E
S31500002ED0C2FF0A21464804F0BEFF0A21444804F016
S31500002EE0BAFF0A21424804F0B6FF0A21404804F01E
S31500002EF0B2FF0A213E4804F0AEFF0A213C4804F026
S31500002F00AAFF0A213A4804F0A6FF0A21384804F02D
S31500002F10A2FF0A21364804F09EFF0A21344804F035
S31500002F209AFF0A21324804F096FF0A21304804F03D
S31500002F3092FF0A212E4804F08EFF0A212C4804F045
S31500002F408AFF0A212A4804F086FF0A21284804F04D
S31500002F5082FF0A21264804F07EFF0A21244804F055
S31500002F607AFF0A21224804F076FF0A21204804F05D
S31500002F7072FF0A211E4804F06EFF0A211C4804F065
S31500002F806AFF0A211A4804F066FF0A21184804F06D
S31500002F9062FF0A21164804F05EFF00BF1549164875
S31500002FA005F0FAF900280AD112498C39124805F0C1
S31500002FB0F3F9002803D1114800680528EEDD07F073
S31500002FC023FD0F4803F0FCFD044621460C4805F09E
S31500002FD013FA07F019FD202016498860642007F0CF
S31500002FE033FD202013494860642007F02DFD23E0BF
S31500002FF000B006400C0D000080F2FF1F14F0FF1F0A
S315000030000806002024F0FF1FB8F1FF1F20F0FF1F65
S315000030104F4B0000B8F0FF1F00F0FF1FB0F1FF1F7D
S315000030205B1B0020BCF1FF1F3E0000000CF0FF1FE1
S3150000303004F0FF1F80F00F400420FD4BFD4AFEA167
S31500003040009018460C3009F097F907F0EBF9F949AA
S315000030503039FA4803F0C4FD6421F94805F0CCF98B
S31500003060F84AF3492031F64805F00CF8F6480068AE
S31500003070EF4BF04AF0A10090F14809F07DF907F016
S3150000308051FE0420EB4B5C3BEA4AEBA10090E8487A
S31500003090383009F071F907F0C5F9E6493039E748E3
S315000030A003F09EFD07F0BEF9E2493039E34803F02C
S315000030B097FD07F037FE07F0B5F9DE493039DF48EE
S315000030C003F08EFD07F0A0FCD94848300BF030FB2A
S315000030D007F09AFC142007F0B7FC07F023FEDB4B41
S315000030E0DB4AD3496031D64804F0CCFFD6480068A5
S315000030F0CF4BD04A783A194680310090D04809F033
S315000031003BF907F081FCD0480068C94B8833C94AAF
S31500003110783AD0A100901846103009F02DF907F042
S3150000312073FC3E21CC48FDF7DDF9CC490870084612
S31500003130007800287ED007F067FCC949C64805F02C
S315000031405BF9C8A1BD4803F04BFDBC4803F038FD50
S31500003150C54908600020C5490860C5490860C549D9
S3150000316008600BE0B548C34A1268815CC24804F0A7
S3150000317072FEC0480068401CBE490860BD48006831
S31500003180B94909688842EDDB1A21BB4804F063FEA1
S3150000319000BFBA49B04805F0FFF8B9490860A5492B
S315000031A07839AD4805F0F8F8B6490860A04990317D
S315000031B0A94805F0F1F8B44908609E495C39A6486B
S315000031C005F0EAF8B1490860AE48006800280FD15A
S315000031D0AD48006800280BD108460068002807D1D2
S315000031E0A7480068002803D1A04800680428D0DD5D
S315000031F00A2007F029FC07F007FC1A219E4804F074
S315000032002AFE0A2007F020FC1A219B4804F023FE20
S315000032101A21994804F01FFE1A21974804F01BFE54
S315000032201A21954804F017FE07F0EEFB0A2007F076
S315000032300BFC00E095E11A218F4804F00CFE07F024
S31500003240E3FB0A2007F000FC1A218B4804F003FE7A
S3150000325007F0DAFB0A2007F0F7FB322007F0F4FB51
S3150000326086497D4805F098F889490860084600684F
S3150000327000287CD1642007F0E7FB07F0C5FB64213A
S315000032806F4805F0B9F86D4803F09AFC441C2346D4
S31500003290804A684924396A4804F0F4FE0520654BE3
S315000032A0783B644A6BA100906548FDF7B1F807F0DA
S315000032B0ABFB00206E4908606C4908606D490860E8
S315000032C00BE05E486B4A1268815C6B4804F0C3FDF4
S315000032D068480068401C67490860584803F070FC5D
S315000032E0644909688842ECD80A21634804F0B3FDB2
S315000032F00A21614804F0AFFD0A215F4804F0ABFDE6
S315000033000A215D4804F0A7FD0A215B4804F0A3FDED
S315000033100A21594804F09FFD0A21574804F09BFDF5
S315000033200A21554804F097FD0A21534804F093FDFD
S315000033300A21514804F08FFD0A214F4804F08BFD05
S315000033400A214D4804F087FD0A214B4804F083FD0D
S315000033500A21494804F07FFD0A21474804F07BFD15
S315000033600A21454804F077FD0A21434800E0F5E0CC
S3150000337004F071FD0A21404804F06DFD0A213E4823
S3150000338004F069FD0A213C4804F065FD0A213A482B
S3150000339004F061FD0A21384804F05DFD0A21364833
S315000033A004F059FD0A21344804F055FD0A2132483B
S315000033B004F051FD0A21304804F04DFD0A212E4843
S315000033C004F049FD0A212C4804F045FD0A212A484B
S315000033D004F041FD0A21284804F03DFD0A21264853
S315000033E004F039FD0A21244804F035FD0A2122485B
S315000033F004F031FD0A21204804F02DFD0A211E4863
S3150000340004F029FD0A211C4804F025FD0A211A486A
S3150000341004F021FD0A21184804F01DFD0A21164872
S3150000342004F019FD0A21144804F015FD0A2133E0C1
S3150000343064110000F80C00004F4B00000806002045
S315000034405B1B0020C1F1FF1FB4F1FF1F511B0020C1
S31500003450ED1A00203E00000080F2FF1F3CF0FF1F27
S31500003460881300000A00000038F0FF1F14F0FF1F49
S315000034700CF0FF1F04F0FF1F00B006408408000098
S3150000348044F0FF1F48F0FF1F4CF0FF1F50F0FF1FD6
S3150000349040F0FF1FBCF1FF1FFE4804F0DCFC0A21D0
S315000034A0FC4804F0D8FC0A21FA4804F0D4FC0A21AE
S315000034B0F84804F0D0FC0A21F64804F0CCFC0A21B6
S315000034C0F44804F0C8FC0A21F24804F0C4FC0A21BE
S315000034D0F04804F0C0FC0A21EE4804F0BCFC0A21C6
S315000034E0EC4804F0B8FC0A21EA4804F0B4FC0A21CE
S315000034F0E84804F0B0FC0A21E64804F0ACFC0A21D6
S31500003500E44804F0A8FC0A21E24804F0A4FC0A21DD
S31500003510E04804F0A0FC0A21DE4804F09CFC00BF51
S31500003520DD49DE4804F038FF00280AD1DA498C3933
S31500003530DA4804F031FF002803D1D948006805288D
S31500003540EEDD07F061FAD74803F03AFB0446214660
S31500003550D44804F051FF07F057FA42E108F0FAFFA9
S315000035603FE1642007F070FA07F04EFA6421CE4876
S3150000357004F042FFCB4803F023FB441C2346CB4A0E
S31500003580C5493839C84804F07DFD0520C24B8C3B3F
S315000035901A467832C6A10090C348FCF739FF07F0F7
S315000035A033FA0020C3490860BD490860C249086073
S315000035B00BE0BC48C04A1268815CB64804F04BFC7C
S315000035C0BD480068401CBC490860B64803F0F8FADC
S315000035D0B94909688842ECD80A21AE4804F03BFC98
S315000035E00A21AC4804F037FC0A21AA4804F033FC4F
S315000035F00A21A84804F02FFC0A21A64804F02BFC57
S315000036000A21A44804F027FC0A21A24804F023FC5E
S315000036100A21A04804F01FFC0A219E4804F01BFC66
S315000036200A219C4804F017FC0A219A4804F013FC6E
S315000036300A21984804F00FFC0A21964804F00BFC76
S315000036400A21944804F007FC0A21924804F003FC7E
S315000036500A21904804F0FFFB0A218E4804F0FBFB88
S315000036600A218C4804F0F7FB0A218A4804F0F3FB90
S315000036700A21884804F0EFFB0A21864804F0EBFB98
S315000036800A21844804F0E7FB0A21824804F0E3FBA0
S315000036900A21804804F0DFFB0A217E4804F0DBFBA8
S315000036A00A217C4804F0D7FB0A217A4804F0D3FBB0
S315000036B00A21784804F0CFFB0A21764804F0CBFBB8
S315000036C00A21744804F0C7FB0A21724804F0C3FBC0
S315000036D00A21704804F0BFFB0A216E4804F0BBFBC8
S315000036E00A216C4804F0B7FB0A216A4804F0B3FBD0
S315000036F00A21684804F0AFFB0A21664804F0ABFBD8
S315000037000A21644804F0A7FB0A21624804F0A3FBDF
S315000037100A21604804F09FFB0A215E4804F09BFBE7
S315000037200A215C4804F097FB0A215A4804F093FBEF
S315000037300A21584804F08FFB0A21564804F08BFBF7
S315000037400A21544804F087FB0A21524804F083FBFF
S315000037500A21504804F07FFB0A214E4804F07BFB07
S315000037600A214C4804F077FB0A214A4804F073FB0F
S315000037700A21484804F06FFB0A21464804F06BFB17
S315000037800A21444804F067FB0A21424804F063FB1F
S315000037900A21404804F05FFB0A213E4804F05BFB27
S315000037A000BF3D493D4804F0F7FD00280AD13A49DB
S315000037B08C393A4804F0F0FD002803D138480068F7
S315000037C00528EEDD07F020F9364803F0F9F904463E
S315000037D02146344804F010FE07F016F901E008F01F
S315000037E0B9FE304803F0ECF9044621462D4804F0B2
S315000037F003FE1A21274804F02EFB38BD38B5642095
S3150000380007F022F907F000F96421274804F0F4FDD7
S31500003810244803F0D5F9441C2346244A1E49383966
S31500003820214804F02FFC05201B4B8C3B1A467832AE
S315000038301FA100901C48FCF7EBFD07F0E5F80020FF
S315000038401C490860164908601B4908600BE01548CA
S31500003850194A1268815C0F4804F0FDFA16480068A0
S31500003860401C154908600F4803F0AAF91249096877
S315000038708842ECD80A21074804F0EDFA0A210548E7
S3150000388004F0E9FA0A21034804F0E5FA0A2101489E
S3150000389014E0000000B006400C0D000080F2FF1F8F
S315000038A014F0FF1F080600205B1B0020BCF1FF1F61
S315000038B03E0000000CF0FF1F04F0FF1F04F0CBFADF
S315000038C00A21F84804F0C7FA0A21F64804F0C3FAB8
S315000038D00A21F44804F0BFFA0A21F24804F0BBFAC0
S315000038E00A21F04804F0B7FA0A21EE4804F0B3FAC8
S315000038F00A21EC4804F0AFFA0A21EA4804F0ABFAD0
S315000039000A21E84804F0A7FA0A21E64804F0A3FAD7
S315000039100A21E44804F09FFA0A21E24804F09BFADF
S315000039200A21E04804F097FA0A21DE4804F093FAE7
S315000039300A21DC4804F08FFA0A21DA4804F08BFAEF
S315000039400A21D84804F087FA0A21D64804F083FAF7
S315000039500A21D44804F07FFA0A21D24804F07BFAFF
S315000039600A21D04804F077FA0A21CE4804F073FA07
S315000039700A21CC4804F06FFA0A21CA4804F06BFA0F
S315000039800A21C84804F067FA0A21C64804F063FA17
S315000039900A21C44804F05FFA0A21C24804F05BFA1F
S315000039A00A21C04804F057FA0A21BE4804F053FA27
S315000039B00A21BC4804F04FFA0A21BA4804F04BFA2F
S315000039C00A21B84804F047FA0A21B64804F043FA37
S315000039D00A21B44804F03FFA0A21B24804F03BFA3F
S315000039E00A21B04804F037FA0A21AE4804F033FA47
S315000039F00A21AC4804F02FFA0A21AA4804F02BFA4F
S31500003A000A21A84804F027FA0A21A64804F023FA56
S31500003A100A21A44804F01FFA0A21A24804F01BFA5E
S31500003A200A21A04804F017FA0A219E4804F013FA66
S31500003A300A219C4804F00FFA0A219A4804F00BFA6E
S31500003A400A21984804F007FA0A21964804F003FA76
S31500003A500A21944804F0FFF90A21924804F0FBF980
S31500003A600A21904804F0F7F900BF8F498F4804F007
S31500003A7093FC00280AD18C498C398C4804F08CFCC4
S31500003A80002803D18A4800680528EEDD06F0BCFF51
S31500003A90884803F095F804462146864804F0ACFCB5
S31500003AA006F0B2FF38BD70B504460D461646002036
S31500003AB081490860814800688149086000BF7948EB
S31500003AC004F0D6F9002818D07648C0797D497A4A9C
S31500003AD01268885478480068401C7749086077481F
S31500003AE000687749086074480068FF212B318842D6
S31500003AF009DD00207049086005E071480068401E35
S31500003B006F49086000BF68496E4804F045FC00280C
S31500003B1010D1654914396B4804F03EFC002809D1E0
S31500003B2067480068002805DD6749664804F034FCEC
S31500003B300028C4D070BDF8B504460E4615461F468B
S31500003B4000205D4908605D4800685D49086000BF67
S31500003B505E4804F08DF9002818D05C48C0795949B0
S31500003B60554A1268885454480068401C52490860F7
S31500003B7052480068524908604F480068FF212B31BF
S31500003B80884208DD00204C49086004E04C48006883
S31500003B90401E4B49086021464A4804F0FDFB0028B8
S31500003BA00FD13146474804F0F7FB002809D14448B5
S31500003BB00068002805DD2946424804F0EDFB002890
S31500003BC0C6D0F8BD70B50446002505E0615D3F48E6
S31500003BD004F041F9681CC5B2605D0028F6D170BDDD
S31500003BE008B53B4B3B4A384960313B4804F04AFA3A
S31500003BF03A480068344B80332B4A8C3A1946009079
S31500003C00354808F0B9FB08F0A5FC08BD3448806BC0
S31500003C100121C90208433249886332483249C860E3
S31500003C202F48806B0121090308432D4988632D48DD
S31500003C30401C2E498861401E08601F20002805DBB5
S31500003C40C206D20E01219140294A116000BF704779
S31500003C5000B528480068012802D16320264908706B
S31500003C6025480078030006F04DFE06040C144B535D
S31500003C705B6340202149886080204860400048609E
S31500003C8061E040201D4988608020886040004860CF
S31500003C9059E040201949486080208860400048600B
S31500003CA051E0000000B006400C0D000080F2FF1F3E
S31500003CB014F0FF1F0806002004F0FF1F1CF0FF1F72
S31500003CC008F0FF1F410D00206411000000C00640EF
S31500003CD0511B0020ED1A00205B1B0020B4F1FF1FD2
S31500003CE00080044002010A0000B0044000C0044005
S31500003CF000E100E0B0F1FF1F7CF0FF1F80F00F40F5
S31500003D004020FD49486080204860400088601AE0F5
S31500003D104020F9498860802048604000886012E0B1
S31500003D204020F549886080208860400088600AE06D
S31500003D304020F149486080204860400048600020EB
S31500003D40EE49087000BF00BF00BD10B5EC48006A20
S31500003D5008210840002814D0E948006A0843E849C9
S31500003D600862E848006801210843E6490860012026
S31500003D70E5490870E5490860E0480078401CDF49DD
S31500003D800870E348006AC007C00F002812D0E04858
S31500003D90006A01210843DE490862DA480068012109
S31500003DA00843D84908600120D7490870D7490860F8
S31500003DB006F02AFED648006A4021084000280FD0A7
S31500003DC0D348006A0843D2490862CE4800680121F8
S31500003DD00843CC4908600120CB49087006F014FE60
S31500003DE0FFF736FF10BD70470020CA498861CA48F0
S31500003DF04861072008617047C648006940084000CE
S31500003E00C4490861704770B5C24885698469281B32
S31500003E10C24908602946C2A004F026F92146C7A077
S31500003E2004F022F9BD480168CBA004F01DF970BD6D
S31500003E300CE0D449D44A116004E0D3490968491E0C
S31500003E40D14A1160D04909680029F6DC0146401EB6
S31500003E500029EED170471CB5CC4802F0B1FE0146F0
S31500003E600190CA4804F0C8FAC94802F0A9FE014602
S31500003E700190C74804F0C0FAC64802F0A1FE014608
S31500003E800190C44804F0B8FAC24802F099FE01460F
S31500003E900190C14804F0B0FA02F06CFFFFF7A4FFEE
S31500003EA00520BE49086006F089FC00BFBC48806B4F
S31500003EB0012149020843BA4988638815B94948600F
S31500003EC088608D4880384068062108438A498039D1
S31500003ED04860084640690621084387498039486199
S31500003EE0022088600420886000BFFFF78FFE002054
S31500003EF086490860AC49086080207F494031886067
S31500003F0001217D20C00003F08AFE00BFA448C06BDB
S31500003F100121C9060843A249C8632D20A349886028
S31500003F200020C86008620846406A082188439F4905
S31500003F30486200BF9E4802F043FE014601909C483D
S31500003F4004F05AFA002090490860944908600A2152
S31500003F50984803F080FF1A21964803F07CFF022060
S31500003F60954B964A11461431009095A008F004FA34
S31500003F70642006F069FD06F047FD642006F064FD46
S31500003F8006F03AF890A1814802F02AFE05208349FE
S31500003F90086006F02BFE07F0F7FE0420874B783BFF
S31500003FA0864A8BA100901046203008F0E5F906F00D
S31500003FB02BFD0720814B783B86A28AA100901846EC
S31500003FC0BC3008F0D9F906F017F87C4930396F484B
S31500003FD002F006FE06F010F8784930396B4802F018
S31500003FE0FFFD032045490870FFF732FE7F48006851
S31500003FF0714B724A1146143100907DA008F0BCF94D
S315000040007A4800686C4B6D4A1146143100907BA0CB
S3150000401008F0B2F975480068674B684A11461431D2
S31500004020009079A008F0A8F970480068624B634ACE
S3150000403011461431009077A008F09EF96B4800688D
S315000040405D4B5E4A11461431009075A008F094F954
S3150000405066480068584B594A11461431009074A0BE
S3150000406008F08AF961480068534B544A11461431E6
S31500004070009074A008F080F95C4800684E4B4F4AE7
S3150000408011461431009074A008F076F9574800687C
S31500004090494B4A4A11461431009074A008F06CF955
S315000040A052480068444B454A11461431009050A0CE
S315000040B008F062F90A2006F0C7FC4C4800683E4B3F
S315000040C03E4A1146143100906CA008F055F906F0EE
S315000040D09BFC0A2006F0B8FC05F08EFF3749303904
S315000040E02A4802F07DFD41480068334B334A1146A9
S315000040F014310090CCE0000080F00F407CF0FF1FF0
S3150000410080B0044078F0FF1F2DF2FF1F74F0FF1FF0
S3150000411080C0044000E000E03F9C000088F0FF1FE4
S315000041207379737469636B2073746172742076613A
S315000041306C75653A20307825780A0D0073797374AA
S3150000414069636B20656E642076616C75653A203014
S315000041507825780A0D0000007379737469636B2003
S3150000416063757272656E742076616C756520726512
S315000041706164206F766572686561643A20307825DF
S31500004180780A0D008813000020F2FF1F08060020A1
S31500004190F9180020ED1A0020511B0020B8F1FF1F6E
S315000041A00080044000900440B0F1FF1F00B00340BF
S315000041B05B1B002000B0064064110000F80C0000F4
S315000041C00A0A41540D0A000043482731270A000015
S315000041D04F4B00004E4F5420494E534552544544D0
S315000041E0000000005265616479000000B4F1FF1F11
S315000041F00A0A415426570D0A000000000A0A4154D3
S3150000420053303D320D0A00000A0A415426460D0A73
S31500004210000000000A0A415426440D0A000000006E
S315000042200A0A41542B4946433D302C300D0A000002
S315000042300A0A41542B4349505153454E443F0D0AF7
S31500004240000000000A0A41542B4349505153454E81
S31500004250443D300D0A0000000A0A41542B435042E7
S31500004260533D22534D220D0A000000000A0A415414
S315000042702B53443250434D3D300D0A000A0A415437
S315000042802B465344524956453D310D0A0000000065
S31500004290EFA008F071F8642006F0D6FBF0A1F14813
S315000042A004F07AF8002820D0EF480068EF4BF04A77
S315000042B0114614310090EFA008F05EF86421F7482B
S315000042C004F09AF80222F6A1F44803F0DBFE0A2075
S315000042D0E64BE74AFDA10090F04808F04DF806F0DD
S315000042E093FBDFA00AF024FA1FE0DF480068DF4BEB
S315000042F0DF4A114614310090DEA008F03DF8642133
S31500004300E64804F079F80222E5A1E44803F0BAFE93
S315000043100A20D64BD64AEDA10090E04808F02CF8CA
S3150000432006F072FBEAA00AF003FA642006F08CFBA2
S31500004330CD480068CD4BCE4A114614310090E5A019
S3150000434008F01AF8C8480068C84BC94A1146143123
S315000043500090E3A008F010F8C3480068C34BC44AB5
S31500004360114614310090E2A008F006F806F03EFC73
S3150000437007F00AFD07F032FD07F09EFCBA48006818
S31500004380BA4BBB4A114614310090DFA007F0F4FF88
S31500004390B5480068B54BB64A114614310090DEA008
S315000043A007F0EAFF6421BD4804F026F80F21DE4835
S315000043B004F022F8DC4822210B46022200910190EB
S315000043C00121A84807F0E8FBD74AD8A1B34803F073
S315000043D059FEA5480068A54BA54A11461431009020
S315000043E0AE4807F0C9FF07F099FC6421AB4804F01A
S315000043F003F80521D24804F001F8D2A1A74803F03A
S3150000440041FE0A20994B9A4AD9A10090A34807F089
S31500004410B3FFCB480D210A2303220091019001210D
S31500004420904807F0B9FB06F07DFCD2480068D249F7
S3150000443008600420CF49086005208C4B8C4ACCA12B
S31500004440009018460C3007F097FF05F0D5FD884917
S315000044503039CA4802F0C4FB06F064FC64218F4878
S3150000446003F0CAFFC64A814920318C4803F00AFE90
S315000044707D4800687D4B7E4ABDA10090874807F0C5
S315000044807BFF06F04FFC0520794B5C3B784AB8A1D0
S3150000449000907648383007F06FFF05F0ADFD74499F
S315000044A03039B64802F09CFB05F0A6FD704930395C
S315000044B0B24802F095FB06F035FC06F0A5FA6B480B
S315000044C048300AF035F906F09FFA142006F0BCFAD7
S315000044D006F028FCAB4BAC4A644960316F4803F0E8
S315000044E0D1FD61480068624B783B614A5F49803183
S315000044F000906A4807F040FF06F086FA9E4800687A
S315000045009C49086058480068584B8833584A783A9E
S315000045106EA100901846103007F02EFF9B480068E9
S3150000452002F04EFB014601909848006803F064FFD4
S315000045309748006802F044FB0146019094480068E1
S3150000454003F05AFF3E214748FBF7CCFF914908701C
S3150000455008460078002877D006F056FA8E4941487A
S3150000456003F04AFF6BA1854802F03AFB834802F04C
S3150000457027FB8A4908600020894908608949086044
S31500004580894908600DE07D4887490968405C014615
S315000045900190864803F05FFC83480068401C82490E
S315000045A00860814800687D4909688842EBDB1A216A
S315000045B07E4803F050FC00BF7D492A4803F0ECFE1C
S315000045C0724908602A497839264803F0E5FE794998
S315000045D0086026499031234803F0DEFE76490860DC
S315000045E023495C391F4803F0D7FE744908607148B7
S315000045F0006800280FD17048006800280BD10846D3
S315000046000068002807D161480068002803D1644883
S3150000461000680828D0DD1A21644803F01CFC1A2122
S31500004620624803F018FC1A21604803F014FC1A21B2
S315000046305E4803F010FC322006F006FA5C49094891
S3150000464003F0AAFE51490860504800680028B7E008
S315000046500A0A41542B46534D454D0D0A00000000F1
S31500004660443A000080F2FF1FB4F1FF1F64110000FE
S31500004670F80C00000A0A41542B4653435245415454
S31500004680453D433A5C4C4F4747494E475F44524984
S3150000469056452E5458540D0A000000005B1B00209E
S315000046A00D0A41542B465357524954453D433A5CF3
S315000046B04C4F4747494E475F44524956452E54583A
S315000046C0542C302C25642C31300D0A003E0000009D
S315000046D0433A00000A0A415453303D310D0A0000A6
S315000046E00A0A41542B4353434C4B3D310D0A0000FB
S315000046F00D0A0D0A41542B434D47443D312C340DD0
S315000047000A0A0A0A000000000A0A41542B434D47D0
S31500004710463D310A0A0000000A0A41542B4353431E
S31500004720413F0D0A00000000F61B00200D0A41540F
S315000047302B435343413D222573220D0A00000000FE
S31500004740BCF1FF1F0A41542B4653524541443D4399
S315000047503A5C4C4F4747494E475F44524956452EAF
S315000047605458542C302C3130302C310D0A000000B6
S315000047704F4B0000B8F1FF1F20F0FF1F0806002076
S31500004780C1F1FF1F511B0020ED1A002044F0FF1F4E
S3150000479040F0FF1F3CF0FF1F8813000038F0FF1F9A
S315000047A014F0FF1F0CF0FF1F04F0FF1F00B00640BF
S315000047B08408000048F0FF1F4CF0FF1F50F0FF1F59
S315000047C001D1012000E0002001287DD11A21FE48F8
S315000047D003F041FB06F018F90A2006F035F91A2114
S315000047E0F94803F038FB06F00FF90A2006F02CF919
S315000047F01A21F54803F02FFB06F006F90A2006F009
S3150000480023F9642006F020F906F0FEF86421EF484B
S3150000481003F0F2FDEE4802F0D3F9401C0346ED4AE0
S31500004820ED490190E94803F02DFC0520EA4B543B85
S315000048301A467832E9A10090E448FBF7E9FDE6491B
S315000048405439E74803F0A8FD002804D04320E14985
S3150000485008703A20487006F0D7F80020E149086051
S31500004860E1490860E14908600DE0D948DF49096877
S31500004870405C01460190D44803F0EDFADB4800683D
S31500004880401CDA490860D24802F09AF9D74909680B
S315000048908842EAD80A21CC4803F0DDFA0A21CA4840
S315000048A003F0D9FA0A21C84803F0D5FA0A21C64806
S315000048B003F0D1FA0A21C44803F0CDFA0A21C2480E
S315000048C003F0C9FA0A2100E0F8E2BF4803F0C3FA90
S315000048D00A21BD4803F0BFFA0A21BB4803F0BBFA20
S315000048E00A21B94803F0B7FA0A21B74803F0B3FA28
S315000048F00A21B54803F0AFFA0A21B34803F0ABFA30
S315000049000A21B14803F0A7FA0A21AF4803F0A3FA37
S315000049100A21AD4803F09FFA0A21AB4803F09BFA3F
S315000049200A21A94803F097FA0A21A74803F093FA47
S315000049300A21A54803F08FFA0A21A34803F08BFA4F
S315000049400A21A14803F087FA0A219F4803F083FA57
S315000049500A219D4803F07FFA0A219B4803F07BFA5F
S315000049600A21994803F077FA0A21974803F073FA67
S315000049700A21954803F06FFA0A21934803F06BFA6F
S315000049800A21914803F067FA0A218F4803F063FA77
S315000049900A218D4803F05FFA0A218B4803F05BFA7F
S315000049A00A21894803F057FA0A21874803F053FA87
S315000049B00A21854803F04FFA0A21834803F04BFA8F
S315000049C00A21814803F047FA0A217F4803F043FA97
S315000049D00A217D4803F03FFA0A217B4803F03BFA9F
S315000049E00A21794803F037FA0A21774803F033FAA7
S315000049F00A21754803F02FFA0A21734803F02BFAAF
S31500004A000A21714803F027FA0A216F4803F023FAB6
S31500004A100A216D4803F01FFA0A216B4803F01BFABE
S31500004A200A21694803F017FA0A21674803F013FAC6
S31500004A300A21654803F00FFA0A21634803F00BFACE
S31500004A400A21614803F007FA0A215F4803F003FAD6
S31500004A500A215D4803F0FFF90A215B4803F0FBF9E0
S31500004A6000BF5D4938315E4803F096FC00280AD144
S31500004A70594954395A4803F08FFC002803D15A4843
S31500004A8000680528EDDD05F0BFFF514802F098F8F3
S31500004A90014601904E4803F0AFFC4D4802F090F8F5
S31500004AA0014601904A4803F0A7FC05F0A5FA4A49D9
S31500004AB00C39474802F094F805F0A6FF4C48006808
S31500004AC04C49086004204A49086006F02BF9052085
S31500004AD0414B543B1A46783247A10090104620308D
S31500004AE007F04AFC642005F0AFFF0420434B1A464A
S31500004AF0103A3949543900900846BC3007F03CFC5E
S31500004B0005F090FC34490C39314802F069F805F09B
S31500004B1089FC31490C392E4802F062F80420384BE2
S31500004B202D4A243234A1009018460C3007F024FC9C
S31500004B3005F078FC28490C39254802F051F8642123
S31500004B40224803F059FC2F4A2D4920311F4803F013
S31500004B5099FA2D4800682A4B1F4A243226A1009054
S31500004B601A4807F009FC06F0DDF804201A4B383B1A
S31500004B701A465C3220A100902148383007F0FCFB31
S31500004B8005F050FC14490C39114802F029F805F0DB
S31500004B9049FC11490C390E4802F022F806F0C2F819
S31500004BA005F040FC0C490C39094802F019F805F0EB
S31500004BB02BFF1348483009F0BBFD05F025FF1420F4
S31500004BC005F042FF22E0000000B006405B1B00201B
S31500004BD008060020BCF1FF1FD40C00003E000000B8
S31500004BE080F2FF1F0CF0FF1F14F0FF1F04F0FF1FE1
S31500004BF0B8F1FF1F20F0FF1F4F4B0000E4410000FB
S31500004C0064110000C1F1FF1FB4F1FF1F06F08AF81E
S31500004C10FC480068FC490860FC4BFD4AFD49FE481B
S31500004C2003F030FAFD480068FA4B603BFC4A19462F
S31500004C3080310090F84807F09FFB05F0E5FEF74845
S31500004C400068F44B2833F64AF6A100901846103057
S31500004C5007F092FB05F0D8FE3E21F348FBF742FC35
S31500004C60F24908700846007800287DD005F0CCFE91
S31500004C70EF49ED4803F0C0FBEEA1EF4801F0B0FFAD
S31500004C80ED4801F09DFFED4908600020EC49086001
S31500004C90EC490860EC4908600DE0E748EA49096814
S31500004CA0405C01460190E94803F0D5F8E648006803
S31500004CB0401CE5490860E4480068E0490968884204
S31500004CC0EBDB1A21E14803F0C6F800BFE049D648FD
S31500004CD003F062FBDF490860D149D34803F05CFB6F
S31500004CE0DD490860CB493031CF4803F055FBDB493D
S31500004CF00860CB491C31CC4803F04EFBD84908600C
S31500004D00D548006800280FD1D448006800280BD188
S31500004D1008460068002807D1CE480068002803D15D
S31500004D20C74800680828D1DD0A2005F08DFE05F089
S31500004D306BFE1A21C54803F08EF80A2005F084FEA2
S31500004D401A21C24803F087F81A21C04803F083F8F5
S31500004D501A21BE4803F07FF81A21BC4803F07BF8FD
S31500004D6005F052FE0A2000E0ADE105F06DFE1A21C5
S31500004D70B64803F070F805F047FE0A2005F064FE19
S31500004D80A94801F01DFFB74908601A21AF4803F092
S31500004D9062F805F039FE0A2005F056FE322005F0CD
S31500004DA053FEAB49A04803F0F7FAAF49086008463E
S31500004DB00068002801D1012000E0002001287DD1F3
S31500004DC0642005F041FE05F01FFE6421924803F0C1
S31500004DD013FB994801F0F4FE401C0346A34A904990
S31500004DE0543101908C4803F04DF905208C4B1A463E
S31500004DF078328CA100908848FBF70AFB88498A48DC
S31500004E0003F0CAFA002804D04320984908703A20D3
S31500004E10487005F0F9FD00208A4908608849086055
S31500004E20894908600DE0844887490968405C014665
S31500004E300190864803F00FF883480068401C8249B9
S31500004E4008607D4801F0BCFE7F4909688842EAD8BF
S31500004E500A217E4802F0FFFF0A217C4802F0FBFF90
S31500004E600A217A4802F0F7FF0A21784802F0F3FF98
S31500004E700A21764802F0EFFF0A21744802F0EBFFA0
S31500004E800A21724802F0E7FF0A21704802F0E3FFA8
S31500004E900A216E4802F0DFFF0A216C4802F0DBFFB0
S31500004EA00A216A4802F0D7FF0A21684802F0D3FFB8
S31500004EB00A21664802F0CFFF0A2100E050E263486B
S31500004EC002F0C9FF0A21614802F0C5FF0A215F48C6
S31500004ED002F0C1FF0A215D4802F0BDFF0A215B48CE
S31500004EE002F0B9FF0A21594802F0B5FF0A215748D6
S31500004EF002F0B1FF0A21554802F0ADFF0A215348DE
S31500004F0002F0A9FF0A21514802F0A5FF0A214F48E5
S31500004F1002F0A1FF0A214D4802F09DFF0A214B48ED
S31500004F2002F099FF0A21494802F095FF0A214748F5
S31500004F3002F091FF0A21454802F08DFF0A214348FD
S31500004F4002F089FF0A21414802F085FF0A213F4805
S31500004F5002F081FF0A213D4802F07DFF0A213B480D
S31500004F6002F079FF0A21394802F075FF0A21374815
S31500004F7002F071FF0A21354802F06DFF0A2133481D
S31500004F8002F069FF0A21314802F065FF0A212F4825
S31500004F9002F061FF0A212D4802F05DFF0A212B482D
S31500004FA002F059FF0A21294802F055FF0A21274835
S31500004FB002F051FF0A21254802F04DFF0A2123483D
S31500004FC002F049FF0A21214802F045FF0A211F4845
S31500004FD002F041FF0A211D4802F03DFF0A211B484D
S31500004FE002F039FF0A21194802F035FF0A21174855
S31500004FF002F031FF0A21154802F02DFF0A2113485D
S3150000500036E0000020F0FF1FB8F1FF1F511B002003
S31500005010ED1A0020C41100005B1B0020B4F1FF1F35
S31500005020800C00003E00000080F2FF1F3CF0FF1FD6
S31500005030881300000A0000000806002038F0FF1F51
S3150000504014F0FF1F0CF0FF1F04F0FF1F00B0064016
S315000050508408000044F0FF1F48F0FF1F4CF0FF1FBC
S3150000506050F0FF1F0CF1FF1F40F0FF1FBCF1FF1FA8
S3150000507002F0F1FE0A21F94802F0EDFE0A21F74896
S3150000508002F0E9FE0A21F54802F0E5FE00BFF44908
S31500005090F44803F081F900280AD1F1498C39F14826
S315000050A003F07AF9002803D1EF4800680528EEDD01
S315000050B0EE4801F085FD01460190EC4803F09CF9AD
S315000050C005F0A2FC4CE1642005F0BEFC05F09CFC5A
S315000050D06421E74803F090F9E44801F071FD401CB3
S315000050E00346E44ADE4938390190E14802F0CAFF36
S315000050F00520DB4B8C3B1A467832DFA10090DC485A
S31500005100FBF786F9D6498C39D64803F045F90028CD
S3150000511004D04320D74908703A20487005F074FC43
S315000051200020D6490860D0490860D54908600DE0DE
S31500005130CE48D3490968405C01460190C74802F051
S315000051408AFECF480068401CCD490860C74801F078
S3150000515037FDCB4909688842EAD80A21BF4802F0E0
S315000051607AFE0A21BD4802F076FE0A21BB4802F00B
S3150000517072FE0A21B94802F06EFE0A21B74802F013
S315000051806AFE0A21B54802F066FE0A21B34802F01B
S3150000519062FE0A21B14802F05EFE0A21AF4802F023
S315000051A05AFE0A21AD4802F056FE0A21AB4802F02B
S315000051B052FE0A21A94802F04EFE0A21A74802F033
S315000051C04AFE0A21A54802F046FE0A21A34802F03B
S315000051D042FE0A21A14802F03EFE0A219F4802F043
S315000051E03AFE0A219D4802F036FE0A219B4802F04B
S315000051F032FE0A21994802F02EFE0A21974802F053
S315000052002AFE0A21954802F026FE0A21934802F05A
S3150000521022FE0A21914802F01EFE0A218F4802F062
S315000052201AFE0A218D4802F016FE0A218B4802F06A
S3150000523012FE0A21894802F00EFE0A21874802F072
S315000052400AFE0A21854802F006FE0A21834802F07A
S3150000525002FE0A21814802F0FEFD0A217F4802F083
S31500005260FAFD0A217D4802F0F6FD0A217B4802F08C
S31500005270F2FD0A21794802F0EEFD0A21774802F094
S31500005280EAFD0A21754802F0E6FD0A21734802F09C
S31500005290E2FD0A21714802F0DEFD0A216F4802F0A4
S315000052A0DAFD0A216D4802F0D6FD0A216B4802F0AC
S315000052B0D2FD0A21694802F0CEFD0A21674802F0B4
S315000052C0CAFD0A21654802F0C6FD0A21634802F0BC
S315000052D0C2FD0A21614802F0BEFD0A215F4802F0C4
S315000052E0BAFD0A215D4802F0B6FD0A215B4802F0CC
S315000052F0B2FD0A21594802F0AEFD0A21574802F0D4
S31500005300AAFD0A21554802F0A6FD0A21534802F0DB
S31500005310A2FD0A21514802F09EFD0A214F4802F0E3
S315000053209AFD00BF4E494F4803F036F800280AD1CF
S315000053304B498C394B4803F02FF8002803D14A48D3
S3150000534000680528EEDD494801F03AFC0146019067
S31500005350464803F051F805F057FB0120494908601B
S31500005360424801F02DFC01460190404803F044F804
S315000053701A213A4802F06FFDFEE3FEF769FCFBF7DF
S31500005380D1F820204049486005F0CCFC80203E49F9
S3150000539040318860C82005F057FB00203B49086073
S315000053A039480069C007C00F002806D13648403882
S315000053B00069C007C00F002807D08020324940315D
S315000053C0886000203149086006E080202E4940317F
S315000053D0486001202D4908602D4800682D49884203
S315000053E03BDB80202849403188602BA009F0A0F9DA
S315000053F005F00AFB642005F027FB06F03BFF64215D
S315000054001B4802F0F9FF194801F0DAFB401C03467D
S31500005410184A134938390190154802F033FE052021
S315000054200F4B8C3B1A46783213A100901048FAF7BE
S31500005430EFFF0B498C390B4802F0AEFF002804D071
S3150000544043200C4908703A20487000200B49086038
S31500005450054908600A4908604CE059E100B0064079
S315000054600C0D000080F2FF1F14F0FF1F080600203D
S315000054705B1B0020BCF1FF1F3E0000000CF0FF1F6D
S3150000548004F0FF1F98F1FF1F80F00F40B0F1FF1FDF
S31500005490F0F1FF1FDC0500000D0A0D0A0D0A0A0ACD
S315000054A00A0A0A4445564943452049532052455362
S315000054B0455454494E472E2E2E2E2E2E2E0A0A0ABB
S315000054C00A0A0A0A0A0A0A0A0A0A0A0A0A0A0A0A36
S315000054D00A0A0A0D0A0A0A00FD48FE490968405CE4
S315000054E001460190FC4802F0B6FCFA480068401CF0
S315000054F0F8490860F64801F063FBF64909688842F6
S31500005500EAD80A21F44802F0A6FC0A21F24802F081
