:020000040000FA
:10000000C0380020E9030000090400006902000074
:1000100000000000000000000000000000000000E0
:10002000000000000000000000000000F5020000D9
:10003000000000000000000089030000D50300005C
:1000400013040000254B00001304000013040000FB
:100050009D2E000013040000130400001304000090
:100060001304000013040000130400001304000034
:1000700013040000094A00001304000013040000E8
:10008000130400001304000013040000512F0000AB
:100090001304000013040000130400001304000004
:1000A00013040000130400001304000013040000F4
:1000B00013040000130400001304000013040000E4
:1000C00000F002F800F0AFF80CA030C8083824188F
:1000D0002D18A246671EAB4654465D46AC4201D180
:1000E00000F0A1F87E460F3E0FCCB6460126334203
:1000F00000D0FB1AA246AB4633431847407A0000B3
:10010000607A00000023002400250026103A01D365
:1001100078C1FBD8520700D330C100D50B607047BF
:1001200010B56E2902D101F055F910BD702902D128
:1001300000F0E3FA10BD662902D107F06BFB10BD99
:10014000652902D107F066FB10BD672902D107F0CF
:1001500061FB10BD612902D107F064FB10BD03688B
:100160001B0A01D380231943692902D100F050FAF8
:1001700010BD642902D100F04BFA10BD752902D1DF
:1001800000F046FA10BD6F2902D101F043FC10BD0A
:10019000782902D100F09EFA10BDE92902D101F0C0
:1001A000DFFB10BDE42902D101F0DAFB10BDF52917
:1001B00002D101F0D5FB10BDEF2902D101F036FCD0
:1001C00010BDF82902D100F093FA10BD0368DB09D5
:1001D00001D380231943632902D101F043FB10BDF1
:1001E000732902D101F046FB10BDE32902D101F0D1
:1001F000C0FE10BDF32902D101F0C3FE10BD0020E6
:1002000010BD1FB501F0B8FC04000020002107F06C
:1002100085FA401C60600020002107F069FAE06068
:100220001FBD10B510BD02F077FA1146FFF7E9FFC8
:100230000FB400F00BF80FBC05F0CEF800F03BFB5C
:1002400003B4FFF7EEFF03BC02F060FA04B005F060
:10025000E5F90448002105F06FFA05F0F3F900F024
:100260002AFB0000C878000004207146084202D032
:10027000EFF3098001E0EFF308807146004A104770
:100280001D2F000080F309887047EFF30980704745
:10029000684680F3098806480078C00703D1032028
:1002A00080F314887047022080F3148870470000A0
:1002B00088780000064B9C46EFF305831B0605D1AA
:1002C000EFF31483DB0701D000DF704760470000C5
:1002D00093590000064B9C46EFF305831B0605D19E
:1002E000EFF31483DB0701D000DF704760470000A5
:1002F000815B0000EFF309808169891E097800297C
:100300002BD1A6461FC8A4467446E047EFF30983E5
:1003100007C31A4B06CB91421CD0083B00290DD0D5
:10032000EFF3098020388862F0C044464D465646B7
:100330005F46F0C00CB405F0ADFF0CBC1A60906ACB
:100340001030F0C8A046A946B246BB4680F30988E3
:100350002038F0C80220C043004710B5084A126890
:10036000914209D8074C89006458A6461FC8A44684
:10037000F047EFF309840FC410BD000040010020D6
:10038000B4280000B428000005F064FE104B06CB32
:1003900091421AD0083BEFF3098020388862F0C000
:1003A00044464D4656465F46F0C00CB405F072FF19
:1003B0000CBC1A60906A1030F0C8A046A946B2463C
:1003C000BB4680F309882038F0C80220C0430047AC
:1003D0004001002006F010F8D8E7000005F066FAAA
:1003E00006F00AF8D2E700000D480E4901600E49F8
:1003F00001600E4901600E4A0E4911600021016042
:100400000D4880470D480047FEE7FEE7FEE7FEE7A0
:10041000FEE7FEE70A480B49094A0B4B704700000C
:100420000001005059000000160000008800000084
:1004300024000050A55A0000893E0000C1000000C1
:10044000C0340020C0380020C0340020004870476D
:1004500060340020FEB5054610460C46184373D0A4
:10046000AE468C460020AD1A01469C4167D36646D5
:10047000002701243D46B61A9D4102D313463A4651
:100480002124654676462F04360C3E432D0CB61AC1
:100490009D4104D3150C1B042B43120410346546F4
:1004A00076462F06360A3E432D0AB61A9D4104D3DE
:1004B000150E1B022B4312020834654676462F07A1
:1004C00036093E432D09B61A9D4104D3150F1B0171
:1004D0002B431201241D65467646AF07B6083E43FE
:1004E000AD08B61A9D4104D3950F9B002B43920093
:1004F000A41C65467646EF0776083E436D08B61A9B
:100500009D411AD392185B41641C16E00018764690
:1005100065464941B71A9D410191009009D3604653
:10052000B11A98418E468446009801990025401CD6
:100530006941DD0752082A435B08641EE6D572460E
:10054000634603B0F0BDFFE700200146C046C04649
:100550002A462346F5E700000FB4054910B503AA63
:10056000029801F08BF910BC08BC04B018470000D9
:10057000040100200FB4054910B503AA029801F048
:100580007DF910BC08BC04B018470000040100202D
:100590000FB41CB5084B06AA7B4469460090059829
:1005A00001F03DF904460020694601F04BF9204670
:1005B0001CBC08BC04B01847A912000070B50C465A
:1005C0000546012A05D02878800600D5EA6900236F
:1005D00002E0012305E05B1C934202D2E05C0028AC
:1005E000F9D1A869E618C01AA861286AC01828625B
:1005F000284600F05EFE04E06A682078A968641C62
:100600009047B442F8D3284600F069FE70BD000060
:10061000F7B5002575291068009914A611D000F0CF
:100620006FFE002802DA404211A608E0009909682E
:100630008A0701D50FA602E0490704D50EA60125B9
:1006400001E000F066FE009F0024243704E001F082
:100650002FFA30313955641C0028F8D12B46324628
:100660002146009800F05EFEFEBD00000000000084
:100670002D0000002B00000020000000F8B50F4600
:100680000188090502D5224C7C4402E0204C7C44C0
:100690000E3405460021243508E016071209360FEE
:1006A000A65D6E541E0732431B09491C16461E43A5
:1006B000F3D1224604780023240705D5702F06D0F5
:1006C000002901D00223113200F02CFEF8BD0123D5
:1006D0001032F9E770B504460D462146106800F067
:1006E00018FE0023024629462046FFF7C7FF70BDCB
:1006F000D21DD308DB000CCBC0E730B40368202444
:100700001268234303600823C36130BC0023B5E7AC
:10071000B4720000F3B50446002081B02062204688
:10072000E1688847002872D0252802D06268A16855
:10073000ABE0594F00267F442046E16888472028D7
:10074000054608DB312D06D27819203800780028BC
:1007500001D00643F0E7B00701D50420864300200E
:10076000E0610746A0612A2D0AD0284604F06AFA03
:10077000002827D0B8000019303D0090856119E0AD
:100780000298BA00121902C8916102902046E168ED
:100790008847012F054617D1E06900281FDA20207D
:1007A00086431CE000980A2180694843009940195B
:1007B000303888612046E1688847054604F042FAEF
:1007C0000028EFD1012F0AD02E2D08D12046E16854
:1007D00088470546202006437F1C022FC3DBA06903
:1007E000002803DA4042A06101200643F00701D04F
:1007F000102086436C2D0BD0682D09D04C2D3CD099
:100800006A2D38D0742D38D07A2D36D016E040E0DD
:10081000E1682F4620468847B842054609D16C2F2B
:1008200029D001208002E16806432046884705461A
:1008300004E06C2F1DD0FF2001300643002D28D08E
:1008400028464138192803D80120C0020643203524
:10085000204626602946029A1646FFF761FC0028CA
:1008600010D001280BD0F61DF008C000083002900F
:1008700055E74020E1E78020D5E70020D3E7361D8B
:1008800002964CE762682846A1689047206A401C9F
:1008900044E7206AFEBD00002E72000070B50646D7
:1008A00000F003FD0468054630460A22002101F0ED
:1008B000C7F82C6070BD10B50446C046C04620463F
:1008C000FFF7BEFC10BD30B505460B462A461C7826
:1008D0001078521C5B1C002801D0A042F7D0002CDD
:1008E00003D0002802D06D1CEFE7284630BD000081
:1008F00030B5441C03E00178401C00290DD081076D
:10090000F9D10B4BDD0104C8D11A91432940FAD02B
:10091000001B0A0603D0C01E30BD001B30BD0A04F8
:1009200001D0801E30BD0902FCD0401E30BD000049
:1009300001010101421E5378521C002BFBD10B78A0
:10094000491C1370521C002BF9D1704701E004C000
:10095000091F0429FBD28B0701D50280801CC9071F
:1009600000D00270704700290BD0C30702D002707C
:10097000401C491E022904D3830702D50280801C33
:10098000891EE3E70022EEE70022DFE700220309E9
:100990008B422CD3030A8B4211D300239C464EE09A
:1009A00003460B433CD4002243088B4231D3030956
:1009B0008B421CD3030A8B4201D394463FE0C30908
:1009C0008B4201D3CB01C01A524183098B4201D320
:1009D0008B01C01A524143098B4201D34B01C01A0B
:1009E000524103098B4201D30B01C01A5241C30883
:1009F0008B4201D3CB00C01A524183088B4201D3F2
:100A00008B00C01A524143088B4201D34B00C01ADD
:100A10005241411A00D201465241104670475DE0F2
:100A2000CA0F00D04942031000D340425340002275
:100A30009C4603098B422DD3030A8B4212D3FC221E
:100A4000890112BA030A8B420CD3890192118B429D
:100A500008D3890192118B4204D389013AD09211B3
:100A600000E08909C3098B4201D3CB01C01A52416E
:100A700083098B4201D38B01C01A524143098B4237
:100A800001D34B01C01A524103098B4201D30B0120
:100A9000C01A5241C3088B4201D3CB00C01A524145
:100AA00083088B4201D38B00C01A5241D9D243082C
:100AB0008B4201D34B00C01A5241411A00D2014669
:100AC000634652415B10104601D34042002B00D5D3
:100AD0004942704763465B1000D3404201B5002095
:100AE000C046C04602BD7047704770470246C80FF7
:100AF000C00781434B0030B54B405B009B0D20D0BD
:100B00001923DB06C91801231B05994220DB0324A6
:100B1000A40704251346AB400BD3002B04D1EB06EE
:100B200013409B00E34204D40124640700231219FC
:100B30005941FF231B0599420BD2C9000143500FB5
:100B400009E0CB0204D501430803024305D0054860
:100B500030BDFF21C905084330BD084607210905FE
:100B6000884330BD0000C07FF0B5F94D0C091E0967
:100B70002C402E402F468BB0A7437DD0B543FCD0F0
:100B8000002E7AD0002CFCD00D465D40ED0F2543A1
:100B9000AC1BFF25AD0464190894C502440DC902BD
:100BA0002143500DDC0204430120C00701430443EC
:100BB000D2020191200C110C00958C4601042346B1
:100BC0008B430A9161460904E24D8A430991010A67
:100BD0007D4449198039097805464D4301266D1831
:100BE000F605751B6943C90C640B891C4C436418DA
:100BF000B5012C1B250C2E04B4434C434D43210C52
:100C0000691889090591009DE90701D00121C907EB
:100C100004912C4601996708CD072F434C08059D88
:100C2000E10B4D432D0C29466646754302950D4652
:100C300045432E46029D7D1BB44100950D465D4304
:100C400001942C0C2F040D465543AE462D0C3D430C
:100C5000029503947546049C2D04641B049406D2EB
:100C6000029C039D641C002675410395029401AC0F
:100C700070CC009F7D1B01E03EE162E1B4410904BC
:100C80000095079101940599A4086143090C0C464D
:100C90004443650BE7040C4666467443A646640B62
:100CA0003C43039502947446049DE4042C1B049475
:100CB00006D2029C039D641C002675410395029494
:100CC00001AC70CC009F7D1BB44101940C465C4389
:100CD0000095650FE7000C465443A646640F3C435D
:100CE000039502947446049DE4002C1B049406D2E0
:100CF000029C039D641C002675410395029401AC7F
:100D000070CC009F7D1BB441AE09AF06049DC900A5
:100D1000AD092F43049DA406AD060495079D3443F9
:100D200069180791059DE10B4D432D0C2946664638
:100D3000754302950D4645432E46029D7D1BB441E9
:100D400000950D465D4301942C0C2F040D46554330
:100D5000AE462D0C3D43029503947546049C2D042C
:100D6000641B049406D2029C039D641C00267541FA
:100D70000395029401AC70CC009F7D1BB44101949B
:100D80008C050694079C890A611800950791019CBF
:100D90000599A4086143090C0D464543680BEF040F
:100DA0000D46644665436C0B3C43049FED047D1B7C
:100DB000AC4602D20025641C6841009E019D371B91
:100DC00085410846584301950C46460FC5005443DB
:100DD000600F28436546E4002C1B02D20025401C0E
:100DE0006E41019D3F1AB5412846BD098006284342
:100DF0008446A009BF064E020699A406761807434A
:100E0000079D002068410A99079019430020099B1B
:100E100000906046FF1913434041E20F64003A43DB
:100E2000A4460446D71A8C41A04203D90120009061
:100E300020463A46C70F941840416246D20F2243DB
:100E4000644664000494009CBE466400D71AA4461D
:100E5000044602978C417746002F01D1A04204D965
:100E60006046401C8446029A2046C40FA646941849
:100E70004041049A0546D20F224364466400D31AC7
:100E80008D417146002901D1A84202D928461A464F
:100E9000641C10430122002800D016436102002088
:100EA000079B891904465C410223002C02DB491888
:100EB00013466441089DCE0A2D145D194B05670544
:100EC000E10A2C050D1908993E43C9076940002B1A
:100ED00008D0934006D30022761C5141002B01D14B
:100EE000760876001C4A002D43DB154241D0AA4308
:100EF0003FD030460BB0F0BD06180D464D41174CA3
:100F00007642AC411AD395181C465C41134A6D4297
:100F1000A24113D3012252054C00D4420AD15C00F5
:100F2000D4420BD04B4002D592021143E2E7490074
:100F30004908DFE75940C90FC90718E000200849F0
:100F4000D8E7054801420DD10342F7D0F2E700008F
:100F50000000FF07A56D00000000F07F0000E0FF2B
:100F60000000F87F114859400143C0124140002061
:100F7000C0E70123089A9B069A4205DC0322520728
:100F80008918C90FC907B5E7052252078918074A0A
:100F90001143D2125140ADE770B515461C460246CA
:100FA0000B4628462146FFF7DFFD70BDFFFFFF7FA0
:100FB000F0B58B4C0F09254689B0BD437BD01D0988
:100FC0002646AE43FAD00E465E402740F60F3E431B
:100FD000254071D024012142FBD0FF24AD19A40487
:100FE0002D1B039501252D05DB02DB0AC9022B43CE
:100FF000C90A29431E010901040F130F05012143EA
:101000001701880B820391432D098C46A90B1E43BF
:101010008A039543B30B9A0396433F09BA0B940393
:10102000A74302962E467E430497B6464E19D7191B
:101030000C460196544305977E43371B7646BF1BEB
:101040003601B646BE0B361900967646BC043719F3
:10105000009C01D3641C00946400002F01D0012681
:101060003443029E049F754366467E430496760091
:1010700034196E0034190094029C019E1C196643B9
:10108000751BAE46069465464519059C05956C434F
:10109000594375460891691A0191049E01465143CE
:1010A000A41B0491611A009C0791E10605D0610917
:1010B0000122114302E072E06EE06109089D002701
:1010C0002C0A2D066918049D7C412A0A2D066918F0
:1010D000019D6241AC0DAD026D185441079A910D0E
:1010E000920255196141029A644658435443069B43
:1010F000059A5A43121A131B9A0E9B015B187A41E8
:10110000010B0005C3185141220A200644195A4117
:101110009A4200D2491C01204002814203D3152388
:101120000226F64302E014230326F6432020C51AC4
:10113000A9401746AF40DA400A4320460399D840F9
:101140000914731819055118039A3843D2075140EE
:10115000AC4009D00122944006D30022401C5141EA
:10116000002C01D1400840001E4A934212D30122B4
:1011700003989206904207DB0520400709181A4899
:101180000143C012414004E0032040070818C10F8A
:10119000C907002009B0F0BD0020F107FAE70518E3
:1011A0000C464C4111486D42A04115D394181A4683
:1011B0005A410E48644290410ED301204A00400536
:1011C000824209D35A00824206D35940C90F084AC5
:1011D000C90700201143DDE700200649DAE70000D7
:1011E0000000FF07FE070000FFFFFF7F0000E0FF99
:1011F0000000F07F0000F87F0121C905012341189C
:1012000042001B06D3185B0E0AD0C1100722D2067B
:10121000891840075242D14201D5520089187047BF
:10122000090208D50146002A03D0C10FC9070020D2
:10123000704710467047420202D0002002497047B2
:10124000072109050143F4E70000F87F1F22030C82
:1012500002D10F2200041CD0030E01D10002083A73
:10126000030F01D10001121F830F01D18000921ED4
:10127000002801DB4000521ED205511802125118FD
:101280001922904004D3491C002801D14908490083
:1012900008467047C10FC90700D04042012292079B
:1012A0001143D3E701218907D0E710B503F08EFC85
:1012B00010BD70B5044685690068C10601D53026A9
:1012C00000E02026C00707D070BD62683046A168E4
:1012D0009047206A401C20626D1EF6D570BD70B527
:1012E000044685690078C00707D170BD6268A168AF
:1012F00020209047206A401C20626D1EF6D570BDEC
:1013000009684A0501D540B27047C905FCD500B24D
:10131000704709684A0501D5C0B27047C905FCD5B8
:1013200080B27047FFB504460D4681B0243000906E
:101330002168880604D51022E0699143216000E00D
:101340000120A84201DD471B00E000270498A169A5
:101350007A191018081AA0612078C00602D4204615
:10136000FFF7A7FF002608E003986268A168805D88
:101370009047206A401C761C206204988642F3DB6A
:101380002078C0060AD52046FFF793FF06E0626882
:10139000A16830209047206A401C206238467F1E9A
:1013A0000028F4DC07E000986268A168405D90477F
:1013B000206A401C206228466D1E0028F3DC20466F
:1013C000FFF78DFF2078000602D5022005B0F0BDA2
:1013D0000120FBE711680268006A530501D5087017
:1013E00009E0D30501D5088005E0130602D5C21730
:1013F00005C100E008600120704700007047FFB59C
:101400000C461E468FB003CA089009914F007D0D0F
:1014100000D16D1E002108460020C0460321099A14
:1014200089050840002A03DA820080184008084035
:10143000800D01280A9002DD0020C0430A90089820
:1014400007430DD0F048F14928184843071418986D
:1014500000281DD07542291E1DDD0A9842421BE05E
:101460001898012802D00020302104E00020F24327
:1014700005E02154401CB042FBDB30460022189BA3
:10148000002121540F998B600A60486013B0F0BDB1
:10149000BD1B6D1CDFE70A9A002900DA69420BA820
:1014A00000F0C6FD0BAB07CB03AB07C30899099847
:1014B00000F02AFE6B4607C30146D5480918002DE7
:1014C00000910BDDD24903980A9A49424018002343
:1014D00003A90390684601F087F808E003990A9A87
:1014E0000023081803A90390684601F027F86B460B
:1014F00007C30004000C03D00020C043410800E0F3
:101500001046189A002A03D00022009215461EE0C9
:10151000751E05D400F035FB303262556D1EF9D5CD
:1015200001220843079602D000227F1C04E02078A5
:10153000302801D100227F1E002A069787D01EE0A6
:10154000112D07DA00F01DFB303262556D1C02468A
:101550000A43F5D1084303D00098002819D00EE0C3
:101560000021681E05E0235C625C63542254401E27
:10157000491C8142F7DBA81B401E07950690079A7D
:1015800018990020A0540F98079B069A81600CC000
:101590007CE711260020189059E7D21DF0B50D46C2
:1015A0000446D10893B0C90003C90C900D9103F013
:1015B000EBFA02460D98C00F01D02D2007E02068FD
:1015C000810701D52B2002E04007C00F4001032A0C
:1015D0000F9001D0072A05DB03462946204600F07C
:1015E00079FC0EE12078800601D5E76900E0062746
:1015F0002846652D04D0662814D0672D69D12DE0CA
:101600000020112F009001DB112300E07B1C0CAAAD
:1016100003A910A8FFF7F3FE1199002610987D1C6E
:101620000E9142E001203B460CAAC0070B9001201E
:10163000009003A910A8FFF7E2FE119D12981099DF
:10164000002600280E9501D1781C0D18781B02D4B5
:1016500046427D1C761EE81B00903AE0012F00DA1E
:1016600001270020112F009001DD112300E03B46EF
:101670000CAA03A910A8FFF7C2FE11993D461098C5
:1016800000260E91217809070BD40E99A94200DAA1
:101690000D4603A9012D04DD4A19203AD27F302AD4
:1016A00006D0B84201DA011D04DA012100910FE0F1
:1016B0006D1EEFE7002802DC86192D1A03E0411C9D
:1016C000A94200DD0D46801B401C00900120C00790
:1016D0000B902078000705D40098A84202DB002078
:1016E000C043009069460020C8720B98012102AFE8
:1016F0000337C907884225D0022010902B20119073
:101700000B9800280BDA40420B902D20119006E038
:101710000B9800F0CDF930317F1E0B903970109985
:10172000481E00291090F3DC0B980028F0D1119886
:101730007F1E38702088000501D5452000E0652017
:101740007F1E387001A8C01BC01D0B900F98002889
:1017500000D0012041190098C01709180B980818EB
:10176000A169081A401EA0612078C00602D4204654
:10177000FFF79FFD0F98002805D06268A168904789
:10178000206A401C20622078C00625D52046FFF73D
:1017900090FD21E0002E07DB0E98B04204DD03A887
:1017A0006268805DA16802E06268A16830209047AD
:1017B000206A761C401C20620098401E0028009081
:1017C0000AD100F0D9F9C06862680168405CA1687C
:1017D0009047206A401C206228466D1E0028D9DCF4
:1017E00007E062683878A1687F1C9047206A401C37
:1017F00020620B99481E00290B90F2DC2046FFF76F
:101800006EFD032042E6000001FCFFFF104D0000CA
:10181000E1DFFFFF01694A1C02610878704700B5EB
:101820008FB00291002105910549019379440391FC
:10183000114604906846FEF76DFF0FB000BD000032
:10184000E5FFFFFF0A681070521C0A60704710B570
:101850004369002B02D0C046C04601E0FEF7AEFE51
:10186000012010BD1278014624310A7000224A700E
:101870000122ECE711680022D243E8E7084B70B57B
:101880000D467B44FFF7CBFF0446284603F0FEFBE2
:10189000002802D00020C04370BD204670BD00006B
:1018A00023390000F7B50446154686B02B48784426
:1018B000002703C83E460090019111E007986A4650
:1018C0007100415A02A800F0DFFE411C07D02178C8
:1018D000890603D5E269391891420ED83F18761C63
:1018E0002078800602D5E069B84206DDAE42E5DB2D
:1018F00007987100405A0028E0D1A069C01BA06180
:101900002046FFF7D6FC154878445A3803C80090A3
:101910000020019116E041006A460798415A02A84A
:1019200000F0B2FE0590401C0AD0002505E0626878
:1019300002A8A168405D90476D1C05988542F6D3CA
:101940000498401CB0420490E5DB206AC019206274
:101950002046FFF7C4FC09B0F0BD00004A6100005A
:10196000F7B5D21D0025D20815A6D200F52905CA63
:1019700011D0002A05DA00214042914111A60A4601
:1019800008E0009909688B0701D50FA602E0490716
:1019900001D50EA601251146009F0024243704E03E
:1019A00000F0EFF830323A55641C02460A43F7D192
:1019B0002B46324621460098FFF7B4FCFEBD0000DE
:1019C000000000002D0000002B000000200000009F
:1019D00070B504460021243408E05507D2086D0F85
:1019E000303565545D072A43DB08491C15461D4305
:1019F000F3D10468002310A2250708D5A40601D45A
:101A0000002904D0C46901230CA2641EC461FFF73D
:101A100089FC70BD10B5044621461068FFF779FCBB
:101A2000002302462046FFF7D3FF10BDD21DD10888
:101A3000C9000CC9CCE70000000000003000000025
:101A4000F7B50F460026009C2578641C002D05D0B4
:101A500000F08AF80068405DC007F5D12B2D02D058
:101A60002D2D18D0641E3946029A204600F08DFABA
:101A7000002F04D03968A14201D100993960710565
:101A8000022400290BDA4042002803DDFFF70DFC99
:101A90000460A007FEBD012080020643E3E70028A2
:101AA000F8DAFFF702FC04600048FEBDFFFFFF7F8D
:101AB00001468008081A02091018020A1018020CC0
:101AC0001018C008820012185200891A01E0401C48
:101AD0000A390A29FBD27047F8B5224C4E00069D00
:101AE000A6420AD8A64201D1002806D15E00A6422D
:101AF00003D8A6420AD1002A08D00D242404254286
:101B00002CD02946002000F0DFFDF8BD0C461C4318
:101B10000CD4994202D0EFF30080F8BD904202D07D
:101B2000EFF30080F8BDEFF30080F8BD092424072F
:101B3000E5008B4206D0EFF30080A043591A06D28D
:101B4000284304E0101A05D3EFF30080A04380F38C
:101B50000088F8BDEFF30080A043F1E7009500F0A6
:101B6000CBFDF8BD0000E0FF10B500F005F8001D4A
:101B700010BD00BFA95B000010B5FEF767FC203068
:101B800010BD0B4670B50246890780080843194608
:101B90009D08141AA94125090807054308092C19AD
:101BA0004841250A01060D43010A2C194141200C28
:101BB0000D0428430D0C00194D41002140194D41E1
:101BC000C00869070843E908840F8D002543840095
:101BD00024184D4124196D41121BAB4107E0092522
:101BE000ED432C11521963410024401C61411C46F5
:101BF0000A250026551BB441F1D270BDD21DF0B5A7
:101C000004460D46D0088DB0C000466807683146CE
:101C1000384602F0B9FF0246F00F01D02D2307E04D
:101C20002068810701D52B2302E04007C00F430144
:101C30006846002B037001D0012000E00020032A39
:101C40000A9001D0072A04DB2946204600F042F919
:101C50002DE12078800601D40D2500E0E5697000B3
:101C6000400D0D2D01904BDA300D00210B900846F0
:101C70000020C046032189050840002E05DA8200B5
:101C80008018C20F1018401008408015012801DD8F
:101C90000020C043A9000023182906D39C460A4609
:101CA0000123183A1B07D34003E001221205CA4062
:101CB00094460C31202902D33A46203900E03246BE
:101CC0008A40002802DD002A06D119E0002817D139
:101CD0000121C9078A4213D3194663467F185E4122
:101CE000002806D10120C007824202D1084687435E
:101CF0009E430B98310D814202D00198401C019007
:101D00002088000502D57149794402E06F49794481
:101D100019396B460A9830221A540A980A7C401CDA
:101D20001A54401C0A900198002801DC302000E081
:101D300031201872019A0120002A02D0644BD21877
:101D400004E072003A4302D0614A521C0192002D15
:101D500002DC2278120703D56A462E205072022038
:101D60000022864694460CE032033601120F6D1EA7
:101D70008B5C02AA13546246521C401C9446052AEE
:101D800001DA002DF0DC002202AE08E03B0F3F013B
:101D9000CB5C521C6D1E3354401C082A01DA002D06
:101DA000F4DC23689A0601D511E0401E704504DD7D
:101DB0003218203AD27F302AF7D0002807DD3218B7
:101DC000203AD27F2E2A02D11A0700D4401E002DBD
:101DD00003DD3E223254401C6D1E497C3154019972
:101DE000401C002906DA2D21471C3154019840423D
:101DF000019003E02B21471C315401987D21C9003B
:101E0000884206DBFEF7CCFD3030F0557F1C019197
:101E100001E0642808DB01986421FEF7C1FD303041
:101E2000F0557F1C019101E00A2806DB01980A2188
:101E3000FEF7B6FD3030F0557F1C01980A21FEF701
:101E4000AFFD3031F1550A98A1697F1C7A1910183D
:101E5000081AA0612078C00602D42046FFF729FAAC
:101E6000216A6E460A980818206204E06268307899
:101E7000A168761C90470A98401E0A90401CF5D134
:101E80002078C00602D52046FFF713FA02AE09E01B
:101E90003078761C3E280DD06268A1689047206A91
:101EA000401C20627F1EF3D22046FFF718FA0DB0C7
:101EB0000320F0BD206A4019206203E06268A16837
:101EC000302090476D1EEDD3F8E700000B5D000059
:101ED00001FCFFFFF8B51F46044601230068DB0242
:101EE000032601461840072A05DB002801D017A564
:101EF00006E017A504E0002801D016A500E016A50D
:101F0000102081432160A069C01E002FA06101D074
:101F1000401EA0612046FFF7CCF9002F09D03846BB
:101F20006268A1689047206A401C2062C01C206241
:101F300006E0206AFAE762682878A1686D1C90477D
:101F4000761EF8D22046FFF7CAF9F8BD4E414E0082
:101F50006E616E00494E4600696E660010B54369B9
:101F6000002B02D0C046C04601E0FFF79BFC0120D9
:101F700010BD12880146243182840022C2840122CD
:101F8000ECE711680022D243E8E7F7B5154682B0C6
:101F90000027029C2078641C0197302802D0002D75
:101FA00015D015E020780127641C782804D0582823
:101FB00002D0002D09D00BE0002D01D0102D07D14B
:101FC000207800271025641C02E0082500E00A257F
:101FD0000026009610E00099012769430818294659
:101FE0007143020C80B200908E183804864201D3EF
:101FF000012001902078641C294600F0ACFB0028E9
:10200000E9DA0398002805D0002F01D0641E00E013
:10201000029C04600198002806D0FFF746F90221CF
:102020000160C81E05B0F0BD009930040843F9E70F
:10203000F7B516468AB0334878446C4603467C337D
:10204000C06F5A689B680DC42E487844763003AC44
:102050000DC80DC43720C001081837211B30FEF70A
:102060009FFC05460C46803D1B3C02D56442012086
:1020700000E000200027099010E0E0070CD00C20C1
:1020800020497843794432464C3941186846012347
:1020900000F054FA6B4607C364107F1C002CECD18F
:1020A000184F7F442E3F16E0E80712D02001C019D8
:1020B0000EC80691089307920068F04201D1981962
:1020C00008903246012306A903A800F037FA03ABB3
:1020D00007C36D10641C002DE6D10998002806D0B6
:1020E00032466946012303A800F07EFA05E0012389
:1020F0003246694603A800F021FA0A9B07C30DB0D7
:10210000F0BD0000F0590000034640000A4610B53B
:10211000400D0BD00121C9070F24A40200191C0394
:1021200064082143540D2143D20207E0002101201D
:10213000F2E7D40F490021435200401E0029F8DA8B
:10214000DB0FDB07184310BDFFB50D46144685B005
:102150004868516802F000FD00910190A868A168EC
:1021600002F0FAFC02910390A868616802F0F4FCA6
:10217000029A12188242029201D2012000E000204D
:10218000019A0B18D2180028019202D08A4202D973
:1021900003E08A4201D2012000E0002000990818E3
:1021A00000906868A16802F0D7FC029A1218824277
:1021B000029201D2012000E00020019A0B18D218EF
:1021C0000028019202D08A4202D903E08A4201D259
:1021D000012000E00020009908180090286821687C
:1021E00040004900400849084018FA49471814E0DF
:1021F00001994000C90F08430090019802994000DE
:10220000C90F08430190029803994000C90F084381
:102210000290039840007F1E039000980028E7DAA0
:102220000898002801D0EC4E00E00026B74201DA01
:10223000012000E00020002804902AD0F71BF806B7
:10224000C00E15D0029B2021091A039A8B401A4315
:102250000392029A019BC2408B401A430292019A58
:10226000009BC2408B4000991A430192C1400091EB
:102270007B110DD06F460320C11A03D500218200C7
:10228000B95003E08A008100BA587A50401EF3D555
:10229000374603980299002800D00120014308988E
:1022A0000291002808460CD0002800D00120019996
:1022B000019A490508430121D20AC902D2020192BA
:1022C00000E001210E9B0122D207012B02D0002B3E
:1022D00003D013E0002807D120E0904204D89042B8
:1022E0000CD1019B0B4209D0019B5918019105D1DA
:1022F0000099491C009101D17F1C009200280DD04B
:10230000102108460020C0460498002806D00F98E7
:10231000002803D0082108460020C046286821680C
:10232000019B009A4840C10F0598C90739430EC068
:1023300009B0F0BDFFB587B0099A089808995368AD
:10234000926840688968964600220393174694462F
:10235000089A12685300099A5B08126852005208E2
:102360009A1A9E4BD4180A9A002A01D0352200E00E
:10237000402206920022012315460492DB070593B2
:1023800024E0002D05D175460346039E4D1BB34145
:1023900009D375466646039B491B049D9841059BDE
:1023A0007519AC465F4163463B4308D0059B049ECC
:1023B000DD0776082E435B080496059301E0521E64
:1023C000641EC50FED0749184041521C069B9A42F6
:1023D000D7DB002D04D17546039A6B1A824101D2D6
:1023E00003200CE0039A0B466B404240134303D09A
:1023F000014303D0012002E0022000E000206146FA
:1024000001910021009702910A99002905D06146A7
:1024100040020143704B019102E0800700230290CB
:102420009C4201DA012000E0002007003AD01A1B8C
:10243000D006C00E15D0029D2021019C091AC5406E
:102440008C402543029C8C4000D001242543019CF4
:102450000295009DC4408D4000992C430194C140D9
:10246000009154111DD06D460221002202290CD189
:102470000320001B07E0002804DB8600AE59002E75
:1024800000D00122401C0328F5DB081B02D5880080
:102490002A5004E08000285810438A00A850491EA2
:1024A000E3D51C460A98002802980CD0002800D0DA
:1024B00001200199019A490508430121D20AC90264
:1024C000D202019200E00121109B0122D207012BD0
:1024D00002D0002B03D013E0002807D11FE0904268
:1024E00004D890420CD1019B0B4209D0019B591892
:1024F000019105D10099491C009101D1641C009201
:1025000000280CD0102108460020C046002F06D01D
:102510001198002803D0082108460020C0460898DA
:102520000999019A009B006809684840C10F079803
:10253000C907214382600AC00BB0F0BD00B585B069
:10254000019300920A460146002302A8FFF7FCFD12
:1025500002A807C805B000BDFFB50A461F4685B0F2
:102560000799019301230091014602A8FFF7ECFDB2
:1025700002990398049ECA0F4900D20700920F22C5
:10258000490892028C1A0021002800DB0C46450005
:1025900013486D08844214D3079A002A04DA441EB3
:1025A0000026104DF64302E004460D460E4610216B
:1025B00008460020C046002F03D004210846002012
:1025C000C0462005E90A0843009908436905F20A54
:1025D0001143ADE602C0FFFF013C0000FF3F0000D9
:1025E000FF070000FFFFFF7F00B585B00193009259
:1025F0000A460146002302A8FFF79CFE02A807C86E
:10260000A8E7FFB50A461F4685B007990193012345
:102610000091014602A8FFF78DFE02990398049EDF
:10262000CA0F4900D20700920F22490892028C1A61
:102630000021002800DB0C46450011486D0884424B
:1026400014D3079A002A04DA441E00260D4DF643DF
:1026500002E004460D460E46102108460020C04602
:10266000002F03D0042108460020C0462005E90AB7
:102670000843009908436905F20A114358E600002F
:10268000FF070000FFFFFF7F70B516460C460546AA
:10269000FFF76AFA0368FF200230C05C012807D008
:1026A000FF2C0ED8185D00280BD001202C7070BDB7
:1026B000FF333246214608331868C3182846984726
:1026C00070BD0020C04370BDC80212D54803400F42
:1026D000002804D0C803C043012188407047EFF3AD
:1026E00000800001000903210907084380F30088E6
:1026F000704700207047000010B500200249029A80
:1027000000F07CF810BD00000000F87F014918209F
:10271000ABBEFEE7260002007546FDF797FEAE460B
:10272000050069465346C008C000854618B020B56C
:10273000FDF770FE60BC00274908B6460026C0C5FC
:10274000C0C5C0C5C0C5C0C5C0C5C0C5C0C5403D69
:1027500049008D4670473A2800D23038202302467F
:102760009A43412A01D310463738884201D30020CA
:10277000C0437047024670B50A4392072AD11E4DE6
:10278000EE0104C808C9541B9443344017D0D0B29A
:10279000D9B2401A2106014310D190B299B2401A21
:1027A000210401430AD110021902000A090A401A41
:1027B0002102014302D1100E190E401A70BD9A4237
:1027C000DFD010BA19BA884201D9012070BD0020AB
:1027D000C04370BD02780B78401C491C002A09D008
:1027E0009A4207D102780B78401C491C002A01D07C
:1027F0009A42EFD0D01A70BD0101010110B50C460C
:102800001107090F092904D00A290AD008290CD177
:1028100004E011460820FFF757FF06E0510606D5F1
:1028200001E0510601D50120C007214610BDD106A7
:1028300007D501010909CC084907000E0006044329
:1028400009E0410F20024907000A0143200E00065B
:102850001D22D14101430846E7E7704770B58C1847
:102860000578401C6B075B0F01D10378401C2A11CF
:1028700006D10278401C03E00678401C0E70491C0B
:102880005B1EF9D12B0705D40023521E0DD40B700B
:10289000491CFAE70378401CCB1A921C03E01D7810
:1028A0000D70491C5B1C521EF9D5A142D8D30020E3
:1028B00070BD00000000000010B500230C22194676
:1028C000084800F011F80748006A0121084305494B
:1028D00008620846006A0121C902084301490862EA
:1028E00010BD000000000E4030B5046A054D2C40BC
:1028F0000C4314430462446A240A24021C434462C5
:1029000030BD0000F3FBFFFF1FB50C4C1ECC039441
:102910006C460EC4810F89006A465158084A8918CE
:102920004968C306DB0E01229A401143820F9200D0
:102930006B469A58024BD21851601FBDF0780000C8
:1029400000020050F3B589B00C4601200004534941
:102950000862099800280ED1084600680121084342
:102960004E490860012000F085FA002006904C488E
:10297000089002250EE049480068042108434749B1
:102980000860102000F076FA0120C0040690454847
:10299000089004254448844204D84010844201D958
:1029A000002712E04148844205D84010844202D9F1
:1029B0000127640009E03E48844205D84010844263
:1029C00002D30327A40000E057E00020C043039097
:1029D00000200190029034E029460898FDF7D6FFC8
:1029E00005903449059888422AD933490598884288
:1029F00026D2022007901EE0059E07994E432B48E1
:102A0000864215D34000864212D8A64201D9301B17
:102A100000E0A01B049003990498884208D204980F
:102A200003900195079802900398002800D106E0D2
:102A30000798401C0790214907988842DCD900BFBD
:102A40006D1C212DC8D9B803069908430199891E28
:102A5000490208430299891E08431049086204206C
:102A600000F008FA781C019A504301460898FDF7D7
:102A70008DFF029948430BB0F0BD0998002803D19F
:102A80000F480649086202E00E4804490862042023
:102A900000F0F0F900F020F8EDE70000000200502F
:102AA000001BB7000080510100C2EB0B00E1F505EF
:102AB00080F0FA02006A1800C0E1E40001020000A0
:102AC0002EC200006FD60000024909680143014A86
:102AD0001160704700020050FEB5002002901AA05D
:102AE000006800901948046A00132040002801D0B3
:102AF0000020FEBD0120C0042040002801D0144D5C
:102B000000E0144D012040042040002801D0284658
:102B1000EFE7032080032040800B69460A5C0192A6
:102B2000E005C00D861C1F2040022040400A871C83
:102B3000019A7A431146AA0872431046FDF726FF10
:102B4000800002900298D4E70102020400020050C3
:102B500000805101001BB700FEB5002002901AA0B2
:102B6000006800901948046A00132040002801D032
:102B70000020FEBD0120C0042040002801D0144DDB
:102B800000E0144D012040042040002801D02846D8
:102B9000EFE7032080032040800B69460A5C019226
:102BA000E005C00D861C1F2040022040400A871C03
:102BB000019A7A431146AA0872431046FDF7E6FED1
:102BC000800002900298D4E7010202040002005043
:102BD00000805101001BB700FEB5002002901AA032
:102BE000006800901948046A00132040002801D0B2
:102BF0000020FEBD0120C0042040002801D0144D5B
:102C000000E0144D012040042040002801D0284657
:102C1000EFE7032080032040800B69460A5C0192A5
:102C2000E005C00D861C1F2040022040400A871C82
:102C3000019A7A431146AA0872431046FDF7A6FE90
:102C4000800002900298D4E70102020400020050C2
:102C500000805101001BB70070B504462548C068CC
:102C60001021084005462448844200D904462348E0
:102C7000844200D204461F480068042108431D49CD
:102C8000086000BF1B48C068102108400028F9D028
:102C900018480069C008C000C01D164908610846F0
:102CA000006AC90108431349086208460068C00762
:102CB000C00F002805D021460020FFF743FE044640
:102CC0000AE021460120C004FFF73CFE0446094803
:102CD000C0681021084005460021022000F010F8CD
:102CE000002D05D10348006804218843014908608C
:102CF000204670BD0002005080F0FA0240787D014D
:102D000070B504460D461848C068102108400646B4
:102D100015480068042108431349086000BF1248A1
:102D2000C068102108400028F9D00F480069C00889
:102D3000C000C01D0C4908610846806900090001F7
:102D40002843886108460069C008C0002043086124
:102D500001F068F8002E05D103480068102188436F
:102D60000149086070BD000000020050F7B586B050
:102D700000220023394C2546E0CDE46804970396F1
:102D800002950594354D103530CD01950094040120
:102D9000640F002C4AD08400A40FA40002AD2C596B
:102DA0002F4D62190401650FC401E40EA54014689B
:102DB000AC430C4314602B4CA0420BD1284C103C6C
:102DC000E469FF250135AC430D402C43244D103DF3
:102DD000EC612BE0244CA0420BD1214C103CE46967
:102DE00001256D02AC430D402C431D4D103DEC619F
:102DF0001CE01E4CA0420BD1194C103CE46901258B
:102E0000AD02AC430D402C43154D103DEC610DE07F
:102E1000174CA0420AD1124C103CE4690125ED0286
:102E2000AC430D402C430E4D103DEC618403240E49
:102E3000002C11D00403A40FA4006D462C59084D9A
:102E4000083563198403250E8405E40EA5401C682B
:102E5000AC43089D2C431C6009B0F0BDD87800003D
:102E6000100200501400C0571500E05716004066CD
:102E7000170060660146074A05E01046521E00280A
:102E800001DC002070470448C06808408842F4D143
:102E90000120F7E7804F1200000200500B48006A43
:102EA00080210840002806D08020084908620120BF
:102EB0000749087009E005484038006A034940396D
:102EC00008620248006A01490862704740400050A9
:102ED0008800002010B58469130E8B401C43846168
:102EE000C3691402240A8C402343C36110BD70B52A
:102EF000034600200FE0012484400C40002C09D040
:102F00001C6846000325B540AC4346001546B54055
:102F10002C431C60401C1028EDD370BD0446204695
:102F200004F0B0F900BF06E05920084908601620F7
:102F3000086088200860054800680128F4D100BFB7
:102F400005210907886000BFFEE70000000100506E
:102F500010B50B48C4684069C007C00F0121484044
:102F60004840002803D0064800F00EF807E0054866
:102F70000068002803D0204602490968884710BD30
:102F8000000012400C000020416901221143416100
:102F90007047000010B500210C4802F0CDFB0C4931
:102FA000086008460068002801D1401E10BD0021BD
:102FB000084802F0C1FB084908600548006800287D
:102FC00001D1401EF2E70020F0E700004078000049
:102FD000C000002050780000C400002010B501207F
:102FE000154908600A460021144802F0D3FB144931
:102FF000086008460068002806D064211048006870
:1030000002F0E2FB044600BF02200E4908600A46B7
:1030100001210D4802F0BEFB0C490860084600681B
:10302000002807D07D21C9000848006802F0CCFBC9
:10303000044600BF10BD0000E400002060780000DE
:10304000E0000020EC00002068780000E80000208C
:1030500005200007806B0F214902884305210907DD
:1030600088630846806B0F21090208430521090780
:1030700088630D4880680121490308430A49886034
:103080000A4800680A490840001D084908600846C7
:10309000806880088000886008464068000A000256
:1030A00014304860704700000002005000400340A8
:1030B00001F3FBFF10B50120FFF706FD0120FFF72C
:1030C000D9FE2248FFF7C8FD67200006FFF71CFC69
:1030D00000220121490467200006FFF747FE1C4833
:1030E000FFF712FC002211461948FFF73FFE18486F
:1030F000401CFFF709FC1748FFF706FC00221146A9
:103100001348401CFFF732FE05200007406B800883
:1031100080000521090748630846406B03210843E6
:103120000521090748630846406B30218843052183
:10313000090748630846406B302108430521090709
:10314000486303208002086310BD000080F0FA028B
:10315000103D805709000040010E05221207891812
:103160008968012282401143020E05231B07D218F1
:103170009160010E1A4689188A68012181408A43AC
:10318000010EC9188A60704706E059200549086099
:103190001620086088200860024800680128F4D1E1
:1031A000704700000001005038B50024611E374808
:1031B000006802F0B3FA01F09FFF322034A336A278
:1031C00036A1009037A000F0ABF864213A48FDF733
:1031D000D9FB3A4A3AA13848FDF7DAF90A202CA37C
:1031E0002DA23DA10090344800F09AF83C48FDF72C
:1031F0007FFB04463BA13A48FDF79CFB3848FDF7AE
:1032000077FB044643227E21354804F08FF848229C
:103210006021334804F08AF80A221A21304804F069
:1032200085F864212448FDF7ADFB2346234A2FA1EE
:103230002148FDF7ADF9022015A317A226A10090A1
:103240001D4800F06DF82648FDF752FB04461A228F
:103250000D21234802F07CFB14200DA30EA229A10E
:1032600000901F4800F00AF928A12B48FDF72BFB1E
:10327000002803D029491A48FDF784FB01F00AFF12
:103280000248006802F03CFA38BD0000000000204F
:103290004552524F520000004F4B0000526561648E
:1032A000790000000D0A41542B51464C44533D22F5
:1032B000554653220D0A0000680C00208E0E002097
:1032C0000D0A41542B51465345454B3D25732C3037
:1032D0002C320D0A00000000434F4E4E454354006F
:1032E0008C0100200A0A0A0A0A0000000D0A415453
:1032F0002B514657524954453D25732C25642C3398
:103300000D0A000051575249544500002B514657B1
:10331000524954450000000068070020DC05000009
:10332000FFB581B0064614461D460A9F002041495C
:103330008860642002F064F90021C9433E480068B7
:1033400002F0ECF900203D4908603D4908603D4924
:1033500008603D4908603D490860AF2189003C484C
:10336000FDF712FB1A213BA0FDF704F901F052FD15
:103370003046FDF7FFF800BF35480299FDF7A3FA84
:103380002F49086021463248FDF79DFA2D49086013
:1033900029462F48FDF797FA2B490860284800680E
:1033A00000280BD127480068002807D1084600688C
:1033B000002803D121480068B842DDDB26A1304651
:1033C000FDF781FA002829D125A13046FDF77BFAC7
:1033D000002823D11A48006800281CD11948006829
:1033E000002818D118480068002814D1012011497C
:1033F000403948631C480068401C1B490860084667
:103400000068032802DD19A0FDF7B4F8002009497F
:103410004039486302E00020134908600120054953
:1034200088600548006802F06BF9642002F0E8F853
:1034300005B0F0BD404200500000002030000020E8
:10344000580000205C0000206000002028000020C0
:10345000680700202563000051494C4F4349500044
:1034600051474E5353430000B40000200D0A41540D
:103470002B4346554E3D312C310D0A00FFB581B02E
:10348000064614461D460A9F642002F0B9F8002142
:10349000C9433C48006802F041F900203A490860FD
:1034A0003A4988603A4908603A4908603A490860F0
:1034B0003A490860AF2189003948FDF765FA01F003
:1034C000A9FC3046FDF756F800BF35480299FDF7D4
:1034D000FAF92F49086021463148FDF7F4F92D49E2
:1034E000086029462E48FDF7EEF92B490860284868
:1034F000006800280BD127480068002807D108463B
:103500000068002803D120480068B842DDDB01F0E4
:1035100081FC24A13046FDF7D6F9002825D11C48AE
:103520000068002821D11B48006800281DD11A48D6
:103530000068002819D101201449403948631BA0B4
:10354000FDF718F801F066FC6420002106E0002277
:1035500000E0521C194B9A42FBDB491C8142F6DB0E
:1035600000BF0020094940394863012007498860AD
:103570000448006802F0C4F80A2002F041F805B0DF
:10358000F0BD00000000002030000020404200504C
:10359000580000205C00002060000020280000206F
:1035A0006807002051494C4F434950000D0A4154CF
:1035B0002B4346554E3D312C310D0A00FFFF0000D4
:1035C000FFB589B0074614461D46129E0520A7A3E5
:1035D000A8A2A8A10090A8A0FFF7A2FE0020AB49D6
:1035E0008860642002F00CF80021C943A8480068F4
:1035F00002F094F80020A7490860A7490860A7498D
:103600000860A7490860A7490860AF218900A6485B
:10361000FDF7BAF901F0FEFBA44801F0E1FB002838
:1036200004D1A248FDF764F9052859D2A0A0FCF7FF
:10363000A1FF00BF9C480A99FDF745F9964908602B
:1036400021469948FDF73FF9944908602946964874
:10365000FDF739F9924908608F48006800280BD1BE
:103660008E480068002807D108460068002803D16A
:1036700088480068B042DDDB19218C48FDF784F9E9
:1036800000208F4908608F4908601DE086488D49F9
:103690000968405C2F2812DD83488A490968405C2C
:1036A0003A280CDA804887490968405C7F49844A97
:1036B0001268885482480068401C8149086081482B
:1036C0000068401C7F4908607748FDF711F97D4983
:1036D00009688842DAD81A220D21744802F038F9B4
:1036E00000206C4908606C4908606C4908606C49AE
:1036F00008606C490860AF2189006B48FDF744F908
:1037000001F088FB3846FCF735FF00BF66480A9990
:10371000FDF7D9F86049086021466348FDF7D3F802
:103720005E49086029466048FDF7CDF85C490860AD
:103730005948006800280BD158480068002807D174
:1037400008460068002803D152480068B042DDDB1B
:1037500001F060FB5CA15448FDF7B5F8002867D084
:103760005B485C4908605C48006A0121C902084363
:1037700059490862096888B2FDF794FD5549086007
:1037800008460068FDF738FD544A554B01910090FA
:10379000FDF70EFC0022534B03910290FDF7E4F974
:1037A000514A524B05910490FDF702FC0791069097
:1037B000FDF79CF94749086064214D48FDF7E4F89E
:1037C0004B482C2143230A220091019002213648C4
:1037D00002F06EF835494748FDF7ACF846A1454878
:1037E000FDF7A8F842494348FDF7A4F86421404892
:1037F000FDF7CAF837480068FDF7FEFC02460B46A5
:10380000079106903DA13A48FCF7C2FE3849394875
:10381000FDF790F864213648FDF7B6F839483AA12B
:1038200002683348FCF7B4FE31493248FDF782F8AC
:103830003048FDF75DF8384988420BD937492D48A3
:10384000FDF7A2F819492B48FDF774F834A129486F
:10385000FDF770F801200D4988600D48006801F0FF
:103860004FFF052001F0CCFE0DB0F0BD4552524F88
:10387000520000004F4B00000D0A41542B51474E9F
:103880005353433D310D0A0D0A00000040420050E1
:103890000000002030000020580000205C000020C4
:1038A000600000202800002068070020CC0C0020C9
:1038B0000D0A0D0A41542B47534E0D0A0D0A000004
:1038C00090000020AC000020474E524D4300000005
:1038D000000040403400002000000E40E5D022DB14
:1038E000F97E0A400000B04049CA37E7BA15FE3FEA
:1038F000680C00208C0100202C0000002C463D2587
:103900002E316600D80000202C7E602C4C494645A4
:103910003D25640A00000000540B0000DC05000097
:103920006572726F723A52414D66756C6C0A000096
:10393000FFB589B0074614461D46129E0020A049D7
:103940008860FF20F53001F05BFE00209D49086093
:103950009D4908609D4908609D4908609D4908602F
:10396000AF2189009C48FDF70FF81A219BA0FCF7B6
:1039700001FE01F04FFA9A4801F032FA002804D112
:103980009748FCF7B5FF052859D296A0FCF7F2FD41
:1039900000BF91480A99FCF796FF8B4908602146C1
:1039A0008D48FCF790FF8949086029468A48FCF752
:1039B0008AFF874908608448006800280BD1834843
:1039C0000068002807D108460068002803D17D4818
:1039D0000068B042DDDB19218148FCF7D5FF0020EB
:1039E00083490860834908601DE07B488149096874
:1039F000405C2F2812DD78487E490968405C3A28EF
:103A00000CDA75487B490968405C7549784A126848
:103A1000885477480068401C7549086075480068FC
:103A2000401C744908606C48FCF762FF71490968E2
:103A30008842DAD81A220D21694801F089FF002056
:103A40006049086060490860604908606049086032
:103A500060490860AF2189005F48FCF795FF01F0DD
:103A6000D9F91A215DA0FCF785FD3846FCF782FDE7
:103A700000BF59480A99FCF726FF534908602146C0
:103A80005548FCF720FF5149086029465248FCF789
:103A90001AFF4F4908604C48006800280BD14B487A
:103AA0000068002807D108460068002803D145486F
:103AB0000068B042DDDB50A14748FCF704FF002856
:103AC00067D04F484F4908604F48006A0121C9023A
:103AD00008434D490862096888B2FDF7E3FB49498C
:103AE000086008460068FDF787FB484A484B01918B
:103AF0000090FDF75DFA0022464B03910290FDF71E
:103B000033F8454A454B05910490FDF751FA07916A
:103B10000690FCF7EBFF3B49086064214048FCF746
:103B200033FF3F482C2143230A22009101900221B8
:103B3000294801F0BDFE2A493A48FCF7FBFE3AA1AC
:103B40003848FCF7F7FE36493648FCF7F3FE6421A7
:103B50003348FCF719FF2B480068FDF74DFB024680
:103B60000B460791069031A12D48FCF711FD2C4919
:103B70002C48FCF7DFFE64212948FCF705FF2D489F
:103B80002DA102682648FCF703FD25492548FCF7CE
:103B9000D1FE2448FCF7ACFE2A4988420BD92A49B9
:103BA0002048FCF7F1FE0E491E48FCF7C3FE27A192
:103BB0001C48FCF7BFFE0120014988600DB0F0BD34
:103BC0004042005030000020580000205C000020DF
:103BD0006000002028000020680700202563000006
:103BE000CC0C00200D0A41542B47534E0D0A000007
:103BF00090000020AC000020474E524D43000000D2
:103C0000000040403400002000000E40E5D022DBE0
:103C1000F97E0A400000B04049CA37E7BA15FE3FB6
:103C2000680C00208C0100202C0000002C463D2553
:103C30002E316600D80000202C4C4946453D2564B5
:103C40000A000000540B0000DC0500006572726F72
:103C5000723A52414D66756C6C0A000000B503461D
:103C6000184600F001F800BD00BF0B498969012228
:103C7000D20511400029F8D1074908600A280AD165
:103C800000BF054989690122D20511400029F8D1F8
:103C90000D21014A11607047000015401CB507480E
:103CA0000078012809D10A200549064B064A0091EF
:103CB00001900649064800F00DFA1CBD1B000020CB
:103CC000D47A00002C7B0000D07A00008C01002008
:103CD000C07A000028480068F82398434030264BFB
:103CE00018601846806880088000401C9860902109
:103CF000184601620068012318431F4B186000BF7B
:103D00001D480068C007C00F0028F9D11A48006894
:103D1000F8239843C030184B186000211846016200
:103D2000006801231843144B186000BF1248006854
:103D3000C007C00F0028F9D10F480068F823984346
:103D400080300D4B18600021184601620068012385
:103D50001843094B186000BF07480068C007C00F30
:103D60000028F9D10448806880088000024B9860E0
:103D70001846026990B2704700400340134800683B
:103D8000F82398438030114B1860184680688008EB
:103D90008000401C986005221202184602620068EA
:103DA00001231843094B186000BF08480068C0078A
:103DB000C00F0028F9D10548806880088000034BB7
:103DC000986018460169C8B270470000004003407F
:103DD00013480068F82398438030114B1860184648
:103DE000806880088000401C9860352212021846C6
:103DF0000262006801231843094B186000BF08489D
:103E00000068C007C00F0028F9D105488068800805
:103E10008000034B986018460169C8B270470000E3
:103E20000040034070B5FEF7D7FE11490860114805
:103E3000006945076D0F022D03D0A8000E490C58EC
:103E400001E00B4804680B4880690007000F461C1E
:103E500031462046FCF79AFD0849086008490748A2
:103E600000684A108018FCF791FD0649086070BD93
:103E70001401002000020050180100200C01002055
:103E800040420F001001002070470000FFB585B0D0
:103E90000D460F9F002004900390002600240290FE
:103EA0004B20C0000190611E7D48006801F036FC87
:103EB00000207C498860642001F0A2FB00207A4940
:103EC00008600527794908607949086079490860E0
:103ED000794908601A2179A0FCF74CFB2846FCF7C9
:103EE00007FD04904B21C9000498FCF759FD0029F7
:103EF00006D14B21C9000498FCF752FD064605E0A7
:103F00004B21C9000498FCF74BFD461C04980F2870
:103F10007EDD00F07FFF00249BE000206649086002
:103F200061490860AF2189006548FCF72DFD0598BF
:103F3000FCF720FB00BF62480799FCF7C4FC5B4913
:103F400008605F480899FCF7BEFC594908605C4866
:103F50000E99FCF7B8FC57490860544800680028DF
:103F60000BD153480068002807D108460068002894
:103F700003D14D480068B842DDDB00F04BFF002064
:103F80004949086049480068002856D00020086068
:103F90000527464908604649086046490860464981
:103FA0000860AF2189004648FCF7EEFC00F032FFC4
:103FB000701EA04205D14B21C9000498FCF7F0FC0B
:103FC00001910020029009E00399685CFFF746FE2A
:103FD0000398401C03900298401C0290019902989B
:103FE0008842F1DB1A2135A0FCF7C4FA00BF34483F
:103FF0000799FCF768FC2D49086031480899FCF7DF
:1040000062FC2B4908602E480E99FCF75CFC00E02E
:1040100037E0284908602548006800280BD124486B
:104020000068002807D108460068002803D11E4810
:104030000068B842DBDB00F0EDFE1E480068002897
:1040400003D101201F49086006E000201D490860D7
:10405000641CB44200DA60E700BF1A480068002818
:104060000BD1B44209DB18491848FCF78DFCFFF767
:1040700015FE01201649087006E00020144908705A
:1040800002E001200F4908600120064988600448C9
:10409000006801F035FB052001F0B2FA09B0F0BD6F
:1040A0000000002040420050300000205800002056
:1040B0005C00002060000020280000202563000034
:1040C000680700208C000020DC0500008C01002027
:1040D0001B000020FFB5FFB0A0B0002400209E9080
:1040E0009D90002500264B20C0009C90002003904E
:1040F000E7490860E7498860FF20F53001F080FA61
:104100001A21E5A0FCF736FA0020E44908600520F2
:10411000A9900020E2490860E2490860E24908608D
:104120003220E2A3E3A2E4A10090E5A0FFF7F8F8B3
:1041300000209A909B903220DCA3DEA2DEA10090AA
:10414000E4A0FFF7EDF89AA80A212C23022200919F
:1041500001900121E54801F0ABFB1A220D219AA83C
:1041600001F0F6FB9AA8FCF799FB044600F0C4FFA7
:10417000691EDF48006801F0D1FA4B21C9002046D2
:10418000FCF70EFC002906D14B21C9002046FCF7A4
:1041900007FC9D9006E04B21C9002046FCF700FC7F
:1041A000401C9D90002544E10020D24908600F2C5E
:1041B0007EDD00F02FFE0A20BCA3BEA2CEA100909F
:1041C000D0A0FFF7B5FB6421D548FCF7DDFBD5484F
:1041D000D54AD6A10368D248FCF7DAF90A20B3A37E
:1041E000B4A2D8A10090CE48FFF79AF8CD48006855
:1041F000A04210DD0020CB49086000F04BFF0A20F0
:10420000AAA3ACA2ACA10090D1A0FFF789F801202D
:104210009F49086011E1CBA1B448FCF754FB00288A
:1042200003D001209A49086007E16421BC48FCF7EB
:10423000ABFB00F0EFFDBC4ACBA1B948FCF7A8F9F5
:104240000A209AA39BA2BFA10090B548FFF768F887
:1042500000F0E0FDBBA1A548FCF735FB002803D02A
:1042600001208B490860E8E0A048FCF741FB642886
:104270000DD200F00FFF0A208CA38EA28EA1009019
:10428000B3A0FFF74DF8012081490860D5E04B212C
:10429000C90004A8FCF778FB1A220D21934801F00D
:1042A00057FB0A200190914802900020009000E006
:1042B000B7E0002700BF08E00298C15D0198814285
:1042C00002D10098401C00907F1C0298FCF710FB64
:1042D000B842F1D80098401E039004A80A210B466A
:1042E0000091019002218148039A01F0E1FA6421D2
:1042F0008B48FCF749FB00207E490860674908604D
:10430000AF2189007948FCF73FFB9F98FCF732F911
:1043100000BF7648A199FCF7D6FA61490860734856
:10432000A299FCF7D0FA5F4908607048A899FCF799
:10433000CAFA5D4908605A48006800280CD15948FB
:104340000068002808D108460068002804D15348B6
:104350000168A9988142DCDB00F05CFD00204F4938
:1043600008604F48006800284ED0002008600520F3
:10437000A99000204A4908604A4908604A490860F3
:104380005C490860AF2189005848FCF7FDFA00F04D
:1043900041FD00209E9004A8FCF7AAFA9C900026FC
:1043A00007E004A9885DFFF759FC9E98401C9E9089
:1043B000761C9C988642F4DB1A2137A0FCF7DAF8C9
:1043C00000BF4A48A199FCF77EFA35490860474882
:1043D000A299FCF778FA334908604448A899FCF799
:1043E00072FA314908602E48006800280CD12D4827
:1043F0000068002808D108460068002804D1274832
:104400000168A9988142DCDB27480068002805D1B3
:1044100001205B4908601E4908600EE000205849F1
:104420000860404800684B21C90040183D490860B9
:104430006D1C9D98854200DAB6E600BF00F02AFEAA
:104440004F48006800280FD19D9885420CDB00F092
:1044500021FE0020334908600A2014A315A216A1EA
:1044600000903BA0FEF75CFF01200A498860002015
:104470000B4908600B4908600B4908601C4800683C
:1044800001F03EF90A2001F0BBF87FB024B0F0BD86
:104490004C00002040420050256300003000002006
:1044A000580000205C000020600000204552524F60
:1044B000520000004F4B000052656164790000001B
:1044C0000D0A41542B51464C44733D22554653220C
:1044D0000D0A00000D0A41542B51464C53543D2205
:1044E0004C4F472E545854220D0A000068070020F4
:1044F00000000020280000202B4D4750535354410A
:10450000545553000D0A41542B51474E53535244B6
:104510003D224E4D45412F524D43220D0A000000D1
:10452000680C0020480000208E0E00200D0A415427
:104530002B51465345454B3D25732C25640D0A0DE3
:104540000A0000002B434D45204552524F520000B7
:104550000D0A41542B514644454C3D224C4F472EA9
:10456000545854220D0A00000D0A41542B51465252
:104570004541443D25732C3630300D0A0D0A0000AC
:104580008C00002008B55DE000202F490870012054
:104590002E49087000202E4908702E49087002F03C
:1045A000C1F82D480068002808D00A202BA32DA2AE
:1045B0002DA100902FA0FFF703F82EE000F00CFED5
:1045C00034493548FCF7B6F934A13348FCF7B2F961
:1045D00033A13148FCF7AEF964213348FCF7D2F936
:1045E00032480068FCF708FE044622460B4630A11C
:1045F0002D48FBF7CDFF2C492748FCF79BF9642198
:104600002948FCF7BFF92C482CA102682648FBF783
:10461000BFFF25492048FCF78DF927480068E121B4
:10462000C900884208D929A0FBF7A4FFFEF7ACFD1A
:104630000120052109078860294800F0E1FF0A20D0
:1046400000F0DEFFA0E700007500002077000020EA
:104650007800002076000020A80000204552524F2C
:10466000520000004F4B00004D47505353544154EB
:10467000555300000D0A0D0A41542B51474E535318
:1046800052443D224E4D45412F524D43220D0A0DBD
:104690000A0D0A00CC0C00208C0100202C00000028
:1046A000414C495645000000680C002034000020B1
:1046B0002C463D252E316600D80000202C7E602C33
:1046C0004C4946453D25640A000000000D0A41544E
:1046D0002B4346554E3D312C310D0A0D0A0000008A
:1046E000241300001CB5A4E0002052490870524970
:1046F00008700120514908700020514908700120BC
:1047000050A352A255A1009055A0FEF709FE6420C7
:1047100000F076FF00F08CFB5548007801282DD181
:1047200000F00EFC53480078012827D1052045A34E
:104730004AA251A1009052A0FEF7F2FD052041A32C
:1047400046A24DA1009052A0FEF7EAFD05203DA330
:1047500042A249A1009055A0FEF7E2FD052039A331
:104760003EA245A1009056A0FEF7DAFD022035A337
:104770003AA257A1009057A0FEF7D2FD052031A321
:1047800036A23DA1009058A0FEF7CAFD04202DA33B
:1047900032A239A1009059A0FEF7C2FD0A205BA306
:1047A00028A25CA100905DA0FEF7BAFD0020674939
:1047B00008600A2066A123A367A2009101906749BF
:1047C00067A0FFF763FB6148006801281ED1FEF770
:1047D000EBFC0A204DA31BA266A1009068A0FEF787
:1047E0009FFD0A2017A319A21CA1009069A0FEF743
:1047F00097FD0A2013A315A21FA1009018A0FEF791
:104800008FFDFF20F53000F0D9FE12E0654800680A
:10481000E121C900884208D963A0FBF7ABFEFEF78F
:10482000B3FC01200521090788607D20000200F00B
:10483000E7FE59E77500002077000020780000208F
:10484000760000204552524F520000004E4F542037
:10485000494E534552544544000000004F4B000060
:104860000D0A41542B4346554E3D310D0A0D0A00A9
:104870003D0000203E000020526561647900000088
:104880000D0A41542B43475245473F0D0A0D0A007C
:104890000D0A41542B51495245474150503D226920
:1048A00073616665220D0A0D0A0000000D0A41546D
:1048B0002B51495245474150500D0A0D0A00000046
:1048C0000D0A41542B51494143540D0A0D0A000071
:1048D0007A0000000D0A41542B51494C4F43495076
:1048E0000D0A0D0A000000000D0A41542B515343DC
:1048F0004C4B3D310D0A0D0A000000000D0A4154D9
:104900002B4353510D0A0D0A000000004641494C4B
:1049100000000000434F4E4E454354000D0A4154E1
:104920002B51494F50454E3D22544350222C2231A9
:1049300030342E3233362E3230332E34222C223580
:10494000353536220D0A0D0A000000008C000020CB
:1049500053454E44204F4B003E0000008C01002088
:104960000D0A41542B514953454E440D0A0D0A0D71
:104970000A000000434C4F5345204F4B0D0A0000E6
:104980000D0A41542B5149434C4F53450D0A0D0A12
:10499000000000000D0A41542B4346554E3D300D9A
:1049A0000A0D0A00D80000200D0A41542B43465539
:1049B0004E3D312C310D0A0D0A00000070470000F9
:1049C00010B504460C480068401C0B49086000F014
:1049D00061F90A480078401C40B20849087008484C
:1049E0000068401C064908600648406801214840AC
:1049F0000449486010BD000030000020DC000020A9
:104A0000D8000020004200500AE009480068094927
:104A1000094A1268885408480068401C0649086022
:104A2000034880690121890308400028EDD07047C0
:104A300000001540680700202800002010B5094834
:104A4000FEF78AFBE1214902074800F00FF806480B
:104A5000406801210843044948600D2000F0AAF88D
:104A600010BD00001100000400001540F0B587B033
:104A700004460D46274801460EC9C06803AE0EC65F
:104A8000069000200290244840690321090608404E
:104A9000060E214880690F2109020840070A0020FC
:104AA00020630320E060A0681C490840A060012E3C
:104AB00004D1FEF751F8B10003AA5050002D26D0C2
:104AC000B10003AA5058791CFBF760FF6908401831
:104AD00029460190FBF75AFF801E02901049029868
:104AE00088420FD9B10003AA5058791CFBF74EFF3A
:104AF000E900401829460190FBF748FF0009801E95
:104B0000606204E00321090702980843606207B06D
:104B1000F0BD000010790000000200500FFFF0FF10
:104B2000FFFF0000024803490860012088607047C9
:104B3000A55A00000041004010B50B040343012AB0
:104B400001D1022400E00024234301242343014C2B
:104B5000636010BD00410040F8B5040C8BB22646DE
:104B600082B25E430D0C1046370C58433604801950
:104B70000021794116466E43370C3604801979417D
:104B800026466E438919F8BD4900CA020243100047
:104B900000D004204A0D01D001221043044A490DDF
:104BA000914201D102210843012800D1052070471C
:104BB000FF070000002805DBC206D20E012191404C
:104BC000014A11607047000000E100E010B508489C
:104BD0000078002809D001F09DFD002805D0602153
:104BE000484304494018603810BD034810BD000018
:104BF00039010020FC3100206034002010B5002A6B
:104C000006DA52005208D21DD308DB00102203E05E
:104C1000D21C93089B000C22002B02D09C188C42C3
:104C200001D9012010BD82188360411802604160E3
:104C3000C91AD018884202D810600246F9E700204D
:104C4000106010BD30380A2801D2012070470020C2
:104C50007047000080B505490978002904D0054F48
:104C600000680349BC4600DF80BD00003901002018
:104C7000FFFF0000D55F000080B5044909780029D6
:104C800003D0034F0068BC4600DF80BD390100201F
:104C9000FD5E000070B549480078401C40B24749AD
:104CA000087008460078012806D100204449C860F1
:104CB0000861486188617FE042480068FCF79CFA1F
:104CC0000446414A414B02F071FD09D23C488069DB
:104CD000012148403A49886148610861C86068E03C
:104CE00038480068FCF788FA04460022384B02F086
:104CF0002BFD09D23248C068012148403049C860C4
:104D000000203449087054E02E480068FCF774FA1B
:104D100004460022304B02F017FD0FD22848C0682D
:104D2000012148402649C8600846006901214840E1
:104D3000234908610020274908703AE021480068AB
:104D4000FCF75AFA04460022244B02F0FDFC15D26F
:104D50001B48C068012148401949C86008460069DD
:104D60000121484016490861084640690121484030
:104D7000134948610020174908701AE01048C068BC
:104D8000012148400E49C860084600690121484099
:104D90000B490861084640690121484008494861BB
:104DA0000846806901214840054988610020094979
:104DB000087000200149087070BD0000D400002078
:104DC0000042005034000020666666666666124047
:104DD00000000A403C00002000000C4000000E4093
:104DE000F8B5054600272846FBF782FD0746002454
:104DF0000AE0285D2F2804DD285D3A2801DA002624
:104E000001E0012602E0641CBC42F2DB00BF70B28C
:104E1000F8BD000002E005490968C8B20349896984
:104E20000122920311400029F5D07047000015407F
:104E300010B500202E498860642000F0E1FB0021BD
:104E4000C9432C48006800F069FC00202A4908602A
:104E500005242A4908602A4908602A4908602A4925
:104E60000860AF2189002948FBF78EFD1A2128A090
:104E7000FBF780FBFFF7CEFF26A0FBF77BFB00BF15
:104E800028A12248FBF71FFD1C49086028A11F48E4
:104E9000FBF719FD1A49086026A11C48FBF713FD12
:104EA000184908601548006800280BD114480068AC
:104EB000002807D108460068002803D10E48006882
:104EC000A042DDDB01200A498860FFF7A3FF0B4801
:104ED0000068002803D001201849087002E0002073
:104EE000164908700348006800F00AFC10BD000075
:104EF00040420050000000203000002058000020F8
:104F00005C000020600000202800002068070020CE
:104F1000256300000D0A41542B4350494E3F0D0AB2
:104F20000D0A00004350494E3A2052454144590071
:104F30004F4B00004552524F520000003D000020F0
:104F400010B586B000203B498860642000F058FB13
:104F50000021C9433848006800F0E0FB00203749D1
:104F600008600524364908603649086036490860FB
:104F700036490860AF2189003548FBF705FD1A2145
:104F800034A0FBF7F7FAFFF745FF33A0FBF7F2FA7F
:104F900000BF35A12E48FBF796FC2949086035A1D2
:104FA0002B48FBF790FC2749086033A12848FBF702
:104FB0008AFC254908602248006800280BD1214856
:104FC0000068002807D108460068002803D11B4864
:104FD0000068A042DDDBFFF71DFF01201549886056
:104FE000002003900490059003A80A212C2302229C
:104FF000009101900121164800F05AFC20A103A85D
:10500000FBF761FC002805D11EA103A8FBF75BFCA0
:10501000002803D001201C49087002E000201A4932
:1050200008700548006800F06BFB052000F0E8FA06
:1050300006B010BD404200500000002030000020AB
:10504000580000205C0000206000002028000020A4
:1050500068070020256300000D0A41542B43524588
:10506000473F0D0A0D0A00004350494E3A20524571
:10507000414459004F4B00004552524F520000002E
:1050800031000000350000003E00002001460020F5
:10509000C043704708B564210A48FBF773FC0A4A0D
:1050A0000AA10848FBF774FA0A200DA30EA20FA16B
:1050B00000900448FEF734F914210348FBF762FC22
:1050C00008BD0000680C00208E0E00200D0A41541F
:1050D0002B5146434C4F53453D25730D0A0D0A0095
:1050E0004552524F520000004F4B00002B434D459C
:1050F000204552524F5200001CB52048FBF7F8FBE8
:10510000002839D10A201E4B1E4A1F4900901F4813
:10511000FEF706F91E491F48FBF7D5FB002814D0FF
:1051200001201D4948631D48FBF724FA00201A4955
:10513000486314211148FBF725FC0A20104B114A43
:10514000114900901148FEF7EBF80C480A21202382
:1051500002220091019001210E4800F0A9FB0A22D1
:105160000D21064800F0F4FB05200D4B044A0549CB
:1051700000900C48FEF7D4F81CBD00008E0E0020F5
:105180002C7B0000247B0000347B0000F07A0000C0
:10519000287B000068070020004200500C7B0000C4
:1051A0001C7B0000DC7A000030B504460D4620462A
:1051B000FEF754FD204630BD0548C068002803D0E6
:1051C00000200449086002E001200249086070479D
:1051D00080420050A800002010B50021C9433D487E
:1051E000006800F09BFAFFF715FE00203A490860BE
:1051F0003A4908603A4908603A490860AF21890095
:105200003948FBF7BFFB1A2138A0FBF7B3F932216D
:105210003748FBF7B7FB00203649086036A0FBF79C
:10522000A9F900BF38A13048FBF74DFB2A490860B7
:1052300036A12D48FBF747FB2849086035A12A48CD
:10524000FBF741FB264908602348006800280BD182
:1052500022480068002807D108460068002803D1CA
:10526000244800680528DDDB00202B4908602B4915
:1052700008601DE01C4829490968405C2F2812DDA0
:10528000194826490968405C3A280CDA164823492F
:105290000968405C1649204A126888541E48006814
:1052A000401C1D4908601D480068401C1B490860DF
:1052B0000D48FBF71DFB194909688842DAD81A2204
:1052C0000D210B4800F044FB0248006800F018FA7A
:1052D00010BD000000000020580000205C000020ED
:1052E00060000020280000206807002025630000DF
:1052F000CC0C0020300000200D0A0D0A41542B4731
:10530000534E0D0A0D0A00004F4B00004552524FFC
:1053100052000000434D450090000020AC000020EA
:105320000EB502468020002A0DD000290BD111783D
:10533000012908D1104601A900F021F8042801D064
:10534000002000E01020029A019903B000BD70B562
:105350000D46040004D0002A02D12078012801D093
:10536000802070BD204600F0C9FC002805D02946E9
:10537000204600F02AF8002070BD812070BD10B5D5
:105380000446808900281FD06089800000190069C8
:1053900008606068002808D06078022805D10021E4
:1053A000204600F09FFE00F08DFE72B6A089401EE0
:1053B000A08162B66089401C80B26081E189884228
:1053C00001D100206081042010BD10B500F08AFEDC
:1053D00000F078FE10BD000008B500BF06E05920BF
:1053E000534908601620086088200860504800680B
:1053F0000128F4D100BFFDF75DFE00BF00204C493D
:10540000086000BF00F00AF9002280214948FDF73A
:105410006EFD0122120407214648FDF75BFD0420C2
:10542000FFF7C8FB0122022142484038FDF75FFD2B
:105430000122D1033F484030FDF759FD00220821E9
:105440003C484030FDF753FD012291033948FDF7F8
:105450004EFD0122D1033748FDF749FD01203649B1
:105460008863C8630122202103208002FFF764FBC8
:1054700000BF32480068402108433049086000BF3F
:105480000120FFF797FBFDF7E3FDFFF7D7FAFDF7E4
:1054900081FDFDF7A3FDFDF70FFA294800F016F98D
:1054A00028490860284800F011F928490860284870
:1054B00000F00CF92749086000F0C4F8FEF70AFC78
:1054C00025490860FEF75AFC23490860FEF780FC76
:1054D00021490860FFF770FE052020A321A222A128
:1054E000009023A0FDF71CFF0A201CA31DA21EA1F3
:1054F000009023A0FDF714FFFFF7FEFD0A2017A37D
:1055000018A219A1009024A0FDF70AFF0EE00120C7
:105510002649087000202649087026490870264947
:105520000870FFF749FE0A2000F06AF8EFE7000074
:1055300000010050404000504042005000400040F8
:1055400034780000000000203878000004000020BB
:105550003C78000008000020B00000204552524F67
:10556000520000004F4B000052656164790000005A
:105570000D0A41542B5153434C4B3D310D0A000051
:105580000D0A41542B53595354454D5354415254D1
:10559000530D0A0D0A0000000D0A41542B51474ECD
:1055A0005353433D310D0A0D0A00000075000020E1
:1055B000770000207800002076000020002106E01F
:1055C000002200E0521C034B9A42FBDB491C814243
:1055D000F6DB7047FFFF0000F8B505460E4628468B
:1055E000FBF786F90746002405E0285DB04201D1AB
:1055F0000120F8BD641CBC42F7DD0020F9E7000083
:1056000080B5EFF30581002901D0822080BD024FD3
:10561000BC4600DF80BD00004773000080B5EFF39B
:105620000580002801D0822080BDEFF31480C007E0
:1056300003D0034FBC4600DF80BD01F08DFE80BD6E
:105640005973000080B588B0EFF30580002802D0C0
:10565000822008B080BDEFF3148081071248890FC3
:1056600006D001291AD0022910D0032918D112E03E
:1056700008A981F309880078C0070AD0022080F3C6
:105680001488BFF34F8FBFF36F8F09E00078C00716
:1056900006D10320F3E70078C00701D0FF20D8E748
:1056A000024FBC4600DFD4E788780000D1730000C9
:1056B00080B5EFF30582002A02D0FFF731FE80BDEE
:1056C000014FBC4600DF80BD4774000080B5EFF39A
:1056D0000581002901D0002080BDEFF31481C907A6
:1056E00003D105494978002903D0044FBC4600DFA7
:1056F00080BD01F0C6FE80BD38010020837400002B
:1057000080B5EFF30581002901D0822080BD024FD2
:10571000BC4600DF80BD0000A374000080B5EFF33D
:105720000582002A01D0822080BD024FBC4600DFE6
:1057300080BD0000C774000080B5EFF30582002A29
:1057400001D0002080BDEFF31482D20703D1054AB7
:105750005278002A03D0044FBC4600DF80BD01F020
:10576000D1FE80BD3801002005750000034FBC4606
:1057700000DF034FBC4600DFFEE700007975000044
:105780009575000080B5024FBC4600DF80BD00006B
:10579000D175000080B5EFF30583002B01D0002008
:1057A00080BDEFF31483DB0703D1054B5B78002B3F
:1057B00003D0044FBC4600DF80BD01F017FF80BD61
:1057C00038010020ED75000080B5EFF30582002A56
:1057D00001D0822080BD024FBC4600DF80BD0000AA
:1057E0002D7600000025094CED4329462068FFF77F
:1057F0005FFF02460846102AF7D1FFF7C3FF0028D3
:10580000F3D0024608469047EFE70000F40000207E
:10581000012806D0022805D0032804D0042804D18A
:1058200002E003E002E001E000E000BF00BF00BFD3
:1058300006E0084A59211160162111608821116083
:10584000044909680129F4D100BF052212079160BB
:1058500000BFFEE70001005000BF054900200870AE
:105860000449087004490870044901200870F4E7ED
:1058700075000020770000207800002076000020CE
:1058800007480168074841610021816107210161E2
:105890000548016AFF221206114301624017704752
:1058A0008478000000E000E000ED00E070470000B8
:1058B000FFB585B006461F4639463046FFF78CFED9
:1058C000002841D030460E99FFF786FE00283BD0D5
:1058D0003046FBF70DF804900F98FBF709F803909A
:1058E00003990F98FBF74EF8002400250AE0315D7C
:1058F0000E98814201D16D1C02940798854200DB0D
:10590000124C641C04988442F1DB0024002509E059
:10591000305DB84201D16D1C01940698854200DBD0
:105920000A4C641C04988442F2DB002406E00198CF
:105930000019401C315C0F980155641C01990298B4
:10594000401A401EA042F2DC09B0F0BDAC260000B7
:1059500030B503460C461946184615E00D7805701B
:10596000491C0578A5420DD0057895420AD00578E6
:10597000202D07D005782F2D04D005783A2D01D0A1
:10598000012500E0002528180D78002DE6D10570CE
:1059900030BD0146EFF31080C207D20F72B608681F
:1059A000002801D003680B60002A00D162B670475E
:1059B00010B500280ED000290CD00B318A089200B7
:1059C000016844680B1A1B1B934205D208460968FC
:1059D0000029F5D1002010BD210007D0211803684F
:1059E0000B604A6001600846083010BD4260083014
:1059F00010BD000070B50D4600280FD00849094CB5
:105A0000884204D222680146104600F08BFB2068D1
:105A10004570054800F0DFF800F050FC70BD000054
:105A2000FFFF0000400100203034002010B50E4878
:105A30000C4942680D480B680068934204D00A6024
:105A4000CB88421E9A188A808A8880B2824208D106
:105A500000200860044800F0BEF80146024800F04B
:105A600089FB10BD5401002030340020500100207B
:105A700070B51A4DE86800282FD0A88A401EA88269
:105A8000002624E0A068002808D0616841606068B2
:105A9000002802D0A16881606660A6600F48214698
:105AA000183800F067FBA08AA8826078042804D127
:105AB0000B49E08A09884018A08201206070E068E4
:105AC000E860E068002801D00561E6602661A88AE8
:105AD000002802D1EC68002CD4D170BD48340020DD
