:020000040000FA
:10000000B0050020F10000000D010000D500000047
:1000100000000000000000000000000000000000E0
:1000200000000000000000000000000011010000BE
:100030000000000000000000130100001501000096
:100040001701000017010000170100001701000050
:100050001701000017010000170100001701000040
:100060001701000017010000170100001701000030
:100070001701000017010000170100001701000020
:100080001701000017010000170100001701000010
:100090001701000017010000170100001701000000
:1000A0000000000017010000170100001701000008
:1000B00017010000170100001701000017010000E0
:1000C0000348854600F026FA00480047291400003E
:1000D000B005002004207146084202D0EFF30980E9
:1000E00001E0EFF308807146004A10471D0600004A
:1000F00009480A4901600A4901600A4901600A4A3F
:100100000A4911600021016009480047FEE7FEE747
:10011000FEE7FEE7FEE7FEE70001005059000000A1
:10012000160000008800000060000050A55A000082
:10013000C100000030B50B460146002020220124FA
:1001400009E00D46D5409D4205D31D469540491B0B
:100150002546954040191546521E002DF1DC30BD54
:10016000F8B500242546002904DA0E4601240021B2
:100170004042B141002B04DA1E46002352420125C1
:10018000B34100F017F98C4617461E46AC4203D027
:10019000002540428D41AC46002C02D0002657423B
:1001A0009E4161463A46334601B0F0BDF0B51FB4FA
:1001B00086B000200090019002900698069980B2C7
:1001C00004900798090C02040014114307900027BB
:1001D000089D099806913E463C4603900398A9B2B3
:1001E0000204000C039004982D0C15434843002191
:1001F000224600F00FF9C719714110340E46402C09
:10020000ECDB3846029A00F005F9009A019B801851
:100210000090594102980191103002904028CCDBA7
:1002200000980BB0F0BD03460B439B0703D009E0D9
:1002300008C9121F08C0042AFAD203E00B78037021
:10024000401C491C521EF9D27047421C0178401CC8
:100250000029FBD1801A704703460A780270401CBF
:10026000491C002AF9D1184670470000F0B50C4629
:100270005C4085B0E40FE40703944C00002664085A
:1002800059009446490802460296224321D062460C
:100290000A431ED06200570D4A000E032303550D7A
:1002A000012402462C492405781B1B0B360B4018F1
:1002B00023432643614600901C46501AB44103D3A1
:1002C0000098401C009002E0921800985B410028C2
:1002D00003DA0020014605B0F0BD00200121090528
:1002E0000746864611E064461D46141BB54106D3F9
:1002F0006546521BB341744607430C43A646CD07DF
:1003000040084908284392185B4105460D43EAD14D
:100310001046184313D060461946504071400843B8
:1003200006D06046101AB34106D20122002306E02F
:1003300000220123DB0702E00122D2435310009880
:1003400074460105381C6141029C039D00196941F6
:1003500000F081F8BFE70000FD0300000EB505497D
:100360000291002100910A460B46019100F080F8AD
:1003700003B000BD330400004A0009030123090B48
:100380001B051943094B10B5520D9A4201DA0020A2
:1003900010BD064B34339A4203DC9A1A00F04AF837
:1003A00010BD03495118884010BD0000FF03000034
:1003B000CDFBFFFFF0B51FB40646002082B0054616
:1003C0004024019100901BE0019922460F463046DF
:1003D00000F030F8049A059B801A994110D310461A
:1003E0001946224600F016F8361A8F410197224628
:1003F00001200021009F00F00DF838184D410090B9
:100400002046641E0028DFDC019B00982946324606
:1004100007B0F0BD10B5202A04DB0146203A914018
:10042000002010BD914020239C1A0346E34019434D
:10043000904010BD10B5202A04DB0846203AD04079
:10044000002110BD0B46D340D0402024A21A914079
:100450000843194610BD10B5002B08DA0024401CD3
:10046000614192185B411A4301D14008400010BD20
:10047000F0B51FB482B005460C0003D0084600F06A
:1004800039FE02E000F036FE2030024600902146A0
:100490002846FFF7BFFF049B059A04460F46184302
:1004A0001143084314D0184610431BD00098402134
:1004B0000A1A18460599FFF7BDFF05460E46009A31
:1004C00005990498FFF7A6FF084305D0012004E032
:1004D0002046394607B0F0BD0020C11705430E4342
:1004E0002C43374300990E986305401A7905E40AB6
:1004F00000220C43FD0A0A3002D500200146E9E73C
:100500000105101969410C9C0D9D00196941FFF707
:10051000A2FFDFE7064C0125064E05E0E36807CCA5
:100520002B430C3C98471034B442F7D3FFF7CCFD73
:1005300088190000A8190000044904200861044833
:10054000016850221143016030BF704700ED00E0A8
:1005500000020050064909684843064948610022E4
:100560008A61052008610869C003FCD50A617047EB
:100570000400002000E000E010B504460749084BE5
:1005800005E00A46491E002A01DC002010BDDA6899
:1005900020469043F5D1012010BD000060EA000024
:1005A0000002005010B500F0A9FC00200521090749
:1005B000086348638863C8631349086048608860BB
:1005C000C8600861486177200002886110490F48BF
:1005D00048620F49403148620D49803148620C49F8
:1005E000C03148620B4948620A49332040314862B1
:1005F0000948816842049143816001680222914365
:100600000160FFF799FF10BD40000050FFFF0000A0
:1006100000400050004100500002005004460CA071
:1006200000F058FD204600F0A7FF592116230E4880
:10063000882202E00160036002600468012CF9D1A5
:10064000052000078168012211438160FEE7000058
:10065000496E2048617264204661756C742048615F
:100660006E646C65720A000000010050F0B51FB4A2
:1006700086B00998002806DA0898002800DA404277
:10068000C117099108900999089800240A220023AB
:10069000FFF766FD0546084301D11A4302D02846FC
:1006A000641CF3E70020029006982949C0000E5808
:1006B0000127761E49D4069A9200401803920190B1
:1006C0003A46029B09990898FFF74AFD0A2200233F
:1006D000FFF746FD102010181E4A0399400051589C
:1006E0000024085A254605901EE01B4A03987143D2
:1006F00010584A00844681182019431CC95C1218FE
:1007000060460091805C0022049000F0BDF9012059
:100710000599A040084204D001220099049800F0F5
:10072000B3F90020641C4541019800224168284625
:10073000631A9041D9DB0A22002338460299FFF759
:1007400035FD07460291761EBAD50BB0F0BD00000C
:100750003C1700005C00002050000020F0B504466B
:1007600087B00E460846FFF770FD05901F49E00070
:100770000025A70003904018029030E005988542BC
:1007800001DA307800E0202019494000C95940388A
:10079000085A002404901CE016486943C0594900D7
:1007A000844643186000421C9A5C09180092604617
:1007B000405C00220190009900F066F90120049944
:1007C000A040084204D001220099019800F05CF991
:1007D000641C02984168A142DED86D1C761C034857
:1007E00003994058A842C9D807B0F0BD3C17000093
:1007F0005C00002050000020830010B50548C3585D
:100800004800411C595C185C002A00D0012200F00D
:100810003BF910BD5000002006480168802291433A
:10082000016000210163416BC90701D001214163CF
:100830007047000000000B40F1B57D200026012428
:10084000C0000099FFF776FC05462C4807687D201C
:10085000C0003946FFF76EFCBD4200D9009001464A
:100860000098FFF767FC05463F2822D902247D2621
:10087000F60021463846FFF75DFC01463046FFF79B
:1008800059FC01460098FFF755FC0546402802D95F
:100890006400082CEDD9022C05D0042C05D0082CBE
:1008A00005D00020F8BD042606E0082604E00C264A
:1008B00002E0002D00D101251148016B0C2291436B
:1008C00031430163016B3F22120191432A01103A27
:1008D00011430163016B012211430163016880220E
:1008E0001143016021463846FFF724FC01467D2074
:1008F000C0006843FFF71EFCF8BD000008000020A0
:1009000000000B40F0B58FB017460E4604461D465A
:10091000202245496846FFF786FC434918222031CA
:1009200008A8FFF780FC05200007C1680122920695
:100930001143C160C1689143C1603C4B18684008D5
:1009400040001860002000F077F840201022002CB2
:1009500005D0012C19D0022C17D0032C25D15968B1
:100960008143596058680721C90288435860586814
:10097000C9108843149908435860586890435860D8
:1009800058680121084358600FE059684908490038
:1009900059605968014359605868904358605968D4
:1009A000022C1CD000200143596018687021884334
:1009B000186018682843186018680E218843710071
:1009C000891E0843186058680621884338435860D8
:1009D00017484069400304D40124E40303E01020D5
:1009E000E1E70524E402186819684006400F09078A
:1009F0004F0F800069460858FFF7B0FC05460E46C9
:100A00002046FFF7ABFC33462A46FFF72FFC094C84
:100A1000E160A060FFF7B0FCB90008AA5158FFF7E9
:100A200089FB20600FB0F0BDD416000000000B4021
:100A30000002005008000020002801D00020C04320
:100A40000E498860C860086148618861C8610862B1
:100A5000486288620A4801680A48002903D0FF22D8
:100A60002D32514300E00F214161002181610521B8
:100A700001610169C903FCD57047000000000B400B
:100A80000400002000E000E030B58C080123834022
:100A900088088000081AC000424D8340002A32D0E6
:100AA000002C12D0012C13D0022C14D0032C15D002
:100AB000042C16D0052C17D0062C18D0072C19D0D2
:100AC000082C1AD0092C1BD059E0A868184331E033
:100AD000E868184332E02869184333E0686918432E
:100AE00034E0A869184335E0E869184336E0286A1D
:100AF000184337E0686A184338E0A86A184339E0B9
:100B0000E86A18433AE0002C12D0012C14D0022CD1
:100B100016D0032C18D0042C1AD0052C1CD0062C6F
:100B20001ED0072C20D0082C22D0092C24D026E05F
:100B3000A8689843A86022E0E8689843E8601EE04F
:100B40002869984328611AE068699843686116E04B
:100B5000A8699843A86112E0E8699843E8610EE04B
:100B6000286A984328620AE0686A9843686206E047
:100B7000A86A9843A86202E0E86A9843E8620A48D3
:100B800001680A48002903D0FF222D32514300E0BA
:100B90000F21416100218161052101610169C903C2
:100BA000FCD530BD00000B400400002000E000E058
:100BB00030B5394A5169CB07DB0FC36191694907E9
:100BC000490FC160116909020C0F34494C60146966
:100BD0002403240F8C601469E5040124ED0FCD601B
:100BE00015692D052D0F0D611569AD06AD0F4D6110
:100BF00015692D072D0F8D61D568AD02AD0FCD6143
:100C0000D5682D032D0F0D62D5686D046D0F4D62F3
:100C1000D5682D052D0F8D62D5686D066D0FCD62DF
:100C2000D2681207120F0A634A680A256A438D6860
:100C300052197D252D0152190260CA680A256A439E
:100C40000D69521942604A690A256A438D69521931
:100C50008260CA69002B04D00A235A430B6AD21857
:100C600009E00A235A430B6AD2180261152A04D3F9
:100C70000223143A0362026100E004624A6A0A2312
:100C80005A438B6AD2184261CA6A0A23096B5A43D3
:100C90005118816130BD0000008000401C00002020
:100CA000F8B504467D20C0000090384E36483060CC
:100CB0003168012903D0306030680128FCD1002C54
:100CC00051D0E069324D00284ED075607068C00385
:100CD000FBD570690121084370617D202168000106
:100CE000081A0A21FFF726FA0F04000507430A2114
:100CF0006068FFF71FFA000338430F0207430A2119
:100D0000A068FFF717FA00013843224F014339600A
:100D10001F4870607068C003FCD5386830610A21D4
:100D20002069FFF707FA0D04000505430A216069F1
:100D3000FFF700FA000328430D0205430A21A069CA
:100D4000FFF7F8F90001284301433960104870604B
:100D50007068C003FCD53868F060E068B061009846
:100D6000411E0091FBD2F8BD75607068C003FBD5D1
:100D70007069400840007061206A0228ADD1206986
:100D800014302061A9E700005713EBA50080004054
:100D900065A900001C00002070B500F09FF8474CCA
:100DA000206840084000206020680121084320603E
:100DB00020680225284320600846FFF7DDFB02205B
:100DC000FFF7DAFB2069C008C000206120692061BC
:100DD00060698008800060616069606160696102CB
:100DE0008843606160696061A06889100843A06001
:100DF000A06889020843A060A0682843A06000F0B2
:100E000015F905200007416B77231B0699434163C1
:100E1000416B3322520611434163016B284C21433D
:100E20000163416B22141143416326498163C1630D
:100E3000254802680D122A43026042681A43426044
:100E4000826822438260C16001691A011143016115
:100E500041691E4A114341611D49486852061043C9
:100E600048601B484030426803231B041A43426019
:100E700042680F239B041A434260154A403A536864
:100E8000FF242405234353604A68124B1A434A60E7
:100E900041689A03114341600D48803041689212C5
:100EA000114341600A48C03041680B4A1143416018
:100EB00005490020C031086070BD000000020050EC
:100EC00000007777777777774000005007007077DA
:100ED000404000500000FFF1000080E110B55921B2
:100EE00016230548882202E001600360026004685E
:100EF000012CF9D110BD00000001005005210907A7
:100F00000A6B184802604A6B42608A6B8260C96B48
:100F1000C16015490A6802614A6842618A68826153
:100F2000CA68C2610A6902624A6942628969816269
:100F30000E48416A0B482C3001600C494031496A27
:100F400041600A498031496A81600849C031496A73
:100F5000C1600749496A016105494031496A4161F7
:100F60007047000068000020400000500040005022
:100F70000041005006498A695205FCD408600A28DD
:100F800004D188694005FCD40D200860704700003A
:100F90000000054010B50D4C206941070C48490F71
:100FA0000DD0012904D0022905D0032906D006E07E
:100FB0000120C00303E000F00FF800E00548E169FC
:100FC0000907090F491CFFF7B5F810BD00020050D2
:100FD000001BB7001027000010B51248406AC1037B
:100FE00001D5002010BDC10401D5022400E0012478
:100FF0008105890F0FD001290FD002290FD01021B0
:101000008006800E084A20305043FFF793F82146AF
:10101000FFF790F810BD0221F2E70421F0E7082164
:10102000EEE7000000020050001BB70010B5FFF70C
:10103000B1FF044C044920604A108018FFF77AF889
:10104000606010BD0000002040420F0010B5E1219B
:101050004902024800F004F810BD000000000540FD
:101060007FB5194A0E4604460FCA6D460FC517498B
:1010700048696A468007000F1058C96909050D0FB5
:101080006D1C002801D1FFF7A7FF2946FFF752F892
:1010900005460020A0630320A060002E13D0700836
:1010A00040193146FFF746F80949401E884209D9E0
:1010B000F00040193146FFF73DF801210009C9074A
:1010C000401E084360627FBD0C1700000002005004
:1010D000FFFF00000FB410B503A9044B044A0298A7
:1010E00000F02EF810BC08BC04B018471D14000016
:1010F000180000202021020C01D010211046020A05
:1011000001D010460839020901D01046091F820893
:1011100001D01046891E420801D0881E7047081A67
:10112000704702E008C8121F08C1002AFAD17047B0
:101130007047002001E001C1121F002AFBD1704757
:10114000FFB58FB00F460446002606E025280AD0DA
:10115000129A11999047641C761C20780028F5D1CA
:10116000304613B0F0BD00250121A14A009500E0F2
:101170000543641C23780846203B98401042F7D171
:1011800020782E2815D1042005436078641C2A2875
:101190000AD101CF641C00900BE000990A22514350
:1011A00030394018641C00902078014630390929F4
:1011B000F3D920786C280ED004DC4C2813D06A2890
:1011C00012D104E074280ED07A280DD10BE0012052
:1011D0004005054307E00121090562780D4382427D
:1011E00001D16D18641C641C2078864669284AD099
:1011F00008DC0028B4D058286DD0632810D06428AB
:1012000008D140E070286BD0732812D0752860D0C8
:10121000782860D0129A704611999047761CE5E0C4
:101220003878694608720020487202A801900120AF
:1012300003E0386801900020C0433F1D69070CD5CA
:10124000002500E06D1C00998D420FDA8542F9DB24
:101250000199495D0029F5D108E0002500E06D1CE9
:101260008542FCDB0199495D0029F8D1761907E038
:10127000019801990078491C0191129A119990479F
:101280006D1EF5D2B2E00A20029000216802400FE4
:10129000039102280CD001CFC117844600290DDA32
:1012A0006246084652420021814194462D2008E0C2
:1012B000FF1DFF08FF0003CF8446EFE7280504D594
:1012C0002B206A46107401203CE0E8073AD0202029
:1012D000F7E70A2000E0102000210391029007E0C8
:1012E0001020029000210420054308200391009063
:1012F0006802400F022810D001CF00218446002050
:101300000D9028071FD5704670280CD0029A102027
:10131000039B42401A430CD015E0FF1DFF08FF005D
:1013200003CF8446EBE740206A46107401200D90FD
:101330000CE06046084306D030206A4610747046C0
:10134000507402200D907046582804D029A00190B6
:101350000DA80E900DE02CA0F9E76046039B029AC1
:10136000FFF728F8019B84469B5C0E9A521E0E9252
:10137000137060460843F0D10E9805A9081A203072
:101380000190680701D5009801E0012000900199C3
:10139000884203DD01460198081A00E0002000257C
:1013A000009006E004A8129A405D119990476D1CC8
:1013B000761C0D988542F5DB04E0129A30201199D5
:1013C0009047761C0099481E00900029F5DC08E043
:1013D0000E980E990078491C0E91129A1199904717
:1013E000761C0199481E01900029F1DC641CB4E6CA
:1013F00009280100303132333435363738396162EB
:1014000063646566000000003031323334353637AE
:1014100038394142434445460000000000B50346C8
:10142000FFF7A8FD184600BD8AB0FFF7B5FCFFF72F
:101430000DFEFFF753FD324801900A2002900F2065
:101440000390002602200124049005960696079634
:10145000089401A8FFF724FCA002042200901023A6
:1014600011460020FFF74EFA26480168214301602B
:1014700001221B210220FFF7BFF9234D2846FFF769
:1014800069F8294621A000F0CBF82846FFF762F85A
:1014900024A10020FFF762F9FA20FFF7CDF92846D2
:1014A000FFF758F82846FFF755F82846FFF752F897
:1014B0002846FFF74FF82846FFF74CF8FFF7ACF93E
:1014C00001A8FFF775FB0699059800F047F8174C3F
:1014D000294617A000F0A4F8FFF764F82068012857
:1014E000F6D12660294619A000F09AF82846FFF7A1
:1014F00031F82846FFF72EF82846FFF72BF8E7E7E4
:10150000DD07000000000B40981C05002A2A2A2055
:101510004E55564F544F4E204E414E4F3133302092
:101520002A2A2A004E55564F544F4E006400002080
:101530002A2A2A20474F494E4720544F20504F57C0
:10154000455220444F574E202A2A2A002A2A2A2070
:1015500057414B45205550202A2A2A0064225043E7
:1015600010B5421800230120FFF780F801221D2149
:101570000320FFF789FA10BD10B50446016810A0DA
:10158000FFF7A8FD11A06168FFF7A4FD12A0A168F4
:10159000FFF7A0FD13A0E168FFF79CFD14A02169EF
:1015A000FFF798FD15A06169FFF794FD16A0A169EA
:1015B000FFF790FD17A0E169FFF78CFD10BD00005B
:1015C000723020203D20307825780A0072312020AA
:1015D0003D20307825780A00723220203D20307876
:1015E00025780A00723320203D20307825780A00C3
:1015F000723132203D20307825780A006C7220202C
:101600003D20307825780A00706320203D20307816
:1016100025780A00707372203D20307825780A0002
:10162000F3B585B028A16846FEF716FE0598FEF7CB
:101630000CFE0624074600266D461FE000202021F0
:101640002954401C0628FBDD0621091B30460029D1
:1016500000DD701A214604E0059A125C6A54401CB1
:10166000491C0629F8DD002C00D0641E69460020C4
:10167000FFF774F80698FEF76DFF761CBE42DDDBBF
:101680000024134E2027694602A8FEF7E5FD00203E
:1016900002AA0021491CB142FCD3411C062903DCEB
:1016A00011184978295400E02F54401C0628F0DD19
:1016B00069460020FFF752F80698FEF74BFF641CBE
:1016C000062CE0DD07B0F0BD2020202020202000E7
:1016D0001027000020000000400000006000000013
:1016E00080000000C0000000000100008001000038
:1016F00000020000020000000400000006000000DC
:10170000080000000A0000000C000000001BB700E9
:101710000080000000000000001BB700001BB700A5
:101720000080000000000000001BB700001BB70095
:101730000080000000000000001BB7000700000050
:101740000E0000000400000008000000010000007E
:101750002100000003000200010000000126022613
:1017600002270327030102010101000100270127CD
:101770000304020401040004010202020203030341
:101780000305020501050005000301030308020823
:1017900001080008010602060207030703090209FF
:1017A0000109000900070107030C020C010C000CE1
:1017B000010A020A020B030B030D020D010D000DBD
:1017C000000B010B0310021001100010010E020E9D
:1017D000020F030F0311021101110011000F010F7D
:1017E0000314021401140014011202120213031351
:1017F0000315021501150015001301130318021833
:10180000011800180116021602170317031902190E
:1018100001190019001701170020012002200321DF
:101820000221002101210121001E011E021E031FB1
:10183000021F001F011F011F001D001C021C031CB2
:10184000021D011D011C011C001B001A021A031AB3
:10185000021B011B011A011A0326002600020006C2
:10186000000A000E001200160320031E031B0302D1
:101870000306030A030E0312031D0225012500259A
:101880000024012402240324032302230123002330
:10189000002203220222012203160000001180020E
:1018A0000000000000000000000039000F00C03FF1
:1018B000401500004004008000223F0006005B0449
:1018C0004F0466046D047D0407007F046F0400006C
:1018D0000000000A000080200000FFFF7704790A62
:1018E0003900B020790071007D04760406000E00F6
:1018F000700A3800B602B6083F0073043F20730C2C
:101900006D0401113E0030223628802A6E0409221F
:10191000390080080F0001000800000058107C0406
:1019200058005E04582071040C0C740404000E006E
:10193000700C3800541454045C047304670450049D
:10194000080C78001C0010201428802A0C0848205D
:101950000000000000000000000000000000000087
:10196000000000000000000000000000C0000000B7
:1019700000003F000600DB00CF00E600ED00FD00A8
:101980000700FF00EF000000A81900000000002081
:101990006800000022110000101A000068000020FA
:1019A0004805000032110000001BB7000C000000C9
:1019B0000000000000000000000000000000000027
:1019C0000000000000000000000000000000000017
:1019D0000000000000000000000000000000000007
:1019E00000000000000000000000000000000000F7
:1019F000000000000000000054170000181800004C
:101A0000581800009A180000521900000000000049
:04000005000000F106
:00000001FF
