S31500000000F82F0020450300006D0100001B0F0000C3
S3150000001000000000000000000000000000000000DA
S315000000200000000000000000000000005503000072
S315000000300000000000000000570300005903000004
S315000000405F0300005F0300005F0300005F03000022
S315000000505F0300005F0300005F030000C91E00008D
S315000000605F0300005F0300005F0300005F03000002
S31500000070B9230000DD230000012400005F03000017
S315000000805F0300005F0300005F0300005F030000E2
S315000000905F0300005F0300005F0300005F030000D2
S315000000A05F0300005F0300005F0300005F030000C2
S315000000B0690F00005F0300005F030000EF0500000A
S315000000C000F002F800F042F80CA030C808382418F6
S315000000D02D18A246671EAB4654465D46AC4201D17A
S315000000E000F034F87E460F3E0FCCB646012633426A
S315000000F000D0FB1AA246AB4633431847C45400004F
S31500000100E45400000023002400250026103A01D301
S3150000011078C1FBD8520700D330C100D50B607047B9
S3150000012010B5642902D102F011FB10BD782902D165
S3150000013002F042FB10BD632902D103F0A5F810BD01
S31500000140002010BD1FB51FBD10B510BD03F0F4FB98
S315000001501146FFF7F7FF00F042FB03F00CFC03B477
S31500000160FFF7F2FF03BC00F035F9000013490968F8
S315000001700222114000290DD010490968490849009A
S315000001800E4A116000BF0D4909680222114000297C
S31500000190F9D10DE0002007E0094909691022114054
S315000001A0102900D103E0401C06498842F4DB00BF59
S315000001B0704705480549086170470000403000F067
S315000001C000F00FF8FFFF0100130700000090044045
S315000001D010B54C48806B1F21490208434949886382
S315000001E04948807808210840002804D0464880788D
S315000001F008434549887045480068454908604148B4
S3150000020040680121090408433E49486040480468A3
S31500000210E10F091948107D21C90002F0D3FB3D49C1
S315000002200860384840680321890688430121890609
S315000002304018344948607D21C9003548006802F0FD
S31500000240C1FB354908602F4840304068000F411C0B
S315000002503148006802F0ACFB30490860294840305C
S315000002604068072212041040000C411C2B4800680D
S3150000027002F09EFB2A490860012080022949486154
S315000002800861032000022749403948600860264972
S315000002908860C8604B22D2011E480168234802F0DC
S315000002A0CBF8E12252021E480168214802F044F8C8
S315000002B04B22D2011A4801681E4802F03DF810BDD3
S315000002C0FF2001301C49086108460069092109041C
S315000002D00843194908611E20002805DBC206D20E14
S315000002E001219140154A116000BF704705200002A8
S315000002F01349C860034840684021084301494860E3
S31500000300704700000080044000D007407CE2FF1FD9
S3150000031060E2FF1F74E2FF1F64E2FF1F68E2FF1F37
S315000003206CE2FF1F40D0044000C0044000A006401D
S3150000033000B0064000C006400090044000E100E026
S3150000034000B0044009488047094809480047FEE7CD
S3150000035008488047FEE7FEE7FEE707488047FEE7D6
S3150000036006480749054A074B70470000591A00001E
S31500000370C10000001B0F0000690F0000701500206F
S31500000380081F00207015002010B50446E1B205488C
S3150000039002F010F9E0B210BD10B5024802F001F902
S315000003A010BD000000A0064070B504460D4620466C
S315000003B0FFF7EAFF70BD10B50446FFF7EDFF10BD6D
S315000003C001460020C043704710B504462046FFF79B
S315000003D0DBFF10BD00BFFEE7704700000FB4054904
S315000003E010B503AA029802F05BFF10BC08BC04B06B
S315000003F01847000080E2FF1F7047704770470000F3
S31500000400FFFFFFFFFFFFFFFFFFFFFFFFFEFBFFFFFB
S3150000041070B50446002505E0615DFE4801F0FAFF6F
S31500000420681CC5B2605D0028F6D170BDF8B50446FB
S315000004300E4617461D460A2003F038FD0F212846B2
S3150000044002F0B2FA0020F4490860F44908601AE0A4
S31500000450F1480068205C222808D1F0480068401C5A
S31500000460EE490860EC480068ED490860EB48006812
S31500000470B84203DBE1208000E7490860E6480068EF
S31500000480401CE5490860E44800686428E0DB002079
S31500000490E1490860E14908601AE0DF480068205C2D
S315000004A0222808D1DD480068401CDC490860DA488B
S315000004B00068DC490860D9480068B04203DBE120E7
S315000004C08000D5490860D4480068401CD2490860BD
S315000004D0D14800686428E0DB0020CF4908600EE0C0
S315000004E0D0480068CC4909684018401C205CCA49BD
S315000004F009686854C8480068401CC7490860C8486D
S315000005000068C8490968401A401EC34909688842FC
S31500000510E6DCF8BDC448806B0121C9020843C24924
S315000005208863C248C249C860BF48806B012109037D
S315000005300843BD498863BD48BE4988611F2000281D
S3150000054005DBC206D20E01219140BB4A116000BFF5
S31500000550704700B5B9480068012802D16320B84940
S315000005600870B7480078030003F0DEFB06040C149D
S315000005701C242C344020B349886080204860400009
S31500000580486032E04020AF498860802088604000A3
S3150000059048602AE04020AB494860802088604000DF
S315000005A0486022E04020A74948608020486040001B
S315000005B088601AE04020A349886080204860400097
S315000005C0886012E040209F49886080208860400053
S315000005D088600AE040209B494860802048604000CF
S315000005E0486000209649087000BF00BF00BD10B5E6
S315000005F08F488030006A08210840002811D08C48B6
S315000006008030006A08438A49803108628E48006853
S31500000610012108438C49086089480078401C8849B4
S31500000620087084488030006A40210840002811D0B4
S3150000063080488030006A08437E49803108628248DB
S315000006400068012108438049086001207F4908703D
S3150000065003F016FCFFF77DFF10BD704700B5774825
S315000006600068012802D16320754908707448007833
S31500000670030003F059FB0604101C2834404C0120EB
S3150000068040077049803188608000486020206D49AD
S31500000690403148604AE0012040076A49803188605D
S315000006A08000886020206749403148603EE0012094
S315000006B04007644980314860800088602020614995
S315000006C04031486032E0012040075E498031486091
S315000006D08000486020205B494031886026E0012088
S315000006E0400758498031886080004860202055497D
S315000006F0403188601AE00120400752498031886005
S315000007008000886020204F49403188600EE001203B
S3150000071040074C49803148608000486020204949A4
S315000007204031486000204649087000BF00BF00BD48
S31500000730002047498861474848610520086170479D
S31500000740434800694008400041490861704770B558
S315000007503F4885698469281B3F49086029463FA0B0
S31500000760FFF73CFE214644A0FFF738FE3A480168F1
S3150000077048A0FFF733FE70BD70B504460D4620460F
S3150000078000F03AFD4E49086000204E4908600BE033
S315000007904C480068205CA84201D1012070BD494840
S315000007A00068401C47490860464800684449096893
S315000007B08842EDDD0020F1E70CE04349434A116031
S315000007C004E042490968491E404A11603F490968E8
S315000007D00029F6DC0146401E0029EED1704708B517
S315000007E03B493C4802F0E0F8FF212D313A4802F03F
S315000007F0DBF800F0DBFDFFF79BFF052037490860BB
S3150000080000203749086000BF0748806B0121C902F4
S31500000810084367E000C0064060E0FF1F68E0FF1F76
S3150000082064E0FF1F08E0FF1F0080044003010A0088
S3150000083000B0044000C0044000E100E0ACE1FF1F4E
S3150000084078E0FF1F80F00F4074E0FF1F3DE2FF1FBE
S3150000085000E000E03F9C000084E0FF1F73797374A2
S3150000086069636B2073746172742076616C75653A86
S3150000087020307825780A0D007379737469636B20CC
S31500000880656E642076616C75653A20307825780A45
S315000008900D0000007379737469636B20637572725F
S315000008A0656E742076616C75652072656164206F73
S315000008B0766572686561643A20307825780A0D009D
S315000008C04CE2FF1F50E2FF1F8813000030E2FF1FBB
S315000008D0DC05000010F6FF1FF8080020B4E1FF1F3A
S315000008E0B4E0FF1FFE4988638815FE498862FE480A
S315000008F0406809150843FC494860084640690915DF
S315000009000843F94948610815486000BF01217D2068
S31500000910C00001F0A0FC03F0B3FA642003F0C6FAAD
S315000009200520F249086001208002EF494860FF2057
S31500000930F53003F0BBFA01208002EB498860FF2006
S31500000940F53003F0B3FA01208002E7494860FF2042
S31500000950F53003F0ABFA01208002E3498860FF20FE
S31500000960F53003F0A3FAE2A004F0FEF9642003F0E8
S315000009709DFA642003F09AFADFA004F0F5F96420EA
S3150000098003F094FADEA004F0EFF97D20C00003F036
S315000009908DFADD49DD4802F007F8BDE2DC48006863
S315000009A0002802D001287CD14BE10A21D94801F068
S315000009B031FD1A21D74801F02DFD1A21D54801F045
S315000009C029FD1A21D34801F025FD1A21D14801F04D
S315000009D021FD0A20D0A3D2A2D3A10090D4A004F076
S315000009E0C0F9D5480078401CD349087008460078FD
S315000009F0052801DD00200870FFF730FEFF20F530E6
S31500000A0003F054FA1421CD4801F0CEFF6421CC48FE
S31500000A1001F0CAFF6421CB4801F0C6FF0521CA4890
S31500000A2001F0C4FFB849B94801F0BEFF0A20C7A3C8
S31500000A30BBA2C8A10090C8A004F093F90020CA493F
S31500000A400860CA4908601DE0C948C8490968405C91
S31500000A502F2812DDC648C5490968405C3A280CDAD9
S31500000A60C348C2490968405CB449BF4A1268885401
S31500000A70BD480068401CBC490860BC480068401C72
S31500000A80BA490860BA4800F0B7FBB8490968884215
S31500000A90DAD803F0F5F90A209FA3A1A2A2A100903B
S31500000AA000E034E2B3A004F05CF9A3480078401CEF
S31500000AB0A149087008460078052801DD0020087065
S31500000AC0FFF7CCFD02F0CCFFFF20F53003F0EEF986
S31500000AD00A20ACA392A2ADA10090AFA004F041F908
S31500000AE095480078401C9449087008460078052807
S31500000AF001DD00200870FFF7B1FD642003F0D6F990
S31500000B0002F0AEFF0A209FA390A287A10090A6A0A4
S31500000B1004F027F988480078401C87490870084681
S31500000B200078052801DD00200870FFF797FD642096
S31500000B3003F0BCF90A2093A384A27BA100909EA097
S31500000B4004F00FF97C480078401C7B490870084681
S31500000B500078052801DD00200870FFF77FFD64207E
S31500000B6003F0A4F90A2087A378A26FA1009098A0A9
S31500000B7004F0F7F870480078401C6F490870084682
S31500000B800078052801DD00200870FFF767FD642066
S31500000B9003F08CF90A207BA36CA263A1009090A0BD
S31500000BA004F0DFF8642003F081F90A2075A367A238
S31500000BB05DA100908EA004F0D4F85F480078401C38
S31500000BC05D49087008460078052801DD0020087098
S31500000BD0FFF744FD642003F069F90A2069A35BA2CC
S31500000BE051A1009086A004F0BCF853480078401C40
S31500000BF05149087008460078052801DD0020087074
S31500000C00FFF72CFD642003F051F90A205DA34FA2E3
S31500000C107FA100907FA004F0A4F847480078401C0C
S31500000C204549087008460078052801DD002008704F
S31500000C30FFF714FD642003F039F9012034490860F8
S31500000C4000BF0A2077A341A278A100907BA004F000
S31500000C5088F839480078401C3749087008460078FB
S31500000C60052801DD00200870FFF7F8FC02F0F8FE09
S31500000C700A206CA32AA27CA100907CA004F071F843
S31500000C802D480078401C2C49087008460078052835
S31500000C9001DD00200870FFF7E1FC73A1344801F084
S31500000CA053FE00281AD07549314801F07DFE002018
S31500000CB0734908602D4908600EE014482B4A1268F3
S31500000CC0815C144801F0A6FB00206E4908602748A5
S31500000CD00068401C254908600C48D5E006E1000084
S31500000CE00080044000B0044080F00F40B4E1FF1FD4
S31500000CF041545A0D0A000000415452560D0A000094
S31500000D0041545350300D0A00DC05000010F6FF1F59
S31500000D10B4E0FF1F00B006404552524F523A000061
S31500000D204552524F520D0A004F4B0D0A000000006B
S31500000D300A0A41540D0A000078E0FF1FB40B002098
S31500000D4078FCFF1FDCFCFF1F9CE0FF1F4552524F43
S31500000D50520000004F4B00000D0A0A0A41542B476F
S31500000D60534E0D0A00000000F0E1FF1F30E2FF1FA6
S31500000D7088E2FF1F0A0A41542B4346554E3D300D6B
S31500000D800A0000004445414354000000534D5320DF
S31500000D9052656164790000000A0A41542B434655A6
S31500000DA04E3D310D0A0000000A0A41542B514946B6
S31500000DB047434E540D0A00000A0A41542B51494339
S31500000DC05347503D312C226973616665220D0A0036
S31500000DD00A0A41542B51494D55583D300D0A000021
S31500000DE00A0A41542B51494D4F44453D300D0A00E6
S31500000DF00A0A41542B51495245474150500D0A00A9
S31500000E000A0A41542B51494143540D0A000000007F
S31500000E102E0000000A0A41542B51494C4F434950B9
S31500000E200D0A00004641494C00000000434F4E4E5B
S31500000E30454354204F4B0D0A000000000A0A415456
S31500000E402B51494F50454E3D22544350222C2231BE
S31500000E5030342E3233362E3230332E34222C223595
S31500000E60353535220D0A00003E0000000A0A4154BD
S31500000E702B514953454E440D0A00000088130000CB
S31500000E800CE0FF1F14E0FF1F00F0B6F9494909689E
S31500000E90884200D911E70A21474801F0BBFA1A2116
S31500000EA0454801F0B7FA1A21434801F0B3FA1A216E
S31500000EB0414801F0AFFA1A213F4801F0ABFA00BFF2
S31500000EC03EA1404801F040FD00280FD13E493D4873
S31500000ED001F03AFD002809D13CA13A4801F034FD61
S31500000EE0002803D13C4800680528E9DD33A13548D0
S31500000EF001F02AFD00280BD0012038490860384946
S31500000F00384801F051FD7D20C00002F0CFFF02E01D
S31500000F1000203249086000BF40E570B5002432A5C4
S31500000F20002600BF05E0A95D234801F073FA701C96
S31500000F30C6B2284600F060F9B042F4D800BF2020BF
S31500000F402E4988608860002400E0641C2C48844296
S31500000F50FBDB2020294948604860002400E0641C2F
S31500000F6027488442FBDB70BD26480068401C2549A3
S31500000F70086019480068401C174908602248006844
S31500000F80401C2149086021480068401C1F49086030
S31500000F901F480068012804D11E480068401C1D49EE
S31500000FA008601D480068802108431B490860C1206D
S31500000FB00860704730E2FF1F00B0064053454E44BC
S31500000FC0204F4B0088E2FF1F4C0D000053454E4456
S31500000FD0204641494C00000014E0FF1FB4E0FF1F0B
S31500000FE0DC05000010F6FF1F486172646661756CCF
S31500000FF0745F48616E646C657200000080F00F409B
S315000010007F969800DCE1FF1F18E0FF1FECE1FF1F51
S31500001010ACE1FF1FA8E1FF1F0000044001462029A4
S3150000102001D0092901D1012070470020FCE70146C3
S31500001030302901DB392907DD412901DB5A2903DD86
S31500001040612903DB7A2901DC012070470020FCE7D7
S315000010500146302903DB392901DC012070470020D5
S31500001060FCE70146412903DB5A2901DC01207047D0
S315000010700020FCE730B503460C4600201AE019783C
S315000010805B1C2278641C612904DB7A2902DC0D468C
S31500001090203DE9B2612A04DB7A2A02DC1546203DAE
S315000010A0EAB28D1A281E00D006E0002901D0002AD7
S315000010B000D101E00028E2D000BF30BDF8B50346FC
S315000010C00C4615460026002000901BE019785B1C94
S315000010D02278641C612904DB7A2902DC0846203860
S315000010E0C1B2612A04DB7A2A02DC10462038C2B279
S315000010F0881A0090002800D008E0002901D0002AB4
S3150000110000D103E03046761CA842DFDB00BF009822
S31500001110F8BDFEB506460C460020029001900090F0
S31500001120002E05D0002A03DB012A01D0242A04DD83
S31500001130002C00D026600020FEBD334600E05B1C7C
S315000011401878FFF76BFF0028F9D118782D280ED0F4
S31500001150302810D15878782802D05878582805D1E8
S31500001160002A01D0102A01D110229B1C04E0012084
S3150000117000905B1C00E000BF00BF002A00D10A22DD
S315000011801F4628E02846FFF752FF002802D101201B
S31500001190019023E02846FFF75BFF002801D0303D91
S315000011A007E02846FFF75DFF002801D0373D00E045
S315000011B0573D954202DB012001900FE00098002880
S315000011C004D002985043401B029003E0029850431B
S315000011D0401902907F1C3878051ED3D100BF002C21
S315000011E000D027600198002804D0002C00D026608B
S315000011F00020A1E702989FE710B501460A460023A2
S31500001200002A01D1002010BD00E05B1C1478521C9E
S31500001210002CFAD11846F6E7F0B505460E463746D5
S31500001220002D0ED0002E0CD02846FFF7E5FF4419FE
S3150000123003E0387820707F1C641C38780028F8D1C9
S3150000124020702846F0BDF7B505460E463746002DF8
S3150000125017D0002E15D00298002812DD2846FFF779
S31500001260CBFF441903E0387820707F1C641C387863
S31500001270002804D00298411E02910028F3DC0020C9
S3150000128020702846FEBD10B50A46014613460028C2
S315000012900AD0002A08D003E01C780C705B1C491C9D
S315000012A01C78002CF8D10C7010BD70B50B460146A9
S315000012B01C46002811D0002B0FD0002A0DDD03E0BC
S315000012C025780D70641C491C2578002D03D0154621
S315000012D0521E002DF4DC00250D7070BD30B503469E
S315000012E00C461A46214606E010780D78A84200D032
S315000012F004E0521C491C08780028F5D100BF10787C
S315000013000D78401B30BD70B504460D462346294670
S31500001310002A01DC002070BD0AE018780E78B04281
S3150000132000D008E0501E021E00D104E05B1C491CE0
S3150000133008780028F1D100BF18780E78801BEAE7FC
S31500001340F7B581B00199029C019900291CD0029839
S31500001350002819D0002A17D093079B0FD01A8008AF
S31500001360009001E001CC01C10098471E00970028BB
S31500001370F8D10D46264603E030782870761C6D1CA1
S3150000138018465B1E0028F7D1019804B0F0BD30B5B1
S315000013900B460146002808D0002A06D001E00B7053
S315000013A0491C1446521E002CF9D130BD10B5002040
S315000013B088490860FEF70CFF10BD10B58648406AE4
S315000013C0072109070840000F030002F0ADFC0504E1
S315000013D0080C1014180081A0FFF700F813E081A094
S315000013E0FEF7FCFF0FE081A0FEF7F8FF0BE081A0FF
S315000013F0FEF7F4FF07E081A0FEF7F0FF03E081A00F
S31500001400FEF7ECFF00BF00BF7348406A07210906DC
S315000014100840000E042804D0052806D006280CD162
S3150000142007E082A0FEF7DAFF0BE081A0FEF7D6FF09
S3150000143007E080A0FEF7D2FF03E07FA0FEF7CEFF15
S3150000144000BF00BF6448406A0007000F030002F0B7
S315000014506BFC09060A0E2212161A221E220081A011
S31500001460FEF7BCFF1BE081A0FEF7B8FF17E081A0E6
S31500001470FEF7B4FF13E081A0FEF7B0FF0FE081A0F6
S31500001480FEF7ACFF0BE081A0FEF7A8FF07E081A006
S31500001490FEF7A4FF03E082A0FEF7A0FF00BF00BF97
S315000014A04D48406A072109050840000D012803D16F
S315000014B086A0FEF793FF03E08EA0FEF78FFF00BF26
S315000014C000BF4548406A072109040840000C030094
S315000014D002F02AFC0805090D1115191D212590A0F9
S315000014E0FEF77CFF1FE094A0FEF778FF1BE097A0B5
S315000014F0FEF774FF17E09AA0FEF770FF13E09DA0B9
S31500001500FEF76CFF0FE0A0A0FEF768FF0BE0A4A0BB
S31500001510FEF764FF07E0A8A0FEF760FF03E0ACA0BB
S31500001520FEF75CFF00BF00BF2B484030C0680F21AC
S3150000153009060840000E05281AD006DC00280BD044
S3150000154001280DD0032823D10EE0072814D009283E
S3150000155016D00F281CD117E0A4A0FEF73FFF1BE012
S31500001560B2A0FEF73BFF17E0C0A0FEF737FF13E07F
S31500001570CDA0FEF733FF0FE0DAA0FEF72FFF0BE05A
S31500001580E7A0FEF72BFF07E0D6A0FEF727FF03E054
S31500001590F2A0FEF723FF00BF00BF0F242146F7A0ED
S315000015A0FEF71CFF10BD10B50320F949C8710020D5
S315000015B08871487108710120C8738020087000BFC7
S315000015C0F3480078802108400028F9D0F048C17A15
S315000015D0E0E1000000810440008004400A0D4B4C0D
S315000015E0300000000A0D4B4C310000000A0D4B4C38
S315000015F0320000000A0D4B4C330000000A0D4B4C24
S31500001600340000000A0D556E7265636F676E697A65
S315000016106564204B696E657469732066616D696CDB
S3150000162079206465766963652E0A0D00340A0D001B
S31500001630350A0D00360A0D000A0D556E7265636F88
S31500001640676E697A6564204B696E65746973207389
S3150000165075622D66616D696C79206465766963656E
S315000016602E0A0D00313670696E0A0D00323470692B
S315000016706E0A0D00333270696E0A0D0034387069D7
S315000016806E0A0D00363470696E0A0D0038307069C6
S315000016906E0A0D0031303070696E0A0D00000000D0
S315000016A00A0D556E7265636F676E697A6564204BC5
S315000016B0696E65746973207061636B616765206329
S315000016C06F64652E20202020202000000A0D4C6F1C
S315000016D07720506F776572204C696E652077697444
S315000016E06820436F72746578204D302B0A0D0A0D01
S315000016F0000000000A0D556E7265636F676E697AA9
S315000017006564204B696E657469732066616D696CEA
S3150000171079206174747269627574652E0A0D000011
S315000017205352414D202073697A653A20302E352078
S315000017304B420A0D000000005352414D20207369B0
S315000017407A653A202031204B420A0D005352414D12
S31500001750202073697A653A202032204B420A0D0018
S315000017605352414D202073697A653A202034204B2C
S31500001770420A0D005352414D202073697A653A2082
S315000017802038204B420A0D005352414D20207369E8
S315000017907A653A20203136204B420A0D00000000BF
S315000017A05352414D202073697A653A202033322006
S315000017B04B420A0D000000005352414D2020736930
S315000017C07A653A20203634204B420A0D000000008C
S315000017D00A0D556E7265636F676E697A656420538C
S315000017E052414D2053697A652E0A0D00466C61738D
S315000017F0682073697A653A202038204B422070723F
S315000018006F6772616D20666C6173682C20302E32B2
S3150000181035204B422070726F74656374696F6E2059
S31500001820726567696F6E0A0D00000000466C617391
S31500001830682073697A653A20203136204B42207041
S31500001840726F6772616D20666C6173682C20302E32
S3150000185035204B422070726F74656374696F6E2019
S31500001860726567696F6E0A0D00000000466C617351
S31500001870682073697A653A20203332204B42207003
S31500001880726F6772616D20666C6173682C203120FF
S315000018904B422070726F74656374696F6E20726557
S315000018A067696F6E0A0D0000466C61736820736984
S315000018B07A653A20203634204B422070726F677268
S315000018C0616D20666C6173682C2032204B4220705B
S315000018D0726F74656374696F6E20726567696F6E87
S315000018E00A0D0000466C6173682073697A653A20B8
S315000018F020313238204B422070726F6772616D2042
S31500001900666C6173682C2034204B422070726F74B1
S31500001910656374696F6E20726567696F6E0A0D0084
S31500001920466C6173682073697A653A2020323536D1
S31500001930204B422070726F6772616D20666C617316
S31500001940682C2034204B422070726F746563746972
S315000019506F6E20726567696F6E0A0D0045525221DF
S315000019602120556E646566696E656420666C6173D8
S31500001970682073697A650A0D0000000053696C6976
S31500001980636F6E207265762025640A0D00000000E4
S31500001990000002401CA0FEF721FD2248817A22A009
S315000019A0FEF71CFD1F48417A1FA0FEF717FD1D48D4
S315000019B0017A1FA0FEF712FD03201A49C871002004
S315000019C088714871042008710120C873802008704E
S315000019D000BF14480078802108400028F9D011483B
S315000019E0C17A15A0FEF7FAFC0E48817A18A0FEF718
S315000019F0F5FC0C48417A0CA0FEF7F0FC0948017A88
S31500001A001448FEF7EBFC10BD466C617368207061EC
S31500001A1072616D657465722076657273696F6E208A
S31500001A2025642000000002402025642000000000FC
S31500001A302025640A0D000000466C617368207665F7
S31500001A407273696F6E2049442025642000000000EF
S31500001A502025640088190000002076490860086087
S31500001A607548806B49150843734988630120000750
S31500001A7071494031486071488068714908406F4932
S31500001A8088600846C0686E4908406C49C8606D4861
S31500001A90407864210840242108436A494870802020
S31500001AA0694908709A20674908700846C078C006D8
S31500001AB0C00EC8700320087100204871402048718C
S31500001AC000BF604880790C2108400828F9D100BF82
S31500001AD05C488079402108400028F9D01A205949ED
S31500001AE0087000BF574880790C2108400C28F9D1AE
S31500001AF0704770B553480078C0210840002868D167
S31500001B00504840794021084000284ED14D48007881
S31500001B1004210840002815D14C4C4A480078382149
S31500001B200840C10801208840C5B22946204600F079
S31500001B303FFF04464348407830210840002803D040
S31500001B40640901E00124E4033E48C078E02108402E
S31500001B50C106C90E002926D14011030002F0E4F89F
S31500001B600805090D1115191D20230520C001444340
S31500001B701AE005200002444316E00F20C00144434A
S31500001B8012E00520400244430EE0B72080004443A3
S31500001B900AE0B720C000444306E02D48444303E072
S31500001BA02C48444300E000BF38E026480079C006D0
S31500001BB0C00E451C2946254800F0FAFE0446214879
S31500001BC04079C006C00E05461835204668430446CF
S31500001BD024E01C480078C0210840402815D1194847
S31500001BE04078C007C00F002802D10124E40315E0A5
S31500001BF01448007A0E221040420801209040014607
S31500001C00154800F0D5FE044608E00E480078C021CD
S31500001C100840802801D10D4C00E070BD06484030D8
S31500001C204068000F411C204600F0C2FE0B490860C8
S31500001C3000BFF2E700810440008004404090044069
S31500001C40FFF8FFFE004006400050064000127A00F2
S31500001C5095080000710B000000093D007CE2FF1FA3
S31500001C60F8B504460E461746CC480578E007C00F7F
S31500001C70002802D0CAA0FEF7B1FB022020400028AF
S31500001C8002D0D7A0FEF7AAFB04202040002802D0ED
S31500001C90E1A0FEF7A3FB08202040002802D0ECA01C
S31500001CA0FEF79CFBBD4805704578102020400028B3
S31500001CB002D0F5A0FEF792FB2020204000280CD091
S31500001CC0B0000C2108400543FE48FEF787FBB348E9
S31500001CD0407920210843B14948714020204000281E
S31500001CE00CD03001302108400543F748FEF776FB5B
S31500001CF0AA48407940210843A849487180202040DD
S31500001D0000280CD0B001C02108400543EF48FEF77B
S31500001D1065FBA248407980210843A04948719F4845
S31500001D20457085788015204000280BD0B007800FBD
S31500001D300543E748FEF752FB98488079012108439E
S31500001D409649887101204002204000280CD0B0003E
S31500001D500C2108400543DF48FEF740FB8F48807999
S31500001D60022108438D498871012080022040002805
S31500001D700CD03001302108400543D748FEF72EFB32
S31500001D808648807904210843844988710120C0026D
S31500001D90204000280CD0B001C02108400543CF48A0
S31500001DA0FEF71CFB7D488079082108437B49887132
S31500001DB07A488570C57801200003204000280BD0A2
S31500001DC0B007800F0543C648FEF708FB73488079C5
S31500001DD010210843714988710120400320400028E2
S31500001DE00CD0B0000C2108400543BE48FEF7F6FAB9
S31500001DF06A48807920210843684988710120800358
S31500001E00204000280CD03001302108400543B64858
S31500001E10FEF7E4FA61488079402108435F498871FA
S31500001E200120C003204000280CD0B001C02108408A
S31500001E300543AE48FEF7D2FA584880798021084318
S31500001E40564988715548C570002F03D10020534963
S31500001E50087109E05148007938435049087108462D
S31500001E600179A3A0FEF7BAFAF8BDF8B504460F4605
S31500001E7015462B4622463946ACA0FEF7AFFA002699
S31500001E808020464908724872012F0BD168016021F3
S31500001E9008402107090F08438021084306433F48AD
S31500001EA0067210E0022F0BD168016021084021075D
S31500001EB0090F08438021084306433848467202E06A
S31500001EC0A7A0FEF78BFAF8BD3448407920210840D8
S31500001ED0002804D0314840790843304948712F48DA
S31500001EE0407940210840002804D02C484079084316
S31500001EF02A4948712948407980210840002804D0A1
S31500001F002648407908432549487124488079C00706
S31500001F10C00F002805D021488079012108431F49B8
S31500001F2088711E48807902210840002804D01B4889
S31500001F308079084319498871184880790421084036
S31500001F40002804D01548807908431449887113483D
S31500001F50807908210840002804D010488079084379
S31500001F600E4988710D48807910210840002804D058
S31500001F700A488079084309498871084880792021F0
S31500001F800840002804D00548807908430349887131
S31500001F9002488079402108400028F1E000C007404F
S31500001FA00A20496E76616C6964204C4C5755206353
S31500001FB06F6E666967757265642070696E2050542D
S31500001FC045312F534349315F52582F493243315FD0
S31500001FD053434C202F535049315F53494E00000064
S31500001FE00A20496E76616C6964204C4C5755206313
S31500001FF06F6E666967757265642070696E205054ED
S3150000200045322F535049315F53434B2F5344484376
S31500002010305F44434C4B00000A20496E76616C6980
S3150000202064204C4C575520636F6E66696775726500
S31500002030642070696E20505445342F535049315FE7
S31500002040504353302F53444843305F44330000001D
S315000020500A20496E76616C6964204C4C57552063A2
S315000020606F6E666967757265642070696E2050547C
S3150000207041342F46544D305F4348312F4E4D492F42
S31500002080455A505F435300000A20496E76616C69D9
S3150000209064204C4C575520636F6E66696775726590
S315000020A0642070696E2050544131332F46544D31AF
S315000020B05F434831202F46544D315F51445F5048AD
S315000020C04200000020550000FC530000945400001C
S315000020D0D8540000B4530000E05200009C520000A7
S315000020E0245300007053000074550000445400004F
S315000020F00A204C4C575520636F6E6669677572658A
S3150000210064206D6F64756C6573206173204C4C5749
S31500002110552077616B65757020736F757263657393
S31500002120203D203078253032582C00000A456E615B
S31500002130626C696E672046696C746572202578202A
S315000021406F6E2057552050696E20257820666F7275
S315000021502057552073656E7365202578200A000088
S315000021600A4572726F72202D20696E76616C696401
S315000021702066696C746572206E756D6265720A0000
S3150000218004D02048807908431E4988711D4880790B
S3150000219080210840002804D01A488079084319494C
S315000021A088711848C079C007C00F00280DD016489E
S315000021B0806B012108431449886314480068802114
S315000021C0084312490860C12008600E48007A802141
S315000021D00840002804D00B48007A084309490872D1
S315000021E00848407A80210840002804D00548407AF3
S315000021F00843044948720648006880210843044998
S315000022000860704700C0074000800440000004409A
S3150000221080E200E04449896B01221143424A9163FE
S315000022200021424A1160114688600521516011461D
S315000022300968012211433D4A116000BF3B49096804
S31500002240802211400029F9D0384909684908490017
S31500002250364A1160704770B505460C46012432486F
S31500002260806B012108433049886300211C2000F05F
S3150000227023F82E480068A0432C4908600420204318
S315000022804860A8B28860084600688021084327494C
S315000022900860C020086008460068012108432349F9
S315000022A008601C20002805DBC206D20E01219140E1
S315000022B01F4A116000BF70BD10B5002819DB1C4A0B
S315000022C003231B02D21883089B00D2588307DC0E17
S315000022D0FF23A3409A438B071B0E8407E40EA340FB
S315000022E01A43134B032424021B198408A4001A5111
S315000022F018E0104A03071B0F083B9B089B00D258A7
S315000023008307DC0EFF23A3409A438B071B0E84072B
S31500002310E40EA3401A43074B0407240F083CA40805
S31500002320A4001A5110BD00000080044000000440C3
S3150000233000E100E01CED00E0F8B504460E46174645
S31500002340C548844206D1C548406BE1140843C349D9
S31500002350486306E0C148406B012109030843BF49B1
S31500002360486301210D2000F040F9E0780C218843F4
S31500002370E0700020A07039017D22D2007243104621
S3150000238000F020FB85B220784109490100911F2009
S315000023900002284000120099084320706570E0781A
S315000023A020210843E0700D2000F016F962B6E078AF
S315000023B00C210843E070F8BDA948007920210840A7
S315000023C000280AD0A648C079A649A74A12688854A8
S315000023D0A5480068401CA449086070479E480079DB
S315000023E02021084000280AD09B48C0799F49A04A6E
S315000023F0126888549E480068401C9D4908607047D2
S315000024007047014600BF0879202210400028FAD004
S31500002410C879704710B5974A00E0521E03798024A8
S315000024202340002B01D1012AF7DCC17110BD014602
S315000024300879202210407047F7B586B000BF00200B
S3150000244005900490002501908448406B0121890283
S315000024500843824948638248C0780C2188438049F2
S31500002460C87085490798884202DC079820280CDA4C
S3150000247000BF7A48456803218906284688430546F1
S3150000248000BF7648456000BFFEE7089C7D21C90075
S315000024900798484302900426204670430146029856
S315000024A000F086FA0390039870430146029800F004
S315000024B07FFA0746A74202D9381B059001E0E01BC8
S315000024C00590049605261DE02046704301460298B5
S315000024D000F06EFA0390039870430146029800F0EC
S315000024E067FA0746A74202D9381B019001E0E01BB4
S315000024F0019005990198884202D8019805900496A2
S31500002500701CC6B2202EDFDD6421204600F050FA92
S3150000251041004118059881423FD90498032808D9FB
S315000025200498092805D24E48C07A022108434C492E
S31500002530C8724B48857A6D096D010498401EC00625
S31500002540C00E054346488572E806C00E451C204667
S3150000255068430146029800F02BFA03904048007841
S3150000256045096D011F21090203980840000A284306
S315000025703B490870039848700698C07820210843A4
S315000025800699C8700C2000F027F862B63448C07867
S315000025900C2108433249C87001E000BFFEE709B0CC
S315000025A0F0BD014600BF0879202210400028FAD06D
S315000025B0C879704710B52F4A00E0521E037980246F
S315000025C02340002BF9D0012AF7DDC17110BD014669
S315000025D00879202210407047002805DBC206D20E7B
S315000025E001219140254A1160704710B5002819DB7A
S315000025F0224A03231B02D21883089B00D258830762
S31500002600DC0EFF23A3409A438B071B0E8407E40EC0
S31500002610A3401A43194B032424021B198408A4005F
S315000026201A5118E0164A03071B0F083B9B089B002C
S31500002630D2588307DC0EFF23A3409A438B071B0E59
S315000026408407E40EA3401A430D4B0407240F083CED
S31500002650A408A4001A5110BD00B006400080044032
S3150000266000A0064040FDFF1F30E1FF1F88E2FF1F6C
S315000026700CE0FF1F1F4E000050C3000000E100E009
S315000026801CED00E00FB41CB5074B06AA7B44694657
S315000026900090059800F0D5FD0020694600F0E4FDA5
S315000026A01CBC08BC04B01847D90B000070B5044622
S315000026B085690068C10601D5302600E02026C007DE
S315000026C007D070BD62683046A1689047206A401CFA
S315000026D020626D1EF6D570BD70B50446856900781A
S315000026E0C00707D170BD6268A16820209047206AA4
S315000026F0401C20626D1EF6D570BD70B50C460546B1
S31500002700012A05D02878800600D5EA69002302E070
S31500002710012305E05B1C934202D2E05C0028F9D15C
S31500002720A869E618C01AA861286AC018286228464F
S31500002730FFF7BCFF04E06A682078A968641C90472C
S31500002740B442F8D32846FFF7C7FF70BDF7B500259A
S3150000275075291068009914A611D0C046C0460028F5
S3150000276002DA404211A608E0009909688A0701D5F5
S315000027700FA602E0490704D50EA6012501E0C046D2
S31500002780C046009F0024243704E000F09DFD303150
S315000027903955641C0028F8D12B463246214600984C
S315000027A000F0F1FCFEBD0000000000002D0000005E
S315000027B02B0000002000000070B504460D4621469F
S315000027C01068C046C0462188090502D50F4A7A44DA
S315000027D002E00E4A7A440E3223460021243305E0F5
S315000027E006070009360F965D5E54491C0028F7D18E
S315000027F020780023000705D5702D03D0002901D0CD
S3150000280002231132204600F0BEFC70BDDA2700001C
S31500002810F3B50446002081B020622046E16888476F
S3150000282000287DD0252802D06268A16883E0454F44
S3150000283000257F442046E16888472028064608DBB5
S31500002840312E06D2B81920380078002801D0054369
S31500002850F0E7A80701D5042085430020E06107467C
S31500002860A0612A2E0AD0304601F002FB002827D0AC
S31500002870B8000019303E0090866119E00298BA004F
S31500002880121902C8916102902046E1688847012F1B
S31500002890064617D1E06900281FDA202085431CE090
S315000028A000980A2180694843009980193038886168
S315000028B02046E1688847064601F0DAFA0028EFD19B
S315000028C0012F0AD02E2E08D12046E16888470646F9
S315000028D0202005437F1C022FC3DBA069002803DAF2
S315000028E04042A06101200543E80701D0102085433E
S315000028F0002E24D030464138192803D80120C002C2
S3150000290005432036204625603146029A1546FDF7D6
S3150000291007FC00280CD0012807D0ED1DE80800E0D0
S315000029200DE0C0000830029077E72D1D029574E790
S3150000293062683046A1689047206A401C6CE7206AAE
S31500002940FEBD00009E27000030B505460B462A4610
S315000029501C781078521C5B1C002801D0A042F7D0CE
S31500002960002C03D0002802D06D1CEFE7284630BDAE
S3150000297001E004C0091F0429FBD28B0701D50280A0
S31500002980801CC90700D00270704700290BD0C3070E
S3150000299002D00270401C491E022904D3830702D5C7
S315000029A00280801C891EE3E70022EEE70022DFE7B3
S315000029B0002203098B422CD3030A8B4211D3002336
S315000029C09C464EE003460B433CD4002243088B4210
S315000029D031D303098B421CD3030A8B4201D394469D
S315000029E03FE0C3098B4201D3CB01C01A5241830990
S315000029F08B4201D38B01C01A524143098B4201D34A
S31500002A004B01C01A524103098B4201D30B01C01A74
S31500002A105241C3088B4201D3CB00C01A52418308EE
S31500002A208B4201D38B00C01A524143088B4201D31B
S31500002A304B00C01A5241411A00D20146524110467B
S31500002A4070475DE0CA0F00D04942031000D34042F0
S31500002A50534000229C4603098B422DD3030A8B4226
S31500002A6012D3FC22890112BA030A8B420CD38901C4
S31500002A7092118B4208D3890192118B4204D38901AA
S31500002A803AD0921100E08909C3098B4201D3CB01E8
S31500002A90C01A524183098B4201D38B01C01A52419D
S31500002AA043098B4201D34B01C01A524103098B42A1
S31500002AB001D30B01C01A5241C3088B4201D3CB008C
S31500002AC0C01A524183088B4201D38B00C01A52416F
S31500002AD0D9D243088B4201D34B00C01A5241411A46
S31500002AE000D20146634652415B10104601D3404274
S31500002AF0002B00D54942704763465B1000D3404225
S31500002B0001B50020C046C04602BD0000F0B50C4627
S31500002B10871A9C410D46861A9D4103D2C01BA141CE
S31500002B20D21963410D0D1F0DC94EEC1BAE435CD08F
S31500002B307F057F0D0026002F51D02D05AC46A943F9
S31500002B40DD020123ED0A1B051D4320231B1B24D494
S31500002B501746E740381871412F46E740CC199D408B
S31500002B602818314661410C0D27D161449A4013D58E
S31500002B700023401C594152000ED14008400001225A
S31500002B804B005205D34207D305204007C14201D569
S31500002B90B04900E0B0493046F0BD6B00002A00D0D5
S31500002BA001229A181F23203C1B1B01D5002302E09B
S31500002BB0E540281871410C0DD7D0012424050919C8
S31500002BC0C407CD0740084908E40F28436144002C98
S31500002BD0D5D00024401C61419A40D0D1CDE76A058A
S31500002BE0520DD9D1C90FC907D5E79C4D4E00002813
S31500002BF001D0012400E0002434195F00002A01D02E
S31500002C00012600E00026BE19954FAC420CD8AE4214
S31500002C100AD8B44206D001256D05EC42BCD0104658
S31500002C201946F0BD9942FCD000203946F0BDF0B5FA
S31500002C301FB40C460F46811A9F412546861A9D41B0
S31500002C4006D20125ED076F40401ABC4152187B4160
S31500002C50210D1E0D8D1BAC467D4D8D437ED0750519
S31500002C606D0D7CD00D05AE46AC431B031B0B794D99
S31500002C7052429D41202366469B1B14D31746F740BC
S31500002C80381800260090744160462F460741E41923
S31500002C9000989D402818664116D4714671189A40CE
S31500002CA025D5012320E093182A466A415200002BBD
S31500002CB000D0521C1E23203E9B1B002B61DD35419C
S31500002CC0EE1728186641E8D5001876415B1C9A4035
S31500002CD000D3401C4B05F3181524E34010D3002BFA
S31500002CE052D071467118D30FC01802D3491C05B0D3
S31500002CF0F0BD0123DB079A42F9D140084000F6E710
S31500002D0001225205B21801D1002853D00123CC0A62
S31500002D10DB029943891E002A08D1020C03D0020C5B
S31500002D200004103902E00246002020390023550B2A
S31500002D3005D112020823550B01D152010D23550C62
S31500002D4001D112011B1DD50C01D192009B1C150D42
S31500002D5001D152005B1C2025EE1A01E02CE022E096
S31500002D600546F54015439840CA1AE1076918130548
S31500002D70C918002ABBDA032040070818C10FC90783
S31500002D800FE071466118B2E7F10740080843711079
S31500002D9071444A000CD001235B059A42A7D2C90FA1
S31500002DA0C9070020A3E74905490D26D1002001E007
S31500002DB00028F4D100219AE7284D6600002801D0AA
S31500002DC0012100E0002171185F00002A01D00126D0
S31500002DD000E00026BE19224FA94210D8AE420ED8F6
S31500002DE0B14208D001256D05E94206D01946A80270
S31500002DF0414010467BE79C4201D0214677E7002000
S31500002E00394674E710B50C465C4005D50124E40745
S31500002E106340FFF70CFF10BDFFF778FE10BD30B41E
S31500002E200C465C4004D50124E407634030BC6DE6E3
S31500002E3030BCFCE670B50124E40761400D465D40F8
S31500002E4002D4FFF763FE70BD6340FFF7F0FE70BD6E
S31500002E50FF0700000000F0FF0000F07F0000E0FF29
S31500002E600000F87F30B50346CA02400D1043164DE8
S31500002E70164C0A1502D02043002A06DBAA1A002A9D
S31500002E8012DDD040FF2A0BDC30BD5205520D01D1B8
S31500002E9040004008AA1A07D4D0404042FF2A01DD6C
S31500002EA0002030BD0028FCDD4A00002B01D00120A7
S31500002EB000E00020101801225205D042F0D8C817B1
S31500002EC0C043604030BD00001E04000000000080CA
S31500002ED01F22030C02D10F22000402D0030E03D0DE
S31500002EE004E00020014670470002083A030F01D1B2
S31500002EF00001121F830F01D18000921E002801DB02
S31500002F004000521E120551184205C01241181046C3
S31500002F107047C10FC90700D04042012292071143F2
S31500002F20D6E701218907D3E7F0B58B4C0F09254673
S31500002F3089B0BD437BD01D092646AE43FAD00E4666
S31500002F405E402740F60F3E43254071D024012142C2
S31500002F50FBD0FF24AD19A4042D1B039501252D05D7
S31500002F60DB02DB0AC9022B43C90A29431E010901F8
S31500002F70040F130F050121431701880B82039143A8
S31500002F802D098C46A90B1E438A039543B30B9A035E
S31500002F9096433F09BA0B9403A74302962E467E43F7
S31500002FA00497B6464E19D7190C4601965443059711
S31500002FB07E43371B7646BF1B3601B646BE0B361917
S31500002FC000967646BC043719009C01D3641C009415
S31500002FD06400002F01D001263443029E049F7543EE
S31500002FE066467E430496760034196E0034190094C2
S31500002FF0029C019E1C196643751BAE4606946546E7
S315000030004519059C05956C43594375460891691AFF
S315000030100191049E01465143A41B0491611A009C30
S315000030200791E10605D061090122114302E072E031
S315000030306EE06109089D00272C0A2D066918049D7B
S315000030407C412A0A2D066918019D6241AC0DAD022C
S315000030506D185441079A910D920255196141029AD1
S31500003060644658435443069B059A5A43121A131B47
S315000030709A0E9B015B187A41010B0005C31851415A
S31500003080220A200644195A419A4200D2491C0120BC
S315000030904002814203D315230226F64302E014239D
S315000030A00326F6432020C51AA9401746AF40DA404A
S315000030B00A4320460399D840091473181905511874
S315000030C0039A3843D2075140AC4009D001229440BC
S315000030D006D30022401C5141002C01D1400840007B
S315000030E01E4A934212D3012203989206904207DBAE
S315000030F00520400709181A480143C012414004E060
S31500003100032040070818C10FC907002009B0F0BD09
S315000031100020F107FAE705180C464C4111486D42AC
S31500003120A04115D394181A465A410E48644290415C
S315000031300ED301204A004005824209D35A0082423A
S3150000314006D35940C90F084AC90700201143DDE7D5
S3150000315000200649DAE700000000FF07FE0700002E
S31500003160FFFFFF7F0000E0FF0000F07F0000F87F18
S3150000317010B500F011FB006810BD10B5044600F054
S315000031800BFB046010BDFFB504460D4681B024302C
S3150000319000902168880604D51022E06991432160D9
S315000031A000E00120A84201DD471B00E0002704984B
S315000031B0A1697A191018081AA0612078C00602D4ED
S315000031C02046FFF773FA002608E003986268A168B4
S315000031D0805D9047206A401C761C206204988642D7
S315000031E0F3DB2078C0060AD52046FFF75FFA06E033
S315000031F06268A16830209047206A401C20623846E9
S315000032007F1E0028F4DC07E000986268A168405D34
S315000032109047206A401C206228466D1E0028F3DC79
S315000032202046FFF759FA2078000602D5022005B09D
S31500003230F0BD0120FBE7000001694A1C0261087825
S31500003240704700B58FB002910021059105490193A1
S3150000325079440391114604906846FFF7D9FA0FB0F6
S3150000326000BD0000E5FFFFFF0A681070521C0A60EF
S31500003270704710B54369002B02D0C046C04601E036
S31500003280FFF73BFA012010BD1278014624310A707F
S3150000329000224A700122ECE711680022D243E8E7D7
S315000032A0084B70B50D467B44FFF7CBFF0446284616
S315000032B0FDF786F8002802D00020C04370BD2046E6
S315000032C070BD0000FFD0FFFF01468008081A020902
S315000032D01018020A1018020C1018C00882001218E2
S315000032E05200891A01E0401C0A390A29FBD27047AC
S315000032F0F0B5F94D0C091E092C402E402F468BB017
S31500003300A7437DD0B543FCD0002E7AD0002CFCD04C
S315000033100D465D40ED0F2543AC1BFF25AD0464193A
S315000033200894C502440DC9022143500DDC02044332
S315000033300120C00701430443D2020191200C110C65
S3150000334000958C46010423468B430A916146090485
S31500003350E24D8A430991010A7D4449198039097869
S3150000336005464D4301266D18F605751B6943C90CC4
S31500003370640B891C4C436418B5012C1B250C2E04C8
S31500003380B4434C434D43210C691889090591009DAE
S31500003390E90701D00121C90704912C460199670864
S315000033A0CD072F434C08059DE10B4D432D0C2946B7
S315000033B06646754302950D4645432E46029D7D1B86
S315000033C0B44100950D465D4301942C0C2F040D4627
S315000033D05543AE462D0C3D43029503947546049C19
S315000033E02D04641B049406D2029C039D641C0026D3
S315000033F075410395029401AC70CC009F7D1B01E0E2
S315000034003EE162E1B44109040095079101940599F2
S31500003410A4086143090C0C464443650BE7040C46BB
S3150000342066467443A646640B3C4303950294744671
S31500003430049DE4042C1B049406D2029C039D641C88
S31500003440002675410395029401AC70CC009F7D1B4C
S31500003450B44101940C465C430095650FE7000C46A9
S315000034605443A646640F3C43039502947446049D58
S31500003470E4002C1B049406D2029C039D641C0026C7
S3150000348075410395029401AC70CC009F7D1BB4413D
S31500003490AE09AF06049DC900AD092F43049DA406DD
S315000034A0AD060495079D344369180791059DE10B08
S315000034B04D432D0C29466646754302950D464543F8
S315000034C02E46029D7D1BB44100950D465D43019439
S315000034D02C0C2F040D465543AE462D0C3D4302954C
S315000034E003947546049C2D04641B049406D2029C26
S315000034F0039D641C002675410395029401AC70CCB3
S31500003500009F7D1BB44101948C050694079C890A93
S31500003510611800950791019C0599A4086143090C5F
S315000035200D464543680BEF040D46644665436C0B38
S315000035303C43049FED047D1BAC4602D20025641C6F
S315000035406841009E019D371B8541084658430195F9
S315000035500C46460FC5005443600F28436546E400F9
S315000035602C1B02D20025401C6E41019D3F1AB5411D
S315000035702846BD09800628438446A009BF064E0298
S315000035800699A40676180743079D002068410A9904
S31500003590079019430020099B00906046FF191343CA
S315000035A04041E20F64003A43A4460446D71A8C41D0
S315000035B0A04203D90120009020463A46C70F94182E
S315000035C040416246D20F2243644664000494009C44
S315000035D0BE466400D71AA446044602978C41774635
S315000035E0002F01D1A04204D96046401C8446029AAD
S315000035F02046C40FA64694184041049A0546D20FA9
S31500003600224364466400D31A8D417146002901D1D4
S31500003610A84202D928461A46641C104301220028F3
S3150000362000D0164361020020079B891904465C41BD
S315000036300223002C02DB491813466441089DCE0A7A
S315000036402D145D194B056705E10A2C050D1908991E
S315000036503E43C9076940002B08D0934006D3002299
S31500003660761C5141002B01D1760876001C4A002DAC
S3150000367043DB154241D0AA433FD030460BB0F0BDE4
S3150000368006180D464D41174C7642AC411AD3951893
S315000036901C465C41134A6D42A24113D301225205D6
S315000036A04C00D4420AD15C00D4420BD04B4002D528
S315000036B092021143E2E749004908DFE75940C90F82
S315000036C0C90718E000200849D8E7054801420DD18E
S315000036D00342F7D0F2E700000000FF07141D0000C8
S315000036E00000F07F0000E0FF0000F87F114859401D
S315000036F00143C01241400020C0E70123089A9B06FF
S315000037009A4205DC032252078918C90FC907B5E793
S31500003710052252078918074A1143D2125140ADE7D4
S3150000372070B515461C4602460B4628462146FFF74D
S31500003730DFFD70BDFFFFFF7F70B505464800440DF5
S31500003740124B0020002C0AD0634008D09A4206DAB9
S315000037506642B24203DD12054019514170BD002C8C
S3150000376008D0002B09D0C90FC907002AF6DB084A82
S31500003770114370BDC90FC90770BD28460A0310431F
S3150000378002D00020034970BD284670BDFF07000027
S315000037900000F07F0000F87F0048704710150020F9
S315000037A0F8B5224C4E00069DA6420AD8A64201D183
S315000037B0002806D15E00A64203D8A6420AD1002AF6
S315000037C008D00D24240425422CD02946002000F0E0
S315000037D0DAF8F8BD0C461C430CD4994202D0EFF33C
S315000037E00080F8BD904202D0EFF30080F8BDEFF301
S315000037F00080F8BD09242407E5008B4206D0EFF3CC
S315000038000080A043591A06D2284304E0101A05D3B3
S31500003810EFF30080A04380F30088F8BDEFF300804B
S31500003820A043F1E7009500F0C5F8F8BD0000E0FF01
S31500003830F0B53D4B02460C461C400020002C63D0E0
S315000038403A4D8B4366D000296BDB0B0D1D05A94352
S3150000385001252D0529430124FD33E34001D39218A8
S315000038604941FF3381339C468B02940D012123434A
S3150000387089074C42920200271B198C105D1A04D44A
S315000038802D1B02D42B466500491992185B4164082A
S31500003890F4D15C1A08D40125ED07EE1755197441C9
S315000038A002D42A462346491C94185B4101229207FA
S315000038B01D46E61B8D4106D4B61A854103D42B4618
S315000038C0550034467F1924195B415208802AEFD1EE
S315000038D0234300D0022338460A22D04001D30122D6
S315000038E013438A0510436246890A12058918002B7C
S315000038F009D00122D34002D30022401C5141002BA3
S3150000390001D140084000F0BD0B03134307D0C90F97
S31500003910C907F0BD0803104303D1002901DB104697
S31500003920F0BD00202946F0BD0000F07F0000F87FC2
S3150000393000487047101500207546FFF7F9FFAE46A0
S31500003940050069465346C008C000854618B020B534
S31500003950FCF706FD60BC00274908B6460026C0C530
S31500003960C0C5C0C5C0C5C0C5C0C5C0C5C0C5403D31
S3150000397049008D46704710B50446C046C0462046ED
S31500003980FCF7EDFB10BDC80212D54803400F002816
S3150000399004D0C803C043012188407047EFF300807C
S315000039A00001000903210907084380F300887047D6
S315000039B00020704710B500200249029A00F004F872
S315000039C010BD00000000F87F10B50C461107090F66
S315000039D0092904D00A290AD008290CD104E0114685
S315000039E00820FFF7D0FF06E0510606D501E0510694
S315000039F001D50120C007214610BDD10607D501011A
S31500003A000909CC084907000E0006044309E0410FE6
S31500003A1020024907000A0143200E00061D22D1415B
S31500003A2001430846E7E730B58C180278401C1307B7
S31500003A301B0F01D10378401C120906D10278401CE5
S31500003A4003E00578401C0D70491C5B1EF9D101E0AE
S31500003A500B70491C521EFBD1A142E6D3002030BD9B
S31500003A601CB505218A48FEF7A1FF64218948FEF7A7
S31500003A709BFF64218848FEF797FF0A20874B884AF8
S31500003A8088490090884801F06CF9AF218900874881
S31500003A90FEF78AFF002086490860864801F0C2F9D1
S31500003AA085498648FEF750FF002859D18449834846
S31500003AB0FEF74AFF002853D17D4908607D4801F092
S31500003AC0B1F9804801F0AEF97F4801F0ABF97F48C3
S31500003AD001F0A8F97E4801F0A5F97E4801F0A2F9A7
S31500003AE07D4801F09FF97D4801F09CF97C4801F082
S31500003AF099F90A20694B6A4A6A490090794801F0A7
S31500003B0030F965480D2124230322009101900121FB
S31500003B10754800F077FB75480078401C73490870BB
S31500003B2008460078052801DD00200870FCF796FDA0
S31500003B300A205A4B5A4A5B4900906D4801F011F928
S31500003B4054480D2124230322009101900121664847
S31500003B5000F058FB65480078401C6449087006E090
S31500003B6064494C48FDF758FB634800F09FF96348E9
S31500003B7001F0FAF846480D210B4602220091019009
S31500003B8001214E4800F03EFB58480078052802DD2A
S31500003B90002056490870FCF761FD59495948FDF760
S31500003BA03BFB59495748FDF737FB58495548FDF740
S31500003BB033FB38495348FDF72FFB55495148FDF76C
S31500003BC02BFB35494F48FDF727FB4F494D48FDF77D
S31500003BD023FB50494B48FDF71FFB2D494948FDF78C
S31500003BE01BFB00203249086042E047494548FDF783
S31500003BF013FB2F490968CA00511A2C4A881801F08C
S31500003C00B3F814214448FEF7CFFE14214348FEF7CB
S31500003C10CBFE42480D210B46022200910190012164
S31500003C20264800F0EFFA22490968CA00511A1F4ACD
S31500003C3088180A220D2101F073F820220D21374839
S31500003C4001F06EF81A480068C200101A174A811867
S31500003C502C48FDF7E1FA32492A48FDF7DDFA2F49EB
S31500003C602848FDF7D9FA12480068401C1049086038
S31500003C700F490968CA00511A0C4A8818FDF7BCFAA0
S31500003C800328B2D827491F48FDF7C6FA1CBD000015
S31500003C909CE0FF1F78FCFF1FDCFCFF1F4C5200005E
S31500003CA048510000405100003051000051120020E0
S31500003CB05CE2FF1FA45100006C52000040FDFF1F94
S31500003CC05C520000DC510000E4510000EC510000A1
S31500003CD0F4510000FC510000045200009C51000009
S31500003CE0B45100001451000088E2FF1F78E0FF1F66
S31500003CF0F850000074520000881300005051000074
S31500003D00B40B002010F6FF1F8851000084510000FC
S31500003D1080510000ECFBFF1F081200201C1200203F
S31500003D20545200005851000030B47446641E257881
S31500003D30641CAB4204D3635D5B00E31830BC1847D8
S31500003D401D46F8E74900CA020243100000D00420CD
S31500003D504A0D01D001221043044A490D914201D176
S31500003D6002210843012800D105207047FF07000003
S31500003D70F8B504464F1EC8000838211815461E46D9
S31500003D80086849683A4606239A4310D02A463346BD
S31500003D90FFF7CAF83A46D200083AA3181A687F1EF7
S31500003DA05B68FFF72FF806223B469343EED1022FBE
S31500003DB023D0042F11D0062F2FD12A463346FFF7E2
S31500003DC0B3F8E36AA26AFFF71DF82A463346FFF7FF
S31500003DD0ABF8636A226AFFF715F82A463346FFF7FF
S31500003DE0A3F8E369A269FFF70DF82A463346FFF701
S31500003DF09BF863692269FFF705F82A463346FFF701
S31500003E0093F8E368A268FEF7FDFF2A463346FFF7FC
S31500003E108BF863682268FEF7F5FFF8BD002210B53F
S31500003E20134610460149FFF763FA10BD0000F03F44
S31500003E3010B5FEF7E7FF10BD002210B51346104679
S31500003E401146FFF755FA10BD10B50721024A0020AA
S31500003E500907FFF771FC10BD01030000034A10B506
S31500003E6000201107FFF768FC10BD000001FDFFFFF1
S31500003E7030380A2801D20120704700207047000020
S31500003E800848007908210840002803D00548C07971
S31500003E90054908600348007918210843014908715B
S31500003EA07047000000B0064020E0FF1F0DE07D21B6
S31500003EB00901084A116004E006490968491E054AD5
S31500003EC01160044909680029F6DC0146401E0029F4
S31500003ED0EDD1704730E2FF1F70B504460E4600254F
S31500003EE0A1E0605D42285ED00DDC30380300FFF7AC
S31500003EF01BFF1223282D32373C41464B5093939398
S31500003F0093939393559362286BD00CDC452859D034
S31500003F1004DC43284CD044287ED14EE0462856D0B7
S31500003F20612879D158E0632860D0642863D0652879
S31500003F3068D0662870D16AE03D493046FDF76CF9D5
S31500003F406FE03C493046FDF767F96AE03A4930468A
S31500003F50FDF762F965E039493046FDF75DF960E045
S31500003F6037493046FDF758F95BE036493046FDF7EC
S31500003F7053F956E034493046FDF74EF951E03349DE
S31500003F803046FDF749F94CE031493046FDF744F932
S31500003F9047E030493046FDF73FF942E02E493046CA
S31500003FA0FDF73AF93DE02D493046FDF735F938E0A1
S31500003FB02B493046FDF730F933E02A493046FDF704
S31500003FC02BF92EE028493046FDF726F929E0274946
S31500003FD03046FDF721F924E01F493046FDF71CF96C
S31500003FE01FE01E493046FDF717F91AE01C49304616
S31500003FF0FDF712F915E01B493046FDF70DF910E003
S315000040000AE0FFE718493046FDF706F909E01749C7
S315000040103046FDF701F904E0615D1548FCF7DEF96D
S3150000402000BF00BF6D1C605D002800D059E770BD61
S315000040308C5100000C520000BC5100002C520000B4
S31500004040A45100001C520000CC5100003C5200005C
S315000040509451000014520000C45100003452000074
S31500004060AC51000024520000D4510000445200001C
S3150000407060510000F1B588B000210691079100BF9C
S315000040800898FDF7B9F80490FEF74BFF06460F4671
S3150000409000224D4B30463946FEF7C1FE06460F4616
S315000040A00020059083E005990898405C42284BD093
S315000040B00DDC30380300FFF737FE122326292D309A
S315000040C03336393C3F5A5A5A5A5A5A5A435A622830
S315000040D039D00CDC452843D004DC432838D04428AA
S315000040E045D139E046283FD0612840D127E06328F2
S315000040F02DD064282FD0652831D0662837D132E0FC
S315000041000024254633E000242F4D30E0002401250D
S31500004110AD072CE000242D4D29E000242C4D26E08F
S3150000412000242C4D23E000242B4D20E000242B4DB1
S315000041301DE000242A4D1AE000242A4D17E000BF96
S315000041400024294D13E000BF0024284D0FE000BFD6
S315000041500024274D0BE000BF0024264D07E000BFDA
S315000041600024254D03E000BF0024244D00BF00BFFE
S3150000417032463B460020224900F0D4F822462B4620
S3150000418001910090FEF7D0FE03910290079B069ADC
S31500004190FEF738FE0791069000220B4B3046394653
S315000041A0FEF73DFE06460F460598401C059005990C
S315000041B00898405C002800D075E707990698FEF736
S315000041C051FE09B0F0BD00000000F03F00000840BD
S315000041D000001040000014400000184000001C4081
S315000041E0000020400000224000002440000026403D
S315000041F00000284000002A4000002C4000002E400D
S3150000420000003040FFB581B004460D4616460B9FB0
S315000042102046FCF7F1FF3C4908603846FCF7ECFF06
S315000042203A490860084601683846FEF7BDFB00209B
S3150000423037490860374908601AE035480068215C4C
S315000042400A98814208D133480068401C3149086009
S315000042502F480068304908602E480068B04202DBEB
S315000042602E482B4908602A480068401C28490860E7
S3150000427027480068244909688842DEDB0020244973
S315000042800860244908601AE021480068215C049807
S31500004290814208D11F480068401C1E4908601C481E
S315000042A000681F4908601B480068A84202DB1B48DB
S315000042B01749086016480068401C154908601448EC
S315000042C00068114909688842DEDB00201049086051
S315000042D00EE0134800680E4909684018401C205C2F
S315000042E00B49096878540A480068401C0849086068
S315000042F0094800680A490968401A401E04490968C5
S315000043008842E6DC05B0F0BD6CE0FF1F70E0FF1FE1
S3150000431060E0FF1F68E0FF1F64E0FF1FAC2600009F
S3150000432008E0FF1FF0B51FB496B084460C4602465F
S31500004330199D1898039049006800630049084008D1
S315000043400193002A01D0012600E000269E19FE4BAB
S31500004350F6185B109E422BD36E00039F0296002F29
S3150000436000D00127F719F84EF84BBE199E421FD30D
S31500004370039E0346F64F334309D03B469C4201D188
S31500004380002A04D0019B002A05D0012604E0002063
S3150000439039461BB0F0BD00269E19EE4B9E4207D84B
S315000043A0039F029E002F00D00127F6199E4207D9CF
S315000043B02B4660462146189AFFF73AFD1BB0F0BD22
S315000043C00023002C29DAE44EB04226DAE34EB0424E
S315000043D001DB022321E0DE4EB0421EDBE04E070D7C
S315000043E0BE19142E09DD3427BF1B039EFE4001961D
S315000043F0BE40039FBE420BD00FE0039F002F0CD19F
S315000044001427BF1B0646FE400196BE40864204D1D5
S31500004410019BDE07F60F02239B1B0E46164318D19F
S31500004420002D16DA002C03D0022B01D0012B06D06A
S315000044300220FEF7A2FEFFF7F1FC1BB0F0BD022042
S31500004440FEF79BFEFFF7EAFC0122D20751401BB0A4
S31500004450F0BD039E002E61D1BF4EB04220D1C148AF
S31500004460844201D1002A08D0B948814209DB002DD7
S3150000447010DB189829461BB0F0BD0020B4491BB0CC
S31500004480F0BD002D06DA01222946D20718985140C0
S315000044901BB0F0BDB4497944086849681BB0F0BD4B
S315000044A0AB4FB84225D1002D1FDA002904D0B14206
S315000044B012D1002A09D018E0002A72D1A649E20FCB
S315000044C00020D20711431BB0F0BD0020E20F0146C9
S315000044D0D20711431BB0F0BDB14206DA23460020D5
S315000044E03946FEF705FF1BB0F0BD104621461BB04E
S315000044F0F0BDB14212DA0126B607B54203D1234612
S3150000450010461946FEE3994EB54207D1261E05DB35
S315000045101046314600F062FC1BB0F0BD67007F0814
S315000045201646002A40D100290AD08B4A914229D149
S31500004530002C0EDD002D1CDB002011461BB0F0BD4B
S31500004540022B16D0002C14D0012B12D1002C14DB18
S315000045500FE0002C28DA002D09DB012B03D0002008
S315000045607D491BB0F0BD002081491BB0F0BD012B79
S3150000457003D0002001461BB0F0BD00200121C90771
S315000045801BB0F0BD724A91420ED1002C01DA002B0D
S3150000459017D0022B06D00020C043FEF7BAFC1BB092
S315000045A0F0BD90E20120F8E7E217521C94461A4348
S315000045B007D000220892664C62465B1E1A4307D05B
S315000045C009E00120FEF7D9FDFFF736FC1BB0F0BD70
S315000045D00022644C0892674A90427DDD664B674A2A
S315000045E098421FDD914202DC002D05DB4DE0584864
S315000045F0814217DB002D48DD0220FEF7BEFDFFF7E6
S3150000460023FC05460E460022534B21460898FEF72A
S315000046108BFC084671004908C00FC00701432846B5
S315000046201BB0F0BD914215DA002D2EDA0220FEF7FE
S31500004630A4FDFFF709FC05460E460022464B21461F
S315000046400898FEF771FC72005208C80FC0070243B3
S31500004650114617E03E4B994223DD002D15DD022061
S31500004660FEF78BFDFFF7F0FB05460E4600223A4BA0
S3150000467021460898FEF758FC084671004908C00F05
S31500004680C007014328461BB0F0BD0220FEF775FDAA
S31500004690FFF7E4FB49004908E20FD20711431BB0BC
S315000046A0F0BD002230463946FEF7B9FB0122054629
S315000046B00E46D243FFF740F8314A324BFEF7BAFBBB
S315000046C02A463346FEF730FC0022284BFEF7B2FBA3
S315000046D007462A46334600E064E003911046194631
S315000046E0FEF722FC3A46039BFEF71EFC0746032212
S315000046F009915207244B28463146FEF715FC0791CF
S315000047000C90224A204B38460999FEF70DFC0746C5
S3150000471001911F4A1F4B28463146FEF705FC3A46D3
S31500004720019BFEF77CFB07460B460246099107995B
S315000047300C98FEF767FB00250E462846079B0C9A49
S31500004740FEF76DFB3A4627E0FFFF1F00FFFF0F0055
S315000047500000F03F0000E0FF0000F07F0000404353
S3150000476001FCFFFF0000F0BF560C00000000E03F18
S315000047700000F0FF0000E0410000F043FFFFEF3FC4
S31500004780555555555555D53F4715F73FFE822B656F
S3150000479044DF5DF80BAE543E099BFEF74BFB024629
S315000047A00B4652E1012500202D05A94207DA3522E4
S315000047B030463946FEF7C0FF06463420C0430A1588
S315000047C01218FE48101803900803FD49000B014318
S315000047D00F46FC49884201DC002003E0FA49884282
S315000047E002DA0120119005E0002011900398401C88
S315000047F07F1B039011980597C200F4480F927844E6
S31500004800801843680268394630460D930292FEF7D7
S3150000481006FB07910C9030460D9B029A0599FEF710
S31500004820F1FA02460B460020E549FEF761FD0991C3
S315000048300490079B0C9AFEF777FB129000201090CD
S31500004840E3480D46784400680E9001217810490728
S31500004850084311990D9B890440180121C904471882
S315000048603946029A0E98FEF7DAFA3246059BFEF7AB
S31500004870E1FA02460B4629461098FEF755FB064616
S3150000488002913B4629460E9A1098FEF74DFB079B70
S315000048900C9AFEF7CFFA3246029BFEF7C0FA099B46
S315000048A0049AFEF741FB0591129A0A902B46104690
S315000048B01946FEF739FB06460246C6480F460B4622
S315000048C006217844FFF754FA32463B46009104909D
S315000048D010461946FEF728FB009B049AFEF724FBB8
S315000048E006460F462B461946129A1098FEF78AFA84
S315000048F0059B0A9AFEF718FB32463B46FEF782FAFC
S31500004900109A079104902B4610461946FEF70CFBA9
S31500004910B14E0022334609910290FEF773FA079BC7
S31500004920049AFEF76FFA00200746024633460091C6
S31500004930FEF775FA099B029AFEF771FA079B049A2D
S31500004940FEF778FA06460D913A462946009B1098DE
S31500004950FEF7EAFA07910C902B463046129A0D990B
S31500004960FEF7E2FA05460E463A46009B05990A9876
S31500004970FEF7DAFA33462A46FEF744FA02460B46B3
S315000049800746099107990C98FEF73CFA00250E4652
S315000049902846079B0C9AFEF742FA3A46099BFEF711
S315000049A049FA07460722099152078C4B3146284699
S315000049B0FEF7BAFA07910090894A884B384609995A
S315000049C0FEF7B2FA07460191864A874B31462846DA
S315000049D0FEF7AAFA3A46019BFEF714FA834B7B448C
S315000049E00F9A9B181A685B68FEF70CFA02900991F9
S315000049F00398FEF78EFA05910490099B029A07998F
S31500004A000098FEF7FFF97A4B7B440F9A9B181A68B9
S31500004A105B6817460393FEF7F5F9059B049AFEF7C4
S31500004A20F1F90E462846059B049AFEF7F8F93A4630
S31500004A30039BFEF7F4F9079B009AFEF7F0F9099B32
S31500004A40029AFEF7F7F902460B46199900200C90D8
S31500004A500F461898FEF768FA029104903B460C9AA6
S31500004A6019991898FEF7DBF92A463346FEF75CFAE1
S31500004A70029B049AFEF7C6F909910E902A46334620
S31500004A8039460C98FEF750FA06460F46099B0E9AD1
S31500004A90FEF7B8F9574A0D46914220DB5242AA1852
S31500004AA0024310D132463B46FEF7B9F90490039112
S31500004AB0514A524B09990E98FEF7A4F9039B049AA2
S31500004AC000F040FA1ED20220FEF757FBFFF7BCF9B2
S31500004AD049004908E20FD20711431BB0F0BD6A0036
S31500004AE0474B52089A420DD3464AAA18024300D0B1
S31500004AF0CBE532463B46FEF792F9099B0E9A00F04B
S31500004B0021FAF5D96800002340082C490393020DC9
S31500004B103D4B5218984223DD01200005521CD0401F
S31500004B2042195000400D4018384979440968134627
S31500004B308C463749C1408B4312030121120B0905EC
S31500004B4051181422101AC1400391002D01DA48426F
S31500004B500390624630463946FEF761F906460F462F
S31500004B6032463B4609990E98FEF74CF900252A462F
S31500004B70284B28460591FEF7D7F907910C90264A4F
S31500004B80264B28460599FEF7CFF90091029032464A
S31500004B903B4628460599FEF742F9099B0E9AFEF711
S31500004BA049F91F4A1F4BFEF7BFF9009B029AFEF711
S31500004BB029F907460B460246099135E001FCFFFF3D
S31500004BC00000F03F8E9803007AB60B00E60700005F
S31500004BD0A8080000520700000000084009C7EE3F81
S31500004BE0FD033ADCF5015B14E02F3EBE260600000D
S31500004BF0EC05000000009040FE822B654715973CAF
S31500004C0000CC904000346F3F0000E03FC20500003A
S31500004C10FFFF0F00432EE63F396CA80C615C20BEF7
S31500004C20EF39FAFE422EE63F07990C98FEF7EAF8AE
S31500004C3005460E46079B0C9AFEF7F1F83A46099B85
S31500004C40FEF7F8F809912A4633460E9010461946A3
S31500004C50FEF76AF9074602462F480B4605910521DD
S31500004C607844FFF785F83A46059BFEF75DF92A4634
S31500004C703346FEF7DFF80746019128463146099B81
S31500004C800E9AFEF751F9099B0E9AFEF7BBF801231F
S31500004C9004910C9000229B0738460199FEF7BFF855
S31500004CA005910E903A4628463146019BFEF73CF99F
S31500004CB0059B0E9AFEF71CFB049B0C9AFEF7AFF8B9
S31500004CC02A463346FEF7ABF80022144BFEF7B2F83D
S31500004CD0064603980D46000541190915002912DC00
S31500004CE030462946039AFEF727FDFFF72BF80428DE
S31500004CF001D1FFF7B3F830462946039AFEF71CFDAB
S31500004D00064601E004E029180B463246214608987B
S31500004D10FEF70AF91BB0F0BDE40300000000F03F07
S31500004D2030B503460C461946184615E00D78057051
S31500004D30491C0578A5420DD0057895420AD005781C
S31500004D40202D07D005782F2D04D005783A2D01D0D7
S31500004D50012500E0002528180D78002DE6D1057004
S31500004D6030BD10B5029C10BD70B50546002400206C
S31500004D701449086014491548FDF716FE0020144929
S31500004D80086000BF05E0295D1248FDF713FC601CB2
S31500004D90C4B22846FCF730FAA042F4D80D210D48DB
S31500004DA0FDF708FC6420FFF781F800BF0A490748B1
S31500004DB0FDF7CAFD002803D1024800680528F5DD85
S31500004DC070BD000014E0FF1FB80B000040FDFF1F80
S31500004DD030E1FF1F00A0064058520000F8B5064615
S31500004DE00C46FEF725FD051E0F4600D001200143A7
S31500004DF049000B484908411AC90F0DD0002E01D0B1
S31500004E00012100E000210C4361004908401AC00F4F
S31500004E1002D10120FEF7B1F928463946F8BD000057
S31500004E200000F07FFEB5044600262046FFF79CFFF3
S31500004E3014213A48FDF7B8FD14213948FDF7B4FDB1
S31500004E400020029036480D210B4602220091019067
S31500004E5001213448FFF7D6F90D2220213048FFF70B
S31500004E605FFF2F49091D2D48FCF70DFAA11C02A86A
S31500004E70FCF709FA20212C48FDF796FD2A49274818
S31500004E80FFF72AF82649091D2448FCF7FCF902A871
S31500004E90FFF7F0F8064600253DE02348405D31283F
S31500004EA038D122491E48FDF74FFD002832D120494E
S31500004EB01B48FDF749FD00282CD17019401C10280D
S31500004EC015DA7019401CA178009101906378227858
S31500004ED018490968CF00791A174FC8191749FDF7FD
S31500004EE0D1FB14480068401C1249086012E0701992
S31500004EF0401C0090637822780E490968CF00791A21
S31500004F000D4FC8190E49FDF7BDFB0A480068401C45
S31500004F10084908606D1C202DBFDBFEBD081200206D
S31500004F201C12002040FDFF1F3012002064520000BA
S31500004F307C5200005CE2FF1F5112002088520000E4
S31500004F409452000070B501251C002D050C4310D4A9
S31500004F50EC4206D4AC420AD48B4200D070BD8242E9
S31500004F6070BDEB4217D4E94215D48B4270BD9B420B
S31500004F7070BDEC4206D5AC42F9D5994200D070BD61
S31500004F80904270BD6D005C00EC4204D24C00EC42D5
S31500004F9001D2994270BD0FB4034C0CBC03BC30B4B3
S31500004FA0FEF7FEFB30BC70BD1900160430313233FB
S31500004FB03435363738394142434445464030580047
S31500004FC03031323334353637383961626364656679
S31500004FD040307800040000080000000000000002D5
S31500004FE00001000010000000000000000000F03F7B
S31500004FF0000000000000F83F000000000000000074
S315000050000000004003B8E23F00000000000000007E
S3150000501006D0CF43EBFD4C3E033333333333E33F0C
S31500005020FFAB6FDBB66DDB3F4D268F515555D53F38
S3150000503001411DA96074D13F65DBC9934A86CD3F06
S31500005040EF4E454A287ECA3F3E5555555555C53FF4
S3150000505093BDBE166CC166BF2CDE25AF6A56113FE6
S31500005060F16BD2C541BDBBBED0A4BE726937663EE8
S3150000507080807F7E7D7C7B7A79787776767574738F
S31500005080727171706F6E6E6D6C6C6B6A6A6968684E
S31500005090676666656464636362616160605F5F5EE4
S315000050A05E5D5D5C5C5B5B5A5A595958585757565A
S315000050B056555555545453535252525151505050BF
S315000050C04F4F4F4E4E4D4D4D4C4C4C4B4B4B4A4A11
S315000050D04A49494948484847474747464646454555
S315000050E0454444444443434343424242424141418E
S315000050F000000000000000000A0A41542B51474EF0
S31500005100535352443D224E4D45412F474741220DB0
S315000051100A0000000A0A41542B51474E5353524489
S315000051203D224E4D45412F524D43220D0A000000AF
S315000051300A0A41542B51474E5353433D310D0A0041
S315000051404F4B0D0A000000004552524F520D0A0007
S31500005150415452560D0A00002C3C3E0A0000000045
S315000051600A496E76616C6964206865786164656376
S31500005170696D616C2064696769742025632000008D
S315000051802C240000240000002C00000030303030B9
S315000051900000000031303030000000003035303182
S315000051A03030000030313030000000003131303016
S315000051B0000000003039303000000000303031305F
S315000051C00000000031303130000000003031313055
S315000051D00000000031313130000000003031323043
S315000051E0000000003031343000000000303136302D
S315000051F0000000003031383000000000303141300E
S315000052000000000030314330000000003030303103
S315000052100000000031303031000000003031303104
S3150000522000000000313130310000000030303131F3
S3150000523000000000313031310000000030313131E2
S315000052400000000031313131000000004552524F5C
S31500005250523A00003D0000003E0000004E4F204440
S31500005260415441004E4F444154410000554E414285
S315000052704C450000414C49564500000053454152FB
S315000052804348494E4700000025632563256325787A
S315000052900000000025632563257800000A204C4C99
S315000052A0575520636F6E666967757265642070690D
S315000052B06E732050544331312F493253305F525868
S315000052C0443120746F20626520616E204C4C575526
S315000052D02077616B65757020736F7572636520004A
S315000052E00A204C4C575520636F6E66696775726568
S315000052F0642070696E7320505443362F50444230F8
S315000053005F455854524720746F20626520616E20B5
S315000053104C4C57552077616B65757020736F7572AD
S31500005320636520000A204C4C575520636F6E6669F2
S3150000533067757265642070696E7320505444302F0F
S31500005340535049305F504353302F534349325F52D5
S31500005350545320746F20626520616E204C4C575563
S315000053602077616B65757020736F757263652000B9
S315000053700A204C4C575520636F6E666967757265D7
S31500005380642070696E7320505444322F534349325F
S315000053905F525820746F20626520616E204C4C5716
S315000053A0552077616B65757020736F757263652024
S315000053B0000000000A204C4C575520636F6E66694A
S315000053C067757265642070696E7320505443352F7B
S315000053D0535049305F53434B2F493253305F525835
S315000053E04430206973204C4C57552077616B6575A6
S315000053F07020736F75726365200000000A204C4CA4
S31500005400575520636F6E66696775726564207069AB
S315000054106E7320505443312F534349315F525453D6
S315000054202F46544D305F434830206973204C4C570B
S31500005430552077616B65757020736F757263652093
S31500005440000000000A204C4C575520636F6E6669B9
S3150000545067757265642070696E7320505444362FE8
S31500005460534349305F52582F46544D305F434836B8
S315000054702F46544D305F464C5430206973204C4CB7
S3150000548057552077616B65757020736F757263650C
S31500005490200000000A204C4C575520636F6E666949
S315000054A067757265642070696E7320505443332F9C
S315000054B0534349315F52582F46544D305F4348326B
S315000054C0206973204C4C57552077616B65757020A9
S315000054D0736F7572636520000A204C4C5755206324
S315000054E06F6E666967757265642070696E732050A9
S315000054F05443342F535049305F504353302F465452
S315000055004D305F434833206973204C4C5755207704
