:020000040000FA
:10000000F82F00205D03000091010000AB670000A5
:1000100000000000000000000000000000000000E0
:100020000000000000000000000000006D03000060
:1000300000000000000000006F03000071030000DA
:1000400077030000770300007703000077030000C8
:100050007703000077030000770300003178000089
:1000600077030000770300007703000077030000A8
:10007000770300001F7D0000437D00007703000030
:100080007703000077030000770300007703000088
:100090007703000077030000770300007703000078
:1000A0007703000077030000770300007703000068
:1000B000F56700007703000077030000473D00006C
:1000C00000F002F800F054F80CA030C808382418EA
:1000D0002D18A246671EAB4654465D46AC4201D180
:1000E00000F046F87E460F3E0FCCB646012633425E
:1000F00000D0FB1AA246AB4633431847E8F800008D
:1001000008F900000023002400250026103A01D33E
:1001100078C1FBD8520700D330C100D50B607047BF
:1001200010B5662902D10EF0D1FD10BD642902D1AF
:1001300007F0A0FF10BD782902D107F0D1FF10BD54
:10014000632902D109F0AEFA10BD732902D109F07A
:10015000B1FA10BD002010BD1FB500F04DF904002C
:10016000002000210EF06CFCE0601FBD10B510BD3A
:1001700009F05CFE1146FFF7EFFF03F06AFE09F09D
:1001800074FE03B4FFF7F2FF03BC00F02FF9000088
:10019000134909680222114000290DD0104909684D
:1001A000490849000E4A116000BF0D490968022242
:1001B00011400029F9D10DE0002007E00949096943
:1001C00010221140102900D103E0401C064988424A
:1001D000F4DB00BF7047054805490861704700001F
:1001E000403000F000F00FF8FFFF0100130700009F
:1001F0000090044010B54948806B1F214902084314
:10020000464988634648807808210840002804D081
:100210004348807808434249887042480068424910
:1002200008603E4840680121090408433B49486092
:100230003D480468E10F091948107D21C90008F004
:100240007DF83A49086035484068032189068843AB
:10025000012189064018314948607D21C900324892
:10026000006808F06BF8324908602C48403040685C
:10027000000F411C2E48006808F056F82D49086010
:10028000264840304068072212041040000C411CF0
:100290002848006808F048F8274908600120400213
:1002A00026494860886003200002254948600860AC
:1002B00024498860C860E12252021C480168224833
:1002C00007F05BFDE12252021B4801681F4807F05E
:1002D000E3FC4B22D201184801681D4807F0DCFC02
:1002E00010BDFF2001301549086108460069092149
:1002F00009040843114908611E2001218140154A63
:10030000116000BF7047052000021349C860034810
:10031000406840210843014948607047008004401C
:1003200000D0074060E2FF1F44E2FF1F58E2FF1FBA
:1003300048E2FF1F4CE2FF1F50E2FF1F0090044005
:1003400000D0044000C0044000A0064000B00640B9
:1003500000C0064000E100E000B0044009488047CA
:10036000094809480047FEE708488047FEE7FEE7DE
:10037000FEE707488047FEE706480749054A074B5E
:1003800070470000C1730000C1000000AB670000AF
:10039000F5670000E8110020E81A0020E8110020AD
:1003A00010B50446E1B2054807F09BFDE0B210BD70
:1003B00010B5024807F08CFD10BD000000A00640FB
:1003C00070B504460D462046FFF7EAFF70BD10B534
:1003D0000446FFF7EDFF10BD01460020C043704703
:1003E00010B504462046FFF7DBFF10BD00BFFEE757
:1003F000704770477047704700487047A811002049
:10040000FFFFFFFFFFFFFFFFFFFFFFFFFEFBFFFF01
:10041000FFB581B0074614461D460A9E0AF0AAFAA7
:100420000020FD490860FD49FD4807F079FF0020E4
:10043000FC4908600AF09EFA38460EF093FA0A204A
:100440000AF0B8FA0D21F84807F085FC00BFF4481F
:10045000029907F035FFF54908602146F04807F09A
:100460002FFFF34908602946ED4807F029FFF149BD
:100470000860EE48006800280BD1ED4800680028AD
:1004800007D108460068002803D1E3480068B0425D
:1004900001DD012000E00020E749087008460078EF
:1004A0000028D4D00AF066FADB480068B04217DDB5
:1004B0000D21DD4807F04FFC0A21DB4807F04BFC1B
:1004C0001A21D94807F047FC1A21D74807F043FC06
:1004D0000D21D54807F03FFC0A21D34807F03BFC2B
:1004E00005B0F0BD70B504460D46204606F038FB59
:1004F000D24908600020D24908600BE0D04800686B
:10050000205CA84201D1012070BDCD480068401C8C
:10051000CB490860CA480068C84909688842EDDDCF
:100520000020F1E700B5C7480068012802D1632028
:10053000C5490870C448007803000AF099F9060418
:100540000F1A25303B4601204007C04988608000D3
:1005500048602020BD494039486044E00120400700
:10056000BA498860800088602020B84940394860D6
:1005700039E001204007B5494860800088602020AC
:10058000B249403948602EE001204007AF49486039
:10059000800048602020AD494039886023E0012078
:1005A0004007AA498860800048602020A749403958
:1005B000886018E001204007A449886080008860B6
:1005C0002020A249403988600DE0012040079F4962
:1005D00048608000486020209C49403948600020E5
:1005E0009949087000BF00BF00BDF8B504460E462B
:1005F00017461D460A200AF0DDF90F21284607F0AC
:100600008FFE002092490860924908601AE09048E5
:100610000068205C222808D18E480068401C8D4963
:1006200008608B4800688C4908608A480068B842B6
:1006300003DBE12080008649086085480068401C93
:1006400083490860824800686428E0DB0020804914
:100650000860804908601AE07D480068205C222814
:1006600008D17C480068401C7A49086078480068D6
:100670007A49086077480068B04203DBE1208000D7
:100680007349086072480068401C714908607048EE
:1006900000686428E0DB00206D4908600EE06F48C8
:1006A00000686B4909684018401C205C684909686B
:1006B000685467480068401C6549086066480068DF
:1006C00066490968401A401E614909688842E6DCAB
:1006D000F8BDF8B505460E4600240027002000901E
:1006E00000BF07E0285D0A2803D1B74201DA7F1C6A
:1006F0000094641C284606F033FAA042F2D8009811
:10070000F8BD70B505460C460020554908605549AE
:1007100008600EE053480068205CA84204D15048AD
:100720000068401C4E4908604E480068401C4D4916
:100730000860204606F014FA4A4909688842E9D858
:100740004748006870BD38B54748006806F008FAA9
:10075000044621464448006807F0E2FD434800682B
:1007600006F0FEF9044621464048006807F0D8FD2F
:100770003E212B48FFF7B6FE3D4908700846007839
:10078000002848D00AF0F6F82449254807F0C8FDAB
:1007900038A1394806F0F4F9374806F0E1F937494D
:1007A000086000201C4908601E4908603449086040
:1007B0000BE03148324A1268815C1B4807F0CBFAE3
:1007C0002F480068401C2E4908602D4800682B49BE
:1007D00009688842EDDB0A21134807F0BCFA1A21A8
:1007E000114807F0B8FA1A210F4807F0B4FA1A2195
:1007F0000D4807F0B0FA1A210B4807F0ACFA1A219D
:10080000094807F0A8FA00BF1EA1054807F058FDE7
:10081000154908603AE083E014E0FF1F88130000E8
:100820006CE2FF1F0CE0FF1F00B006402CE0FF1F32
:1008300030E0FF1F34E0FF1F28E0FF1F34E2FF1FFE
:1008400038E2FF1FB0E1FF1F7CE0FF1F00F10F4007
:1008500060E0FF1F68E0FF1F64E0FF1F08E0FF1F6C
:10086000FCE0FF1FF8E0FF1F44E0FF1F40E0FF1F18
:100870003CE0FF1F0A0A0000F4F5FF1F38E0FF1FED
:1008800004E0FF1F53454E44204F4B00FCA1FE489F
:1008900007F016FDFD490860FDA1FB4807F010FDBB
:1008A000FD490860FDA1F84807F00AFDFD49086010
:1008B000F648006800280FD1F748006800280BD1DF
:1008C00008460068002807D1F7480068002803D1CF
:1008D000F6480068052897DD1A21F54807F03BFA2D
:1008E0001A21F34807F037FA1A21F14807F033FAD2
:1008F0001A21EF4807F02FFAEE480068012806D1C8
:10090000ED480068ED4908600020EA4908601420BD
:100910000AF050F8EA49DC4807F0D2FCE2490860E6
:10092000E1480068002801D000F087FF1A21E04864
:1009300007F011FA0AF01EF80A200AF03BF81A2113
:10094000DB4807F008FA0AF015F80A200AF032F836
:100950001A21D74807F0FFF90AF00CF80A200AF02C
:1009600029F80A221146D7480BF03AFAD6A1D54801
:1009700006F006F964200AF01DF809F0FBFF642177
:10098000D24807F0CDFCCF4806F0EAF8441C2346D5
:10099000CF4AD0A1CD4807F009FB0520B8A3D6A2C5
:1009A000D7A10090C948FFF733FD09F0E3FF00200D
:1009B000D4490860BD490860D34908600BE0C148CC
:1009C000D14A1268815CBA4807F0C5F9CE48006880
:1009D000401CCD490860BB4806F0C2F8CA49096806
:1009E0008842ECD80A21B24807F0B5F90A21B0488C
:1009F00007F0B1F90A21AE4807F0ADF90A21AC4879
:100A000007F0A9F90A21AA4807F0A5F90A21A84880
:100A100007F0A1F90A21A64807F09DF90A21A44888
:100A200007F099F90A21A24807F095F90A21A04890
:100A300007F091F90A219E4807F08DF90A219C4898
:100A400007F089F90A219A4807F085F90A219848A0
:100A500007F081F90A21964807F07DF90A219448A8
:100A600007F079F90A21924807F075F90A219048B0
:100A700007F071F90A218E4807F06DF90A218C48B8
:100A800007F069F90A218A4807F065F90A218848C0
:100A900007F061F90A21864807F05DF90A218448C8
:100AA00007F059F90A21824807F055F90A218048D0
:100AB00007F051F90A217E4807F04DF90A217C48D8
:100AC00007F049F90A217A4807F045F90A217848E0
:100AD00007F041F90A21764807F03DF90A217448E8
:100AE00007F039F90A21724807F035F90A217048F0
:100AF00007F031F90A216E4807F02DF90A216C48F8
:100B000007F029F90A216A4807F025F90A216848FF
:100B100007F021F90A21664807F01DF90A21644807
:100B200007F019F90A21624807F015F90A2160480F
:100B300007F011F90A215E4807F00DF90A215C4817
:100B400007F009F90A215A4807F005F90A2158481F
:100B500007F001F90A21564807F0FDF80A21544828
:100B600007F0F9F80A21524807F0F5F80A21504831
:100B700007F0F1F80A214E4807F0EDF80A214C4839
:100B800007F0E9F80A214A4807F0E5F80A21484841
:100B900007F0E1F80A21464807F0DDF80A21444849
:100BA00007F0D9F80A21424807F0D5F800BF57A14D
:100BB000354807F085FB002809D131A1324807F0FC
:100BC0007FFB002803D1394800680528EFDD09F0D4
:100BD000D1FE3C4805F0C4FF04462146394807F0E1
:100BE0009FFB09F0C7FE374805F0BAFF04462146CF
:100BF000344807F095FB2F480068012809D02F489A
:100C000000682D49086004202C490860012029490A
:100C1000086009F0AFFE09F07DF92BA1294805F025
:100C2000AFFF0AF035F8052015A333A239A10090D3
:100C300039A00BF0A9FC642009F0BCFE042010A32D
:100C400039A234A100903DA00BF09EFC09F074FB8A
:100C50001DA11C4805F094FF09F06EFB1AA119486C
:100C600005F08EFF09F068FB17A1164805F088FF14
:100C700028A1054807F024FB3449086000A167E07B
:100C80004552524F520000006CE2FF1F48E0FF1F28
:100C90004641494C000000004CE0FF1F44454143E1
:100CA0005400000050E0FF1F44E0FF1F14E0FF1F4E
:100CB00000B0064024E0FF1F20E0FF1FB8E1FF1F47
:100CC00084080000F4F5FF1F43480A00470B00208A
:100CD000BCE1FF1F0D0A41542B465357524954455E
:100CE0003D25735C4C4F472E5458542C312C2564B1
:100CF0002C31300A0A0000004552524F520D0A00B2
:100D00003E0000000CE0FF1F04E0FF1F4F4B0D0AE8
:100D1000000000004F4B00000D0A41542B43465584
:100D20004E3D300D0D0A0A004E4F5420494E53459A
:100D3000525445440D0A4F4B000000000D0A415427
:100D40002B4346554E3D310D0A000000B8E0FF1F11
:100D5000F64807F0B5FAF6490860F648006800283A
:100D60007ED1084600680028FAD1F34800680128BF
:100D700076D0642009F01EFE09F0FCFD6421EF48E6
:100D800007F0CEFAEE4805F0EBFE441C2346ED4A90
:100D9000ED49EA4807F00AF90520EB4B543B1A46A7
:100DA0007832EAA10090E548FFF732FB09F0E2FD56
:100DB0000020E7490860E7490860E74908600BE060
:100DC000DF48E54A1268815CE44806F0C4FFE24867
:100DD0000068401CE0490860D94805F0C1FEDE49C2
:100DE00009688842ECD80A21DC4806F0B4FF0A21E1
:100DF000DA4806F0B0FF0A21D84806F0ACFF0A2115
:100E0000D64806F0A8FF0A21D44806F0A4FF0A211C
:100E1000D24806F0A0FF0A21D04806F09CFF0A2124
:100E2000CE4806F098FF0A21CC4806F094FF0A212C
:100E3000CA4806F090FF0A21C84806F08CFF0A2134
:100E4000C64806F088FF0A21C44806F084FF0A213C
:100E5000C24806F080FF0A21C04806F07CFF00E08F
:100E6000D2E00A21BD4806F076FF0A21BB4806F011
:100E700072FF0A21B94806F06EFF0A21B74806F052
:100E80006AFF0A21B54806F066FF0A21B34806F05A
:100E900062FF0A21B14806F05EFF0A21AF4806F062
:100EA0005AFF0A21AD4806F056FF0A21AB4806F06A
:100EB00052FF0A21A94806F04EFF0A21A74806F072
:100EC0004AFF0A21A54806F046FF0A21A34806F07A
:100ED00042FF0A21A14806F03EFF0A219F4806F082
:100EE0003AFF0A219D4806F036FF0A219B4806F08A
:100EF00032FF0A21994806F02EFF0A21974806F092
:100F00002AFF0A21954806F026FF0A21934806F099
:100F100022FF0A21914806F01EFF0A218F4806F0A1
:100F20001AFF0A218D4806F016FF0A218B4806F0A9
:100F300012FF0A21894806F00EFF0A21874806F0B1
:100F40000AFF0A21854806F006FF0A21834806F0B9
:100F500002FF0A21814806F0FEFE0A217F4806F0C2
:100F6000FAFE0A217D4806F0F6FE0A217B4806F0CB
:100F7000F2FE0A21794806F0EEFE0A21774806F0D3
:100F8000EAFE0A21754806F0E6FE0A21734806F0DB
:100F9000E2FE0A21714806F0DEFE0A216F4806F0E3
:100FA000DAFE0A216D4806F0D6FE0A216B4806F0EB
:100FB000D2FE00BF644938315C4807F081F900284F
:100FC0000AD161495439594807F07AF9002803D108
:100FD000604800680528EDDD09F0CCFC584805F0B4
:100FE000BFFD04462146564807F09AF909F0C2FCB5
:100FF00020205B498860642009F0DCFC20205849EF
:101000004860642009F0D6FC042056A34E4A2432DE
:1010100056A1009056A00BF0B7FA09F08DF94A4995
:101020000C39474805F0ACFD6421444807F078F9D5
:10103000534A54A1414806F0B9FF5748006849A3F4
:10104000414A243249A100903C480BF09DFA09F036
:101050001FFE04203C4B383B1A465C3243A10090F3
:101060004EA00BF091FA09F067F937490C39344872
:1010700005F086FD09F060F933490C39304805F078
:101080007FFD09F005FE09F057F92F490C392C486E
:1010900005F076FD01202C4B383B1A461C3A33A153
:1010A000009042A00BF070FA09F0F2FD434B444A65
:1010B00044A1224806F07AFF3748006829A3224A53
:1010C000543A48A100901D480BF05EFA09F052FC1A
:1010D0003148006845A31C4A543A1CA1009047A01F
:1010E0000BF052FA09F046FC3E211048FFF7FAF9DE
:1010F0004649087008460078002816D009F03AFCE6
:1011000043490A4807F00CF927A10D4805F038FDBE
:101110000B4805F025FD3F49086000200D49086097
:101120000B4908600C49086082E024E26CE2FF1F72
:1011300000E0FF1FB8E0FF1FB0E1FF1F470B0020DA
:10114000F4F5FF1FBCE1FF1FD40C00003E000000BF
:101150000CE0FF1F14E0FF1F04E0FF1F00B006407B
:1011600080F00F404552524F523A00004F4B000062
:101170000D0A41542B434950534855540D0A000061
:10118000C1E1FF1F0D0A41542B435354543D222506
:1011900073220D0A00000000B4E1FF1F0D0A415444
:1011A0002B43494943520D0D0A0000000D0A4154DA
:1011B0002B43494653520D0D0A0000003D0B002001
:1011C000D90A00200D0A41542B434950535441522F
:1011D000543D22544350222C222573222C22257365
:1011E000220D0A00434F4E4E45435400434F4E4E8E
:1011F000454354204641494C000000000D0A41542B
:101200002B43495053454E440D0A00003CE0FF1F5C
:101210008813000038E0FF1FFD48FE4A1268815C19
:10122000FD4806F098FDFB480068401CF94908603D
:10123000F8480068F94909688842EDDB0A21F64858
:1012400006F089FD1A21F44806F085FD1A21F248BE
:1012500006F081FD1A21F04806F07DFD00BFF0493F
:10126000F04807F02DF8F0490860F049ED4807F024
:1012700027F8EF490860EF49EA4807F021F8EE49FE
:101280000860EA491C31E74807F01AF8EB490860A2
:10129000E748006800280FD1E748006800280BD114
:1012A00008460068002807D1DF480068002803D1FD
:1012B000E34800680528D2DD1A21D74806F04BFD27
:1012C0001A21D54806F047FD1A21D34806F043FD00
:1012D0001A21D14806F03FFD142009F06BFBD049DC
:1012E000D04806F0EDFFD74908600846006800289E
:1012F0007ED1642009F05EFB09F03CFB6421D248FA
:1013000007F00EF8C24805F02BFC441C2346CF4AD8
:10131000C6495431CC4806F049FE0520C34B1A4655
:101320007832CBA10090C848FFF772F809F022FB91
:101330000020C8490860C2490860B64908600BE04F
:10134000B348B44A1268815CB34806F004FDB14862
:101350000068401CAF490860AD4805F001FCAD498C
:1013600009688842ECD80A21AB4806F0F4FC0A214F
:10137000A94806F0F0FC0A21A74806F0ECFC0A2177
:10138000A54806F0E8FC0A21A34806F0E4FC0A217F
:10139000A14806F0E0FC0A219F4806F0DCFC0A2187
:1013A0009D4806F0D8FC0A219B4806F0D4FC0A218F
:1013B000994806F0D0FC0A21974806F0CCFC0A2197
:1013C000954806F0C8FC0A21934806F0C4FC0A219F
:1013D000914806F0C0FC0A218F4806F0BCFC0A21A7
:1013E0008D4806F0B8FC0A218B4806F0B4FC00E0FA
:1013F000BEE00A21884806F0AEFC0A21864806F0C5
:10140000AAFC0A21844806F0A6FC0A21824806F0BC
:10141000A2FC0A21804806F09EFC0A217E4806F0C4
:101420009AFC0A217C4806F096FC0A217A4806F0CC
:1014300092FC0A21784806F08EFC0A21764806F0D4
:101440008AFC0A21744806F086FC0A21724806F0DC
:1014500082FC0A21704806F07EFC0A216E4806F0E4
:101460007AFC0A216C4806F076FC0A216A4806F0EC
:1014700072FC0A21684806F06EFC0A21664806F0F4
:101480006AFC0A21644806F066FC0A21624806F0FC
:1014900062FC0A21604806F05EFC0A215E4806F004
:1014A0005AFC0A215C4806F056FC0A215A4806F00C
:1014B00052FC0A21584806F04EFC0A21564806F014
:1014C0004AFC0A21544806F046FC0A21524806F01C
:1014D00042FC0A21504806F03EFC0A214E4806F024
:1014E0003AFC0A214C4806F036FC0A214A4806F02C
:1014F00032FC0A21484806F02EFC0A21464806F034
:101500002AFC0A21444806F026FC0A21424806F03B
:1015100022FC0A21404806F01EFC0A213E4806F043
:101520001AFC0A213C4806F016FC0A213A4806F04B
:1015300012FC00BF3D498C313A4806F0C1FE00283C
:1015400009D13A49374806F0BBFE002803D13C4890
:1015500000680528EEDD09F00DFA2D4805F000FBC6
:10156000044621462A4806F0DBFE09F003FA66E14C
:101570000BF0F8F863E1642009F01CFA09F0FAF9BD
:101580006421314806F0CCFE214805F0E9FA441CFC
:1015900023462E4A254954312B4806F007FD0520E5
:1015A000224B1A4678322AA100902748FEF730FFD6
:1015B00009F0E0F900202749086021490860154931
:1015C00008600BE01248134A1268815C124806F06A
:1015D000C2FB10480068401C0E4908600C4805F02A
:1015E000BFFA0C4909688842ECD80A210A4806F07B
:1015F000B2FB0A21084806F0AEFB0A21064806F0B5
:10160000AAFB0A21044806F0A6FB0A21024823E0AF
:10161000F4F5FF1F04E0FF1F00B0064038E0FF1F95
:10162000840800006CE2FF1F44E0FF1F800C0000F4
:1016300048E0FF1FF41100004CE0FF1F50E0FF1FC7
:1016400014E0FF1F40E0FF1F470B0020BCE1FF1F1D
:101650003E0000000CE0FF1F06F07DFB0A21FE4863
:1016600006F079FB0A21FC4806F075FB0A21FA48CE
:1016700006F071FB0A21F84806F06DFB0A21F648D6
:1016800006F069FB0A21F44806F065FB0A21F248DE
:1016900006F061FB0A21F04806F05DFB0A21EE48E6
:1016A00006F059FB0A21EC4806F055FB0A21EA48EE
:1016B00006F051FB0A21E84806F04DFB0A21E648F6
:1016C00006F049FB0A21E44806F045FB0A21E248FE
:1016D00006F041FB0A21E04806F03DFB0A21DE4806
:1016E00006F039FB0A21DC4806F035FB0A21DA480E
:1016F00006F031FB0A21D84806F02DFB0A21D64816
:1017000006F029FB0A21D44806F025FB0A21D2481D
:1017100006F021FB0A21D04806F01DFB0A21CE4825
:1017200006F019FB0A21CC4806F015FB0A21CA482D
:1017300006F011FB0A21C84806F00DFB0A21C64835
:1017400006F009FB0A21C44806F005FB0A21C2483D
:1017500006F001FB0A21C04806F0FDFA0A21BE4846
:1017600006F0F9FA0A21BC4806F0F5FA0A21BA484F
:1017700006F0F1FA0A21B84806F0EDFA0A21B64857
:1017800006F0E9FA0A21B44806F0E5FA0A21B2485F
:1017900006F0E1FA0A21B04806F0DDFA0A21AE4867
:1017A00006F0D9FA0A21AC4806F0D5FA0A21AA486F
:1017B00006F0D1FA0A21A84806F0CDFA0A21A64877
:1017C00006F0C9FA0A21A44806F0C5FA0A21A2487F
:1017D00006F0C1FA0A21A04806F0BDFA0A219E4887
:1017E00006F0B9FA0A219C4806F0B5FA0A219A488F
:1017F00006F0B1FA0A21984806F0ADFA00BF974901
:10180000974806F05DFD00280AD194498C39944828
:1018100006F056FD002803D1924800680528EEDD49
:1018200009F0A8F8904805F09BF9044621468E4837
:1018300006F076FD09F09EF801E00AF093FF8A4871
:1018400005F08EF904462146874806F069FD1A2105
:10185000814806F080FA38BD38B58448006805F044
:101860007FF9044621468148006806F059FD80480A
:10187000006805F075F9044621467D48006806F0C9
:101880004FFD3E217648FEF72DFE7A490870084646
:10189000007800287ED009F06DF87749704806F08E
:1018A0003FFD76A1704805F06BF96F4805F058F9D7
:1018B0007349086000206B490860724908607249EA
:1018C00008600BE06848704A1268815C624806F064
:1018D00042FA6D480068401C6B4908606A4800681D
:1018E000674909688842EDDB1A215B4806F033FA44
:1018F0001A21594806F02FFA00BF6449584806F0EB
:10190000DFFC5A49086055498C39554806F0D8FC27
:101910005F4908605F49524806F0D2FC5E490860A2
:101920004E4970394E4806F0CBFC5C490860584877
:10193000006800280FD15848006800280BD10846DD
:101940000068002807D149480068002803D14548AD
:1019500000680528D1DD1A213F4806F0FCF91A215C
:101960003D4806F0F8F91A213B4806F0F4F91A212F
:10197000394806F0F0F94A480068012806D149487C
:10198000006849490860002045490860142009F0B2
:1019900011F800E005E03D49314806F091FC33497B
:1019A000086032480068002801D000F02DFF1A219D
:1019B000294806F0D0F908F0DDFF0A2008F0FAFF08
:1019C0001A21254806F0C7F908F0D4FF0A2008F0CC
:1019D000F1FF1A21204806F0BEF908F0CBFF0A20DB
:1019E00008F0E8FF642008F0E5FF08F0C3FF642179
:1019F0002E4806F095FC1C4805F0B2F8441C23461E
:101A00002B4A16493839294806F0D0FA0520134BDD
:101A10008C3B1A46783227A100902448FEF7F8FC48
:101A200008F0A8FF0020174908600E490860164911
:101A300008600BE00C48144A1268815C064806F006
:101A40008AF911480068401C0F490860064805F0F3
:101A500087F80D4909682FE000B006400C0D000022
:101A60006CE2FF1F14E0FF1FF4F5FF1F44E0FF1FAF
:101A700040E0FF1F3CE0FF1F881300000A0A00003F
:101A800038E0FF1F0CE0FF1F04E0FF1F8408000088
:101A900048E0FF1FF41100004CE0FF1F50E0FF1F63
:101AA00024E0FF1F20E0FF1FB8E1FF1F470B0020CD
:101AB000BCE1FF1F3E0000008842BBD80A21FE485F
:101AC00006F049F90A21FC4806F045F90A21FA48CE
:101AD00006F041F90A21F84806F03DF90A21F648D6
:101AE00006F039F90A21F44806F035F90A21F248DE
:101AF00006F031F90A21F04806F02DF90A21EE48E6
:101B000006F029F90A21EC4806F025F90A21EA48ED
:101B100006F021F90A21E84806F01DF90A21E648F5
:101B200006F019F90A21E44806F015F90A21E248FD
:101B300006F011F90A21E04806F00DF90A21DE4805
:101B400006F009F90A21DC4806F005F90A21DA480D
:101B500006F001F90A21D84806F0FDF80A21D64816
:101B600006F0F9F80A21D44806F0F5F80A21D2481F
:101B700006F0F1F80A21D04806F0EDF80A21CE4827
:101B800006F0E9F80A21CC4806F0E5F80A21CA482F
:101B900006F0E1F80A21C84806F0DDF80A21C64837
:101BA00006F0D9F80A21C44806F0D5F80A21C2483F
:101BB00006F0D1F80A21C04806F0CDF80A21BE4847
:101BC00006F0C9F80A21BC4806F0C5F80A21BA484F
:101BD00006F0C1F80A21B84806F0BDF80A21B64857
:101BE00006F0B9F80A21B44806F0B5F80A21B2485F
:101BF00006F0B1F80A21B04806F0ADF80A21AE4867
:101C000006F0A9F80A21AC4806F0A5F80A21AA486E
:101C100006F0A1F80A21A84806F09DF80A21A64876
:101C200006F099F80A21A44806F095F80A21A2487E
:101C300006F091F80A21A04806F08DF80A219E4886
:101C400006F089F80A219C4806F085F80A219A488E
:101C500006F081F80A21984806F07DF80A21964896
:101C600006F079F80A21944806F075F80A2192489E
:101C700006F071F80A21904806F06DF80A218E48A6
:101C800006F069F800BF8D498D4806F019FB002861
:101C90000AD18A498C398A4806F012FB002803D100
:101CA000884800680528EEDD08F064FE864804F0E8
:101CB00057FF04462146844806F032FB08F05AFEDE
:101CC000814804F04DFF044621467F4806F028FB7A
:101CD0007E480068012809D07D4800687D49086079
:101CE00004207B49086001207849086008F042FE22
:101CF00008F010F971494439734804F041FF08F0C5
:101D0000C7FF05206D4B8C3B1A46783272A10090BC
:101D1000104620300AF038FC642008F04BFE042006
:101D2000664B8C3B1A46A8326BA1009010461430CB
:101D30000AF02AFC08F000FB60494439624804F0CC
:101D40001FFF08F0F9FA5D4944395F4804F018FFB5
:101D500008F0F2FA594944395B4804F011FF5EA1DA
:101D6000574806F0ADFA5D49086054498C3954482B
:101D700006F0A6FA5A4908605848006800287DD144
:101D8000084600680028FAD156480068012875D036
:101D9000642008F00FFE08F0EDFD6421524806F0C3
:101DA000BFFA494804F0DCFE441C23464F4A43492D
:101DB00038394D4806F0FAF80520404B8C3B1A465E
:101DC00078324BA100904848FEF722FB08F0D2FD84
:101DD0000020484908603B490860474908600BE01B
:101DE0003948454A1268815C334805F0B4FF4248DF
:101DF0000068401C40490860334804F0B1FE3E4989
:101E000009688842ECD80A212B4805F0A4FF0A2172
:101E1000294805F0A0FF0A21274805F09CFF0A2168
:101E2000254805F098FF0A21234805F094FF0A2170
:101E3000214805F090FF0A211F4805F08CFF0A2178
:101E40001D4805F088FF0A211B4805F084FF0A2180
:101E5000194805F080FF0A21174805F07CFF0A2188
:101E6000154805F078FF0A21134805F074FF0A2190
:101E7000114805F070FF0A210F4800E0F6E005F078
:101E80006AFF0A210C4805F066FF0A210A4805F09E
:101E900062FF0A21084805F05EFF0A21064805F0A6
:101EA0005AFF0A21044805F056FF0A21024805F0AE
:101EB00052FF0A21004821E000B006400C0D00004E
:101EC0006CE2FF1F14E0FF1FF4F5FF1F24E0FF1F6B
:101ED000B8E1FF1F20E0FF1F4F4B0000B8E0FF1FDD
:101EE00000E0FF1FB0E1FF1F470B0020BCE1FF1F18
:101EF0003E0000000CE0FF1F04E0FF1F05F02BFF79
:101F00000A21FE4805F027FF0A21FC4805F023FFBF
:101F10000A21FA4805F01FFF0A21F84805F01BFFC7
:101F20000A21F64805F017FF0A21F44805F013FFCF
:101F30000A21F24805F00FFF0A21F04805F00BFFD7
:101F40000A21EE4805F007FF0A21EC4805F003FFDF
:101F50000A21EA4805F0FFFE0A21E84805F0FBFEE9
:101F60000A21E64805F0F7FE0A21E44805F0F3FEF1
:101F70000A21E24805F0EFFE0A21E04805F0EBFEF9
:101F80000A21DE4805F0E7FE0A21DC4805F0E3FE01
:101F90000A21DA4805F0DFFE0A21D84805F0DBFE09
:101FA0000A21D64805F0D7FE0A21D44805F0D3FE11
:101FB0000A21D24805F0CFFE0A21D04805F0CBFE19
:101FC0000A21CE4805F0C7FE0A21CC4805F0C3FE21
:101FD0000A21CA4805F0BFFE0A21C84805F0BBFE29
:101FE0000A21C64805F0B7FE0A21C44805F0B3FE31
:101FF0000A21C24805F0AFFE0A21C04805F0ABFE39
:102000000A21BE4805F0A7FE0A21BC4805F0A3FE40
:102010000A21BA4805F09FFE00BFB949B94806F049
:102020004FF900280AD1B6498C39B64806F048F96C
:10203000002803D1B44800680528EEDD08F09AFCBA
:10204000B24804F08DFD04462146B04806F068F918
:1020500008F090FC2020AE498860642008F0AAFCBB
:102060002020AB494860642008F0A4FC0420A94B60
:10207000A34A143AA8A1009018460C300AF084FA3A
:1020800008F05AF99E494439A04804F079FD6421CA
:10209000A24806F045F9A24A9E4920319F4805F022
:1020A00085FFA04800689B4B954A143A9AA100907E
:1020B0009A480AF069FA08F0EBFD0420904B703B57
:1020C0001A465C3294A10090924838300AF05CFACB
:1020D00008F032F98A4944398C4804F051FD08F07F
:1020E0002BF987494439894804F04AFD08F0D0FDAE
:1020F00008F022F982494439844804F041FD012066
:102100007F4B703B1A461C3A83A1009081484830AF
:102110000AF03AFA08F0BCFD834B844A7D496031ED
:102120007E4805F043FF7F4800687A4B744A8C3A3A
:1021300019468031009079480AF026FA08F01AFC16
:1021400078480068734B88336D4A8C3A78A10090C8
:10215000184610300AF018FA08F00CFC3E216948C5
:10216000FEF7C0F9734908700846007800287DD052
:1021700008F000FC7049634806F0D2F86FA163488C
:1021800004F0FEFC614804F0EBFC6D49086000209F
:102190005D4908606B4908606B4908600BE05B486B
:1021A000694A1268815C554805F0D5FD66480068AB
:1021B000401C6549086064480068614909688842B4
:1021C000EDDB1A214D4805F0C6FD1A214B4805F0FC
:1021D000C2FD00BF5D494B4806F072F85C490860DB
:1021E00047498C39474806F06BF85A490860494915
:1021F0009031444806F064F8574908604049703906
:10220000404806F05DF855490860524800680028CB
:102210000FD15148006800280BD1084600680028FB
:1022200007D14B480068002803D1374800680528CB
:10223000D0DD1A21314805F08EFD1A212F4805F016
:102240008AFD1A212D4805F086FD1A212B4805F03C
:1022500082FD142008F0AEFB3C492A4806F030F815
:102260003F49086008460068002800E079E17BD11A
:10227000642008F09FFB08F07DFB6421274806F0EE
:102280004FF8224804F06CFC441C2346354A1C4994
:102290003839224805F08AFE0520194B8C3B1A4636
:1022A000783223A100901D48FEF7B2F808F062FBD7
:1022B00000202449086014490860234908600BE0A5
:1022C0001248214A1268815C0C4805F044FD1E4802
:1022D0000068401C1C4908600C4804F041FC1A4985
:1022E00009688842ECD80A21044805F034FD0A2127
:1022F000024805F030FD0A21004836E000B00640F3
:102300000C0D00006CE2FF1F14E0FF1FF4F5FF1F2F
:1023100080F00F40641100004F4B0000470B00207D
:10232000C1E1FF1FB4E1FF1F3D0B0020D90A0020CF
:102330003E0000003CE0FF1F881300000A00000080
:1023400038E0FF1F0CE0FF1F04E0FF1F84080000BF
:1023500044E0FF1F48E0FF1F4CE0FF1F50E0FF1F5D
:1023600040E0FF1FBCE1FF1FF8E005F0F4FC0A218C
:10237000FE4805F0F0FC0A21FC4805F0ECFC0A21BF
:10238000FA4805F0E8FC0A21F84805F0E4FC0A21C7
:10239000F64805F0E0FC0A21F44805F0DCFC0A21CF
:1023A000F24805F0D8FC0A21F04805F0D4FC0A21D7
:1023B000EE4805F0D0FC0A21EC4805F0CCFC0A21DF
:1023C000EA4805F0C8FC0A21E84805F0C4FC0A21E7
:1023D000E64805F0C0FC0A21E44805F0BCFC0A21EF
:1023E000E24805F0B8FC0A21E04805F0B4FC0A21F7
:1023F000DE4805F0B0FC0A21DC4805F0ACFC0A21FF
:10240000DA4805F0A8FC0A21D84805F0A4FC0A2106
:10241000D64805F0A0FC0A21D44805F09CFC0A210E
:10242000D24805F098FC0A21D04805F094FC0A2116
:10243000CE4805F090FC0A21CC4805F08CFC0A211E
:10244000CA4805F088FC0A21C84805F084FC0A2126
:10245000C64805F080FC0A21C44805F07CFC0A212E
:10246000C24805F078FC0A21C04805F074FC0A2136
:10247000BE4805F070FC0A21BC4805F06CFC0A213E
:10248000BA4805F068FC0A21B84805F064FC0A2146
:10249000B64805F060FC0A21B44805F05CFC0A214E
:1024A000B24805F058FC0A21B04805F054FC0A2156
:1024B000AE4805F050FC0A21AC4805F04CFC0A215E
:1024C000AA4805F048FC0A21A84805F044FC0A2166
:1024D000A64805F040FC0A21A44805F03CFC0A216E
:1024E000A24805F038FC0A21A04805F034FC0A2176
:1024F0009E4805F030FC0A219C4805F02CFC0A217E
:102500009A4805F028FC0A21984805F024FC0A2185
:10251000964805F020FC0A21944805F01CFC00BFF9
:102520009349944805F0CCFE00280AD190498C3993
:10253000904805F0C5FE002803D18F4800680528A3
:10254000EEDD08F017FA8D4804F00AFB0446214638
:102550008A4805F0E5FE08F00DFA57E10AF002F9A5
:1025600054E1642008F026FA08F004FA6421844853
:1025700005F0D6FE814804F0F3FA441C2346814A54
:102580007B4938397E4805F011FD0520784B8C3B9E
:102590001A4678327CA100907948FDF739FF08F09F
:1025A000E9F90020794908607349086078490860B2
:1025B0000BE07248764A1268815C6C4805F0CBFBF0
:1025C00073480068401C724908606C4804F0C8FAFF
:1025D0006F4909688842ECD80A21644805F0BBFBC2
:1025E0000A21624805F0B7FB0A21604805F0B3FBF9
:1025F0000A215E4805F0AFFB0A215C4805F0ABFB01
:102600000A215A4805F0A7FB0A21584805F0A3FB08
:102610000A21564805F09FFB0A21544805F09BFB10
:102620000A21524805F097FB0A21504805F093FB18
:102630000A214E4805F08FFB0A214C4805F08BFB20
:102640000A214A4805F087FB0A21484805F083FB28
:102650000A21464805F07FFB0A21444805F07BFB30
:102660000A21424805F077FB0A21404805F073FB38
:102670000A213E4805F06FFB0A213C4805F06BFB40
:102680000A213A4805F067FB0A21384805F063FB48
:102690000A21364805F05FFB0A21344805F05BFB50
:1026A0000A21324805F057FB0A21304805F053FB58
:1026B0000A212E4805F04FFB0A212C4805F04BFB60
:1026C0000A212A4805F047FB0A21284805F043FB68
:1026D0000A21264805F03FFB0A21244805F03BFB70
:1026E0000A21224805F037FB0A21204805F033FB78
:1026F0000A211E4805F02FFB0A211C4805F02BFB80
:102700000A211A4805F027FB0A21184805F023FB87
:102710000A21164805F01FFB0A21144805F01BFB8F
:102720000A21124805F017FB0A21104805F013FB97
:102730000A210E4805F00FFB0A210C4805F00BFB9F
:102740000A210A4805F007FB0A21084805F003FBA7
:102750000A21064805F0FFFA0A21044805F0FBFAB1
:102760000A21024805F0F7FA0A2113E000B00640FA
:102770000C0D00006CE2FF1F14E0FF1FF4F5FF1FBB
:10278000470B0020BCE1FF1F3E0000000CE0FF1FD4
:1027900004E0FF1FFE4805F0DEFA0A21FC4805F0C0
:1027A000DAFA0A21FA4805F0D6FA0A21F84805F0C3
:1027B000D2FA0A21F64805F0CEFA0A21F44805F0CB
:1027C000CAFA0A21F24805F0C6FA00BFF149F248F8
:1027D00005F076FD00280AD1EE498C39EE4805F067
:1027E0006FFD002803D1ED4800680528EEDD08F0F4
:1027F000C1F8EB4804F0B4F904462146E84805F076
:102800008FFD08F0B7F801E009F0ACFFE44804F0F0
:10281000A7F904462146E24805F082FD1A21DC486A
:1028200005F099FA38BD38B5DE48006804F098F92B
:1028300004462146DB48006805F072FDDA4800686E
:1028400004F08EF904462146D748006805F068FD7B
:102850003E21D148FDF746FED4490870084600786D
:1028600000287CD008F086F8D149CB4805F058FD07
:10287000D0A1CB4804F084F9C94804F071F9CE49DD
:1028800008600020C5490860CC490860CC49086050
:102890000BE0C348CA4A1268815CBD4805F05BFA88
:1028A000C7480068401CC6490860C5480068C2495E
:1028B00009688842EDDB1A21B54805F04CFA00BFE3
:1028C000C049B54805F0FCFCB6490860B1498C39EF
:1028D000B14805F0F5FCBC490860BC49AE4805F0BC
:1028E000EFFCBB490860AB497039AB4805F0E8FC28
:1028F000B8490860B448006800280FD1B44800689F
:1029000000280BD108460068002807D1A5480068B8
:10291000002803D1A14800680428D1DD1A219C4871
:1029200005F019FA1A219A4805F015FA1A21984863
:1029300005F011FA1A21964805F00DFAA64800682C
:10294000012806D1A5480068A54908600020A249D1
:102950000860322008F02EF89A498F4800E003E022
:1029600005F0AEFC8F4908608E480068002801D051
:1029700000F038FF1A21864805F0EDF907F0FAFF5C
:102980000A2008F017F81A21814805F0E4F907F049
:10299000F1FF0A2008F00EF81A217D4805F0DBF956
:1029A00007F0E8FF0A2008F005F8642008F002F8B4
:1029B00007F0E0FF64218B4805F0B2FC784804F092
:1029C000CFF8441C2346884A72493839854805F0B7
:1029D000EDFA05206F4B8C3B1A46783283A10090AC
:1029E0008048FDF715FD07F0C5FF0020734908601A
:1029F0006A490860724908600BE06948704A1268C9
:102A0000815C634805F0A7F96D480068401C6C497B
:102A10000860634804F0A4F8694909688842ECD862
:102A20000A215B4805F097F90A21594805F093F906
:102A30000A21574805F08FF90A21554805F08BF90E
:102A40000A21534805F087F90A21514805F083F916
:102A50000A214F4805F07FF90A214D4805F07BF91E
:102A60000A214B4805F077F90A21494805F073F926
:102A70000A21474805F06FF90A21454805F06BF92E
:102A80000A21434805F067F90A21414805F063F936
:102A90000A213F4805F05FF90A213D4805F05BF93E
:102AA0000A213B4805F057F90A21394805F053F946
:102AB0000A21374805F04FF90A21354805F04BF94E
:102AC0000A21334805F047F90A21314805F043F956
:102AD0000A212F4805F03FF90A212D4805F03BF95E
:102AE0000A212B4805F037F90A21294805F033F966
:102AF0000A21274805F02FF90A21254805F02BF96E
:102B00000A21234805F027F90A21214805F023F975
:102B10000A211F4805F01FF90A211D4805F01BF97D
:102B20000A211B4805F017F90A21194805F013F985
:102B30000A21174805F00FF90A21154805F00BF98D
:102B40000A21134805F007F90A21114805F003F995
:102B50000A210F4805F0FFF80A210D4805F0FBF89F
:102B60000A210B4805F0F7F80A21094805F0F3F8A7
:102B70000A21074805F0EFF80A21054805F0EBF8AF
:102B80000A21034805F0E7F80A21014830E0000077
:102B900000B006400C0D00006CE2FF1F14E0FF1FA8
:102BA000F4F5FF1F44E0FF1F40E0FF1F3CE0FF1F64
:102BB000881300000A00000038E0FF1F0CE0FF1F30
:102BC00004E0FF1F8408000048E0FF1FF41100002C
:102BD0004CE0FF1F50E0FF1F24E0FF1F20E0FF1F1D
:102BE000B8E1FF1F470B0020BCE1FF1F3E000000C3
:102BF00005F0B1F80A21FE4805F0ADF80A21FC48BD
:102C000005F0A9F80A21FA4805F0A5F80A21F848C4
:102C100005F0A1F80A21F64805F09DF80A21F448CC
:102C200005F099F80A21F24805F095F80A21F048D4
:102C300005F091F80A21EE4805F08DF80A21EC48DC
:102C400005F089F80A21EA4805F085F800BFE9494E
:102C5000E94805F035FB00280AD1E6498C39E648F9
:102C600005F02EFB002803D1E44800680528EEDDBE
:102C700007F080FEE24803F073FF04462146E04877
:102C800005F04EFB07F076FEDD4803F069FF0446D1
:102C90002146DB4805F044FB07F03CF9D5494439AF
:102CA000D74803F06DFFD7480068012809D0D648FF
:102CB0000068D64908600420D34908600120D14942
:102CC000086007F057FE07F0E3FF0520C94B8C3B77
:102CD0001A467832CEA100901046203009F054FCFC
:102CE000642007F067FE0420C24B8C3B1A46A832D2
:102CF000C7A100901046143009F046FC07F01CFBF9
:102D0000BC494439BE4803F03BFF07F015FBB94905
:102D10004439BB4803F034FF07F00EFBB549443992
:102D2000B74803F02DFFBAA1B34805F0C9FAB94975
:102D30000860B0498C39B04805F0C2FAB64908605D
:102D4000B448006800287DD1084600680028FAD100
:102D5000B2480068012875D0642007F02BFE07F008
:102D600009FE6421AE4805F0DBFAA54803F0F8FE41
:102D7000441C2346AB4A9F493839A94805F016F947
:102D800005209C4B8C3B1A467832A7A10090A448A2
:102D9000FDF73EFB07F0EEFD0020A44908609749CF
:102DA0000860A34908600BE09548A14A1268815C5D
:102DB0008F4804F0D0FF9E480068401C9C49086082
:102DC0008F4803F0CDFE9A4909688842ECD80A2161
:102DD000874804F0C0FF0A21854804F0BCFF0A219F
:102DE000834804F0B8FF0A21814804F0B4FF0A21A7
:102DF0007F4804F0B0FF0A217D4804F0ACFF0A21AF
:102E00007B4804F0A8FF0A21794804F0A4FF0A21B6
:102E1000774804F0A0FF0A21754804F09CFF0A21BE
:102E2000734804F098FF0A21714804F094FF0A21C6
:102E30006F4804F090FF0A216D4804F08CFF0A21CE
:102E40006B4800E0D3E004F086FF0A21684804F0F4
:102E500082FF0A21664804F07EFF0A21644804F0DC
:102E60007AFF0A21624804F076FF0A21604804F0E4
:102E700072FF0A215E4804F06EFF0A215C4804F0EC
:102E80006AFF0A215A4804F066FF0A21584804F0F4
:102E900062FF0A21564804F05EFF0A21544804F0FC
:102EA0005AFF0A21524804F056FF0A21504804F004
:102EB00052FF0A214E4804F04EFF0A214C4804F00C
:102EC0004AFF0A214A4804F046FF0A21484804F014
:102ED00042FF0A21464804F03EFF0A21444804F01C
:102EE0003AFF0A21424804F036FF0A21404804F024
:102EF00032FF0A213E4804F02EFF0A213C4804F02C
:102F00002AFF0A213A4804F026FF0A21384804F033
:102F100022FF0A21364804F01EFF0A21344804F03B
:102F20001AFF0A21324804F016FF0A21304804F043
:102F300012FF0A212E4804F00EFF0A212C4804F04B
:102F40000AFF0A212A4804F006FF0A21284804F053
:102F500002FF0A21264804F0FEFE0A21244804F05C
:102F6000FAFE0A21224804F0F6FE0A21204804F065
:102F7000F2FE0A211E4804F0EEFE0A211C4804F06D
:102F8000EAFE0A211A4804F0E6FE0A21184804F075
:102F9000E2FE0A21164804F0DEFE00BF154916487D
:102FA00005F08EF900280AD112498C39124805F033
:102FB00087F9002803D1114800680528EEDD07F0E5
:102FC000D9FC0F4803F0CCFD044621460C4805F01F
:102FD000A7F907F0CFFC202016498860642007F08D
:102FE000E9FC202013494860642007F0E3FC23E05B
:102FF00000B006400C0D00006CE2FF1F14E0FF1F44
:10300000F4F5FF1F24E0FF1FB8E1FF1F20E0FF1FC2
:103010004F4B0000B8E0FF1F00E0FF1FB0E1FF1FB3
:10302000470B0020BCE1FF1F3E0000000CE0FF1F2B
:1030300004E0FF1F80F00F400420FD4BFD4AFEA17D
:10304000009018460C3009F09FFA07F075F9F9491D
:103050003039FA4803F094FD6421F94805F060F92D
:10306000F84AF3492031F64804F0A0FFF64800681A
:10307000EF4BF04AF0A10090F14809F085FA07F013
:1030800007FE0420EB4B5C3BEA4AEBA10090E848CA
:10309000383009F079FA07F04FF9E6493039E74856
:1030A00003F06EFD07F048F9E2493039E34803F0D8
:1030B00067FD07F0EDFD07F03FF9DE493039DF48E5
:1030C00003F05EFD07F056FC0120DA4B5C3B1A462C
:1030D0001C3AD9A10090D648483009F055FA07F0BB
:1030E000D7FDDA4BDA4AD2496031D54804F05EFFA9
:1030F000D5480068CE4BCF4A783A194680310090C7
:10310000CF4809F041FA07F035FCCF480068C84BBA
:103110008833C84A783ACFA100901846103009F099
:1031200033FA07F027FC3E21CB48FDF7DBF9CB490A
:1031300008700846007800287ED007F01BFCC849BC
:10314000C54805F0EDF8C7A1BC4803F019FDBB4820
:1031500003F006FDC44908600020C4490860C44962
:103160000860C44908600BE0B448C24A1268815C38
:10317000C14804F0F0FDBF480068401CBD4908602C
:10318000BC480068B84909688842EDDB1A21BA4892
:1031900004F0E1FD00BFB949AF4805F091F8B84926
:1031A0000860A4497839AC4805F08AF8B549086048
:1031B0009F499031A84805F083F8B34908609D49BC
:1031C0005C39A54805F07CF8B0490860AD48006856
:1031D00000280FD1AC48006800280BD108460068D1
:1031E000002807D1A6480068002803D19F4800683E
:1031F0000428D0DD0A2007F0DDFB07F0BBFB1A2115
:103200009D4804F0A8FD0A2007F0D4FB1A219A4833
:1032100004F0A1FD1A21984804F09DFD1A2196485A
:1032200004F099FD1A21944804F095FD07F0A2FBE3
:103230000A2007F0BFFB00E096E11A218E4804F057
:103240008AFD07F097FB0A2007F0B4FB1A218A4891
:1032500004F081FD07F08EFB0A2007F0ABFB322063
:1032600007F0A8FB85497C4805F02AF888490860E2
:103270000846006800287CD1642007F09BFB07F01B
:1032800079FB64216E4805F04BF86C4803F068FC4C
:10329000441C23467F4A67492439694804F086FE66
:1032A0000520644B783B634A6AA100906448FDF7AF
:1032B000AFF807F05FFB00206D4908606B490860BC
:1032C0006C4908600BE05D486A4A1268815C6A4894
:1032D00004F041FD67480068401C66490860574893
:1032E00003F03EFC634909688842ECD80A21624831
:1032F00004F031FD0A21604804F02DFD0A215E48EA
:1033000004F029FD0A215C4804F025FD0A215A48F1
:1033100004F021FD0A21584804F01DFD0A215648F9
:1033200004F019FD0A21544804F015FD0A21524801
:1033300004F011FD0A21504804F00DFD0A214E4809
:1033400004F009FD0A214C4804F005FD0A214A4811
:1033500004F001FD0A21484804F0FDFC0A2146481A
:1033600004F0F9FC0A21444804F0F5FC0A21424823
:1033700000E0F6E004F0EFFC0A213F4804F0EBFC2B
:103380000A213D4804F0E7FC0A213B4804F0E3FC35
:103390000A21394804F0DFFC0A21374804F0DBFC3D
:1033A0000A21354804F0D7FC0A21334804F0D3FC45
:1033B0000A21314804F0CFFC0A212F4804F0CBFC4D
:1033C0000A212D4804F0C7FC0A212B4804F0C3FC55
:1033D0000A21294804F0BFFC0A21274804F0BBFC5D
:1033E0000A21254804F0B7FC0A21234804F0B3FC65
:1033F0000A21214804F0AFFC0A211F4804F0ABFC6D
:103400000A211D4804F0A7FC0A211B4804F0A3FC74
:103410000A21194804F09FFC0A21174804F09BFC7C
:103420000A21154804F097FC0A21134834E00000F3
:1034300064110000F80C00004F4B0000F4F5FF1F72
:10344000470B0020C1E1FF1FB4E1FF1F3D0B00202F
:10345000D90A00203E0000006CE2FF1F3CE0FF1F85
:10346000881300000A00000038E0FF1F14E0FF1F6F
:103470000CE0FF1F04E0FF1F00B0064084080000BE
:1034800044E0FF1F48E0FF1F4CE0FF1F50E0FF1F1C
:1034900040E0FF1FBCE1FF1F04F05DFC0A21FE4875
:1034A00004F059FC0A21FC4804F055FC0A21FA48B2
:1034B00004F051FC0A21F84804F04DFC0A21F648BA
:1034C00004F049FC0A21F44804F045FC0A21F248C2
:1034D00004F041FC0A21F04804F03DFC0A21EE48CA
:1034E00004F039FC0A21EC4804F035FC0A21EA48D2
:1034F00004F031FC0A21E84804F02DFC0A21E648DA
:1035000004F029FC0A21E44804F025FC0A21E248E1
:1035100004F021FC0A21E04804F01DFC0A21DE48E9
:1035200004F019FC00BFDD49DD4804F0C9FE0028A5
:103530000AD1DA498C39DA4804F0C2FE002803D1F6
:10354000D84800680528EEDD07F014FAD64803F0E5
:1035500007FB04462146D44804F0E2FE07F00AFACD
:1035600042E109F0FFF83FE1642007F023FA07F099
:1035700001FA6421CD4804F0D3FECB4803F0F0FA01
:10358000441C2346CA4AC5493839C84804F00EFDD0
:103590000520C24B8C3B1A467832C6A10090C34826
:1035A000FCF736FF07F0E6F90020C3490860BD4983
:1035B0000860C24908600BE0BB48C04A1268815CE1
:1035C000B54804F0C8FBBD480068401CBB49086012
:1035D000B54803F0C5FAB94909688842ECD80A2110
:1035E000AD4804F0B8FB0A21AB4804F0B4FB0A2153
:1035F000A94804F0B0FB0A21A74804F0ACFB0A215B
:10360000A54804F0A8FB0A21A34804F0A4FB0A2162
:10361000A14804F0A0FB0A219F4804F09CFB0A216A
:103620009D4804F098FB0A219B4804F094FB0A2172
:10363000994804F090FB0A21974804F08CFB0A217A
:10364000954804F088FB0A21934804F084FB0A2182
:10365000914804F080FB0A218F4804F07CFB0A218A
:103660008D4804F078FB0A218B4804F074FB0A2192
:10367000894804F070FB0A21874804F06CFB0A219A
:10368000854804F068FB0A21834804F064FB0A21A2
:10369000814804F060FB0A217F4804F05CFB0A21AA
:1036A0007D4804F058FB0A217B4804F054FB0A21B2
:1036B000794804F050FB0A21774804F04CFB0A21BA
:1036C000754804F048FB0A21734804F044FB0A21C2
:1036D000714804F040FB0A216F4804F03CFB0A21CA
:1036E0006D4804F038FB0A216B4804F034FB0A21D2
:1036F000694804F030FB0A21674804F02CFB0A21DA
:10370000654804F028FB0A21634804F024FB0A21E1
:10371000614804F020FB0A215F4804F01CFB0A21E9
:103720005D4804F018FB0A215B4804F014FB0A21F1
:10373000594804F010FB0A21574804F00CFB0A21F9
:10374000554804F008FB0A21534804F004FB0A2101
:10375000514804F000FB0A214F4804F0FCFA0A210A
:103760004D4804F0F8FA0A214B4804F0F4FA0A2113
:10377000494804F0F0FA0A21474804F0ECFA0A211B
:10378000454804F0E8FA0A21434804F0E4FA0A2123
:10379000414804F0E0FA0A213F4804F0DCFA0A212B
:1037A0003D4804F0D8FA00BF3C493D4804F088FD8C
:1037B00000280AD139498C39394804F081FD0028A4
:1037C00003D1384800680528EEDD07F0D3F8364805
:1037D00003F0C6F904462146334804F0A1FD07F082
:1037E000C9F801E008F0BEFF2F4803F0B9F904461C
:1037F00021462D4804F094FD1A21274804F0ABFA25
:1038000038BD38B5642007F0D5F807F0B3F8642167
:10381000264804F085FD244803F0A2F9441C234601
:10382000234A1E493839214804F0C0FB05201B4BB0
:103830008C3B1A4678321FA100901C48FCF7E8FD2B
:1038400007F098F800201C490860164908601B49D9
:1038500008600BE01448194A1268815C0E4804F0B5
:103860007AFA16480068401C144908600E4803F0B4
:1038700077F9124909688842ECD80A21064804F011
:103880006AFA0A21044804F066FA0A21024804F0A0
:1038900062FA0A21004813E000B006400C0D000057
:1038A0006CE2FF1F14E0FF1FF4F5FF1F470B002021
:1038B000BCE1FF1F3E0000000CE0FF1F04E0FF1F03
:1038C00004F049FA0A21FA4804F045FA0A21F848B6
:1038D00004F041FA0A21F64804F03DFA0A21F448BE
:1038E00004F039FA0A21F24804F035FA0A21F048C6
:1038F00004F031FA0A21EE4804F02DFA0A21EC48CE
:1039000004F029FA0A21EA4804F025FA0A21E848D5
:1039100004F021FA0A21E64804F01DFA0A21E448DD
:1039200004F019FA0A21E24804F015FA0A21E048E5
:1039300004F011FA0A21DE4804F00DFA0A21DC48ED
:1039400004F009FA0A21DA4804F005FA0A21D848F5
:1039500004F001FA0A21D64804F0FDF90A21D448FE
:1039600004F0F9F90A21D24804F0F5F90A21D04807
:1039700004F0F1F90A21CE4804F0EDF90A21CC480F
:1039800004F0E9F90A21CA4804F0E5F90A21C84817
:1039900004F0E1F90A21C64804F0DDF90A21C4481F
:1039A00004F0D9F90A21C24804F0D5F90A21C04827
:1039B00004F0D1F90A21BE4804F0CDF90A21BC482F
:1039C00004F0C9F90A21BA4804F0C5F90A21B84837
:1039D00004F0C1F90A21B64804F0BDF90A21B4483F
:1039E00004F0B9F90A21B24804F0B5F90A21B04847
:1039F00004F0B1F90A21AE4804F0ADF90A21AC484F
:103A000004F0A9F90A21AA4804F0A5F90A21A84856
:103A100004F0A1F90A21A64804F09DF90A21A4485E
:103A200004F099F90A21A24804F095F90A21A04866
:103A300004F091F90A219E4804F08DF90A219C486E
:103A400004F089F90A219A4804F085F90A21984876
:103A500004F081F90A21964804F07DF90A2194487E
:103A600004F079F90A21924804F075F900BF9149F0
:103A7000914804F025FC00280AD18E498C398E48E3
:103A800004F01EFC002803D18C4800680528EEDDF8
:103A900006F070FF8A4803F063F804462146884820
:103AA00004F03EFC06F066FF38BD70B504460D46D6
:103AB00016460020834908608348006883490860EF
:103AC00000BF7B4804F054F9002818D07848C0792A
:103AD0007F497C4A126888547A480068401C7949BA
:103AE0000860794800687949086076480068FF21D5
:103AF0002B31884209DD00207249086005E07348D7
:103B00000068401E7149086000BF6A49704804F0AF
:103B1000D7FB002810D1674914396D4804F0D0FB59
:103B2000002809D169480068002805DD694968480E
:103B300004F0C6FB0028C4D070BDF8B504460E469C
:103B400015461F4600205F4908605F4800685F49CE
:103B5000086000BF604804F00BF9002818D05E48E8
:103B6000C0795B49574A1268885456480068401C1F
:103B70005449086054480068544908605148006836
:103B8000FF212B31884208DD00204E49086004E007
:103B90004E480068401E4D49086021464C4804F0DC
:103BA0008FFB00280FD13146494804F089FB0028DB
:103BB00009D146480068002805DD2946444804F03C
:103BC0007FFB0028C6D0F8BD70B50446002505E08F
:103BD000615D414804F0BFF8681CC5B2605D002813
:103BE000F6D170BD08B53D4B3D4A3A4960313D487C
:103BF00004F0DCF93C480068364B80332D4A8C3A9F
:103C000019460090374808F0BFFC08F0ABFD08BD2E
:103C10003648806B0121C90208433449886334481F
:103C20003449C8603148806B0121090308432F499A
:103C300088632F48401C30498861401E08601F205F
:103C4000012181402D4A116000BF704700B52C480A
:103C50000068012802D163202A49087029480078A9
:103C6000030006F005FE06040C141C535B634020A1
:103C700025498860802048604000486061E040201D
:103C800021498860802088604000486059E04020D9
:103C90001D494860802088604000486051E0402015
:103CA00019494860802048604000886049E0000071
:103CB00000B006400C0D00006CE2FF1F14E0FF1F77
:103CC000F4F5FF1F04E0FF1F1CE0FF1F08E0FF1FCB
:103CD0002DFDFF1F6411000000C006403D0B0020B9
:103CE000D90A0020470B0020B4E1FF1F00800440E8
:103CF00002010A0000B0044000C0044000E100E0FE
:103D0000B0E1FF1F7CE0FF1F80F00F404020F7492B
:103D10008860802048604000886012E04020F349BD
:103D2000886080208860400088600AE04020EF4979
:103D3000486080204860400048600020EC490870DE
:103D400000BF00BF00BD10B5EA48006A0821084066
:103D5000002814D0E748006A0843E6490862E648AC
:103D6000006801210843E44908600120E349087024
:103D7000E3490860DE480078401CDD490870E148EE
:103D8000006AC007C00F002812D0DE48006A012177
:103D90000843DC490862D848006801210843D64935
:103DA00008600120D5490870D549086006F0E2FD99
:103DB000D448006A4021084000280FD0D148006A4A
:103DC0000843D0490862CC48006801210843CA4929
:103DD00008600120C949087006F0CCFDFFF736FFE6
:103DE00010BD70470020C8498861C8484861052057
:103DF00008617047C448006940084000C249086132
:103E0000704770B5C04885698469281BC04908603F
:103E10002946C0A004F0BCF82146C5A004F0B8F8BB
:103E2000BB480168C9A004F0B3F870BD0CE0D249EA
:103E3000D24A116004E0D1490968491ECF4A116095
:103E4000CE4909680029F6DC0146401E0029EED162
:103E500070471CB5CA4802F083FE01460190C8486D
:103E600004F05EFAC74802F07BFE01460190C548A7
:103E700004F056FAC44802F073FE01460190C248AD
:103E800004F04EFAC04802F06BFE01460190BF48B4
:103E900004F046FA02F03EFFFFF7A4FF0520BC49FC
:103EA000086006F041FC00BFBA48806B012149025E
:103EB0000843B84988638815B749486088608B48CB
:103EC00080384068062108438849803948600846A0
:103ED000406906210843854980394861022088608D
:103EE0000420886000BFFFF793FE0020844908602B
:103EF000AA49086080207D494031886001217D20E9
:103F0000C00003F05CFE00BFA248C06B0121C906DF
:103F10000843A049C8632D20A14988600020C860DB
:103F200008620846406A082188439D49486200BFEC
:103F30000020974908600A219A4803F00CFF1A21D3
:103F4000984803F008FF06F0A3FE0220964B974A1C
:103F500011461431009096A008F016FB642006F07C
:103F600029FD06F007FD642006F024FD06F090FE12
:103F700005F0D0FF90A1824802F002FE7E4806F0D4
:103F800019FD05208249086006F0E6FD06F080FE76
:103F900007F09EFE06F0EEFC06F07AFE05F0BAFF92
:103FA00082493039764802F0EBFD06F071FE0320BD
:103FB0004F490870FFF74AFE814800687A4B7B4AF8
:103FC0001146143100907FA008F0DEFA7C480068AA
:103FD000754B764A1146143100907DA008F0D4FA52
:103FE00006F056FE764800686F4B704A1146143151
:103FF00000907AA008F0C8FA714800686A4B6B4AD2
:1040000011461431009078A008F0BEFA6C480068A0
:10401000654B664A11461431009076A008F0B4FA58
:1040200006F036FE664800685F4B604A1146143160
:10403000009074A008F0A8FA614800685A4B5B4AE7
:1040400011461431009074A008F09EFA5C48006894
:10405000554B564A11461431009074A008F094FA5A
:1040600057480068504B514A11461431009074A0D3
:1040700008F08AFA524800684B4B4C4A11461431FA
:10408000009050A008F080FA0A2006F093FC4C48FB
:104090000068454B454A1146143100906CA008F069
:1040A00073FA06F067FC0A2006F084FC44480068B6
:1040B0003D4B3E4A1146143100906AA008F064FA64
:1040C00005F028FF394930392D4802F059FD69A122
:1040D000694804F0F5F8002807D039480068324BE9
:1040E000324A114614310090C8E0E1E080F00F4000
:1040F0007CE0FF1F80B0044078E0FF1F25E2FF1F37
:1041000074E0FF1F80C0044000E000E03F9C00001E
:1041100088E0FF1F7379737469636B207374617235
:10412000742076616C75653A20307825780A0D0028
:104130007379737469636B20656E642076616C7546
:10414000653A20307825780A0D0000007379737481
:1041500069636B2063757272656E742076616C752D
:10416000652072656164206F766572686561643A86
:1041700020307825780A0D008813000018E2FF1F10
:10418000F4F5FF1FE5080020D90A00203D0B0020B0
:10419000B8E1FF1F0080044000900440B0E1FF1F21
:1041A00000B0034000B0064064110000F80C0000AD
:1041B0000A0A41540D0A000043482731270A00002B
:1041C000B4E1FF1F0A0A415426570D0A00000000FF
:1041D0000A0A415453303D320D0A00000A0A415484
:1041E00026460D0A000000000A0A415426440D0A22
:1041F000000000000A0A41542B4946433D302C3050
:104200000D0A00000A0A41542B4349505153454EB0
:10421000443F0D0A000000000A0A41542B43495054
:104220005153454E443D300D0A0000000A0A4154E6
:104230002B435042533D22534D220D0A00000000F3
:104240000A0A41542B53443250434D3D300D0A006D
:104250000A0A41542B465344524956453D310D0AF2
:10426000000000000A0A41542B46534D454D0D0AEB
:1042700000000000443A00006CE2FF1FEDA008F0CF
:1042800083F96421F54804F04BF80222F4A1F348C5
:1042900003F08CFE0A20FD4BFD4AFEA10090EF4882
:1042A00008F072F906F066FBFBA00AF05BFB1FE06A
:1042B000FA480068F54BF64A114614310090DDA02B
:1042C00008F062F96421E54804F02AF80222E4A12A
:1042D000E24803F06BFE0A20EC4BED4AEDA10090A2
:1042E000DE4808F051F906F045FBEDA00AF03AFB74
:1042F000EA480068E54BE64A114614310090E9A00F
:1043000008F042F9E5480068E04BE14A11461431F3
:104310000090E7A008F038F9E0480068DB4BDC4A81
:10432000114614310090E6A008F02EF906F014FCB6
:1043300007F0CEFC07F0F6FC07F062FCD7480068F7
:10434000D24BD34A114614310090E3A008F01CF977
:10435000D2480068CD4BCE4A114614310090E2A0FD
:1043600008F012F96421BD4803F0DAFF0F21E2489A
:1043700003F0D6FFE04822210B4602220091019073
:104380000121DE4807F0ACFBDB4ADDA1B34803F0B6
:104390000DFEC2480068BD4BBD4A11461431009065
:1043A000AE4808F0F1F807F05DFC6421AB4803F07B
:1043B000B7FF0521D74803F0B5FFD7A1A74803F001
:1043C000F5FD0A20B14BB24ADEA10090A34808F0E7
:1043D000DBF8D0480D210A2303220091019001212E
:1043E000C64807F07DFB06F053FCD7480068D74964
:1043F00008600420D44908600520A44BA44AD1A138
:10440000009018460C3008F0BFF805F083FDA04975
:104410003039CF4802F0B4FB06F03AFC64218F48F3
:1044200003F07EFFCB4A994920318C4803F0BEFD52
:104430009A480068954B964AC2A10090874808F0B8
:10444000A3F806F025FC0520914B5C3B904ABDA1EA
:1044500000908E48383008F097F805F05BFD8C49E5
:104460003039BB4802F08CFB05F054FD88493039E7
:10447000B74802F085FB06F00BFC0120844B5C3B47
:10448000834AB0A100908148483008F07DF8B2A17D
:104490009A4803F015FF002801D007F0C3FC06F08E
:1044A000F7FBAF4BAF4A794960316C4803F07EFDB2
:1044B0007A480068764B783B754A744980310090A1
:1044C000664808F061F806F055FA05F023FD7049DA
:1044D00030399F4802F054FB9C4800689A490860B4
:1044E0006E480068694B8833694A783A69A1009040
:1044F0001846103008F048F89B48006802F030FB7E
:10450000014601909848006803F00AFF9748006848
:1045100002F026FB014601909448006803F000FF7A
:104520003E217648FBF7DEFF914908700846007887
:10453000002877D006F01EFA8E49704803F0F0FE8E
:1045400068A1834802F01CFB814802F009FB8A49FC
:104550000860002089490860894908608949086025
:104560000DE07B4887490968405C01460190864818
:1045700003F0F1FB83480068401C824908608148D1
:1045800000687D4909688842EBDB1A217E4803F008
:10459000E2FB00BF7D49594803F092FE7249086072
:1045A0003B497839554803F08BFE79490860374913
:1045B0009031524803F084FE7649086034495C39F2
:1045C0004E4803F07DFE7449086071480068002879
:1045D0000FD17048006800280BD1084600680028F9
:1045E00007D161480068002803D1644800680828A2
:1045F000D0DD1A21644803F0AEFB1A21624803F0B3
:10460000AAFB1A21604803F0A6FB1A215E4803F0BA
:10461000A2FB322006F0CEF95C49384803F050FE88
:104620005149086050480068002801D10120B6E0D7
:10463000B4E000000A0A41542B465343524541540A
:10464000453D433A5C4C4F4747494E475F445249CA
:1046500056452E5458540D0A00000000470B002008
:104660000D0A41542B465357524954453D433A5C39
:104670004C4F4747494E475F44524956452E545880
:10468000542C302C25642C31300D0A0064110000AC
:10469000F80C00003E000000443A0000B4E1FF1FA7
:1046A000433A00000A0A415453303D310D0A0000DC
:1046B0000A0A41542B4353434C4B3D310D0A000031
:1046C0000D0A0D0A41542B434D47443D312C340D06
:1046D0000A0A0A0A000000000A0A41542B434D4707
:1046E000463D310A0A0000000A0A41542B43534355
:1046F000413F0D0A00000000E20B00206CE2FF1FAA
:104700000D0A41542B435343413D222573220D0A88
:1047100000000000BCE1FF1F0A41542B46535245E4
:1047200041443D433A5C4C4F4747494E475F4452F2
:104730004956452E5458542C302C3130302C310DE4
:104740000A0000004F4B0000B8E1FF1F20E0FF1FF0
:10475000F4F5FF1FC1E1FF1F302E302E302E300048
:104760003D0B0020D90A002044E0FF1F40E0FF1F5E
:104770003CE0FF1F8813000038E0FF1F14E0FF1F1C
:104780000CE0FF1F04E0FF1F00B00640840800009B
:1047900048E0FF1F4CE0FF1F50E0FF1F00200128F2
:1047A0007ED11A21FE4803F0D6FA06F0E3F80A207B
:1047B00006F000F91A21FA4803F0CDFA06F0DAF80B
:1047C0000A2006F0F7F81A21F54803F0C4FA06F0BB
:1047D000D1F80A2006F0EEF8642006F0EBF806F0B7
:1047E000C9F86421EF4803F09BFDEF4802F0B8F9E7
:1047F000401C0346ED4AEE490190EA4803F0D6FB1F
:104800000520EB4B543B1A467832EAA10090E5486C
:10481000FBF7FEFDE6495439E74803F051FD002857
:1048200004D04320E14908703A20487006F0A2F80D
:104830000020E2490860E2490860E24908600DE0B2
:10484000D948E0490968405C01460190D44803F02A
:1048500082FADC480068401CDA490860D24802F05D
:104860007FF9D84909688842EAD80A21CC4803F080
:1048700072FA0A21CA4803F06EFA0A21C84803F006
:104880006AFA0A21C64803F066FA0A21C44803F00E
:1048900062FA0A21C24803F05EFA0A21C04800E029
:1048A000FEE203F058FA0A21BD4803F054FA0A2147
:1048B000BB4803F050FA0A21B94803F04CFA0A2128
:1048C000B74803F048FA0A21B54803F044FA0A2130
:1048D000B34803F040FA0A21B14803F03CFA0A2138
:1048E000AF4803F038FA0A21AD4803F034FA0A2140
:1048F000AB4803F030FA0A21A94803F02CFA0A2148
:10490000A74803F028FA0A21A54803F024FA0A214F
:10491000A34803F020FA0A21A14803F01CFA0A2157
:104920009F4803F018FA0A219D4803F014FA0A215F
:104930009B4803F010FA0A21994803F00CFA0A2167
:10494000974803F008FA0A21954803F004FA0A216F
:10495000934803F000FA0A21914803F0FCF90A2178
:104960008F4803F0F8F90A218D4803F0F4F90A2181
:104970008B4803F0F0F90A21894803F0ECF90A2189
:10498000874803F0E8F90A21854803F0E4F90A2191
:10499000834803F0E0F90A21814803F0DCF90A2199
:1049A0007F4803F0D8F90A217D4803F0D4F90A21A1
:1049B0007B4803F0D0F90A21794803F0CCF90A21A9
:1049C000774803F0C8F90A21754803F0C4F90A21B1
:1049D000734803F0C0F90A21714803F0BCF90A21B9
:1049E0006F4803F0B8F90A216D4803F0B4F90A21C1
:1049F0006B4803F0B0F90A21694803F0ACF90A21C9
:104A0000674803F0A8F90A21654803F0A4F90A21D0
:104A1000634803F0A0F90A21614803F09CF90A21D8
:104A20005F4803F098F90A215D4803F094F90A21E0
:104A30005B4803F090F900BF5D4938315E4803F0F0
:104A40003FFC00280AD15A4954395B4803F038FC2E
:104A5000002803D15A4800680528EDDD05F08AFFDB
:104A6000514802F07DF8014601904F4803F058FC90
:104A70004D4802F075F8014601904B4803F050FC98
:104A800005F048FA4A490C39474802F079F805F030
:104A900071FF4D4800684D49086004204A4908608C
:104AA00006F0F6F80520424B543B1A46783248A1EE
:104AB00000901046203007F067FD642005F07AFF73
:104AC00004203B4B543B1A46A83241A100901046AB
:104AD000143007F059FD05F02FFC35490C393248E8
:104AE00002F04EF805F028FC31490C392E4802F04E
:104AF00047F805F021FC2E490C392B4802F040F80C
:104B00000420344B2A4A243231A1009018460C303C
:104B100007F03AFD6421234803F002FC2E4A2D4998
:104B20002031204803F042FA2C480068294B204AE3
:104B3000243227A100901B4807F026FD06F0A8F8B4
:104B400004201B4B383B1A465C3221A100902148BF
:104B5000383007F019FD05F0EFFB15490C39124804
:104B600002F00EF805F0E8FB11490C390E4802F08E
:104B700007F806F08DF805F0DFFB0D490C390A48FF
:104B800001F0FEFF01200A4B383B1A465C3210A1AF
:104B900000901048483007F0F7FC1149064821E022
:104BA00000B00640470B0020F4F5FF1FBCE1FF1FDB
:104BB000D40C00003E0000006CE2FF1F0CE0FF1F61
:104BC00014E0FF1F04E0FF1FB8E1FF1F20E0FF1FFC
:104BD0004F4B000064110000C1E1FF1FB4E1FF1F53
:104BE0005847000003F06CFB002801D007F01AF9C9
:104BF00006F04EF8FC480068FC490860FC4BFD4A92
:104C0000FD49FE4803F0D2F9FD480068FA4B603BCD
:104C1000FC4A194680310090F84807F0B5FC05F0D1
:104C2000A9FEF7480068F44B2833F64AF6A1009035
:104C30001846103007F0A8FC05F09CFE3E21F34812
:104C4000FBF750FCF24908700846007800287DD038
:104C500005F090FEEF49ED4803F062FBEEA1EF484E
:104C600001F08EFFED4801F07BFFED490860002068
:104C7000EC490860EC490860EC4908600DE0E74841
:104C8000EA490968405C01460190E94803F063F88D
:104C9000E6480068401CE5490860E4480068E049CF
:104CA00009688842EBDB1A21E14803F054F800BFA1
:104CB000E049D64803F004FBDF490860D149D348F6
:104CC00003F0FEFADD490860CB493031CF4803F0EC
:104CD000F7FADB490860CB491C31CC4803F0F0FA05
:104CE000D8490860D548006800280FD1D44800682A
:104CF00000280BD108460068002807D1CE4800687C
:104D0000002803D1C74800680828D1DD0A2005F033
:104D100051FE05F02FFE1A21C54803F01CF80A20A9
:104D200005F048FE1A21C24803F015F81A21C048C0
:104D300003F011F81A21BE4803F00DF81A21BC48FF
:104D400003F009F805F016FE0A2000E0ADE105F0D9
:104D500031FE1A21B64802F0FEFF05F00BFE0A20D4
:104D600005F028FEA94801F0FBFEB74908601A21AA
:104D7000AF4802F0F0FF05F0FDFD0A2005F01AFE35
:104D8000322005F017FEAB49A04803F099FAAF496D
:104D9000086008460068002801D1012000E00020DA
:104DA00001287DD1642005F005FE05F0E3FD6421B6
:104DB000924803F0B5FA994801F0D2FE401C034630
:104DC000A34A9049543101908C4803F0EFF8052034
:104DD0008C4B1A4678328CA100908848FBF718FB60
:104DE00088498A4803F06CFA002804D04320984987
:104DF00008703A20487005F0BDFD00208A4908601F
:104E000088490860894908600DE084488749096835
:104E1000405C01460190864802F09DFF834800688F
:104E2000401C824908607D4801F09AFE7F4909686C
:104E30008842EAD80A217E4802F08DFF0A217C4888
:104E400002F089FF0A217A4802F085FF0A2178489A
:104E500002F081FF0A21764802F07DFF0A217448A2
:104E600002F079FF0A21724802F075FF0A217048AA
:104E700002F071FF0A216E4802F06DFF0A216C48B2
:104E800002F069FF0A216A4802F065FF0A216848BA
:104E900002F061FF0A21664802F05DFF0A2100E08E
:104EA00050E2634802F057FF0A21614802F053FFC5
:104EB0000A215F4802F04FFF0A215D4802F04BFFD4
:104EC0000A215B4802F047FF0A21594802F043FFDC
:104ED0000A21574802F03FFF0A21554802F03BFFE4
:104EE0000A21534802F037FF0A21514802F033FFEC
:104EF0000A214F4802F02FFF0A214D4802F02BFFF4
:104F00000A214B4802F027FF0A21494802F023FFFB
:104F10000A21474802F01FFF0A21454802F01BFF03
:104F20000A21434802F017FF0A21414802F013FF0B
:104F30000A213F4802F00FFF0A213D4802F00BFF13
:104F40000A213B4802F007FF0A21394802F003FF1B
:104F50000A21374802F0FFFE0A21354802F0FBFE25
:104F60000A21334802F0F7FE0A21314802F0F3FE2D
:104F70000A212F4802F0EFFE0A212D4802F0EBFE35
:104F80000A212B4802F0E7FE0A21294802F0E3FE3D
:104F90000A21274802F0DFFE0A21254802F0DBFE45
:104FA0000A21234802F0D7FE0A21214802F0D3FE4D
:104FB0000A211F4802F0CFFE0A211D4802F0CBFE55
:104FC0000A211B4802F0C7FE0A21194802F0C3FE5D
:104FD0000A21174802F0BFFE0A21154802F0BBFE65
:104FE0000A21134836E0000020E0FF1FB8E1FF1F50
:104FF0003D0B0020D90A0020C4110000470B0020FF
:10500000B4E1FF1F800C00003E0000006CE2FF1FB7
:105010003CE0FF1F881300000A000000F4F5FF1FAA
:1050200038E0FF1F14E0FF1F0CE0FF1F04E0FF1F2C
:1050300000B006408408000044E0FF1F48E0FF1F66
:105040004CE0FF1F50E0FF1F0CE1FF1F40E0FF1F7F
:10505000BCE1FF1F02F07FFE0A21F74802F07BFE51
:105060000A21F54802F077FE0A21F34802F073FEA8
:1050700000BFF249F24803F023F900280AD1EF49B2
:105080008C39EF4803F01CF9002803D1ED48006883
:105090000528EEDDEC4801F063FD01460190EA4889
:1050A00003F03EF905F066FC4CE1642005F082FC5B
:1050B00005F060FC6421E54803F032F9E24801F0B4
:1050C0004FFD401C0346E24ADC4938390190DF4875
:1050D00002F06CFF0520D94B8C3B1A467832DDA1DB
:1050E0000090DA48FBF794F9D4498C39D44803F09E
:1050F000E7F8002804D04320D54908703A204870CA
:1051000005F038FC0020D4490860CE490860D34936
:1051100008600DE0CC48D1490968405C0146019027
:10512000C54802F018FECD480068401CCB49086015
:10513000C54801F015FDC94909688842EAD80A2125
:10514000BD4802F008FE0A21BB4802F004FE0A2115
:10515000B94802F000FE0A21B74802F0FCFD0A211E
:10516000B54802F0F8FD0A21B34802F0F4FD0A2127
:10517000B14802F0F0FD0A21AF4802F0ECFD0A212F
:10518000AD4802F0E8FD0A21AB4802F0E4FD0A2137
:10519000A94802F0E0FD0A21A74802F0DCFD0A213F
:1051A000A54802F0D8FD0A21A34802F0D4FD0A2147
:1051B000A14802F0D0FD0A219F4802F0CCFD0A214F
:1051C0009D4802F0C8FD0A219B4802F0C4FD0A2157
:1051D000994802F0C0FD0A21974802F0BCFD0A215F
:1051E000954802F0B8FD0A21934802F0B4FD0A2167
:1051F000914802F0B0FD0A218F4802F0ACFD0A216F
:105200008D4802F0A8FD0A218B4802F0A4FD0A2176
:10521000894802F0A0FD0A21874802F09CFD0A217E
:10522000854802F098FD0A21834802F094FD0A2186
:10523000814802F090FD0A217F4802F08CFD0A218E
:105240007D4802F088FD0A217B4802F084FD0A2196
:10525000794802F080FD0A21774802F07CFD0A219E
:10526000754802F078FD0A21734802F074FD0A21A6
:10527000714802F070FD0A216F4802F06CFD0A21AE
:105280006D4802F068FD0A216B4802F064FD0A21B6
:10529000694802F060FD0A21674802F05CFD0A21BE
:1052A000654802F058FD0A21634802F054FD0A21C6
:1052B000614802F050FD0A215F4802F04CFD0A21CE
:1052C0005D4802F048FD0A215B4802F044FD0A21D6
:1052D000594802F040FD0A21574802F03CFD0A21DE
:1052E000554802F038FD0A21534802F034FD0A21E6
:1052F000514802F030FD0A214F4802F02CFD0A21EE
:105300004D4802F028FD00BF4C494D4802F0D8FF3F
:1053100000280AD149498C39494802F0D1FF0028B8
:1053200003D1484800680528EEDD474801F018FC25
:1053300001460190444802F0F3FF05F01BFB0120F9
:1053400047490860404801F00BFC014601903E4887
:1053500002F0E6FF1A21384802F0FDFCFEE3FEF7FA
:1053600075FCFBF7DFF820203E49486005F090FC13
:1053700080203C4940318860C82005F01BFB00209C
:105380003949086037480069C007C00F002806D1B6
:10539000344840380069C007C00F002807D080207B
:1053A00030494031886000202F49086006E08020A5
:1053B0002C494031486001202B4908602B48006887
:1053C0002B4988427EDB802026494031886005F0E9
:1053D000D1FA642005F0EEFA07F054F864211B4876
:1053E00002F09EFF184801F0BBFB401C0346184A20
:1053F000124938390190154802F0D8FD05200F4BAD
:105400008C3B1A46783213A100901048FBF700F845
:105410000A498C390A4802F053FF002804D043207F
:105420000B4908703A20487000200B490860054974
:1054300008600A4908602BE000B006400C0D00002F
:105440006CE2FF1F14E0FF1FF4F5FF1F470B002065
:10545000BCE1FF1F3E0000000CE0FF1F04E0FF1F47
:1054600098E1FF1F80F00F40B0E1FF1FF0E1FF1F48
:10547000DC050000FD48FE490968405C01460190DA
:10548000FC4802F068FCFA480068401CF8490860D3
:10549000F64801F065FBF64909688842EAD80A2116
:1054A000F44802F058FC0A21F24802F054FC0A21A8
:1054B000F04802F050FC0A21EE4802F04CFC0A21B0
:1054C000EC4800E0F4E002F046FC0A21E94802F072
:1054D00042FC0A21E74802F03EFC0A21E54802F0BE
:1054E0003AFC0A21E34802F036FC0A21E14802F0C6
:1054F00032FC0A21DF4802F02EFC0A21DD4802F0CE
:105500002AFC0A21DB4802F026FC0A21D94802F0D5
:1055100022FC0A21D74802F01EFC0A21D54802F0DD
:105520001AFC0A21D34802F016FC0A21D14802F0E5
:1055300012FC0A21CF4802F00EFC0A21CD4802F0ED
:105540000AFC0A21CB4802F006FC0A21C94802F0F5
:1055500002FC0A21C74802F0FEFB0A21C54802F0FE
:10556000FAFB0A21C34802F0F6FB0A21C14802F007
:10557000F2FB0A21BF4802F0EEFB0A21BD4802F00F
:10558000EAFB0A21BB4802F0E6FB0A21B94802F017
:10559000E2FB0A21B74802F0DEFB0A21B54802F01F
:1055A000DAFB0A21B34802F0D6FB0A21B14802F027
:1055B000D2FB0A21AF4802F0CEFB0A21AD4802F02F
:1055C000CAFB0A21AB4802F0C6FB0A21A94802F037
:1055D000C2FB0A21A74802F0BEFB0A21A54802F03F
:1055E000BAFB0A21A34802F0B6FB0A21A14802F047
:1055F000B2FB0A219F4802F0AEFB0A219D4802F04F
:10560000AAFB0A219B4802F0A6FB0A21994802F056
:10561000A2FB0A21974802F09EFB0A21954802F05E
:105620009AFB0A21934802F096FB0A21914802F066
:1056300092FB0A218F4802F08EFB0A218D4802F06E
:105640008AFB0A218B4802F086FB0A21894802F076
:1056500082FB0A21874802F07EFB0A21854802F07E
:105660007AFB0A21834802F076FB00BF8249834817
:1056700002F026FE00280AD17F498C397F4802F0CB
:105680001FFE002803D17E4800680528EEDD20209B
:105690007C4988608860642005F08CF92020794975
:1056A00048604860642005F085F90020764908606C
:1056B0006421764802F034FE734800680090744814
:1056C0000368744874A10268704802F06FFC804857
:1056D0000068012804D16F480068052800DC3DE619
:1056E0008020684940318860002079490860794805
:1056F0000068614B703B1A461C3A77A1009077A076
:1057000006F042FF73480068774B5B4A8C3A77A1FA
:10571000009079A006F038FF64215C4802F000FE9A
:10572000524801F01DFA01460190504802F0F8FD80
:1057300004F0F0FB5748006805286EDD7248002130
:10574000017041704F4840380069C007C00F002801
:1057500007D04D4801226DA103686B4802F026FC7A
:1057600006E04948002269A10368674802F01EFC70
:10577000092005F0A9F80521664802F0D3FD664826
:1057800066A10268634802F011FC654800210180AF
:105790003C484038006904210840002805D0012217
:1057A00060A15F4802F002FC04E000225DA15C48B9
:1057B00002F0FCFB0020374908602C4801F0D0F9CA
:1057C00001460190294802F0ABFD5749274801F0F6
:1057D000D7F956A1254801F0D3F95649234801F0DD
:1057E000CFF955A1214801F0CBF94A491F4801F0F2
:1057F000C7F952A11D4801F0C3F949491B4801F0FE
:10580000BFF950A1194801F0BBF93F49174801F011
:10581000B7F94DA1154801F0B3F905F039FA4C4B31
:105820004C4A31496031194802F0C0FB29480068F0
:10583000114B143B1A46783A2B498031009013489B
:1058400006F0A2FE23480068274B88330A4A8C3AA8
:1058500041A100901846103006F096FE3F480068BF
:1058600001F07EF9014601903C4879E0F4F5FF1F14
:1058700004E0FF1F00B006400C0D00006CE2FF1FAB
:1058800014E0FF1F80F00F40F0E1FF1F470B0020E6
:1058900010E1FF1FACE1FF1F0D0A0D0A20202020A0
:1058A000202020202020202020203C25643E202075
:1058B000203C25643E2020203C3D25643E202020C5
:1058C0002020202020200A200A0A0D0A00000000C3
:1058D000B0E1FF1FB4E1FF1F4F4B00000D0A415420
:1058E0002B4353510D0A000064110000434C4F53E9
:1058F00045204F4B000000000D0A41542B434950F6
:10590000434C4F53450D0A00F8FBFF1F25642C251F
:105910006C640000A0E0FF1F9CE0FF1F25642C00CA
:10592000A4E1FF1F25640000FB0B00202C414C4923
:1059300056452C00D0FBFF1F2C463D002C41433D1B
:10594000000000002C493D002C0A0A0A000000005B
:105950003D0B0020D90A00203E00000044E0FF1F5C
:10596000006802F0DDFCFE48006801F0F9F801462D
:105970000190FB48006802F0D3FCFA48006801F08F
:10598000EFF801460190F748006802F0C9FCF648BC
:10599000006801F0E5F801460190F348006802F064
:1059A000BFFCF248006801F0DBF801460190EF48C7
:1059B000006802F0B5FC0020ED4908703E21ED487A
:1059C000FAF790FDEA4908700846007800287DD073
:1059D00004F0D0FFE849E74802F0A2FCE7A1E8485C
:1059E00001F0CEF8E64801F0BBF8E6490860002077
:1059F000E5490860E5490860E54908600DE0E048D0
:105A0000E3490968405C01460190E24802F0A3F9CD
:105A1000DF480068401CDE490860DD480068D9495D
:105A200009688842EBDB0A21DA4802F094F91A216E
:105A3000D84802F090F91A21D64802F08CF91A21C0
:105A4000D44802F088F91A21D24802F084F91A21C8
:105A5000D04802F080F900BFCF49C64802F030FCC0
:105A6000CE490860CE49C34802F02AFCBC49086010
:105A7000CC49C04802F024FCBA490860C8491C312E
:105A8000BC4802F01DFCB8490860B5480068002811
:105A90000FD1B448006800280BD1084600680028E0
:105AA00007D1BE480068002803D1B748006808281D
:105AB000D2DD1A21B74802F04EF91A21B54802F09A
:105AC0004AF91A21B34802F046F900E00CE01A2125
:105AD000B04802F040F9142004F06CFFAE49A5482C
