:020000040000FA
:10000000C8380020E903000009040000690200006C
:1000100000000000000000000000000000000000E0
:10002000000000000000000000000000F5020000D9
:10003000000000000000000089030000D50300005C
:1000400013040000454400001304000013040000E2
:10005000492D0000130400001304000013040000E5
:100060001304000013040000130400001304000034
:1000700013040000294300001304000013040000CF
:10008000130400001304000013040000FD2D000001
:100090001304000013040000130400001304000004
:1000A00013040000130400001304000013040000F4
:1000B00013040000130400001304000013040000E4
:1000C00000F002F800F0AFF80CA030C8083824188F
:1000D0002D18A246671EAB4654465D46AC4201D180
:1000E00000F0A1F87E460F3E0FCCB6460126334203
:1000F00000D0FB1AA246AB4633431847A872000053
:10010000C87200000023002400250026103A01D305
:1001100078C1FBD8520700D330C100D50B607047BF
:1001200010B56E2902D101F043F910BD702902D13A
:1001300000F0E3FA10BD662902D106F09FFF10BD62
:10014000652902D106F09AFF10BD672902D106F099
:1001500095FF10BD612902D106F098FF10BD03681C
:100160001B0A01D380231943692902D100F050FAF8
:1001700010BD642902D100F04BFA10BD752902D1DF
:1001800000F046FA10BD6F2902D101F031FC10BD1C
:10019000782902D100F09EFA10BDE92902D101F0C0
:1001A000CDFB10BDE42902D101F0C8FB10BDF5293B
:1001B00002D101F0C3FB10BDEF2902D101F024FCF4
:1001C00010BDF82902D100F093FA10BD0368DB09D5
:1001D00001D380231943632902D101F031FB10BD03
:1001E000732902D101F034FB10BDE32902D101F0E3
:1001F0006EFE10BDF32902D101F071FE10BD00208A
:1002000010BD1FB501F066FC04000020002106F0BF
:10021000B9FE401C60600020002106F09DFEE060F9
:100220001FBD10B510BD02F0D3F91146FFF7E9FF6D
:100230000FB400F00BF80FBC04F046FD00F02EFBED
:1002400003B4FFF7EEFF03BC02F0BCF904B004F006
:1002500019FE0448002104F0A3FE04F027FE00F07C
:100260001DFB00003071000004207146084202D0DE
:10027000EFF3098001E0EFF308807146004A104770
:10028000C92D000080F309887047EFF3098070479B
:10029000684680F3098806480078C00703D1032028
:1002A00080F314887047022080F3148870470000A0
:1002B000F0700000064B9C46EFF305831B0605D14A
:1002C000EFF31483DB0701D000DF704760470000C5
:1002D000FB510000064B9C46EFF305831B0605D13E
:1002E000EFF31483DB0701D000DF704760470000A5
:1002F000E9530000EFF309808169891E097800291C
:100300002BD1A6461FC8A4467446E047EFF30983E5
:1003100007C31A4B06CB91421CD0083B00290DD0D5
:10032000EFF3098020388862F0C044464D465646B7
:100330005F46F0C00CB405F0E1FB0CBC1A60906A9B
:100340001030F0C8A046A946B246BB4680F30988E3
:100350002038F0C80220C043004710B5084A126890
:10036000914209D8074C89006458A6461FC8A44684
:10037000F047EFF309840FC410BD000044010020D2
:10038000602700006027000005F098FA104B06CBAC
:1003900091421AD0083BEFF3098020388862F0C000
:1003A00044464D4656465F46F0C00CB405F0A6FBE9
:1003B0000CBC1A60906A1030F0C8A046A946B2463C
:1003C000BB4680F309882038F0C80220C0430047AC
:1003D0004401002005F044FCD8E7000004F09AFE38
:1003E00005F03EFCD2E700000D480E4901600E49C1
:1003F00001600E4901600E4A0E4911600021016042
:100400000D4880470D480047FEE7FEE7FEE7FEE7A0
:10041000FEE7FEE70A480B49094A0B4B704700000C
:100420000001005059000000160000008800000084
:1004300024000050A55A0000753A0000C1000000D9
:10044000C8340020C8380020C83400200048704755
:1004500068340020FEB5054610460C46184373D09C
:10046000AE468C460020AD1A01469C4167D36646D5
:10047000002701243D46B61A9D4102D313463A4651
:100480002124654676462F04360C3E432D0CB61AC1
:100490009D4104D3150C1B042B43120410346546F4
:1004A00076462F06360A3E432D0AB61A9D4104D3DE
:1004B000150E1B022B4312020834654676462F07A1
:1004C00036093E432D09B61A9D4104D3150F1B0171
:1004D0002B431201241D65467646AF07B6083E43FE
:1004E000AD08B61A9D4104D3950F9B002B43920093
:1004F000A41C65467646EF0776083E436D08B61A9B
:100500009D411AD392185B41641C16E00018764690
:1005100065464941B71A9D410191009009D3604653
:10052000B11A98418E468446009801990025401CD6
:100530006941DD0752082A435B08641EE6D572460E
:10054000634603B0F0BDFFE700200146C046C04649
:100550002A462346F5E700000FB4054910B503AA63
:10056000029801F079F910BC08BC04B018470000EB
:10057000080100200FB4054910B503AA029801F044
:100580006BF910BC08BC04B018470000080100203B
:100590000FB41CB5084B06AA7B4469460090059829
:1005A00001F02BF904460020694601F039F9204694
:1005B0001CBC08BC04B018478512000070B50C467E
:1005C0000546012A05D02878800600D5EA6900236F
:1005D00002E0012305E05B1C934202D2E05C0028AC
:1005E000F9D1A869E618C01AA861286AC01828625B
:1005F000284600F04CFE04E06A682078A968641C74
:100600009047B442F8D3284600F057FE70BD000072
:10061000F7B5002575291068009914A611D000F0CF
:100620005DFE002802DA404211A608E00099096840
:100630008A0701D50FA602E0490704D50EA60125B9
:1006400001E000F054FE009F0024243704E001F094
:10065000E5F930313955641C0028F8D12B46324673
:100660002146009800F04CFEFEBD00000000000096
:100670002D0000002B00000020000000F8B50F4600
:100680000188090502D5224C7C4402E0204C7C44C0
:100690000E3405460021243508E016071209360FEE
:1006A000A65D6E541E0732431B09491C16461E43A5
:1006B000F3D1224604780023240705D5702F06D0F5
:1006C000002901D00223113200F01AFEF8BD0123E7
:1006D0001032F9E770B504460D462146106800F067
:1006E00006FE0023024629462046FFF7C7FF70BDDD
:1006F000D21DD308DB000CCBC0E730B40368202444
:100700001268234303600823C36130BC0023B5E7AC
:100710001C6B0000F3B50446002081B02062204627
:10072000E1688847002872D0252802D06268A16855
:10073000ABE0594F00267F442046E16888472028D7
:10074000054608DB312D06D27819203800780028BC
:1007500001D00643F0E7B00701D50420864300200E
:10076000E0610746A0612A2D0AD0284603F0E2FE88
:10077000002827D0B8000019303D0090856119E0AD
:100780000298BA00121902C8916102902046E168ED
:100790008847012F054617D1E06900281FDA20207D
:1007A00086431CE000980A2180694843009940195B
:1007B000303888612046E1688847054603F0BAFE74
:1007C0000028EFD1012F0AD02E2D08D12046E16854
:1007D00088470546202006437F1C022FC3DBA06903
:1007E000002803DA4042A06101200643F00701D04F
:1007F000102086436C2D0BD0682D09D04C2D3CD099
:100800006A2D38D0742D38D07A2D36D016E040E0DD
:10081000E1682F4620468847B842054609D16C2F2B
:1008200029D001208002E16806432046884705461A
:1008300004E06C2F1DD0FF2001300643002D28D08E
:1008400028464138192803D80120C0020643203524
:10085000204626602946029A1646FFF761FC0028CA
:1008600010D001280BD0F61DF008C000083002900F
:1008700055E74020E1E78020D5E70020D3E7361D8B
:1008800002964CE762682846A1689047206A401C9F
:1008900044E7206AFEBD0000966A000010B50446D9
:1008A000C046C0462046FFF7CBFC10BD30B505461C
:1008B0000B462A461C781078521C5B1C002801D07D
:1008C000A042F7D0002C03D0002802D06D1CEFE727
:1008D000284630BD30B5441C03E00178401C002997
:1008E0000DD08107F9D10B4BDD0104C8D11A91431A
:1008F0002940FAD0001B0A0603D0C01E30BD001BE1
:1009000030BD0A0401D0801E30BD0902FCD0401E5B
:1009100030BD000001010101421E5378521C002B22
:10092000FBD10B78491C1370521C002BF9D1704776
:1009300001E004C0091F0429FBD28B0701D5028006
:10094000801CC90700D00270704700290BD0C30774
:1009500002D00270401C491E022904D3830702D52D
:100960000280801C891EE3E70022EEE70022DFE719
:10097000002203098B422CD3030A8B4211D300239C
:100980009C464EE003460B433CD4002243088B4276
:1009900031D303098B421CD3030A8B4201D3944603
:1009A0003FE0C3098B4201D3CB01C01A52418309F6
:1009B0008B4201D38B01C01A524143098B4201D3B0
:1009C0004B01C01A524103098B4201D30B01C01ADB
:1009D0005241C3088B4201D3CB00C01A5241830855
:1009E0008B4201D38B00C01A524143088B4201D382
:1009F0004B00C01A5241411A00D2014652411046E2
:100A000070475DE0CA0F00D04942031000D3404256
:100A1000534000229C4603098B422DD3030A8B428C
:100A200012D3FC22890112BA030A8B420CD389012A
:100A300092118B4208D3890192118B4204D3890110
:100A40003AD0921100E08909C3098B4201D3CB014E
:100A5000C01A524183098B4201D38B01C01A524103
:100A600043098B4201D34B01C01A524103098B4207
:100A700001D30B01C01A5241C3088B4201D3CB00F2
:100A8000C01A524183088B4201D38B00C01A5241D5
:100A9000D9D243088B4201D34B00C01A5241411AAC
:100AA00000D20146634652415B10104601D34042DA
:100AB000002B00D54942704763465B1000D340428B
:100AC00001B50020C046C04602BD70477047704760
:100AD0000246C80FC00781434B0030B54B405B0056
:100AE0009B0D20D01923DB06C91801231B05994251
:100AF00020DB0324A40704251346AB400BD3002BB3
:100B000004D1EB0613409B00E34204D401246407A4
:100B1000002312195941FF231B0599420BD2C9002A
:100B20000143500F09E0CB0204D5014308030243FF
:100B300005D0054830BDFF21C905084330BD084632
:100B400007210905884330BD0000C07FF0B5F94D8D
:100B50000C091E092C402E402F468BB0A7437DD098
:100B6000B543FCD0002E7AD0002CFCD00D465D4061
:100B7000ED0F2543AC1BFF25AD0464190894C50295
:100B8000440DC9022143500DDC0204430120C0077B
:100B900001430443D2020191200C110C00958C46B4
:100BA000010423468B430A9161460904E24D8A43BE
:100BB0000991010A7D4449198039097805464D4358
:100BC00001266D18F605751B6943C90C640B891C59
:100BD0004C436418B5012C1B250C2E04B4434C4324
:100BE0004D43210C691889090591009DE90701D041
:100BF0000121C90704912C4601996708CD072F43AD
:100C00004C08059DE10B4D432D0C29466646754366
:100C100002950D4645432E46029D7D1BB44100952D
:100C20000D465D4301942C0C2F040D465543AE46F2
:100C30002D0C3D43029503947546049C2D04641BC2
:100C4000049406D2029C039D641C00267541039502
:100C5000029401AC70CC009F7D1B01E03EE162E19B
:100C6000B44109040095079101940599A4086143D2
:100C7000090C0C464443650BE7040C466646744376
:100C8000A646640B3C43039502947446049DE40419
:100C90002C1B049406D2029C039D641C0026754103
:100CA0000395029401AC70CC009F7D1BB44101946C
:100CB0000C465C430095650FE7000C465443A6467E
:100CC000640F3C43039502947446049DE4002C1B7E
:100CD000049406D2029C039D641C00267541039572
:100CE000029401AC70CC009F7D1BB441AE09AF06ED
:100CF000049DC900AD092F43049DA406AD060495CB
:100D0000079D344369180791059DE10B4D432D0C58
:100D100029466646754302950D4645432E46029D7B
:100D20007D1BB44100950D465D4301942C0C2F04AE
:100D30000D465543AE462D0C3D4302950394754632
:100D4000049C2D04641B049406D2029C039D641C25
:100D5000002675410395029401AC70CC009F7D1B69
:100D6000B44101948C050694079C890A611800958A
:100D70000791019C0599A4086143090C0D46454360
:100D8000680BEF040D46644665436C0B3C43049FBF
:100D9000ED047D1BAC4602D20025641C6841009E18
:100DA000019D371B85410846584301950C46460F67
:100DB000C5005443600F28436546E4002C1B02D253
:100DC0000025401C6E41019D3F1AB5412846BD09D2
:100DD000800628438446A009BF064E020699A40651
:100DE00076180743079D002068410A990790194328
:100DF0000020099B00906046FF1913434041E20F19
:100E000064003A43A4460446D71A8C41A04203D951
:100E10000120009020463A46C70F94184041624690
:100E2000D20F2243644664000494009CBE466400D2
:100E3000D71AA446044602978C417746002F01D169
:100E4000A04204D96046401C8446029A2046C40F42
:100E5000A64694184041049A0546D20F22436446A0
:100E60006400D31A8D417146002901D1A84202D9EC
:100E700028461A46641C10430122002800D016435D
:100E800061020020079B891904465C410223002C63
:100E900002DB491813466441089DCE0A2D145D19E2
:100EA0004B056705E10A2C050D1908993E43C90752
:100EB0006940002B08D0934006D30022761C514194
:100EC000002B01D1760876001C4A002D43DB154229
:100ED00041D0AA433FD030460BB0F0BD06180D46B6
:100EE0004D41174C7642AC411AD395181C465C41D3
:100EF000134A6D42A24113D3012252054C00D44241
:100F00000AD15C00D4420BD04B4002D5920211436F
:100F1000E2E749004908DFE75940C90FC90718E06F
:100F200000200849D8E7054801420DD10342F7D017
:100F3000F2E700000000FF07296600000000F07FD4
:100F40000000E0FF0000F87F114859400143C01243
:100F500041400020C0E70123089A9B069A4205DC25
:100F6000032252078918C90FC907B5E7052252079E
:100F70008918074A1143D2125140ADE770B51546A2
:100F80001C4602460B4628462146FFF7DFFD70BD92
:100F9000FFFFFF7FF0B58B4C0F09254689B0BD439D
:100FA0007BD01D092646AE43FAD00E465E40274050
:100FB000F60F3E43254071D024012142FBD0FF248F
:100FC000AD19A4042D1B039501252D05DB02DB0AB9
:100FD000C9022B43C90A29431E010901040F130F3B
:100FE000050121431701880B820391432D098C468B
:100FF000A90B1E438A039543B30B9A0396433F09FB
:10100000BA0B9403A74302962E467E430497B64636
:101010004E19D7190C460196544305977E43371B4A
:101020007646BF1B3601B646BE0B3619009676468D
:10103000BC043719009C01D3641C00946400002F89
:1010400001D001263443029E049F754366467E43C9
:101050000496760034196E0034190094029C019EA7
:101060001C196643751BAE46069465464519059CDA
:1010700005956C43594375460891691A0191049E80
:1010800001465143A41B0491611A009C0791E1069B
:1010900005D061090122114302E072E06EE06109AE
:1010A000089D00272C0A2D066918049D7C412A0AF8
:1010B0002D066918019D6241AC0DAD026D185441B9
:1010C000079A910D920255196141029A644658435C
:1010D0005443069B059A5A43121A131B9A0E9B01FE
:1010E0005B187A41010B0005C3185141220A200602
:1010F00044195A419A4200D2491C012040028142BF
:1011000003D315230226F64302E014230326F643F5
:101110002020C51AA9401746AF40DA400A432046AE
:101120000399D8400914731819055118039A3843C4
:10113000D2075140AC4009D00122944006D300228E
:10114000401C5141002C01D1400840001E4A9342EE
:1011500012D3012203989206904207DB0520400734
:1011600009181A480143C012414004E00320400717
:101170000818C10FC907002009B0F0BD0020F10711
:10118000FAE705180C464C4111486D42A04115D3B1
:1011900094181A465A410E48644290410ED30120D9
:1011A0004A004005824209D35A00824206D3594080
:1011B000C90F084AC90700201143DDE7002006498E
:1011C000DAE700000000FF07FE070000FFFFFF7FD7
:1011D0000000E0FF0000F07F0000F87F0121C9055A
:1011E0000123411842001B06D3185B0E0AD0C11020
:1011F0000722D206891840075242D14201D5520037
:1012000089187047090208D50146002A03D0C10F8A
:10121000C9070020704710467047420202D00020E4
:1012200002497047072109050143F4E70000F87FF0
:101230001F22030C02D10F2200041CD0030E01D187
:101240000002083A030F01D10001121F830F01D1E0
:101250008000921E002801DB4000521ED20551186A
:10126000021251181922904004D3491C002801D1C0
:101270004908490008467047C10FC90700D04042DD
:10128000012292071143D3E701218907D0E770B506
:10129000044685690068C10601D5302600E0202695
:1012A000C00707D070BD62683046A1689047206AC9
:1012B000401C20626D1EF6D570BD70B50446856970
:1012C0000078C00707D170BD6268A16820209047F0
:1012D000206A401C20626D1EF6D570BD09684A0563
:1012E00001D540B27047C905FCD500B27047096806
:1012F0004A0501D5C0B27047C905FCD580B2704718
:10130000FFB504460D4681B0243000902168880660
:1013100004D51022E0699143216000E00120A84239
:1013200001DD471B00E000270498A1697A19101815
:10133000081AA0612078C00602D42046FFF7A7FF54
:10134000002608E003986268A168805D9047206AE3
:10135000401C761C206204988642F3DB2078C0068D
:101360000AD52046FFF793FF06E06268A1683020A7
:101370009047206A401C206238467F1E0028F4DC1B
:1013800007E000986268A168405D9047206A401CB1
:10139000206228466D1E0028F3DC2046FFF78DFFF3
:1013A0002078000602D5022005B0F0BD0120FBE741
:1013B00011680268006A530501D5087009E0D30579
:1013C00001D5088005E0130602D5C21705C100E06B
:1013D00008600120704700007047FFB50C461E46AC
:1013E0008FB003CA089009914F007D0D00D16D1E8A
:1013F000002108460020C0460321099A89050840BB
:10140000002A03DA8200801840080840800D012875
:101410000A9002DD0020C0430A90089807430DD0CF
:10142000F048F149281848430714189800281DD09F
:101430007542291E1DDD0A9842421BE018980128BA
:1014400002D00020302104E00020F24305E02154C6
:10145000401CB042FBDB30460022189B0021215487
:101460000F998B600A60486013B0F0BDBD1B6D1C06
:10147000DFE70A9A002900DA69420BA800F034FD80
:101480000BAB07CB03AB07C30899099800F098FD95
:101490006B4607C30146D5480918002D00910BDDA6
:1014A000D24903980A9A49424018002303A903909D
:1014B000684600F0F5FF08E003990A9A002308182F
:1014C00003A90390684600F095FF6B4607C300042C
:1014D000000C03D00020C043410800E01046189AD9
:1014E000002A03D00022009215461EE0751E05D486
:1014F00000F0F5FA303262556D1EF9D5012208432D
:10150000079602D000227F1C04E02078302801D109
:1015100000227F1E002A069787D01EE0112D07DAD1
:1015200000F0DDFA303262556D1C02460A43F5D1F7
:10153000084303D00098002819D00EE00021681E4F
:1015400005E0235C625C63542254401E491C8142C6
:10155000F7DBA81B401E07950690079A18990020F4
:10156000A0540F98079B069A81600CC07CE7112657
:101570000020189059E7D21DF0B50D460446D10859
:1015800093B0C90003C90C900D9102F08DFF024683
:101590000D98C00F01D02D2007E02068810701D5EC
:1015A0002B2002E04007C00F4001032A0F9001D01A
:1015B000072A05DB03462946204600F039FC0EE1E8
:1015C0002078800601D5E76900E006272846652DCA
:1015D00004D0662814D0672D69D12DE00020112F8A
:1015E000009001DB112300E07B1C0CAA03A910A8CA
:1015F000FFF7F3FE1199002610987D1C0E9142E032
:1016000001203B460CAAC0070B900120009003A9C3
:1016100010A8FFF7E2FE119D1298109900260028ED
:101620000E9501D1781C0D18781B02D446427D1C02
:10163000761EE81B00903AE0012F00DA0127002017
:10164000112F009001DD112300E03B460CAA03A9F5
:1016500010A8FFF7C2FE11993D46109800260E9182
:10166000217809070BD40E99A94200DA0D4603A987
:10167000012D04DD4A19203AD27F302A06D0B84223
:1016800001DA011D04DA012100910FE06D1EEFE780
:10169000002802DC86192D1A03E0411CA94200DD56
:1016A0000D46801B401C00900120C0070B90207845
:1016B000000705D40098A84202DB0020C043009038
:1016C00069460020C8720B98012102AF0337C90791
:1016D000884225D0022010902B2011900B980028D2
:1016E0000BDA40420B902D20119006E00B9800F091
:1016F00095F930317F1E0B9039701099481E0029E2
:101700001090F3DC0B980028F0D111987F1E3870F0
:101710002088000501D5452000E065207F1E387037
:1017200001A8C01BC01D0B900F98002800D00120FD
:1017300041190098C01709180B980818A169081AD0
:10174000401EA0612078C00602D42046FFF79FFD0E
:101750000F98002805D06268A1689047206A401C55
:1017600020622078C00625D52046FFF790FD21E0B5
:10177000002E07DB0E98B04204DD03A86268805D8E
:10178000A16802E06268A16830209047206A761C58
:10179000401C20620098401E002800900AD100F0F2
:1017A00099F9C06862680168405CA1689047206A46
:1017B000401C206228466D1E0028D9DC07E06268C4
:1017C0003878A1687F1C9047206A401C20620B99E2
:1017D000481E00290B90F2DC2046FFF76EFD032027
:1017E00042E6000001FCFFFF104D0000E1DFFFFFBB
:1017F00001694A1C02610878704700B58FB00291F8
:101800000021059105490193794403911146049003
:101810006846FEF77FFF0FB000BD0000E5FFFFFF49
:101820000A681070521C0A60704710B54369002B9B
:1018300002D0C046C04601E0FEF7C0FE012010BD48
:101840001278014624310A7000224A700122ECE726
:1018500011680022D243E8E7084B70B50D467B447F
:10186000FFF7CBFF0446284603F088F8002802D093
:101870000020C04370BD204670BD0000373200001C
:10188000F7B50446154686B02B487844002703C8B0
:101890003E460090019111E007986A467100415A56
:1018A00002A800F04DFE411C07D02178890603D51F
:1018B000E269391891420ED83F18761C20788006CC
:1018C00002D5E069B84206DDAE42E5DB079871005B
:1018D000405A0028E0D1A069C01BA0612046FFF754
:1018E000D6FC154878445A3803C80090002001916E
:1018F00016E041006A460798415A02A800F020FE0F
:101900000590401C0AD0002505E0626802A8A16885
:10191000405D90476D1C05988542F6D30498401CA5
:10192000B0420490E5DB206AC01920622046FFF730
:10193000C4FC09B0F0BD0000D6590000F7B5D21DB7
:101940000025D20815A6D200F52905CA11D0002A13
:1019500005DA00214042914111A60A4608E00099AB
:1019600009688B0701D50FA602E0490701D50EA62D
:1019700001251146009F0024243704E000F0AFF851
:1019800030323A55641C02460A43F7D12B463246A0
:1019900021460098FFF7B4FCFEBD000000000000E7
:1019A0002D0000002B0000002000000070B5044650
:1019B0000021243408E05507D2086D0F30356554F6
:1019C0005D072A43DB08491C15461D43F3D1046813
:1019D000002310A2250708D5A40601D4002904D0AD
:1019E000C46901230CA2641EC461FFF789FC70BDA9
:1019F00010B5044621461068FFF779FC0023024623
:101A00002046FFF7D3FF10BDD21DD108C9000CC975
:101A1000CCE7000000000000300000000146800814
:101A2000081A02091018020A1018020C1018C0082F
:101A3000820012185200891A01E0401C0A390A2952
:101A4000FBD27047F8B5224C4E00069DA6420AD83C
:101A5000A64201D1002806D15E00A64203D8A642C4
:101A60000AD1002A08D00D24240425422CD029466E
:101A7000002000F085FDF8BD0C461C430CD49942B3
:101A800002D0EFF30080F8BD904202D0EFF3008067
:101A9000F8BDEFF30080F8BD09242407E5008B4270
:101AA00006D0EFF30080A043591A06D2284304E081
:101AB000101A05D3EFF30080A04380F30088F8BD2F
:101AC000EFF30080A043F1E7009500F071FDF8BD51
:101AD0000000E0FF10B5FEF7B9FC203010BD0B464A
:101AE00070B5024689078008084319469D08141AF4
:101AF000A94125090807054308092C194841250A69
:101B000001060D43010A2C194141200C0D04284304
:101B10000D0C00194D41002140194D41C0086907C5
:101B20000843E908840F8D002543840024184D41A3
:101B300024196D41121BAB4107E00925ED432C111F
:101B4000521963410024401C61411C460A250026AD
:101B5000551BB441F1D270BDD21DF0B504460D46FF
:101B6000D0088DB0C000466807683146384602F09C
:101B70009BFC0246F00F01D02D2307E0206881076F
:101B800001D52B2302E04007C00F43016846002B1C
:101B9000037001D0012000E00020032A0A9001D048
:101BA000072A04DB2946204600F042F92DE120787F
:101BB000800601D40D2500E0E5697000400D0D2D73
:101BC00001904BDA300D00210B9008460020C046F2
:101BD000032189050840002E05DA82008018C20F13
:101BE0001018401008408015012801DD0020C04376
:101BF000A9000023182906D39C460A460123183A57
:101C00001B07D34003E001221205CA4094460C3161
:101C1000202902D33A46203900E032468A40002883
:101C200002DD002A06D119E0002817D10121C907D9
:101C30008A4213D3194663467F185E41002806D1B5
:101C40000120C007824202D1084687439E430B9879
:101C5000310D814202D00198401C0190208800057E
:101C600002D57149794402E06F49794419396B46CC
:101C70000A9830221A540A980A7C401C1A54401CB4
:101C80000A900198002801DC302000E03120187211
:101C9000019A0120002A02D0644BD21804E072009D
:101CA0003A4302D0614A521C0192002D02DC227894
:101CB000120703D56A462E20507202200022864663
:101CC00094460CE032033601120F6D1E8B5C02AAA3
:101CD00013546246521C401C9446052A01DA002D1A
:101CE000F0DC002202AE08E03B0F3F01CB5C521C4F
:101CF0006D1E3354401C082A01DA002DF4DC2368E1
:101D00009A0601D511E0401E704504DD3218203AD4
:101D1000D27F302AF7D0002807DD3218203AD27F50
:101D20002E2A02D11A0700D4401E002D03DD3E22C8
:101D30003254401C6D1E497C31540199401C0029CD
:101D400006DA2D21471C315401984042019003E0EE
:101D50002B21471C315401987D21C900884206DBA4
:101D6000FEF710FE3030F0557F1C019101E0642831
:101D700008DB01986421FEF705FE3030F0557F1C2A
:101D8000019101E00A2806DB01980A21FEF7FAFD1D
:101D90003030F0557F1C01980A21FEF7F3FD3031F9
:101DA000F1550A98A1697F1C7A191018081AA061C8
:101DB0002078C00602D42046FFF769FA216A6E46F1
:101DC0000A980818206204E062683078A168761CDE
:101DD00090470A98401E0A90401CF5D12078C00612
:101DE00002D52046FFF753FA02AE09E03078761CA0
:101DF0003E280DD06268A1689047206A401C20628E
:101E00007F1EF3D22046FFF758FA0DB00320F0BD35
:101E1000206A4019206203E06268A1683020904780
:101E20006D1EEDD3F8E700001756000001FCFFFF20
:101E3000F8B51F46044601230068DB02032601466D
:101E40001840072A05DB002801D017A506E017A5D2
:101E500004E0002801D016A500E016A5102081435B
:101E60002160A069C01E002FA06101D0401EA061AA
:101E70002046FFF70CFA002F09D038466268A168A7
:101E80009047206A401C2062C01C206206E0206A45
:101E9000FAE762682878A1686D1C9047761EF8D230
:101EA0002046FFF70AFAF8BD4E414E006E616E0003
:101EB000494E4600696E660010B54369002B02D09A
:101EC000C046C04601E0FFF7DBFC012010BD1288D0
:101ED0000146243182840022C2840122ECE7116889
:101EE0000022D243E8E70000F7B516468AB033482F
:101EF00078446C4603467C33C06F5A689B680DC4B7
:101F00002E487844763003AC0DC80DC43720C0018C
:101F1000081837211B30FEF735FD05460C46803D7D
:101F20001B3C02D56442012000E0002000270990FC
:101F300010E0E0070CD00C20204978437944324669
:101F40004C3941186846012300F054FA6B4607C328
:101F500064107F1C002CECD1184F7F442E3F16E0FC
:101F6000E80712D02001C0190EC806910893079205
:101F70000068F04201D1981908903246012306A961
:101F800003A800F037FA03AB07C36D10641C002DE3
:101F9000E6D10998002806D032466946012303A8F5
:101FA00000F07EFA05E001233246694603A800F0FE
:101FB00021FA0A9B07C30DB0F0BD0000A05300003A
:101FC000034640000A4610B5400D0BD00121C90759
:101FD0000F24A40200191C0364082143540D21435B
:101FE000D20207E000210120F2E7D40F490021438B
:101FF0005200401E0029F8DADB0FDB07184310BD42
:10200000FFB50D46144685B04868516802F034FAB1
:1020100000910190A868A16802F02EFA0291039045
:10202000A868616802F028FA029A121882420292A5
:1020300001D2012000E00020019A0B18D2180028DC
:10204000019202D08A4202D903E08A4201D20120E1
:1020500000E000200099081800906868A16802F06C
:102060000BFA029A12188242029201D2012000E079
:102070000020019A0B18D2180028019202D08A423F
:1020800002D903E08A4201D2012000E00020009939
:102090000818009028682168400049004008490855
:1020A0004018FA49471814E001994000C90F084345
:1020B0000090019802994000C90F084301900298CE
:1020C00003994000C90F08430290039840007F1E07
:1020D000039000980028E7DA0898002801D0EC4E19
:1020E00000E00026B74201DA012000E000200028CD
:1020F00004902AD0F71BF806C00E15D0029B2021B1
:10210000091A039A8B401A430392029A019BC24018
:102110008B401A430292019A009BC2408B40009967
:102120001A430192C14000917B110DD06F460320EC
:10213000C11A03D500218200B95003E08A00810052
:10214000BA587A50401EF3D53746039802990028B2
:1021500000D00120014308980291002808460CD0C5
:10216000002800D001200199019A49050843012166
:10217000D20AC902D202019200E001210E9B012283
:10218000D207012B02D0002B03D013E0002807D187
:1021900020E0904204D890420CD1019B0B4209D020
:1021A000019B5918019105D10099491C009101D159
:1021B0007F1C009200280DD0102108460020C04648
:1021C0000498002806D00F98002803D0082108465C
:1021D0000020C04628682168019B009A4840C10F32
:1021E0000598C90739430EC009B0F0BDFFB587B0E7
:1021F000099A0898089953689268406889689646D1
:102200000022039317469446089A12685300099ACD
:102210005B081268520052089A1A9E4BD4180A9A08
:10222000002A01D0352200E040220692002201233C
:1022300015460492DB07059324E0002D05D1754671
:102240000346039E4D1BB34109D375466646039B67
:10225000491B049D9841059B7519AC465F41634637
:102260003B4308D0059B049EDD0776082E435B08A0
:102270000496059301E0521E641EC50FED07491830
:102280004041521C069B9A42D7DB002D04D1754673
:10229000039A6B1A824101D203200CE0039A0B4689
:1022A0006B404240134303D0014303D0012002E0BE
:1022B000022000E000206146019100210097029178
:1022C0000A99002905D0614640020143704B0191F3
:1022D00002E08007002302909C4201DA012000E026
:1022E000002007003AD01A1BD006C00E15D0029D60
:1022F0002021019C091AC5408C402543029C8C403A
:1023000000D001242543019C0295009DC4408D40CE
:1023100000992C430194C140009154111DD06D4689
:102320000221002202290CD10320001B07E0002813
:1023300004DB8600AE59002E00D00122401C032889
:10234000F5DB081B02D588002A5004E080002858DD
:1023500010438A00A850491EE3D51C460A9800285D
:1023600002980CD0002800D001200199019A49055B
:1023700008430121D20AC902D202019200E00121E0
:10238000109B0122D207012B02D0002B03D013E0B7
:10239000002807D11FE0904204D890420CD1019B45
:1023A0000B4209D0019B5918019105D10099491C94
:1023B000009101D1641C009200280CD01021084625
:1023C0000020C046002F06D01198002803D0082115
:1023D00008460020C04608980999019A009B0068A9
:1023E00009684840C10F0798C907214382600AC0A5
:1023F0000BB0F0BD00B585B0019300920A460146CE
:10240000002302A8FFF7FCFD02A807C805B000BD25
:10241000FFB50A461F4685B0079901930123009135
:10242000014602A8FFF7ECFD02990398049ECA0F2B
:102430004900D20700920F22490892028C1A00210B
:10244000002800DB0C46450013486D08844214D375
:10245000079A002A04DA441E0026104DF64302E0D3
:1024600004460D460E46102108460020C046002FA7
:1024700003D0042108460020C0462005E90A08438D
:10248000009908436905F20A1143ADE602C0FFFF57
:10249000013C0000FF3F0000FF070000FFFFFF7F3F
:1024A00000B585B0019300920A460146002302A8B8
:1024B000FFF79CFE02A807C8A8E7FFB50A461F461B
:1024C00085B00799019301230091014602A8FFF707
:1024D0008DFE02990398049ECA0F4900D20700920C
:1024E0000F22490892028C1A0021002800DB0C46BA
:1024F000450011486D08844214D3079A002A04DA73
:10250000441E00260D4DF64302E004460D460E46DD
:10251000102108460020C046002F03D004210846A1
:102520000020C0462005E90A0843009908436905D0
:10253000F20A114358E60000FF070000FFFFFF7F8B
:1025400070B516460C46054600F062F80368FF2099
:102550000230C05C012807D0FF2C0ED8185D00287F
:102560000BD001202C7070BDFF333246214608335A
:102570001868C3182846984770BD0020C04370BD36
:10258000C80212D54803400F002804D0C803C04336
:10259000012188407047EFF300800001000903210A
:1025A0000907084380F30088704700207047000047
:1025B00010B500200249029A00F076F810BD000024
:1025C0000000F87F01491820ABBEFEE7260002009C
:1025D0007546FDF73BFFAE46050069465346C00809
:1025E000C000854618B020B5FDF714FF60BC002779
:1025F0004908B6460026C0C5C0C5C0C5C0C5C0C5CF
:10260000C0C5C0C5C0C5403D49008D4670470000EB
:1026100010B5FFF75FFA001D10BD00BF694900004B
:10262000024670B50A4392072AD11E4DEE0104C836
:1026300008C9541B9443344017D0D0B2D9B2401AC1
:102640002106014310D190B299B2401A21040143EE
:102650000AD110021902000A090A401A2102014394
:1026600002D1100E190E401A70BD9A42DFD010BA76
:1026700019BA884201D9012070BD0020C04370BD45
:1026800002780B78401C491C002A09D09A4207D1D5
:1026900002780B78401C491C002A01D09A42EFD0E6
:1026A000D01A70BD0101010110B50C461107090FC8
:1026B000092904D00A290AD008290CD104E01146BE
:1026C0000820FFF75DFF06E0510606D501E0510640
:1026D00001D50120C007214610BDD10607D5010153
:1026E0000909CC084907000E0006044309E0410F20
:1026F00020024907000A0143200E00061D22D14195
:1027000001430846E7E7704770B58C180578401C10
:102710006B075B0F01D10378401C2A1106D10278A8
:10272000401C03E00678401C0E70491C5B1EF9D16A
:102730002B0705D40023521E0DD40B70491CFAE759
:102740000378401CCB1A921C03E01D780D70491CC5
:102750005B1C521EF9D5A142D8D3002070BD0000E9
:102760000000000010B500230C221946084800F0B4
:1027700011F80748006A0121084305490862084624
:10278000006A0121C90208430149086210BD000026
:1027900000000E4030B5046A054D2C400C43144334
:1027A0000462446A240A24021C43446230BD0000CF
:1027B000F3FBFFFF1FB50C4C1ECC03946C460EC4FC
:1027C000810F89006A465158084A89184968C3062A
:1027D000DB0E01229A401143820F92006B469A58F9
:1027E000024BD21851601FBD58710000000200500A
:1027F000F3B589B00C4601200004534908620998DA
:1028000000280ED108460068012108434E4908609F
:10281000012000F085FA002006904C48089002251F
:102820000EE0494800680421084347490860102029
:1028300000F076FA0120C00406904548089004256F
:102840004448844204D84010844201D9002712E051
:102850004148844205D84010844202D901276400CF
:1028600009E03E48844205D84010844202D3032741
:10287000A40000E057E00020C04303900020019036
:10288000029034E029460898FEF772F80590344922
:10289000059888422AD933490598884226D20220D1
:1028A00007901EE0059E07994E432B48864215D39C
:1028B0004000864212D8A64201D9301B00E0A01B7E
:1028C000049003990498884208D2049803900195D3
:1028D000079802900398002800D106E00798401C52
:1028E0000790214907988842DCD900BF6D1C212D33
:1028F000C8D9B803069908430199891E49020843BB
:102900000299891E084310490862042000F008FA61
:10291000781C019A504301460898FEF729F802995D
:1029200048430BB0F0BD0998002803D10F48064971
:10293000086202E00E4804490862042000F0F0F941
:1029400000F020F8EDE7000000020050001BB70087
:102950000080510100C2EB0B00E1F50580F0FA02A6
:10296000006A1800C0E1E400010200002EC200006D
:102970006FD60000024909680143014A116070479F
:1029800000020050FEB5002002901AA000680090DE
:102990001948046A00132040002801D00020FEBD21
:1029A0000120C0042040002801D0144D00E0144D47
:1029B000012040042040002801D02846EFE70320F2
:1029C00080032040800B69460A5C0192E005C00D3F
:1029D000861C1F2040022040400A871C019A7A432F
:1029E0001146AA0872431046FDF7C2FF800002900C
:1029F0000298D4E701020204000200500080510155
:102A0000001BB700FEB5002002901AA000680090DD
:102A10001948046A00132040002801D00020FEBDA0
:102A20000120C0042040002801D0144D00E0144DC6
:102A3000012040042040002801D02846EFE7032071
:102A400080032040800B69460A5C0192E005C00DBE
:102A5000861C1F2040022040400A871C019A7A43AE
:102A60001146AA0872431046FDF782FF80000290CB
:102A70000298D4E7010202040002005000805101D4
:102A8000001BB700FEB5002002901AA0006800905D
:102A90001948046A00132040002801D00020FEBD20
:102AA0000120C0042040002801D0144D00E0144D46
:102AB000012040042040002801D02846EFE70320F1
:102AC00080032040800B69460A5C0192E005C00D3E
:102AD000861C1F2040022040400A871C019A7A432E
:102AE0001146AA0872431046FDF742FF800002908B
:102AF0000298D4E701020204000200500080510154
:102B0000001BB70070B504462548C0681021084076
:102B100005462448844200D904462348844200D212
:102B200004461F480068042108431D49086000BF8F
:102B30001B48C068102108400028F9D018480069D7
:102B4000C008C000C01D164908610846006AC901D6
:102B500008431349086208460068C007C00F0028F0
:102B600005D021460020FFF743FE04460AE0214637
:102B70000120C004FFF73CFE04460948C06810214C
:102B8000084005460021022000F010F8002D05D174
:102B9000034800680421884301490860204670BD4D
:102BA0000002005080F0FA0240787D0170B50446C2
:102BB0000D461848C06810210840064615480068B0
:102BC000042108431349086000BF1248C06810215F
:102BD00008400028F9D00F480069C008C000C01D97
:102BE0000C49086108468069000900012843886192
:102BF00008460069C008C0002043086100F008FFD3
:102C0000002E05D10348006810218843014908605F
:102C100070BD000000020050F7B586B0002200230E
:102C2000394C2546E0CDE468049703960295059457
:102C3000354D103530CD019500940401640F002C02
:102C40004AD08400A40FA40002AD2C592F4D621964
:102C50000401650FC401E40EA5401468AC430C43A5
:102C600014602B4CA0420BD1284C103CE469FF258A
:102C70000135AC430D402C43244D103DEC612BE05D
:102C8000244CA0420BD1214C103CE46901256D027B
:102C9000AC430D402C431D4D103DEC611CE01E4C1F
:102CA000A0420BD1194C103CE4690125AD02AC43A4
:102CB0000D402C43154D103DEC610DE0174CA0422A
:102CC0000AD1124C103CE4690125ED02AC430D40E1
:102CD0002C430E4D103DEC618403240E002C11D0CA
:102CE0000403A40FA4006D462C59084D0835631940
:102CF0008403250E8405E40EA5401C68AC43089DA2
:102D00002C431C6009B0F0BD40710000100200505F
:102D10001400C0571500E0571600406617006066A3
:102D20000146074A05E01046521E002801DC00203B
:102D300070470448C06808408842F4D10120F7E792
:102D4000804F1200000200500B48006A80210840AA
:102D5000002806D080200849086201200749087031
:102D600009E005484038006A0349403908620248D2
:102D7000006A014908627047404000508C00002002
:102D800010B58469130E8B401C438461C36914021F
:102D9000240A8C402343C36110BD70B50346002054
:102DA0000FE0012484400C40002C09D01C68460030
:102DB0000325B540AC4346001546B5402C431C6086
:102DC000401C1028EDD370BD0446204603F08EFE53
:102DD00000BF06E0592008490860162008608820D6
:102DE0000860054800680128F4D100BF05210907E3
:102DF000886000BFFEE700000001005010B50B48DE
:102E0000C4684069C007C00F0121484048400028FD
:102E100003D0064800F00EF807E0054800680028D7
:102E200003D0204602490968884710BD00001240BF
:102E30000C000020416901221143416170470000EC
:102E400010B500210C4802F0ABF80C4908600846A8
:102E50000068002801D1401E10BD0021084802F082
:102E60009FF80849086005480068002801D1401E05
:102E7000F2E70020F0E70000A8700000C00000208A
:102E8000B8700000C400002010B50120154908608A
:102E90000A460021144802F0B1F8144908600846B7
:102EA0000068002806D064211048006802F0C0F8CD
:102EB000044600BF02200E4908600A4601210D4861
:102EC00002F09CF80C49086008460068002807D00A
:102ED0007D21C9000848006802F0AAF8044600BF36
:102EE00010BD0000E8000020C8700000E4000020D1
:102EF000F0000020D0700000EC000020052000074A
:102F0000806B0F2149028843052109078863084621
:102F1000806B0F21090208430521090788630D48CA
:102F200080680121490308430A4988600A4800680B
:102F30000A490840001D0849086008468068800862
:102F40008000886008464068000A0002143048602B
:102F500070470000000200500040034001F3FBFFF7
:102F600010B50120FFF706FD0120FFF7D9FE22482A
:102F7000FFF7C8FD67200006FFF71CFC00220121B7
:102F8000490467200006FFF747FE1C48FFF712FCC4
:102F9000002211461948FFF73FFE1848401CFFF772
:102FA00009FC1748FFF706FC002211461348401C95
:102FB000FFF732FE05200007406B800880000521E6
:102FC000090748630846406B0321084305210907A8
:102FD00048630846406B3021884305210907486350
:102FE0000846406B30210843052109074863032048
:102FF0008002086310BD000080F0FA02103D805787
:1030000009000040010E0522120789188968012273
:1030100082401143020E05231B07D2189160010E56
:103020001A4689188A68012181408A43010EC9180D
:103030008A60704710B50024611E2F48006801F0B7
:10304000A1FF2E480068002808D000F013FB0020E4
:103050002B490860FF20F53001F0E4FE00202749ED
:10306000086028A12848FDF757FC43227E21264806
:1030700003F090FD48226021234803F08BFD0A22D3
:103080001A21214803F086FD1A220D211E4802F064
:1030900093F800F0B3FCFF2101311C48FDF764FCFC
:1030A00019491A48FDF738FC1748FDF713FC044688
:1030B000FF22013216480168144800F01BFB154935
:1030C0001148FDF751FCFF2101311348FDF74CFC7D
:1030D00000F094FCFF2201320D4801680E4800F018
:1030E00083FB0B480068FF30013009490860024843
:1030F000006801F039FF10BD00000020C80000206A
:103100007C0000200A000000900100206C0A0020D2
:10311000CC000020DC0500006C0B0020FFB581B066
:10312000064614461D460A9F0020414988606420D7
:1031300001F09AFE0021C9433E48006801F022FFD9
:1031400000203D4908603D4908603D4908603D490F
:1031500008603D490860AF2189003C48FDF706FC46
:103160001A213BA0FDF706FA01F0CCFA3046FDF734
:1031700001FA00BF35480299FDF798FB2F49086016
:1031800021463248FDF792FB2D49086029462F4819
:10319000FDF78CFB2B4908602848006800280BD1FC
:1031A00027480068002807D108460068002803D196
:1031B00021480068B842DDDB26A13046FDF776FBEA
:1031C000002829D125A13046FDF770FB002823D126
:1031D0001A48006800281CD119480068002818D136
:1031E00018480068002814D101201149403948636B
:1031F0001C480068401C1B490860084600680328FA
:1032000002DD19A0FDF7B6F90020094940394863ED
:1032100002E0002013490860012005498860054844
:10322000006801F0A1FE642001F01EFE05B0F0BDB3
:1032300040420050000000203000002058000020D4
:103240005C00002060000020280000206C070020A7
:103250002563000051494C4F4349500051474E539C
:1032600053430000B40000200D0A41542B4346553F
:103270004E3D312C310D0A00FFB589B0074614468A
:103280001D46129E0021C943A948006801F07AFE3C
:103290000520A8A3A9A2A9A10090A9A0FFF73EFF1D
:1032A0000020AC498860642001F0DEFD0020AA49BE
:1032B0000860AA490860AA490860AA490860AA49A2
:1032C0000860AF218900A948FDF750FB01F01AFA08
:1032D000A74801F0FDF9002804D1A548FDF7FAFA46
:1032E000052859D2A3A0FDF745F900BF9F480A99C8
:1032F000FDF7DCFA9949086021469C48FDF7D6FAAB
:103300009749086029469948FDF7D0FA9549086021
:103310009248006800280BD191480068002807D126
:1033200008460068002803D18B480068B042DDDB06
:1033300019218F48FDF71AFB002092490860924935
:1033400008601DE0894890490968405C2F2812DD1B
:1033500086488D490968405C3A280CDA83488A49D6
:103360000968405C8249874A126888548548006829
:10337000401C8449086084480068401C82490860F9
:103380007A48FDF7A7FA804909688842DAD81A22F4
:103390000D21774801F010FF00206F4908606F4948
:1033A00008606F4908606F4908606F490860AF2185
:1033B00089006E48FDF7DAFA01F0A4F93846FDF706
:1033C000D9F800BF69480A99FDF770FA63490860A7
:1033D00021466648FDF76AFA614908602946634854
:1033E000FDF764FA5F4908605C48006800280BD16B
:1033F0005B480068002807D108460068002803D110
:1034000055480068B042DDDB01F07CF95FA1574808
:10341000FDF74CFA00286DD05E485F4908605F48B0
:10342000006A0121C90208435C490862096888B240
:10343000FDF72AFF5849086008460068FDF7CEFEF0
:10344000574A584B01910090FDF7A4FD0022564BBE
:1034500003910290FDF77AFB544A554B0591049075
:10346000FDF798FD07910690FDF732FB4A49086089
:1034700064215048FDF77AFA4E482C2143230A2252
:10348000009101900221394801F046FE38494A482E
:10349000FDF742FA49A14848FDF73EFA454946483A
:1034A000FDF73AFA64214348FDF760FA3A480068AC
:1034B000FDF794FE0791069041480068404909686D
:1034C000009101903FA13B48079B069AFDF760F8E9
:1034D00038493948FDF720FA64213648FDF746FAA5
:1034E0003D483EA102683348FDF752F83149324861
:1034F000FDF712FA3048FDF7EDF93A4988420BD949
:1035000039492D48FDF732FA19492B48FDF704FADD
:1035100036A12948FDF700FA01200E4988600448C9
:10352000006801F021FD052001F09EFC0DB0F0BD0A
:10353000000000204552524F520000004F4B000047
:103540000D0A41542B51474E5353433D310D0A0D43
:103550000A000000404200503000002058000020C7
:103560005C00002060000020280000206C07002084
:10357000D00C00200D0A0D0A41542B47534E0D0A62
:103580000D0A000094000020AC000020474E524D70
:1035900043000000000040403400002000000E40C6
:1035A000E5D022DBF97E0A400000B04049CA37E787
:1035B000BA15FE3F6C0C0020900100202C0000008A
:1035C000A80000202C463D252E31662C493D25645F
:1035D0002C41433D25640000DC0000202C7E602C43
:1035E00025640A00540B0000DC0500006572726F50
:1035F000723A52414D66756C6C0A000000B5034684
:10360000184600F001F800BD00BF0B49896901228E
:10361000D20511400029F8D1074908600A280AD1CB
:1036200000BF054989690122D20511400029F8D15E
:103630000D21014A11607047000015401CB5074874
:103640000078012809D10A200549064B064A009155
:1036500001900649064800F011FB1CBD1B0000202C
:103660003C73000094730000387300009001002048
:10367000287300001E490968F822914340311C4A12
:1036800011601146896889088900491C91600620EB
:1036900011460862096801221143154A116000BFF2
:1036A00013490968C907C90F0029F9D11049896868
:1036B000890889000E4A9160114689688908890045
:1036C000491C9160C7201146086209680122114314
:1036D000074A116000BF06490968C907C90F0029D8
:1036E000F9D10349896889088900014A91607047C6
:1036F0000040034070B504460B463A4D2D68F8264D
:10370000B5434035374E35603546AD68AD08AD0040
:10371000B5603546AD68AD08AD006D1CB5600620DE
:10372000354628622D68012635432E4E356000BF90
:103730002C4D2D68ED07ED0F002DF9D1294DAD6809
:10374000AD08AD00274EB5603546AD68AD08AD009B
:103750006D1CB5600220354628622D680126354370
:10376000204E356000BF1F4D2D68ED07ED0F002D79
:10377000F9D11C4D2D68F826B543C035194E35607A
:103780001846354628622D6801263543154E3560AA
:1037900000BF144D2D68ED07ED0F002DF9D1114D2F
:1037A0002D68F826B54340350E4E356000210FE0F8
:1037B000605C0C4D28622D6801263543094E35604A
:1037C00000BF084D2D68ED07ED0F002DF9D1491C04
:1037D0009142EDD3034DAD68AD08AD00014EB5602B
:1037E00070BD000000400340F0B5034614462B4E68
:1037F0003668F827BE434036284F3E603E46B668DE
:10380000B608B600761CBE6003223E4632623668B9
:1038100001273E43214F3E6000BF204E3668F60729
:10382000F60F002EF9D11D4E3668F827BE43C0367C
:103830001A4F3E600A463E463262366801273E43D2
:10384000164F3E6000BF154E3668F607F60F002E85
:10385000F9D1124E3668F827BE4340360F4F3E600E
:10386000002012E000220D4E3262366801273E43EE
:103870000A4F3E6000BF094E3668F607F60F002E6D
:10388000F9D1064E35691D54401CA042EAD3034EBF
:10389000B668B608B600014FBE60F0BD00400340F8
:1038A00001202A4B5862986229480068F8239843FF
:1038B0004030274B18601846806880088000401C04
:1038C0009860902118460162006801231843204B3C
:1038D000186000BF1E480068C007C00F0028F9D15B
:1038E0001B480068F8239843C030194B186000212A
:1038F00018460162006801231843154B186000BF89
:1039000013480068C007C00F0028F9D110480068AC
:10391000F823984380300E4B18600021184601624E
:103920000068012318430A4B186000BF084800686C
:10393000C007C00F0028F9D10548806880088000C2
:10394000034B98601846026990B27047404200509D
:103950000040034013480068F82398438030114B1F
:1039600018601846806880088000401C9860052216
:10397000120218460262006801231843094B1860BE
:1039800000BF08480068C007C00F0028F9D10548EB
:10399000806880088000034B986018460169C8B2AF
:1039A000704700000040034013480068F823984324
:1039B0008030114B18601846806880088000401CD9
:1039C00098603522120218460262006801231843EB
:1039D000094B186000BF08480068C007C00F0028E6
:1039E000F9D10548806880088000034B986018462C
:1039F0000169C8B2704700000040034010B500BF25
:103A0000FFF7A8FF0446E407E40F002CF8D110BD2F
:103A100070B5FFF737F8114908601148006945078C
:103A20006D0F022D03D0A8000E490C5801E00B4881
:103A300004680B4880690007000F461C3146204689
:103A4000FCF796FF084908600849074800684A10D3
:103A50008018FCF78DFF0649086070BD1801002032
:103A6000000200501C0100201001002040420F0005
:103A70001401002070470000FFB585B00C461546C4
:103A80000F9E0027002004900390029001904B208D
:103A9000C0000090791E6C48006801F073FA0020A5
:103AA0006A498860642001F0DFF9002068490860F5
:103AB00005266849086068490860684908606849DF
:103AC00008601A2167A0FCF755FD2046FCF702FFAD
:103AD00007460F2F7EDD00F015FE002060490860CC
:103AE0005B490860AF2189005F48FCF73FFF0598FC
:103AF000FCF740FD00BF29465B48FCF7D7FE55495F
:103B0000086059480899FCF7D1FE534908605648A7
:103B10000E99FCF7CBFE514908604E48006800281A
:103B20000BD14D480068002807D1084600680028DE
:103B300003D147480068B042DDDB00F0E3FD002020
:103B4000434908604348006800284CD000200860C2
:103B500005264049086040490860404908604049DE
:103B60000860AF2189004048FCF700FF00F0CAFD63
:103B70000020019009E00499605CFFF73FFD049884
:103B8000401C04900198401C01900198B842F2DB5F
:103B90001A2134A0FCF7EEFC00BF29463248FCF79E
:103BA00085FE2C49086030480899FCF77FFE2A49B9
:103BB00008602D480E99FCF779FE284908602548D1
:103BC000006800280DD124480068002809D1084663
:103BD000006800E028E0002803D11D480068B042DA
:103BE000DBDB00F08FFD1D480068002803D10120B9
:103BF0001E49086002E000201C4908601B4800685C
:103C000000280DD103990298884209DB1849194808
:103C1000FCF7ACFEFFF712FD01201749087006E023
:103C200000201549087002E00120104908600120B9
:103C3000064988600448006801F096F9052001F003
:103C400013F909B0F0BD0000000000204042005010
:103C500030000020580000205C00002060000020A0
:103C600028000020256300006C0700209000002041
:103C7000DC050000900100201B000020FFB5D1B042
:103C800015461E465B9F002050904F904E904D90E1
:103C90000024FF202D304C900020009074490860D3
:103CA000411E7448006801F06DF900207249886077
:103CB000FF20F53001F0D8F81A2170A0FCF75AFC6B
:103CC00000BFFF212D3101A8FCF750FEFFF796FE43
:103CD000FF2201326A48016801A8FFF785FD6846A6
:103CE0000079FF2802D001204E9006E000204E907F
:103CF000644908600120644908604E9801287DD11C
:103D000000F000FD64216148FCF730FE00206049AE
:103D1000086005275F4908605F4908605F490860DF
:103D20005F4908605A490860AF2189005D48FCF787
:103D30001DFE5198FCF71EFC00BF29465948FCF7B0
:103D4000B5FD5449086031465648FCF7AFFD52496D
:103D5000086054485A99FCF7A9FD504908604D483D
:103D6000006800280BD14C480068002807D108469D
:103D70000068002803D146480068B842DDDB00F047
:103D8000C1FC0020424908604248006800284DD02C
:103D90000020086005273F4908603F4908603F4907
:103DA00008603F490860AF2189003E48FCF7DEFD0E
:103DB00000F0A8FC00204F9001A8FCF78BFD4C9070
:103DC000002407E001A9085DFFF718FC4F98401C8C
:103DD0004F90641C4C988442F4DB1A2127A0FCF716
:103DE000C9FB00BF29462F48FCF760FD2949086040
:103DF00031462C48FCF75AFD274900E029E00860CD
:103E000028485A99FCF752FD244908602148006867
:103E100000280BD120480068002807D10846006818
:103E2000002803D11A480068B842DBDB1B48006851
:103E3000002805D101201C4908600D4908600CE0EC
:103E40000F480068FF3001300D4908600020164916
:103E500008604E98012800D133E700BF054800688C
:103E600001F082F80A2000F0FFFF55B0F0BD00001D
:103E70004C0000200000002040420050256300005C
:103E80007C000020CC000020C80000206C0C00202A
:103E900030000020580000205C000020600000205E
:103EA000280000206C070020900000201CB56EE068
:103EB0000020374908700120364908700020364933
:103EC00008703649087002F061F83548006800282B
:103ED00008D00A2033A335A235A1009037A0FFF700
:103EE000CBF934E000F0F0FD3C493D48FCF714FD0F
:103EF0003CA13B48FCF710FD3BA13948FCF70CFD09
:103F000064213B48FCF730FD3A480068FDF766F94C
:103F100004460B4622480068214909682246009160
:103F2000019035A13248FCF733FB31492C48FCF7AE
:103F3000F3FC64212E48FCF717FD344834A10268D5
:103F40002B48FCF725FB2A492548FCF7E5FC2F48C0
:103F50000068E121C900884213D931A0FCF70AFBAF
:103F600000BF06E059203349086016200860882009
:103F70000860304800680128F4D100BF0521090716
:103F800088602D4800F070FF0A2000F06DFF8FE779
:103F900075000020770000207800002076000020C7
:103FA000A80000204552524F520000004F4B000025
:103FB0004D47505353544154555300000D0A0D0AB8
:103FC00041542B51474E535352443D224E4D45418F
:103FD0002F524D43220D0A0D0A0D0A00D00C00206D
:103FE000900100202C000000414C49564500000083
:103FF0006C0C0020340000202C463D252E31662C10
:10400000493D25642C41433D25640000DC0000202F
:104010002C7E602C4C4946453D25640A000000007A
:104020000D0A41542B4346554E3D312C310D0A0D9E
:104030000A00000000010050241300001CB594E0A9
:1040400000204A4908704A4908700120494908700F
:10405000002049490870012048A34AA24DA10090C0
:104060004DA0FFF75BF8642000F0FEFE00F058FB67
:104070004D48007801282DD100F0DAFB4B4800783C
:10408000012827D105203DA342A249A100904AA0C2
:10409000FFF744F8052039A33EA245A100904AA0AD
:1040A000FFF73CF8052035A33AA241A100904DA0AE
:1040B000FFF734F8052031A336A23DA100904EA0B1
:1040C000FFF72CF802202DA332A24FA100904FA0A1
:1040D000FFF724F8052029A32EA235A1009050A0B7
:1040E000FFF71CF8042025A32AA231A1009051A0BB
:1040F000FFF714F80A2053A320A254A1009055A062
:10410000FFF70CF800205F4908600A205EA11BA39E
:104110005FA2009101905F495FA0FFF7ADFC594895
:10412000006801281DD1FEF785FF0A2045A313A2D0
:104130005EA1009060A0FEF7F1FF0A200FA311A27C
:1041400014A1009061A0FEF7E9FF0A200BA30DA2C5
:1041500017A1009010A0FEF7E1FFFF20F53000F05E
:1041600061FEFF20F53000F07FFE69E7750000205A
:104170007700002078000020760000204552524F42
:10418000520000004E4F5420494E5345525445446E
:10419000000000004F4B00000D0A41542B434655D0
:1041A0004E3D310D0A0D0A003D0000203E0000206A
:1041B00052656164790000000D0A41542B43475257
:1041C00045473F0D0A0D0A000D0A41542B51495233
:1041D00045474150503D226973616665220D0A0DC5
:1041E0000A0000000D0A41542B51495245474150E5
:1041F000500D0A0D0A0000000D0A41542B5149418F
:1042000043540D0A0D0A00007A0000000D0A4154C3
:104210002B51494C4F4349500D0A0D0A0000000034
:104220000D0A41542B5153434C4B3D310D0A0D0A9D
:10423000000000000D0A41542B4353510D0A0D0A92
:10424000000000004641494C00000000434F4E4E24
:10425000454354000D0A41542B51494F50454E3DA2
:1042600022544350222C223130342E3233362E3217
:1042700030332E34222C2235353536220D0A0D0AE4
:10428000000000009000002053454E44204F4B009A
:104290003E000000900100200D0A41542B5149536B
:1042A000454E440D0A0D0A0D0A000000434C4F53C1
:1042B00045204F4B0D0A00000D0A41542B51494334
:1042C0004C4F53450D0A0D0A000000000D0A4154E1
:1042D0002B4346554E3D300D0A0D0A007047000035
:1042E00010B504460C480068401C0B49086000F0FB
:1042F00049F90A480078401C40B20849087008484B
:104300000068401C06490860064840680121484092
:104310000449486010BD000030000020E00000208B
:10432000DC000020004200500AE00948006809490A
:10433000094A1268885408480068401C0649086009
:10434000034880690121890308400028EDD07047A7
:10435000000015406C0700202800002010B5094817
:10436000FEF750FEE1214902074800F00FF8064829
:10437000406801210843044948600D2000F0AAF874
:1043800010BD00001100000400001540F0B587B01A
:1043900004460D46274801460EC9C06803AE0EC646
:1043A0000690002002902448406903210906084035
:1043B000060E214880690F2109020840070A0020E3
:1043C00020630320E060A0681C490840A060012E23
:1043D00004D1FEF717FBB10003AA5050002D26D0E0
:1043E000B10003AA5058791CFCF7C2FA69084018BA
:1043F00029460190FCF7BCFA801E029010490298F1
:1044000088420FD9B10003AA5058791CFCF7B0FAC2
:10441000E900401829460190FCF7AAFA0009801E1D
:10442000606204E00321090702980843606207B054
:10443000F0BD000078710000000200500FFFF0FF97
:10444000FFFF0000024803490860012088607047B0
:10445000A55A00000041004010B50B040343012A97
:1044600001D1022400E00024234301242343014C12
:10447000636010BD00410040F8B5040C8BB22646C5
:1044800082B25E430D0C1046370C58433604801937
:104490000021794116466E43370C36048019794164
:1044A00026466E438919F8BD4900CA02024310002E
:1044B00000D004204A0D01D001221043044A490DC6
:1044C000914201D102210843012800D10520704703
:1044D000FF070000002805DBC206D20E0121914033
:1044E000014A11607047000000E100E010B5002AA9
:1044F00006DA52005208D21DD308DB00102203E076
:10450000D21C93089B000C22002B02D09C188C42DA
:1045100001D9012010BD82188360411802604160FA
:10452000C91AD018884202D810600246F9E7002064
:10453000106010BD30380A2801D2012070470020D9
:104540007047000080B505490978002904D0054F5F
:1045500000680349BC4600DF80BD00003D0100202B
:10456000FFFF00003D58000080B50449097800298C
:1045700003D0034F0068BC4600DF80BD3D01002032
:104580006557000070B549480078401C40B2474963
:10459000087008460078012806D100204449C86008
:1045A0000861486188617FE042480068FCF716FEB8
:1045B0000446414A414B02F02DFD09D23C48806936
:1045C000012148403A49886148610861C86068E053
:1045D00038480068FCF702FE04460022384B02F01F
:1045E000E7FC09D23248C068012148403049C86020
:1045F00000203449087054E02E480068FCF7EEFDB6
:1046000004460022304B02F0D3FC0FD22848C06889
:10461000012148402649C8600846006901214840F8
:10462000234908610020274908703AE021480068C2
:10463000FCF7D4FD04460022244B02F0B9FC15D24D
:104640001B48C068012148401949C86008460069F4
:104650000121484016490861084640690121484047
:10466000134948610020174908701AE01048C068D3
:10467000012148400E49C8600846006901214840B0
:104680000B490861084640690121484008494861D2
:104690000846806901214840054988610020094990
:1046A000087000200149087070BD0000D80000208B
:1046B000004200503400002066666666666612405E
:1046C00000000A403C00002000000C4000000E40AA
:1046D000F8B5054600272846FCF7FCF807460024F5
:1046E0000AE0285D2F2804DD285D3A2801DA00263B
:1046F00001E0012602E0641CBC42F2DB00BF70B2A4
:10470000F8BD000002E005490968C8B2034989699B
:104710000122920311400029F5D070470000154096
:1047200010B500202E498860642000F09DFB002118
:10473000C9432C48006800F025FC00202A49086085
:1047400005242A4908602A4908602A4908602A493C
:104750000860AF2189002948FCF708F91A2128A030
:10476000FBF708FFFFF7CEFF26A0FBF703FF00BF14
:1047700028A12248FCF79AF81C49086028A11F4884
:10478000FCF794F81A49086026A11C48FCF78EF83B
:10479000184908601548006800280BD114480068C3
:1047A000002807D108460068002803D10E48006899
:1047B000A042DDDB01200A498860FFF7A3FF0B4818
:1047C0000068002803D001201849087002E000208A
:1047D000164908700348006800F0C6FB10BD0000D1
:1047E000404200500000002030000020580000200F
:1047F0005C00002060000020280000206C070020E2
:10480000256300000D0A41542B4350494E3F0D0AC9
:104810000D0A00004350494E3A2052454144590088
:104820004F4B00004552524F520000003D00002007
:1048300010B586B000203B498860642000F014FB6E
:104840000021C9433848006800F09CFB002037492C
:104850000860052436490860364908603649086012
:1048600036490860AF2189003548FCF77FF81A21E6
:1048700034A0FBF77FFEFFF745FF33A0FBF77AFE7E
:1048800000BF35A12E48FCF711F82949086035A171
:104890002B48FCF70BF82749086033A12848FCF7A0
:1048A00005F8254908602248006800280BD12148F6
:1048B0000068002807D108460068002803D11B487B
:1048C0000068A042DDDBFFF71DFF0120154988606D
:1048D000002003900490059003A80A212C230222B3
:1048E000009101900121164800F016FC20A103A8B8
:1048F000FBF7DCFF002805D11EA103A8FBF7D6FFBC
:10490000002803D001201C49087002E000201A4949
:1049100008700548006800F027FB052000F0A4FAA5
:1049200006B010BD404200500000002030000020C2
:10493000580000205C0000206000002028000020BB
:104940006C070020256300000D0A41542B4352459B
:10495000473F0D0A0D0A00004350494E3A20524588
:10496000414459004F4B00004552524F5200000045
:1049700031000000350000003E000020014600200C
:10498000C043704708B564210A48FBF7EDFF0A4AA7
:104990000AA10848FBF7FCFD0A200DA30EA20FA1F7
:1049A00000900448FEF7BAFB14210348FBF7DCFF34
:1049B00008BD00006C0C0020920E00200D0A41542E
:1049C0002B5146434C4F53453D25730D0A0D0A00AC
:1049D0004552524F520000004F4B00002B434D45B3
:1049E000204552524F5200001CB52048FBF772FF81
:1049F000002839D10A201E4B1E4A1F4900901F482B
:104A0000FEF78CFB1E491F48FBF750FF002814D00F
:104A100001201D4948631D48FBF7ACFD00201A49E1
:104A2000486314211148FBF79FFF0A20104B114ADD
:104A3000114900901148FEF771FB0C480A21202310
:104A400002220091019001210E4800F065FB0A222C
:104A50000D21064800F0B0FB05200D4B044A054926
:104A600000900C48FEF75AFB1CBD0000920E00207F
:104A7000947300008C7300009C7300005873000056
:104A8000907300006C070020004200507473000017
:104A9000847300004473000030B504460D46204680
:104AA000FEF7ACFD204630BD0548C068002803D0A5
:104AB00000200449086002E00120024908607047B4
:104AC00080420050A800002010B50021C9433D4895
:104AD000006800F057FAFFF715FE00203A49086019
:104AE0003A4908603A4908603A490860AF218900AC
:104AF0003948FBF739FF1A2138A0FBF73BFD32217B
:104B00003748FBF731FF00203649086036A0FBF735
:104B100031FD00BF38A13048FBF7C8FE2A490860C4
:104B200036A12D48FBF7C2FE2849086035A12A4866
:104B3000FBF7BCFE264908602348006800280BD11B
:104B400022480068002807D108460068002803D1E1
:104B5000244800680528DDDB00202B4908602B492C
:104B600008601DE01C4829490968405C2F2812DDB7
:104B7000194826490968405C3A280CDA1648234946
:104B80000968405C1649204A126888541E4800682B
:104B9000401C1D4908601D480068401C1B490860F6
:104BA0000D48FBF797FE194909688842DAD81A229E
:104BB0000D210B4800F000FB0248006800F0D4F91A
:104BC00010BD000000000020580000205C00002004
:104BD00060000020280000206C07002025630000F2
:104BE000D00C0020300000200D0A0D0A41542B4744
:104BF000534E0D0A0D0A00004F4B00004552524F14
:104C000052000000434D450094000020AC000020FD
:104C10000EB502468020002A0DD000290BD1117854
:104C2000012908D1104601A900F021F8042801D07B
:104C3000002000E01020029A019903B000BD70B579
:104C40000D46040004D0002A02D12078012801D0AA
:104C5000802070BD204600F085FC002805D0294644
:104C6000204600F02AF8002070BD812070BD10B5EC
:104C70000446808900281FD06089800000190069DF
:104C800008606068002808D06078022805D10021FB
:104C9000204600F05BFE00F049FE72B6A089401E7F
:104CA000A08162B66089401C80B26081E18988423F
:104CB00001D100206081042010BD10B500F046FE37
:104CC00000F034FE10BD000000BF06E05920464948
:104CD00008601620086088200860434800680128A2
:104CE000F4D100BFFEF73CF900BF00203E49086048
:104CF00000BF00F0C7F8002280213C48FEF74DF8C5
:104D00000122120407213948FEF73AF80420FFF780
:104D1000E1FB0122022135484038FEF73EF801222E
:104D2000D10332484030FEF738F8002208212F48DE
:104D30004030FEF732F8012291032C48FEF72DF89F
:104D40000122D1032948FEF728F801202849886369
:104D5000C8630122202103208002FFF77DFB00BFF2
:104D600024480068402108432249086000BF012010
:104D7000FFF7B0FBFEF7C2F8FFF7F0FAFEF760F8B6
:104D8000FEF782F8FDF7EEFC1B4800F0D3F81B4954
:104D900008601B4800F0CEF81A4908601A4800F075
:104DA000C9F81A49086000F081F8FEF779FD184942
:104DB0000860FEF7CFFD16490860FEF7F5FD1449BF
:104DC0000860FFF771FE0EE0012012490870002014
:104DD000114908701149087011490870FFF764FE05
:104DE0000A2000F041F8EFE7000100504040005079
:104DF00040420050004000409C7000000000002035
:104E0000A070000004000020A47000000800002032
:104E1000B0000020750000207700002078000020FE
:104E200076000020002106E0002200E0521C034B27
:104E30009A42FBDB491C8142F6DB7047FFFF000012
:104E4000F8B505460E462846FBF744FD0746002404
:104E500005E0285DB04201D10120F8BD641CBC42D0
:104E6000F7DD0020F9E7000080B5EFF305810029A8
:104E700001D0822080BD024FBC4600DF80BD000013
:104E8000AF6B000080B5EFF30580002801D08220D1
:104E900080BDEFF31480C00703D0034FBC4600DF92
:104EA00080BD01F08DFE80BDC16B000080B588B073
:104EB000EFF30580002802D0822008B080BDEFF318
:104EC000148081071248890F06D001291AD00229BF
:104ED00010D0032918D112E008A981F309880078BD
:104EE000C0070AD0022080F31488BFF34F8FBFF3AE
:104EF0006F8F09E00078C00706D10320F3E7007840
:104F0000C00701D0FF20D8E7024FBC4600DFD4E73E
:104F1000F0700000396C000080B5EFF30582002AC4
:104F200002D0FFF775FE80BD014FBC4600DF80BD9B
:104F3000AF6C000080B5EFF30581002901D000209F
:104F400080BDEFF31481C90703D1054949780029D1
:104F500003D0044FBC4600DF80BD01F0C6FE80BD1B
:104F60003C010020EB6C000080B5EFF305810029C7
:104F700001D0822080BD024FBC4600DF80BD000012
:104F80000B6D000080B5EFF30582002A01D082206E
:104F900080BD024FBC4600DF80BD00002F6D0000C9
:104FA00080B5EFF30582002A01D0002080BDEFF329
:104FB0001482D20703D1054A5278002A03D0044F45
:104FC000BC4600DF80BD01F0D1FE80BD3C01002069
:104FD0006D6D0000034FBC4600DF034FBC4600DF91
:104FE000FEE70000E16D0000FD6D000080B5024F9E
:104FF000BC4600DF80BD0000396E000080B5EFF3D5
:105000000583002B01D0002080BDEFF31483DB0764
:1050100003D1054B5B78002B03D0044FBC4600DF67
:1050200080BD01F017FF80BD3C010020556E0000DF
:1050300080B5EFF30582002A01D0822080BD024FA7
:10504000BC4600DF80BD0000956E00000025094CC5
:10505000ED4329462068FFF75FFF02460846102A05
:10506000F7D1FFF7C3FF0028F3D002460846904768
:10507000EFE70000F8000020012806D0022805D044
:10508000032804D0042804D102E003E002E001E098
:1050900000E000BF00BF00BF06E0084A59211160D0
:1050A0001621116088211160044909680129F4D191
:1050B00000BF05221207916000BFFEE7000100500B
:1050C00000BF0549002008700449087004490870B1
:1050D000044901200870F4E77500002077000020E3
:1050E00078000020760000200748016807484161E9
:1050F00000218161072101610548016AFF22120632
:105100001143016240177047EC70000000E000E0BE
:1051100000ED00E070470000FFB585B006461F4671
:1051200039463046FFF78CFE002841D030460E99B4
:10513000FFF786FE00283BD03046FBF7CBFB049000
:105140000F98FBF7C7FB039003990F98FBF70CFC34
:10515000002400250AE0315D0E98814201D16D1CCA
:1051600002940798854200DB124C641C0498844228
:10517000F1DB0024002509E0305DB84201D16D1C4F
:1051800001940698854200DB0A4C641C0498844212
:10519000F2DB002406E001980019401C315C0F98F6
:1051A0000155641C01990298401A401EA042F2DC8D
:1051B00009B0F0BDAC26000030B503460C461946D8
:1051C000184615E00D780570491C0578A5420DD0EC
:1051D000057895420AD00578202D07D005782F2D27
:1051E00004D005783A2D01D0012500E000252818CB
:1051F0000D78002DE6D1057030BD0146EFF310802B
:10520000C207D20F72B60868002801D003680B608D
:10521000002A00D162B6704710B500280ED00029D0
:105220000CD00B318A089200016844680B1A1B1BD2
:10523000934205D2084609680029F5D1002010BD27
:10524000210007D0211803680B604A6001600846FE
:10525000083010BD4260083010BD000070B50D462A
:1052600000280FD00849094C884204D22268014620
:10527000104600F08BFB20684570054800F0DFF811
:1052800000F050FC70BD0000FFFF00004401002052
:105290003834002010B50E480C4942680D480B68A0
:1052A0000068934204D00A60CB88421E9A188A8014
:1052B0008A8880B2824208D100200860044800F049
:1052C000BEF80146024800F089FB10BD58010020DD
:1052D000383400205401002070B51A4DE8680028C9
:1052E0002FD0A88A401EA882002624E0A0680028AB
:1052F00008D0616841606068002802D0A1688160C0
:105300006660A6600F482146183800F067FBA08A47
:10531000A8826078042804D10B49E08A09884018E3
:10532000A08201206070E068E860E068002801D099
:105330000561E6602661A88A002802D1EC68002C8D
:10534000D4D170BD503400205401002070B5040049
:105350000ED00C4DA17828680126827891420BD995
:1053600000F05AFB28684670204600F0DBFB70BD59
:10537000054800F064F8F8E766702146024800F03E
:105380002DFB70BD440100203834002010B50321EE
:10539000FFF764FF10BD000010B50446008B084302
:1053A00020836278618B062A17D0052A14D108421F
:1053B00012D00A460240628388432083204600F0D0
:1053C00054FB01206070628B0821204600F049FBED
:1053D0002146044800F002FB10BD0A468243EBD090
:1053E00010BD000038340020814202D342688A4256
:1053F00001D801207047EFF31082D207D20F72B6A6
:1054000003680B60016000D162B60020704700287D
:1054100010D000290ED00022083903E002460068AF
:10542000002807D08842F9D1002A05D00068106012
:10543000002070470120704700214160F8E70146D5
:10544000406842684A600B780022022B05D0012B8D
:1054500003D0032B01D0426070474368002B01D07A
:105460009960426082607047810700D000207047D9
:1054700070B5044615460020207001226270224655
:10548000A170203211716060A060E0602061206234
:10549000A082E082208360835071E08C002803D1D9
:1054A0000448FFF7AAFEE0622946204600F01EF8F5
:1054B00070BD0000D80F0020002801D0082901D2BB
:1054C000012070474118091F002201600A604260F4
:1054D0001046704703480021016003490988C180D4
:1054E0007047000058010020E0700000F0B5C28C49
:1054F000194D930802D12A881204930CC26A9C00A9
:105500001219540700D5121F01242406403AD4630F
:10551000002491632646A700641CD6510E2CFAD3B2
:10552000C4691462826201632968C9000FD5112B16
:105530000DD9103B5908094B02E0083A536013603B
:10554000491EFAD1C16A121F8A4200D91360C06A8B
:1055500003490160F0BD0000DC700000CCCCCCCC75
:10556000A52E5AE2C1898089081A7047012202706B
:105570000022427082704260028142818281034A2D
:1055800089038918090CC181704700000000FCFFE5
:10559000F8B50446406800270D46002844D06078DE
:1055A0000126012837D0022813D0032832D108461B
:1055B000FFF723FE05002DD02046FFF740FF0446ED
:1055C000294600F04BFA6670204600F04EFA21465C
:1055D0001DE02046FFF733FF0546002100F03EFAAC
:1055E0002189E86989000919086172B6A089401CFF
:1055F000A08162B62089401C80B22081E189884266
:1056000000D127816E70284600F02FFA29461348F2
:1056100000F0E4F9F8BD2046FFF711FF04462A46E2
:10562000102100F01EFACEE7A089E189884211D24C
:10563000208980000019056172B6A089401CA081F4
:1056400062B62089401C80B22081E1898842E1D184
:105650002781F8BD0320FFF70FFDF8BD3834002087
:1056600070B50446808900261546002834D060892C
:1056700080000019006908606089401C80B2608168
:10568000E189884200D166816068002802D0607894
:10569000022806D072B6A089401EA08162B6002002
:1056A00070BD2046FFF7CBFE0546002100F0D6F97D
:1056B0002189E8698900091908612089401C80B2A4
:1056C0002081E189884200D12681284600F0CDF969
:1056D0002846FFF73BFEE2E7002D08D00B48626842
:1056E0000168002A05D0204600F078F908E0012082
:1056F00070BD616001684E60006884600120607068
:1057000008212846FFF7AAFDF1E700004401002028
:1057100010B5002812D0411C11D00B490B4C884207
:105720000BD87D21C900484309490A6880181146F1
:10573000401EFBF71DF9A04204D9204610BD0348C6
:10574000401C10BD80B210BD00093D00FEFF0000EE
:10575000FC700000032101700021418041608160E4
:10576000C1607047F8B504464088002804D0314D28
:10577000A1682A68914201D0FF20F8BD401E0004B4
:10578000000C608053D12968086AA04209D1E06802
:10579000086208E0C268A24202D1E268C26002E088
:1057A00010460028F6D12420405C0A6A07E05368BE
:1057B000002B03D09B78834200D91846D268002A78
:1057C000F5D1887061680126002922D02046FFF7B4
:1057D00036FE0746002100F041F9384600F045F951
:1057E0006680A760386AE0603C62134829684068B8
:1057F0008A788078824201D3384616E00E4800F05D
:10580000EDF839460C4800F0E9F8286846707E70DB
:105810000AE0094949688A782968824207D9064816
:1058200000F0DCF8286846700020FFF78FFD0020AC
:10583000F8BD0000440100203834002070B50E4649
:105840001C4D044641882868002907D0A26882427E
:105850000FD11948814208D1FF2070BDA060016AB4
:10586000E16004620120608001E0491C6180002049
:1058700070BD002E0FD091788078814203D2907055
:10588000A06800F0D3F86068002806D02046296898
:1058900000F0A4F808E0012070BD28686060296865
:1058A000002048602868846009213046FFF7D6FC54
:1058B000F1E7000044010020FFFF000070B5184828
:1058C000012102685170006800F0A6F8154C657857
:1058D00013E0E800011948680278002A17D0012A6D
:1058E0001AD000F0F1F8E0786D1C854200D1002557
:1058F00072B6A078401EA07062B6A0780028E8D1E9
:1059000065700948FFF79BFD00F00CF970BD09892F
:1059100089B2FFF741FDE6E78968FFF739FEE2E764
:10592000440100205031002038340020054801781F
:10593000002902D00121417070470120024900076F
:10594000486070474C01002000ED00E070B50E4B40
:10595000DD789C1C1E4672B69A78AA4207D2521C69
:1059600022703278541CAC4200D10024347062B6EC
:10597000DC78944204D9D200D2189160506070BD96
:105980000220FFF779FB70BD5031002010B5124A9C
:10599000D368002B17D013469B8A04E0002C12D04A
:1059A0002246A48AE318D4688B42F7D3C460D0603F
:1059B0000261C468002C00D02061591A8182908A4B
:1059C000401A908210BD0024C460D060C91A0261E0
:1059D0009182848210BD00005034002030B50278DE
:1059E0000023022A03D0012A01D0032A00D1012377
:1059F0008C7800E010464268002A02D09578A542D3
:105A0000F8D24A604160002B04D0002A00D0916097
:105A1000886030BD0020FBE703494A6842600022ED
:105A200082604860704700003834002010B58368F9
:105A30000446002B05D1607801280CD1064B03E009
:105A40009B6818780028FBD0204600F023F82146F8
:105A50001846FFF7C3FF10BD38340020806A01628A
:105A60007047806A42620162704710B5016900297F
:105A70000FD0C268CA60C3680022002B07D08B8A8F
:105A8000848A1B198B82C3681961C26000E08A8214
:105A9000026110BD8168002907D042684A604168F0
:105AA000002901D0806888607047064906E04A688E
:105AB000824202D140684860704711460029F6D101
:105AC000704700003834002010B5416800290FD01D
:105AD000FFF7B5FC0446FFF7C8FF012060700146E0
