S31500000000F82F0020D502000071020000A142000076
S3150000001000000000000000000000000000000000DA
S31500000020000000000000000000000000E3020000E5
S315000000300000000000000000E5020000E7020000EA
S31500000040ED020000ED020000ED020000ED020000EE
S31500000050ED020000ED020000ED0200004D5A000026
S31500000060ED020000ED020000ED020000ED020000CE
S31500000070ED0200008F620000B5620000ED02000094
S31500000080ED020000ED020000ED020000ED020000AE
S31500000090ED020000ED020000ED020000ED0200009E
S315000000A0ED020000ED020000ED020000ED0200008E
S315000000B0DD430000ED020000ED0200006F3E00008F
S315000000C000F002F800F054F80CA030C808382418E4
S315000000D02D18A246671EAB4654465D46AC4201D17A
S315000000E000F046F87E460F3E0FCCB6460126334258
S315000000F000D0FB1AA246AB4633431847808F000058
S31500000100A08F00000023002400250026103A01D30A
S3150000011078C1FBD8520700D330C100D50B607047B9
S3150000012010B5662902D108F0E5FB10BD642902D19D
S3150000013006F012FA10BD782902D106F043FA10BD76
S31500000140632902D107F064FD10BD732902D107F0BF
S3150000015067FD10BD002010BD1FB507F0BFFD0400F0
S315000001600020002108F056FAE0601FBD10B510BD52
S3150000017008F016F91146FFF7EFFF04F0C2F808F091
S315000001802EF903B4FFF7F2FF03BC00F0EBF8000012
S3150000019070B505460C46164602E00FCC0FC5103E5C
S315000001A0102EFAD2082E02D303CC03C5083E042E25
S315000001B007D301CC01C5361F03E021782970641CE2
S315000001C06D1C761EF9D270BDF0B588B003460A469E
S315000001D015786D1C157015786D076D0F15701578EF
S315000001E0AD00161D7351002106E08E00151DAD5998
S315000001F08E006F46BD51491C0829F6DB00BF00245E
S31500000200002116E08D006E4676594D1CAD006F46F6
S315000002107D59AE420CDD8D006E4670594D1CAD0009
S3150000022075598E00BD514D1CAD006E4670510124AE
S31500000230491C0729E6DB002CE1D1039808B0F0BD84
S31500000240F8B5064600277D24E400254600BF25466E
S315000002502146304606F01BFB001944083846791C37
S31500000260CFB2072801DAA542F1D12046F8BD000039
S31500000270134909680222114000290DD01049096866
S31500000280490849000E4A116000BF0D49096802225B
S3150000029011400029F9D10DE0002007E0094909695C
S315000002A010221140102900D103E0401C0649884263
S315000002B0F4DB00BF70470548054908617047000038
S315000002C0403000F000F00FF8FFFF010013070000B8
S315000002D0009004400948804709480047FEE709485E
S315000002E08047FEE7FEE7FEE707488047FEE7000097
S315000002F006480749054A074B70470000DD550000D0
S31500000300C1000000A1420000DD43000010210020D2
S31500000310102500201021002010B50446E1B2054842
S3150000032006F099F8E0B210BD10B5024806F08AF85A
S3150000033010BD000000A0064070B504460D462046DC
S31500000340FFF7EAFF70BD10B50446FFF7EDFF10BDDD
S3150000035001460020C043704710B504462046FFF70B
S31500000360DBFF10BD00BFFEE7704700000FB4054974
S3150000037010B503AA029807F057FC10BC08BC04B0DD
S31500000380184700009CF1FF1F0FB41CB5074B06AAC7
S315000003907B4469460090059807F017FC00206946E3
S315000003A007F026FC1CBC08BC04B018475D780000AA
S315000003B070B5044685690068C10601D5302600E09F
S315000003C02026C00707D070BD62683046A1689047F6
S315000003D0206A401C20626D1EF6D570BD70B50446BD
S315000003E085690078C00707D170BD6268A1682020C2
S315000003F09047206A401C20626D1EF6D570BD000035
S31500000400FFFFFFFFFFFFFFFFFFFFFFFFFEFFFFFFF7
S31500000410FE49097908221140002901D0FB49C87913
S31500000420FA49097918221143F84A117170470DE00B
S315000004307D210901F64A116004E0F5490968491E63
S31500000440F34A1160F24909680029F6DC0146401EAC
S315000004500029EDD1704770B50546002400BF05E0C0
S31500000460295DEA4805F031FF601CC4B2284604F055
S31500000470C7FBA042F4D870BDFFB587B016461F462D
S31500000480109C0120069000200590FFF7C1FF002078
S31500000490E0490860E049E14806F0F7F90020E04944
S315000004A008600494FFF7B4FFDE4803900798FFF74F
S315000004B0D2FF0A20FFF7BBFF0D21D44805F005FF48
S315000004C000BFD648089906F06DF901903146D34829
S315000004D006F068F900903946D04806F063F90546FB
S315000004E00198002808D10098002805D1002D03D1D5
S315000004F0C8480068A04201DD012000E0002002900B
S3150000050002980028DDD0FFF783FFC2480068A042AA
S3150000051017DD0D21BD4805F0D8FE0A21BB4805F0C0
S31500000520D4FE1A21B94805F0D0FE1A21B74805F0C5
S31500000530CCFE0D21B54805F0C8FE0A21B34805F0EA
S31500000540C4FE0BB0F0BDFFB587B016461F46109C23
S315000005500120069000200590FFF75AFF0020AD49C4
S315000005600860AD49AD4806F090F90020AC49086036
S315000005700494FFF74DFFAB4803900798FFF76BFF16
S315000005800A21A24805F0A1FE0A21A04805F09DFE19
S315000005900A20FFF74CFF00BFA048089906F002F9B1
S315000005A0019031469D4806F0FDF8009039469B487B
S315000005B006F0F8F805460198002808D100980028AA
S315000005C005D1002D03D193480068A04201DD01202A
S315000005D000E00020029002980028DDD0FFF718FF07
S315000005E08C480068A04217DD0D21884805F06DFE95
S315000005F00A21864805F069FE1A21844805F065FE41
S315000006001A21824805F061FE0D21804805F05DFE45
S315000006100A217E4805F059FE0BB0F0BD38B56420BE
S31500000620FFF705FFFFF7F4FE64217F4806F02DF97A
S315000006307E4804F0E5FA441C23467D4A7DA17A48AB
S31500000640FFF7A2FE052084A385A287A10090764825
S31500000650FFF712FFFFF7DCFE0020714908606D49C5
S315000006600860824908600BE07048804A1268815C25
S31500000670664805F02AFE7D480068401C7B490860F4
S315000006806A4804F0BDFA794909688842ECD80A211B
S315000006905E4805F01AFE0A215C4805F016FE0A219E
S315000006A05A4805F012FE0A21584805F00EFE0A21A6
S315000006B0564805F00AFE0A21544805F006FE0A21AE
S315000006C0524805F002FE0A21504805F0FEFD0A21B7
S315000006D04E4805F0FAFD0A214C4805F0F6FD0A21C0
S315000006E04A4805F0F2FD0A21484805F0EEFD0A21C8
S315000006F0464805F0EAFD0A21444805F0E6FD0A21D0
S31500000700424805F0E2FD0A21404805F0DEFD0A21D7
S315000007103E4805F0DAFD0A213C4805F0D6FD0A21DF
S315000007203A4805F0D2FD0A21384805F0CEFD0A21E7
S31500000730364805F0CAFD0A21344805F0C6FD0A21EF
S31500000740324805F0C2FD0A21304805F0BEFD0A21F7
S315000007502E4805F0BAFD0A212C4805F0B6FD0A21FF
S315000007602A4805F0B2FD0A21284805F0AEFD0A2107
S31500000770264805F0AAFD0A21244805F0A6FD0A210F
S31500000780224805F0A2FD0A21204805F09EFD0A2117
S315000007901E4805F09AFD0A211C4805F096FD0A211F
S315000007A01A4805F092FD0A21184805F08EFD0A2127
S315000007B0164805F08AFD0A21144805F086FD0A212F
S315000007C0124805F082FD0A21104805F07EFD0A2137
S315000007D00E4805F07AFD0A210C4805F076FD0A213F
S315000007E00A4805F072FD0A21084805F06EFD0A2147
S315000007F0064805F06AFD0A21044805F066FD0A214F
S31500000800024805F062FD0A21004831E000B00640CA
S3150000081060F1FF1F14F0FF1F88130000A4F1FF1FF3
S315000008200CF0FF1FD1070000A41900202C050020A2
S3150000083004F1FF1F0D0A41542B46535752495445A4
S315000008403D25735C4C4F472E5458542C312C25644F
S315000008502C31300A0A0000004552524F5200000067
S315000008604552524F520D0A003E00000004F0FF1F91
S3150000087005F02BFD0A21FE4805F027FD0A21FC485C
S3150000088005F023FD0A21FA4805F01FFD0A21F84864
S3150000089005F01BFD0A21F64805F017FD0A21F4486C
S315000008A005F013FD0A21F24805F00FFD0A21F04874
S315000008B005F00BFD0A21EE4805F007FD0A21EC487C
S315000008C005F003FD0A21EA4805F0FFFC0A21E84885
S315000008D005F0FBFC0A21E64805F0F7FC0A21E4488E
S315000008E005F0F3FC0A21E24805F0EFFC0A21E04896
S315000008F005F0EBFC0A21DE4805F0E7FC0A21DC489E
S3150000090005F0E3FC0A21DA4805F0DFFC0A21D848A5
S3150000091005F0DBFC0A21D64805F0D7FC0A21D448AD
S3150000092005F0D3FC0A21D24805F0CFFC0A21D048B5
S3150000093005F0CBFC0A21CE4805F0C7FC0A21CC48BD
S3150000094005F0C3FC0A21CA4805F0BFFC0A21C848C5
S3150000095005F0BBFC0A21C64805F0B7FC0A21C448CD
S3150000096005F0B3FC0A21C24805F0AFFC0A21C048D5
S3150000097005F0ABFC0A21BE4805F0A7FC0A21BC48DD
S3150000098005F0A3FC0A21BA4805F09FFC0A21B848E5
S3150000099005F09BFC0A21B64805F097FC0A21B448ED
S315000009A005F093FC0A21B24805F08FFC0A21B048F5
S315000009B005F08BFC0A21AE4805F087FC0A21AC48FD
S315000009C005F083FC0A21AA4805F07FFC0A21A84805
S315000009D005F07BFC0A21A64805F077FC0A21A4480D
S315000009E005F073FC0A21A24805F06FFC0A21A04815
S315000009F005F06BFC0A219E4805F067FC0A219C481D
S31500000A0005F063FC0A219A4805F05FFC0A21984824
S31500000A1005F05BFC0A21964805F057FC00BF95A13E
S31500000A20964805F0BFFE002809D19549934805F080
S31500000A30B9FE002803D1934800680528EFDDFFF7CB
S31500000A40E7FC914804F0DCF8044621468E4805F0A0
S31500000A501CFFFFF7DDFC38BDF8B505460E462846F7
S31500000A6004F0CEF80746002405E0285DB04201D127
S31500000A700120F8BD641CBC42F7DD0020F9E738B55B
S31500000A808248006882A37E4A083283A1009083A030
S31500000A90FFF759FD6421894805F0F7FE884804F000
S31500000AA0AFF805460C35874804F0AAF82C182246FC
S31500000AB085A18248FFF768FC0A2075A3704A0832B0
S31500000AC08BA100907D48FFF73EFDFFF7A1FC89A0B2
S31500000AD0FFF7C1FC0020894908600BE07848874A87
S31500000AE01268815C624805F0F0FB84480068401C8F
S31500000AF082490860724804F083F880490968884290
S31500000B00ECD87FA0FFF7A7FC00207C4908600BE02B
S31500000B106C487A4A1268815C554805F0D6FB7748DE
S31500000B200068401C75490860664804F069F8734916
S31500000B3009688842ECD874A0FFF78DFC0020734941
S31500000B40086073487349086014E072480068401EE4
S31500000B50704908607D2109016E48006805F0A1FE14
S31500000B60002907D131216C4805F075FC0A2140485F
S31500000B7005F0ABFB3FA1414805F014FE002809D162
S31500000B8064480068012805DB3D493C4805F00AFE3B
S31500000B900028DAD038BDFFB583B005460F460024DD
S31500000BA0002002900026284604F02AF801900D98AD
S31500000BB004F026F8009000990D9805F064FE00BF39
S31500000BC000BF0AE0295D0C98814201D1761C02948F
S31500000BD00598864200DB514C641C01988442F1DB87
S31500000BE0002400260AE0295D0698814202D1761C7F
S31500000BF04B480460BE4200DB484C641C01988442AA
S31500000C00F1DB002407E0464800680019401C295C17
S31500000C100D980155641C424902980968401A401E05
S31500000C20A042F0DC07B0F0BDFEB5044600200290FD
S31500000C307F26F60520782D2801D1641C394E002721
S31500000C4081E020782E2801D101277BE02078054617
S31500000C50303D002D75DB092D73DC002F04D03249A1
S31500000C60304606F045FC0646284606F03BFD5EE0AB
S31500000C7000B006404F4B0D0A00000000A4F1FF1F14
S31500000C805808000014F0FF1F2C050020FCF0FF1F81
S31500000C904552524F523A00004F4B00000A41542B26
S31500000CA046534352454154453D433A5C49505F5093
S31500000CB04F52542E5458540D0A000000A419002017
S31500000CC026F1FF1F36F1FF1F0D0A41542B465357DD
S31500000CD0524954453D433A5C49505F504F52542E59
S31500000CE05458542C302C25642C31300D0A00000049
S31500000CF03E0000007C49507C0000000004F0FF1F0D
S31500000D007C504F52547C00007C0000000CF0FF1F0A
S31500000D101F4E00001CF0FF1F00A00640AC2600007E
S31500000D2008F0FF1F000080BF0000204109E0FE49D7
S31500000D300190029807F01EFD0090019907F080FCD3
S31500000D40029000BF641C2078002800D079E7314665
S31500000D50029807F00FFDFEBD00B5F44800680128B3
S31500000D6002D16320F2490870F1480078030007F0C9
S31500000D7025FC06040F1A25303B4601204007ED49A5
S31500000D808860800048602020EA494039486044E095
S31500000D9001204007E7498860800088602020E549F7
S31500000DA04039486039E001204007E2494860800048
S31500000DB088602020DF49403948602EE00120400746
S31500000DC0DC494860800048602020DA494039886064
S31500000DD023E001204007D749886080004860202032
S31500000DE0D4494039886018E001204007D14988601D
S31500000DF0800088602020CF49403988600DE00120BE
S31500000E004007CC494860800048602020C9494039E5
S31500000E1048600020C649087000BF00BF00BDC64834
S31500000E20007918210843C4490871704710B5C34CAE
S31500000E30FFF7F5FFC249C34805F027FD6421C24804
S31500000E4005F023FD6421C14805F01FFD0020C049BF
S31500000E500860C049086000BFB748007920210840F3
S31500000E6000280AD0B448C079B649B94A12688854ED
S31500000E70B7480068401CB6490860B7A1B14805F0FC
S31500000E8091FC002803D1B34800680128E4DD002066
S31500000E90AF490860AF49086000BFA7480079202124
S31500000EA0084000280AD0A448C079A849A84A126870
S31500000EB08854A7480068401CA54908602A21A34811
S31500000EC0FFF7CAFD002803D1A24800680128E4DD27
S31500000ED09B499C4805F0D9FC00209D4908609D4926
S31500000EE0086000BF944800792021084000280AD0F5
S31500000EF09148C1799348964A12688154944800688B
S31500000F00401C9349086095A18E4805F04BFC0028CB
S31500000F1003D1904800680128E4DD00208C49086070
S31500000F208C49086000BF84480079202108400028C9
S31500000F300AD08148C1798448854A12688154844818
S31500000F400068401C824908602A217F48FFF784FD1B
S31500000F50002803D17F4800680128E4DDFFF75FFF22
S31500000F6073480078401C72490870084600780528C6
S31500000F7001DD00200870FFF7EFFE10BD00B56B48DD
S31500000F800068012802D16320694908706848007822
S31500000F90030007F013FB06040D161F28313A402004
S31500000FA0644980398860802048604000486038E0A5
S31500000FB04020604980398860802088604000486011
S31500000FC02FE040205B4980394860802088604000DF
S31500000FD0486026E0402057498039486080204860B4
S31500000FE0400088601DE0402052498039886080209A
S31500000FF048604000886014E040204E49803988608F
S3150000100080208860400088600BE040204949803994
S3150000101048608020486040004860002044490870CD
S3150000102000BF00BF00BD38B50025FFF7F1F9FFF797
S31500001030EFF9FFF7EDF94A4803F0E2FD0F2821D258
S315000010400A20484B1A46083247A1009047A0FFF7EE
S315000010507AFA1421424805F018FC00240DE04748AE
S31500001060005D2F2808DD4548005D3A2804DA43482C
S31500001070005D3B4948556D1C641C404803F0C0FDAB
S31500001080A042ECD8FFF7C4F938BDF0B589B0FFF738
S31500001090CAFF0F203A49086025480078401C2449B9
S315000010A0087008460078052801DD00200870FFF763
S315000010B065FF00BF33480068334909688842F9DB99
S315000010C0FFF7B4FE00202F4908603048FFF7ACFD5B
S315000010D02F4908602F48FFF7A7FD039006F0DEF9B9
S315000010E006460F4600222C4B3046394605F02CFEAC
S315000010F00391029006F04CF808900022264B3046E9
S31500001100394605F021FE07910690089806F097F8F3
S3150000111003910290079B069A05F0FEFD04460D46D4
S3150000112000221D4B204639E000002041F8F0FF1F49
S3150000113000F0FF1F00F10F4000C006409F8601002F
S31500001140B80B0000C00C0020F80B00205C0C00203F
S3150000115060F1FF1F18F0FF1F524D43004747410043
S31500001160581A0020580800004F4B00000D0A0A0AC2
S3150000117041542B47534E0D0A00000000A4F1FF1FF7
S3150000118070F1FF1F14F1FF1F00F1FF1F40F1FF1F59
S3150000119010F1FF1F081A002000005940294606F0EA
S315000011A059F804460D460022FE4B2046294605F016
S315000011B0CBFD03910290089806F041F8019100904A
S315000011C0039B029A05F090FD059104900F21F648C5
S315000011D005F05BFBF5A1F448059B049AFFF7D4F8EC
S315000011E0F348FFF721FD039006F058F906460F462F
S315000011F00022F04B3046394605F0A6FD03910290D9
S3150000120005F0C6FF08900022EA4B3046394605F045
S315000012109BFD07910690089806F011F8039102903D
S31500001220079B069A05F078FD04460D460022E14B21
S315000012302046294606F00EF804460D460022D94BF4
S315000012402046294605F080FD03910290089805F096
S31500001250F6FF01910090039B029A05F045FD05916A
S3150000126004900F21D24805F010FBD0A1D048059B71
S31500001270049AFFF789F8D049D04803F0D1FCD0A1F1
S31500001280CE4803F0CDFCCFA1CC4803F0C9FCCF4932
S31500001290CA4803F0C5FCCEA1C84803F0C1FCCF493B
S315000012A0C64803F0BDFC09B0F0BDFFB587B01546D2
S315000012B01E460120059000200490C94803F0A0FCBA
S315000012C00690C748069905F0E0FA0020C54908606F
S315000012D0C54FFFF79DF8C54803900798FFF7BBF881
S315000012E000BF7F1E0398401E0390BD48089905F075
S315000012F059FA01902946BA4805F054FA0090314649
S31500001300B74805F04FFA04460198002806D1009820
S31500001310002803D1002C01D1012F01DC012000E0BF
S315000013200020029002980028DBD0FFF771F8AC4845
S315000013300BB0F0BD38B504466421AD4805F0A5FAFA
S31500001340AC4AADA1AA48FFF71FF8AF480068AF4BFB
S31500001350AF4AB0A10090A648FFF7A7FFADA1A048ED
S3150000136005F020FA002831D00020AB4908600CE0D7
S31500001370A9480068215CA94804F0A7FFFFF748F8D0
S31500001380A5480068401CA4490860204603F038FCC4
S31500001390A14909688842EBD81A21A04804F095FFB4
S315000013A000209049086090489D49086004E09C48E8
S315000013B00068401E9A4908609AA1894805F0F2F92A
S315000013C0002803D1964800680128F0DA38BD10B528
S315000013D001460020002206E00A2343438C5C1B19C9
S315000013E018463038521C8B5C002BF5D110BD38B531
S315000013F085480068854B864A8CA100908CA0FFF733
S31500001400A2F864217A4805F040FA914803F0F8FB07
S3150000141004460B3422468FA17548FEF7B5FF0A2015
S315000014207A4B7B4A7BA100907148FFF78CF893A01A
S31500001430FFF711F80020784908600BE08448764AE7
S315000014401268815C754804F040FF73480068401CD0
S31500001450714908607E4803F0D3FB6F4909688842EA
S31500001460ECD889A0FEF7F7FF00205E4908608748A0
S315000014708749086010E086480068401E8449086075
S315000014807D2109018248006805F00BFA002903D185
S315000014900A21624804F019FF5C491C39504805F0DE
S315000014A081F900280AD17A480068012806DB5849E4
S315000014B008394B4805F076F90028DCD038BDFFB571
S315000014C081B005461F4600240020009000260A2011
S315000014D0FEF7ADFF0F21384605F0D5F900BF00BF76
S315000014E00AE0285D222801D1761C009403988642E2
S315000014F001DBE124A400641C642CF2DB002400263A
S315000015000BE0285D222802D1761C6248046002980E
S31500001510864201DBE124A400641C642CF1DB002478
S3150000152006E05C4800680019401C285C3855641CBD
S31500001530584900980968401A401EA042F1DC05B0DF
S31500001540F0BDF0B58FB054480078012828D10020AE
S31500001550524908608020524988607D20C000FEF70D
S3150000156066FF29480068294B294A19461C3900900C
S315000015704CA0FEF7E8FF24480068244B244A19468D
S315000015801C39009049A0FEF7DEFF7D20C000FEF763
S315000015904EFF1D4800681D4B1D4A19461C398BE03D
S315000015A0FDE3000000004E40081A002025660000FA
S315000015B01C1A002000005940581A00202C05002053
S315000015C02C2000002447784747410000F80B0020F4
S315000015D02C20244778524D43000000005C0C00206C
S315000015E0A4F1FF1F0CF0FF1F9F860100D10700002A
S315000015F0A4190020080B00200A41542B434D4753E1
S315000016003D222573220D0A00FCF0FF1F900C0000FE
S31500001610600800003E00000004F0FF1F00B0064016
S315000016204CF1FF1F2B434D47533A00004F4B000030
S315000016300A41542B46534352454154453D433A5C77
S31500001640494E54455256414C2E5458540D0A0000EA
S3150000165045F1FF1F0D0A41542B4653575249544535
S315000016603D433A5C494E54455256414C2E545854CB
S315000016702C302C25642C31300D0A00007C494E5448
S31500001680455256414C7C00007C0000001F4E000075
S315000016901CF0FF1F08F0FF1F6DF1FF1FF8F0FF1F82
S315000016A0C0F00F400A0A41540D0A00000A0A4154CC
S315000016B02B4753560D0A00000090FBA0FEF743FF90
S315000016C0FD480068FD4BFE4A19461C390090FDA0F6
S315000016D0FEF739FFF8480068F84B1C3BF84A083A11
S315000016E019460090FBA0FEF72EFFFEF791FEFD4B7C
S315000016F004220321FC48FFF7E2FEFCA1FA4805F0AC
S3150000170051F80546FBA1F84805F04CF80646FCA141
S31500001710F54805F047F80746FCA1F34805F042F8FE
S315000017200E90FCA1F04805F03DF80D90FBA1EE48A7
S3150000173005F038F80C90FBA1EB4805F033F80B9058
S31500001740FAA1E94805F02EF80A90FAA1E64805F054
S3150000175029F80990F9A1E44805F024F80890F8A1C1
S31500001760E14805F01FF80790F7A1DF4805F01AF8E1
S315000017700690F8A1DC4805F015F80590F8A1DA48BE
S3150000178005F010F80446002D24D0002E22D0F8488B
S3150000179003F036FA01460490F54805F076F8F54868
S315000017A02521F54AF54B00930192029103900346D9
S315000017B0F349EF48FEF7E8FDED48FFF7BBFDBE48ED
S315000017C00068BE4BBE4A19461C390090EDA0FEF7D4
S315000017D0BAFE0AE3002F23D06421EE4805F055F83F
S315000017E00521ED4805F04FF8EB480D212023052291
S315000017F0009101900321BC48FFF7CDF9E648FFF7B9
S31500001800E6FDE6490860FFF7F2FDAB480068AB4B22
S31500001810AB4A19461C390090DAA0FEF794FEE4E2C2
S315000018200E98002852D0A4480068A44BA44ADCA114
S31500001830009018460C30FEF786FE9F4800689F4BC6
S315000018409F4AD7A10090D7A0FEF77DFE9A48006870
S315000018509A4B9B4AD2A10090D9A0FEF774FE9648F7
S315000018600068964B964ACEA10090DC48FEF76BFEC8
S315000018700D22DBA1DE4804F0A9FFDE48DEA10A88BE
S31500001880028049884180C448DDA109780170FFF7CC
S31500001890F6F8FFF7ACFDC048FFF799FDBF490860B1
S315000018A085480068854B864A19461C390090B5A0C4
S315000018B0FEF749FED348006820210B46042200911A
S315000018C0019003218848FFF766F98EE20D980028FB
S315000018D02BD06421AF4804F0D8FF0F21CA4804F08A
S315000018E0D2FFC9480D212023052200910190032132
S315000018F07D48FFF750F9C44AC4A1A648FEF744FD47
S315000019006D4800686D4B6E4A19461C390090A14817
S31500001910FEF719FE68480068684B694A19461C3983
S31500001920009098A0FEF70FFE5FE20C9800282BD0DF
S315000019306421984804F0A9FF0F21B34804F0A3FFDF
S31500001940B1480D212023052200910190032166480C
S31500001950FFF721F9AC4AB5A18E48FEF715FD5648AA
S315000019600068564B564A19461C3900908948FEF7BE
S31500001970EAFD51480068514B514A19461C390090FE
S3150000198080A0FEF7E0FD30E20B9800282BD0642102
S31500001990804804F07AFF0F219B4804F074FF9A48B0
S315000019A00D21202305220091019003214E48FFF7C7
S315000019B0F2F8954AA5A17748FEF7E6FC3E4800688E
S315000019C03E4B3F4A19461C3900907248FEF7BBFD54
S315000019D039480068394B3A4A19461C39009069A0C3
S315000019E0FEF7B1FD01E20A9800285BD06421694840
S315000019F004F04BFF00209D4908604EE09B480068BC
S31500001A00401E3949085C202842D198480068801E4B
S31500001A10085C47283CD195480068C01E085C5528DC
S31500001A2036D192480068001F085C422830D18F48A2
S31500001A300068401F085C45282AD18C480068801F32
S31500001A40085C442824D100208949086011E0264812
S31500001A5086490968405C4F49854A1268885483481C
S31500001A600068401C8149086081480068401C804924
S31500001A7008607F4800686428E9DB0D21454A7C48F8
S31500001A800068401C11540A2179480068801C1154D2
S31500001A9076480068401C7549086074480068FF2154
S31500001AA0C331E7E00EE100000A0A41542B434D47DB
S31500001AB0463D310A0A000000FCF0FF1F900C0000B2
S31500001AC0600800000A0A41542B435343413F0D0A64
S31500001AD0000000000D0A41542B434D47523D310D85
S31500001AE00A000000080B0020A4F1FF1F4F574E45C7
S31500001AF0520000004C4F434154494F4E0000000035
S31500001B00494E54455256414C000000005354415230
S31500001B10540000004F574E45523100004F574E4576
S31500001B20523200004F574E4552330000444542554D
S31500001B30470000005245534554000000495000003C
S31500001B404655454C204F4E004655454C204F46467F
S31500001B500000000049474E4954494F4E204F4E0061
S31500001B6049474E4954494F4E204F46460000000013
S31500001B70781800201C1A0020081A002040F1FF1FC8
S31500001B80E88C00000D0A41542B434D47443D312C4F
S31500001B90340D0A00A419002045F1FF1F00F1FF1FB4
S31500001BA04F4B00000A41542B46534352454154457E
S31500001BB03D443A5C4C4F472E5458540D0A000000E1
S31500001BC00A41542B46534352454154453D433A5CE2
S31500001BD04C4F472E5458540D0A0000003016000092
S31500001BE03130342E3233362E3230332E340000006C
S31500001BF026F1FF1F36F1FF1F353535350000000091
S31500001C00310000000CF1FF1F3F1A00200D0A41545D
S31500001C102B435042573D312C222573222C31323929
S31500001C202C224F574E455231220D0A000D0A4154BF
S31500001C302B435042573D322C222573222C31323908
S31500001C402C224F574E455232220D0A000D0A41549E
S31500001C502B435042573D332C222573222C313239E7
S31500001C602C224F574E455233220D0A0004F0FF1F17
S31500001C7060F1FF1F884200DAC0E6FE480068FE4BAE
S31500001C80FE4A19461C390090FD48FEF75CFCF948EF
S31500001C900068F94BF94A19461C390090F948FEF7D5
S31500001CA052FCF94802F0ACFF01460490F64804F0F5
S31500001CB0ECFDF64AF6A1F448FEF766FBF248FFF79C
S31500001CC039FB92E0099800282CD0EA480068EA4BD4
S31500001CD0EA4A19461C390090E948FEF734FCEDA1A2
S31500001CE0ED4802F09DFFFFF7D0F9ECA1EA4802F0BB
S31500001CF097FFFEF793FC2020E94988600A20FEF74B
S31500001D0096FB2020E64948600A20FEF790FBD9485A
S31500001D100068D94BD94A19461C390090E1A0FEF754
S31500001D2012FC62E00898002824D01021E24804F052
S31500001D30AAFDE14820210B460422009101900321CF
S31500001D40D248FEF728FFDD480D2120230522009109
S31500001D5001900621CD48FEF71EFFFEF790FEC5480E
S31500001D600068C54BC54A19461C390090C448FEF7A1
S31500001D70EAFB3AE00598002816D00220C8498039C7
S31500001D808860FEF745FB7D20C000FEF750FBB94892
S31500001D900068B94BB94A19461C39009000E037E093
S31500001DA0C7A0FEF7D0FB20E0002C14D00220BC49CF
S31500001DB080394860FEF72CFB7D20C000FEF737FB1C
S31500001DC0AC480068AC4BAD4A19461C390090BCA023
S31500001DD0FEF7B9FB09E0A7480068A74BA74A1946D2
S31500001DE01C390090BCA0FEF7AEFB0020BF4908706E
S31500001DF0FEF70EFB9F4800689F4BA04A083ABCA11D
S31500001E000090BCA0FEF79FFB7D20C000FEF70FFBF5
S31500001E100FB0F0BDF0B589B00F20BB490860BB48D4
S31500001E200078401CB949087008460078052801DD8D
S31500001E3000200870FFF7A2F800BFB5480068B54952
S31500001E4009688842F9DBFEF7F1FF0020B049086017
S31500001E50B148FEF7E9FEB1490860B148FEF7E4FE75
S31500001E60039005F01BFB06460F460022AD4B30469D
S31500001E70394604F069FF0391029005F089F908904C
S31500001E800022A84B3046394604F05EFF07910690C3
S31500001E90089805F0D4F903910290079B069A04F07E
S31500001EA03BFF04460D4600229E4B2046294605F080
S31500001EB0D1F904460D4600229B4B2046294604F0E4
S31500001EC043FF03910290089805F0B9F9019100903B
S31500001ED0039B029A04F008FF059104900F21904895
S31500001EE004F0D3FC91A18E48059B049AFEF74CFAA8
S31500001EF08F48FEF799FE039005F0D0FA06460F4686
S31500001F000022884B3046394604F01EFF03910290AA
S31500001F1005F03EF908900022824B3046394604F01F
S31500001F2013FF07910690089805F089F9039102902E
S31500001F30079B069A04F0F0FE04460D460022794BF4
S31500001F402046294605F086F904460D460022764BC2
S31500001F502046294604F0F8FE03910290089805F001
S31500001F606EF901910090039B029A04F0BDFE059163
S31500001F7004900F216E4804F088FC6CA16C48059B08
S31500001F80049AFEF701FA6B49434802F049FE6AA13A
S31500001F90414802F045FE69493F4802F041FE684962
S31500001FA03D4802F03DFE65490C313B4802F038FEE3
S31500001FB06449394802F034FE09B0F0BD38B5FFF780
S31500001FC032F8FFF7BEFA05202C4B083B2B4A48A1F6
S31500001FD000905DA0FEF7B7FA45A12C4804F0E2FB9D
S31500001FE0044626490839294804F0DCFB05466420E6
S31500001FF0FEF71DFA0420214B083B57A23CA1009096
S315000020005AA0FEF7A0FAFFF705FF24A1224802F026
S3150000201007FEFFF7FFFE21A11F4802F001FEFFF7B2
S31500002020F9FE1EA11C4802F0FBFD0420124B134AC8
S315000020302FA1009051A0FEF786FAFFF7EBFE17A13D
S31500002040154802F0EDFD0B4800680B4B0B4A28A122
S3150000205000904EA0FEF777FAFFF773FA052050A31B
S31500002060064A23A1009050A0FEF76DFAFFF7D2FEB4
S315000020700AA1A1E0FCF0FF1F900C00006008000020
S31500002080841B0000A419002078180020A4F1FF1F6B
S31500002090257300000A0000002C05002043480A00B2
S315000020A080F00F400A0A2041542B4346554E3D31DD
S315000020B02C310D0A0000000026F1FF1F36F1FF1F2C
S315000020C00D0D0A41542B434D47443D312C340D0A26
S315000020D00A0A0A0A000000000D0A2041542B434D4B
S315000020E047443D312C340D0A000000006DF1FF1FFE
S315000020F04F4B00000D0A2041542B434D47443D31C0
S315000021002C340D0A0D0A000070F1FF1F00F0FF1FAE
S3150000211014F1FF1F00F1FF1F40F1FF1F10F1FF1F19
S31500002120081A00200000594000004E4025660000B5
S315000021301C1A0020581A00202C200000C41500008C
S31500002140F80B00205C0C00200D0A41542B43465529
S315000021504E3D300D0D0A0A004E4F5420494E534550
S31500002160525445440D0A4F4B000000000D0A4154DD
S315000021702B4346554E3D310D0A0000000D0A4154D1
S315000021802B434950534855540D0A00000D0A41543B
S315000021902B435354543D22777777220D0A000000D3
S315000021A044454143540000000D0A41542B4349491C
S315000021B043520D0D0A000000F44802F031FDFFF70E
S315000021C0C0F9FFF727FEF249F04802F029FDFEF7B5
S315000021D01FF9F0A0FEF73FF9FEF71AF91420FEF7F3
S315000021E026F9FFF7AEF9EF4BEF4AF0A1F748FEF7F5
S315000021F0CBF8F7480068F74BF74AF8A10090F34888
S31500002200FEF7A1F9FEF704F9F1480068F5A3F24AD2
S31500002210F8A10090F8A0FEF796F9002038BD30B579
S3150000222003460C461946184615E00D780570491CFC
S315000022300578A5420DD0057895420AD00578202D5F
S3150000224007D005782F2D04D005783A2D01D0012529
S3150000225000E0002528180D78002DE6D1057030BD68
S31500002260F8B505460E460027002407E0285D0A2833
S3150000227003D1B74201DA7F1C0094641C284602F0A1
S31500002280BFFCA042F2D80098F8BDF8B506460C4649
S315000022900027002504E0605DB04200D17F1C6D1C64
S315000022A0204602F0ADFCA842F5D83846F8BDF0B598
S315000022B08DB000200A90099004900390801E0B9028
S315000022C06421C24804F0E1FACF4AD0A1BF48FEF724
S315000022D05BF8BF480068BF4BBF4A0832D2A10090E6
S315000022E0BA48FEF730F9D1480D2120230322009188
S315000022F001900121CE48FEF74EFCCC48FEF794FC37
S315000023000C9000210C9806F0E1F901D1C94C00E0CF
S315000023100024C9490C9805F0EBF87F21C905019006
S3150000232006F08EF9029005F093F90B9000200A90C2
S315000023309DE2FEF778FE954802F062FC01460290A7
S31500002340924804F0A2FAFEF7A0FEB6A18F4802F06A
S3150000235067FC64219D4804F098FAAB4AABA19B4800
S31500002360FEF712F89A4800689A4B9B4A0832AEA1CB
S3150000237000909648FEF7E7F8AC480D21202303228B
S31500002380009101900121AA48FEF705FCA748FEF737
S315000023904BFC0C90A8490C9805F0AAF80121890776
S315000023A0019006F04DF9029005F052F90B90964A0D
S315000023B0A2A186480A9BFDF7E7FF0520854B864AC2
S315000023C0083299A100908148FEF7BDF898490A2085
S315000023D0FFF75BFF0390039EAF21C900A04804F0FE
S315000023E054FA9F480A21B21E0B4600910190012122
S315000023F08F48FEF7D0FB8BA1994802F011FC634988
S31500002400974802F00DFC8A4802F0FAFB0546294679
S31500002410874804F03AFA6E48006870A36E4A75A1C0
S31500002420009075A0FEF78FF83E218148FEF714FB59
S3150000243008900898002879D0FDF7EAFF89497C487A
S3150000244004F023FA864802F0DBFB054600208649A5
S31500002450086086490860864908600BE08048844A1F
S315000024601268815C834803F030FF81480068401C95
S315000024707F4908607E480068A842EFDB1A217D4844
S3150000248003F023FF1A217B4803F01FFF00BF7AA148
S31500002490674804F087F907464F49654804F082F912
S315000024A0079052A1624804F07DF90690744960488D
S315000024B004F078F90590002F0CD10798002809D16F
S315000024C00698002806D10598002803D166480068BA
S315000024D00528DCDD0A20FDF7AAFFFDF799FF1A2182
S315000024E0644803F0F2FE0A20FDF7A1FF1A216148B5
S315000024F003F0EBFE1A215F4803F0E7FE1A215D4860
S3150000250003F0E3FE3220FDF792FF5BA1484804F09A
S3150000251049F900280BD0F11E5148FFF7A1FE09909A
S3150000252009990A9840180A90641CA0E10EE10A2253
S3150000253011461648FFF773FE1549144802F070FB62
S31500002540FEF76CF8114802F05BFB014602900F485B
S3150000255004F09BF9FFF732FD3E213548FEF77CFA81
S31500002560002811D0FDF754FF3E49314804F08DF99B
S31500002570064802F045FB054600203B4908603B49FA
S3150000258008603B49086089E0DDE000002C0500207A
S315000025909C2000000A41542B43494653520D0D0A14
S315000025A00000000036F1FF1F26F1FF1F0D0A4154FF
S315000025B02B43495053544152543D22544350222CEC
S315000025C0222573222C222573220D0A00A41900202D
S315000025D0FCF0FF1F900C000058080000434F4E4EC1
S315000025E045435400434F4E4E454354204641494CC3
S315000025F0000000003E0000000D0A41542B434950E4
S3150000260053454E440D0A000004F1FF1F0A41542BA6
S315000026104653464C53495A453D25735C4C4F472E0D
S315000026205458540D0A0000004F4B0000301A002089
S31500002630A4F1FF1F7F969800008089440A41542B1D
S315000026404653524541443D25735C4C4F472E5458E2
S31500002650542C312C313130302C25640D0A00000009
S315000026606C1A00208813000014F0FF1F0CF0FF1FE7
S3150000267004F0FF1F00B0064053454E44204F4B0068
S31500002680A0210000FD48FE4A1268815CFD4803F067
S315000026901CFEFB480068401CF9490860F8480068C1
S315000026A0A842EFDB1A21F74803F00FFE1A21F5487E
S315000026B003F00BFE00BFF449F44804F073F8074634
S315000026C0F349F24804F06EF80790EF498C39EF4869
S315000026D004F068F80690EF49EC4804F063F80590BA
S315000026E0002F0CD10798002809D10698002806D19A
S315000026F00598002803D1E84800680528DBDD0A2094
S31500002700FDF795FEFDF784FE1A21DE4803F0DDFD98
S315000027100A20FDF78CFE1A21DA4803F0D6FD1A21AD
S31500002720D84803F0D2FD1A21D64803F0CEFD142076
S31500002730FDF77DFED449D54804F034F8002801D1D0
S31500002740FDF76CFF93E0FDF769FF90E00A22114662
S31500002750CA48FFF764FDD149C84802F061FAFDF79F
S315000027605DFFC64802F04CFA01460290C34804F0E9
S315000027708CF8FFF723FC3E21C448FEF76DF90028CC
S3150000278073D0FDF745FEC649C04804F07EF8BB4845
S3150000279002F036FA05460020BF490860C1490860C4
S315000027A0B74908600BE0B548B54A1268815CB54880
S315000027B003F08BFDB2480068401CB1490860B04880
S315000027C00068A842EFDB1A21AE4803F07EFD1A210D
S315000027D0AC4803F07AFD00BFAB49AC4803F0E2FF1A
S315000027E00746AB49A94803F0DDFF0790A6498C3997
S315000027F0A64803F0D7FF0690A649A44803F0D2FFE7
S315000028000590002F0CD10798002809D106980028BA
S3150000281006D10598002803D19F4800680528DBDD0E
S315000028200A20FDF704FEFDF7F3FD1A21954803F093
S315000028304CFD0A20FDF7FBFD1A21924803F045FDE9
S315000028401A21904803F041FD1A218E4803F03DFD00
S315000028501420FDF7ECFD8C498C4803F0A3FF0028FB
S3150000286005D1FDF7DBFE02E0FFE7FDF7D7FE0B988B
S31500002870844200DC5DE50B98002815D08A48844226
S3150000288012D06421894804F000F8894A89A1874852
S31500002890FDF77AFD8E4800688E4B7D4A08328EA180
S315000028A000908248FDF74FFE0DB0F0BDF0B585B043
S315000028B0204602F0A5F901460090204603F0E3FF0A
S315000028C0384602F09DF901460090384603F0DBFFDA
S315000028D03E216E48FEF7C0F803900398002874D096
S315000028E0FDF796FD6E49694803F0CFFF7BA163486B
S315000028F002F096F9614802F083F905460020664920
S315000029000860684908605E4908600BE05B485C4AFD
S315000029101268815C5B4803F0D8FC59480068401C8B
S315000029205749086056480068A842EFDB1A21554807
S3150000293003F0CBFC1A21534803F0C7FC00BF5249F1
S31500002940524803F02FFF04465149504803F02AFF2E
S3150000295002904D498C394D4803F024FF01904D49B2
S315000029604A4803F01FFF0646029800280AD101983C
S31500002970002807D1002E05D1002C03D14648006857
S315000029800528DCDD1A213F4803F09FFC1A213D484B
S3150000299003F09BFC1A213B4803F097FC1A213948A7
S315000029A003F093FC4E480068012806D14D480068A4
S315000029B04D49086000204A4908601420FDF737FD9C
S315000029C03149324803F0EEFE0446002C54D11A2158
S315000029D02C4803F07AFCFDF71BFD0A20FDF727FDC6
S315000029E01A21284803F071FCFDF712FD0A20FDF7B5
S315000029F01EFD1A21234803F068FCFDF709FD0A2095
S31500002A00FDF715FD0A2211461C48FFF708FC23496D
S31500002A101A4802F005F9FDF701FE184802F0F0F831
S31500002A2001460090154803F030FF2D480068012844
S31500002A3009D02D4800682B49086004202A490860FF
S31500002A40012027490860FEF7EEFAFDF7E1FCFEF7E4
S31500002A501CFB1249094802F0E3F8FFF7AFFAFDF74D
S31500002A60D7FC3E210948FDF7F7FF0390039800289D
S31500002A707ED0FDF7CDFC39E0ADE000002C0500204E
S31500002A8004F0FF1F00B0064078260000A4F1FF1FE7
S31500002A9058080000A021000014F0FF1F9C20000031
S31500002AA0881300000CF0FF1F7F969800A4190020E1
S31500002AB004F1FF1F0A41542B4653435245415445E6
S31500002AC03D25735C4C4F472E5458540D0A000000A8
S31500002AD0FCF0FF1F900C00004F4B00000A0A00009C
S31500002AE024F0FF1F20F0FF1F00F1FF1FFD49FE48E5
S31500002AF003F0CBFEFDA1FE4802F092F8FC4802F07E
S31500002B007FF805460020FB490860FB490860FB4941
S31500002B1008600BE0F648F94A1268815CF84803F051
S31500002B20D4FBF6480068401CF4490860F348006886
S31500002B30A842EFDB1A21F24803F0C7FB1A21F0483E
S31500002B4003F0C3FB00BFEF49E74803F02BFE044642
S31500002B50ED49E54803F026FE0290EA498C39E24841
S31500002B6003F020FE0190E949DF4803F01BFE00E078
S31500002B702EE00646029800280AD10198002807D1BF
S31500002B80002E05D1002C03D1DA4800680528DADDCD
S31500002B901A21DB4803F099FB1A21D94803F095FB6B
S31500002BA01A21D74803F091FB1A21D54803F08DFB73
S31500002BB01420FDF73CFCD349CB4803F0F3FD074650
S31500002BC0002F02D1FDF72AFD07E0FFF770FB04E0B6
S31500002BD0FDF724FD01E0FFF76AFBC54802F010F897
S31500002BE001460090C24803F050FE1A21C44803F083
S31500002BF06CFB05B0F0BDF0B585B0204602F000F8DC
S31500002C0001460090204603F03EFE384601F0F8FFEC
S31500002C1001460090384603F036FE3E21B248FDF7E5
S31500002C201BFF03900398002874D0FDF7F1FBAD4914
S31500002C30AD4803F02AFEB6A1AD4801F0F1FFAC485D
S31500002C4001F0DEFF05460020AA490860AA4908608F
S31500002C50AA4908600BE0A648A84A1268815CA84801
S31500002C6003F033FBA5480068401CA4490860A3484C
S31500002C700068A842EFDB1A21A14803F026FB1A21BF
S31500002C809F4803F022FB00BF9E49974803F08AFD48
S31500002C9004469D49944803F085FD029099498C3974
S31500002CA0914803F07FFD019098498F4803F07AFD23
S31500002CB00646029800280AD10198002807D1002E5E
S31500002CC005D1002C03D18B4800680528DCDD1A21CC
S31500002CD08B4803F0FAFA1A21894803F0F6FA1A210A
S31500002CE0874803F0F2FA1A21854803F0EEFA89487C
S31500002CF00068012806D188480068884908600020D5
S31500002D00844908601420FDF792FB7E49764803F05B
S31500002D1049FD0446002C7DD11A21794803F0D5FAE5
S31500002D20FDF776FB0A20FDF782FB1A21744803F0B3
S31500002D30CCFAFDF76DFB0A20FDF779FB1A217048E6
S31500002D4003F0C3FAFDF764FB0A20FDF770FBFDF7FD
S31500002D5065FC674801F054FF01460090644803F0A3
S31500002D6094FD6C480068012809D06C4800686A49DF
S31500002D700860042069490860012066490860FEF77A
S31500002D8052F9FDF745FBFEF780F96549584801F011
S31500002D9047FFFFF713F9FDF73BFB3E215248FDF7CE
S31500002DA05BFE03900398002874D0FDF731FB4D4974
S31500002DB04D4803F06AFD4DA14D4801F031FF4C48E6
S31500002DC001F01EFF054600204A4908604A4908608E
S31500002DD04A4908600BE04648484A1268815C484800
S31500002DE003F073FA45480068401C444908604348AC
S31500002DF00068A842EFDB1A21414803F066FA1A215F
S31500002E003F4803F062FA00BF3E49374803F0CAFC68
S31500002E10044600E041E03C49334803F0C3FC02901D
S31500002E2038498C39304803F0BDFC019037492E48AB
S31500002E3003F0B8FC0646029800280AD1019800283B
S31500002E4007D1002E05D1002C03D12A480068052899
S31500002E50DADD1A212A4803F038FA1A21284803F045
S31500002E6034FA1A21264803F030FA1A21244803F0CE
S31500002E702CFA1420FDF7DBFA22491B4803F092FCDA
S31500002E800746002F03D1FDF7C9FB08E002E0FFF774
S31500002E900EFA04E0FDF7C2FB01E0FFF708FA14485A
S31500002EA001F0AEFE01460090114803F0EEFC1A2137
S31500002EB0134803F00AFA05B0F0BDF0B587B0204616
S31500002EC001F09EFE01460190204603F0DCFC3846E8
S31500002ED001F096FE01460190384603F0D4FC3E21EF
S31500002EE001481FE088130000A4F1FF1F0A0000003C
S31500002EF02C05002014F0FF1F0CF0FF1F04F0FF1F2D
S31500002F0000B006407826000058080000A021000006
S31500002F100A0A000024F0FF1F20F0FF1F00F1FF1F28
S31500002F209C200000FDF798FD04900498002870D0BE
S31500002F30FDF76EFAF849F94803F0A7FCF8A1F9483D
S31500002F4001F06EFEF74801F05BFE05460020F649EB
S31500002F500860F6490860F64908600BE0F148F44A53
S31500002F601268815CF34803F0B0F9F1480068401C30
S31500002F70EF490860EE480068A842EFDB1A21ED48E9
S31500002F8003F0A3F900BFEC49E44803F00BFC044648
S31500002F90EA49E24803F006FC0390E7498C39DF482A
S31500002FA003F000FC0290E649DC4803F0FBFB064612
S31500002FB0039800280AD10298002807D1002E05D1CF
S31500002FC0002C03D1D84800680428DCDD1A21D94832
S31500002FD003F07BF91A21D74803F077F91A21D5486F
S31500002FE003F073F91A21D34803F06FF9D548006846
S31500002FF0012806D1D4480068D44908600020D14988
S3150000300008603220FDF713FACB49C44803F0CAFB27
S315000030100446002C7ED11A21C64803F056F9FDF766
S31500003020F7F90A20FDF703FA1A21C24803F04DF911
S31500003030FDF7EEF90A20FDF7FAF91A21BD4803F06B
S3150000304044F9FDF7E5F90A20FDF7F1F9FDF7E6FA8F
S31500003050B44801F0D5FD01460190B24803F015FCD5
S31500003060FEF713F8BA49AF4801F0DAFDB548006833
S31500003070012809D0B5480068B34908600420B3495F
S3150000308008600120AF490860FDF7CDFFFDF7C0F9E4
S31500003090FEF794FFFDF7BCF93E21A048FDF7DCFCE6
S315000030A00490049800287DD0FDF7B2F99A499B4810
S315000030B003F0EBFB9AA19B4801F0B2FD994801F0A1
S315000030C09FFD054600209849086098490860984980
S315000030D008600BE09348964A1268815C954803F0B5
S315000030E0F4F893480068401C9149086090480068CD
S315000030F0A842EFDB1A218F4803F0E7F800BF8E499C
S31500003100864803F04FFB04468C49844803F04AFB8B
S31500003110039000E066E088498C39804803F042FB62
S31500003120029087497D4803F03DFB06460398002838
S315000031300AD10298002807D1002E05D1002C03D110
S31500003140794800680428DADD0A20FDF770F9FDF7F2
S315000031505FF91A21774803F0B8F80A20FDF767F9F6
S315000031601A21744803F0B1F81A21724803F0ADF839
S315000031701A21704803F0A9F81A216E4803F0A5F841
S31500003180FDF746F90A20FDF752F91A21694803F0BE
S315000031909CF8FDF73DF90A20FDF749F95F4801F073
S315000031A02FFD00E019E006901A21624803F08DF821
S315000031B0FDF72EF90A20FDF73AF93220FDF737F927
S315000031C05D49564803F0EEFA0746002F02D1FDF797
S315000031D025FA09E0FFF76BF806E0FDF71FFA012074
S315000031E0059001E0FFF763F84E4801F009FD01463E
S315000031F001904C4803F049FB1A214E4803F065F84C
S3150000320007B0F0BD38B553480068534B4B4A0832F7
S3150000321052A1009052A0FDF796F96421574803F099
S3150000322034FB5748006801F0EBFCC41C224655A14C
S315000032305248FDF7A9F80A20474B404A08325AA1DE
S3150000324000904E48FDF77FF958A0FDF704F90020DD
S31500003250374908600CE04A480068354A1268815CC4
S31500003260344803F032F832480068401C30490860A0
S315000032704348006801F0C4FC2D4909688842EAD831
S315000032804AA0FDF7E8F8002028490860484849495F
S31500003290086010E047480068401E464908607D21E6
S315000032A009014448006803F0FCFA002903D10A2109
S315000032B0204803F00AF828491C39184803F072FA26
S315000032C0002809D13B480068012805DB1B49134843
S315000032D003F068FA0028DDD038BD1CB56421274804
S315000032E003F0D3FA34A12548FDF74EF80A201A4B0D
S315000032F0124A083219A100902048FDF724F9204807
S3150000330000687C210B4602220091019001210348AE
S31500003310FDF741FC1CBD000088130000A4F1FF1F4F
S315000033200A0000002C05002014F0FF1F0CF0FF1F00
S3150000333004F0FF1F00B00640782600005808000081
S31500003340A021000024F0FF1F20F0FF1F00F1FF1F47
S315000033509C200000FCF0FF1F900C00004F4B00006B
S315000033600A41542B46534352454154453D433A5C2A
S3150000337041504E2E5458540D0A000000A419002046
S315000033800CF1FF1F0D0A41542B4653575249544521
S315000033903D433A5C41504E2E5458542C302C2564F3
S315000033A02C31300D0A0000003E0000007C000000B9
S315000033B01F4E00001CF0FF1F0A41542B4653524576
S315000033C041443D433A5C41504E2E5458542C302CC7
S315000033D03130302C310D0A001CB56421F54803F05C
S315000033E054FAF5A1F348FCF7CFFF0A20FB4BFC4A41
S315000033F0FCA10090EF48FDF7A6F8FB487C210B46A0
S315000034000322009101900221F848FDF7C4FBF84819
S315000034107C210B460522009101900421F348FDF71B
S31500003420BAFB1CBD1CB56421E24803F02EFAF1A1DB
S31500003430E048FCF7A9FF0A20E84BE94AE9A1009019
S31500003440DC48FDF780F8F5487C210B460322009105
S3150000345001900221E548FDF79EFBF048FDF7B7FF16
S31500003460EF4908601CBDFEB53E21E048FDF7F4FAC1
S3150000347002900298002870D0FCF7CAFFE949DB48A1
S3150000348003F003FAE8A1E94801F0CAFBE74801F0B6
S31500003490B7FB04460020E6490860E6490860E649AD
S315000034A008600BE0E148E44A1268815CE34802F0F8
S315000034B00CFFE1480068401CDF490860DE480068F0
S315000034C0A042EFDB1A21DD4802F0FFFE1A21DB489D
S315000034D002F0FBFE1A21D94802F0F7FE00BFBF49F1
S315000034E01C39C24803F05EF90746BD490839BF4892
S315000034F003F058F90190D249BC4803F053F9009003
S31500003500D049BA4803F04EF90646019800280AD178
S315000035100098002807D1002E05D1002F03D1C448FA
S3150000352000680A28DBDD0A20FCF781FFFCF770FF44
S315000035301A21C24802F0C9FE0A20FCF778FF1A21B8
S31500003540BE4802F0C2FE1A21BC4802F0BEFE1A2195
S31500003550BA4802F0BAFE01E0FFE700BFA1A1A34806
S3150000356003F020F90546002D01D1FDF757F8FEBD01
S3150000357070B504460D4616460020AF490860B248AD
S315000035800068B249086000BFAC4802F0ABFE0028F4
S3150000359018D0AA48C079AE49A74A12688854A648E6
S315000035A00068401CA4490860A7480068A74908604D
S315000035B0A1480068FF212B31884209DD00209E4981
S315000035C0086005E0A1480068401EA049086000BFE9
S315000035D082491C399E4803F0E5F800280FD180493E
S315000035E09B4803F0DFF8002809D1984800680028B6
S315000035F005DD7A49964803F0D5F80028C4D070BD99
S31500003600F8B504460E4615461F4600208A4908604E
S315000036108D4800688D49086000BF8E4802F062FE42
S31500003620002818D08B48C0798949834A1268885483
S3150000363081480068401C80490860834800688349C7
S3150000364008607D480068FF212B31884208DD002094
S315000036507949086004E07D480068401E7B4908609F
S3150000366021467B4803F09EF800280FD13146784862
S3150000367003F098F8002809D174480068002805DD91
S315000036802946734803F08EF80028C6D0F8BD70B5F9
S315000036900446002505E0615D6E4802F016FE681CD2
S315000036A0C5B2605D0028F6D170BDF8B507460C4678
S315000036B015461E46664801F0A3FA00906448009934
S315000036C003F0E3F8FDF7ABFB3846FFF7E0FF3246C1
S315000036D029462046069BFFF793FFFDF7A0FB5C48B3
S315000036E0F8BDFFB581B005461F46002400200090B6
S315000036F000260A20FCF79BFE0F21384603F0C3F88C
S3150000370000BF00BF0AE0285D2C2801D1761C00947A
S315000037100398864201DBE124A400641C642CF2DBDE
S31500003720002400260BE0285D2C2802D1761C474891
S3150000373004600298864201DBE124A400641C642C28
S31500003740F1DB002406E0414800680019401C285CB3
S315000037503855641C3D4900980968401A401EA0422D
S31500003760F1DC05B0F0BD08B5214B1F4A344940399C
S315000037701048FCF709FE38480068314B103B184AE0
S31500003780083A194600900B48FCF7DDFEFEF78FFD60
S3150000379008BD3249496B40221143304A5163052125
S315000037A009022F4A116251621421417080218170F1
S315000037B070470000A41900200A41542B4653524575
S315000037C041443D433A5C49505F504F52542E545841
S315000037D0542C302C3130302C310D0A00900C000066
S315000037E0600800004F4B000026F1FF1FA4F1FF1FE9
S315000037F036F1FF1F0A41542B4653524541443D437F
S315000038003A5C494E54455256414C2E5458542C302D
S315000038102C3130302C310D0A0000000045F1FF1F1D
S3150000382000F1FF1F881300000A0000002C0500208D
S3150000383014F0FF1F0CF0FF1F04F0FF1F00B006403E
S31500003840EC250000A02100001CF0FF1F08F0FF1F60
S31500003850C00C002000C00640FCF0FF1F00800440A2
S3150000386040D0044000B5FE48FFF793FF00BD00209E
S3150000387000E0401C2828FCDB7047014608797047A9
S31500003880817810229143817070478178202291437C
S315000038908170704700B503461846FFF7F6FF1846D5
S315000038A0FFF7EEFF00BDEF4900E0491EC278022394
S315000038B01A40002A01D10129F7DCC27802231A43F3
S315000038C0C2707047817808221143817070470146A3
S315000038D0C878C007C00F002801D10120704700201A
S315000038E0FCE70171704781780422114381707047AB
S315000038F0817810221143817070478178202211430C
S315000039008170704700B503461846FFF7F6FF184664
S31500003910FFF7EEFF00BD70B50446D148FFF7F2FF92
S315000039203A21CF48FFF7DDFFCD48FFF7BCFFCC4873
S31500003930FFF7CDFF2146CA48FFF7D3FFC848FFF778
S31500003940B2FFC748FFF7C3FFC548FFF7CCFF3B21CF
S31500003950C348FFF7C6FFC248FFF7A5FFC048FFF7F9
S31500003960B6FFBF48FFF78CFFBD48FFF7ABFFBC486B
S31500003970FFF783FF0546BA48FFF795FFB848FFF7FC
S3150000398089FFB748FFF779FF0546FFF770FF28461E
S3150000399070BD70B504460D46B148FFF7B3FF3A2136
S315000039A0AF48FFF79EFFAE48FFF77DFFAC48FFF735
S315000039B08EFF2146AA48FFF794FFA948FFF773FF39
S315000039C0A748FFF784FF2946A548FFF78AFFA448C2
S315000039D0FFF769FFA248FFF77AFFA148FFF75AFFF2
S315000039E0FFF745FF70BD81780822914381707047CB
S315000039F0002181709C49496B802291439A4A516308
S31500003A007047F8B59948007847B299493846FCF7A7
S31500003A10DBFB984908609848007847B294492431FE
S31500003A203846FCF7D1FB954908609548007847B2BF
S31500003A308F4948313846FCF7C7FB924908608D48E4
S31500003A400068404305468D48006840430646A8196D
S31500003A50FCF7F6FB8C49086088480068002805DA00
S31500003A608648006840428949086003E08348006848
S31500003A708649086085490968C8018349096802F0D2
S31500003A8006FF83490860084600687F2801D97F2021
S31500003A9008607F48006880007E4908587E490860B3
S31500003AA076480068002803DD084600684042086042
S31500003AB074480068044644432819FCF7C1FB77495B
S31500003AC008606C480068002805DA6A4800684042C9
S31500003AD06E49086003E0674800686C4908606B49F6
S31500003AE00968C8016D49096802F0D1FE6849086095
S31500003AF0084600687F2801D97F200860644800686E
S31500003B00800064490858664908605A4800680028D9
S31500003B1003DD08460068404208603019FCF790FB58
S31500003B206049086055480068002805DA534800686F
S31500003B3040425649086003E050480068534908600F
S31500003B4052490968C8015749096802F0A0FE504960
S31500003B500860084600687F2801D97F2008604C4825
S31500003B60006880004B4908584F4908604348006880
S31500003B70002803DD0846006840420860F8BD424858
S31500003B8000682D280FD2454800682D280BD24548DD
S31500003B9000682D2807D245480088002803D1012057
S31500003BA04349087005E00020414908700A203F4952
S31500003BB00880704710B5FFF755FE2A20FFF7ABFEC9
S31500003BC0C4B2FE20204001462A20FFF7E2FEFE2175
S31500003BD02046884304460220204301462A20FFF758
S31500003BE0D8FE022004430120204301462A20FFF785
S31500003BF0D0FE10BD70B586B00020FFF78CFE000722
S31500003C00000F00287ED00120FFF785FE0402022067
S31500003C10FFF781FE044320B2801026490880032066
S31500003C20FFF779FE04020420FFF775FE044320B275
S31500003C308010214908800520FFF76DFE040206204A
S31500003C40FFF769FE044320B280101C490880072054
S31500003C50FFF761FE04020820FFF75DFE04432FE034
S31500003C60006006400F2700000080044078F0FF1F28
S31500003C70280B002044F0FF1F7AF0FF1F48F0FF1FBB
S31500003C807CF0FF1F4CF0FF1F50F0FF1F68F0FF1F76
S31500003C906CF0FF1F048900005CF0FF1F54F0FF1F4B
S31500003CA060F0FF1F58F0FF1F64F0FF1F2EF0FF1F8C
S31500003CB070F0FF1F72F0FF1F74F0FF1F76F0FF1FFA
S31500003CC0FE4804600920FFF726FE04020A20FFF7DB
S31500003CD022FE0443FA4804600B20FFF71CFE040290
S31500003CE00C20FFF718FE0443F64804605120FFF746
S31500003CF012FEF54908600120FFF70DFE000200B232
S31500003D00F24900E070E008800220FFF704FEEF4968
S31500003D100988084300B2ED49088008460021415E43
S31500003D200812EA4908800320FFF7F5FD000200B2F9
S31500003D30E74908800420FFF7EEFDE54909880843B6
S31500003D4000B2E349088008460021415E0812E049B6
S31500003D5008800520FFF7DFFD000200B2DD4908807C
S31500003D600620FFF7D8FDDB490988084300B2D94988
S31500003D70088008460021415E0812D6490880FFF7F0
S31500003D8040FEFFF7FCFE1620FFF7C5FD0446152092
S31500003D90FFF7C1FD0546CF490020085ECE490968F8
S31500003DA04018CB4A0021515ECC4A12688918039507
S31500003DB0049401910290C5490020085EC84909682B
S31500003DC040180090C7480068C74E36688319C74830
S31500003DD00068C74E36688219C6480068C64E3668FF
S31500003DE08119C648FCF7C2FA06B070BD10B50020AE
S31500003DF0C3490860C349C248006804F091FC03D275
S31500003E000020C149086002E00120BF490860BE48A1
S31500003E100068002805D1BD480068401CBB49086001
S31500003E2002E00020B949086010BDB948806B012145
S31500003E30C9020843B6498863B648B749C860B4485A
S31500003E40806B012109030843B1498863B148401CCE
S31500003E50B2498861401E08601F20002805DBC206A3
S31500003E60D20E01219140AE4A116000BF704700B5E5
S31500003E70A9488030006A08210840002816D0A648C4
S31500003E808030006A0843A44980310862A54800686A
S31500003E9001210843A34908600120A3490870A349EA
S31500003EA00860A3480078401CA14908709B488030F0
S31500003EB0006AC007C00F002814D098488030006AF6
S31500003EC0012108439549803108629648006801211E
S31500003ED00843944908600120934908709349086093
S31500003EE0FCF796FA8D488030006A40210840002889
S31500003EF011D08A488030006A0843884980310862B8
S31500003F0088480068012108438649086001208649DF
S31500003F100870FCF77DFAFDF731F800BD7047002008
S31500003F208449886184484861052008617047814852
S31500003F300069400840007F490861704770B57D48B8
S31500003F4085698469281B7D49086029467CA0FCF7A1
S31500003F500DFA214681A0FCF709FA7848016886A087
S31500003F60FCF704FA70BD0CE08E498F4A116004E03C
S31500003F708D490968491E8C4A11608B4909680029D8
S31500003F80F6DC0146401E0029EED170476048C06B42
S31500003F900121C90608435E49C8632D20834988600C
S31500003FA00020C86008620846406A082188437F49A5
S31500003FB048627047C106C90E202211437B4A116030
S31500003FC070470146C806C00E20221043774A10608B
S31500003FD000BF7648006A802210400028F9D100BF51
S31500003FE072480068802210400028F9D06F480069A6
S31500003FF080B2704708B56E48006902210840002863
S3150000400003D06CA0FCF727FA02E06FA0FCF723FAB6
S31500004010002C07D101207149086080206449803155
S3150000402048602DE080206249803188606B480068D6
S31500004030012821D10020694908607D20C000FCF7D5
S31500004040F6F967480068674B674A19461C390090BD
S315000040506648FCF778FA62480068624B624A19467D
S315000040601C39009061480830FCF76DFA7D20C000CD
S31500004070FCF7DDF9FCF7CCF980204D4980318860EA
S31500004080FCF77CFFFCF768FE08BD08B5FCF7CBFF24
S31500004090FDF757FA0520534B534A55A10090554852
S315000040A0FCF751FAFCF7F1FF5249E039524800F0AB
S315000040B0B7FDFDF746FA4A4800689FE08CF0FF1FFF
S315000040C090F0FF1F94F0FF1F20F0FF1F78F0FF1FF6
S315000040D07AF0FF1F7CF0FF1FACF0FF1FA8F0FF1F58
S315000040E0A4F0FF1F64F0FF1FA0F0FF1F60F0FF1F8A
S315000040F09CF0FF1F5CF0FF1F98F0FF1F948C0000E0
S3150000410010F1FF1F0000A040E0F0FF1F64F1FF1F49
S315000041100080044002010A0000B0044000C00440D0
S3150000412000E100E0E8F0FF1F6DF1FF1FE4F0FF1F64
S3150000413000F0FF1F00E000E03F9C0000F4F0FF1FCE
S315000041407379737469636B2073746172742076611A
S315000041506C75653A20307825780A0D00737973748A
S3150000416069636B20656E642076616C75653A2030F4
S315000041707825780A0D0000007379737469636B20E3
S3150000418063757272656E742076616C7565207265F2
S315000041906164206F766572686561643A20307825BF
S315000041A0780A0D008813000060F1FF1F00B003407D
S315000041B040F00F4049676E6974696F6E2073656ED3
S315000041C073657320310D0A0049676E6974696F6EF5
S315000041D02073656E73657320300D0A00F8F0FF1FBB
S315000041E0FCF0FF1F900C000060080000A416000001
S315000041F04F4B00007C2100002C050020FD4BFE4AA1
S31500004200FEA10090FE48FCF79EF9FDF79AF90520FD
S31500004210FB4B1433F84AF9A1009018460830FCF716
S3150000422092F9FCF732FFF649F039F64800F0F8FC4F
S31500004230FDF787F9FCF7ECF8F348FCF70CF9FCF707
S31500004240E7F81420FCF7F3F8FDF77BF9EF4BF04A9B
S31500004250ED491831EF48FCF797F8EF480068E64B50
S31500004260083BE54AE84948310090EA48FCF76BF913
S31500004270FCF7CEF8FCF709FFE149F039E14800F018
S31500004280CFFCE5480068E04B5033DB4A083AE3A12F
S31500004290009018461430FCF756F9FEF70EFE08BDDE
S315000042A008B58020DE4988606420FCF7C0F8DDA0F0
S315000042B0FCF7D1F81A21E04802F007F81A21DE4887
S315000042C002F003F81A21DC4801F0FFFFFCF7A6F91B
S315000042D0D1480068C74BC84A19461C390090D7A078
S315000042E0FCF731F92020CE49403988603220FCF7AE
S315000042F09EF82020CA49403948603220FCF797F8DA
S3150000430008BD08B5002400BFBE4800F079FC06468B
S315000043103146BC4802F0B9FACD4800F071FC0646B9
S315000043203146CB4802F0B1FA00F03AFEFFF7F7FD4E
S315000043300520C849086004F0A7F800BFC648806B8E
S31500004340012149020843C44988638815C349486066
S315000043508860B348C038406806210843B049C03970
S3150000436048600846406906210843AD49C03948619E
S31500004370022088600420886000BFFFF756FD0020F9
S31500004380B7490860B74908608020A5498860FFF7EB
S31500004390FDFD01217D20C00001F01FFD0220A04986
S315000043A0C03948600420486017E00920FFF709FE7D
S315000043B004466421974802F068FA23460822AAA117
S315000043C094480095FBF7E0FF9248FCF744F899A063
S315000043D0FCF741F8FA20FCF72AF8E6E7A648006859
S315000043E0401CA5490860A5480068401CA349086010
S315000043F0A3480068401CA2490860A2480068401C07
S31500004400A0490860A0480068401C9F4908609B4876
S315000044100068012806D0022809D003280CD00428F9
S3150000442017D10EE002207E49C039486011E0022013
S315000044307B49C03988600CE004207949C03948605E
S3150000444007E004207649C039886000208B4908605F
S3150000445000BF00BF8D480068802108438B49086073
S31500004460C1200860704710B5FFF7C4FB8848006894
S315000044704042884908608848006840428749086089
S315000044808748006840428749086087480021415EA6
S3150000449048428649086086480021415E484285496F
S315000044A0086085480021415E48428449086010BD85
S315000044B0F0B589B06421574802F0E7F9804A5249BD
S315000044C078315448FBF760FF53480068494B4A4A25
S315000044D04AA100904F48FCF736F87A480D21202370
S315000044E006220091019001217748FCF754FB75489C
S315000044F0FCF79AFB08907549089802F0F9FF7F21AE
S31500004500C905019004F09CF8029003F0A1F8054655
S315000045100021089804F0DAF800D100250024C0E153
S31500004520694800F06DFB01460290674802F0ADF95C
S315000045309D21C900664802F0A8F96421354802F0B9
S31500004540A4F99D20C000604303465D4A61A131483D
S31500004550FBF71AFF0A20274B274A19461C390090F9
S315000045602C48FBF7F0FF58490D20FDF78EFE06900C
S3150000457057480D21009101900698421E0A230121F9
S315000045805148FCF708FBFCF74EFDFBF741FF1D48C1
S3150000459000F036FB014602901A4802F076F9FCF765
S315000045A074FD1749F039174800F03AFBFCF736F866
S315000045B06421184802F069F9414A134978311548CF
S315000045C0FBF7E2FE144800680A4B0B4A083A0BA1B7
S315000045D000901048FBF7B7FF3A480D21202306222A
S315000045E00091019001213848FCF7D5FA3548FCF7CF
S315000045F01BFB81E0900C0000600800004F4B0000A0
S315000046008C2100002C0500209425000036F1FF1FA8
S3150000461026F1FF1FA4190020FCF0FF1F3E0000003A
S31500004620C0F00F40486172644661756C7420526533
S315000046307365740D0A00000000B006400A0A2041A6
S31500004640542B434D47443D312C340D0A00000000E5
S315000046507818002000F1FF1F0080044000900440FD
S31500004660E4F0FF1FF8F0FF1F2C41444325643D256D
S315000046706C642C20256C640014F1FF1F1CF1FF1FD5
S3150000468014F0FF1F18F0FF1F20F1FF1F0000044069
S315000046905CF0FF1F98F0FF1F60F0FF1F9CF0FF1FEC
S315000046A064F0FF1FA0F0FF1F78F0FF1FA4F0FF1FAC
S315000046B07AF0FF1FA8F0FF1F7CF0FF1FACF0FF1F72
S315000046C004F1FF1F301A0020A4F1FF1F00009D44D3
S315000046D06C1A00200A41542B4653524541443D254D
S315000046E0735C4C4F472E5458542C312C313235368E
S315000046F02C25640D0A0000000890B149089802F0C4
S31500004700F7FE7F21C905019003F09AFF029002F09F
S315000047109FFF05460021089803F0D8FF00D1002529
S31500004720A84800F06DFA0790A648079902F0ADF880
S31500004730A5480068A54BA64AA6A1009018461C30BD
S31500004740FBF701FF3E219F48FCF786F90646002E3F
S315000047506AD0FBF75DFEA0499A4802F096F89F489A
S3150000476000F04EFA079000209D4908609D490860B8
S315000047709D4908600BE099489B4A1268815C9B48FA
S3150000478001F0A3FD98480068401C97490860079807
S31500004790401E954909688842EDDC1A21934801F0CC
S315000047A094FD1A21914801F090FD00BF90A1854823
S315000047B001F0F8FF05908649824801F0F3FF049066
S315000047C0824910317F4801F0EDFF039089497D4809
S315000047D001F0E8FF0746059800280BD10498002849
S315000047E008D10398002805D1002F03D17C48006822
S315000047F00628DBDD0A20FBF71AFEFBF709FE1A2165
S315000048007A4801F062FD0A20FBF711FE1A2177486B
S3150000481001F05BFD1A21754801F057FD1A21734816
S3150000482001F053FD641C3CE0FBF7F8FE724800F013
S31500004830E7F901460290704802F027F8FDF7BEFB43
S31500004840FBF7ECFE64216D4802F01FF86C4A5F49E5
S3150000485030316A48FBF798FD5B480068694B5C4A53
S31500004860083263A100906548FBF76DFE66480A2191
S31500004870202302220091019001215248FCF78BF976
S315000048806148FCF7D1F908904D49089802F030FECE
S315000048907F21C905019003F0D3FE029002F0D8FEF5
S315000048A00546AC4200DA3BE6002D12D0642153489F
S315000048B001F0EBFF524A55495048FBF765FD424867
S315000048C00068504B424A083249A100904B48FBF71A
S315000048D03AFE09B0F0BD3EB53B480068494B3C4A3C
S315000048E0083243A100904AA0FBF72DFE02A82C2116
S315000048F00B4602220091019001213248FCF74BF948
S315000049006846007A0446303C230003F057FE064B07
S31500004910041222303F4B0120400741494860800085
S31500004920486020203E494039486000063C4988607E
S3150000493043E0012040073A49486080004860202053
S3150000494037494039486000063549886080008860EC
S3150000495033E001204007324948608000486020204B
S315000049602F494039486080062D49886025E001209E
S3150000497040072B494860800048602020284940397C
S315000049804860886080062649886016E00120400756
S31500004990234948608000486020202149403948600A
S315000049A088600AE0012040071D4948608000486091
S315000049B020201B494039486000BF00BF3EBD7047FC
S315000049C000009D44A4F1FF1FFCF0FF1FDC25000042
S315000049D0580800003E000000881300006C1A0020F2
S315000049E014F0FF1F0CF0FF1F04F0FF1F00B006407D
S315000049F04F4B0000A02100002C050020A419002028
S31500004A0004F1FF1F900C0000301A0020B42A0000A9
S31500004A100D0A41542B43494E443F0D0A0000000045
S31500004A2000F10F400146202901D0092901D10120BA
S31500004A3070470020FCE70146302901DB392907DDF4
S31500004A40412901DB5A2903DD612903DB7A2901DCCF
S31500004A50012070470020FCE70146302903DB392995
S31500004A6001DC012070470020FCE70146412903DBF9
S31500004A705A2901DC012070470020FCE730B50346C7
S31500004A800C4600201AE019785B1C2278641C612908
S31500004A9004DB7A2902DC0D46203DE9B2612A04DBFB
S31500004AA07A2A02DC1546203DEAB28D1A281E00D06D
S31500004AB006E0002901D0002A00D101E00028E2D05A
S31500004AC000BF30BDF8B503460C461546002600204B
S31500004AD000901BE019785B1C2278641C612904DBBA
S31500004AE07A2902DC08462038C1B2612A04DB7A2A18
S31500004AF002DC10462038C2B2881A0090002800D086
S31500004B0008E0002901D0002A00D103E03046761CD7
S31500004B10A842DFDB00BF0098F8BDFEB506460C468E
S31500004B200020029001900090002E05D0002A03DBA1
S31500004B30012A01D0242A04DD002C00D026600020A2
S31500004B40FEBD334600E05B1C1878FFF76BFF0028BC
S31500004B50F9D118782D280ED0302810D15878782819
S31500004B6002D05878582805D1002A01D0102A01D140
S31500004B7010229B1C04E0012000905B1C00E000BF9B
S31500004B8000BF002A00D10A221F4628E02846FFF768
S31500004B9052FF002802D10120019023E02846FFF7AA
S31500004BA05BFF002801D0303D07E02846FFF75DFF98
S31500004BB0002801D0373D00E0573D954202DB012039
S31500004BC001900FE00098002804D002985043401B43
S31500004BD0029003E002985043401902907F1C3878F7
S31500004BE0051ED3D100BF002C00D0276001980028F5
S31500004BF004D0002C00D026600020A1E702989FE791
S31500004C0010B501460A460023002A01D1002010BD36
S31500004C1000E05B1C1478521C002CFAD11846F6E70B
S31500004C20F0B505460E463746002D0ED0002E0CD0A8
S31500004C302846FFF7E5FF441903E0387820707F1C0B
S31500004C40641C38780028F8D120702846F0BDF7B5E6
S31500004C5005460E463746002D17D0002E15D0029871
S31500004C60002812DD2846FFF7CBFF441903E0387809
S31500004C7020707F1C641C3878002804D00298411EDE
S31500004C8002910028F3DC002020702846FEBD10B5F6
S31500004C900A460146134600280AD0002A08D003E037
S31500004CA01C780C705B1C491C1C78002CF8D10C700D
S31500004CB010BD70B50B4601461C46002811D0002BCE
S31500004CC00FD0002A0DDD03E025780D70641C491C09
S31500004CD02578002D03D01546521E002DF4DC002544
S31500004CE00D7070BD30B503460C461A46214606E0E7
S31500004CF010780D78A84200D004E0521C491C0878B0
S31500004D000028F5D100BF10780D78401B30BD70B576
S31500004D1004460D4623462946002A01DC002070BDC4
S31500004D200AE018780E78B04200D008E0501E021E45
S31500004D3000D104E05B1C491C08780028F1D100BFB3
S31500004D4018780E78801BEAE7F7B581B00199029CC6
S31500004D50019900291CD00298002819D0002A17D0E2
S31500004D6093079B0FD01A8008009001E001CC01C187
S31500004D700098471E00970028F8D10D46264603E006
S31500004D8030782870761C6D1C18465B1E0028F7D1FB
S31500004D90019804B0F0BD30B50B460146002808D096
S31500004DA0002A06D001E00B70491C1446521E002C46
S31500004DB0F9D130BD10B58C48406A07210907084073
S31500004DC0000F030003F0FAFB0504080C101418008A
S31500004DD086A0FBF7CBFA13E086A0FBF7C7FA0FE035
S31500004DE086A0FBF7C3FA0BE086A0FBF7BFFA07E045
S31500004DF086A0FBF7BBFA03E086A0FBF7B7FA00BF75
S31500004E0000BF7948406A072109060840000E0428B9
S31500004E1004D0052806D006280CD107E087A0FBF7AA
S31500004E20A5FA0BE086A0FBF7A1FA07E085A0FBF741
S31500004E309DFA03E084A0FBF799FA00BF00BF6A4819
S31500004E40406A0007000F030003F0B8FB09060A0ECC
S31500004E502212161A221E220086A0FBF787FA1BE0F2
S31500004E6086A0FBF783FA17E086A0FBF77FFA13E02C
S31500004E7086A0FBF77BFA0FE086A0FBF777FA0BE03C
S31500004E8086A0FBF773FA07E086A0FBF76FFA03E04C
S31500004E9087A0FBF76BFA00BF00BF5348406A0721A3
S31500004EA009050840000D012803D18CA0FBF75EFA26
S31500004EB003E094A0FBF75AFA00BF00BF4A48406AD5
S31500004EC0072109040840000C030003F077FB0805DE
S31500004ED0090D1115191D212595A0FBF747FA1FE0AD
S31500004EE099A0FBF743FA1BE09CA0FBF73FFA17E0FB
S31500004EF09FA0FBF73BFA13E0A2A0FBF737FA0FE0FF
S31500004F00A5A0FBF733FA0BE0A9A0FBF72FFA07E001
S31500004F10ADA0FBF72BFA03E0B1A0FBF727FA00BF21
S31500004F2000BF31484030C0680F2109060840000E16
S31500004F3005281AD006DC00280BD001280DD003283E
S31500004F4023D10EE0072814D0092816D00F281CD12B
S31500004F5017E0AAA0FBF70AFA1BE0B8A0FBF706FACF
S31500004F6017E0C6A0FBF702FA13E0D3A0FBF7FEF9A1
S31500004F700FE0E0A0FBF7FAF90BE0EDA0FBF7F6F97E
S31500004F8007E0DCA0FBF7F2F903E0F8A0FBF7EEF987
S31500004F9000BF00BF0F242146FCA0FBF7E7F910BDB8
S31500004FA010B50020FE49086000F060FA53A0FBF738
S31500004FB0DDF900F083FFFFF7FDFE10BD10B50320FD
S31500004FC0F849C87100208871487108710120C873BA
S31500004FD08020087000BFF348007880210840002830
S31500004FE0F9D0F048C17ADFE1008004400A0D4B4C4D
S31500004FF0300000000A0D4B4C310000000A0D4B4CEE
S31500005000320000000A0D4B4C330000000A0D4B4CD9
S31500005010340000000A0D556E7265636F676E697A1B
S315000050206564204B696E657469732066616D696C91
S3150000503079206465766963652E0A0D00340A0D00D1
S31500005040350A0D00360A0D000A0D556E7265636F3E
S31500005050676E697A6564204B696E6574697320733F
S3150000506075622D66616D696C792064657669636524
S315000050702E0A0D00313670696E0A0D0032347069E1
S315000050806E0A0D00333270696E0A0D00343870698D
S315000050906E0A0D00363470696E0A0D00383070697C
S315000050A06E0A0D0031303070696E0A0D0000000086
S315000050B00A0D556E7265636F676E697A6564204B7B
S315000050C0696E65746973207061636B6167652063DF
S315000050D06F64652E20202020202000000A0D4C6FD2
S315000050E07720506F776572204C696E6520776974FA
S315000050F06820436F72746578204D302B0A0D0A0DB7
S31500005100000000000A0D556E7265636F676E697A5E
S315000051106564204B696E657469732066616D696CA0
S3150000512079206174747269627574652E0A0D0000C7
S315000051305352414D202073697A653A20302E35202E
S315000051404B420A0D000000005352414D2020736966
S315000051507A653A202031204B420A0D005352414DC8
S31500005160202073697A653A202032204B420A0D00CE
S315000051705352414D202073697A653A202034204BE2
S31500005180420A0D005352414D202073697A653A2038
S315000051902038204B420A0D005352414D202073699E
S315000051A07A653A20203136204B420A0D0000000075
S315000051B05352414D202073697A653A2020333220BC
S315000051C04B420A0D000000005352414D20207369E6
S315000051D07A653A20203634204B420A0D0000000042
S315000051E00A0D556E7265636F676E697A6564205342
S315000051F052414D2053697A652E0A0D00466C617343
S31500005200682073697A653A202038204B42207072F4
S315000052106F6772616D20666C6173682C20302E3268
S3150000522035204B422070726F74656374696F6E200F
S31500005230726567696F6E0A0D00000000466C617347
S31500005240682073697A653A20203136204B422070F7
S31500005250726F6772616D20666C6173682C20302EE8
S3150000526035204B422070726F74656374696F6E20CF
S31500005270726567696F6E0A0D00000000466C617307
S31500005280682073697A653A20203332204B422070B9
S31500005290726F6772616D20666C6173682C203120B5
S315000052A04B422070726F74656374696F6E2072650D
S315000052B067696F6E0A0D0000466C6173682073693A
S315000052C07A653A20203634204B422070726F67721E
S315000052D0616D20666C6173682C2032204B42207011
S315000052E0726F74656374696F6E20726567696F6E3D
S315000052F00A0D0000466C6173682073697A653A206E
S3150000530020313238204B422070726F6772616D20F7
S31500005310666C6173682C2034204B422070726F7467
S31500005320656374696F6E20726567696F6E0A0D003A
S31500005330466C6173682073697A653A202032353687
S31500005340204B422070726F6772616D20666C6173CC
S31500005350682C2034204B422070726F746563746928
S315000053606F6E20726567696F6E0A0D004552522195
S315000053702120556E646566696E656420666C61738E
S31500005380682073697A650A0D0000000053696C692C
S31500005390636F6E207265762025640A0D000000009A
S315000053A000810440000002401CA0FAF7DFFF2248FB
S315000053B0817A22A0FAF7DAFF1F48417A1FA0FAF78E
S315000053C0D5FF1D48017A1FA0FAF7D0FF03201A491E
S315000053D0C871002088714871042008710120C873C3
S315000053E08020087000BF14480078802108400028FB
S315000053F0F9D01148C17A15A0FAF7B8FF0E48817A9C
S3150000540018A0FAF7B3FF0C48417A0CA0FAF7AEFFE2
S315000054100948017A1448FAF7A9FF10BD466C617372
S315000054206820706172616D6574657220766572734D
S31500005430696F6E202564200000000240202564204C
S31500005440000000002025640A0D000000466C617310
S31500005450682076657273696F6E2049442025642042
S3150000546000000000202564009853000010B54B484A
S31500005470806B1F2149020843484988634848807861
S3150000548008210840002804D045488078084344494C
S3150000549088704448006844490860404840680121D3
S315000054A0090408433D4948603F480468E10F09196B
S315000054B048107D21C90001F0F4F93C4908603748DD
S315000054C0406803218906884301218906401833492B
S315000054D048607D21C9003448006801F0E2F934498A
S315000054E008602E4840304068000F411C3048006874
S315000054F001F0CDF92F49086028484030406807225E
S3150000550012041040000C411C2A48006801F0BFF943
