:020000040000FA
:10000000F82F0020D5020000710200008343000099
:1000100000000000000000000000000000000000E0
:10002000000000000000000000000000E3020000EB
:100030000000000000000000E5020000E7020000F0
:10004000ED020000ED020000ED020000ED020000F4
:10005000ED020000ED020000ED0200001D5E000058
:10006000ED020000ED020000ED020000ED020000D4
:10007000ED0200005F66000085660000ED020000F2
:10008000ED020000ED020000ED020000ED020000B4
:10009000ED020000ED020000ED020000ED020000A4
:1000A000ED020000ED020000ED020000ED02000094
:1000B000AF470000ED020000ED020000873F0000A6
:1000C00000F002F800F054F80CA030C808382418EA
:1000D0002D18A246671EAB4654465D46AC4201D180
:1000E00000F046F87E460F3E0FCCB646012633425E
:1000F00000D0FB1AA246AB46334318478893000052
:10010000A89300000023002400250026103A01D304
:1001100078C1FBD8520700D330C100D50B607047BF
:1001200010B5662902D108F08FFD10BD642902D1F7
:1001300006F0FAFB10BD782902D106F02BFC10BDA9
:10014000632902D107F024FF10BD732902D107F003
:1001500027FF10BD002010BD1FB507F07FFF040072
:100160000020002108F000FCE0601FBD10B510BDAC
:1001700008F0D6FA1146FFF7EFFF04F034F908F063
:10018000EEFA03B4FFF7F2FF03BC00F0EBF8000057
:1001900070B505460C46164602E00FCC0FC5103E62
:1001A000102EFAD2082E02D303CC03C5083E042E2B
:1001B00007D301CC01C5361F03E021782970641CE8
:1001C0006D1C761EF9D270BDF0B588B003460A46A4
:1001D00015786D1C157015786D076D0F15701578F5
:1001E000AD00161D7351002106E08E00151DAD599E
:1001F0008E006F46BD51491C0829F6DB00BF002464
:10020000002116E08D006E4676594D1CAD006F46FC
:100210007D59AE420CDD8D006E4670594D1CAD000F
:1002200075598E00BD514D1CAD006E4670510124B4
:10023000491C0729E6DB002CE1D1039808B0F0BD8A
:10024000F8B5064600277D24E400254600BF254674
:100250002146304606F0DBFC001944083846791C7C
:10026000CFB2072801DAA542F1D12046F8BD00003F
:10027000134909680222114000290DD0104909686C
:10028000490849000E4A116000BF0D490968022261
:1002900011400029F9D10DE0002007E00949096962
:1002A00010221140102900D103E0401C0649884269
:1002B000F4DB00BF7047054805490861704700003E
:1002C000403000F000F00FF8FFFF010013070000BE
:1002D000009004400948804709480047FEE7094864
:1002E0008047FEE7FEE7FEE707488047FEE700009D
:1002F00006480749054A074B70470000AD59000002
:10030000C100000083430000AF4700000821002027
:10031000082500200821002010B50446E1B2054858
:1003200006F081FAE0B210BD10B5024806F072FA8C
:1003300010BD000000A0064070B504460D462046E2
:10034000FFF7EAFF70BD10B50446FFF7EDFF10BDE3
:1003500001460020C043704710B504462046FFF711
:10036000DBFF10BD00BFFEE7704700000FB405497A
:1003700010B503AA029807F017FE10BC08BC04B021
:100380001847000098F1FF1F0FB41CB5074B06AAD1
:100390007B4469460090059807F0D7FD0020694628
:1003A00007F0E6FD1CBC08BC04B01847DD7B00006C
:1003B00070B5044685690068C10601D5302600E0A5
:1003C0002026C00707D070BD62683046A1689047FC
:1003D000206A401C20626D1EF6D570BD70B50446C3
:1003E00085690078C00707D170BD6268A1682020C8
:1003F0009047206A401C20626D1EF6D570BD00003B
:10040000FFFFFFFFFFFFFFFFFFFFFFFFFEFFFFFFFD
:10041000FE49097908221140002901D0FB49C87919
:10042000FA49097918221143F84A117170470DE011
:100430007D210901F64A116004E0F5490968491E69
:10044000F34A1160F24909680029F6DC0146401EB2
:100450000029EDD1704770B50546002400BF05E0C6
:10046000295DEA4806F019F9601CC4B2284604F078
:10047000AFFDA042F4D870BDFFB587B016461F4649
:10048000109C0120069000200590FFF7C1FF00207E
:10049000E0490860E049E14806F0B7FB0020E04988
:1004A00008600494FFF7B4FFDE4803900798FFF755
:1004B000D2FF0A20FFF7BBFF0D21D44806F0EDF86C
:1004C00000BFD648089906F02DFB01903146D3486D
:1004D00006F028FB00903946D04806F023FB05467D
:1004E0000198002808D10098002805D1002D03D1DB
:1004F000C8480068A04201DD012000E00020029011
:1005000002980028DDD0FFF783FFC2480068A042B0
:1005100017DD0D21BD4806F0C0F80A21BB4806F0E2
:10052000BCF81A21B94806F0B8F81A21B74806F005
:10053000B4F80D21B54806F0B0F80A21B34806F02A
:10054000ACF80BB0F0BDFFB587B016461F46109C47
:100550000120069000200590FFF75AFF0020AD49CA
:100560000860AD49AD4806F050FB0020AC4908607A
:100570000494FFF74DFFAB4803900798FFF76BFF1C
:100580000A21A24806F089F80A21A04806F085F859
:100590000A20FFF74CFF00BFA048089906F0C2FAF6
:1005A000019031469D4806F0BDFA009039469B48BF
:1005B00006F0B8FA05460198002808D100980028EE
:1005C00005D1002D03D193480068A04201DD012030
:1005D00000E00020029002980028DDD0FFF718FF0D
:1005E0008C480068A04217DD0D21884806F055F8B8
:1005F0000A21864806F051F81A21844806F04DF881
:100600001A21824806F049F80D21804806F045F885
:100610000A217E4806F041F80BB0F0BD38B56420E1
:10062000FFF705FFFFF7F4FE64217F4806F0EDFABF
:100630007E4804F0CDFC441C23467D4A7DA17A48C7
:10064000FFF7A2FE052084A385A287A1009076482B
:10065000FFF712FFFFF7DCFE0020714908606D49CB
:100660000860824908600BE07048804A1268815C2B
:10067000664806F012F87D480068401C7B49086017
:100680006A4804F0A5FC794909688842ECD80A2137
:100690005E4806F002F80A215C4805F0FEFF0A21D8
:1006A0005A4805F0FAFF0A21584805F0F6FF0A21DA
:1006B000564805F0F2FF0A21544805F0EEFF0A21E2
:1006C000524805F0EAFF0A21504805F0E6FF0A21EA
:1006D0004E4805F0E2FF0A214C4805F0DEFF0A21F2
:1006E0004A4805F0DAFF0A21484805F0D6FF0A21FA
:1006F000464805F0D2FF0A21444805F0CEFF0A2102
:10070000424805F0CAFF0A21404805F0C6FF0A2109
:100710003E4805F0C2FF0A213C4805F0BEFF0A2111
:100720003A4805F0BAFF0A21384805F0B6FF0A2119
:10073000364805F0B2FF0A21344805F0AEFF0A2121
:10074000324805F0AAFF0A21304805F0A6FF0A2129
:100750002E4805F0A2FF0A212C4805F09EFF0A2131
:100760002A4805F09AFF0A21284805F096FF0A2139
:10077000264805F092FF0A21244805F08EFF0A2141
:10078000224805F08AFF0A21204805F086FF0A2149
:100790001E4805F082FF0A211C4805F07EFF0A2151
:1007A0001A4805F07AFF0A21184805F076FF0A2159
:1007B000164805F072FF0A21144805F06EFF0A2161
:1007C000124805F06AFF0A21104805F066FF0A2169
:1007D0000E4805F062FF0A210C4805F05EFF0A2171
:1007E0000A4805F05AFF0A21084805F056FF0A2179
:1007F000064805F052FF0A21044805F04EFF0A2181
:10080000024805F04AFF0A21004831E000B00640E6
:100810005CF1FF1F14F0FF1F88130000A0F1FF1F01
:100820000CF0FF1FD1070000A019002028050020B0
:1008300000F1FF1F0D0A41542B46535752495445AE
:100840003D25735C4C4F472E5458542C312C256455
:100850002C31300A0A0000004552524F520000006D
:100860004552524F520D0A003E00000004F0FF1F97
:1008700005F013FF0A21FE4805F00FFF0A21FC488E
:1008800005F00BFF0A21FA4805F007FF0A21F84896
:1008900005F003FF0A21F64805F0FFFE0A21F4489F
:1008A00005F0FBFE0A21F24805F0F7FE0A21F048A8
:1008B00005F0F3FE0A21EE4805F0EFFE0A21EC48B0
:1008C00005F0EBFE0A21EA4805F0E7FE0A21E848B8
:1008D00005F0E3FE0A21E64805F0DFFE0A21E448C0
:1008E00005F0DBFE0A21E24805F0D7FE0A21E048C8
:1008F00005F0D3FE0A21DE4805F0CFFE0A21DC48D0
:1009000005F0CBFE0A21DA4805F0C7FE0A21D848D7
:1009100005F0C3FE0A21D64805F0BFFE0A21D448DF
:1009200005F0BBFE0A21D24805F0B7FE0A21D048E7
:1009300005F0B3FE0A21CE4805F0AFFE0A21CC48EF
:1009400005F0ABFE0A21CA4805F0A7FE0A21C848F7
:1009500005F0A3FE0A21C64805F09FFE0A21C448FF
:1009600005F09BFE0A21C24805F097FE0A21C04807
:1009700005F093FE0A21BE4805F08FFE0A21BC480F
:1009800005F08BFE0A21BA4805F087FE0A21B84817
:1009900005F083FE0A21B64805F07FFE0A21B4481F
:1009A00005F07BFE0A21B24805F077FE0A21B04827
:1009B00005F073FE0A21AE4805F06FFE0A21AC482F
:1009C00005F06BFE0A21AA4805F067FE0A21A84837
:1009D00005F063FE0A21A64805F05FFE0A21A4483F
:1009E00005F05BFE0A21A24805F057FE0A21A04847
:1009F00005F053FE0A219E4805F04FFE0A219C484F
:100A000005F04BFE0A219A4805F047FE0A21984856
:100A100005F043FE0A21964805F03FFE00BF95A170
:100A2000964806F07FF8002809D19549934806F0CA
:100A300079F8002803D1934800680528EFDDFFF717
:100A4000E7FC914804F0C4FA044621468E4806F0BB
:100A5000DCF8FFF7DDFC38BDF8B505460E46284644
:100A600004F0B6FA0746002405E0285DB04201D143
:100A70000120F8BD641CBC42F7DD0020F9E738B561
:100A80008248006882A37E4A083283A1009083A036
:100A9000FFF759FD6421894806F0B7F8884804F04B
:100AA00097FA05460C35874804F092FA2C1822462E
:100AB00085A18248FFF768FC0A2075A3704A0832B6
:100AC0008BA100907D48FFF73EFDFFF7A1FC89A0B8
:100AD000FFF7C1FC0020894908600BE07848874A8D
:100AE0001268815C624805F0D8FD84480068401CAB
:100AF00082490860724804F06BFA804909688842AC
:100B0000ECD87FA0FFF7A7FC00207C4908600BE031
:100B10006C487A4A1268815C554805F0BEFD7748FA
:100B20000068401C75490860664804F051FA734932
:100B300009688842ECD874A0FFF78DFC0020734947
:100B4000086073487349086014E072480068401EEA
:100B5000704908607D2109016E48006806F061F85F
:100B6000002907D131216C4805F05DFE0A2140487B
:100B700005F093FD3FA1414805F0D4FF002809D1BD
:100B800064480068012805DB3D493C4805F0CAFF80
:100B90000028DAD038BDFFB583B005460F460024E3
:100BA000002002900026284604F012FA01900D98C9
:100BB00004F00EFA009000990D9806F024F800BF9A
:100BC00000BF0AE0295D0C98814201D1761C029495
:100BD0000598864200DB514C641C01988442F1DB8D
:100BE000002400260AE0295D0698814202D1761C85
:100BF0004B480460BE4200DB484C641C01988442B0
:100C0000F1DB002407E0464800680019401C295C1D
:100C10000D980155641C424902980968401A401E0B
:100C2000A042F0DC07B0F0BDFEB504460020029003
:100C30007F26F60520782D2801D1641C394E002727
:100C400081E020782E2801D101277BE0207805461D
:100C5000303D002D75DB092D73DC002F04D03249A7
:100C6000304606F005FE0646284606F0FBFE5EE02E
:100C700000B006404F4B0D0A00000000A0F1FF1F1E
:100C80005808000014F0FF1F28050020F8F0FF1F8F
:100C90004552524F523A00004F4B00000A41542B2C
:100CA00046534352454154453D433A5C49505F5099
:100CB0004F52542E5458540D0A000000A019002021
:100CC00022F1FF1F32F1FF1F0D0A41542B465357EB
:100CD000524954453D433A5C49505F504F52542E5F
:100CE0005458542C302C25642C31300D0A0000004F
:100CF0003E0000007C49507C0000000004F0FF1F13
:100D00007C504F52547C00007C0000000CF0FF1F10
:100D10001F4E00001CF0FF1F00A00640AC26000084
:100D200008F0FF1F000080BF0000204109E0FE49DD
:100D30000190029807F0C8FE0090019907F02AFE82
:100D4000029000BF641C2078002800D079E731466B
:100D5000029807F0B9FEFEBD00B5F448006801280E
:100D600002D16320F2490870F1480078030007F0CF
:100D700062FD06040F1A25303B4601204007ED496D
:100D80008860800048602020EA494039486044E09B
:100D900001204007E7498860800088602020E549FD
:100DA0004039486039E001204007E249486080004E
:100DB00088602020DF49403948602EE0012040074C
:100DC000DC494860800048602020DA49403988606A
:100DD00023E001204007D749886080004860202038
:100DE000D4494039886018E001204007D149886023
:100DF000800088602020CF49403988600DE00120C4
:100E00004007CC494860800048602020C9494039EB
:100E100048600020C649087000BF00BF00BDC6483A
:100E2000007918210843C4490871704710B5C34CB4
:100E3000FFF7F5FFC249C34805F0E7FE6421C24849
:100E400005F0E3FE6421C14805F0DFFE0020C04943
:100E50000860C049086000BFB748007920210840F9
:100E600000280AD0B448C079B649B94A12688854F3
:100E7000B7480068401CB6490860B7A1B14805F002
:100E800051FE002803D1B34800680128E4DD0020AA
:100E9000AF490860AF49086000BFA748007920212A
:100EA000084000280AD0A448C079A849A84A126876
:100EB0008854A7480068401CA54908602A21A34817
:100EC000FFF7CAFD002803D1A24800680128E4DD2D
:100ED0009B499C4805F099FE00209D4908609D496A
:100EE000086000BF944800792021084000280AD0FB
:100EF0009148C1799348964A126881549448006891
:100F0000401C9349086095A18E4805F00BFE00280F
:100F100003D1904800680128E4DD00208C49086076
:100F20008C49086000BF84480079202108400028CF
:100F30000AD08148C1798448854A1268815484481E
:100F40000068401C824908602A217F48FFF784FD21
:100F5000002803D17F4800680128E4DDFFF75FFF28
:100F600073480078401C72490870084600780528CC
:100F700001DD00200870FFF7EFFE10BD00B56B48E3
:100F80000068012802D16320694908706848007828
:100F9000030007F050FC06040D161F28313A4020CC
:100FA000644980398860802048604000486038E0AB
:100FB0004020604980398860802088604000486017
:100FC0002FE040205B4980394860802088604000E5
:100FD000486026E0402057498039486080204860BA
:100FE000400088601DE040205249803988608020A0
:100FF00048604000886014E040204E498039886095
:1010000080208860400088600BE04020494980399A
:1010100048608020486040004860002044490870D3
:1010200000BF00BF00BD38B50025FFF7F1F9FFF79D
:10103000EFF9FFF7EDF94A4803F0CAFF0F2821D274
:101040000A20484B1A46083247A1009047A0FFF7F4
:101050007AFA1421424805F0D8FD00240DE04748F3
:10106000005D2F2808DD4548005D3A2804DA434832
:10107000005D3B4948556D1C641C404803F0A8FFC7
:10108000A042ECD8FFF7C4F938BDF0B589B0FFF73E
:10109000CAFF0F203A49086025480078401C2449BF
:1010A000087008460078052801DD00200870FFF769
:1010B00065FF00BF33480068334909688842F9DB9F
:1010C000FFF7B4FE00202F4908603048FFF7ACFD61
:1010D0002F4908602F48FFF7A7FD039006F09EFBFD
:1010E00006460F4600222C4B3046394605F0ECFFF1
:1010F0000391029006F00CFA08900022264B30462D
:10110000394605F0E1FF07910690089806F057FA76
:1011100003910290079B069A05F0BEFF04460D4618
:1011200000221D4B204639E000002041F4F0FF1F53
:1011300000F0FF1F00F10F4000C006409F86010035
:10114000B80B0000BC0C0020F40B0020580C002051
:101150005CF1FF1F18F0FF1F524D4300474741004D
:10116000541A0020580800004F4B00000D0A0A0ACC
:1011700041542B47534E0D0A00000000A0F1FF1F01
:101180006CF1FF1F10F1FF1FFCF0FF1F3CF1FF1F70
:101190000CF1FF1F041A002000005940294606F0F8
:1011A00019FA04460D460022FE4B2046294605F05A
:1011B0008BFF03910290089806F001FA01910090CC
:1011C000039B029A05F050FF059104900F21F64809
:1011D00005F01BFDF5A1F448059B049AFFF7D4F830
:1011E000F348FFF721FD039006F018FB06460F4673
:1011F0000022F04B3046394605F066FF039102901D
:1012000006F086F908900022EA4B3046394605F090
:101210005BFF07910690089806F0D1F903910290C0
:10122000079B069A05F038FF04460D460022E14B65
:101230002046294606F0CEF904460D460022D94B39
:101240002046294605F040FF03910290089806F0D9
:10125000B6F901910090039B029A05F005FF0591F4
:1012600004900F21D24805F0D0FCD0A1D048059BB6
:10127000049AFFF789F8D049D04803F0B9FED0A10D
:10128000CE4803F0B5FECFA1CC4803F0B1FECF4964
:10129000CA4803F0ADFECEA1C84803F0A9FECF496D
:1012A000C64803F0A5FE09B0F0BDFFB587B01546EE
:1012B0001E460120059000200490C94803F088FED6
:1012C0000690C748069905F0A0FC0020C5490860B3
:1012D000C54FFFF79DF8C54803900798FFF7BBF887
:1012E00000BF7F1E0398401E0390BD48089905F07B
:1012F00019FC01902946BA4805F014FC00903146CB
:10130000B74805F00FFC04460198002806D1009864
:10131000002803D1002C01D1012F01DC012000E0C5
:101320000020029002980028DBD0FFF771F8AC484B
:101330000BB0F0BD38B504466421AD4805F065FC3E
:10134000AC4AADA1AA48FFF71FF8AF480068AF4B01
:10135000AF4AB0A10090A648FFF7A7FFADA1A048F3
:1013600005F0E0FB002831D00020AB4908600CE01C
:10137000A9480068215CA94805F08FF9FFF748F8F3
:10138000A5480068401CA4490860204603F020FEE0
:10139000A14909688842EBD81A21A04805F07DF9D7
:1013A00000209049086090489D49086004E09C48EE
:1013B0000068401E9A4908609AA1894805F0B2FB6E
:1013C000002803D1964800680128F0DA38BD10B52E
:1013D00001460020002206E00A2343438C5C1B19CF
:1013E00018463038521C8B5C002BF5D110BD38B537
:1013F00085480068854B864A8CA100908CA0FFF739
:10140000A2F864217A4805F000FC914803F0E0FD61
:1014100004460B3422468FA17548FEF7B5FF0A201B
:101420007A4B7B4A7BA100907148FFF78CF893A020
:10143000FFF711F80020784908600BE08448764AED
:101440001268815C754805F028F973480068401CF3
:10145000714908607E4803F0BBFD6F490968884206
:10146000ECD889A0FEF7F7FF00205E4908608748A6
:101470008749086010E086480068401E844908607B
:101480007D2109018248006805F0CBFB002903D1CA
:101490000A21624805F001F95C491C39504805F001
:1014A00041FB00280AD17A480068012806DB584928
:1014B00008394B4805F036FB0028DCD038BDFFB5B5
:1014C00081B005461F4600240020009000260A2017
:1014D000FEF7ADFF0F21384605F095FB00BF00BFBA
:1014E0000AE0285D222801D1761C009403988642E8
:1014F00001DBE124A400641C642CF2DB0024002640
:101500000BE0285D222802D1761C62480460029814
:10151000864201DBE124A400641C642CF1DB00247E
:1015200006E05C4800680019401C285C3855641CC3
:10153000584900980968401A401EA042F1DC05B0E5
:10154000F0BDF0B58FB054480078012828D10020B4
:10155000524908608020524988607D20C000FEF713
:1015600066FF29480068294B294A19461C39009012
:101570004CA0FEF7E8FF24480068244B244A194693
:101580001C39009049A0FEF7DEFF7D20C000FEF769
:101590004EFF1D4800681D4B1D4A19461C398BE043
:1015A000FDE3000000004E40041A00202566000004
:1015B000181A002000005940541A00202805002065
:1015C0002C2000002447784747410000F40B0020FE
:1015D0002C20244778524D4300000000580C002076
:1015E000A0F1FF1F0CF0FF1F9F860100D107000034
:1015F000A0190020040B00200A41542B434D4753EF
:101600003D222573220D0A00F8F0FF1F900C000008
:10161000600800003E00000004F0FF1F00B006401C
:1016200048F1FF1F2B434D47533A00004F4B00003A
:101630000A41542B46534352454154453D433A5C7D
:10164000494E54455256414C2E5458540D0A0000F0
:1016500041F1FF1F0D0A41542B465357524954453F
:101660003D433A5C494E54455256414C2E545854D1
:101670002C302C25642C31300D0A00007C494E544E
:10168000455256414C7C00007C0000001F4E00007B
:101690001CF0FF1F08F0FF1F69F1FF1FF4F0FF1F90
:1016A000C0F00F400A0A41540D0A00000A0A4154D2
:1016B0002B4753560D0A00000090FBA0FEF743FF96
:1016C000FD480068FD4BFE4A19461C390090FDA0FC
:1016D000FEF739FFF8480068F84B1C3BF84A083A17
:1016E00019460090FBA0FEF72EFFFEF791FEFD4B82
:1016F00004220321FC48FFF7E2FEFCA1FA4805F0B2
:1017000011FA0546FBA1F84805F00CFA0646FCA1C3
:10171000F54805F007FA0746FCA1F34805F002FA80
:101720000E90FCA1F04805F0FDF90D90FBA1EE48EC
:1017300005F0F8F90C90FBA1EB4805F0F3F90B90DC
:10174000FAA1E94805F0EEF90A90FAA1E64805F099
:10175000E9F90990F9A1E44805F0E4F90890F8A145
:10176000E14805F0DFF90790F7A1DF4805F0DAF965
:101770000690F8A1DC4805F0D5F90590F8A1DA4803
:1017800005F0D0F90446002D24D0002E22D0F848D0
:1017900003F01EFC01460490F54805F036FAF548C2
:1017A0002521F54AF54B00930192029103900346DF
:1017B000F349EF48FEF7E8FDED48FFF7BBFDBE48F3
:1017C0000068BE4BBE4A19461C390090EDA0FEF7DA
:1017D000BAFE0AE3002F23D06421EE4805F015FA83
:1017E0000521ED4805F00FFAEB480D2120230522D5
:1017F000009101900321BC48FFF7CDF9E648FFF7BF
:10180000E6FDE6490860FFF7F2FDAB480068AB4B28
:10181000AB4A19461C390090DAA0FEF794FEE4E2C8
:101820000E98002852D0A4480068A44BA44ADCA11A
:10183000009018460C30FEF786FE9F4800689F4BCC
:101840009F4AD7A10090D7A0FEF77DFE9A48006876
:101850009A4B9B4AD2A10090D9A0FEF774FE9648FD
:101860000068964B964ACEA10090DC48FEF76BFECE
:101870000D22DBA1DE4805F069F9DE48DEA10A8809
:10188000028049884180C448DDA109780170FFF7D2
:10189000F6F8FFF7ACFDC048FFF799FDBF490860B7
:1018A00085480068854B864A19461C390090B5A0CA
:1018B000FEF749FED348006820210B460422009120
:1018C000019003218848FFF766F98EE20D98002801
:1018D0002BD06421AF4805F098F90F21CA4805F0D4
:1018E00092F9C9480D21202305220091019003217E
:1018F0007D48FFF750F9C44AC4A1A648FEF744FD4D
:101900006D4800686D4B6E4A19461C390090A1481D
:10191000FEF719FE68480068684B694A19461C3989
:10192000009098A0FEF70FFE5FE20C9800282BD0E5
:101930006421984805F069F90F21B34805F063F96F
:10194000B1480D2120230522009101900321664812
:10195000FFF721F9AC4AB5A18E48FEF715FD5648B0
:101960000068564B564A19461C3900908948FEF7C4
:10197000EAFD51480068514B514A19461C39009004
:1019800080A0FEF7E0FD30E20B9800282BD0642108
:10199000804805F03AF90F219B4805F034F99A4840
:1019A0000D21202305220091019003214E48FFF7CD
:1019B000F2F8954AA5A17748FEF7E6FC3E48006894
:1019C0003E4B3F4A19461C3900907248FEF7BBFD5A
:1019D00039480068394B3A4A19461C39009069A0C9
:1019E000FEF7B1FD01E20A9800285BD06421694846
:1019F00005F00BF900209D4908604EE09B48006807
:101A0000401E3949085C202842D198480068801E51
:101A1000085C47283CD195480068C01E085C5528E2
:101A200036D192480068001F085C422830D18F48A8
:101A30000068401F085C45282AD18C480068801F38
:101A4000085C442824D100208949086011E0264818
:101A500086490968405C4F49854A12688854834822
:101A60000068401C8149086081480068401C80492A
:101A700008607F4800686428E9DB0D21454A7C48FE
:101A80000068401C11540A2179480068801C1154D8
:101A900076480068401C7549086074480068FF215A
:101AA000C331E7E00EE100000A0A41542B434D47E1
:101AB000463D310A0A000000F8F0FF1F900C0000BC
:101AC000600800000A0A41542B435343413F0D0A6A
:101AD000000000000D0A41542B434D47523D310D8B
:101AE0000A000000040B0020A0F1FF1F4F574E45D5
:101AF000520000004C4F434154494F4E000000003B
:101B0000494E54455256414C000000005354415236
:101B1000540000004F574E45523100004F574E457C
:101B2000523200004F574E45523300004445425553
:101B30004700000052455345540000004950000042
:101B40004655454C204F4E004655454C204F464685
:101B50000000000049474E4954494F4E204F4E0067
:101B600049474E4954494F4E204F46460000000019
:101B700074180020181A0020041A00203CF1FF1FDE
:101B8000D49000000D0A41542B434D47443D312C65
:101B9000340D0A00A019002041F1FF1FFCF0FF1FC7
:101BA0004F4B00000A41542B465343524541544584
:101BB0003D443A5C4C4F472E5458540D0A000000E7
:101BC0000A41542B46534352454154453D433A5CE8
:101BD0004C4F472E5458540D0A0000003016000098
:101BE0003130342E3233362E3230332E3400000072
:101BF00022F1FF1F32F1FF1F35353535000000009F
:101C00003100000008F1FF1F3B1A00200D0A41546B
:101C10002B435042573D312C222573222C3132392F
:101C20002C224F574E455231220D0A000D0A4154C5
:101C30002B435042573D322C222573222C3132390E
:101C40002C224F574E455232220D0A000D0A4154A4
:101C50002B435042573D332C222573222C313239ED
:101C60002C224F574E455233220D0A0004F0FF1F1D
:101C70005CF1FF1F884200DAC0E6FE480068FE4BB8
:101C8000FE4A19461C390090FD48FEF75CFCF948F5
:101C90000068F94BF94A19461C390090F948FEF7DB
:101CA00052FCF94803F094F901460490F64804F018
:101CB000ACFFF64AF6A1F448FEF766FBF248FFF7E0
:101CC00039FB92E0099800282CD0EA480068EA4BDA
:101CD000EA4A19461C390090E948FEF734FCEDA1A8
:101CE000ED4803F085F9FFF7D0F9ECA1EA4803F0DD
:101CF0007FF9FEF793FC2020E94988600A20FEF76F
:101D000096FB2020E64948600A20FEF790FBD94860
:101D10000068D94BD94A19461C390090E1A0FEF75A
:101D200012FC62E00898002824D01021E24804F058
:101D30006AFFE14820210B46042200910190032113
:101D4000D248FEF728FFDD480D212023052200910F
:101D500001900621CD48FEF71EFFFEF790FEC54814
:101D60000068C54BC54A19461C390090C448FEF7A7
:101D7000EAFB3AE00598002816D00220C8498039CD
:101D80008860FEF745FB7D20C000FEF750FBB94898
:101D90000068B94BB94A19461C39009000E037E099
:101DA000C7A0FEF7D0FB20E0002C14D00220BC49D5
:101DB00080394860FEF72CFB7D20C000FEF737FB22
:101DC000AC480068AC4BAD4A19461C390090BCA029
:101DD000FEF7B9FB09E0A7480068A74BA74A1946D8
:101DE0001C390090BCA0FEF7AEFB0020BF49087074
:101DF000FEF70EFB9F4800689F4BA04A083ABCA123
:101E00000090BCA0FEF79FFB7D20C000FEF70FFBFB
:101E10000FB0F0BDF0B589B00F20BB490860BB48DA
:101E20000078401CB949087008460078052801DD93
:101E300000200870FFF7A2F800BFB5480068B54958
:101E400009688842F9DBFEF7F1FF0020B04908601D
:101E5000B148FEF7E9FEB1490860B148FEF7E4FE7B
:101E6000039005F0DBFC06460F460022AD4B3046E2
:101E7000394605F029F90391029005F049FB0890D5
:101E80000022A84B3046394605F01EF9079106900E
:101E9000089805F094FB03910290079B069A05F0C1
:101EA000FBF804460D4600229E4B2046294605F0CD
:101EB00091FB04460D4600229B4B2046294605F027
:101EC00003F903910290089805F079FB01910090C5
:101ED000039B029A05F0C8F8059104900F219048E1
:101EE00004F093FE91A18E48059B049AFEF74CFAEC
:101EF0008F48FEF799FE039005F090FC06460F46CA
:101F00000022884B3046394605F0DEF803910290F6
:101F100005F0FEFA08900022824B3046394605F063
:101F2000D3F807910690089805F049FB03910290B9
:101F3000079B069A05F0B0F804460D460022794B3F
:101F40002046294605F046FB04460D460022764B06
:101F50002046294605F0B8F803910290089805F04C
:101F60002EFB01910090039B029A05F07DF80591EC
:101F700004900F216E4804F048FE6CA16C48059B4C
:101F8000049AFEF701FA6B49434803F031F86AA15D
:101F9000414803F02DF869493F4803F029F86849A2
:101FA0003D4803F025F865490C313B4803F020F823
:101FB0006449394803F01CF809B0F0BD38B5FFF7A3
:101FC00032F8FFF7BEFA05202C4B083B2B4A48A1FC
:101FD00000905DA0FEF7B7FA45A12C4804F0A2FDE1
:101FE000044626490839294804F09CFD054664202A
:101FF000FEF71DFA0420214B083B57A23CA100909C
:102000005AA0FEF7A0FAFFF705FF24A1224802F02C
:10201000EFFFFFF7FFFE21A11F4802F0E9FFFFF7E6
:10202000F9FE1EA11C4802F0E3FF0420124B134AE4
:102030002FA1009051A0FEF786FAFFF7EBFE17A143
:10204000154802F0D5FF0B4800680B4B0B4A28A13E
:1020500000904EA0FEF777FAFFF773FA052050A321
:10206000064A23A1009050A0FEF76DFAFFF7D2FEBA
:102070000AA1A1E0F8F0FF1F900C0000600800002A
:10208000841B0000A019002074180020A0F1FF1F7D
:10209000257300000A0000002805002043480A00BC
:1020A00080F00F400A0A2041542B4346554E3D31E3
:1020B0002C310D0A0000000022F1FF1F32F1FF1F3A
:1020C0000D0D0A41542B434D47443D312C340D0A2C
:1020D0000A0A0A0A000000000D0A2041542B434D51
:1020E00047443D312C340D0A0000000069F1FF1F08
:1020F0004F4B00000D0A2041542B434D47443D31C6
:102100002C340D0A0D0A00006CF1FF1F00F0FF1FB8
:1021100010F1FF1FFCF0FF1F3CF1FF1F0CF1FF1F30
:10212000041A00200000594000004E4025660000BF
:10213000181A0020541A00202C200000C41500009A
:10214000F40B0020580C00200D0A41542B43465537
:102150004E3D300D0D0A0A004E4F5420494E534556
:10216000525445440D0A4F4B000000000D0A4154E3
:102170002B4346554E3D310D0A0000000D0A4154D7
:102180002B434950534855540D0A00000D0A415441
:102190002B435354543D22777777220D0A000000D9
:1021A00044454143540000000D0A41542B43494922
:1021B00043520D0D0A000000F44802F019FFFFF72A
:1021C000C0F9FFF727FEF249F04802F011FFFEF7D1
:1021D0001FF9F0A0FEF73FF9FEF71AF91420FEF7F9
:1021E00026F9FFF7AEF9EF4BEF4AF0A1F748FEF7FB
:1021F000CBF8F7480068F74BF74AF8A10090F3488E
:10220000FEF7A1F9FEF704F9F1480068F5A3F24AD8
:10221000F8A10090F8A0FEF796F9002038BD30B57F
:1022200003460C461946184615E00D780570491C02
:102230000578A5420DD0057895420AD00578202D65
:1022400007D005782F2D04D005783A2D01D001252F
:1022500000E0002528180D78002DE6D1057030BD6E
:10226000F8B505460E460027002407E0285D0A2839
:1022700003D1B74201DA7F1C0094641C284602F0A7
:10228000A7FEA042F2D80098F8BDF8B506460C4665
:102290000027002504E0605DB04200D17F1C6D1C6A
:1022A000204602F095FEA842F5D83846F8BDF0B5B4
:1022B0008DB000200A90099004900390801E0B902E
:1022C0006421C24804F0A1FCCF4AD0A1BF48FEF768
:1022D0005BF8BF480068BF4BBF4A0832D2A10090EC
:1022E000BA48FEF730F9D1480D212023032200918E
:1022F00001900121CE48FEF74EFCCC48FEF794FC3D
:102300000C9000210C9806F08BFB01D1C94C00E029
:102310000024C9490C9805F0ABFA7F21C90501904A
:1023200006F038FB029005F053FB0B9000200A905A
:102330009DE2FEF778FE954802F04AFE01460290C3
:10234000924804F062FCFEF7A0FEB6A18F4802F0AE
:102350004FFE64219D4804F058FCAB4AABA19B485A
:10236000FEF712F89A4800689A4B9B4A0832AEA1D1
:1023700000909648FEF7E7F8AC480D212023032291
:10238000009101900121AA48FEF705FCA748FEF73D
:102390004BFC0C90A8490C9805F06AFA01218907BA
:1023A000019006F0F7FA029005F012FB0B90964AA6
:1023B000A2A186480A9BFDF7E7FF0520854B864AC8
:1023C000083299A100908148FEF7BDF898490A208B
:1023D000FFF75BFF0390039EAF21C900A04804F004
:1023E00014FC9F480A21B21E0B4600910190012166
:1023F0008F48FEF7D0FB8BA1994802F0F9FD6349A5
:10240000974802F0F5FD8A4802F0E2FD05462946AC
:10241000874804F0FAFB6E48006870A36E4A75A105
:10242000009075A0FEF78FF83E218148FEF714FB5F
:1024300008900898002879D0FDF7EAFF89497C4880
:1024400004F0E3FB864802F0C3FD05460020864900
:10245000086086490860864908600BE08048844A25
:102460001268815C834804F018F981480068401CB8
:102470007F4908607E480068A842EFDB1A217D484A
:1024800004F00BF91A217B4804F007F900BF7AA188
:10249000674804F047FB07464F49654804F042FB94
:1024A000079052A1624804F03DFB069074496048D1
:1024B00004F038FB0590002F0CD10798002809D1B3
:1024C0000698002806D10598002803D166480068C0
:1024D0000528DCDD0A20FDF7AAFFFDF799FF1A2188
:1024E000644804F0DAF80A20FDF7A1FF1A216148D8
:1024F00004F0D3F81A215F4804F0CFF81A215D48A0
:1025000004F0CBF83220FDF792FF5BA1484804F0BD
:1025100009FB00280BD0F11E5148FFF7A1FE0990DE
:1025200009990A9840180A90641CA0E10EE10A2259
:1025300011461648FFF773FE1549144802F058FD7E
:10254000FEF76CF8114802F043FD014602900F4877
:1025500004F05BFBFFF732FD3E213548FEF77CFAC5
:10256000002811D0FDF754FF3E49314804F04DFBDF
:10257000064802F02DFD054600203B4908603B4916
:1025800008603B49086089E0DDE000002805002084
:102590009C2000000A41542B43494653520D0D0A1A
:1025A0000000000032F1FF1F22F1FF1F0D0A41540D
:1025B0002B43495053544152543D22544350222CF2
:1025C000222573222C222573220D0A00A019002037
:1025D000F8F0FF1F900C000058080000434F4E4ECB
:1025E00045435400434F4E4E454354204641494CC9
:1025F000000000003E0000000D0A41542B434950EA
:1026000053454E440D0A000000F1FF1F0A41542BB0
:102610004653464C53495A453D25735C4C4F472E13
:102620005458540D0A0000004F4B00002C1A002093
:10263000A0F1FF1F7F969800008089440A41542B27
:102640004653524541443D25735C4C4F472E5458E8
:10265000542C312C313130302C25640D0A0000000F
:10266000681A00208813000014F0FF1F0CF0FF1FF1
:1026700004F0FF1F00B0064053454E44204F4B006E
:10268000A0210000FD48FE4A1268815CFD4804F06C
:1026900004F8FB480068401CF9490860F8480068E5
:1026A000A842EFDB1A21F74803F0F7FF1A21F5489B
:1026B00003F0F3FF00BFF449F44804F033FA07468F
:1026C000F349F24804F02EFA0790EF498C39EF48AD
:1026D00004F028FA0690EF49EC4804F023FA05903C
:1026E000002F0CD10798002809D10698002806D1A0
:1026F0000598002803D1E84800680528DBDD0A209A
:10270000FDF795FEFDF784FE1A21DE4803F0C5FFB4
:102710000A20FDF78CFE1A21DA4803F0BEFF1A21C9
:10272000D84803F0BAFF1A21D64803F0B6FF1420A8
:10273000FDF77DFED449D54804F0F4F9002801D115
:10274000FDF76CFF93E0FDF769FF90E00A22114668
:10275000CA48FFF764FDD149C84802F049FCFDF7BB
:102760005DFFC64802F034FC01460290C34804F005
:102770004CFAFFF723FC3E21C448FEF76DF9002810
:1027800073D0FDF745FEC649C04804F03EFABB4889
:1027900002F01EFC05460020BF490860C1490860E0
:1027A000B74908600BE0B548B54A1268815CB54886
:1027B00003F073FFB2480068401CB1490860B0489C
:1027C0000068A842EFDB1A21AE4803F066FF1A2129
:1027D000AC4803F062FF00BFAB49AC4804F0A2F97B
:1027E0000746AB49A94804F09DF90790A6498C39E2
:1027F000A64804F097F90690A649A44804F092F977
:102800000590002F0CD10798002809D106980028C0
:1028100006D10598002803D19F4800680528DBDD14
:102820000A20FDF704FEFDF7F3FD1A21954803F099
:1028300034FF0A20FDF7FBFD1A21924803F02DFF1B
:102840001A21904803F029FF1A218E4803F025FF32
:102850001420FDF7ECFD8C498C4804F063F9002846
:1028600005D1FDF7DBFE02E0FFE7FDF7D7FE0B9891
:10287000844200DC5DE50B98002815D08A4884422C
:1028800012D06421894804F0C0F9894A89A1874897
:10289000FDF77AFD8E4800688E4B7D4A08328EA186
:1028A00000908248FDF74FFE0DB0F0BDF0B585B049
:1028B000204602F08DFB01460090204604F0A3F96B
:1028C000384602F085FB01460090384604F09BF93B
:1028D0003E216E48FEF7C0F803900398002874D09C
:1028E000FDF796FD6E49694804F08FF97BA16348B6
:1028F00002F07EFB614802F06BFB05460020664952
:102900000860684908605E4908600BE05B485C4A03
:102910001268815C5B4803F0C0FE59480068401CA7
:102920005749086056480068A842EFDB1A2155480D
:1029300003F0B3FE1A21534803F0AFFE00BF524923
:10294000524804F0EFF804465149504804F0EAF8C0
:1029500002904D498C394D4804F0E4F801904D49FE
:102960004A4804F0DFF80646029800280AD1019888
:10297000002807D1002E05D1002C03D1464800685D
:102980000528DCDD1A213F4803F087FE1A213D4867
:1029900003F083FE1A213B4803F07FFE1A213948D9
:1029A00003F07BFE4E480068012806D14D480068C0
:1029B0004D49086000204A4908601420FDF737FDA2
:1029C0003149324804F0AEF80446002C54D11A21A3
:1029D0002C4803F062FEFDF71BFD0A20FDF727FDE2
:1029E0001A21284803F059FEFDF712FD0A20FDF7D1
:1029F0001EFD1A21234803F050FEFDF709FD0A20B1
:102A0000FDF715FD0A2211461C48FFF708FC234973
:102A10001A4802F0EDFAFDF701FE184802F0D8FA64
:102A200001460090154804F0F0F82D480068012890
:102A300009D02D4800682B49086004202A49086005
:102A4000012027490860FEF7EEFAFDF7E1FCFEF7EA
:102A50001CFB1249094802F0CBFAFFF7AFFAFDF769
:102A6000D7FC3E210948FDF7F7FF039003980028A3
:102A70007ED0FDF7CDFC39E0ADE000002805002058
:102A800004F0FF1F00B0064078260000A0F1FF1FF1
:102A900058080000A021000014F0FF1F9C20000037
:102AA000881300000CF0FF1F7F969800A0190020EB
:102AB00000F1FF1F0A41542B4653435245415445F0
:102AC0003D25735C4C4F472E5458540D0A000000AE
:102AD000F8F0FF1F900C00004F4B00000A0A0000A6
:102AE00024F0FF1F20F0FF1FFCF0FF1FFD49FE48F0
:102AF00004F08BF8FDA1FE4802F07AFAFC4802F0DF
:102B000067FA05460020FB490860FB490860FB495D
:102B100008600BE0F648F94A1268815CF84803F057
:102B2000BCFDF6480068401CF4490860F3480068A2
:102B3000A842EFDB1A21F24803F0AFFD1A21F0485A
:102B400003F0ABFD00BFEF49E74803F0EBFF04469D
:102B5000ED49E54803F0E6FF0290EA498C39E24886
:102B600003F0E0FF0190E949DF4803F0DBFF00E0FC
:102B70002EE00646029800280AD10198002807D1C5
:102B8000002E05D1002C03D1DA4800680528DADDD3
:102B90001A21DB4803F081FD1A21D94803F07DFD9D
:102BA0001A21D74803F079FD1A21D54803F075FDA5
:102BB0001420FDF73CFCD349CB4803F0B3FF074694
:102BC000002F02D1FDF72AFD07E0FFF770FB04E0BC
:102BD000FDF724FD01E0FFF76AFBC54802F0F8F9B4
:102BE00001460090C24804F010F81A21C44803F0CE
:102BF00054FD05B0F0BDF0B585B0204602F0E8F90F
:102C000001460090204603F0FEFF384602F0E0F94E
:102C100001460090384603F0F6FF3E21B248FDF72A
:102C20001BFF03900398002874D0FDF7F1FBAD491A
:102C3000AD4803F0EAFFB6A1AD4802F0D9F9AC48BF
:102C400002F0C6F905460020AA490860AA490860B2
:102C5000AA4908600BE0A648A84A1268815CA84807
:102C600003F01BFDA5480068401CA4490860A34868
:102C70000068A842EFDB1A21A14803F00EFD1A21DB
:102C80009F4803F00AFD00BF9E49974803F04AFFA2
:102C900004469D49944803F045FF029099498C39B8
:102CA000914803F03FFF019098498F4803F03AFFA5
:102CB0000646029800280AD10198002807D1002E64
:102CC00005D1002C03D18B4800680528DCDD1A21D2
:102CD0008B4803F0E2FC1A21894803F0DEFC1A213C
:102CE000874803F0DAFC1A21854803F0D6FC8948AE
:102CF0000068012806D188480068884908600020DB
:102D0000844908601420FDF792FB7E49764803F061
:102D100009FF0446002C7DD11A21794803F0BDFC3F
:102D2000FDF776FB0A20FDF782FB1A21744803F0B9
:102D3000B4FCFDF76DFB0A20FDF779FB1A21704802
:102D400003F0ABFCFDF764FB0A20FDF770FBFDF719
:102D500065FC674802F03CF901460090644803F0C6
:102D600054FF6C480068012809D06C4800686A4923
:102D70000860042069490860012066490860FEF780
:102D800052F9FDF745FBFEF780F96549584802F016
:102D90002FF9FFF713F9FDF73BFB3E215248FDF7F2
:102DA0005BFE03900398002874D0FDF731FB4D497A
:102DB0004D4803F02AFF4DA14D4802F019F94C4847
:102DC00002F006F9054600204A4908604A490860B1
:102DD0004A4908600BE04648484A1268815C484806
:102DE00003F05BFC45480068401C444908604348C8
:102DF0000068A842EFDB1A21414803F04EFC1A217B
:102E00003F4803F04AFC00BF3E49374803F08AFEC2
:102E1000044600E041E03C49334803F083FE029061
:102E200038498C39304803F07DFE019037492E48EF
:102E300003F078FE0646029800280AD1019800287F
:102E400007D1002E05D1002C03D12A48006805289F
:102E5000DADD1A212A4803F020FC1A21284803F061
:102E60001CFC1A21264803F018FC1A21244803F000
:102E700014FC1420FDF7DBFA22491B4803F052FE34
:102E80000746002F03D1FDF7C9FB08E002E0FFF77A
:102E90000EFA04E0FDF7C2FB01E0FFF708FA144860
:102EA00002F096F801460090114803F0AEFE1A2198
:102EB000134803F0F2FB05B0F0BDF0B587B0204633
:102EC00002F086F801460190204603F09CFE384649
:102ED00002F07EF801460190384603F094FE3E2150
:102EE00001481FE088130000A0F1FF1F0A00000046
:102EF0002805002014F0FF1F0CF0FF1F04F0FF1F37
:102F000000B006407826000058080000A02100000C
:102F10000A0A000024F0FF1F20F0FF1FFCF0FF1F33
:102F20009C200000FDF798FD04900498002870D0C4
:102F3000FDF76EFAF849F94803F067FEF8A1F94881
:102F400002F056F8F74802F043F805460020F6492B
:102F50000860F6490860F64908600BE0F148F44A59
:102F60001268815CF34803F098FBF1480068401C4C
:102F7000EF490860EE480068A842EFDB1A21ED48EF
:102F800003F08BFB00BFEC49E44803F0CBFD0446A3
:102F9000EA49E24803F0C6FD0390E7498C39DF486F
:102FA00003F0C0FD0290E649DC4803F0BBFD064695
:102FB000039800280AD10298002807D1002E05D1D5
:102FC000002C03D1D84800680428DCDD1A21D94838
:102FD00003F063FB1A21D74803F05FFB1A21D548A1
:102FE00003F05BFB1A21D34803F057FBD548006878
:102FF000012806D1D4480068D44908600020D1498E
:1030000008603220FDF713FACB49C44803F08AFD6B
:103010000446002C7ED11A21C64803F03EFBFDF782
:10302000F7F90A20FDF703FA1A21C24803F035FB2D
:10303000FDF7EEF90A20FDF7FAF91A21BD4803F071
:103040002CFBFDF7E5F90A20FDF7F1F9FDF7E6FAAB
:10305000B44801F0BDFF01460190B24803F0D5FD30
:10306000FEF713F8BA49AF4801F0C2FFB54800684F
:10307000012809D0B5480068B34908600420B34965
:1030800008600120AF490860FDF7CDFFFDF7C0F9EA
:10309000FEF794FFFDF7BCF93E21A048FDF7DCFCEC
:1030A0000490049800287DD0FDF7B2F99A499B4816
:1030B00003F0ABFD9AA19B4801F09AFF994801F0FB
:1030C00087FF05460020984908609849086098499C
:1030D00008600BE09348964A1268815C954803F0BB
:1030E000DCFA93480068401C9149086090480068E9
:1030F000A842EFDB1A218F4803F0CFFA00BF8E49B8
:10310000864803F00FFD04468C49844803F00AFD0D
:10311000039000E066E088498C39804803F002FDA6
:10312000029087497D4803F0FDFC0646039800287D
:103130000AD10298002807D1002E05D1002C03D116
:10314000794800680428DADD0A20FDF770F9FDF7F8
:103150005FF91A21774803F0A0FA0A20FDF767F912
:103160001A21744803F099FA1A21724803F095FA6B
:103170001A21704803F091FA1A216E4803F08DFA73
:10318000FDF746F90A20FDF752F91A21694803F0C4
:1031900084FAFDF73DF90A20FDF749F95F4801F08F
:1031A00017FF00E019E006901A21624803F075FA53
:1031B000FDF72EF90A20FDF73AF93220FDF737F92D
:1031C0005D49564803F0AEFC0746002F02D1FDF7DB
:1031D00025FA09E0FFF76BF806E0FDF71FFA01207A
:1031E000059001E0FFF763F84E4801F0F1FE01465B
:1031F00001904C4803F009FD1A214E4803F04DFAA6
:1032000007B0F0BD38B553480068534B4B4A0832FD
:1032100052A1009052A0FDF796F96421574803F09F
:10322000F4FC5748006801F0D3FEC41C224655A1A7
:103230005248FDF7A9F80A20474B404A08325AA1E4
:1032400000904E48FDF77FF958A0FDF704F90020E3
:10325000374908600CE04A480068354A1268815CCA
:10326000344803F01AFA32480068401C30490860BC
:103270004348006801F0ACFE2D4909688842EAD84D
:103280004AA0FDF7E8F80020284908604848494965
:10329000086010E047480068401E464908607D21EC
:1032A00009014448006803F0BCFC002903D10A214D
:1032B000204803F0F2F928491C39184803F032FC81
:1032C000002809D13B480068012805DB1B49134849
:1032D00003F028FC0028DDD038BD1CB56421274848
:1032E00003F093FC34A12548FDF74EF80A201A4B51
:1032F000124A083219A100902048FDF724F920480D
:1033000000687C210B4602220091019001210348B4
:10331000FDF741FC1CBD000088130000A0F1FF1F59
:103320000A0000002805002014F0FF1F0CF0FF1F0A
:1033300004F0FF1F00B00640782600005808000087
:10334000A021000024F0FF1F20F0FF1FFCF0FF1F52
:103350009C200000F8F0FF1F900C00004F4B000075
:103360000A41542B46534352454154453D433A5C30
:1033700041504E2E5458540D0A000000A019002050
:1033800008F1FF1F0D0A41542B465357524954452B
:103390003D433A5C41504E2E5458542C302C2564F9
:1033A0002C31300D0A0000003E0000007C000000BF
:1033B0001F4E00001CF0FF1F0A41542B465352457C
:1033C00041443D433A5C41504E2E5458542C302CCD
:1033D0003130302C310D0A001CB56421F54803F062
:1033E00014FCF5A1F348FCF7CFFF0A20FB4BFC4A85
:1033F000FCA10090EF48FDF7A6F8FB487C210B46A6
:103400000322009101900221F848FDF7C4FBF8481F
:103410007C210B460522009101900421F348FDF721
:10342000BAFB1CBD1CB56421E24803F0EEFBF1A120
:10343000E048FCF7A9FF0A20E84BE94AE9A100901F
:10344000DC48FDF780F8F5487C210B46032200910B
:1034500001900221E548FDF79EFBF048FDF7B7FF1C
:10346000EF4908601CBDFEB53E21E048FDF7F4FAC7
:1034700002900298002870D0FCF7CAFFE949DB48A7
:1034800003F0C3FBE8A1E94801F0B2FDE74801F011
:103490009FFD04460020E6490860E6490860E649C9
:1034A00008600BE0E148E44A1268815CE34803F0FD
:1034B000F4F8E1480068401CDF490860DE48006815
:1034C000A042EFDB1A21DD4803F0E7F81A21DB48C0
:1034D00003F0E3F81A21D94803F0DFF800BFBF4931
:1034E0001C39C24803F01EFB0746BD490839BF48D6
:1034F00003F018FB0190D249BC4803F013FB009085
:10350000D049BA4803F00EFB0646019800280AD1BC
:103510000098002807D1002E05D1002F03D1C44800
:1035200000680A28DBDD0A20FCF781FFFCF770FF4A
:103530001A21C24803F0B1F80A20FCF778FF1A21DB
:10354000BE4803F0AAF81A21BC4803F0A6F81A21D5
:10355000BA4803F0A2F801E0FFE700BFA1A1A34829
:1035600003F0E0FA0546002D01D1FDF757F8FEBD46
:1035700070B504460D4616460020AF490860B248B3
:103580000068B249086000BFAC4803F093F8002817
:1035900018D0AA48C079AE49A74A12688854A648EC
:1035A0000068401CA4490860A7480068A749086053
:1035B000A1480068FF212B31884209DD00209E4987
:1035C000086005E0A1480068401EA049086000BFEF
:1035D00082491C399E4803F0A5FA00280FD1804982
:1035E0009B4803F09FFA002809D1984800680028FA
:1035F00005DD7A49964803F095FA0028C4D070BDDD
:10360000F8B504460E4615461F4600208A49086054
:103610008D4800688D49086000BF8E4803F04AF865
:10362000002818D08B48C0798949834A1268885489
:1036300081480068401C80490860834800688349CD
:1036400008607D480068FF212B31884208DD00209A
:103650007949086004E07D480068401E7B490860A5
:1036600021467B4803F05EFA00280FD131467848A6
:1036700003F058FA002809D174480068002805DDD5
:103680002946734803F04EFA0028C6D0F8BD70B53D
:103690000446002505E0615D6E4802F0FEFF681CEF
:1036A000C5B2605D0028F6D170BDF8B507460C467E
:1036B00015461E46664801F08BFC00906448009950
:1036C00003F0A3FAFDF7ABFB3846FFF7E0FF324605
:1036D00029462046069BFFF793FFFDF7A0FB5C48B9
:1036E000F8BDFFB581B005461F46002400200090BC
:1036F00000260A20FCF79BFE0F21384603F083FAD0
:1037000000BF00BF0AE0285D2C2801D1761C009480
:103710000398864201DBE124A400641C642CF2DBE4
:10372000002400260BE0285D2C2802D1761C474897
:1037300004600298864201DBE124A400641C642C2E
:10374000F1DB002406E0414800680019401C285CB9
:103750003855641C3D4900980968401A401EA04233
:10376000F1DC05B0F0BD08B5214B1F4A34494039A2
:103770001048FCF709FE38480068314B103B184AE6
:10378000083A194600900B48FCF7DDFEFEF78FFD66
:1037900008BD3249496B40221143304A516305212B
:1037A00009022F4A116251621421417080218170F7
:1037B00070470000A01900200A41542B465352457F
:1037C00041443D433A5C49505F504F52542E545847
:1037D000542C302C3130302C310D0A00900C00006C
:1037E000600800004F4B000022F1FF1FA0F1FF1FF7
:1037F00032F1FF1F0A41542B4653524541443D4389
:103800003A5C494E54455256414C2E5458542C3033
:103810002C3130302C310D0A0000000041F1FF1F27
:10382000FCF0FF1F881300000A000000280500209C
:1038300014F0FF1F0CF0FF1F04F0FF1F00B0064044
:10384000EC250000A02100001CF0FF1F08F0FF1F66
:10385000BC0C002000C00640F8F0FF1F00800440B0
:1038600040D0044000B5FE48FFF793FF00BD0020A4
:1038700000E0401C2828FCDB7047014608797047AF
:103880008178102291438170704781782022914382
:103890008170704700B503461846FFF7F6FF1846DB
:1038A000FFF7EEFF00BDEF4900E0491EC27802239A
:1038B0001A40002A01D10129F7DCC27802231A43F9
:1038C000C2707047817808221143817070470146A9
:1038D000C878C007C00F002801D101207047002020
:1038E000FCE70171704781780422114381707047B1
:1038F0008178102211438170704781782022114312
:103900008170704700B503461846FFF7F6FF18466A
:10391000FFF7EEFF00BD70B50446D148FFF7F2FF98
:103920003A21CF48FFF7DDFFCD48FFF7BCFFCC4879
:10393000FFF7CDFF2146CA48FFF7D3FFC848FFF77E
:10394000B2FFC748FFF7C3FFC548FFF7CCFF3B21D5
:10395000C348FFF7C6FFC248FFF7A5FFC048FFF7FF
:10396000B6FFBF48FFF78CFFBD48FFF7ABFFBC4871
:10397000FFF783FF0546BA48FFF795FFB848FFF702
:1039800089FFB748FFF779FF0546FFF770FF284624
:1039900070BD70B504460D46B148FFF7B3FF3A213C
:1039A000AF48FFF79EFFAE48FFF77DFFAC48FFF73B
:1039B0008EFF2146AA48FFF794FFA948FFF773FF3F
:1039C000A748FFF784FF2946A548FFF78AFFA448C8
:1039D000FFF769FFA248FFF77AFFA148FFF75AFFF8
:1039E000FFF745FF70BD81780822914381707047D1
:1039F000002181709C49496B802291439A4A51630E
:103A00007047F8B59948007847B299493846FCF7AD
:103A1000DBFB984908609848007847B29449243104
:103A20003846FCF7D1FB954908609548007847B2C5
:103A30008F4948313846FCF7C7FB924908608D48EA
:103A40000068404305468D48006840430646A81973
:103A5000FCF7F6FB8C49086088480068002805DA06
:103A60008648006840428949086003E0834800684E
:103A70008649086085490968C8018349096803F0D7
:103A8000C6F883490860084600687F2801D97F206E
:103A900008607F48006880007E4908587E490860B9
:103AA00076480068002803DD084600684042086048
:103AB00074480068044644432819FCF7C1FB774961
:103AC00008606C480068002805DA6A4800684042CF
:103AD0006E49086003E0674800686C4908606B49FC
:103AE0000968C8016D49096803F091F868490860E0
:103AF000084600687F2801D97F2008606448006874
:103B0000800064490858664908605A4800680028DF
:103B100003DD08460068404208603019FCF790FB5E
:103B20006049086055480068002805DA5348006875
:103B300040425649086003E0504800685349086015
:103B400052490968C8015749096803F060F85049AB
:103B50000860084600687F2801D97F2008604C482B
:103B6000006880004B4908584F4908604348006886
:103B7000002803DD0846006840420860F8BD42485E
:103B800000682D280FD2454800682D280BD24548E3
:103B900000682D2807D245480088002803D101205D
:103BA0004349087005E00020414908700A203F4958
:103BB0000880704710B5FFF755FE2A20FFF7ABFECF
:103BC000C4B2FE20204001462A20FFF7E2FEFE217B
:103BD0002046884304460220204301462A20FFF75E
:103BE000D8FE022004430120204301462A20FFF78B
:103BF000D0FE10BD70B586B00020FFF78CFE000728
:103C0000000F00287ED00120FFF785FE040202206D
:103C1000FFF781FE044320B280102649088003206C
:103C2000FFF779FE04020420FFF775FE044320B27B
:103C30008010214908800520FFF76DFE0402062050
:103C4000FFF769FE044320B280101C49088007205A
:103C5000FFF761FE04020820FFF75DFE04432FE03A
:103C6000006006400F2700000080044078F0FF1F2E
:103C7000240B002044F0FF1F7AF0FF1F48F0FF1FC5
:103C80007CF0FF1F4CF0FF1F50F0FF1F68F0FF1F7C
:103C90006CF0FF1F748C00005CF0FF1F54F0FF1FDE
:103CA00060F0FF1F58F0FF1F64F0FF1F2EF0FF1F92
:103CB00070F0FF1F72F0FF1F74F0FF1F76F0FF1F00
:103CC000FC4804600920FFF726FE04020A20FFF7E3
:103CD00022FE0443F84804600B20FFF71CFE040298
:103CE0000C20FFF718FE0443F44804605120FFF74E
:103CF00012FEF34908600120FFF70DFE000200B23A
:103D0000F04900E070E008800220FFF704FEED4972
:103D10000988084300B2EB49088008460021415E4B
:103D20000812E84908800320FFF7F5FD000200B201
:103D3000E54908800420FFF7EEFDE34909880843C0
:103D400000B2E149088008460021415E0812DE49C0
:103D500008800520FFF7DFFD000200B2DB49088084
:103D60000620FFF7D8FDD9490988084300B2D74992
:103D7000088008460021415E0812D4490880FFF7F8
:103D800040FEFFF7FCFE1620FFF7C5FD0446152098
:103D9000FFF7C1FD0546CD490020085ECC49096802
:103DA0004018C94A0021515ECA4A12688918039511
:103DB000049401910290C3490020085EC649096835
:103DC00040180090C5480068C54E36688319C5483C
:103DD0000068C54E36688219C4480068C44E36680B
:103DE0008119C448FCF7C2FA06B070BD10B50020B6
:103DF000C1490860C149C048006804F03BFE03D2D5
:103E00000020BF49086002E00120BD490860BC48AD
:103E10000068002805D1BB480068401CB94908600B
:103E200002E00020B749086010BDB748806B01214F
:103E300049020843B44988638815B44948608860DA
:103E4000B348406806210843B149486008464069C4
:103E500006210843AE49486102208860042088603A
:103E60007047A948806B0F2189020843A6498863DF
:103E70008815A8494863A849C861A649C863A649E6
:103E80004861A64948618861C8610862801CA449EC
:103E900048609F4840304069022188439C49403136
:103EA00048619B48C0304069802108439849C0312F
:103EB00048619C4840680521490708439949486082
:103EC0009848403840682021084396494039486066
:103ED0008F4880304068FF21C13108438C498031D0
:103EE000486008464068202108438949803148607D
:103EF0008C4840690521490708438A494861894837
:103F0000403840692021084386494039486180484B
:103F100080304069FF21E13108437D4980314861AB
:103F20008805804988608000886020207D4940396C
:103F30008860402076498031886080208860400019
:103F400088602020486070476F48806B0121C9025B
:103F500008436D49886374487049C8606A48806B3B
:103F6000012109030843684988636F486A498861E9
:103F70001F20002805DBC206D20E012191406B4AAA
:103F8000116000BF704700B564488030006A0821A6
:103F90000840002811D061488030006A08435F491A
:103FA0008031086262480068012108436049086066
:103FB00060480078401C5F49087057488030006AAC
:103FC00040210840002811D053488030006A08433F
:103FD000514980310862564800680121084354491C
:103FE0000860012054490870FCF712FAFCF7C6FF7C
:103FF00000BD7047012040074A4988608000486042
:104000002020484940394860704701204007454911
:1040100088608000886020204249403948607047AD
:10402000012040073F4948608000886020203D49CA
:10403000403948607047012040073A494860800095
:104040004860202037494039886070470120400788
:1040500034498860800048602020324940398860B7
:104060007047012040072F49886080008860202029
:104070002C494039886070470120400729498860F1
:10408000800048602020274940394860FF202949A6
:104090000870704710B588B01C22284901A8FCF7A9
:1040A00077F824490978890001AA505880470446C6
:1040B00008B010BD8CF0FF1F90F0FF1F94F0FF1FA1
:1040C00020F0FF1F78F0FF1F7AF0FF1F7CF0FF1F2A
:1040D000ACF0FF1FA8F0FF1FA4F0FF1F64F0FF1F4C
:1040E000A0F0FF1F60F0FF1F9CF0FF1F5CF0FF1FA0
:1040F00098F0FF1F809000000CF1FF1F0000A0400F
:10410000E0F0FF1F60F1FF1F0080044000900440BA
:1041100000F00F4040D0044000C0044000B0044014
:1041200000A0044000F10F4003010A0000E100E09C
:10413000E4F0FF1F00F0FF1F69F1FF1F588C000023
:104140000020F4498861F4484861052008617047FF
:10415000F048006940084000EE490861704770B5BA
:10416000EC4885698469281BEC4908602946ECA065
:10417000FCF7FCF82146F1A0FCF7F8F8E7480168E5
:10418000F5A0FCF7F3F870BD0CE0FE49FE4A1160A3
:1041900004E0FD490968491EFB4A1160FA490968B3
:1041A0000029F6DC0146401E0029EED17047F74891
:1041B000C06B0121C9060843F449C8632D20F449A6
:1041C00088600020C86008620846406A0821884369
:1041D000EF4948627047C106C90E20221143EC4ADC
:1041E000116070470146C806C00E20221043E84AFD
:1041F000106000BFE648006A802210400028F9D114
:1042000000BFE3480068802210400028F9D0E04851
:10421000006980B2704708B5DE4800690221084095
:10422000002803D0DCA0FCF716F902E0DFA0FCF7C1
:1042300012F9002C07D10120E14908608020D549FE
:10424000803148602DE08020D24980318860DC4890
:104250000068012821D10020D94908607D20C000D4
:10426000FCF7E5F8D7480068D74BD84A19461C39FF
:104270000090D748FCF767F9D2480068D24BD34A80
:1042800019461C390090D2480830FCF75CF97D20B3
:10429000C000FCF7CCF8FCF7BBF88020BD498031AA
:1042A0008860FCF76BFEFCF757FD08BD08B5FCF70E
:1042B000BAFEFDF746F90520C34BC44AC5A10090DC
:1042C000C548FCF740F9FCF7E0FEC349E039C348B4
:1042D00000F08EFEFDF735F9BA480068BA4BBB4ACC
:1042E000BCA10090BC481030FCF72DF9FDF729F96E
:1042F0000520B94B2433B54AB6A1009018460830C2
:10430000FCF721F9FCF7C1FEB349E039B34800F0EE
:104310006FFEFDF716F9FCF77BF8B148FCF79BF848
:10432000FCF776F81420FCF782F8FDF70AF9AD4B9C
:10433000AD4AAB491831AD48FCF726F8A1480068F2
:10434000A24B083BA14AA64948310090A748FCF778
:10435000FAF8FCF75DF8FCF798FE9F49E0399F48B2
:1043600000F046FE974800689D4B5033974A083A44
:104370009FA1009018461430FCF7E5F8FEF79DFD6C
:1043800008BD08B580208349803188606420FCF72F
:104390004EF898A0FCF75FF81A219B4802F07DF9CF
:1043A0001A21994802F079F91A21974802F075F913
:1043B000FCF734F983480068834B844A19461C395A
:1043C000009092A0FCF7BFF820207249403188602D
:1043D0003220FCF72CF820206E4940314860322012
:1043E000FCF725F808BD08B500BF00BF7B4800F00A
:1043F000EFFD04462146794802F007FC884800F0AA
:10440000E7FD04462146864802F0FFFB00F0B0FFBE
:10441000FFF796FE052083490860FFF722FDFFF7AE
:1044200004FDFFF791FD002065490860802059498F
:1044300080318860FFF7BBFE01217D20C00001F0C4
:10444000B4FE0220534940394860042048600020EF
:104450007449086004F058FAFEF7D4FE5948006821
:10446000594B5A4A5BA1009018460C30FCF76BF888
:1044700054480068544B554A56A100906A48FCF7CE
:1044800062F850480068504B504A52A1009066486C
:104490001C30FCF758F84B4800684B4B4B4A4DA179
:1044A00000904B487438FCF74EF80D225E493C31C1
:1044B0004D4802F04BFB4B485B4954310A8802805F
:1044C0004988418059485AA109780170FCF7D7FA08
:1044D000FCF78DFF5548FCF77AFF5249086004202D
:1044E0003A4B083B394A3BA100903B483438FCF733
:1044F0002AF8FBF78DFF0720344B083B4DA251A152
:10450000009035481038FCF71EF802202E4B2F4A39
:1045100019469BE000E000E03F9C0000F0F0FF1F28
:104520007379737469636B2073746172742076613C
:104530006C75653A20307825780A0D0073797374AC
:1045400069636B20656E642076616C75653A203016
:104550007825780A0D0000007379737469636B2005
:1045600063757272656E742076616C756520726514
:104570006164206F766572686561643A20307825E1
:10458000780A0D00881300005CF1FF1F00800440D2
:1045900000B0034040F00F4049676E6974696F6E68
:1045A0002073656E73657320310D0A0049676E696B
:1045B00074696F6E2073656E73657320300D0A0029
:1045C000F4F0FF1FF8F0FF1F900C000060080000DF
:1045D000A41600004F4B00007C210000280500209D
:1045E0009425000032F1FF1F22F1FF1FA0190020C7
:1045F0003E000000486172644661756C742052652B
:104600007365740D0A00000000B006400A0A2041DC
:10461000542B434D47443D312C340D0A000000001B
:1046200074180020FCF0FF1FA41B000041F1FF1FC5
:10463000350000004E4F5420494E534552544544D6
:104640000000000052656164790000001C39009090
:10465000FA48FBF778FFFA4800F0BAFC022804D9C0
:1046600001204007F749886003E001204007F54931
:1046700048606420FBF7DBFE0220F34BF34A194647
:104680001C390090ED48FBF75EFFED4800F0A0FC00
:10469000022804D901204007EA49886003E001208C
:1046A0004007E84948606420FBF7C1FEE84800681D
:1046B000E54BE64A19461C390090E6A0FBF743FF9C
:1046C000FCF7E3FCE748FBF7C6FEE7A0FBF7C3FEF9
:1046D000DF480068DC4BDD4A19461C390090E4A035
:1046E000FBF731FFDA480068D74BD84A19461C3926
:1046F0000090E3A0FBF727FF0A20FBF798FED448C1
:104700000068D14BD14A19461C390090DFA0FBF755
:104710001AFFFBF77DFE0A20FBF789FECC480068F4
:10472000C94BCA4A19461C390090DDA0FBF70BFFA4
:1047300004F0AEF8FCF705FFFFF76DFD0220C24B59
:10474000C24A19461C390090BC48FBF7FCFEBC4825
:1047500000F03EFC022804D90120C007B949886056
:1047600003E00120C007B74948606420FBF75FFE03
:10477000FFF707FE00BF2020B249803948600A20B9
:10478000FBF755FE0A21CA4801F087FF1A21C848E5
:1047900001F083FF0220AC4BAC4A19461C39009053
:1047A000A648FBF7D0FE6420FBF741FEE3E7C148D3
:1047B0000068401CBF490860BF480068401CBE49F3
:1047C0000860BE480068401CBC490860BC480068DE
:1047D000401CBB490860BB480068401CB9490860E0
:1047E000B5480068012806D0022808D003280AD05E
:1047F000042813D10BE00220B34948600EE00220E8
:10480000B14988600AE00420AF49486006E004200E
:10481000AD4988600020A849086000BF00BFAB48D0
:10482000006880210843A9490860C12008607047DA
:1048300010B5FFF7DFF9A64800684042A5490860B7
:10484000A54800684042A5490860A5480068404264
:10485000A4490860A4480021415E4842A349086079
:10486000A3480021415E4842A2490860A2480021B5
:10487000415E4842A149086010BDF0B589B064218D
:104880009F4802F0C2F99F4A9F499D48FBF77CFD73
:104890006F4800686C4B6D4A9CA100909848FBF7EC
:1048A00052FE9B480D2120230622009101900121F8
:1048B0006348FCF770F99648FCF7B6F908909549FB
:1048C000089802F0D5FF7F21C905019004F062F835
:1048D000029003F07DF805460021089804F0A0F846
:1048E00000D100250024CAE1554800F071FB0146C3
:1048F0000290534802F089F99D21C900864802F0D0
:1049000084F964217E4802F080F99D20C000604354
:1049100003467C4A81A17A48FBF736FD0A204A4BC0
:104920004A4A19461C3900907548FBF70CFE444969
:104930000D20FDF7AAFC069077480D21009101900B
:104940000698421E0A2301213D48FCF724F9FCF792
:104950006AFBFBF75DFD434800F03AFB014602901D
:10496000404802F052F9FCF790FB75493D4800F0D1
:104970003FFBFBF753FE6421614802F046F9614AB0
:1049800061495F48FBF700FD314800682E4B2F4A14
:10499000083A5EA100905A48FBF7D5FD5C480D210E
:1049A000202306220091019001212548FCF7F3F80D
:1049B0005748FCF739F908905649089802F058FF13
:1049C0007F21C905019003F0E5FF029003F000F894
:1049D00005460021089804F023F800D10025184866
:1049E00000F0F6FA07901648079902F00EF91848F9
:1049F0000068454B303B154A083A52A100901846D2
:104A00001C30FBF7A0FD3E210D48FCF725F80646BB
:104A1000002E11D0FBF7FCFC4B49094802F0F5F8D9
:104A20003D4800F0D5FA0790002024490860474926
:104A300008604749086099E0E4E00000A41600001F
:104A4000A0F1FF1F00F10F40900C00006008000073
:104A5000F8F0FF1F0A0A41542B4353434C4B3D319E
:104A60000D0A0000280500200D0A0D0A00000000B4
:104A70000A0A41542B53443250434D3D300D0A0035
:104A80000A0A415426570D0A000000000A0A415440
:104A90002B465344524956453D310D0A0000000053
:104AA0000A0A41542B46534D454D0D0A00000000A3
:104AB00000B0064010F1FF1F18F1FF1F14F0FF1F98
:104AC00018F0FF1F1CF1FF1F00F00F400000044012
:104AD0005CF0FF1F98F0FF1F60F0FF1F9CF0FF1FAE
:104AE00064F0FF1FA0F0FF1F78F0FF1FA4F0FF1F6E
:104AF0007AF0FF1FA8F0FF1F7CF0FF1FACF0FF1F34
:104B0000A019002000F1FF1F0C2600004F4B0000F1
:104B10002C1A002000009D44681A00200A41542BE2
:104B20004653524541443D25735C4C4F472E5458E3
:104B3000542C312C313235362C25640D0A000000FE
:104B40009C2000003E000000881300000CF0FF1FB6
:104B500004F0FF1F9148924A1268815C914801F06D
:104B60009CFD8F480068401C8D4908600798401ED6
:104B70008B4909688842EDDC1A218A4801F08DFDD5
:104B80001A21884801F089FD00BF87A1874801F0FC
:104B9000C9FF05908649854801F0C4FF0490854906
:104BA000824801F0BFFF03908349804801F0BAFFBB
:104BB0000746059800280BD10498002808D10398CF
:104BC000002805D1002F03D17C4800680628DCDDD1
:104BD0000A20FBF72CFCFBF71BFC1A21714801F0A3
:104BE0005CFD0A20FBF723FC1A216E4801F055FDFD
:104BF0001A216C4801F051FD1A216A4801F04DFD5F
:104C0000641C3CE0FBF70AFD6D4800F0E1F9014649
:104C100002906B4801F0F9FFFDF7D0F9FBF7FEFCBD
:104C20006421684801F0F1FF674A62492031654814
:104C3000FBF7AAFB65480068654B5D4A08325AA13C
:104C400000906048FBF77FFC62480A212023022283
:104C50000091019001215548FBF79DFF5D48FBF74E
:104C6000E3FF08905C49089802F002FE7F21C90525
:104C7000019003F08FFE029002F0AAFE0546AC42BE
:104C800000DA31E6002D12D064214E4801F0BDFF5C
:104C90004D4A52494B48FBF777FB4C4800684C4B58
:104CA000434A083240A100904648FBF74CFC09B04B
:104CB000F0BD3EB545480068454B3D4A08323AA133
:104CC000009047A0FBF73FFC02A82C210B460222D4
:104CD0000091019001213548FBF75DFF6846007A9D
:104CE0000446303C230003F0A6FD064B041222309C
:104CF0003F4B012040073E4948608000486020202B
:104D00003B494039486000063949886043E001204A
:104D100040073749486080004860202034494039C6
:104D200048600006324988608000886033E00120D6
:104D300040072F4948608000486020202C494039B6
:104D4000486080062A49886025E0012040072849FC
:104D500048608000486020202549403948608860CC
:104D600080062349886016E00120400720494860FA
:104D70008000486020201E494039486088600AE071
:104D8000012040071A4948608000486020201849E7
:104D90004039486000BF00BF3EBD7047681A002020
:104DA00004F0FF1F00B006404F4B0000A0F1FF1FB2
:104DB00058080000EC250000A021000014F0FF1F9F
:104DC00028050020A019002000F1FF1FF8F0FF1FA8
:104DD000900C00002C1A002000009D44B42A000012
:104DE0000D0A41542B43494E443F0D0A0000000078
:104DF00000F10F400146202901D0092901D10120ED
:104E000070470020FCE70146302901DB392907DD26
:104E1000412901DB5A2903DD612903DB7A2901DC01
:104E2000012070470020FCE70146302903DB3929C7
:104E300001DC012070470020FCE70146412903DB2B
:104E40005A2901DC012070470020FCE730B50346F9
:104E50000C4600201AE019785B1C2278641C61293A
:104E600004DB7A2902DC0D46203DE9B2612A04DB2D
:104E70007A2A02DC1546203DEAB28D1A281E00D09F
:104E800006E0002901D0002A00D101E00028E2D08C
:104E900000BF30BDF8B503460C461546002600207D
:104EA00000901BE019785B1C2278641C612904DBEC
:104EB0007A2902DC08462038C1B2612A04DB7A2A4A
:104EC00002DC10462038C2B2881A0090002800D0B8
:104ED00008E0002901D0002A00D103E03046761C0A
:104EE000A842DFDB00BF0098F8BDFEB506460C46C1
:104EF0000020029001900090002E05D0002A03DBD4
:104F0000012A01D0242A04DD002C00D026600020D4
:104F1000FEBD334600E05B1C1878FFF76BFF0028EE
:104F2000F9D118782D280ED0302810D1587878284B
:104F300002D05878582805D1002A01D0102A01D172
:104F400010229B1C04E0012000905B1C00E000BFCD
:104F500000BF002A00D10A221F4628E02846FFF79A
:104F600052FF002802D10120019023E02846FFF7DC
:104F70005BFF002801D0303D07E02846FFF75DFFCA
:104F8000002801D0373D00E0573D954202DB01206B
:104F900001900FE00098002804D002985043401B75
:104FA000029003E002985043401902907F1C387829
:104FB000051ED3D100BF002C00D027600198002827
:104FC00004D0002C00D026600020A1E702989FE7C3
:104FD00010B501460A460023002A01D1002010BD69
:104FE00000E05B1C1478521C002CFAD11846F6E73E
:104FF000F0B505460E463746002D0ED0002E0CD0DB
:105000002846FFF7E5FF441903E0387820707F1C3D
:10501000641C38780028F8D120702846F0BDF7B518
:1050200005460E463746002D17D0002E15D00298A3
:10503000002812DD2846FFF7CBFF441903E038783B
:1050400020707F1C641C3878002804D00298411E10
:1050500002910028F3DC002020702846FEBD10B528
:105060000A460146134600280AD0002A08D003E069
:105070001C780C705B1C491C1C78002CF8D10C703F
:1050800010BD70B50B4601461C46002811D0002B00
:105090000FD0002A0DDD03E025780D70641C491C3B
:1050A0002578002D03D01546521E002DF4DC002576
:1050B0000D7070BD30B503460C461A46214606E019
:1050C00010780D78A84200D004E0521C491C0878E2
:1050D0000028F5D100BF10780D78401B30BD70B5A9
:1050E00004460D4623462946002A01DC002070BDF7
:1050F0000AE018780E78B04200D008E0501E021E78
:1051000000D104E05B1C491C08780028F1D100BFE5
:1051100018780E78801BEAE7F7B581B00199029CF8
:10512000019900291CD00298002819D0002A17D014
:1051300093079B0FD01A8008009001E001CC01C1B9
:105140000098471E00970028F8D10D46264603E038
:1051500030782870761C6D1C18465B1E0028F7D12D
:10516000019804B0F0BD30B50B460146002808D0C8
:10517000002A06D001E00B70491C1446521E002C78
:10518000F9D130BD10B58C48406A072109070840A5
:10519000000F030003F04FFB0504080C1014180067
:1051A00086A0FBF7E3F813E086A0FBF7DFF80FE03B
:1051B00086A0FBF7DBF80BE086A0FBF7D7F807E04B
:1051C00086A0FBF7D3F803E086A0FBF7CFF800BF7B
:1051D00000BF7948406A072109060840000E0428EC
:1051E00004D0052806D006280CD107E087A0FBF7DD
:1051F000BDF80BE086A0FBF7B9F807E085A0FBF748
:10520000B5F803E084A0FBF7B1F800BF00BF6A481F
:10521000406A0007000F030003F00DFB09060A0EA9
:105220002212161A221E220086A0FBF79FF81BE00E
:1052300086A0FBF79BF817E086A0FBF797F813E032
:1052400086A0FBF793F80FE086A0FBF78FF80BE042
:1052500086A0FBF78BF807E086A0FBF787F803E052
:1052600087A0FBF783F800BF00BF5348406A0721BF
:1052700009050840000D012803D18CA0FBF776F842
:1052800003E094A0FBF772F800BF00BF4A48406AF1
:10529000072109040840000C030003F0CCFA0805BC
:1052A000090D1115191D212595A0FBF75FF81FE0C9
:1052B00099A0FBF75BF81BE09CA0FBF757F817E001
:1052C0009FA0FBF753F813E0A2A0FBF74FF80FE005
:1052D000A5A0FBF74BF80BE0A9A0FBF747F807E008
:1052E000ADA0FBF743F803E0B1A0FBF73FF800BF28
:1052F00000BF31484030C0680F2109060840000E49
:1053000005281AD006DC00280BD001280DD0032870
:1053100023D10EE0072814D0092816D00F281CD15D
:1053200017E0AAA0FBF722F81BE0B8A0FBF71EF8D5
:1053300017E0C6A0FBF71AF813E0D3A0FBF716F8A6
:105340000FE0E0A0FBF712F80BE0EDA0FBF70EF882
:1053500007E0DCA0FBF70AF803E0F8A0FBF706F88B
:1053600000BF00BF0F242146FCA0FAF7FFFF10BDCD
:1053700010B50020FE49086000F060FA53A0FAF76B
:10538000F5FF00F083FFFFF7FDFE10BD10B5032011
:10539000F849C87100208871487108710120C873EC
:1053A0008020087000BFF348007880210840002862
:1053B000F9D0F048C17ADFE1008004400A0D4B4C7F
:1053C000300000000A0D4B4C310000000A0D4B4C20
:1053D000320000000A0D4B4C330000000A0D4B4C0C
:1053E000340000000A0D556E7265636F676E697A4E
:1053F0006564204B696E657469732066616D696CC4
:1054000079206465766963652E0A0D00340A0D0003
:10541000350A0D00360A0D000A0D556E7265636F70
:10542000676E697A6564204B696E65746973207371
:1054300075622D66616D696C792064657669636556
:105440002E0A0D00313670696E0A0D003234706913
:105450006E0A0D00333270696E0A0D0034387069BF
:105460006E0A0D00363470696E0A0D0038307069AE
:105470006E0A0D0031303070696E0A0D00000000B8
:105480000A0D556E7265636F676E697A6564204BAD
:10549000696E65746973207061636B616765206311
:1054A0006F64652E20202020202000000A0D4C6F04
:1054B0007720506F776572204C696E65207769742C
:1054C0006820436F72746578204D302B0A0D0A0DE9
:1054D000000000000A0D556E7265636F676E697A91
:1054E0006564204B696E657469732066616D696CD3
:1054F00079206174747269627574652E0A0D0000FA
:105500005352414D202073697A653A20302E352060
:105510004B420A0D000000005352414D2020736998
:105520007A653A202031204B420A0D005352414DFA
:10553000202073697A653A202032204B420A0D0000
:105540005352414D202073697A653A202034204B14
:10555000420A0D005352414D202073697A653A206A
:105560002038204B420A0D005352414D20207369D0
:105570007A653A20203136204B420A0D00000000A7
:105580005352414D202073697A653A2020333220EE
:105590004B420A0D000000005352414D2020736918
:1055A0007A653A20203634204B420A0D0000000074
:1055B0000A0D556E7265636F676E697A6564205374
:1055C00052414D2053697A652E0A0D00466C617375
:1055D000682073697A653A202038204B4220707227
:1055E0006F6772616D20666C6173682C20302E329B
:1055F00035204B422070726F74656374696F6E2042
:10560000726567696F6E0A0D00000000466C617379
:10561000682073697A653A20203136204B42207029
:10562000726F6772616D20666C6173682C20302E1A
:1056300035204B422070726F74656374696F6E2001
:10564000726567696F6E0A0D00000000466C617339
:10565000682073697A653A20203332204B422070EB
:10566000726F6772616D20666C6173682C203120E7
:105670004B422070726F74656374696F6E2072653F
:1056800067696F6E0A0D0000466C6173682073696C
:105690007A653A20203634204B422070726F677250
:1056A000616D20666C6173682C2032204B42207043
:1056B000726F74656374696F6E20726567696F6E6F
:1056C0000A0D0000466C6173682073697A653A20A0
:1056D00020313238204B422070726F6772616D202A
:1056E000666C6173682C2034204B422070726F749A
:1056F000656374696F6E20726567696F6E0A0D006D
:10570000466C6173682073697A653A2020323536B9
:10571000204B422070726F6772616D20666C6173FE
:10572000682C2034204B422070726F74656374695A
:105730006F6E20726567696F6E0A0D0045525221C7
:105740002120556E646566696E656420666C6173C0
:10575000682073697A650A0D0000000053696C695E
:10576000636F6E207265762025640A0D00000000CC
:1057700000810440000002401CA0FAF7F7FD224817
:10578000817A22A0FAF7F2FD1F48417A1FA0FAF7AA
:10579000EDFD1D48017A1FA0FAF7E8FD03201A4924
:1057A000C871002088714871042008710120C873F5
:1057B0008020087000BF144800788021084000282D
:1057C000F9D01148C17A15A0FAF7D0FD0E48817AB8
:1057D00018A0FAF7CBFD0C48417A0CA0FAF7C6FDE9
:1057E0000948017A1448FAF7C1FD10BD466C61738F
:1057F0006820706172616D65746572207665727380
:10580000696F6E202564200000000240202564207E
:10581000000000002025640A0D000000466C617342
:10582000682076657273696F6E2049442025642074
:1058300000000000202564006857000010B54B48A8
:10584000806B1F2149020843484988634848807893
:1058500008210840002804D045488078084344497E
:105860008870444800684449086040484068012105
:10587000090408433D4948603F480468E10F09199D
:1058800048107D21C90001F0CCF93C490860374837
:10589000406803218906884301218906401833495D
:1058A00048607D21C9003448006801F0BAF93449E4
:1058B00008602E4840304068000F411C30480068A6
:1058C00001F0A5F92F4908602848403040680722B8
:1058D00012041040000C411C2A48006801F097F99E
:1058E0002949086001204002284948608860032057
:1058F000000227494860086026498860C860E122A4
:1059000052021E480168244800F0D9FEE1225202EA
:105910001D480168214800F05BFE4B22D2011A4865
:1059200001681F4800F054FE10BDFF2001301749E8
:105930000861084600690921090408431349086100
:105940001E20002805DBC206D20E01219140154A17
:10595000116000BF7047052000021349C86003486A
:105960004068402108430149486070470080044076
:1059700000D0074094F1FF1F78F1FF1F8CF1FF1F4B
:105980007CF1FF1F80F1FF1F84F1FF1F0090044096
:1059900000D0044000C0044000A0064000B0064013
:1059A00000C0064000E100E000B00440002076495D
:1059B00008607648806B4915084374498863012064
:1059C0000007724940314860714880687149084059
:1059D0006F4988600846C0686E4908406C49C860D5
:1059E0006D48407864210840242108436A49487082
:1059F00080206A4908709A20674908700846C07874
:105A0000C006C00EC87003200871002048714020F5
:105A1000487100BF604880790C2108400828F9D1FE
:105A200000BF5D488079402108400028F9D01A2045
:105A30005949087000BF584880790C2108400C284B
:105A4000F9D1704770B554480078C021084000284B
:105A500068D1514840794021084000284ED14E4835
:105A6000007804210840002815D14D4C4A480078A0
:105A700038210840C10801208840C5B22946204687
:105A800001F0C5F804464448407830210840002819
:105A900003D0640901E00124E4033F48C078E02119
:105AA0000840C106C90E002926D14011030002F0AA
:105AB000C2FE0805090D1115191D20230520C0017E
:105AC00044431AE005200002444316E00F20C001C1
:105AD000444312E00520400244430EE0B72080001A
