:020000040000FA
:1000000010050020F10000000D010000D5000000E7
:1000100000000000000000000000000000000000E0
:1000200000000000000000000000000011010000BE
:100030000000000000000000130100001501000096
:100040001701000017010000170100001701000050
:10005000D502000017010000170100001701000081
:100060001701000017010000170100001701000030
:1000700017010000FD040000170100001701000037
:100080001701000017010000170100001701000010
:100090001701000017010000170100001701000000
:1000A0000000000017010000170100001701000008
:1000B00031030000170100001701000017010000C4
:1000C0000348854600F07CF800480047E10800003E
:1000D0001005002004207146084202D0EFF3098089
:1000E00001E0EFF308807146004A10470903000061
:1000F00009480A4901600A4901600A4901600A4A3F
:100100000A4911600021016009480047FEE7FEE747
:10011000FEE7FEE7FEE7FEE70001005059000000A1
:10012000160000008800000060000050A55A000082
:10013000C100000030B50B460146002020220124FA
:1001400009E00D46D5409D4205D31D469540491B0B
:100150002546954040191546521E002DF1DC30BD54
:10016000F0B51FB40646002082B005464024019138
:1001700000901BE0019922460F46304600F042F8FD
:10018000049A059B801A994110D3104619462246BD
:1001900000F028F8361A8F410197224601200021ED
:1001A000009F00F01FF838184D4100902046641E53
:1001B0000028DFDC019B00982946324607B0F0BDDD
:1001C000064C0125064E05E0E36807CC2B430C3CAA
:1001D00098471034B442F7D3FFF776FF180C0000AD
:1001E000380C000010B5202A04DB0146203A91406B
:1001F000002010BD914020239C1A0346E340194380
:10020000904010BD10B5202A04DB0846203AD040AB
:10021000002110BD0B46D340D0402024A21A9140AB
:100220000843194610BD0000044904200861044831
:10023000016850221143016030BF704700ED00E0BB
:1002400000020050064909684843064948610022F7
:100250008A61052008610869C003FCD50A617047FE
:100260000400002000E000E010B504460749084BF8
:1002700005E00A46491E002A01DC002010BDDA68AC
:1002800020469043F5D1012010BD000060EA000037
:100290000002005010B500F0ABF80B4C4021204696
:1002A00000F04CF961686215114361600749100163
:1002B00008600748026820231A430260C0040860EF
:1002C000FFF7B2FF10BD00000000154000E100E0A4
:1002D0000002005010B50548016AC90604D5102176
:1002E000016203A000F068F910BD0000404000501A
:1002F00050422E3420494E54206F636375727265EC
:10030000642E200A00000000044603A000F054F907
:10031000204600F015FCFEE7496E2048617264201B
:100320004661756C742048616E646C65720A0000E9
:1003300010B504A000F040F90949012008630949FB
:10034000086010BD504457555F49525148616E6472
:100350006C65722072756E6E696E672E2E2E0A00A5
:10036000000200500C00002010B500F041F81E4CB7
:1003700020680121084320600846FFF775FF2069C7
:10038000C008C00020612069206160698008800089
:100390006061606960616069610288436061606991
:1003A0006061A06889100843A060A0684900084304
:1003B000A06000F089F805200007816B7722914347
:1003C0008163816B112211438163816B7722120457
:1003D00091438163816B11221204114381630349AC
:1003E0000020086010BD0000000200500001005015
:1003F00010B5592116230548882202E001600360E8
:1004000002600468012CF9D110BD00000001005009
:1004100006498A695205FCD408600A2804D1886913
:100420004005FCD40D200860704700000000054026
:1004300010B50D4C206941070C48490F0DD001291A
:1004400004D0022905D0032906D006E00120C0030C
:1004500003E000F00FF800E00548E1690907090F23
:10046000491CFFF767FE10BD00020050001BB700DB
:100470001027000010B51248406AC10301D50020C2
:1004800010BDC10401D5022400E001248105890FBB
:100490000FD001290FD002290FD010218006800E25
:1004A000084A20305043FFF745FE2146FFF742FE41
:1004B00010BD0221F2E70421F0E70821EEE7000079
:1004C00000020050001BB70010B5FFF7B1FF044C4D
:1004D000044920604A108018FFF72CFE606010BDB0
:1004E0000000002040420F0010B5E12149020248FF
:1004F00000F028F810BD00000000054010B5054CC4
:100500002069400604D504A000F056F84020206180
:1005100010BD000000001540554152545F57616BFB
:100520006575702E200A000010B5E12149020248CD
:1005300000F008F810BD000000001540C2680A4332
:10054000C26070477FB5194A0E4604460FCA6D4611
:100550000FC5174948696A468007000F1058C969D6
:1005600009050D0F6D1C002801D1FFF783FF2946F7
:10057000FFF7E0FD05460020A0630320A060002EE9
:1005800013D0700840193146FFF7D4FD0949401EC9
:10059000884209D9F00040193146FFF7CBFD01210F
:1005A0000009C907401E084360627FBDE80B0000D8
:1005B00000020050FFFF00000FB410B503A9044B68
:1005C000044A029800F018F810BC08BC04B01847A0
:1005D000D50800000800002002E008C8121F08C16A
:1005E000002AFAD170477047002001E001C1121FB4
:1005F000002AFBD170470000FFB58FB00F460446BC
:10060000002606E025280AD0129A11999047641C0A
:10061000761C20780028F5D1304613B0F0BD0025B7
:100620000121A14A009500E00543641C2378084697
:10063000203B98401042F7D120782E2815D1042075
:1006400005436078641C2A280AD101CF641C0090FD
:100650000BE000990A22514330394018641C009085
:100660002078014630390929F3D920786C280ED03A
:1006700004DC4C2813D06A2812D104E074280ED070
:100680007A280DD10BE001204005054307E0012148
:10069000090562780D43824201D16D18641C641C07
:1006A0002078864669284AD008DC0028B4D058282B
:1006B0006DD0632810D0642808D140E070286BD03A
:1006C000732812D0752860D0782860D0129A7046AE
:1006D00011999047761CE5E0387869460872002049
:1006E000487202A80190012003E0386801900020C0
:1006F000C0433F1D69070CD5002500E06D1C009923
:100700008D420FDA8542F9DB0199495D0029F5D167
:1007100008E0002500E06D1C8542FCDB0199495D85
:100720000029F8D1761907E0019801990078491C51
:100730000191129A119990476D1EF5D2B2E00A20EC
:10074000029000216802400F039102280CD001CFD3
:10075000C117844600290DDA62460846524200213C
:10076000814194462D2008E0FF1DFF08FF0003CFC4
:100770008446EFE7280504D52B206A461074012033
:100780003CE0E8073AD02020F7E70A2000E01020FC
:1007900000210391029007E0102002900021042024
:1007A00005430820039100906802400F022810D0F2
:1007B00001CF0021844600200D9028071FD57046E8
:1007C00070280CD0029A1020039B42401A430CD090
:1007D00015E0FF1DFF08FF0003CF8446EBE7402034
:1007E0006A46107401200D900CE06046084306D064
:1007F00030206A4610747046507402200D90704686
:10080000582804D029A001900DA80E900DE02CA02E
:10081000F9E76046039B029AFFF7A2FC019B84461E
:100820009B5C0E9A521E0E92137060460843F0D1E4
:100830000E9805A9081A20300190680701D5009884
:1008400001E0012000900199884203DD01460198F2
:10085000081A00E000200025009006E004A8129A83
:10086000405D119990476D1C761C0D988542F5DB13
:1008700004E0129A302011999047761C0099481E86
:1008800000900029F5DC08E00E980E990078491CCC
:100890000E91129A11999047761C0199481E019069
:1008A0000029F1DC641CB4E6092801003031323340
:1008B000343536373839616263646566000000009C
:1008C0003031323334353637383941424344454686
:1008D0000000000000B50346FFF79AFD184600BD72
:1008E000FFF742FDFFF700FEFFF71EFE1C48016800
:1008F0001CA0FFF761FE1FA0FFF75EFE2DA0FFF713
:100900005BFE1CA0FFF758FE3AA0FFF755FE49A07A
:10091000FFF752FE57A0FFF74FFE16A0FFF74CFE61
:1009200064A0FFF749FE13A0FFF746FE71A0FFF792
:1009300043FE774881690905FCD5FFF7ABFC754894
:100940000168012907D10021016073A0FFF734FE7F
:100950007548FFF777FC75A0FFF72EFEFEE7000055
:10096000000000200A0A4350552040202564487AA0
:100970000A0000002B2D2D2D2D2D2D2D2D2D2D2D53
:100980002D2D2D2D2D2D2D2D2D2D2D2D2D2D2D2D97
:100990002D2D2D2D2D2D2D2D2D2D2D2D2D2D2D2D87
:1009A0002D2D2D2D2D2D2D2D2D2D2D2D2D2D2D2D77
:1009B0002B0A00007C2020554152542052782057A9
:1009C000416B6575702046756E6374696F6E205457
:1009D000657374202020202020202020202020202B
:1009E0002020202020202020202020202020202007
:1009F0007C0A00007C20204465736372697074690E
:100A00006F6E203A2020202020202020202020202F
:100A100020202020202020202020202020202020D6
:100A200020202020202020202020202020202020C6
:100A30007C0A00007C202020205468652073616DB2
:100A4000706C6520636F64652077696C6C206465E9
:100A50006D6F2055415254312052782850422E3427
:100A6000292077616B6575702066726F6D2020207C
:100A70007C0A00007C20202020706F776572206443
:100A80006F776E206D6F64652E202020202020203F
:100A90002020202020202020202020202020202056
:100AA0002020202020202020202020202020202046
:100AB0007C0A00007C20506C6561736520696E7053
:100AC000757420616E79206461746120746F207583
:100AD000617274312052782070696E20746F2077B3
:100AE000616B6575702073797374656D2E2020209D
:100AF0007C0A0000476F696E6720746F20506F7723
:100B0000657220446F776E2E2E2E0A0A00000000B8
:100B1000000005400C0000200A2057616B657570CD
:100B2000204F4B2121000000981C05000A2057612E
:100B30006B6575702064656D6F20656E642E0000B6
:100B400010B50446016810A0FFF736FD11A06168DA
:100B5000FFF732FD12A0A168FFF72EFD13A0E16898
:100B6000FFF72AFD14A02169FFF726FD15A0616992
:100B7000FFF722FD16A0A169FFF71EFD17A0E1698E
:100B8000FFF71AFD10BD0000723020203D203078A4
:100B900025780A00723120203D20307825780A001F
:100BA000723220203D20307825780A0072332020D0
:100BB0003D20307825780A00723132203D2030788F
:100BC00025780A006C7220203D20307825780A00B4
:100BD000706320203D20307825780A0070737220E1
:100BE0003D20307825780A00001BB7000080000007
:100BF00000000000001BB700001BB70000800000D1
:100C000000000000001BB700001BB70000800000C0
:100C100000000000001BB700380C0000000000209E
:100C200010000000D8050000480C00001000002053
:100C300000050000E8050000001BB7000C000000E4
:080C40000000000000000000AC
:04000005000000F106
:00000001FF
