S31500000000F82F0020690300009101000059690000E3
S3150000001000000000000000000000000000000000DA
S31500000020000000000000000000000000790300004E
S3150000003000000000000000007B0300007D030000BC
S315000000408303000083030000830300008303000092
S31500000050830300008303000083030000E5790000AA
S315000000608303000083030000830300008303000072
S3150000007083030000E37E0000077F00008303000087
S315000000808303000083030000830300008303000052
S315000000908303000083030000830300008303000042
S315000000A08303000083030000830300008303000032
S315000000B0A36900008303000083030000553F00008E
S315000000C000F002F800F054F80CA030C808382418E4
S315000000D02D18A246671EAB4654465D46AC4201D17A
S315000000E000F046F87E460F3E0FCCB6460126334258
S315000000F000D0FB1AA246AB4633431847F40401006E
S31500000100140501000023002400250026103A01D31F
S3150000011078C1FBD8520700D330C100D50B607047B9
S3150000012010B5662902D10FF07DFB10BD642902D1FE
S3150000013008F088F810BD782902D108F0B9F810BD8A
S31500000140632902D109F0C6FB10BD732902D109F05B
S31500000150C9FB10BD002010BD1FB509F051FC0400FD
S31500000160002000210FF0E4F9E0601FBD10B510BDBE
S315000001700AF074F81146FFF7EFFF03F07AFF0AF072
S315000001808CF803B4FFF7F2FF03BC00F035F900006A
S31500000190134909680222114000290DD01049096847
S315000001A0490849000E4A116000BF0D49096802223C
S315000001B011400029F9D10DE0002007E0094909693D
S315000001C010221140102900D103E0401C0649884244
S315000001D0F4DB00BF70470548054908617047000019
S315000001E0403000F000F00FF8FFFF01001307000099
S315000001F00090044010B54C48806B1F21490208430B
S31500000200494988634948807808210840002804D075
S3150000021046488078084345498870454800684549FE
S315000002200860414840680121090408433E49486086
S3150000023040480468E10F091948107D21C90008F0FB
S3150000024065F93D49086038484068032189068843B6
S31500000250012189064018344948607D21C900354886
S31500000260006808F053F9354908602F484030406867
S31500000270000F411C3148006808F03EF9304908601B
S31500000280294840304068072212041040000C411CE7
S315000002902B48006808F030F92A49086001208002DE
S315000002A0294948610861032000022749403948600E
S315000002B0086026498860C8604B22D2011E48016842
S315000002C0234807F03CFEE12252021E4801682148FD
S315000002D007F0C0FD4B22D2011A4801681E4807F0FC
S315000002E0B9FD10BDFF2001301C49086108460069B0
S315000002F0092109040843194908611E20002805DB65
S31500000300C206D20E01219140154A116000BF704706
S31500000310052000021349C86003484068402108438D
S3150000032001494860704700000080044000D0074043
S3150000033068E2FF1F4CE2FF1F60E2FF1F50E2FF1F53
S3150000034054E2FF1F58E2FF1F40D0044000C00440A3
S3150000035000A0064000B0064000C0064000900440E1
S3150000036000E100E000B00440094880470948094818
S315000003700047FEE708488047FEE7FEE7FEE7074836
S315000003808047FEE706480749054A074B70470000C5
S3150000039075750000C100000059690000A3690000DE
S315000003A010160020101F00201016002010B504465D
S315000003B0E1B2054807F07DFEE0B210BD10B5024877
S315000003C007F06EFE10BD000000A0064070B50446A2
S315000003D00D462046FFF7EAFF70BD10B50446FFF74D
S315000003E0EDFF10BD01460020C043704710B504461E
S315000003F02046FFF7DBFF10BD00BFFEE77047000099
S31500000400FFFFFFFFFFFFFFFFFFFFFFFFFEFBFFFFFB
S31500000410FFB581B0074614461D460A9E0AF07AFCCF
S315000004200020FE490860FE49FE4808F061F80020F9
S31500000430FD4908600AF06EFC38460EF0E7FF0A2018
S315000004400AF088FC0D21F94807F067FD00BFF54862
S31500000450029908F01DF8F64908602146F14808F0AF
S3150000046017F8F44908602946EE4808F011F8F249F1
S315000004700860EF48006800280BD1EE4800680028A5
S3150000048007D108460068002803D1E4480068B04256
S3150000049001DD012000E00020E849087008460078E8
S315000004A00028D4D00AF036FCDC480068B04217DDDC
S315000004B00D21DE4807F031FD0A21DC4807F02DFD4D
S315000004C01A21DA4807F029FD1A21D84807F025FD38
S315000004D00D21D64807F021FD0A21D44807F01DFD5D
S315000004E005B0F0BD70B504460D46204606F012FC78
S315000004F0D34908600020D34908600BE0D148006862
S31500000500205CA84201D1012070BDCE480068401C85
S31500000510CC490860CB480068C94909688842EDDDC6
S315000005200020F1E700B5C8480068012802D1632021
S31500000530C6490870C548007803000AF03FFB060468
S315000005400F1A25303B4601204007C14988608000CC
S3150000055048602020BE494039486044E001204007F9
S31500000560BB498860800088602020B94940394860CE
S3150000057039E001204007B6494860800088602020A5
S31500000580B349403948602EE001204007B049486031
S31500000590800048602020AE494039886023E0012071
S315000005A04007AB498860800048602020A849403950
S315000005B0886018E001204007A549886080008860AF
S315000005C02020A349403988600DE001204007A0495A
S315000005D048608000486020209D49403948600020DE
S315000005E09A49087000BF00BF00BDF0B58FB007463E
S315000005F0002610200D9000200C903C4601E0761C51
S31500000600641C20780028FAD13C46002590E020782A
S3150000061030282CDB2078392829DC711B481E08F08D
S3150000062066FC02460B4601910090002089490BF0BA
S31500000630B7FC0591049021780846303808F057FC3D
S3150000064003910290059B049A08F05CFC09910890BE
S315000006500C9808F054FC07910690099B089A08F03C
S3150000066077F90B910A9008F0FDFB0C905EE020787C
S3150000067041282CDB2078462829DC711B481E08F00F
S3150000068036FC02460B4601910090002071490BF0A2
S3150000069087FC0591049021780846373808F027FC36
S315000006A003910290059B049A08F02CFC099108908E
S315000006B00C9808F024FC07910690099B089A08F00C
S315000006C047F90B910A9008F0CDFB0C902EE02078AC
S315000006D061282BDB2078662828DC711B481E08F071
S315000006E006FC02460B4601910090002059490BF08A
S315000006F057FC0591049021780846573808F0F7FB17
S3150000070003910290059B049A08F0FCFB099108905E
S315000007100C9808F0F4FB07910690099B089A08F0DC
S3150000072017F90B910A9008F09DFB0C906D1C641C48
S315000007302078002802D0B54200DA68E70C980FB09E
S31500000740F0BD7CB5002400254148C03880680221F0
S3150000075008433F49C039886005200AF0FBFA3C4847
S31500000760C0384068022108433949C039486005202D
S315000007700AF0F0FA3648C038806802210843344946
S31500000780C039886005200AF0E5FA1421324807F0DE
S31500000790AFFE1421314807F0ABFE0A21304807F0BE
S315000007A0A7FE14212C4807F0A3FE00BF00BF11E0EE
S315000007B02C480079182108432A490871084600790F
S315000007C020210840002805D02648C079224908552E
S315000007D0641C6D1C0A2DEBDB2048FF210B4603220F
S315000007E00091019002211C480BF04AFB00261B4891
S315000007F0437802781CA11A4807F0C0FC1848FFF796
S31500000800F4FE1B4908600A21154807F071FE1848D6
S3150000081018A10268124807F0B1FC7CBD14E0FF1F66
S315000008208813000074E2FF1F0CE0FF1F00B00640B3
S315000008302CE0FF1F30E0FF1F34E0FF1F28E0FF1F02
S3150000084034E2FF1F38E2FF1FB0E1FF1F7CE0FF1F0D
S3150000085000F10F4000003040F50A0020E10A0020B8
S31500000860B711002000A0064025782578000000007A
S3150000087048E2FF1F25640000F8B504460E461746F9
S315000008801D460A200AF066FA0F21284607F030FEB8
S315000008900020FE490860FE4908601AE0FB4800682F
S315000008A0205C222808D1FA480068401CF8490860F4
S315000008B0F6480068F7490860F5480068B84203DB67
S315000008C0E1208000F1490860F0480068401CEF49CB
S315000008D00860EE4800686428E0DB0020EB49086009
S315000008E0EB4908601AE0E9480068205C222808D134
S315000008F0E7480068401CE6490860E4480068E649A5
S315000009000860E3480068B04203DBE1208000DF496D
S315000009100860DE480068401CDC490860DB48006867
S315000009206428E0DB0020D94908600EE0DA48006858
S31500000930D64909684018401C205CD44909686854A7
S31500000940D2480068401CD1490860D2480068D249A4
S315000009500968401A401ECD4909688842E6DCF8BDA0
S31500000960F8B505460E46002400270020009000BF7B
S3150000097007E0285D0A2803D1B74201DA7F1C0094FC
S31500000980641C284606F0C6F9A042F2D80098F8BDC5
S3150000099070B505460C460020C0490860C04908608D
S315000009A00EE0BF480068205CA84204D1BB4800683E
S315000009B0401CBA490860BA480068401CB84908603B
S315000009C0204606F0A7F9B64909688842E9D8B3482F
S315000009D0006870BD38B5B348006806F09BF9044658
S315000009E02146B048006807F083FDAF48006806F06E
S315000009F091F904462146AC48006807F079FD3E218E
S31500000A00AA48FFF76FFDAA49087008460078002833
S31500000A107ED00AF07FF9A749A44807F069FDA6A190
S31500000A20A64806F087F9A54806F074F9A4490860B7
S31500000A300020A4490860A4490860A44908600BE0A6
S31500000A409E48A24A1268815CA14807F066FA9F4850
S31500000A500068401C9D4908609C48006898490968E0
S31500000A608842EDDB0A219A4807F057FA1A2198487E
S31500000A7007F053FA1A21964807F04FFA1A219448BC
S31500000A8007F04BFA1A21924807F047FA1A219048C4
S31500000A9007F043FA00BF8FA1844807F0F9FC8149AB
S31500000AA008608EA1814807F0F3FC8E4908608EA18C
S31500000AB07E4807F0EDFC8E4908608EA17B4807F062
S31500000AC0E7FC8E4908608748006800280FD18848EF
S31500000AD0006800280BD108460068002807D1714835
S31500000AE00068002803D1774800680428D3DD1A215E
S31500000AF0774807F012FA1A21754807F00EFA1A21FC
S31500000B00734807F00AFA1A21714807F006FA00E05E
S31500000B1013E07B480068012806D17A4800687A49C4
S31500000B20086000207649086014200AF013F969A1CC
S31500000B305E4807F0ADFC5B4908605A48006800282B
S31500000B4001D000F0A2FF1A21614807F0E6F90AF089
S31500000B50E1F80A200AF0FEF81A215D4807F0DDF9EF
S31500000B600AF0D8F80A200AF0F5F81A21584807F0D2
S31500000B70D4F90AF0CFF80A200AF0ECF80A22114656
S31500000B804E480BF0FBFF61A14C4806F0D3F86420F9
S31500000B900AF0E0F80AF0BEF864215D4807F0A8FC08
S31500000BA0464806F0B7F8441C23465A4A5AA1584804
S31500000BB007F0E4FA052049A360A262A10090544818
S31500000BC0FFF726FC0AF0A6F800203F4908603D49D9
S31500000BD008603E4908600BE038483C4A1268815C70
S31500000BE03B4807F09AF939480068401C37490860C5
S31500000BF0324806F08FF8354909688842ECD80A2150
S31500000C00334807F08AF90A21314807F086F90A21A4
S31500000C102F4807F082F90A212D4807F07EF90A21AC
S31500000C202B4807F07AF90A21294807F076F90A21B4
S31500000C30274807F072F90A21254807F06EF90A21BC
S31500000C40234807F06AF90A21214807F066F90A21C4
S31500000C501F4807F062F90A211D4807F05EF90A21CC
S31500000C601B4807F05AF90A21194807F056F90A21D4
S31500000C70174807F052F90A21154807F04EF90A21DC
S31500000C80134807F04AF90A2111485DE060E0FF1FAA
S31500000C9068E0FF1F64E0FF1F08E0FF1FFCE0FF1F86
S31500000CA0F8E0FF1F44E0FF1F40E0FF1F74E2FF1F54
S31500000CB03CE0FF1F881300000A0A0000FCF5FF1F36
S31500000CC038E0FF1F14E0FF1F0CE0FF1F04E0FF1FCA
S31500000CD000B0064053454E44204F4B004552524FFC
S31500000CE05200000048E0FF1F4641494C000000004A
S31500000CF04CE0FF1F444541435400000050E0FF1FF5
S31500000D0024E0FF1F20E0FF1FB8E1FF1F43480A0051
S31500000D10770B0020BCE1FF1F0D0A41542B465357A9
S31500000D20524954453D25735C4C4F472E5458542C1C
S31500000D30312C25642C31300A0A0000004552524FEE
S31500000D40520D0A003E00000007F0E7F80A21FE48AF
S31500000D5007F0E3F80A21FC4807F0DFF80A21FA4811
S31500000D6007F0DBF80A21F84807F0D7F80A21F64819
S31500000D7007F0D3F80A21F44807F0CFF80A21F24821
S31500000D8007F0CBF80A21F04807F0C7F80A21EE4829
S31500000D9007F0C3F80A21EC4807F0BFF80A21EA4831
S31500000DA007F0BBF80A21E84807F0B7F80A21E64839
S31500000DB007F0B3F80A21E44807F0AFF80A21E24841
S31500000DC007F0ABF80A21E04807F0A7F80A21DE4849
S31500000DD007F0A3F80A21DC4807F09FF80A21DA4851
S31500000DE007F09BF80A21D84807F097F80A21D64859
S31500000DF007F093F80A21D44807F08FF80A21D24861
S31500000E0007F08BF80A21D04807F087F80A21CE4868
S31500000E1007F083F80A21CC4807F07FF80A21CA4870
S31500000E2007F07BF80A21C84807F077F80A21C64878
S31500000E3007F073F80A21C44807F06FF80A21C24880
S31500000E4007F06BF80A21C04807F067F80A21BE4888
S31500000E5007F063F80A21BC4807F05FF80A21BA4890
S31500000E6007F05BF80A21B84807F057F80A21B64898
S31500000E7007F053F80A21B44807F04FF80A21B248A0
S31500000E8007F04BF800BFB1A1B24807F001FB0028FC
S31500000E9009D1B149AF4807F0FBFA002803D1AF48A2
S31500000EA000680528EFDD09F035FFAD4805F032FF93
S31500000EB004462146AA4807F01BFB09F02BFFA84869
S31500000EC005F028FF04462146A54807F011FBA54872
S31500000ED00068012809D0A4480068A44908600420D5
S31500000EE0A149086001209F49086009F013FF09F035
S31500000EF033FA994930319A4805F01CFF0AF098F800
S31500000F000520954B1A46603299A1009099A00CF0E5
S31500000F10A5F8642009F01EFF04208F4B99A294A126
S31500000F2000909DA00CF09AF809F00CFC8A4930312B
S31500000F308B4805F0FFFE09F005FC874930318848EB
S31500000F4005F0F8FE09F0FEFB83493031844805F0D0
S31500000F50F1FE87A17F4807F09BFA934908607E4916
S31500000F607C4807F095FA914908608F480068002888
S31500000F707ED1084600680028FAD18D48006801280D
S31500000F8076D0642009F0E6FE09F0C4FE64218948A3
S31500000F9007F0AEFA724805F0BDFE441C2346864AA9
S31500000FA06D493C31834807F0E9F805206A4B1A463B
S31500000FB0603282A100907F48FFF72AFA09F0AAFE64
S31500000FC000207F490860654908607E4908600BE09B
S31500000FD063487C4A1268815C5B4806F09EFF79484C
S31500000FE00068401C774908605D4805F093FE754926
S31500000FF009688842ECD80A21534806F08EFF0A2178
S31500001000514806F08AFF0A214F4806F086FF0A215A
S315000010104D4806F082FF0A214B4806F07EFF0A2162
S31500001020494806F07AFF0A21474806F076FF0A216A
S31500001030454806F072FF0A21434806F06EFF0A2172
S31500001040414806F06AFF0A213F4806F066FF0A217A
S315000010503D4806F062FF0A213B4806F05EFF0A2182
S31500001060394806F05AFF0A21374806F056FF00E0D5
S3150000107011E10A21344806F050FF0A21324806F0F1
S315000010804CFF0A21304806F048FF0A212E4806F098
S3150000109044FF0A212C4806F040FF0A212A4806F0A0
S315000010A03CFF0A21284806F038FF0A21264806F0A8
S315000010B034FF0A21244806F030FF0A21224806F0B0
S315000010C02CFF0A21204806F028FF0A211E4806F0B8
S315000010D024FF0A211C4806F020FF0A211A4806F0C0
S315000010E01CFF0A21184806F018FF0A21164806F0C8
S315000010F014FF0A21144806F010FF0A21124806F0D0
S315000011000CFF0A21104806F008FF0A210E4806F0D7
S3150000111004FF0A210C4806F000FF0A210A4806F0DF
S31500001120FCFE0A21084806F0F8FE0A21064806F0E9
S31500001130F4FE0A21044806F0F0FE0A21024806F0F1
S31500001140ECFE0A2100483FE000B006404F4B0D0A76
S315000011500000000074E2FF1FDC0C000014E0FF1F1B
S31500001160FCF5FF1F24E0FF1FB8E1FF1F20E0FF1F73
S315000011704F4B00000D0A41542B4346554E3D300D52
S315000011800D0A0A004E4F5420494E534552544544C9
S315000011900D0A4F4B000000000D0A41542B434655E3
S315000011A04E3D310D0A000000B8E0FF1F00E0FF1FB2
S315000011B0B0E1FF1F770B0020BCE1FF1F3E000000DF
S315000011C00CE0FF1F04E0FF1F06F0A7FE0A21FE4801
S315000011D006F0A3FE0A21FC4806F09FFE0A21FA4803
S315000011E006F09BFE0A21F84806F097FE0A21F6480B
S315000011F006F093FE0A21F44806F08FFE0A21F24813
S3150000120006F08BFE0A21F04806F087FE0A21EE481A
S3150000121006F083FE0A21EC4806F07FFE0A21EA4822
S3150000122006F07BFE0A21E84806F077FE0A21E6482A
S3150000123006F073FE0A21E44806F06FFE0A21E24832
S3150000124006F06BFE00BFE149E14807F021F90028EE
S3150000125009D1E049DE4807F01BF9002803D1DE4832
S3150000126000680528EFDD09F055FDDC4805F052FD64
S3150000127004462146D94807F03BF909F04BFD2020EA
S31500001280D7498860642009F065FD2020D44948606C
S31500001290642009F05FFD0420D2A3CE4A6032D3A1B8
S315000012A00090D3A00BF0DAFE09F04CFAC9493031B0
S315000012B0CA4805F03FFD6421D14807F019F9D14A23
S315000012C0D1A1CF4806F05AFFD4480068C5A3C14A49
S315000012D06032C6A10090CA480BF0C0FE09F0A8FE15
S315000012E00420BC4B18331A464832C0A10090CCA04B
S315000012F00BF0B4FE09F026FAB6493031B74805F0CE
S3150000130019FD09F01FFAB3493031B44805F012FD52
S3150000131009F08EFE09F016FAAE493031AF4805F0F5
S3150000132009FD09F0F7FCC2A00EF070F809F0F2FC16
S31500001330142009F00FFD09F07BFEC14BC14AC2A182
S31500001340AF4806F01BFFB5480068A6A3A14AC6A190
S315000013500090AB480BF082FE09F0DCFCAF48006859
S31500001360C3A39C4AC6A10090C6A00BF077FE09F065
S31500001370D1FC3E219648FFF7B5F8C64908700846E5
S31500001380007800287ED009F0C5FCC349904807F0D4
S31500001390AFF8A6A1914805F0CDFC904805F0BAFC3F
S315000013A0BE49086000208C490860BD490860BD49F7
S315000013B008600BE08948BB4A1268815C824806F0E7
S315000013C0ACFDB8480068401CB6490860B5480068DE
S315000013D0B24909688842EDDB0A217B4806F09DFD8B
S315000013E01A21794806F099FD1A21774806F095FDED
S315000013F01A21754806F091FD00BF764908397448F0
S3150000140007F046F8A84908607249714807F040F8A5
S31500001410A649086098A16E4807F03AF8A449086002
S315000014206C4918316A4807F033F8A24908609F48AA
S31500001430006800280FD19E48006800280BD1084696
S315000014400068002807D198480068002803D1624840
S3150000145000680428D1DD1A215B4806F05EFD1A21DA
S31500001460594806F05AFD1A21574806F056FD1A212A
S31500001470554806F052FD142009F06CFC5549083910
S31500001480534800E0C5E107F003F88B4908600846B9
S31500001490006800287ED1642009F05CFC09F03AFC63
S315000014A06421574807F024F84C4805F033FC441CE7
S315000014B02346824A47493C31514806F05FFE0520E3
S315000014C0444B1A4660326EA100904D48FEF7A0FFCD
S315000014D009F020FC0020724908603F490860714904
S315000014E008600BE03D486F4A1268815C364806F09A
S315000014F014FD6C480068401C6A490860374805F0CE
S3150000150009FC684909688842ECD80A212E4806F089
S3150000151004FD0A212C4806F000FD0A212A4806F09F
S31500001520FCFC0A21284806F0F8FC0A21264806F0A9
S31500001530F4FC0A21244806F0F0FC0A21224806F0B1
S31500001540ECFC0A21204806F0E8FC0A211E4806F0B9
S31500001550E4FC0A211C4806F0E0FC0A211A4806F0C1
S31500001560DCFC0A21184806F0D8FC0A21164806F0C9
S31500001570D4FC0A21144806F0D0FC0A21124806F0D1
S31500001580CCFC0A21104806F0C8FC0A210E4806F0D9
S31500001590C4FC00E03AE10A210B4806F0BEFC0A2131
S315000015A0094806F0BAFC0A21074806F0B6FC0A21EB
S315000015B0054806F0B2FC0A21034806F0AEFC0A21F3
S315000015C0014806F0AAFC7BE000B006404C11000082
S315000015D074E2FF1FDC0C000014E0FF1FFCF5FF1F88
S315000015E080F00F404552524F523A00004F4B0000D8
S315000015F00D0A41542B434950534855540D0A0000D7
S31500001600770B0020C1E1FF1F0D0A41542B435354B1
S31500001610543D222573220D0A00000000B4E1FF1F8D
S315000016200D0A41542B43494943520D0D0A0000004F
S315000016300A41542B43494653520D0D0A000000003F
S315000016406D0B0020090B00200D0A41542B43495015
S3150000165053544152543D22544350222C2225732286
S315000016602C222573220D0A00434F4E4E454354004B
S31500001670434F4E4E454354204641494C000000001E
S315000016803E0000000D0A41542B43495053454E4439
S315000016900D0A00003CE0FF1F8813000038E0FF1F22
S315000016A00CE0FF1F04E0FF1F44E0FF1F48E0FF1FA0
S315000016B04CE0FF1F50E0FF1F40E0FF1FBCE1FF1F93
S315000016C00A21F94806F029FC0A21F74806F025FC0C
S315000016D00A21F54806F021FC0A21F34806F01DFC14
S315000016E00A21F14806F019FC0A21EF4806F015FC1C
S315000016F00A21ED4806F011FC0A21EB4806F00DFC24
S315000017000A21E94806F009FC0A21E74806F005FC2B
S315000017100A21E54806F001FC0A21E34806F0FDFB34
S315000017200A21E14806F0F9FB0A21DF4806F0F5FB3D
S315000017300A21DD4806F0F1FB0A21DB4806F0EDFB45
S315000017400A21D94806F0E9FB0A21D74806F0E5FB4D
S315000017500A21D54806F0E1FB0A21D34806F0DDFB55
S315000017600A21D14806F0D9FB0A21CF4806F0D5FB5D
S315000017700A21CD4806F0D1FB0A21CB4806F0CDFB65
S315000017800A21C94806F0C9FB0A21C74806F0C5FB6D
S315000017900A21C54806F0C1FB0A21C34806F0BDFB75
S315000017A00A21C14806F0B9FB0A21BF4806F0B5FB7D
S315000017B00A21BD4806F0B1FB0A21BB4806F0ADFB85
S315000017C00A21B94806F0A9FB0A21B74806F0A5FB8D
S315000017D000BFB649B64806F05BFE002809D1B549F8
S315000017E0B34806F055FE002803D1B3480068052823
S315000017F0EFDD09F08FFAB14805F08CFA0446214670
S31500001800AE4806F075FE09F085FA40E10BF014FDCE
S315000018103DE1642009F09EFA09F07CFA6421A848AB
S3150000182006F066FEA54805F075FA441C2346A54A4F
S31500001830A0493C31A24806F0A1FC05209D4B1A4662
S315000018406032A1A100909E48FEF7E2FD09F062FA1F
S3150000185000209E490860984908609D4908600BE091
S3150000186096489B4A1268815C8F4806F056FB98485A
S315000018700068401C96490860904805F04BFA944968
S3150000188009688842ECD80A21874806F046FB0A21F7
S31500001890854806F042FB0A21834806F03EFB0A21F2
S315000018A0814806F03AFB0A217F4806F036FB0A21FA
S315000018B07D4806F032FB0A217B4806F02EFB0A2102
S315000018C0794806F02AFB0A21774806F026FB0A210A
S315000018D0754806F022FB0A21734806F01EFB0A2112
S315000018E0714806F01AFB0A216F4806F016FB0A211A
S315000018F06D4806F012FB0A216B4806F00EFB0A2122
S31500001900694806F00AFB0A21674806F006FB0A2129
S31500001910654806F002FB0A21634806F0FEFA0A2132
S31500001920614806F0FAFA0A215F4806F0F6FA0A213B
S315000019305D4806F0F2FA0A215B4806F0EEFA0A2143
S31500001940594806F0EAFA0A21574806F0E6FA0A214B
S31500001950554806F0E2FA0A21534806F0DEFA0A2153
S31500001960514806F0DAFA0A214F4806F0D6FA0A215B
S315000019704D4806F0D2FA0A214B4806F0CEFA0A2163
S31500001980494806F0CAFA0A21474806F0C6FA0A216B
S31500001990454806F0C2FA0A21434806F0BEFA0A2173
S315000019A0414806F0BAFA0A213F4806F0B6FA0A217B
S315000019B03D4806F0B2FA0A213B4806F0AEFA0A2183
S315000019C0394806F0AAFA0A21374806F0A6FA0A218B
S315000019D0354806F0A2FA0A21334806F09EFA0A2193
S315000019E0314806F09AFA0A212F4806F096FA0A219B
S315000019F02D4806F092FA0A212B4806F08EFA0A21A3
S31500001A00294806F08AFA0A21274806F086FA0A21AA
S31500001A10254806F082FA0A21234806F07EFA0A21B2
S31500001A20214806F07AFA0A211F4806F076FA0A21BA
S31500001A301D4806F072FA0A211B4806F06EFA0A21C2
S31500001A40194806F06AFA0A21174806F066FA00BF36
S31500001A501649174806F01CFD002809D115491448F7
S31500001A6006F016FD002803D1134800680528EFDDAF
S31500001A7009F050F9114805F04DF9044621460F4882
S31500001A8006F036FD09F046F901E00BF0D5FB0B48F0
S31500001A9005F040F904462146084806F029FD1A21BA
S31500001AA0014806F03AFA38BD00B006404C11000075
S31500001AB074E2FF1FDC0C000014E0FF1FFCF5FF1FA3
S31500001AC0770B0020BCE1FF1F3E0000000CE0FF1F6B
S31500001AD004E0FF1F38B5FE48006805F01BF9044610
S31500001AE02146FB48006806F003FDFA48006805F049
S31500001AF011F904462146F748006806F0F9FC3E2134
S31500001B00F548FEF7EFFCF54908700846007800280E
S31500001B107ED009F0FFF8F249EF4806F0E9FCF1A1A2
S31500001B20F14805F007F9F04805F0F4F8EF490860C8
S31500001B300020EF490860EF490860EF4908600BE0B4
S31500001B40E948ED4A1268815CEC4806F0E6F9EA4895
S31500001B500068401CE8490860E7480068E3490968EE
S31500001B608842EDDB1A21E54806F0D7F91A21E34849
S31500001B7006F0D3F900BFE249D74806F089FCD449FC
S31500001B800860DF490831D44806F082FCDD49086068
S31500001B90DD49D14806F07CFCDC490860D849203193
S31500001BA0CD4806F075FCDA490860D648006800287A
S31500001BB00FD1D648006800280BD1084600680028D7
S31500001BC007D1C3480068002803D1C9480068052822
S31500001BD0D1DD1A21C94806F0A0F91A21C74806F036
S31500001BE09CF91A21C54806F098F91A21C34806F04F
S31500001BF094F9C8480068012806D1C7480068C74953
S31500001C0008600020C3490860142009F0A3F800E02A
S31500001C1005E0BB49B04806F03BFCAD490860AC485E
S31500001C200068002801D000F010FF1A21B34806F022
S31500001C3074F909F06FF80A2009F08CF81A21AF48F8
S31500001C4006F06BF909F066F80A2009F083F81A2104
S31500001C50AA4806F062F909F05DF80A2009F07AF858
S31500001C60642009F077F809F055F86421AC4806F0CD
S31500001C703FFC9D4805F04EF8441C2346A94AA0495E
S31500001C804431A74806F07AFA05209D4B08331A46D8
S31500001C906032A5A10090A248FEF7BAFB09F03AF817
S31500001CA000209449086092490860934908600BE057
S31500001CB08D48914A1268815C904806F02EF98E484C
S31500001CC00068401C8C490860874805F023F88A495B
S31500001CD009688842ECD80A21884806F01EF90A21CC
S31500001CE0864806F01AF90A21844806F016F90A21F0
S31500001CF0824806F012F90A21804806F00EF90A21F8
S31500001D007E4806F00AF90A217C4806F006F90A21FF
S31500001D107A4806F002F90A21784806F0FEF80A2108
S31500001D20764806F0FAF80A21744806F0F6F80A2111
S31500001D30724806F0F2F80A21704806F0EEF80A2119
S31500001D406E4806F0EAF80A216C4806F0E6F80A2121
S31500001D506A4806F0E2F80A21684806F0DEF80A2129
S31500001D60664806F0DAF80A21644806F0D6F80A2131
S31500001D70624806F0D2F80A21604806F0CEF80A2139
S31500001D805E4806F0CAF80A215C4806F0C6F80A2141
S31500001D905A4806F0C2F80A21584806F0BEF80A2149
S31500001DA0564806F0BAF80A21544806F0B6F80A2151
S31500001DB0524806F0B2F80A21504806F0AEF80A2159
S31500001DC04E4806F0AAF80A214C4806F0A6F80A2161
S31500001DD04A4806F0A2F80A21484806F09EF80A2169
S31500001DE0464806F09AF80A21444806F096F80A2171
S31500001DF0424806F092F80A21404806F08EF80A2179
S31500001E003E4806F08AF80A213C4806F086F80A2180
S31500001E103A4806F082F80A21384806F07EF80A2188
S31500001E20364806F07AF80A21344806F076F80A2190
S31500001E30324806F072F80A21304806F06EF80A2198
S31500001E402E4806F06AF80A212C4806F066F80A21A0
S31500001E502A4806F062F80A21284806F05EF80A21A8
S31500001E60264806F05AF80A21244806F056F80A21B0
S31500001E70224806F052F80A21204806F04EF80A21B8
S31500001E801E4806F04AF80A211C4806F046F80A21C0
S31500001E901A4806F042F80A21184806F03EF800BF34
S31500001EA022490D4806F0F4FA00280AD114490831EF
S31500001EB0094806F0EDFA002803D10D480068052808
S31500001EC0EEDD08F027FF084804F024FF04462FE063
S31500001ED044E0FF1F40E0FF1F74E2FF1F3CE0FF1FCE
S31500001EE0881300000A0A0000FCF5FF1F38E0FF1FF8
S31500001EF014E0FF1F0CE0FF1F04E0FF1F00B00640C8
S31500001F00D40C000048E0FF1F781600004CE0FF1FCD
S31500001F1050E0FF1F24E0FF1F20E0FF1FB8E1FF1F76
S31500001F20770B0020BCE1FF1F3E0000004C110000B3
S31500001F302146FE4806F0DCFA08F0ECFEFB4804F009
S31500001F40E9FE04462146F94806F0D2FAF848006848
S31500001F50012809D0F7480068F74908600420F549C8
S31500001F6008600120F249086008F0D4FE08F0F4F990
S31500001F70F249EE4804F0DEFE09F05AF80520EF4B70
S31500001F80303B1A466032EEA10090EE480BF066F840
S31500001F90642008F0DFFE0420E84B303BE94A1032AB
S31500001FA0E7A10090104614300BF058F808F0CAFB71
S31500001FB0E249DE4804F0BEFE08F0C4FBDF49DB4818
S31500001FC004F0B8FE08F0BEFBDC49D84804F0B2FEC7
S31500001FD0DBA1DD4806F05CFADC490860D7493039F8
S31500001FE0D94806F055FADA490860D848006800284A
S31500001FF07DD1084600680028FAD1D6480068012835
S3150000200075D0642008F0A6FE08F084FE6421D2484C
S3150000201006F06EFAC54804F07DFE441C2346CF4AFE
S31500002020C6490C31CC4806F0A9F80520C34B303B15
S315000020301A466032CAA10090C748FEF7E9F908F0CF
S3150000204069FE0020C7490860C7490860C74908609B
S315000020500BE0B648C54A1268815CC54805F05DFFCD
S31500002060C2480068401CC1490860B04804F052FEEE
S31500002070BE4909688842ECD80A21BD4805F04DFFE3
S315000020800A21BB4805F049FF0A21B94805F045FF7A
S315000020900A21B74805F041FF0A21B54805F03DFF82
S315000020A00A21B34805F039FF0A21B14805F035FF8A
S315000020B00A21AF4805F031FF0A21AD4805F02DFF92
S315000020C00A21AB4805F029FF0A21A94805F025FF9A
S315000020D00A21A74805F021FF0A21A54805F01DFFA2
S315000020E00A21A34805F019FF0A21A14800E0D4E01F
S315000020F005F013FF0A219E4805F00FFF0A219C48B0
S3150000210005F00BFF0A219A4805F007FF0A219848B7
S3150000211005F003FF0A21964805F0FFFE0A219448C0
S3150000212005F0FBFE0A21924805F0F7FE0A219048C9
S3150000213005F0F3FE0A218E4805F0EFFE0A218C48D1
S3150000214005F0EBFE0A218A4805F0E7FE0A218848D9
S3150000215005F0E3FE0A21864805F0DFFE0A218448E1
S3150000216005F0DBFE0A21824805F0D7FE0A218048E9
S3150000217005F0D3FE0A217E4805F0CFFE0A217C48F1
S3150000218005F0CBFE0A217A4805F0C7FE0A217848F9
S3150000219005F0C3FE0A21764805F0BFFE0A21744801
S315000021A005F0BBFE0A21724805F0B7FE0A21704809
S315000021B005F0B3FE0A216E4805F0AFFE0A216C4811
S315000021C005F0ABFE0A216A4805F0A7FE0A21684819
S315000021D005F0A3FE0A21664805F09FFE0A21644821
S315000021E005F09BFE0A21624805F097FE0A21604829
S315000021F005F093FE0A215E4805F08FFE0A215C4831
S3150000220005F08BFE0A215A4805F087FE0A21584838
S3150000221005F083FE0A21564805F07FFE0A21544840
S3150000222005F07BFE0A21524805F077FE0A21504848
S3150000223005F073FE0A214E4805F06FFE0A214C4850
S3150000224005F06BFE00BF3F4928393F4806F020F9EC
S3150000225000280AD1394930393B4806F019F90028D7
S3150000226003D1414800680528EDDD08F053FD2F48ED
S3150000227004F050FD044621462C4806F039F908F0D2
S3150000228049FD20203B498860642008F063FD20203A
S3150000229038494860642008F05DFD0420364B274A23
S315000022A0303227A1009018460C300AF0D7FE08F00D
S315000022B049FA22491D4804F03DFD6421264806F0EE
S315000022C017F92E4A2C492431234805F057FF2C488C
S315000022D00068294B194A303219A100901E480AF0AD
S315000022E0BDFE08F0A5FE0420144B183B1A464832E2
S315000022F013A1009020483C300AF0B0FE08F022FA04
S315000023000E490A4804F016FD08F01CFA0B49074866
S3150000231004F010FD08F08CFE08F014FA0749034893
S3150000232004F008FD08F0F6FC13482BE0FCF5FF1F4F
S3150000233024E0FF1FB8E1FF1F20E0FF1F0C0D000087
S315000023404F4B00007411000074E2FF1FB8E0FF1F3E
S3150000235000E0FF1FB0E1FF1F770B0020BCE1FF1F6D
S315000023603E0000000CE0FF1F14E0FF1F04E0FF1F0B
S3150000237000B0064080F00F40E4150000C1E1FF1FE9
S31500002380B4E1FF1F4C300DF041F808F0C3FC1420F7
S3150000239008F0E0FC08F04CFEF54BF64AF649F74823
S315000023A005F0ECFEF6480068F34B643BF54A194627
S315000023B084310090F1480AF051FE08F0ABFCF04879
S315000023C00068ED4B2833EF4AEFA100901846143011
S315000023D00AF044FE08F09EFC3E21EC48FEF782F827
S315000023E0EB4908700846007800287DD008F092FC7A
S315000023F0E849E64806F07CF8E7A1E84804F09AFCCC
S31500002400E64804F087FCE64908600020E5490860D4
S31500002410E5490860E54908600BE0E048E34A1268D0
S31500002420815CE34805F079FDE0480068401CDF491F
S315000024300860DE480068DA4909688842EDDB1A213F
S31500002440DB4805F06AFD1A21D94805F066FD00BF94
S31500002450CC490839CD4806F01BF8D6490860C94969
S31500002460CA4806F015F8D4490860C3493031C74850
S3150000247006F00EF8D1490860C2491831C34806F083
S3150000248007F8CF490860CC48006800280FD1CB4830
S31500002490006800280BD108460068002807D1C54807
S315000024A00068002803D1BF4800680528D0DD1A213E
S315000024B0BF4805F032FD1A21BD4805F02EFD1A2150
S315000024C0BB4805F02AFD1A21B94805F026FD14205F
S315000024D008F040FCAB490839AC4805F0D9FFB949CA
S315000024E008600846006800E072E100287ED164209A
S315000024F008F030FC08F00EFC6421A04805F0F8FF57
S31500002500A64804F007FC441C2346AF4A9D493C31CB
S315000025109A4805F033FE05209A4B1A4660329AA176
S3150000252000909648FDF774FF08F0F4FB00209E49E2
S3150000253008609C4908609D4908600BE097489B4AE3
S315000025401268815C9A4805F0E8FC98480068401CCF
S3150000255096490860914804F0DDFB94490968884271
S31500002560ECD80A21924805F0D8FC0A21904805F0DB
S31500002570D4FC0A218E4805F0D0FC0A218C4805F0CF
S31500002580CCFC0A218A4805F0C8FC0A21884805F0D7
S31500002590C4FC0A21864805F0C0FC0A21844805F0DF
S315000025A0BCFC0A21824805F0B8FC0A21804805F0E7
S315000025B0B4FC0A217E4805F0B0FC0A217C4805F0EF
S315000025C0ACFC0A217A4805F0A8FC0A21784805F0F7
S315000025D0A4FC0A21764805F0A0FC0A21744805F0FF
S315000025E09CFC0A21724805F098FC00E0BDE00A2137
S315000025F06F4805F092FC0A216D4805F08EFC0A2111
S315000026006B4805F08AFC0A21694805F086FC0A2118
S31500002610674805F082FC0A21654805F07EFC0A2120
S31500002620634805F07AFC0A21614805F076FC0A2128
S315000026305F4805F072FC0A215D4805F06EFC0A2130
S315000026405B4805F06AFC0A21594805F066FC0A2138
S31500002650574805F062FC0A21554805F05EFC0A2140
S31500002660534805F05AFC0A21514805F056FC0A2148
S315000026704F4805F052FC0A214D4805F04EFC0A2150
S315000026804B4805F04AFC0A21494805F046FC0A2158
S31500002690474805F042FC0A21454805F03EFC0A2160
S315000026A0434805F03AFC0A21414805F036FC0A2168
S315000026B03F4805F032FC0A213D4805F02EFC0A2170
S315000026C03B4805F02AFC0A21394805F026FC0A2178
S315000026D0374805F022FC0A21354805F01EFC0A2180
S315000026E0334805F01AFC0A21314805F016FC0A2188
S315000026F02F4805F012FC0A212D4805F00EFC0A2190
S315000027002B4805F00AFC0A21294805F006FC0A2197
S31500002710274805F002FC0A21254805F0FEFB0A21A0
S31500002720234805F0FAFB0A21214805F0F6FB00BF15
S315000027302649164805F0ACFE002809D11149134870
S3150000274005F0A6FE002803D1164800680528EFDD2F
S3150000275008F0E0FA114804F0DDFA044621460F4875
S3150000276005F0C6FE08F0D6FA71E10AF065FD6EE1E5
S315000027706D0B0020090B002048160000770B002087
S31500002780B4E1FF1FDC0C00003E00000074E2FF1FF6
S315000027903CE0FF1F881300000A000000FCF5FF1F45
S315000027A038E0FF1F14E0FF1F0CE0FF1F04E0FF1FCF
S315000027B000B0064044E0FF1F48E0FF1F4CE0FF1F4B
S315000027C050E0FF1F40E0FF1FBCE1FF1F4C1100005F
S315000027D0642008F0BFFA08F09DFA6421F74805F076
S315000027E087FEF74804F096FA441C2346F54AF64954
S315000027F0F24805F0C3FC0520F34B3C3B1A46603219
S31500002800F2A10090ED48FDF703FE08F083FA0020E0
S31500002810EF490860EF490860EF4908600BE0E848B7
S31500002820ED4A1268815CED4805F077FBEA480068DE
S31500002830401CE9490860E24804F06CFAE649096878
S315000028408842ECD80A21E54805F067FB0A21E348EF
S3150000285005F063FB0A21E14805F05FFB0A21DF482A
S3150000286005F05BFB0A21DD4805F057FB0A21DB4832
S3150000287005F053FB0A21D94805F04FFB0A21D7483A
S3150000288005F04BFB0A21D54805F047FB0A21D34842
S3150000289005F043FB0A21D14805F03FFB0A21CF484A
S315000028A005F03BFB0A21CD4805F037FB0A21CB4852
S315000028B005F033FB0A21C94805F02FFB0A21C7485A
S315000028C005F02BFB0A21C54805F027FB0A21C34862
S315000028D005F023FB0A21C14805F01FFB0A21BF486A
S315000028E005F01BFB0A21BD4805F017FB0A21BB4872
S315000028F005F013FB0A21B94805F00FFB0A21B7487A
S3150000290005F00BFB0A21B54805F007FB0A21B34881
S3150000291005F003FB0A21B14805F0FFFA0A21AF488A
S3150000292005F0FBFA0A21AD4805F0F7FA0A21AB4893
S3150000293005F0F3FA0A21A94805F0EFFA0A21A7489B
S3150000294005F0EBFA0A21A54805F0E7FA0A21A348A3
S3150000295005F0E3FA0A21A14805F0DFFA0A219F48AB
S3150000296005F0DBFA0A219D4805F0D7FA0A219B48B3
S3150000297005F0D3FA0A21994805F0CFFA0A219748BB
S3150000298005F0CBFA0A21954805F0C7FA0A219348C3
S3150000299005F0C3FA0A21914805F0BFFA0A218F48CB
S315000029A005F0BBFA0A218D4805F0B7FA0A218B48D3
S315000029B005F0B3FA0A21894805F0AFFA0A218748DB
S315000029C005F0ABFA0A21854805F0A7FA0A218348E3
S315000029D005F0A3FA0A21814805F09FFA0A217F48EB
S315000029E005F09BFA0A217D4805F097FA0A217B48F3
S315000029F005F093FA0A21794805F08FFA0A217748FB
S31500002A0005F08BFA0A21754805F087FA00BF74496C
S31500002A10744805F03DFD00280AD16B493C397148E0
S31500002A2005F036FD002803D16A4800680528EEDD6A
S31500002A3008F070F9624804F06DF9044621466048D2
S31500002A4005F056FD08F066F901E00AF0F5FB5C4872
S31500002A5004F060F904462146594805F049FD1A215B
S31500002A605E4805F05AFA38BD38B55F48006804F08C
S31500002A7051F9044621465C48006805F039FD5B487B
S31500002A80006804F047F9044621465848006805F0F6
S31500002A902FFD3E215348FDF725FD55490870084690
S31500002AA0007800287ED008F035F952494D4805F0E7
S31500002AB01FFD51A1424804F03DF9414804F02AF9AE
S31500002AC04E49086000204349086041490860424970
S31500002AD008600BE03A48404A1268815C3F4805F0BE
S31500002AE01CFA3D480068401C3B4908603A480068AB
S31500002AF0424909688842EDDB1A21384805F00DFA8B
S31500002B0000BF31494439374805F0C2FC36490860F0
S31500002B102D493C39334805F0BBFC39490860394931
S31500002B20304805F0B5FC38490860274924392D4856
S31500002B3005F0AEFC354908603148006800280FD121
S31500002B403148006800280BD108460068002807D1E4
S31500002B5025480068002803D11E4800680428D0DDF7
S31500002B601A211E4805F0D9F91A211C4805F0D5F995
S31500002B701A211A4805F0D1F91A21184805F0CDF99D
S31500002B8023480068012806D12248006822490860C7
S31500002B9000201F490860322008F0DCF80A49443951
S31500002BA0104800E003E005F073FC0F4908600E488A
S31500002BB00068002832D000F049FF0000770B0020A3
S31500002BC0FCF5FF1FBCE1FF1F180D00003E000000D2
S31500002BD00CE0FF1F14E0FF1F04E0FF1F00B00640DB
S31500002BE04C11000074E2FF1F44E0FF1F40E0FF1F8E
S31500002BF03CE0FF1F881300000A00000038E0FF1FBA
S31500002C0048E0FF1F781600004CE0FF1F50E0FF1F52
S31500002C1024E0FF1F20E0FF1FB8E1FF1F1A21FE4836
S31500002C2005F07BF908F076F80A2008F093F81A21E7
S31500002C30F94805F072F908F06DF80A2008F08AF8EC
S31500002C401A21F54805F069F908F064F80A2008F039
S31500002C5081F8642008F07EF808F05CF86421EF48FB
S31500002C6005F046FCEE4804F055F8441C2346ED4AB0
S31500002C70ED49EA4805F082FA0520EB4B3C3B1A4643
S31500002C806032EAA10090E548FDF7C2FB08F042F881
S31500002C900020E7490860E7490860E74908600BE05B
S31500002CA0DF48E54A1268815CDB4805F036F9E24800
S31500002CB00068401CE0490860D94804F02BF8DE495A
S31500002CC009688842ECD80A21D34805F026F90A217A
S31500002CD0D14805F022F90A21CF4805F01EF90A214C
S31500002CE0CD4805F01AF90A21CB4805F016F90A2154
S31500002CF0C94805F012F90A21C74805F00EF90A215C
S31500002D00C54805F00AF90A21C34805F006F90A2163
S31500002D10C14805F002F90A21BF4805F0FEF80A216C
S31500002D20BD4805F0FAF80A21BB4805F0F6F80A2175
S31500002D30B94805F0F2F80A21B74805F0EEF80A217D
S31500002D40B54805F0EAF80A21B34805F0E6F80A2185
S31500002D50B14805F0E2F80A21AF4805F0DEF80A218D
S31500002D60AD4805F0DAF80A21AB4805F0D6F80A2195
S31500002D70A94805F0D2F80A21A74805F0CEF80A219D
S31500002D80A54805F0CAF80A21A34805F0C6F80A21A5
S31500002D90A14805F0C2F80A219F4805F0BEF80A21AD
S31500002DA09D4805F0BAF80A219B4805F0B6F80A21B5
S31500002DB0994805F0B2F80A21974805F0AEF80A21BD
S31500002DC0954805F0AAF80A21934805F0A6F80A21C5
S31500002DD0914805F0A2F80A218F4805F09EF80A21CD
S31500002DE08D4805F09AF80A218B4805F096F80A21D5
S31500002DF0894805F092F80A21874805F08EF80A21DD
S31500002E00854805F08AF80A21834805F086F80A21E4
S31500002E10814805F082F80A217F4805F07EF80A21EC
S31500002E207D4805F07AF80A217B4805F076F80A21F4
S31500002E30794805F072F80A21774805F06EF80A21FC
S31500002E40754805F06AF80A21734805F066F80A2104
S31500002E50714805F062F80A216F4805F05EF80A210C
S31500002E606D4805F05AF80A216B4805F056F80A2114
S31500002E70694805F052F80A21674805F04EF80A211C
S31500002E80654805F04AF80A21634805F046F800BF90
S31500002E906A496B4805F0FCFA00280AD162493C39B8
S31500002EA0674805F0F5FA002803D16248006805284E
S31500002EB0EEDD07F02FFF5A4803F02CFF04462146AB
S31500002EC0574805F015FB07F025FF554803F022FF8C
S31500002ED004462146524805F00BFB07F03DFA5249DD
S31500002EE00C394F4803F026FF56480068012809D0E0
S31500002EF05548006855490860042053490860012078
S31500002F005049086007F006FF08F092F80520464B86
S31500002F103C3B1A4660324EA10090484828300AF0E1
S31500002F209DF8642007F016FF04203F4B3C3B434AC4
S31500002F30383247A10090104614300AF08FF807F097
S31500002F4001FC39490C39364803F0F4FE07F0FAFB68
S31500002F5035490C39324803F0EDFE07F0F3FB3249F0
S31500002F600C392F4803F0E6FE39A1354805F090FAF2
S31500002F70384908602C493C39314805F089FA364908
S31500002F8008603448006800286AD1084600680028AE
S31500002F90FAD132480068012862D0642007F0DAFED0
S31500002FA007F0B8FE64211D4805F0A2FA1C4803F09C
S31500002FB0B1FE441C23461B4A1B49184805F0DEF89F
S31500002FC00520194B3C3B1A46603218A10090134865
S31500002FD0FDF71EFA07F09EFE002015490860154908
S31500002FE00860154908600BE00D48134A1268815CB9
S31500002FF0094804F092FF10480068401C0E4908601A
S31500003000074803F087FE0C4909688842ECD80A2174
S31500003010014804F082FF24E000B00640770B002050
S31500003020FCF5FF1FBCE1FF1F180D00003E0000006D
S315000030300CE0FF1F14E0FF1F04E0FF1F4C1100000F
S3150000304074E2FF1F24E0FF1FB8E1FF1F20E0FF1F0F
S315000030504F4B0000B8E0FF1F00E0FF1FB0E1FF1F6D
S3150000306008E10A21FE4804F058FF0A21FC4804F052
S3150000307054FF0A21FA4804F050FF0A21F84804F0E8
S315000030804CFF0A21F64804F048FF0A21F44804F0F0
S3150000309044FF0A21F24804F040FF0A21F04804F0F8
S315000030A03CFF0A21EE4804F038FF0A21EC4804F000
S315000030B034FF0A21EA4804F030FF0A21E84804F008
S315000030C02CFF0A21E64804F028FF0A21E44804F010
S315000030D024FF0A21E24804F020FF0A21E04804F018
S315000030E01CFF0A21DE4804F018FF0A21DC4804F020
S315000030F014FF0A21DA4804F010FF0A21D84804F028
S315000031000CFF0A21D64804F008FF0A21D44804F02F
S3150000311004FF0A21D24804F000FF0A21D04804F037
S31500003120FCFE0A21CE4804F0F8FE0A21CC4804F041
S31500003130F4FE0A21CA4804F0F0FE0A21C84804F049
S31500003140ECFE0A21C64804F0E8FE0A21C44804F051
S31500003150E4FE0A21C24804F0E0FE0A21C04804F059
S31500003160DCFE0A21BE4804F0D8FE0A21BC4804F061
S31500003170D4FE0A21BA4804F0D0FE0A21B84804F069
S31500003180CCFE0A21B64804F0C8FE0A21B44804F071
S31500003190C4FE0A21B24804F0C0FE0A21B04804F079
S315000031A0BCFE0A21AE4804F0B8FE0A21AC4804F081
S315000031B0B4FE0A21AA4804F0B0FE0A21A84804F089
S315000031C0ACFE0A21A64804F0A8FE0A21A44804F091
S315000031D0A4FE0A21A24804F0A0FE0A21A04804F099
S315000031E09CFE0A219E4804F098FE0A219C4804F0A1
S315000031F094FE0A219A4804F090FE0A21984804F0A9
S315000032008CFE0A21964804F088FE0A21944804F0B0
S3150000321084FE0A21924804F080FE0A21904804F0B8
S315000032207CFE00BF8F49904805F032F9002809D18D
S315000032308E498D4805F02CF9002803D18C4800688A
S315000032400528EFDD07F066FD8A4803F063FD0446B6
S315000032502146884805F04CF907F05CFD2020864998
S315000032608860642007F076FD20208349486064204A
S3150000327007F070FD0420814B7C4A603280A10090EB
S3150000328018460C3009F0EAFE07F05CFA774930314F
S31500003290784803F04FFD64217A4805F029F97A4A07
S315000032A076492431774804F069FF78480068734B03
S315000032B06E4A603272A10090724809F0CFFE07F0A4
S315000032C0B7FE0420694B18331A4648326CA10090A9
S315000032D06A483C3009F0C2FE07F034FA63493031DF
S315000032E0644803F027FD07F02DFA60493031614844
S315000032F003F020FD07F09CFE07F024FA5B4930310D
S315000033005C4803F017FD07F005FD5C484C300CF0F7
S315000033107DF807F0FFFC142007F01CFD07F088FE7F
S315000033205B4B5C4A55496431564804F027FF5748C1
S315000033300068524B4D4A194684310090514809F0B5
S315000033408DFE07F0E7FC514800684C4B8C33474A2A
S3150000335051A100901846143009F080FE07F0DAFCFF
S315000033603E214148FDF7BEF84C49087008460078F2
S31500003370002873D007F0CEFC49493B4805F0B8F861
S3150000338048A13C4803F0D6FC3A4803F0C3FC464942
S3150000339008600020364908604449086044490860CE
S315000033A00BE03448424A1268815C2D4804F0B5FDB2
S315000033B03F480068401C3E4908603D4800683A495D
S315000033C009688842EDDB1A21254804F0A6FD00BFF6
S315000033D026490839244805F05BF836490860234930
S315000033E0214805F055F834490860244994311E48AF
S315000033F005F04EF8314908601C4918311A4805F0A5
S3150000340047F82F4908602C48006800280FD12B4840
S31500003410006800280BD108460068002807D1254817
S315000034200068002803D1124800680428D0DD0A206D
S3150000343007F090FC07F06EFC1A21094804F06DFDB8
S315000034400A2007F087FC1A21054804F066FD1A21B8
S31500003450034804F062FD1A21014833E09FE10000B1
S3150000346000B006404C11000074E2FF1FDC0C0000A7
S3150000347014E0FF1FFCF5FF1F80F00F40E41500006D
S315000034804F4B0000770B0020C1E1FF1FB4E1FF1F87
S315000034906D0B0020090B00203E0000003CE0FF1FE2
S315000034A0881300000A00000038E0FF1F0CE0FF1F31
S315000034B004E0FF1F44E0FF1F48E0FF1F4CE0FF1F32
S315000034C050E0FF1F04F029FD1A21FE4804F025FDF7
S315000034D007F020FC0A2007F03DFC1A21F94804F009
S315000034E01CFD07F017FC0A2007F034FC1A21F548EA
S315000034F004F013FD07F00EFC0A2007F02BFC322027
S3150000350007F028FCF049F14804F0C2FFF0490860D2
S315000035100846006800287DD1642007F01BFC07F0F0
S31500003520F9FB6421EB4804F0E3FFEB4803F0F2FB00
S31500003530441C2346E94AE4494431E64804F01EFEA9
S315000035400520E14B08331A466032E5A10090E148B8
S31500003550FCF75EFF07F0DEFB0020E2490860E24967
S315000035600860E24908600BE0DB48E04A1268815CCB
S31500003570D44804F0D2FCDD480068401CDB490860F2
S31500003580D54803F0C7FBD94909688842ECD80A2117
S31500003590CC4804F0C2FC0A21CA4804F0BEFC0A2149
S315000035A0C84804F0BAFC0A21C64804F0B6FC0A2151
S315000035B0C44804F0B2FC0A21C24804F0AEFC0A2159
S315000035C0C04804F0AAFC0A21BE4804F0A6FC0A2161
S315000035D0BC4804F0A2FC0A21BA4804F09EFC0A2169
S315000035E0B84804F09AFC0A21B64804F096FC0A2171
S315000035F0B44804F092FC0A21B24804F08EFC0A2179
S31500003600B04804F08AFC0A21AE4804F086FC0A2180
S31500003610AC4800E0C0E004F080FC0A21A94804F0B0
S315000036207CFC0A21A74804F078FC0A21A54804F08E
S3150000363074FC0A21A34804F070FC0A21A14804F096
S315000036406CFC0A219F4804F068FC0A219D4804F09E
S3150000365064FC0A219B4804F060FC0A21994804F0A6
S315000036605CFC0A21974804F058FC0A21954804F0AE
S3150000367054FC0A21934804F050FC0A21914804F0B6
S315000036804CFC0A218F4804F048FC0A218D4804F0BE
S3150000369044FC0A218B4804F040FC0A21894804F0C6
S315000036A03CFC0A21874804F038FC0A21854804F0CE
S315000036B034FC0A21834804F030FC0A21814804F0D6
S315000036C02CFC0A217F4804F028FC0A217D4804F0DE
S315000036D024FC0A217B4804F020FC0A21794804F0E6
S315000036E01CFC0A21774804F018FC0A21754804F0EE
S315000036F014FC0A21734804F010FC0A21714804F0F6
S315000037000CFC0A216F4804F008FC0A216D4804F0FD
S3150000371004FC0A216B4804F000FC0A21694804F005
S31500003720FCFB0A21674804F0F8FB0A21654804F00F
S31500003730F4FB0A21634804F0F0FB0A21614804F017
S31500003740ECFB0A215F4804F0E8FB0A215D4804F01F
S31500003750E4FB0A215B4804F0E0FB00BF64495B48D8
S3150000376004F096FE00280AD157490831574804F05C
S315000037708FFE002803D15C4800680528EEDD07F0BF
S31500003780C9FA554803F0C6FA04462146524804F0E1
S31500003790AFFE07F0BFFA5BE109F04EFD58E1642089
S315000037A007F0D8FA07F0B6FA64214A4804F0A0FEFA
S315000037B0494803F0AFFA441C2346484A424944317B
S315000037C0444804F0DBFC05203F4B08331A466032C0
S315000037D043A100903F48FCF71BFE07F09BFA002030
S315000037E04049086040490860404908600BE03A4893
S315000037F03E4A1268815C334804F08FFB3B48006800
S31500003800401C3A490860344803F084FA374909688D
S315000038108842ECD80A212B4804F07FFB0A2129486C
S3150000382004F07BFB0A21274804F077FB0A21254890
S3150000383004F073FB0A21234804F06FFB0A21214898
S3150000384004F06BFB0A211F4804F067FB0A211D48A0
S3150000385004F063FB0A211B4804F05FFB0A211948A8
S3150000386004F05BFB0A21174804F057FB0A211548B0
S3150000387004F053FB0A21134804F04FFB0A211148B8
S3150000388004F04BFB0A210F4804F047FB0A210D48C0
S3150000389004F043FB0A210B4804F03FFB0A210948C8
S315000038A004F03BFB0A21074804F037FB0A210548D0
S315000038B004F033FB0A21034804F02FFB0A210148D8
S315000038C018E0000000B00640D40C000074E2FF1FB0
S315000038D040E0FF1F770B0020FCF5FF1FBCE1FF1F38
S315000038E03E0000000CE0FF1F14E0FF1F04E0FF1F76
S315000038F04C11000004F011FB0A21FA4804F00DFBFC
S315000039000A21F84804F009FB0A21F64804F005FBF1
S315000039100A21F44804F001FB0A21F24804F0FDFAFA
S315000039200A21F04804F0F9FA0A21EE4804F0F5FA03
S315000039300A21EC4804F0F1FA0A21EA4804F0EDFA0B
S315000039400A21E84804F0E9FA0A21E64804F0E5FA13
S315000039500A21E44804F0E1FA0A21E24804F0DDFA1B
S315000039600A21E04804F0D9FA0A21DE4804F0D5FA23
S315000039700A21DC4804F0D1FA0A21DA4804F0CDFA2B
S315000039800A21D84804F0C9FA0A21D64804F0C5FA33
S315000039900A21D44804F0C1FA0A21D24804F0BDFA3B
S315000039A00A21D04804F0B9FA0A21CE4804F0B5FA43
S315000039B00A21CC4804F0B1FA0A21CA4804F0ADFA4B
S315000039C00A21C84804F0A9FA0A21C64804F0A5FA53
S315000039D00A21C44804F0A1FA0A21C24804F09DFA5B
S315000039E00A21C04804F099FA0A21BE4804F095FA63
S315000039F00A21BC4804F091FA0A21BA4804F08DFA6B
S31500003A000A21B84804F089FA0A21B64804F085FA72
S31500003A1000BFB549B54804F03BFD002809D1B449BB
S31500003A20B24804F035FD002803D1B24800680528E5
S31500003A30EFDD07F06FF9B04803F06CF90446214654
S31500003A40AD4804F055FD07F065F901E009F0F4FB17
S31500003A50A94803F05FF904462146A74804F048FD4B
S31500003A601A21A04804F059FA38BD38B5642007F089
S31500003A7071F907F04FF96421A04804F039FD9E481A
S31500003A8003F048F9441C23469D4A99493C319B481A
S31500003A9004F074FB0520964B1A46603299A10090FB
S31500003AA09648FCF7B5FC07F035F900209649086002
S31500003AB090490860954908600BE08F48934A126860
S31500003AC0815C884804F029FA90480068401C8F49B8
S31500003AD00860894803F01EF98C4909688842ECD8C9
S31500003AE00A21804804F019FA0A217E4804F015FAE2
S31500003AF00A217C4804F011FA0A217A4804F00DFAEA
S31500003B000A21784804F009FA0A21764804F005FAF1
S31500003B100A21744804F001FA0A21724804F0FDF9FA
S31500003B200A21704804F0F9F90A216E4804F0F5F903
S31500003B300A216C4804F0F1F90A216A4804F0EDF90B
S31500003B400A21684804F0E9F90A21664804F0E5F913
S31500003B500A21644804F0E1F90A21624804F0DDF91B
S31500003B600A21604804F0D9F90A215E4804F0D5F923
S31500003B700A215C4804F0D1F90A215A4804F0CDF92B
S31500003B800A21584804F0C9F90A21564804F0C5F933
S31500003B900A21544804F0C1F90A21524804F0BDF93B
S31500003BA00A21504804F0B9F90A214E4804F0B5F943
S31500003BB00A214C4804F0B1F90A214A4804F0ADF94B
S31500003BC00A21484804F0A9F90A21464804F0A5F953
S31500003BD00A21444804F0A1F90A21424804F09DF95B
S31500003BE00A21404804F099F90A213E4804F095F963
S31500003BF00A213C4804F091F90A213A4804F08DF96B
S31500003C000A21384804F089F90A21364804F085F972
S31500003C100A21344804F081F90A21324804F07DF97A
S31500003C200A21304804F079F90A212E4804F075F982
S31500003C300A212C4804F071F90A212A4804F06DF98A
S31500003C400A21284804F069F90A21264804F065F992
S31500003C500A21244804F061F90A21224804F05DF99A
S31500003C600A21204804F059F90A211E4804F055F9A2
S31500003C700A211C4804F051F90A211A4804F04DF9AA
S31500003C800A21184804F049F90A21164804F045F9B2
S31500003C900A21144804F041F90A21124804F03DF9BA
S31500003CA00A21104804F039F900BF0F490F4804F003
S31500003CB0EFFB002809D10E490C4804F0E9FB002867
S31500003CC003D10C4800680528EFDD07F023F80A4801
S31500003CD003F020F804462146074804F009FC07F0E3
S31500003CE019F838BD00B006404C11000074E2FF1F01
S31500003CF0DC0C000014E0FF1FFCF5FF1F770B002013
S31500003D00BCE1FF1F3E0000000CE0FF1F04E0FF1FA8
S31500003D1070B504460D4616460020FE490860FE486A
S31500003D200068FE49086000BFFD4804F003F900285A
S31500003D3018D0FB48C079FB49F64A12688854F54802
S31500003D400068401CF3490860F3480068F3490860BE
S31500003D50F0480068FF212B31884209DD0020ED493B
S31500003D60086005E0ED480068401EEC49086000BFA9
S31500003D70ED49EC4804F08CFB00280FD1EB49E948EB
S31500003D8004F086FB002809D1E4480068002805DD18
S31500003D90E749E44804F07CFB0028C5D070BDF8B5BF
S31500003DA004460E4615461F460020DA490860DA48E2
S31500003DB00068DA49086000BFDE4804F0BBF8002856
S31500003DC018D0DC48C079D749D24A12688854D148FD
S31500003DD00068401CCF490860CF480068CF4908609A
S31500003DE0CC480068FF212B31884208DD0020C949F4
S31500003DF0086004E0C9480068401EC84908602146BA
S31500003E00C84804F045FB00280FD13146C54804F0E8
S31500003E103FFB002809D1C1480068002805DD294676
S31500003E20C04804F035FB0028C6D0F8BD70B504467E
S31500003E30002505E0615DBF4804F06FF8681CC5B257
S31500003E40605D0028F6D170BD08B5BB4BBB4AB849CA
S31500003E506431BB4804F092F9BA480068B44B843325
S31500003E60B24A603A19460090B54809F0F7F809F0E9
S31500003E70E3F908BDB448806B0121C9020843B24981
S31500003E808863B248B249C860AF48806B0121090314
S31500003E900843AD498863AD48401CAE498861401E61
S31500003EA008601F20002805DBC206D20E01219140C2
S31500003EB0A94A116000BF704700B5A84800680128EC
S31500003EC002D16320A6490870A5480078030006F0D1
S31500003ED075FE06040C141C242C344020A14988606D
S31500003EE0802048604000486032E040209D4988605C
S31500003EF080208860400048602AE040209949486058
S31500003F00802088604000486022E040209549486053
S31500003F1080204860400088601AE04020914988600F
S31500003F20802048604000886012E040208D4988600B
S31500003F3080208860400088600AE040208949486007
S31500003F40802048604000486000208549087000BF16
S31500003F5000BF00BD10B57E488030006A08210840C9
S31500003F60002816D07A488030006A084378498031A4
S31500003F7008627D480068012108437B4908600120EA
S31500003F807A4908707A49086075480078401C744977
S31500003F90087070488030006AC007C00F002814D02F
S31500003FA06C488030006A012108436A498031086202
S31500003FB06D480068012108436B49086001206B4980
S31500003FC008706B49086006F0A5FE62488030006AFA
S31500003FD040210840002811D05E488030006A08431E
S31500003FE05C498031086260480068012108435E49E7
S31500003FF0086001205D49087006F08CFEFFF75CFF43
S3150000400010BD704700205B4988615B484861052008
S3150000401008617047574800694008400055490861E3
S31500004020704770B5534885698469281B53490860F1
S31500004030294653A004F094F8214658A004F090F8BD
S315000040404E4801685CA004F08BF870BD0CE0654931
S31500004050654A116004E064490968491E624A1160B4
S31500004060614909680029F6DC0146401E0029EED1A7
S3150000407070471CB55D4802F04DFE014601905B4855
S3150000408004F036FA5A4802F045FE014601905848B7
S3150000409004F02EFA294802F03DFE01460190274819
S315000040A004F026FA254802F035FE01460190224822
S315000040B004F01EFA02F008FFFFF7A4FF05204D49A1
S315000040C0086006F0D3FC00BF1F48806B012149023F
S315000040D008431D4988638815474948608860214818
S315000040E080384068062108431E49803948600846E2
S315000040F04069062108431B498039486102208860CF
S315000041000420886000BFFFF7B5FE0020184908604C
S31500004110124973E004E0FF1F1CE0FF1F08E0FF1FC9
S3150000412000B0064035FDFF1F4C1100003C0D00009D
S31500004130E415000000C006406D0B0020090B0020AE
S31500004140770B0020B4E1FF1F0080044002010A0043
S3150000415000B0044000C0044000E100E0B0E1FF1FF1
S315000041607CE0FF1F80F00F4078E0FF1F25E2FF1F75
S3150000417074E0FF1F00E000E03F9C000088E0FF1FA6
S315000041807379737469636B207374617274207661DA
S315000041906C75653A20307825780A0D00737973744A
S315000041A069636B20656E642076616C75653A2030B4
S315000041B07825780A0D0000007379737469636B20A3
S315000041C063757272656E742076616C7565207265B2
S315000041D06164206F766572686561643A203078257F
S315000041E0780A0D008813000018E2FF1FFCF5FF1F78
S315000041F0ED080020B8E1FF1F009004400860802011
S31500004200FE49886001217D20C00003F0B2FD00BF99
S31500004210FB48C06B0121C9060843F949C8632D2034
S31500004220F84988600020C86008620846406A08218C
S315000042308843F449486200BF0020F34908600A2118
S31500004240F24803F06AFE1A21F04803F066FE06F013
S31500004250EFFE0220EE4BEF4AEF490090EFA008F088
S31500004260FDFE642006F076FD06F054FD642006F09F
S3150000427071FD06F0DDFE06F06FF8EAA1EB4802F0EC
S3150000428059FDEB4806F066FD0520DF49086006F09B
S3150000429033FE06F0CDFE08F0E9FB06F03BFD06F026
S315000042A0C7FE06F059F8DB493039E04802F042FD16
S315000042B006F052F8D7493039DC4802F03BFD06F0EB
S315000042C0B7FE0320DB490870FFF7F6FDDA48006801
S315000042D0CF4BD04AD0490090D8A008F0BFFED648B0
S315000042E00068CB4BCB4ACC490090D7A008F0B6FE6D
S315000042F006F09EFED0480068C54BC64AC6490090E7
S31500004300D4A008F0ABFECC480068C14BC14AC249F4
S315000043100090D3A008F0A2FEC7480068BC4BBD4A77
S31500004320BD490090D1A008F099FE06F081FEC24872
S315000043300068B74BB74AB8490090D0A008F08EFE87
S31500004340BD480068B24BB34AB3490090D0A008F00C
S3150000435085FEB9480068AE4BAE4AAF490090D1A081
S3150000436008F07CFEB4480068A94BAA4AAA49009006
S31500004370D1A008F073FEB0480068A54BA54AA6492F
S315000043800090AEA008F06AFE0A2006F0E3FCAA48F8
S3150000439000689F4B9F4AA0490090CBA008F05EFEA4
S315000043A006F0B8FC0A2006F0D5FC05F0D5FF9949C1
S315000043B030399E4802F0BEFC9F480068944B954AEF
S315000043C095490090C5A008F049FE642006F0C2FC9D
S315000043D0C6A1C74804F05CF800281FD096480068BC
S315000043E08B4B8C4A8C490090C2A008F037FE6421A2
S315000043F0CA4804F07DF80222C9A1C84803F0BEFEEF
S315000044000A20834B834AD1A10090C44808F026FEB7
S3150000441006F080FCB5A00AF0F9FF1EE086480068A9
S315000044207B4B7C4A7C490090B2A008F017FE6421C1
S31500004430BA4804F05DF80222B9A1B84803F09EFE1E
S315000044400A20734B734AC1A10090B44808F006FED7
S3150000445006F060FCBEA00AF0D9FF642006F07AFCE4
S31500004460754800686A4B6B4A6B490090B9A008F022
S31500004470F5FD71480068664B664A67490090B8A02A
S3150000448008F0ECFD6C480068614B624A6249009096
S31500004490B7A008F0E3FD06F02FFD08F0E7FA08F0F4
S315000044A00FFB08F07BFA64480068594B594A5A4991
S315000044B00090B5A008F0D2FD5F480068544B554AFD
S315000044C055490090B4A008F0C9FD6421934804F052
S315000044D00FF80F21B44804F00BF8B34822210B461D
S315000044E00222009101900121814807F0C9FCAE4AE1
S315000044F0AEA18A4803F042FE4F480068444B454A45
S3150000450045490090854808F0A9FD08F079FA64212C
S31500004510824803F0EDFF0521A94803F0EBFFA9A1AE
S315000045207E4803F02BFE0A20394B3A4AB0A1009090
S315000045307A4808F093FDA2480D210A230322009130
S31500004540019001216A4807F09BFC06F071FD2E4898
S315000045500068A849086004202B49086005202C4BF8
S315000045602C4AA3A1009018460C3008F077FD05F000
S31500004570F3FE284930392D4802F0DCFB06F058FDE1
S315000045806421664803F0B4FF9B4A214924316348FD
S3150000459003F0F4FD284800681D4B1E4A94A10090C4
S315000045A05E4808F05BFD06F043FD0520194B483BCD
S315000045B0184A8FA1009016483C3008F04FFD05F0D0
S315000045C0CBFE14493039194802F0B4FB05F0C4FE9D
S315000045D010493039154802F0ADFB06F029FD06F00A
S315000045E099FB0B484C300AF011FF06F093FB1420A0
S315000045F006F0B0FB06F01CFD804B01E1C0F00F4059
S315000046000080044000B00340B8E1FF1F00B0064040
S31500004610E41500003C0D00004C1100000A0A41544C
S315000046200D0A000043482731270A0000FCF5FF1F4A
S31500004630881300007CE0FF1FB4E1FF1F0A0A415403
S3150000464026570D0A000000000A0A415453303D3235
S315000046500D0A00000A0A415426460D0A0000000011
S315000046600A0A415426440D0A000000000A0A415471
S315000046702B4946433D302C300D0A00000A0A4154AE
S315000046802B4349505153454E443F0D0A000000004C
S315000046900A0A41542B4349505153454E443D300D6F
S315000046A00A0000000A0A41542B435042533D22534C
S315000046B04D220D0A000000000A0A41542B534432D1
S315000046C050434D3D300D0A000A0A41542B465344CF
S315000046D0524956453D310D0A000000000A0A415470
S315000046E02B46534D454D0D0A00000000443A00008C
S315000046F074E2FF1F0A0A41542B4653435245415464
S31500004700453D433A5C4C4F4747494E475F44524903
S3150000471056452E5458540D0A00000000770B002011
S315000047200D0A41542B465357524954453D433A5C72
S315000047304C4F4747494E475F44524956452E5458B9
S31500004740542C302C25642C31300D0A003E0000001C
S31500004750433A00000A0A415453303D310D0A000025
S315000047600A0A41542B4353434C4B3D310D0A00007A
S315000047700D0A0D0A41542B434D47443D312C340D4F
S315000047800A0A0A0A000000000A0A41542B434D4750
S31500004790463D310A0A0000000A0A41542B4353439E
S315000047A0413F0D0A00000000120C00200D0A415482
S315000047B02B435343413D222573220D0A000000007E
S315000047C0BCE1FF1F0A41542B4653524541443D4329
S315000047D03A5C4C4F4747494E475F44524956452E2F
S315000047E05458542C302C3130302C310D0A00000036
S315000047F04F4B000020E0FF1FC1E1FF1F6D0B0020A3
S31500004800FD4AFE49FE4803F0B9FCFE480068FE4B2F
S315000048101A466032F94920310090F94808F01EFC2A
S3150000482006F078FA05F098FDF7493031F74802F0BE
S3150000483081FAF7480068F7490860F2480068EF4BCC
S315000048402833F14AF4A100901846143008F006FC0B
S31500004850F248006802F05EFA01460190EF480068EF
S3150000486003F046FEEE48006802F054FA0146019055
S31500004870EB48006803F03CFE3E21EA48FBF732FEB7
S31500004880E949087008460078002878D006F042FA10
S31500004890E649E44803F02CFEE5A1DC4802F04AFABA
S315000048A0DA4802F037FAE34908600020E249086076
S315000048B0E2490860E24908600DE0D448E049096829
S315000048C0405C01460190DF4803F027FBDC480068A6
S315000048D0401CDB490860DA480068D6490968884206
S315000048E0EBDB1A21D74803F018FB00BFC64908398D
S315000048F0CC4803F0CDFDC9490860C349C94803F057
S31500004900C7FDD1490860BD493031C64803F0C0FD36
S31500004910CE490860BC491831C24803F0B9FDCC49FC
S315000049200860C948006800280FD1C84800680028F8
S315000049300BD108460068002807D1B848006800284F
S3150000494003D1BD4800680828D0DD1A21BD4803F010
S31500004950E4FA1A21BB4803F0E0FA1A21B94803F039
S31500004960DCFA1A21B74803F0D8FA322006F0F2F939
S31500004970A5490839AB4803F08BFDA8490860A7484C
S315000049800068002801D1012000E0002001287DD127
S315000049901A21AC4803F0C1FA06F0BCF90A2006F069
S315000049A0D9F91A21A74803F0B8FA06F0B3F90A2094
S315000049B006F0D0F91A21A34803F0AFFA06F0AAF9D7
S315000049C00A2006F0C7F9642006F0C4F906F0A2F939
S315000049D064218B4803F08CFD8C4802F09BF9401C47
S315000049E003469C4A88493C310190854803F0C6FB42
S315000049F00520854B1A46603287A100908048FBF758
S31500004A0007FD8149874803F043FD002804D0432071
S31500004A10904908703A20487006F07CF900208749D2
S31500004A20086085490860864908600DE07748844932
S31500004A300968405C01460190824803F06EFA80489E
S31500004A400068401C7E490860704802F063F97C49A2
S31500004A5009688842EAD80A217A4803F05EFA0A21F0
S31500004A60784803F05AFA0A21764803F056FA0A21E2
S31500004A70744803F052FA0A21724803F04EFA0A21EA
S31500004A80704803F04AFA0A216E4800E0E2E203F0B9
S31500004A9044FA0A216B4803F040FA0A21694803F0F8
S31500004AA03CFA0A21674803F038FA0A21654803F000
S31500004AB034FA0A21634803F030FA0A21614803F008
S31500004AC02CFA0A215F4803F028FA0A215D4803F010
S31500004AD024FA0A215B4803F020FA0A21594803F018
S31500004AE01CFA0A21574803F018FA0A21554803F020
S31500004AF014FA0A21534803F010FA0A21514803F028
S31500004B000CFA0A214F4803F008FA0A214D4803F02F
S31500004B1004FA0A214B4803F000FA0A21494803F037
S31500004B20FCF90A21474803F0F8F90A21454803F041
S31500004B30F4F90A21434803F0F0F90A21414803F049
S31500004B40ECF90A213F4803F0E8F90A213D4803F051
S31500004B50E4F90A213B4803F0E0F90A21394803F059
S31500004B60DCF90A21374803F0D8F90A21354803F061
S31500004B70D4F90A21334803F0D0F90A21314803F069
S31500004B80CCF90A212F4803F0C8F90A212D4803F071
S31500004B90C4F90A212B4803F0C0F90A21294803F079
S31500004BA0BCF90A21274803F0B8F90A21254803F081
S31500004BB0B4F90A21234803F0B0F90A21214803F089
S31500004BC0ACF90A211F4803F0A8F90A211D4803F091
S31500004BD0A4F90A211B4803F0A0F90A21194803F099
S31500004BE09CF90A21174803F098F90A21154803F0A1
S31500004BF094F90A2113482FE0090B002048160000FB
S31500004C00770B0020B4E1FF1FDC0C0000FCF5FF1F52
S31500004C1020E0FF1FB8E1FF1F3E00000044E0FF1F39
S31500004C2040E0FF1F74E2FF1F3CE0FF1F88130000F7
S31500004C300A00000038E0FF1F14E0FF1F0CE0FF1F12
S31500004C4004E0FF1F00B0064048E0FF1F4CE0FF1FD6
S31500004C5050E0FF1FBCE1FF1F03F05FF90A21FE4889
S31500004C6003F05BF90A21FC4803F057F90A21FA48D8
S31500004C7003F053F90A21F84803F04FF90A21F648E0
S31500004C8003F04BF900BFF549F54803F001FC002895
S31500004C9009D1F449F24803F0FBFB002803D1F2489E
S31500004CA000680528EFDD06F035F8F04802F032F826
S31500004CB001460190ED4803F01BFCEC4802F02AF88F
S31500004CC001460190E94803F013FC05F045FBE54970
S31500004CD03031E64802F02EF806F01CF8E448006889
S31500004CE0E44908600420E249086006F0A1F90520BD
S31500004CF0DC4B1A466032E0A10090D848283008F014
S31500004D00ADF9642006F026F80420D64BD34A383293
S31500004D10D9A100901046143008F0A0F905F012FD54
S31500004D20D0493031D14802F005F805F00BFDCD49E8
S31500004D303031CE4801F0FEFF05F004FDC94930319F
S31500004D40CA4801F0F7FF0420CC4BC64A6032CAA11C
S31500004D50009018460C3008F081F905F0F3FCC149C3
S31500004D603031C24801F0E6FF6421C54803F0C0FBBC
S31500004D70C44AC2492431C24803F000FAC248006856
S31500004D80BE4BB84A6032BCA10090BD4808F066F937
S31500004D9006F04EF90420B34B18331A464832B6A132
S31500004DA00090B6483C3008F059F905F0CBFCAD4907
S31500004DB03031AE4801F0BEFF05F0C4FCA9493031E0
S31500004DC0AA4801F0B7FF06F033F905F0BBFCA54988
S31500004DD03031A64801F0AEFF05F09CFFA7484C30E5
S31500004DE00AF014FB05F096FF142005F0B3FF06F059
S31500004DF01FF9A04800689E490860A44BA44A9F4931
S31500004E0064319F4803F0BAF99F4800689B4B954A66
S31500004E101946843100909A4808F020F905F07AFF87
S31500004E2099480068954B8C338E4A9AA10090184693
S31500004E30143008F013F905F06DFF3E218848FBF7A2
S31500004E4051FB954908700846007800287ED005F089
S31500004E5061FF9249824803F04BFB91A1834801F020
S31500004E6069FF824801F056FF8E49086000207E499E
S31500004E7008608D4908608D4908600DE07B488B49C4
S31500004E800968405C01460190734803F046F887487C
S31500004E900068401C854908608448006881490968A3
S31500004EA08842EBDB1A216C4803F037F800BF6D49E6
S31500004EB008396B4803F0ECFA7D490860694968488F
S31500004EC003F0E6FA7B4908606C499431644803F0C4
S31500004ED0DFFA7949086063491831614803F0D8FA66
S31500004EE0764908607348006800280FD17248006848
S31500004EF000280BD108460068002807D16C480068D6
S31500004F00002803D1584800680828D0DD0A2005F09B
S31500004F1021FF05F0FFFE1A214F4802F0FEFF0A208E
S31500004F2005F018FF1A214C4802F0F7FF1A214A48EB
S31500004F3002F0F3FF1A21484802F0EFFF1A21464813
S31500004F4002F0EBFF05F0E6FE0A2000E0B0E105F016
S31500004F5001FF1A21404802F0E0FF05F0DBFE0A20BF
S31500004F6005F0F8FE3E4801F0D5FE554908601A21C5
S31500004F70394802F0D2FF05F0CDFE0A2005F0EAFE20
S31500004F80322005F0E7FE37490839354803F080FA44
S31500004F904C49086008460068002801D1012000E05D
S31500004FA00020012856D1642005F0D4FE05F0B2FE9B
S31500004FB06421334803F09CFA2C4801F0ABFE401CF8
S31500004FC00346414A27493C3101902D4803F0D6F863
S31500004FD00520244B1A4660322EA100902848FBF784
S31500004FE017FA20491E4803F053FA002804D043203C
S31500004FF0354908703A20487005F08CFE00202A4991
S31500005000086019490860294908600DE017482749D2
S315000050100968405C014601900F4802F07EFF234874
S315000050200068401C21490860104801F073FE1F49C2
S3150000503009688842EAD80A21074802F06EFF0A2169
S31500005040054802F06AFF0A21034802F066FF0A21BA
S3150000505001483BE08DE2000000B006404C11000024
S3150000506074E2FF1FDC0C000014E0FF1FFCF5FF1FBD
S31500005070B8E1FF1F20E0FF1F4F4B0000E4150000C2
S31500005080770B0020C1E1FF1FB4E1FF1F6D0B00206D
S31500005090090B00203E0000003CE0FF1F88130000C3
S315000050A00A00000038E0FF1F0CE0FF1F04E0FF1FAE
S315000050B044E0FF1F48E0FF1F4CE0FF1F50E0FF1FCA
S315000050C00CE1FF1F40E0FF1FBCE1FF1F02F025FFC0
S315000050D00A21FE4802F021FF0A21FC4802F01DFFCA
S315000050E00A21FA4802F019FF0A21F84802F015FFD2
S315000050F00A21F64802F011FF0A21F44802F00DFFDA
S315000051000A21F24802F009FF0A21F04802F005FFE1
S315000051100A21EE4802F001FF0A21EC4802F0FDFEEA
S315000051200A21EA4802F0F9FE0A21E84802F0F5FEF3
S315000051300A21E64802F0F1FE0A21E44802F0EDFEFB
S315000051400A21E24802F0E9FE0A21E04802F0E5FE03
S315000051500A21DE4802F0E1FE0A21DC4802F0DDFE0B
S315000051600A21DA4802F0D9FE0A21D84802F0D5FE13
S315000051700A21D64802F0D1FE0A21D44802F0CDFE1B
S315000051800A21D24802F0C9FE0A21D04802F0C5FE23
S315000051900A21CE4802F0C1FE0A21CC4802F0BDFE2B
S315000051A00A21CA4802F0B9FE0A21C84802F0B5FE33
S315000051B00A21C64802F0B1FE0A21C44802F0ADFE3B
S315000051C00A21C24802F0A9FE0A21C04802F0A5FE43
S315000051D00A21BE4802F0A1FE0A21BC4802F09DFE4B
S315000051E00A21BA4802F099FE0A21B84802F095FE53
S315000051F00A21B64802F091FE0A21B44802F08DFE5B
S315000052000A21B24802F089FE0A21B04802F085FE62
S315000052100A21AE4802F081FE0A21AC4802F07DFE6A
S315000052200A21AA4802F079FE0A21A84802F075FE72
S315000052300A21A64802F071FE0A21A44802F06DFE7A
S315000052400A21A24802F069FE0A21A04802F065FE82
S315000052500A219E4802F061FE0A219C4802F05DFE8A
S315000052600A219A4802F059FE0A21984802F055FE92
S315000052700A21964802F051FE00BF9549954803F071
S3150000528007F9002809D19449924803F001F900284A
S3150000529003D1924800680528EFDD914801F03AFDF8
S315000052A0014601908E4803F023F905F033FD60E1D5
S315000052B0642005F04FFD05F02DFD6421894803F0BB
S315000052C017F9874801F026FD401C0346864A8249A5
S315000052D03C310190834802F051FF05207E4B1A466F
S315000052E0603282A100907F48FBF792F87A497948AC
S315000052F003F0CEF8002804D043207B4908703A20FA
S31500005300487005F007FD0020794908607349086078
S31500005310784908600DE0724876490968405C0146A4
S3150000532001906A4802F0F9FD72480068401C714914
S3150000533008606B4801F0EEFC6E4909688842EAD8BD
S315000053400A21624802F0E9FD0A21604802F0E5FD03
S315000053500A215E4802F0E1FD0A215C4802F0DDFD0B
S315000053600A215A4802F0D9FD0A21584802F0D5FD13
S315000053700A21564802F0D1FD0A21544802F0CDFD1B
S315000053800A21524802F0C9FD0A21504802F0C5FD23
S315000053900A214E4802F0C1FD0A214C4802F0BDFD2B
S315000053A00A214A4802F0B9FD0A21484802F0B5FD33
S315000053B00A21464802F0B1FD0A21444802F0ADFD3B
S315000053C00A21424802F0A9FD0A21404802F0A5FD43
S315000053D00A213E4802F0A1FD0A213C4802F09DFD4B
S315000053E00A213A4802F099FD0A21384802F095FD53
S315000053F00A21364802F091FD0A21344802F08DFD5B
S315000054000A21324802F089FD0A21304802F085FD62
S315000054100A212E4802F081FD0A212C4802F07DFD6A
S315000054200A212A4802F079FD0A21284802F075FD72
S315000054300A21264802F071FD0A21244802F06DFD7A
S315000054400A21224802F069FD0A21204802F065FD82
S315000054500A211E4802F061FD0A211C4802F05DFD8A
S315000054600A211A4802F059FD0A21184802F055FD92
S315000054700A21164802F051FD0A21144802F04DFD9A
S315000054800A21124802F049FD0A21104802F045FDA2
S315000054900A210E4802F041FD0A210C4802F03DFDAA
S315000054A00A210A4802F039FD0A21084802F035FDB2
S315000054B00A21064802F031FD0A21044802F02DFDBA
S315000054C00A21024802F029FD0A2115E000B0064033
S315000054D04C11000074E2FF1FDC0C000014E0FF1FFB
S315000054E0FCF5FF1F770B0020BCE1FF1F3E0000000C
S315000054F00CE0FF1F04E0FF1FFE4802F00EFD0A212C
S31500005500FC4802F00AFD0A21FA4802F006FD0A21CB
